:020000040800F2
:10000000E871002015030008330300081D7F000875
:1000100037030008390300083B0300080000000014
:100020000000000000000000000000003D03000888
:100030005703000800000000F97E00085B03000879
:100040005D0300085D0300085D0300085D03000810
:100050005D0300085D0300085D0300085D03000800
:100060005D0300085D0300085D0300085D030008F0
:100070005D0300085D0300085D0300085D030008E0
:100080005D0300085D0300085D0300080790000899
:10009000E58E00085D0300085D0300085D030008AD
:1000A0005D0300085D0300085D0300085D030008B0
:1000B0004D9400085D0300085D0300085D0300081F
:1000C0005D0300085D0300085D0300085D03000890
:1000D0005D0300085D0300085D0300085D03000880
:1000E0005D030008FD4700085D0300085D0300088C
:1000F000B54100085D0300085D0300085D030008CA
:100100005D0300085D0300085D0300085D0300084F
:100110005D0300085D0300085D0300087B94000890
:100120005D0300085D0300085D0300085D0300082F
:100130005D0300085D0300085D0300085D0300081F
:100140005D0300085D0300085D0300085D0300080F
:100150005D0300085D0300085D0300085D030008FF
:100160005D0300085D0300085D0300085D030008EF
:100170005D0300085D0300085D0300085D030008DF
:100180005D0300085D03000800F002F800F0B2F81B
:100190000AA090E8000C82448344AAF10107DA45E2
:1001A00001D100F0A7F8AFF2090EBAE80F0013F082
:1001B000010F18BFFB1A43F001031847E81F0100A5
:1001C000082001000A444FF0000C10F8013B13F026
:1001D000070408BF10F8014B1D1108BF10F8015BA0
:1001E000641E05D010F8016B641E01F8016BF9D193
:1001F00013F0080F1EBF10F8014BAD1C0C1B09D1EA
:100200006D1E58BF01F801CBFAD505E014F8016B5B
:1002100001F8016B6D1EF9D59142D6D370470000ED
:100220000023002400250026103A28BF78C1FBD8FF
:10023000520728BF30C148BF0B6070476E290CF0D1
:10024000F78770290DF0478066290FF0F987652937
:100250000FF0F68767290FF0F3876129AFF300806D
:1002600003681B0A28BF41F0800169290CF0A487AC
:1002700064290CF0A18775290CF09E876F290DF079
:100280005E8678290DF01380E9290DF0F985E429BF
:100290000DF0F685F5290DF0F385EF290DF05B865D
:1002A000F8290DF012800368DB0928BF41F08001B6
:1002B00063290DF07A8573290DF07F85E3290EF00F
:1002C000B581F3290EF0BA81002070471FB50FF0F9
:1002D0002FFF0EF00BF90400002000210FF0A8FC06
:1002E000401C6060002000210FF08CFCE0601FBD0E
:1002F00010B510BD0EF0F6FB1146FFF7E7FF05F055
:10030000FFFF0EF047FE03B4FFF7F2FF03BC0EF051
:100310005DFE000015481649026800608A4203D05D
:1003200014488047144800471448D0F800D040686B
:100330000047FEE7FEE7FEE7FEE7FEE71EF0040FDC
:100340000CBFEFF30880EFF30980806910F8020C0E
:1003500007F0DDBDFEE7FEE7FEE7FEE7FEE7000093
:1003600007480849084A094B70470000F01F002061
:10037000EFBEADDE9F490008890100080000FF1FA5
:10038000E86B0020E8710020E86D0020E86D002097
:1003900001468A1E0A2A1AD2DFE802F00507090B75
:1003A0000D0F11131517022013E0032011E0042094
:1003B0000FE005200DE006200BE0072009E00820F3
:1003C00007E0092005E00A2003E00B2001E00120FE
:1003D00000BF00BF704710B504464FF04040FE49D3
:1003E00048604042086088644042C8640120C86692
:1003F0000846006F20F00100401C08670846006FA7
:1004000020F00200801C08670846006F20F00400FE
:10041000001D08670846006F20F0080008300867D4
:100420000846006F20F01000103008670846006F83
:1004300020F02000203008670220086108621020A8
:10044000C8620021E44881660E2C80F01187DFE845
:1004500014F00F0710070E0096001D01A4015902A9
:10046000E4026D034405BB04F603CD0584060120B8
:10047000DA49086002208860D9A1D8480C300CF015
:1004800035FE0120D549C86108629FEDD70A0846AC
:1004900080ED0D0AB1EE080A80ED0E0A9FEDD30A39
:1004A00080ED0A0A9FEDD00A80ED090A9FEDD00A7F
:1004B00080ED0B0A9FEDCF0A80ED0C0AB6EE000A24
:1004C00080ED0F0AB6EE000A80ED100A9FEDCA0A11
:1004D00080ED110A9FEDC90A80ED120A4FF4103029
:1004E000BD4908600846006F20F00100401C086705
:1004F0000846006F20F00400001D08670846006FE2
:1005000020F01000103008670846006F20F002004D
:10051000801C08670846006F20F008000830086754
:100520000846006F20F02000203008670846006F62
:1005300020F0400008670846006F20F08000086740
:1005400095208860AE48C860AE4888624FF4C040CD
:10055000086340F69910486195208861A848C861F1
:10056000F520486240F2B3108865C3219A48C165FE
:1005700040F2E1310166C321416600F0D5BE0120A1
:1005800096490860032088609FA194480C300CF0C5
:10059000ADFD01209149C86108629FED930A0846AC
:1005A00080ED0D0AB2EE080A80ED0E0A9FED8F0A6B
:1005B00080ED0A0A9FED8C0A80ED090A9FED8C0AF6
:1005C00080ED0B0A9FED8B0A80ED0C0AB6EE000A57
:1005D00080ED0F0AB6EE000A80ED100A9FED860A44
:1005E00080ED110A9FED850A80ED120A4FF49020EC
:1005F000794908600846006F20F00100401C086738
:100600000846006F20F00400001D08670846006FD0
:1006100020F01000103008670846006F20F002003C
:10062000801C08670846006F20F008000830086743
:100630000846006F20F02000203008670846006F51
:1006400020F0400008670846006F20F0800008672F
:10065000952088606A48C8606A4888624FF4C04044
:10066000086340F699104861952088616448C86124
:10067000F520486240F2B3108865C3215648C16531
:1006800040F2E1310166C321416676E7012053491A
:100690000860042088605EA150480C300CF026FDF4
:1006A00001204E49C86108629FED4F0A084680ED5F
:1006B0000D0AB3EE090A80ED0E0A9FED4C0A80ED9B
:1006C0000A0A9FED490A80ED090A9FED490A80ED6B
:1006D0000B0A9FED480A80ED0C0AB6EE000A80ED89
:1006E0000F0AB6EE000A80ED100A9FED430A80ED76
:1006F000110A9FED420A80ED120A4FF41620364986
:1007000008600846006F20F00100401C086708469A
:10071000006F20F00400001D08670846006F20F0FD
:100720001000103008670846006F20F00200801C9F
:1007300008670846006F20F0080008300867084680
:10074000006F20F02000203008670846006F20F07E
:10075000400008670846006F20F080000867952079
:1007600088602748C860274888624FF4C040086303
:1007700040F699104861952088612148C861F520AC
:10078000486240F2B3108865C3211348C16540F246
:10079000E1310166C3214166EFE602200F4908609E
:1007A000052088601CA10D480C300CF09FFC012036
:1007B0000A49C86108629FED0C0A084680ED0D0ADF
:1007C0009FED170A80ED0E0A9FED160A80ED0A0ACA
:1007D00090ED0A0A28E00000480400205C05002093
:1007E0005A3630360000000000000000ABAA2A385C
:1007F000B53706498D773B430000704300409C4568
:100800007D080500BD3104005A3631320000000079
:100810005A36323500000000435A312D5A36000056
:100820000000B4430000203A5FED030A80EE801A16
:1008300080ED091A1FED120A80ED0B0A1FED130A55
:1008400080ED0C0AB6EE000A80ED0F0AB6EE000A43
:1008500080ED100A1FED180A80ED110A1FED190A2C
:1008600080ED120A4FF08040FE4908604042486027
:100870000846006F20F0010008670846006F20F06E
:10088000040008670846006F20F010001030086769
:100890000846006F20F0020008670846006F20F04D
:1008A0000800083008670846006F20F0200020305C
:1008B00008670846006F20F0400008670846006F90
:1008C00020F08000086763208860E748C860401017
:1008D000886240F24710086340F2666048614A202F
:1008E0008861E248C86140F24710486240F25230E5
:1008F00088653221DB48C1654FF42A6101663221E7
:1009000041663AE60220DA49086006208860D9A1EB
:10091000D7480C300CF0EAFB0120D549C8610862C9
:100920001FED4F0A084680ED0D0A1FED430A80EDCA
:100930000E0A9FEDD20A80ED0A0A90ED0A0A5FEDD9
:10094000480A80EE801A80ED091A9FEDCD0A80EDED
:100950000B0A9FEDCC0A80ED0C0AB3EE090A80ED7C
:100960000F0AB3EE090A80ED100A1FED5D0A80ED53
:10097000110A1FED5E0A80ED120ABA48006F20F0DE
:100980000100B84908670846006F20F004000867B6
:100990000846006F20F01000103008670846006F0E
:1009A00020F0020008670846006F20F008000830B9
:1009B00008670846006F20F02000203008670846CE
:1009C000006F20F0400008670846006F20F08000AC
:1009D0000867AD48886241F6FE5008634FF08040DA
:1009E00008604042486092208860A748C86042F290
:1009F0007E504861DB208861A448C86140F27F7066
:100A0000486240F25230886596219648C1654FF49D
:100A10002A61016632214166AFE5012094490860F0
:100A2000072088609AA192480C300CF05FFB0120EF
:100A30008F49C86108621FED940A084680ED0D0ACF
:100A4000B3EE090A80ED0E0A9FED940A80ED0A0AC2
:100A50001FED9B0A80ED090A9FED910A80ED0B0ABC
:100A60009FED900A80ED0C0A9FED8F0A80ED0F0A32
:100A7000B1EE040A80ED100A1FEDA10A80ED110A03
:100A80001FEDA20A80ED120A8848764908600846E0
:100A9000006F20F00100401C08670846006F20F03E
:100AA0000400001D08670846006F20F01000103099
:100AB00008670846006F20F00200801C086708469F
:100AC000006F20F00800083008670846006F20F02B
:100AD0002000203008670846006F20F040000867BB
:100AE0000846006F20F0800008677148886248F26D
:100AF000FA6008634FF4C47088606E48C86044F2BE
:100B00007D3048614FF4C47088616A48C86140F222
:100B1000BF60486240F23130886533215148C16579
:100B20004FF42A61016633214166FDE301205049FB
:100B300008600820886060A14D480C300CF0D6FA9F
:100B400001204B49C86108621FEDD90A084680EDB3
:100B50000D0A9FED5C0A80ED0E0A9FED500A80EDB4
:100B60000A0A1FEDDF0A80ED090A9FED4D0A80EDAC
:100B70000B0A9FED4C0A80ED0C0A9FED4B0A80EDAD
:100B80000F0AB1EE040A80ED100A1FEDE50A80EDB0
:100B9000110A1FEDE60A80ED120A4B483149086040
:100BA0000846006F20F00100401C08670846006FEF
:100BB00020F00400001D08670846006F20F01000B8
:100BC000103008670846006F20F00200801C08679C
:100BD0000846006F20F00800083008670846006FDC
:100BE00020F02000203008670846006F20F0400009
:100BF00008670846006F20F0800008672C4888626C
:100C000048F2FA6008634FF4C47088602948C860ED
:100C100044F27D3048614FF4C47088612548C86152
:100C200040F2BF60486240F23130886533210D48A0
:100C3000C1654FF42A6101663321416674E30120E6
:100C40000B4908600B20886020A109480C300CF08B
:100C50004DFA01200649C86108629FED1E0A084648
:100C60003AE000004804002052790400FE5A0300D4
:100C70005C05002050524D312D5A38000E8F083A35
:100C8000A9BD27475C8F6A41C58B0600A7D1090023
:100C90004D545332352D5A3800000000E5C2F2376A
:100CA000A2293B4960B582439A991940822E0D00D2
:100CB0009AB20B00E2C020004D545335302D5A3803
:100CC0000000000000004842045D1A005A38303627
:100CD000000000000000000080ED0D0AB1EE080ADF
:100CE00080ED0E0A1FED130A80ED0A0A1FED070AB8
:100CF00080ED090A1FED160A80ED0B0A1FED170A99
:100D000080ED0C0A9FEDFE0A80ED0F0AB1EE040A99
:100D100080ED100A9FEDFB0A80ED110A9FEDFA0AA3
:100D200080ED120AF948FA4908600846006F20F081
:100D30000100401C08670846006F20F00400001DF9
:100D400008670846006F20F010001030086708465A
:100D5000006F20F00200801C08670846006F20F03A
:100D60000800083008670846006F20F02000203097
:100D700008670846006F20F0400008670846006FCB
:100D800020F0800008674FF4C4708860E148C860B4
:100D9000E148886242F67E00086340F67F50486171
:100DA00040F20A208861DD48C86140F25F30486245
:100DB00040F2B3108865C321D548C16540F2E131E6
:100DC0000166C3214166AFE20120D54908600A20CF
:100DD0008860D4A1D2480C300CF088F90120D049A9
:100DE000C86108621FED450A084680ED0D0AB2EEA3
:100DF000080A80ED0E0A1FED570A80ED0A0A1FED62
:100E00004B0A80ED090A1FED5A0A80ED0B0A1FED0F
:100E10005B0A80ED0C0A9FEDBA0A80ED0F0AB1EE75
:100E2000040A80ED100A9FEDB70A80ED110A9FEDCC
:100E3000B60A80ED120ABD48B54908600846006F41
:100E400020F00100401C08670846006F20F00400F5
:100E5000001D08670846006F20F01000103008677A
:100E60000846006F20F00200801C08670846006FEB
:100E700020F00800083008670846006F20F02000C6
:100E8000203008670846006F20F0400008670846D9
:100E9000006F20F0800008674FF4C47088609D48A0
:100EA000C8609D48886242F67E00086340F67F5025
:100EB000486140F20A2088619848C86140F25F307A
:100EC000486240F2B3108865C3219148C16540F281
:100ED000E1310166C321416626E2012090490860A4
:100EE0000920886092A18E480C300CF0FFF8012098
:100EF0008B49C86108621FED890A084680ED0D0A1A
:100F0000B3EE090A80ED0E0A1FED9C0A80ED0A0A75
:100F10001FED900A80ED090A1FED9F0A80ED0B0A74
:100F20001FEDA00A80ED0C0A9FED750A80ED0F0AF7
:100F3000B1EE040A80ED100A9FED720A80ED110AED
:100F40009FED710A80ED120A7B48714908600846DE
:100F5000006F20F00100401C08670846006F20F079
:100F60000400001D08670846006F20F010001030D4
:100F700008670846006F20F00200801C08670846DA
:100F8000006F20F00800083008670846006F20F066
:100F90002000203008670846006F20F040000867F6
:100FA0000846006F20F0800008674FF4C470886026
:100FB0005848C8605848886242F67E00086340F688
:100FC0007F50486140F20A2088615448C86140F26D
:100FD0005F30486240F2B3108865C3214C48C16558
:100FE00040F2E1310166C32141669DE102204C4996
:100FF00008600520886051A149480C300CF076F853
:1010000001204749C861002008621FEDCE0A08464A
:1010100080ED0D0A9FED4B0A80ED0E0A9FED4A0A06
:1010200080ED0A0A90ED0A0ADFED460A80EE801A8A
:1010300080ED091A9FED450A80ED0B0A9FED440AE9
:1010400080ED0C0AB1EE000A80ED0F0AB1EE000A45
:1010500080ED100A9FED2B0A80ED110A9FED2A0A00
:1010600080ED120A4FF080402949086040424860F4
:101070000846006F20F0010008670846006F20F066
:10108000040008670846006F20F010001030086761
:101090000846006F20F0020008670846006F20F045
:1010A000080008670846006F20F02000203008671D
:1010B0000846006F20F0400008670846006F20F0E7
:1010C000800008673220886044F65A40C8600120DA
:1010D00088620020086340F26660486126208861CB
:1010E00043F64410C86140F24710486240F2523063
:1010F000886532210648C1654FF42A61016629E0FE
:10110000333313400000704300409C45E129030045
:1011100048040020E2C020009AB20B00346517009A
:101120005C0500205A38313200000000C35306002D
:101130005A38323500000000822E0D004352312D06
:101140005A3700000000B4430000203A002A0F473D
:10115000508DBE4232214166E6E00220814908609E
:101160000D20886080A17F480C300BF0BFFF01206C
:101170007C49C86108629FED7E0A084680ED0D0A31
:101180001FED100A80ED0E0A9FED7A0A80ED0A0A23
:1011900090ED0A0A5FED150A80EE801A80ED091ABB
:1011A0009FED750A80ED0B0A9FED740A80ED0C0A25
:1011B000B3EE090A80ED0F0AB3EE090A80ED100ABA
:1011C0001FED300A80ED110A1FED310A80ED120A81
:1011D0006B48006F20F00100694908670846006FFE
:1011E00020F0040008670846006F20F0100010305F
:1011F00008670846006F20F0020008670846006F85
:1012000020F00800083008670846006F20F0200032
:10121000203008670846006F20F040000867084645
:10122000006F20F0800008675648886241F6FE5043
:1012300008634FF080400860404248609220886018
:101240005048C86042F27E504861DB2088614E48B9
:10125000C86140F27F70486240F252308865962142
:101260004748C1654FF42A610166322141665BE05F
:1012700000BF00203B49086044A13A480C300BF005
:1012800035FF01203749C8619FED390A084680EDD6
:101290000D0AB7EE000A80ED0E0AB7EE000A80EDE7
:1012A0000A0A9FED330A80ED090AB7EE000A80EDC5
:1012B0000B0AB7EE000A80ED0C0AB7EE000A80EDCB
:1012C0000F0AB7EE000A80ED100A9FED320A80ED9A
:1012D000110A9FED310A80ED120A4FF08040284933
:1012E0000860952088602D48C8602D4888624FF4BA
:1012F000C040086340F699104861952088612748EE
:10130000C861F52048620846006F20F001000867B8
:1013100040F2B3108865C3211948C16540F2E1313C
:101320000166C321416600BF00BF0E4890ED0F0A61
:10133000DFED1C0A20EE200AD0ED0B0A20EE200A79
:10134000BDEEC00A0E4880ED0F0A90ED020AB8EE1D
:10135000C00ADFED140A20EE200ABDEEC00A80EDBF
:10136000100A10BD5C05002050524D545A38000040
:10137000000000000E8F083AA9BD27475C8F6A4124
:1013800048040020C58B0600A7D10900756E6B6E5E
:101390006F776E0000007A4400401C467D0805000F
:1013A000BD3104006666663F5A4800685A490843E2
:1013B000584908605948006840F03F0057490860A4
:1013C00056480C30006820F03F0054490C3108604A
:1013D00050481430006840F480704E491431086061
:1013E0004F48006840F440304E49C1F8040340F2D1
:1013F0000330886040F2FF10C8600846C06A20F4DD
:101400007000C8620846C06A40F40010C86243F227
:101410006A1048634448006820F0010042490860AF
:1014200000E000BF4048006800F001000028F8D14B
:101430003D48006820F060603B490860084600684D
:1014400040F45060086037484C3037490831086034
:101450003648091D086003203349091D08603148DA
:10146000406840F480702F4948600846406820F08A
:10147000007048600846406840F0807048602A4824
:10148000006840F00100284908602648806840F064
:1014900080402449886070472348006820F001009C
:1014A0002149086000E000BF1F48006800F001000B
:1014B0000028F8D11B48806820F001001949886095
:1014C0000846C06A20F47000C8620846C06A40F44A
:1014D0008010C86202201449091D08604FF4B570DD
:1014E000104948630846806840F0010088600E4853
:1014F000006840F001000C4908600A48806840F02C
:1015000080400849886070470146084830F811005B
:1015100070470000303802400400400000080240DC
:1015200004230140002001407064024000000020BC
:1015300070B50020FFF7E8FF4FF47A7100FB01F56A
:101540000220FFF7E1FFB5FBF0F41A2C01D20120D5
:1015500070BD482C01D20220FAE7982C01D203205A
:10156000F6E7B4F5857F01D20420F1E7B4F5B47F46
:1015700001D20520ECE7B4F5E17F01D20620E7E7D0
:1015800040F22320844201D20720E1E7B4F5207F16
:1015900001D80820DCE740F2E720844201D209208C
:1015A000D6E7B4F5557F01D80A20D1E740F2BB3029
:1015B000844201D20B20CBE70C20C9E710B50120F3
:1015C000FFF7A2FF00EE100AB8EE400ADFEDFC0ABA
:1015D00020EE200A10BD70B504460025062C7DD2F1
:1015E000DFE804F0031E446282B1F648006840F070
:1015F0000400F44908600846006820F0080008600C
:10160000F148008820F48070EF4908804814ED49C3
:1016100018310860C0030860002002F03DFFC0E000
:10162000E848006840F00400E649086008460068A1
:1016300020F008000860E448008820F48850E2495F
:101640000880E1482038008820F00100DE49203978
:1016500008804814DB4918310860C0030860801214
:10166000DA4988610820DA4908609AE0D5480068BC
:1016700040F00400D34908600846006820F00800E4
:1016800008608814CF4918310860400408600420BD
:10169000CE4988610820CE490860CB48008840F4D4
:1016A0008070C94908807CE0C648006840F00400AA
:1016B000C44908600846006820F008000860C24875
:1016C000008820F48070C04908804814BD49183152
:1016D0000860C00308600420BC4900E05FE0886146
:1016E0000820BB4908605CE04FF48020B8490860DE
:1016F000B7481838006840F01000B549183908603C
:101700000846006820F020000860AE48006820F01D
:101710000400AC4908600846006840F00800086012
:10172000C804A84918310860401408600420A7497B
:1017300088610820A6490860A348008840F48850C2
:10174000A14908802DE09F48006840F004009D49B1
:1017500008600846006820F0080008609B480068A0
:1017600020F00C00994908600420994908609848C5
:101770001838006840F0100095491839086008468C
:10178000006820F0200008604FF400508D491831A7
:101790000860C003086040128D49086001E001251F
:1017A00000BF00BF284670BD10B507F083FD894912
:1017B000C968484388494843C41304F3070010BD6F
:1017C00010B5044600EE104AF8EEC00A9FED831AE9
:1017D000B6EE000A00EE810A10EE101A08460EF06E
:1017E0005AFC0446E0B209F093FC002C02DD09F03B
:1017F00027FF01E009F01FFF10BD002801DA0020DB
:1018000002E0642800DD6420754901EBC001754ADF
:1018100011607047744801680068401C724A10608B
:10182000704800684068814202DB01201146086070
:101830006C48006800686C490968884205DA4FF412
:10184000802060491831086003E004205D491831A8
:101850000860704710B50446E0B209F059FC10BDAD
:10186000704708B16149086070472DE9F0418EB0BA
:1018700006460D4617464FF00008012E02D0022EF4
:1018800011D107E05A485B4908605B480C905B48FF
:101890000D900CE0564810305649086058480C909E
:1018A00058480D9003E000200EB0BDE8F08100BF65
:1018B000012F01D1012000E000200446132D7DD22C
:1018C000DFE805F00A0B0C0D0E0F7C7C7C7C1622E9
:1018D0002660B7E42324250000BF00BF00BF00BF7F
:1018E00000BF4448006800F0E6FC0C988047F6E032
:1018F0004048006800F0DFFC0CB9012200E0002243
:1019000010460D998847EAE000BF00BF00BF00BF46
:10191000A5F10B0008281ED2DFE800F004091D1D08
:101920001D0E1318022033490968086013E00120D6
:101930003049096808600EE003202E4909680860F4
:1019400009E004202B490968086004E005202949C2
:101950000968086000BF00BF26490D980968486003
:101960000CB9012000E00020224909688860214864
:101970000068C4600CB9012200E0002210460D99F5
:101980008847ACE01B48006800F095FC1E48406AA0
:1019900001901D48806A02901B48C06A03900D9810
:1019A00004901948426AC06A401E1749896A00FBC0
:1019B000012005901448806A414227E08EE0000033
:1019C00068A2893F00040240200400400000024059
:1019D00018080240A80500205C8F02009A99993EE1
:1019E0004003010808000020100000200C00002027
:1019F0003C05002014000020133900083539000888
:101A00005B3900087D390008BC04002006915F485E
:101A1000C16A07915E490891C06B09905B48006CF0
:101A200040000B900A9401A807F0CEFC4FF001088B
:101A300055E05848006800F03EFC5448006B0190A7
:101A40005248406B404202905048806B03900D9882
:101A500004904E48026B806B401E4C49496B00FB62
:101A6000112005904948416B0691816B07914849C7
:101A70000891C06B09904548006C40000B900A9497
:101A800001A807F0A1FC4FF0010828E041480068D8
:101A900000F011FC3D48406A01903C48806A029089
:101AA0003A48C06A03900D9804903848006B05903E
:101AB0003648406B414206913448816B07910D993D
:101AC0000891C06B09903148006C40000B900A945B
:101AD00001A807F079FC4FF0010800E000BF00BF4B
:101AE0004046E1E62DE9F84F83460E469046002039
:101AF0000090BBF1010F03D0BBF1020F0FD105E045
:101B0000DFF894A0254C264D264F0BE0DFF898A077
:101B1000224C241D224D2D1D224F3F1D02E000208E
:101B2000BDE8F88F00BF3868B04203D06FF0010005
:101B3000286020603E60022E08D0032E04D0042EC0
:101B400003D0052E19D102E000BF00BF00BF2068FE
:101B50002860D047206020682968A0EB0109B8F10F
:101B6000010F02D1B9F1010F05D0B8F1020F03D175
:101B700009F1010000B9009604E06FF0010028604F
:101B8000206000BF00BF0098CAE70000BC0400202E
:101B9000B5220008140000201339000818000020A6
:101BA00020000020280000205B3900082DE9F043C8
:101BB000044604F30F02AA4800681044DFF8A0822C
:101BC000C8F80000A748406E0102404600688842FD
:101BD00002DD404601600AE0A1480068C1F100084A
:101BE000404504DA4842DFF87882C8F800009C4893
:101BF00000680012DFF86C82D8F85C8000FB08FCFB
:101C00009948D0F800800068401CDFF85C92C9F861
:101C100000009448806E80450EDB0020C846C8F85E
:101C2000000092480068171A07F30F00DFF840829F
:101C3000C8F800008D4802608A48806D00FB02F5FC
:101C40008B480068012803D089480068401C08B907
:101C5000002307E08348006EDFF81482D8F8008084
:101C600000FB08F30CEB0500C61806F30F00BDE8F7
:101C7000F08310B500207A4908602C2000F0DBF8D2
:101C800010BD10B52C2000F0E1F800207449086068
:101C900010BD10B52C2000F0D9F8764800687649C0
:101CA00048607648006808607548006848612C20E4
:101CB00000F0C1F87348006800096A4991F8701093
:101CC00080EA1110C1436C48006B61F38E306A49A1
:101CD00008636C4800684009624991F8701080EA16
:101CE0005110C1436448006B61F3CF30624908630F
:101CF00010BD01B5FFF7C5FF009807F0AEFC5E49C7
:101D0000009808605D490098086000231A46009911
:101D1000084600F0B7FA684600F0BCF8022000F070
:101D2000BBFA684600F0B6F8FFF7A3FF08BD5248BB
:101D3000006A032827D14B4890F87000C0F3C01008
:101D400050B150480068C0F30010464991F8701037
:101D5000C1F30011884210D1424890F87000C0F3DE
:101D6000C01080B947480068C0F340103D4991F861
:101D70007010C1F34011884205D0404800683E49C8
:101D800088600420086270472DE9F04707F061FC85
:101D90003D49C96900FB01F838480068A0EB08001C
:101DA000374908603548C0F80080324800F072F8C2
:101DB000064630490968314A1268881AFFF7F6FE6C
:101DC0003149C96900FB01F73049098807FB01F077
:101DD000C11700EB5141C9130FFA81FA2648008E52
:101DE000C0F3002010B9504602F07FF92248076185
:101DF000C66006F0010030B11F48006B20F0010002
:101E0000401C1D49086300240FE01B48343000EBE0
:101E100004152868012807D1C6F3800905F10802D6
:101E200052F8290069688847641C022CEDDBFFF733
:101E30007EFFBDE8F08700F01F02012191404209BA
:101E4000920002F1E022C2F80011704700F01F0278
:101E5000012191400E4A430942F8231070470000C7
:101E600030000020480400204000002048000020EE
:101E70004400002038000020080500203400002025
:101E80003C000020100402405C050020D00100202E
:101E900080E100E02DE9F0470746F8484369D0E9C2
:101EA0000E564068012804D0022879D0032878D142
:101EB000C4E0F2480068012858D1F1480068DFF812
:101EC000BCC3CCF82000EE488068CCF81C00EC487D
:101ED000C068CCF81800EA484068DFF8A4C3DCF812
:101EE00000C0A0EB0C00DFF894C3CCF810006046F3
:101EF0000069002811DD604600694FEAE07C4FEA86
:101F00004C4C4CEAD03C4004DFF87083C8E90C0C20
:101F10000020C446CCF8080011E0D84800694042CF
:101F20004FEAE07C4FEA4C4C4CEAD03C4004DFF8EE
:101F30004C83C8E90C0C0120C446CCF808000020F2
:101F4000DFF838C3CCF814008446DFF83083C8F8D3
:101F500028C0C8F82CC0C8F838C0C8F83CC0C4466F
:101F6000CCF80C000220CCF8000058E0C4484068CF
:101F7000DFF808C3DCF820C0A0EB0C00DFF8FCC2DF
:101F8000CCF810006046806860B16046006940424D
:101F90004FEAE07C4FEA4C4C4CEAD03241040AE074
:101FA00043E054E0B54800694FEAE07C4FEA4C4C0E
:101FB0004CEAD0324104B148D0E90E98406919EB9F
:101FC000000C48EBE070DFF8B492D9E90A89B1EB74
:101FD000080A62EB0908BCEB0A0C70EB080016DA81
:101FE000A648C0E90C12A648C068DFF890C2CCF839
:101FF000180060464069DCF818C0604501DA02202C
:1020000000E04020DFF874C2CCF8000007E0802038
:10201000DFF868C2CCF80C001020CCF800000020DB
:10202000DFF858C2CCF8040011E01020DFF84CC2F1
:10203000CCF800000020CCF8040008E02020DFF8F5
:102040003CC2CCF800000020CCF8040000BF00BF68
:102050008A480068102877D006DC022809D00428B6
:1020600030D008282DD12EE020286ED04028F9D17C
:1020700050E082484069DFF804C2DCF81CC06044CC
:10208000DFF8F8C1CCF8140060464069DCF818C0ED
:10209000604507DD794843610420DFF8E0C1CCF8F2
:1020A00000000EE07548D0E90E9C406918444FEAE4
:1020B000E07819EB00004CEB080CDFF8C081C8E9B0
:1020C0000E0C7FE07EE06D484069DFF8B0C1DCF8BF
:1020D0001CC0A0EB0C00DFF8A4C1CCF814006046D3
:1020E0004069002806DA0020CCF814000120CCF862
:1020F00000000EE06148D0E90E9C406918444FEAA8
:10210000E078B9EB00006CEB080CDFF87081C8E9EF
:102110000E0C57E059484069DFF860C1DCF81CC07C
:10212000A0EB0C00DFF854C1CCF814006046406905
:10213000DCF818C0604509DA504843610420DFF834
:102140003CC1CCF8000010E010E024E04B48D0E99E
:102150000E9C406918444FEAE078B9EB00006CEB44
:10216000080CDFF81881C8E90E0C2BE04348D0E9D1
:102170000A9C406919EB00094CEBE07CDFF8FC801D
:10218000D8E90E0819EB00004CEB080CDFF8EC80E6
:10219000C8E90C0C16E00020DFF8E0C0CCF8140011
:1021A00000236046D0E90AC0DFF8D080C8E90CC03F
:1021B0009C46C8F838C0C8F83CC00120C446CCF8DA
:1021C000000000BF00BF2D48D0E90A9C40691844B8
:1021D0004FEAE07819EB00004CEB080CDFF89C802C
:1021E000C8E90A0C4046D0E90CC0D8E90A98BCEB13
:1021F000090960EB0800DFF88480D8E90EC8B9EB64
:102200000C0C70EB080012DA1C484361D0E90CC0DA
:10221000BCEB050C60EB0600DFF86080C8E90AC083
:102220004046C0E90E560820C446CCF80000DFF84E
:102230004CC0DCE90A0C400C40EACC340F48806802
:1022400038B10E48006A001BDFF830C0CCF84000FF
:1022500006E00A48006A2044DFF820C0CCF84000BD
:102260000648006C386005480068DFF810C0DCF8EC
:102270000CC040EA0C00BDE8F087000050000020D0
:102280003804002030B5094C20606160A260E36032
:102290000124074D6C6030BD012803D10221044A9E
:1022A000516002E00321024A516070473804002067
:1022B00050000020704700210160AFF2070141602B
:1022C0000022C26000218160704700B586488749BE
:1022D0000860392048604FF0FF3088608448006B08
:1022E00020F00800824908630846006B20F01000C7
:1022F00008630846006B20F0040008630020C861F2
:1023000088610846006B20F0400008630846006BB7
:1023100020F020000863002008620846006B20F0CF
:102320000200801C08630846006B20F4806008638C
:102330000846006B20F4803008630020C86208461D
:10234000006B20F4807008630846006B20F4007076
:1023500000F5007008630846006B20F480300863C5
:102360000846006B20F4003008630846006B20F438
:1023700000500863002306E05D49343101EB03108F
:10238000FFF799FF5B1C022BF6DB0020584988629F
:1023900003204862012057498860C86010205649D0
:1023A000C8620120A1F844008863002048650865E0
:1023B00052490860B7EE000A084680ED0A0AB7EEF7
:1023C000000A80ED0B0AB7EE000A80ED0C0A9FEDC3
:1023D0004C0A80ED110A9FED4B0A80ED120A012094
:1023E000486000200873AFF233104749486000206E
:1023F0008860886208620120C860002008618861E6
:10240000C864C86208630120486308650020486505
:102410000846C06E20F04000C8660846C06E20F036
:102420008000C8660020886688654FF40040C86553
:102430000846C06E20F00200C8660846C06E20F054
:102440000400C8660846C06E20F01000C866084642
:10245000C06E20F00100401CC8660020886308643C
:10246000486488640846C06E20F48070C8660846D8
:10247000C06E20F40070C8663C202449086041F218
:102480007070486002208860002305E000211F482A
:102490000C3040F823105B1C022BF7DB01201B499A
:1024A0004861C8610A211948816101210162002047
:1024B00016494862002115488162C1620163416387
:1024C00081631349C163002101640121816400BD5E
:1024D000024692FBF1F001FB1020002A01DA0B46C4
:1024E00000E0002318447047C0FC9B011806002040
:1024F00008050020FC060020480400205C050020A0
:1025000000007A4400401C46A8050020BC040020BE
:10251000A086010010B50446002010BD2DE9F04F43
:1025200087B009200090F9480068C0F30010F8490E
:1025300091F87010C1F30011484080F00107F34892
:102540000068C0F34010F24991F87010C1F34011D7
:10255000484080F001083FB1ED4890F8700000F06D
:10256000010008B1012000E000200490B8F1000F44
:1025700007D0E74890F87000C0F3400008B1012090
:1025800000E000200390E34890F83000C0F3801092
:1025900048B1DF48C06E022803D0DD48C06E032872
:1025A00001D1012000E000200290029838B1D94802
:1025B0000068D749896C884201DB012000E00020D7
:1025C0008346029838B1D3480068D149C96C884223
:1025D00001DC012000E000200190049810B9BBF15B
:1025E000000F01D0012000E000200590039808B9F9
:1025F000019808B1012000E000208246C448C06E66
:1026000003280BD1BBF1000F01D1019830B1049820
:1026100020B9039810B90820009001E0092000902B
:10262000BC48006A012824D1B94890F87000C0F372
:10263000C01050B1B5480068C0F30010B44991F81B
:102640007010C1F30011884210D0B14890F87000AA
:10265000C0F3C01068B9AD480068C0F34010AC4981
:1026600091F87010C1F34011884202D10220A949AB
:102670000862A848806A012804D0022810D00328E4
:102680001FD118E0A348406A022802D0A148406A3E
:1026900010B901209F49486200209E49886210E0DD
:1026A0009C48406A022802D108209A4948620020CA
:1026B0009849886205E009209649486200208862AE
:1026C00000BF00BF9348406A0D2871D2DFE800F0D8
:1026D0007007A1FCFBFADCF9F8F7F6F5D8008D4895
:1026E00090F83000C0F3801078B38948C06E042899
:1026F0002BD1894800688649896C88420DDD854860
:1027000000688349896C884202DD8248006801E0E4
:102710007F48806C8049086017E07F4800687E49E8
:102720004968401A7A49C96C88420EDA79480068CB
:102730007749C96C884202DA7648006801E074483B
:10274000C06C754908600020486073480068714992
:102750000968884201DA012100E000216D48006B20
:1027600061F3C7106B490863084690F83000C0F366
:10277000C01010B1BAF1000F07D1664890F83000D0
:10278000C0F3C01040B9059830B1032061494862D8
:1027900062A0FFF7BFFE3BE05E4890F83000C0F358
:1027A000C01030B15C4800685B494968401A02E0DB
:1027B00089E15948006881465749CB688A6855497C
:1027C00008684946FFF75EFD52484A46016856A030
:1027D000FFF7A0FE4F48006B20F002004D49086350
:1027E0000846006B20F4806000F5806008630846AE
:1027F000006B20F4006008630846006B20F00100C5
:102800000863022048620846006B20F48050086389
:1028100059E1404890F83000C0F3C01010B1BAF14F
:10282000000F07D13B4890F83000C0F3C01068B9E2
:10283000059858B13748008EC0F3003030B935499B
:102840000098486200203449486018E0314890F808
:10285000300000F0010090B12E48007B00F08000B5
:1028600018B10C202B49486209E02B48406818B188
:1028700006202849486202E004202649486222E1F5
:102880000120244948621EE1002023494860214874
:10289000006B20F080001F49086302204862084650
:1028A000006B20F001000863DFF86CC0DCF80C302E
:1028B000DCF80820DCF8001007E0FBE0EAE0A9E023
:1028C00087E00CE040E014E05FE0DFF848C0DCF8AF
:1028D0000000FFF7D7FC07200E494862F3E00D48DF
:1028E00090F8300000F0010010B10420094948625E
:1028F000E9E001F0C7FC1249088006480068114968
:102900000860052003494862DDE000001004024031
:102910004804002008050020FC0600200D0A4D6F29
:102920007665496E680000000D0A4D6F7665206679
:10293000726F6D20256C6420746F20256C6400001C
:10294000980000209C000020F7480068F7490968BB
:102950000E1A022E15DA16F1020F12DD01F092FCAA
:10296000F3490988401A80B264280DDDEE48006BF7
:1029700020F4006000F50060EB4908630320486222
:1029800002E00420E84948629DE0E748006B20F43B
:102990008050E54908630846006B20F00200801C67
:1029A00008630846006B20F4806008630846008EC8
:1029B000C0F3403048B108460068DE490860DA4894
:1029C000006B20F40050D84908630020D6494862C3
:1029D00079E0D9A0FFF79EFDD348006B20F40050AA
:1029E00000F50050D04908630846006B20F4805081
:1029F00000F5805008630846006B20F00100086372
:102A00000020CC4948600120FFF746FC0A20C64957
:102A1000486258E001F09BFBCAA0FFF77BFD002055
:102A2000C4494860C048006B20F4805000F58050D5
:102A3000BD4908630846006B20F00100401C086394
:102A40000220FFF729FC06A8FFF724FAB648006821
:102A5000B8490860FFF715F9DFF8D8C2DCF80C3088
:102A6000DCF80820DFF8C0C2DCF80010DCF8000059
:102A7000FFF708FC06A8FFF70DFAFFF7FAF8AA48D7
:102A8000008EC0F3402008B101F058FB0A20A6498F
:102A9000486218E0A44890F8300000F0010040B10E
:102AA000A148006B20F00400001D9F4908630B2023
:102AB000486208E09C48006B20F004009A490863D3
:102AC0000420486200BF00BF002546E0964834302D
:102AD00000EB05142068022806D0032813D0042830
:102AE0001DD0052837D127E08F4A128EC2F38022ED
:102AF00082F0010282F0010304F1080252F823007F
:102B00006168884727E0012F01D1012300E00023FD
:102B100004F1080252F82300616888471BE0B8F10D
:102B2000010F01D1012300E0002304F1080252F853
:102B30002300616888470EE0012F02D0B8F1010F31
:102B400001D1012300E0002304F1080252F8230020
:102B50006168884700BF00BF6D1C022DB6DB72485C
:102B6000406A07B0BDE8F08F1FB572489DE81E00AF
:102B70001EC001206C4988621FBD6B498862704786
:102B80006C49086000216B4A516070471FB5664868
:102B9000C069012802D0022811D10AE06248806988
:102BA00010B901206049886100205F49C86108624E
:102BB00005E000205C498861C861086200BF00BF71
:102BC000594880690C287BD2DFE800F0060D606B65
:102BD0007BA3C6D1F8F6F5F45348006B20F0200033
:102BE0005149086319E15048006B20F02000203063
:102BF0004D490863002001905448C06A0290534830
:102C0000806A0390514890F87000C0F38010E0B1E2
:102C10004F480068C0F300104C4991F87010C1F3A0
:102C20000011884208D14FF04040009003203E49F7
:102C300008620520886124E04FF080400090012068
:102C400039490862022088611BE041480068C0F3EE
:102C500040103E4991F87010C1F34011884208D1EC
:102C60004FF08040009003202F49086205208861C2
:102C700007E04FF04040009001202B4908620220FD
:102C800088619DE80F00FFF76FFFC6E02648006AE5
:102C9000022805D10320FFF770FF03202249886135
:102CA000BBE02148406A50B91F48806A012806D01D
:102CB00001F0E8FA2749088004201B498861ACE04C
:102CC000AAE001F0DFFA23490988401A80B2B0F582
:102CD000C87F1DDD1D4890F87000C0F3801018B14A
:102CE0004FF04040009002E04FF080400090002004
:102CF00001901648C06A02901448806A03909DE8CB
:102D00000F00FFF731FF03200749086205208861A3
:102D100083E00548006A042805D10320FFF72DFF52
:102D200006200149886178E0080500209C00002009
:102D300098000020FC0600200D0A53746F702E2EA0
:102D40002E0000000D0A53746F702100480400200B
:102D500010040240A0000020F748406A30B9F6484D
:102D6000806A012802D00720F349886155E00020DD
:102D70000190F248C06A0290F048806A0390EF48E0
:102D800090F87000C0F3801030B1EB488068EB49D8
:102D9000096B401A009005E0E7488068E749096B35
:102DA000084400909DE80F00FFF7DEFE0820E2498E
:102DB000886132E029E023E00FE0FFE7DE48406A67
:102DC00050B9DD48806A012806D001F05BFADC4981
:102DD00008800920D84988611FE001F053FAD849DA
:102DE0000988401A80B2B0F5C87F08DD0020FEF7E0
:102DF00080FF0020FFF7C4FE0A20CF4988610CE065
:102E00000020CD490862886107E0CB48006B20F0C4
:102E10002000C949086300E000BF00BFC6488069C0
:102E2000C849096888422CD0C3488069C5490860F0
:102E3000C14880690B2823D2DFE800F022060A0E81
:102E400022161A1222221E00BFA0FFF763FB17E012
:102E5000C0A0FFF75FFB13E0C1A0FFF75BFB0FE033
:102E6000C3A0FFF757FB0BE0C4A0FFF753FB07E03D
:102E7000C7A0FFF74FFB03E0CAA0FFF74BFB00BF63
:102E800000BFAD48806904B010BD10B5C948006AE4
:102E900080B1012821D1A848006B20F04000A6494C
:102EA00008630846006B20F02000203008630120F2
:102EB000C86113E00020FEF71CFF0020FFF760FE52
:102EC0009D48006B20F020009B4908630846006B7A
:102ED00020F040004030086300E000BF00BF10BD9C
:102EE00002209549C86170471FB50446012C24D1C2
:102EF0009148008EC0F34020F8B98F490868FFF769
:102F00003FFE8D4800680090012003900290002051
:102F100001909DE80F00FFF727FE01F00FF98648AA
:102F2000006B20F4007000F50070834908630846C8
:102F3000006B20F40030086313E0022C11D17E48AE
:102F4000008EC0F3402060B17B48006B20F400701D
:102F5000794908630220C8610320FFF70EFE01F0E3
:102F6000F6F81FBD2DE9F04F2DED028B87B004461A
:102F70000E4600200690704890F83000C0F34010D4
:102F800040B96D48008EC0F3402018B16B48B0F8CE
:102F9000440028B9002007B0BDEC028BBDE8F08FDB
:102FA00001F070F98046201E01DB014600E041423D
:102FB000192900DA00246048C06A02280CD05E4853
:102FC000C06A48B15C48C06A022807D05A4890F8E5
:102FD0003000C0F3C00008B9012000E0002007461F
:102FE000012E04D0022E7DD0032E7CD153E184B972
:102FF0007148006868B10320FFF7BFFD4E48006BC1
:1030000020F008004C4908630020C8626A48046048
:103010007BE069480068A4EB0009B9F1000F01DB0F
:10302000484601E0C9F1000005286EDD63480188CB
:10303000404601F02BF9642867D9002F65D03E483F
:10304000006B20F0080008303B4908630220C8628A
:10305000002C01DD204600E0604208EE100A3648F0
:1030600080690A2814D1002C01DD012000E0002035
:103070003249B1F84410012900D100E00021884212
:1030800002D12E48006801E02C484068054613E054
:10309000002C01DD012000E000202849B1F8441097
:1030A000012900D100E00021884202D14FF0804088
:1030B00001E04FF040400546204890ED0F0AB8EE81
:1030C000C00AF8EE480A20EE200ADFED3D0A80EE45
:1030D000201A11EE109A48460CF0DDFF05901748B3
:1030E000006C01E012E03EE1039005980490019528
:1030F0000020029001A80FC8FFF736FD01200690BE
:103100002D4804602D48A0F800802CE12D4800686F
:10311000022802D0084800680190201E01DB014609
:1031200000E041422A296CDD2348D0F800B0BBF111
:10313000000F49DB584649E00805002048040020FC
:10314000A0000020A40000200D0A4853746172748E
:10315000000000000D0A48476F546F4C696D000075
:103160000D0A4853746F7041744C696D0000000083
:103170000D0A484F66667365740000000D0A484DDD
:103180006F76654F75744F664C696D697400000009
:103190000D0A4853746F704F7574736964654C6998
:1031A0006D6974000D0A48436F6D706C65746564D9
:1031B000000000005C050020A8000020B0000020F6
:1031C00000000043AC000020CBF100002A2813DDF2
:1031D000D948D0F80090B9F1000F01DB484601E072
:1031E000C9F100002A2809DDD4480188404601F0D1
:1031F0004DF8B0F57A7F01D9012000E00020824629
:103200000BE04FF0000ACE48006B20F00800CC49DC
:10321000086301F037F8C9490880BAF1010F37D1C6
:10322000B7B3C748006B20F008000830C4490863F2
:103230000220C8620846008EC0F3802040BBC1480F
:103240000168002C02DDC048406902E0BE484069C8
:1032500040420D18BC480068A84219DBBA484068D3
:10326000A84215DCB648006B20F008000830B449CD
:103270000863B54880690390B348C069049001951C
:103280000020029001A80FC8FFF76EFC01200690F5
:10329000A948046067E0201E01DB014600E04142CE
:1032A0002A2952DDA64890F83000C0F38010E8B318
:1032B000A1490868002801DB014600E041422A29B3
:1032C0004EDCA7B3002C03DD0120A049086404E014
:1032D000002C02DA00209D4908649C48016C9C483F
:1032E00050F8215099482A46016C9AA004F0C8FF72
:1032F0009348008EC0F38020C8B992480068A84265
:103300002ED08F48006B20F0080008308C490863ED
:103310000220C8628C48806903908B48C069049081
:1033200001950020029001A80FC801E005E017E018
:10333000FFF71AFC0120069012E08148006B20F094
:10334000100010307E4908630AE07D48006B20F0D1
:1033500008007B4908630846006B20F010000863F2
:103360007548046000BF00BF80480660069812E6FA
:103370007FB504460025022C06D0032C3DD0042C3A
:1033800070D0052C05D19CE06D48008EC0F3402024
:1033900000B9CCE06A48C06A28B9694890F83000A2
:1033A000C0F3C00000B1C2E06548006B20F0080027
:1033B000083063490863634800686349096D08443D
:1033C00000905F4900980968884202DA5E48406AC6
:1033D00000E0002001905C48806802905A48C06874
:1033E00003909DE80F00FFF7BFFB03205449C8621C
:1033F00002255FA004F044FF99E05148008EC0F31D
:10340000402000B993E04E48C06A28B94C4890F873
:103410003000C0F3C00000B189E04948006B20F0E3
:1034200008000830464908630320C8624648406DDA
:10343000009000980968884202DA4348406A00E038
:10344000002001904048806802903F48C068039087
:103450009DE80F00FFF788FB03254CA004F010FF48
:1034600065E0FFE73648008EC0F3402000B95EE01B
:103470003348C06A28B9324890F83000C0F3C00021
:1034800000B154E02E48008EC0F3802010B92C48C3
:10349000806900B14BE02A48006B20F0080008303A
:1034A000274908630846006B20F040000863FFF7D7
:1034B000ECFC03202249C86204253BA004F0E0FE96
:1034C00035E01F48008EC0F3402000B92FE01C48B3
:1034D000008EC0F3802048B31948008EC0F300303E
:1034E00020BB0320FFF749FBFFF7FAFC1748C06E2B
:1034F00020F002001549C8661148C06A012801D1B0
:10350000012100E000211148C06E61F382000F49E3
:10351000C866084690F86C00C0F3800008B128A087
:1035200000E029A001462BA004F0AAFE00BF00BFC6
:10353000284604B070BD0000A8000020B0000020A4
:1035400008050020FC06002048040020A8050020F3
:10355000C80400200D0A4D6F766520746F20706FCF
:1035600073202564203D202564000000AC0000206D
:103570000D0A5472696767657265642072656C61D3
:1035800074697665206D6F76650000000D0A5472CF
:1035900069676765726564206162736F6C757465D5
:1035A000206D6F76650000000D0A547269676765CB
:1035B00072656420686F6D65206D6F766500000030
:1035C00073656E74000000006E6F742073656E7416
:1035D000000000000D0A5472696767657265642017
:1035E00073746F702C206E6F74696669636174699F
:1035F0006F6E20746F20736572766572202573007C
:103600000020E749096841F00101E54A1160E549F8
:10361000096821F00C01E34A11601146C96821F0E4
:103620000C01D1604FF4802191611146096841F08D
:10363000100111601146096821F020011160114646
:10364000896861F0300191609100916111460968CB
:1036500041F0400111601146096821F080011160BC
:103660001146896861F0C00191601146096821F432
:10367000406111601146C96821F44061D160114672
:103680000969C1F34010402191611146096841F474
:10369000805111601146096821F4005111601146F2
:1036A000896841F4405191601146096821F4403124
:1036B00011601146C96821F44031D160B8490968E8
:1036C00041F00201B64A1160B749096821F00C01C6
:1036D000B54A1160B4490C31096821F00C01B24AB5
:1036E0000C3211604FF48021AF4A18321160AE499C
:1036F000096841F01001AC4A11601146096821F0D7
:1037000020011160A8490831096821F03001A64A5A
:1037100008321160A449096821F47061A24A11605D
:10372000A1490C31096821F470619F4A0C32116083
:103730004FF080519C4A183211609B49096841F052
:103740008071994A11601146096821F00071116079
:1037500095490831096821F04071934A0832116097
:103760004FF40051904A183211608F49096841F0B6
:1037700080618D4A11601146096821F00061116075
:1037800089490831096821F04061874A083211608F
:103790008349096841F00401814A11600821834A84
:1037A000116082491839096841F040017F4A183A8E
:1037B00011601146096821F0800111607B491039C0
:1037C000096821F0C001794A103A11601021774A46
:1037D000116076491839096841F48071734A183AC2
:1037E00011601146096821F4007111606F491039A8
:1037F000096821F440716D4A103A11606B4918391B
:10380000096821F44061694A183A116067490C3926
:10381000096821F44061654A0C3A11604021634A0D
:10382000116062491839096841F480515F4A183AB9
:1038300011601146096821F4005111605B4910398B
:10384000096821F44051594A103A11605749183912
:10385000096821F44021554A183A116053490C393E
:10386000096821F44021514A0C3A11604F49183936
:10387000096821F040514D4A183A11604B490C3902
:10388000096821F08051494A0C3A116011460968D3
:1038900041F0005111604FF40041444A1160434926
:1038A0001839096841F08041404A183A11601146C0
:1038B000096821F0004111603C491039096821F084
:1038C00040413A4A103A1160704708B1402101E086
:1038D0004FF48001334A9161704708B1082101E03B
:1038E0004FF400212F4A916170472E480069012151
:1038F00021EA1020704704212C4A11602B49183905
:10390000086820F0300040F0100020F0200008602F
:1039100070472548006820F00C0023490860042007
:1039200022490860BFF35F8F1F4810300068C0F362
:10393000400070474FF480211C4A116008B10221F9
:1039400001E04FF40031184A183211601649096835
:1039500041F00401144A116070471248006820F0D9
:103960000C00104908604FF4004010490860BFF394
:103970005F8F0C480069C0F3400070474FF0004172
:103980000A4A116008B1022101E04FF40031054AF2
:1039900091611146096841F004011160704700000F
:1039A0003038024000000240000402401808024083
:1039B00070B504460126D4F80001022801D0022087
:1039C00070BD2FE0384802680068401C364B186014
:1039D000A55418460068062817D1207900F0800009
:1039E00008B1A07800E00020801D304908602079EF
:1039F00000F07F00502806D16079012803D10846E5
:103A00000068802801D99020DAE727480068274914
:103A10000968884206D10020234908600120C4F8C3
:103A200000010326D4F80001012806D000F047FA6F
:103A300005464FF6FF718842C4D13046C0E730B525
:103A4000D0F8003102461A4C24681A4D2D686119CD
:103A5000184C24681C44174D2C6003E012F8014BED
:103A600001F8014B1C1EA3F10103F7D130BD10B5C5
:103A700010480068B0B100F065FA98B10D480168CF
:103A80000B48006800F038FA094800680A49884283
:103A900002D101F5807000E0074805490860002068
:103AA0000449086010BD0000C0010020C4010020CE
:103AB000B8010020BC0100201008002085480068E3
:103AC00040F48020834908608248103800688249A9
:103AD00008438049103908608048006820F480104D
:103AE0007E4908600846006840F400100860081D20
:103AF000006820F48060091D086078480C30006878
:103B000020F4401075490C310860081F006820F44B
:103B10004010091F08607148406A20F4706040F44A
:103B2000E0616E484162006820F480006B490860E3
:103B30000846006840F40000086068480C300068DF
:103B400020F4400065490C3108606448406A20F464
:103B5000704040F4E0416148416240F26D106049BC
:103B6000088000205E4908310880091D08805C48F3
:103B7000001D008840F400505949091D088058482C
:103B80000C30008840F0C00055490C310880554881
:103B9000806D20F001005349886500E000BF514866
:103BA000806D00F001000028F8D14E48806D20F0B3
:103BB00060604C4988650846806D40F0006088650B
:103BC0000846806D40F4886088654548001F086697
:103BD0000020C8650846806A20F00100886200E085
:103BE00000BF4048806A00F001000028F8D13D483D
:103BF000806A20F060603B4988620846806A40F035
:103C0000006088620846806A40F4A0608862344898
:103C1000001F086334484863C814C8623048083835
:103C2000008820F040002E49083908802C48001DEB
:103C3000008840F00C002A49091D08802948806A44
:103C400040F001002749886270472649C96AC1F5DA
:103C50000061264A1268914202D14FF6FF700FE0D0
:103C600022490A680968491C204B19601E49885C72
:103C700019460968B1F5006F02D100211A4611609A
:103C80007047184A926D22F00102164B9A6500E0C7
:103C900000BF144A926D02F00102002AF8D1114AC5
:103CA0005066D1650E4A083A128822F040020C4B49
:103CB000083B1A804FF000620A4B9A601A46926DD8
:103CC00042F001029A65704705480838008800F004
:103CD00040007047403802400200200000040240CB
:103CE0000848004000600240100A0020C80100207F
:103CF0009748006840F010009549086094481438CF
:103D00000068944908439249143908609248006851
:103D100020F48020904908600846006840F40020A4
:103D200008600846406820F4007048600846C06893
:103D300020F44020C8600846806820F44020886055
:103D40000846406A20F0F00040F07001824841626D
:103D5000006820F48010804908600846006840F43C
:103D6000001008600846C06820F40010C8600846CB
:103D7000C06840F48010C8600846406A20F4706053
:103D800040F4E06174484162C002734988610846AA
:103D9000006840F0807008600846006820F00070FD
:103DA00008600846806840F04070886008460068F7
:103DB00020F4400008600846C06820F40000C86095
:103DC0000846C06840F48000C86040F2D9206349CA
:103DD00008810020088288820846808940F40050CB
:103DE00088810846808A40F0C00088825C4800686C
:103DF00020F001005A49086000E000BF5848006800
:103E000000F001000028F8D15548006820F06060FB
:103E1000534908600846006840F0006008600846A2
:103E2000006840F4886008604C48001D4C49083127
:103E300008600020091F086049487838006820F0B1
:103E4000010047497839086000E000BF44487838ED
:103E5000006800F001000028F7D141487838006878
:103E600020F060603E49783908600846006840F0FC
:103E7000006008600846006840F4A06008603748A9
:103E8000001D3749703908603648091D086008155B
:103E90003349743908603148008820F040002F49C8
:103EA00008800846808940F00C0088812C487838CA
:103EB000006840F001002A497839086070472849B5
:103EC00074390968C1F58061274A1268914202D1AC
:103ED0004FF6FF700FE024490A680968491C224B1D
:103EE00019602049885C19460968B1F5806F02D1D4
:103EF00000211A4611607047194A126822F0010227
:103F0000174B1A6000E000BF154A126802F0010268
:103F1000002AF8D1124A0C321060114A121D1160A9
:103F20000E4A128822F040020C4B1A804FF00062B9
:103F30000B4BAC3B1A600A4A126842F00102084B74
:103F40001A6070470548008800F040007047000084
:103F500044380240010040000000024000100140CF
:103F6000B864024010120020CC010020994800687B
:103F700040F00600974908609748006820F0A0408C
:103F8000954908600846006840F020400860081D18
:103F9000006820F44040091D08608F480C3000681C
:103FA00020F070408C490C310860081F006820F038
:103FB0007040091F08608948006820F4A0308749D4
:103FC00008600846006840F420300860081D00685A
:103FD00020F4C070091D086080480C30006820F48F
:103FE00070307E490C310860081F006820F4703082
:103FF000091F08607848406A20F0706040F0407106
:1040000075484162406A20F0704040F0405172486B
:10401000416271482030006820F0704040F040500C
:104020006E49203108606C48406A20F00F00C01CC7
:104030006A49486267481430006840F002006549E8
:1040400014310860002066490880481465490880DA
:10405000401E6349091D08606248008860491031AC
:10406000086060480088091D08605D4814380088B1
:1040700040F001005A4914390880081D008840F4B6
:10408000C040091D088056480838008840F050009C
:10409000534908390880081F008840F06000091F54
:1040A0000880081D008840F4A060091D08804C4865
:1040B0001C30008848F21401084349491C3108802B
:1040C000062047490831088045482838008840F0D4
:1040D000010043492839088041481C38008840F0D5
:1040E00001003F491C39088070473E4909888842D1
:1040F00003DD3C49098808B208E03A490988494289
:10410000884203DA37490988494208B200280ADDA3
:1041100034490988091A324A143211603149098830
:10412000121F116009E02F4909882D4A14321160CD
:104130002C4909880144121F1160704728481C301F
:10414000008840F4004026491C310880704724480C
:104150001C30008820F4004021491C310880704741
:10416000704710B51E491C39098821F001011C4A0D
:104170001C3A1180111D098821F00101121D1180C6
:104180002C2101F01F0301229A40174B4C0943F8E0
:10419000242000BF10B11549086002E01449134AF9
:1041A00011600F491C39098841F001010C4A1C3A81
:1041B000118010BD10B50A481838008820F00100A1
:1041C000074918390880FDF7DFFD08480068804777
:1041D00010BD0000303802400004024000080240D8
:1041E00028040140D001002080E200E0D40100203A
:1041F00061410008FE48006840F40030FC49086056
:10420000A720FC49088040F2E730091D08604010F3
:10421000F8490C310860F7480838008840F0010080
:10422000F44908390880F3481038008840F06000ED
:10423000F04910390880081F008840F00100091F6C
:104240000880EC482838008840F00100E949283906
:104250000880E748006840F48030E5490860202085
:10426000E54908810846008940F0070008810020E0
:1042700008854FF6FF70C8620846008840F00100CC
:1042800008807047DC48406A80B270470246501A86
:1042900080B27047D648001F006840F01000D44933
:1042A000091F08605320D54908854FF6FF70486202
:1042B000C8620846008840F0080008800846008868
:1042C00040F00100088070474142CC4841620188BB
:1042D00041F0010101800188C907FCD17047C44841
:1042E000001F006840F00800C149091F0860C0486D
:1042F0002438006840F00800BD492439086000E017
:1043000000BFBB482438006800F008000028F7D040
:10431000B7482438006820F00800B54924390860FF
:104320000020B7490880091F0860B14814380068A8
:1043300040F00100AE4914390860B248006820F02E
:104340000100B04908600846006840F002000860BB
:104350000846006A20F00F00801C08624FF0FF3012
:10436000A749091D08605720A54920390880A4489D
:104370001038008840F00100A14910390880081F5A
:10438000008840F00100091F08809D4828380088F7
:1043900040F001009A49283908809548001F0068BC
:1043A00040F002009249091F0860002096490880E9
:1043B000091F08608E481438006840F002008C49DC
:1043C000143908609148006820F001008F490860A6
:1043D0000846006840F0020008608C482030006801
:1043E00020F00F00801C89492031086008460068D1
:1043F00020F0F00040F02000086041F267008249A0
:10440000091D0860401080491431086008460068A2
:10441000091D086047F270007B490C390880081DAF
:10442000008840F48070091D08807748143800889F
:1044300040F00100744914390880704730B50346D4
:10444000FFF720FF044600E000BFFFF71BFF054613
:104450002146FFF71BFF9842F6DB30BD02466C4851
:1044600050434FF47A73B0FBF3F1B1F1807F01D385
:10447000012070474FF0E020006940F001004FF04C
:10448000E0231861184641610020F2E74FF0E02078
:10449000006900F4803070470CB558B95D4909686F
:1044A00001915C49283909685B4A116059492439EE
:1044B000096800914E49091F096841F080514C4A32
:1044C000121F11605549096841F48071534A116007
:1044D00047492C31096841F48031454A2C3211603A
:1044E0001146096821F4803111601146096841F4D0
:1044F000407111601146096841F400411160CA2100
:10450000444A121F11605321116042491C39096845
:1045100041F080013F4A1C3A116000E000BF3D4974
:104520001C39096801F040010029F7D039491839D0
:1045300009686FF30E0142F20F721144354A183ABE
:1045400011601146096821F4FE0141F4C6011160B1
:10455000314909682F4A283A11603149121D11600A
:104560002C491C39096821F080012A4A1C3A116043
:1045700000E000BF27491C39096801F080010029CB
:10458000F7D1FF21234A121F116022491C39096803
:1045900021F020011F4A1C3A11600CBD1449091F6B
:1045A000096841F08051124A121F11601B490968C5
:1045B00041F48071194A11600D492C31096841F4A8
:1045C00080310B4A2C3211601146096821F4803188
:1045D00011601146096840F205121143044A2C3259
:1045E00011601146096841F40041116010B319E0EF
:1045F000443802402844014000400140001000407F
:10460000280C004000000240280400400004024042
:10461000406F400128280040D80100200070004071
:10462000024413008C492839098841F001018A4A63
:10463000283A1180CA21894A1160532111608749A3
:104640001839096841F08001844A183A116000E085
:1046500000BF82491839096801F040010029F7D0EC
:104660007E49143909686FF30E0142F20F7211444A
:104670007A4A143A11601146096821F4FE0141F4A6
:104680008031116076490968744A243A116075498D
:10469000121D116071491839096821F080016F4AB3
:1046A000183A116000E000BF6C491839096801F040
:1046B00080010029F7D1FF21684A11606749183944
:1046C000096821F02001654A183A1160704766496F
:1046D0000140634A11607047CA21604A116053214A
:1046E00011605E491839096841F080015B4A183A47
:1046F000116000E000BF59491839096801F0400114
:104700000029F7D058490140544A243A11605349CE
:104710001839096821F08001504A183A1160FF21C8
:104720004E4A1160704710B50246CA204B4B1860C4
:104730005320186049481C38006820F48070474BAB
:104740001C3B1860181D006840F001001B1D18601C
:1047500000E000BF41481838006800F00100002860
:10476000F7D04148104040F000403C4B083B1860F7
:10477000C1F30E0040F07060384B203318603748AA
:104780001838006820F00100344B183B18601846B8
:10479000006820F480701860181F006840F488508A
:1047A0001B1F1860181D006820F001001B1D1860F9
:1047B000FF202A4B18602D48006840F400302B4B36
:1047C00018602A480838006840F40030274B083B3E
:1047D000186026480C30006840F40030234B0C333E
:1047E0001860292000F01F040123A3404409A400FD
:1047F00004F1E024C4F8003100BF10BD10B5174823
:104800001838006820F4807014491839086000E0F6
:1048100000BF12481838006800F480700028F7D1F3
:1048200012480C30006840F4003010490C31086028
:104830000F4A90685168884710BD0EB50748001DA3
:10484000006800900548243800680290034820382A
:104850000068019002980EBD280400402428004002
:10486000D8010020024413007F7F3F00083C014034
:10487000A8050020002100205F4A126842F480321F
:104880005D4B1A6000BF5C4A126802F40030491C9C
:1048900010B9B1F5705FF6D1574A1268C2F34040C3
:1048A00000287BD0544A4032126842F08052524B6A
:1048B00040331A60514A126842F480424F4B1A60EA
:1048C00040F205624E4B1A604B4A083212684A4B5E
:1048D00008331A601A46126842F400421A601A46F7
:1048E000126842F4A0521A601A46126822F4F812B2
:1048F00042F440221A601A46126822F07C521A6072
:104900001A46126842F080621A601A46126842F033
:1049100060521A601A46126822F040421A601A4623
:10492000126842F080421A60364A1B1F1A601A1F32
:10493000126842F080721B1F1A6000E000BF2E4A0E
:10494000126802F00072002AF8D02B4A083212686E
:1049500022F00302284B08331A601A46126842F00C
:1049600002021A6000E000BF234A0832126802F017
:104970000C02082AF7D1244A1F4B84331A601E4ABE
:10498000126842F080621C4B1A6001E006E000BF32
:10499000194A126802F00062002AF8D0704710B578
:1049A0001A48006840F4700018490860124800680E
:1049B00040F001001049086000200F4908310860EC
:1049C0000D480068124908400B4908601148091D4C
:1049D0000860081F006820F48020091F086000207C
:1049E00005490C310860FFF745FF4FF000600749AB
:1049F0008039086010BD000000380240007000409F
:104A0000003C02400C5440070040005088ED00E09C
:104A1000FFFFF6FE1030002404462146FDA003F0FF
:104A20002FFC01E003F0ACFCFCE70FB47FB509A854
:104A30000390BDF82000009000200190FBA00290A0
:104A4000BDF82000812818D1039810C8039003985E
:104A500020C8039000200090F548C06DA0420CD003
:104A6000B4F5004F07D081200090019402952946AB
:104A7000F0A003F005FCEE48C46500200390EC486C
:104A8000806E02280ED1F14A6946002000F0EEF84F
:104A90000646012E06D1ED48FEF7D1FF0021EB4876
:104AA00003F03FFA7FBC5DF814FB70B50C224FF4A5
:104AB0008061E74802F0EFF90546012D08D0E5A234
:104AC00048F2D0418120FFF7B0FFE8A003F0D8FB07
:104AD00001230C229902DE4802F09AF9044644B1FF
:104AE000E9A248F2D0418120FFF79FFFECA003F03C
:104AF000C7FB012D00D10CB1012070BD0020FCE7E7
:104B000070B54C22ED49EE4808F02DFE7422ED49B7
:104B1000EB484C3008F027FEC5480068E8490839E2
:104B20000860E9484860CC220021E548083802F0D6
:104B3000B2F90546012D08D0C6A248F2D041812025
:104B4000FFF773FFC9A003F09BFB0123CC220021D8
:104B5000DB48083802F05CF9044644B1CAA248F2C6
:104B6000D0418120FFF761FFCDA003F089FB012D2B
:104B700000D10CB1012070BD0020FCE7D348D44A1D
:104B8000128EC2F340227AB140F00040D04A5268FF
:104B9000CF4B1B68D11A42F21072914202DC524292
:104BA000914201DA40F08040C94A126BC2F30042E0
:104BB0000AB140F08040C64A128EC2F380224AB148
:104BC000C34A5269002A01DD102200E0202242F08F
:104BD00000521043BE4A92F83020C2F3801212B144
:104BE00040F4806007E0BA4A92F83020C2F34012E5
:104BF0000AB140F40070B64A128EC2F380320AB194
:104C000040F00200B24A128EC2F3C0320AB140F044
:104C10000100AF4A1268AB4B9B6C9A4201DB40F03B
:104C20000800AB4A1268A74BDB6C9A4201DC40F0EB
:104C300004007F4A92F86C20C2F340123AB1A44AB1
:104C40005269002A01DD402200E080221043A14A7F
:104C50001268C2F340020AB140F480109E4A126901
:104C6000C2F340020AB140F4001070472DE9F74F3B
:104C70008EB08B4692460E9878B1DDF83890DDF80C
:104C80003890B9F8000080B20D90DDF8389009F145
:104C9000060602206649886609E0BBF1000F06D0CF
:104CA0004FF000090026BBF8000080B20D90554679
:104CB000AC1D0020E8700120287150206871002090
:104CC0000C90CAF8000140F243420D98811A9042BC
:104CD00072D056DC40F20A42A0EB020190426CD046
:104CE0002DDC812801F0168013DC122866D007DC49
:104CF000022864D0052863D0112841F0D98162E1EF
:104D0000142801F01F80152801F0C2815028F4D129
:104D1000FEE0B0F5057F6CD009DCB0F5047F69D00A
:104D2000A0F21120002866D00228E6D1F3E3A0F219
:104D30002320002860D0B0F5F37FDED1A0E119294F
:104D40005BD00FDCA1F10600092881F0B181DFE81A
:104D500010F09601A901AF0904020C02AF09250267
:104D600032023102312949D006DC1A2947D01F29E5
:104D700046D03029C1D1F0E3362942D03729BCD101
:104D8000ACE34D293ED027DC14293CD010DC0529AA
:104D90003AD006DC012938D0022937D00329ACD11A
:104DA000FEE30D2933D00E2932D01029A5D1F8E326
:104DB00021390929C9D204E0BBE34DE110E116E134
:104DC000ABE0DFE811F0820129058301750975095F
:104DD00075094B05BA05C105DD291AD07EDC5E29AF
:104DE0007DD07DDC4E297CD04F297BD05D2984D1BC
:104DF000F3E3F3E310E11EE1E1E0FBE1EFE3DEE2E8
:104E000099E14BE36FE1EBE3EBE3D1E3EAE3EAE3C0
:104E1000EAE3EAE30D0A457869742077697468204B
:104E20006572726F723A2025730000000000000066
:104E3000A80500200D0A415054206E6F7469666900
:104E4000636174696F6E3A20257300000C070020BF
:104E5000F0060020454550524F4D20577269746549
:104E6000204661696C757265000000000D0A4545B9
:104E700050524F4D205772697465204661696C75B8
:104E800072650D0A00000000454550524F4D2056F6
:104E90006572696679204661696C7572650000000B
:104EA0000D0A454550524F4D20566572696679206E
:104EB0004661696C7572650D0A000000BC04002033
:104EC0002C06002048040020060202000001001009
:104ED0000805002010040240000002400BE0F9E346
:104EE00001E0F4E023E1762900F0F886B02941F0F2
:104EF000DF8000F0FEBEDE39072981F0D980DFE8CF
:104F000011F0180617065C067F06D708A406B90636
:104F10003088FD49086501F0CEB80620288054206D
:104F2000A870287940F0800028715422F749204663
:104F300008F0D4FBF64800682060F348006D0228B2
:104F400002D1F148006801E0F2488068A4F84C0002
:104F5000ED48C069012802D10320A4F84E00EEA05C
:104F6000007884F84200ECA0417843200155EAA083
:104F7000C17844200155E8A0017945200155E9A0F8
:104F80000079202801D1302001E0E6A000794621F7
:104F90000855E4A0417947200155E2A00178482056
:104FA0000155E0A0417849200155DEA081784A20D2
:104FB000015500214B20015501200C90ABE740200A
:104FC000D1494865A7E7D048C06E20F010001030E6
:104FD000CD49C86600208865FA20FFF72FFA9AE7C6
:104FE000C948C06E20F01000C749C86693E700208A
:104FF000C54988660846C06E20F01000C8660120CA
:105000000865BBF1000F06D0022028800020A870A0
:10501000E87001200C907EE799F80300012806D182
:10502000C003B949C8650120FDF75EFF02E0022018
:10503000FDF75AFF6FE740F2122028800120A87088
:10504000BB48008EC0F3402008B1012000E00220E0
:10505000E87001200C905EE740F20B4028800620AB
:10506000A870287940F08000287101202080B04885
:10507000D0F80080C4F8028001200C904BE700BFFC
:1050800040F209410D98884202D1D6F8020001E0B1
:10509000D6F8020080464046FCF72BFE4046FDF75E
:1050A0006FFD38E740F2124028800620A87028796A
:1050B00040F080002871012020809D48D0F80080B9
:1050C000C4F8028001200C9025E700BF00BF8E4885
:1050D00090F86C00C0F3001020B18B48806D32282E
:1050E00000DD18E700BF0D98B0F5926F02D140F2D5
:1050F000914000E00D9800B228800E20A87000209A
:10510000E870287940F080002871012020808848CC
:105110000068C4F802008648808AE0800020208170
:10512000FFF72CFDC4F80A0001200C90F3E60020E4
:1051300075498865EFE640F22A4028800620A8706D
:10514000287940F08000287101202080FFF716FDAB
:10515000C4F8020001200C90DDE6D6F8060075497F
:105160008860D6F80A00C860D5E640F2154028806D
:105170000E20A870287940F080002871012020803E
:105180000020C4F802006B488068C4F80600694833
:10519000C068C4F80A0001200C90BCE6708865491C
:1051A000086170684861F06888613069C861B08AD8
:1051B0000862B0E600BF4FF4836028801620A87014
:1051C000287940F080002871012020805948008A09
:1051D00060805848406960600020A0605548806940
:1051E000E0605448C06920615248008CA0820120D0
:1051F0000C9090E6B08806285CD2DFE800F05B03F4
:105200000F2336494B48006F20F0010049490867D9
:105210000846006F20F0040008674BE04548006F27
:1052200020F00100401C434908670846006F20F049
:105230000400001D08670846006F20F010001030C1
:10524000086737E03B48006F20F00100401C3949F7
:1052500008670846006F20F00400001D0867084634
:10526000006F20F01000086724E03248006F20F043
:105270000100304908670846006F20F00400001D57
:1052800008670846006F20F010001030086711E032
:105290002848006F20F00100264908670846006F83
:1052A00020F00400001D08670846006F20F0100081
:1052B000086700BF00BF7088062875D2DFE800F0DD
:1052C00074030F3C4F621B48006F20F00200194925
:1052D00008670846006F20F00800086764E015487A
:1052E000006F20F00200801C124908670846006F1A
:1052F00020F00800083008670846006F20F0200002
:105300002030086750E00000A80500206006010872
:10531000180600205C05002031363A34343A353323
:105320000000000046656220203320323032320017
:105330000805002048040020FC48006F20F002000F
:10534000801CFA4908670846006F20F00800083002
:1053500008670846006F20F02000086724E0F34843
:10536000006F20F00200F14908670846006F20F046
:105370000800083008670846006F20F02000203041
:10538000086711E0E948006F20F00200E74908676C
:105390000846006F20F00800083008670846006FD4
:1053A00020F02000086700BF00BFD6F80600DF49E4
:1053B0008864D6F80A00C864F089C866ABE540F294
:1053C000254028801020A870287940F0800028719E
:1053D00001202080D54890F87000C007400FD349C5
:1053E00091F87010C1F3800140EA4100CF4991F873
:1053F0007010C1F30011084302280ED0032809D011
:10540000062804D007280BD10220A0800BE003203F
:10541000A08008E00420A08005E00520A08002E034
:105420000120A08000BF00BFC04890F87000C0F30A
:1054300040008000BD4991F87010C1F3C00140EAFE
:105440004100BA4991F87010C1F340110843022895
:105450000ED0032809D0062804D007280BD102203B
:1054600060800BE00320608008E00420608005E09D
:105470000520608002E00120608000BF00BFAB48D3
:10548000C06CC4F80A00A948806CC4F80600A7489C
:10549000B0F86C00E08101200C903CE5D6F80600E5
:1054A000A2498862D6F80A0008637088012801D1F1
:1054B000012100E000219D48006F61F386109B49A7
:1054C0000867B088042801D1012100E00021974835
:1054D000006F61F3C710954908671CE540F2424030
:1054E00028800E20A870287940F0800028710120C3
:1054F00020808E4890F87000C0F3801008B1012021
:1055000000E002206080894890F87000C0F3C0106D
:1055100010B1042001E06AE20120A0808348806A83
:10552000C4F806008148006BC4F80A0001200C9002
:10553000F1E47F48008EC0F3402000B9EBE47C48E2
:10554000C06A01280AD07A48C06A38B1784890F811
:105550003000C0F3C00008B1DDE433E07448008ED1
:10556000C0F3802010B97248806900B1D3E470485C
:10557000006B20F0080008306D4908630846006B96
:1055800020F040000863FDF780FC01206849C862F4
:105590006848C06E20F0080008306649C86601E01F
:1055A0003BE0AFE00846C06E20F00200C866B2E4FF
:1055B00040F2444028800120A8700020E8700120BB
:1055C0000C90A8E4D6F80200584948620846406AA0
:1055D000002801DA002048629DE4BDE12EE205E0EA
:1055E000DCE02CE014E076E07AE03CE240F23C4083
:1055F00028800620A870287940F0800028710120BA
:1056000020804A48406AC4F8020001200C9082E4DD
:10561000D6F80200454908657DE440F247402880FD
:105620000620A870287940F0800028710120208091
:105630003E48006DC4F8020001200C906BE43C4829
:10564000008EC0F3402000B965E43948C06A0128E3
:1056500009D03748C06A30B1354890F83000C0F3FF
:10566000C00000B157E43248006B20F00800083059
:105670002F4908630846D0F8008099F8040000F02C
:10568000800018B1D6F80200804402E02748006D7F
:105690008044CDF80880264902980968884202DAD9
:1056A0002248406A00E0002003902048806804906F
:1056B0001E48C068059002A80FC8FDF755FA0120E2
:1056C0001B49C8621B48C06E20F00200801C1949AB
:1056D000C86620E466E1D6F80200144948651AE479
:1056E00040F2524028800620A870287940F08000BF
:1056F0002871012020800D48406DC4F8020001206F
:105700000C9008E40A48008EC0F3402000B955E42C
:105710000748C06A01280FD00548C06A60B1044834
:1057200090F83000C0F3C00030B147E448040020D6
:1057300008050020A8050020F748006B20F00800AD
:105740000830F54908630120C86299F8040000F0A8
:10575000800010B1D6F8028002E0F048D0F8548002
:10576000CDF80880EC4902980968884202DAEB48D3
:10577000406A00E000200390E84880680490E74811
:10578000C068059002A80FC8FDF7EEF9E448C06EA6
:1057900020F00200801CE249C8660FE4DE48008E5B
:1057A000C0F3402000B909E4DB48C06A012809D0F1
:1057B000D948C06A30B1D84890F83000C0F3C00072
:1057C00000B10CE499F80300022803D1D348D0F8C3
:1057D000008002E0D148D0F80480CF48006B20F070
:1057E00008000830CC490863CDF8088000200390F9
:1057F000CA4880680490C948C068059002A80FC8CC
:10580000FDF7B2F90120C449C862C548C06E20F056
:105810000200C349C8660DE4BF48008EC0F3802073
:1058200000B907E499F80310012901D1032100E030
:1058300002210846FDF7A1F9FDF752FBB848C06EFA
:1058400020F00200B649C8660846C06E20F0040089
:10585000001DC8660120B049C8620FE4AE48008E42
:10586000C0F3402000B909E4AB48C06A012809D060
:10587000A948C06A30B1A84890F83000C0F3C00011
:1058800000B10EE4A648C06E20F020002030A449EC
:10589000C866A2480069012811D199F803000228BE
:1058A00003D19E48D0F8008002E09C48D0F80480E4
:1058B0009B48C06E20F002009949C86625E099F81F
:1058C000030002280DD1944800689449496900EB0F
:1058D000010892480068404510DA9048D0F80080EE
:1058E0000CE08D4800688D494969A0EB01088B48A0
:1058F0004068404502DD8948D0F804808848C06E81
:1059000020F00200801C8649C8668348006B20F0A6
:1059100008000830804908630120C862CDF808807B
:10592000002003907D48806904907C48C069059000
:1059300002A80FC8FDF718F9BDE37948C06E20F042
:1059400001007749C866B6E37548C06E20F00100D3
:10595000401C7349C866AEE30020708A00F0010164
:1059600019B1D6F80E206D494A6600F0080119B148
:10597000D6F80210694A916500F0040119B1D6F811
:1059800006206649CA6500F0020119B1D6F80A205E
:1059900062490A66C0F3072260498A66C1B2614A59
:1059A000116088E340F2A24028801420A870287972
:1059B00040F0800028710120A41C24F8020C5748F4
:1059C000406EE0605548806D20605448C06D606056
:1059D0005248006EA060514890F86800514909880B
:1059E00041EA00202082A41E01200C9063E399F874
:1059F00002004B49C96E60F386114948C16699F8A7
:105A0000020041084648C06E61F3C7104449C866A9
:105A1000454840690A2805D191F86C10C1F38010FF
:105A2000FDF788FF404880690A2806D13C4991F873
:105A30006C10C1F3C010FDF7A1FF3CE340F215204C
:105A40002880374890F86C00C0F38010344991F8F2
:105A50006C10C1F3C01100EB4100A8700020E87089
:105A600001200C9027E370882C4988637068C86314
:105A7000B0680864B08900B2A1F84400D6F80E00FE
:105A80002949C860D6F812102748016100680990BA
:105A9000254840680890244880680790F08A224989
:105AA0000860308B38B9708B28B941F2707048604B
:105AB000022088600EE0708B1B498860308B18B91B
:105AC0006FF00040486005E0308B4FF4167148439A
:105AD00015494860144801680998814209D1124863
