:020000040800F2
:1000000048D606244504000867040008690400086F
:100010006B0400086D0400086F0400080000000075
:100020000000000000000000000000007104000853
:10003000730400080000000075040008770400083D
:10004000790400087904000879040008790400089C
:1000500079040008790400085D4600087904000866
:10006000790400087904000879040008790400087C
:10007000790400087904000879040008790400086C
:10008000790400087904000879040008790400085C
:10009000790400087904000879040008790400084C
:1000A000790400087904000879040008790400083C
:1000B000730601087904000879040008790400082F
:1000C000790400087904000879040008790400081C
:1000D000790400087904000879040008790400080C
:1000E0007904000879040008000000007904000881
:1000F00079040008790400087904000879040008EC
:1001000079040008790400087D060108EDD800088C
:1001100079040008790400087904000887060108BA
:1001200079040008790400087904000841410008B6
:1001300079040008790400087904000879040008AB
:1001400000000000000000000000000000000000AF
:10015000790400087904000879040008790400088B
:10016000790400087904000879040008790400087B
:1001700079040008790400087904000800000000F0
:10018000790400087904000879040008790400085B
:10019000790400087904000879040008790400084B
:1001A000790400087904000879040008790400083B
:1001B000790400087904000879040008790400082B
:1001C000790400087904000879040008790400081B
:1001D000790400087904000879040008790400080B
:1001E00079040008790400087904000879040008FB
:1001F0007904000879040008290C0000790400083B
:10020000350E00007904000879040008790400081C
:1002100069060108790400087904000879040008D7
:10022000790400087904000879040008000000003F
:10023000790400087904000800000000790400082F
:10024000790400087904000879040008790400089A
:10025000790400087904000879040008790400088A
:10026000790400087904000879040008790400087A
:1002700079040008790400087904000800000000EF
:100280007904000800000000790400080000000064
:10029000000000007904000800F002F800F0C0F847
:1002A0000AA090E8000C82448344AAF10107DA45D1
:1002B00001D100F0B5F8AFF2090EBAE80F0013F063
:1002C000010F18BFFB1A43F001031847D43F010088
:1002D000544001000A444FF0000C10F8013B13F0A9
:1002E000070408BF10F8014B1D1108BF10F8015B8F
:1002F000641E05D010F8016B641E01F8016BF9D182
:1003000013F0080F1EBF10F8014BAD1C0C1B09D1D8
:100310006D1E58BF01F801CBFAD505E014F8016B4A
:1003200001F8016B6D1EF9D59142D6D370470000DC
:10033000103A24BF78C878C1FAD8520724BF30C811
:1003400030C144BF04680C607047000000230024E3
:1003500000250026103A28BF78C1FBD8520728BFD5
:1003600030C148BF0B6070476E2900F0338470299C
:1003700000F09385662912F05887652912F0558799
:10038000672912F05287612912F0518703681B0A0E
:1003900028BF41F08001692900F0E083642900F062
:1003A000DD83752900F0DA836F2900F02085782934
:1003B00000F05F85E92900F0BB84E42900F0B884EF
:1003C000F52900F0B584EF2900F01D85F82900F02B
:1003D0005E850368DB0928BF41F08001632900F0D6
:1003E0003C84732900F04184E32901F06784F329F8
:1003F00001F06C84002070471FB512F093FE01F0ED
:1004000017F804000020002112F00CFE401C606070
:100410000020002112F0F0FDE0601FBD10B510BDFE
:10042000DFF80CD0FFF7E8FF11F0A0FF02F010F9A1
:100430000000022003B4FFF7F1FF03BC02F024F92F
:1004400040BA7047104811490268914207D10060D4
:100450000F4910488860D0F800D0406800470E4827
:1004600080470E480047FEE7FEE7FEE7FEE7FEE7AF
:10047000FEE7FEE7FEE7FEE7FEE700000848094961
:10048000094A0A4B70470000F0FF0120EFBEADDEC5
:1004900000ED00E00098F01F5D05010899020008DA
:1004A00048CC062448D6062448CE062448CE062446
:1004B0007CB51D4616460C00009001D02044401E1D
:1004C000074B7B442A4669460190304600F09BFB6F
:1004D00005461CB10020694600F0A8FB28467CBDFB
:1004E000710700000FB41CB5084B06AA7B4469468F
:1004F0000090059800F087FB04460020694600F054
:1005000095FB20461CBC5DF814FB00003D07000075
:1005100070B5044685690068C10601D5302600E043
:100520002026C00707D070BDD4E90121304690478E
:10053000206A401C20626D1EF6D570BD70B5044661
:1005400085690078C00707D170BDD4E9012120205A
:100550009047206A401C20626D1EF6D570BD70B5B4
:100560000C460546012A05D02878800600D5EA69A0
:10057000002302E0012305E05B1C934202D2E05C11
:100580000028F9D1A869E618C01AA861286A184499
:1005900028622846FFF7BCFF04E0D5E9012114F8E2
:1005A000010B9047B442F8D32846FFF7C7FF70BD50
:1005B0002DE9F05F894604464FF0000ADFF874B178
:1005C000FB44C0F820A02046E1688847002874D08A
:1005D000252806D0D4E901219047206A401C2062DA
:1005E000F1E700265F462046E16888472028054657
:1005F00007DB312D05D2781910F8200C08B106431D
:10060000F1E7B00701D526F00406C4F81CA00027C6
:10061000C4F818A02A2D09D0284611F059FE38B385
:1006200004EB8708303DC8F8185019E059F8041B4E
:10063000204604EB87029161E1688847012F054657
:1006400018D1E069002820DA26F020061DE0D8F84D
:10065000180000EB800005EB40003038C8F81800A7
:100660002046E1688847054611F032FE0028EED1A9
:10067000012F0AD02E2D08D12046E16888477F1C23
:100680000546022F46F02006C4DBA069002803DAE5
:10069000404246F00106A061F00701D026F01006A6
:1006A0006C2D0BD0682D09D04C2D39D06A2D35D04A
:1006B000742D35D07A2D33D016E038E0E1682F461E
:1006C00020468847B842054609D16C2F26D04FF402
:1006D0008060E168064320468847054604E06C2FA9
:1006E0001AD04FF4807006430DB3A5F141001928CC
:1006F00002D8203546F400664A4629462046266040
:100700004E46FFF731FE80B101280BD0F61D26F0D2
:10071000070000F1080956E74020E4E78020D8E709
:100720000020D6E706F104094DE7284652E7206A83
:10073000BDE8F09FF73101000FB400B58DB010A9EE
:10074000099000910B904FF0FF300A9000200C9020
:10075000064878440690064878446A4607900F9900
:1007600009A800F035FE0DB05DF814FB9B0C0000ED
:10077000B30C00002DE9FF5F1D464FF0FF3B914693
:100780004FF000085F46D5E90146A96901987F1C32
:100790008847296A824688470028F6D1BAF1FF3F88
:1007A0000CD0002E24F4C06419DD600614D5BAF113
:1007B0002B0F09D0BAF12D0F0ED103E0584604B02B
:1007C000BDE8F09F44F48064A96901987F1C8847C4
:1007D000761E8246002E02DDBAF1300F03D0B9F149
:1007E000000F26D032E0A969761E01987F1C44F4E0
:1007F00000748847002E824605DDBAF1780F06D0D6
:10080000BAF1580F03D0B9F1000F10D01EE0B9F1C2
:10081000000F02D0B9F1100F18D1A969761E019806
:100820007F1C24F4007488478246102002E00820D0
:1008300000E00A20814609E0A96908FB0908761E44
:1008400001987F1C44F4007488478246002E05DD21
:100850004946504600F02CFB0028EDDAE969019882
:100860008847A00502D46FF00100A8E7E00725D172
:10087000600613D5600502D5C8F1000000E04046CF
:1008800029680A1D2A600968220501D5087015E04B
:10089000220701D5088011E008600FE02868011DDB
:1008A00029600068210502D580F8008006E0210754
:1008B00002D5A0F8008001E0C0F8008038467EE74D
:1008C0002DE9FF5F4FF000089946144646469169AE
:1008D000D2E901A7DDF838B001988847054659EA02
:1008E0000B0005D009E0A1690198761C88470546F0
:1008F000216A284688470028F5D1681C03D05FEAA2
:10090000CA7005D015E04FF0FF3004B0BDE8F09F8D
:100910002068011D2160D0F800800AE05FEACA70FB
:1009200001D108F8015BA169761C01987F1E8847F8
:100930000546002F1ADD681C18D0B9F1000F0DD044
:10094000E81705EBD060421120F01F0059F8221083
:100950002A1A012090400142E0D107E0BBF1000FCC
:10096000DCD12846216A88470028D7D0E169019860
:100970008847BBF1000F07D1002E05DD5FEACA7082
:1009800002D1002188F80010A068B84203DDBBF155
:10099000000F03D017B16FF00100B6E73046B4E79F
:1009A00030B505460B462A4613F8014B12F8010BE9
:1009B00008B1A042F8D01CB1002802D06D1CF1E7AC
:1009C000284630BD032A40F2308010F0030C00F0BE
:1009D000158011F8013BBCF1020F624498BF11F879
:1009E00001CB00F8013B38BF11F8013BA2F1040232
:1009F00098BF00F801CB38BF00F8013B11F00303AA
:100A000000F02580083AC0F0088051F8043B083A0D
:100A100051F804CBA0E80810F5E7121D5CBF51F8AF
:100A2000043B40F8043BAFF30080D20724BF11F829
:100A3000013B11F801CB48BF11F8012B24BF00F88E
:100A4000013B00F801CB48BF00F8012B704710B5FF
:100A5000203AC0F00B80B1E81850203AA0E81850B6
:100A6000B1E81850A0E81850BFF4F5AF5FEA027C77
:100A700024BFB1E81850A0E8185044BF18C918C0E6
:100A8000BDE810405FEA827C24BF51F8043B40F887
:100A9000043B08BF7047D20728BF31F8023B48BF6C
:100AA00011F8012B28BF20F8023B48BF00F8012BAA
:100AB000704700004FF0013C50F8042B51F8043B04
:100AC0009A4215D1A2EB0C03934313EACC130BD13A
:100AD00050F8042B51F8043B9A4209D1A2EB0C03C5
:100AE000934313EACC13E7D04FF00000704700BFE8
:100AF000D01A01BAB1FA81F101F0180122FA01F01D
:100B0000CB40C1F12001DBB2C0B2C01A2CFA01F314
:100B1000D11A914311EAC311E6D17047704770476B
:100B2000704710B500F088FC006810BD10B5044691
:100B300000F082FC046010BD09684A0501D540B28E
:100B40007047C905FCD500B2704709684A0501D550
:100B5000C0B27047C905FCD580B270472DE9F0419D
:100B60000646002410687529314616A510D0FFF7F7
:100B7000E3FF002802DA404213A507E031688A0744
:100B800001D512A502E0490704D511A5012401E011
:100B9000FFF7DBFF00210A2206F1240709E0B0FB82
:100BA000F2FCB0FBF2F302FB1C0030307854184624
:100BB000491C0028F3D123462A463046BDE8F041BF
:100BC00000F08CBC000000002D0000002B00000095
:100BD0002000000011680268006A530501D5087002
:100BE0000AE0D30501D5088006E0130603D5C21735
:100BF000C1E9000200E008600120704701694A1C59
:100C000002610878704700B58FB0CDE9013100214D
:100C1000059105497944CDE9031011466846FFF76F
:100C2000C7FC0FB000BD0000E5FFFFFF0A6802F837
:100C3000010B0A607047D1E900239A4202D2531C8B
:100C40000B601070704710B5436913B1AFF30080AB
:100C500001E0FFF784FC012010BD127800F12401AF
:100C60000A7000224A700122EDE711684FF0FF324E
:100C7000E9E700002DE9FF5F15468A460446DFF8E4
:100C8000AC80F8440027D8E900103E46CDE90010BA
:100C900010E03AF816106A4602A801F047FA411C23
:100CA00007D02178890603D5E269391891420DD819
:100CB0000744761C2078800602D5E069B84205DD3D
:100CC000AE42E6DB3AF816000028E2D1A069C01B6C
:100CD000A0612046FFF71CFCD8E90010CDE9001008
:100CE000002017E03AF818106A4602A801F01EFA30
:100CF000B0F1FF3F81460BD000250DF1080B05E058
:100D0000D4E901211BF8050090476D1C4D45F7D330
:100D100008F10100B0428046E4DB206A38442062DA
:100D20002046FFF70BFCBDE8FF9F0000862B01006B
:100D30002DE9F0418046D21D22F007020025D2E9BC
:100D40000002F52915A614D0011E72F1000106DA81
:100D50000023D0EB030063EB020211A608E0D8F8F1
:100D600000108B0701D50FA602E0490701D50EA69A
:100D700001251146002408F1240704E000F060FB7F
:100D800030323A55641C50EA0102F7D12B46324604
:100D900021464046BDE8F04100F0A0BB0000000045
:100DA0002D0000002B0000002000000030B40021C6
:100DB00000F1240408E002F00705D208303542EAC9
:100DC0004372DB086554491C52EA0305F3D10468F9
:100DD000002310A2250707D5A40600D421B1C469B9
:100DE00001230DA2641EC46130BC00F077BB10B5B6
:100DF000044621461068FFF7A8FE02462046BDE8DB
:100E000010400023D2E7D21D22F00701D1E90023D0
:100E1000CCE700000000000030000000F0B40D46F8
:100E20000188090502D5214C7C4402E01F4C7C441A
:100E30000E34002100F1240608E002F00F07120929
:100E4000E75D42EA03721B097754491C52EA030723
:100E5000F3D102780023120704D5702D06D009B112
:100E6000022311342246F0BC00F038BB01231034B9
:100E7000F8E770B504460D4621461068FFF765FE99
:100E8000024629462046BDE870400023C6E7D21D31
:100E900022F00703D3E90023C0E70368126843F098
:100EA000200303600823C3610023B7E7E82901009A
:100EB0003A2800D2303820F02002412A01D3A2F192
:100EC0003700884201D34FF0FF3070472DE9FF4FC4
:100ED00006468BB00878FF2806D0491C2D2805D07F
:100EE00000244FF0000908E000200CE00124F8E79E
:100EF00009EB8903491C00EB43090878FF28F7D167
:100F000014B1C9F100008146107800252C46AA468C
:100F100029462D2801D02B2804D1521C2D2813D06E
:100F2000002082468B461078FF280FD04FF0000C2F
:100F30000A21521CA5FB017804FB018105FB0C1161
:100F4000C5194BEB0104EEE70120EAE70021084652
:100F50004FF00000BAF1000F02D000EB8000400813
:100F6000C0F38157012F01DD4FF0FF370E9955EA8D
:100F7000040009EB01080BD04FF0020918F5FA7FC5
:100F800016DA4FEACA70002F706008DD012007E012
:100F90004FEACA70C6E900B00FB0BDE8F08F00207C
:100FA000306000F049FAC0F800901821084616E0B9
:100FB000B8F5FA7F18DD002F02DAF748784401E02F
:100FC000F6487844D0E90010C6E9001040EACA703B
:100FD000706000F031FAC0F80090142108460FB09C
:100FE000BDE8F04F12F01EB9002108464FF0000096
:100FF000B8F10001099002DAC7F1000200E03A46B8
:1010000001DAC8F1000106A801F01EF806AB93E86A
:10101000070003AB83E8070044F23E005BEA0401EB
:101020000090584604D144F21E012C465D460091C2
:10103000210C0904014306D10099240444EA154413
:101040002D041039009104F07F41014306D100992D
:10105000240244EA15642D020839009104F070411D
:10106000014306D10099240144EA15742D01091F9A
:10107000009104F04041014306D10099A40044EAE4
:101080009574AD00891E009104F00041084304D11D
:1010900000986D196441401E00904FF001033A46DC
:1010A0006846B8F1000FCDE9014503A902DD01F062
:1010B000F0FD01E001F0C3FDBAF1000F04460D465A
:1010C00001D084F00044002108464FF00000099947
:1010D00040F2FF77484010F00C0F07D124F0004099
:1010E000284303D0C4F30A50B84212D100F0A4F947
:1010F000C0F80090C4F30A50B8420AD1A848784416
:10110000D0E90010C6E9001004F000410843706007
:1011100042E7C6E900543FE72DE9FF4F1F464FF075
:10112000000A4FF0FF38454691B0D7E90146CDF8A7
:101130003CA000F07DF9C0680168405C1090B9697E
:1011400012986D1C8847396A814688470028F6D175
:10115000B9F1FF3F0AD0002E24F4D06411DDB9F1BB
:101160002B0F08D0B9F12D0F0BD102E0404615B07E
:1011700013E744F48064B96912986D1C8847761EA1
:101180008146600504A901D52D2000E02B20002E0A
:1011900001F1010B0DF130088DF810003FDDB9F1C0
:1011A000690F08D0B9F1490F05D0B9F16E0F02D01F
:1011B000B9F14E0F1CD13B4601A8009580E85002C2
:1011C000DDE912126FF0020012F097F8C11CCED1C7
:1011D0000EE0B96912986D1C884781461398761EF7
:1011E00044F4007405600F98401C002E0F9016DD2B
:1011F000B9F1300FEDD0B9F1780F02D0B9F1580F35
:101200000DD10F9801280AD13B46CDE90054DDE904
:101210001212001F029612F06EF8C11CA7D110998D
:1012200089453ED144F0800406E01399681CAAF178
:10123000010A44F400740860B9696D1C1298761EA6
:10124000884730288146F0D02BE01099894505D198
:10125000200603D4761E44F0800418E0484611F0BE
:1012600037F808B3761E0DF123018B4544F4007462
:1012700008D2A9F130000BF8010B200607D5AAF11E
:10128000010003E0200602D40AF101008246A00515
:1012900002D51399681C0860B96912986D1C8847BB
:1012A0008146002ED1DC53E0002E51DDB9F1650FEF
:1012B00002D0B9F1450F4BD1A00549D5B9696D1CD4
:1012C0001298761E24F440748847002E81460CDD67
:1012D0002B2804D0B9F12D0F07D144F48074B969DB
:1012E00012986D1C8847761E8146E00501D52D2198
:1012F00000E02B2108F8011BCDF8008021E0761ECC
:101300000DF13901884544F400740CD2A9F1300084
:1013100010F0FF0088F8000002D10099884509D933
:1013200008F1010806E0E00501D51E4801E042F29F
:101330000F708246B96912986D1C884781461398D0
:101340000560002E04DD484610F0C2FF0028D6D10B
:10135000F96912988847FF2053468BF8000088F8F7
:10136000000000200A900B9004AA0CA90AA8FFF71D
:10137000ADFDA00502D46FF00100F8E614F0240FD3
:1013800012D0E0071CD13868DDE90A12031D3B606A
:101390000068C0E9001213E0683301005A3301000D
:1013A0001E320100F1D8FFFF0AA9684610F07EFE48
:1013B000E00705D13868009A011D396000680260B5
:1013C0002846D4E602681144137801601846704735
:1013D000D160054979445161044979441162002181
:1013E0001161114600F076BCEDFFFFFFED0000003B
:1013F000426842B1016811F8013B23B1521EC0E9B5
:101400000012184670470121C160881E704742686B
:101410005AB1C368016843B983688B4205D0491E3D
:10142000521CC0E90012002070474FF0FF30704797
:101430000048704704CC062400487047E4CB0624DB
:1014400030B5B0F10A024FEA900E71F100034EEA96
:10145000817EB0EB0E0061EB91014FEA101E4EEA67
:10146000017E10EB0E0041EB11114FEA102E4EEAF7
:10147000016E10EB0E0041EB11214FEA104E4EEAC7
:10148000014E10EB0E0041EB1141401841F10001FB
:101490004FEAD00040EA41704FEAD10110EB8005DD
:1014A0004FEA810444EA907444EB01046D1944EB63
:1014B0000404521BA3414FF0000348BF0A3200D579
:1014C00030BD401C41F1000130BD10B5044600F0B4
:1014D0004DFE0068005D00F0010010BD2DE9F047F1
:1014E0000D4699469246044600F124080168880694
:1014F00004D5E06921F01001216000E00120A8423C
:1015000001DD471B00E00027A1697A1902EB090001
:10151000081AA0612078C00602D42046FEF7F8FF22
:10152000002608E0D4E901211AF806009047206A55
:10153000401C761C20624E45F4DB2078C0060AD59C
:101540002046FEF7E5FF06E0D4E901213020904770
:10155000206A401C2062381EA7F10107F4DC07E076
:10156000D4E9012118F805009047206A401C206248
:10157000281EA5F10105F3DC2046FEF7DFFF2078E9
:10158000000602D50220BDE8F0870120FBE7704786
:101590002DE9FF4F0C461E464FF0FF378BB0D2E9C6
:1015A0000001DDF860800A908A46C1F30A5505B94A
:1015B0003D46002108464FF00000BAF1000F00F44C
:1015C000400005DA00EB80004FF4400101EA5000D2
:1015D0004FEA9059B9F1010F00DDB9460A9850EA77
:1015E0004A000ED044F61050A5F2FF3545432F14A3
:1015F000B8F1000F1ED07542291E1EDDC9F1000290
:101600001CE0B8F1010F4FF0000001D0302103E0E1
:10161000F24305E02154401CB042FBDB304600227F
:10162000002121540B99C1F80880C1E900200FB0B6
:10163000BDE8F08FBD1B6D1CDEE74A4600DA69424B
:1016400006A800F001FD06AB93E8070003AB83E8B2
:10165000070050460A9901F01EF88DE80700A0F532
:1016600000501F3800900398002D0ADD42F21F0140
:101670004A460844002303A90390684601F0CAFAC9
:1016800009E0A0F500504A461F38002303A9039043
:10169000684601F0E9FA8DE807000004000C03D069
:1016A0004FF0FF30410800E01046B8F1000F03D0C2
:1016B0000022009215461EE0751E05D4FFF7C0FEFD
:1016C000303262556D1EF9D5B3460122084302D06F
:1016D00000227F1C04E02078302801D100227F1EE8
:1016E000002A099784D01DE0112D07DAFFF7A8FE24
:1016F000303262556D1C50EA0102F5D1084302D028
:101700000098C8B10EE00021681E05E0235C625C11
:1017100063542254401E491C8142F7DBAB46A81B90
:10172000401E0990002004F80B000B98099AC0F89D
:101730000880C0E9002B7AE711264FF0000857E730
:101740002DE9F04F88460446D21D22F0070191B0E2
:10175000D1E90001CDE90A010FF0D6FF02460B984E
:10176000C00F01D02D2007E02068810701D52B2074
:1017700002E0202101EAC000032A099001D0072AD3
:1017800005DB03464146204600F0F8FC0BE12078DB
:10179000800601D5E06900E00620B8F1650F8146BA
:1017A00006D0B8F1660F18D0B8F1670F70D131E0EC
:1017B0000020B9F1110F009001DB112301E009F1C4
:1017C00001030AAA01A90CA8FFF7E2FEDDE90C70EB
:1017D000002609F10105834647E001204B460090B1
:1017E0004FF000470AAA01A90CA8FFF7D1FEDDE9D6
:1017F0000DB00C995D46002610B909F101000D18D5
:10180000B9EB050003D4C0F1FF3609F10105A5EBE2
:1018100009002BE0B9F1010F01DA4FF001090020B6
:10182000B9F1110F0090484601DD112300E0034695
:101830000AAA01A90CA8FFF7ABFEDDE90C704D4622
:1018400000268346207800070AD4AB4500DA5D46BF
:1018500001A8012D04DD411911F8011C302907D020
:101860004F4502DA17F1040F04DA012082460FE037
:101870006D1EEEE7002F02DCED1B3E4403E0781CFA
:10188000A84200DD7D1CB81B00F1010A4FF00047A3
:101890002078000703D4AA4501DB4FF0FF3A00216E
:1018A000B7F1004F0DF143088DF8431024D002200A
:1018B0002B23002F01DA7F422D230A21021EA0F1E3
:1018C000010000DC5FB197FBF1FC97FBF1F201FB3B
:1018D0001C7C17460CF1300C08F801CDEEE7A8F19E
:1018E000010003702188090501D5452100E065212B
:1018F000A0F1010800F8011C09980FA9A1EB080745
:10190000FF1D00B10120411901EBEA70A1693844C3
:10191000081A401EA0612078C00602D42046FEF7B7
:10192000F7FD099828B1D4E901219047206A401CAD
:1019300020622078C00622D52046FEF7E9FD1EE091
:10194000002E04DBB34502DD01A8805D00E03020FD
:10195000D4E901219047206A401C2062761CAAF13C
:1019600001005FEA000A0AD1FFF762FDC068016862
:10197000405CD4E901219047206A401C2062281E67
:10198000A5F10105DCDC07E0D4E9012118F8010B21
:101990009047206A401C2062381EA7F10107F3DC43
:1019A0002046FEF7CBFD032011B041E62DE9F04FB4
:1019B00004460D46D21D22F0070089B0D0E90097F9
:1019C000484639460FF0A0FE0246F80F01D02D23FD
:1019D00007E02068810701D52B2302E0202101EADE
:1019E000C0038DF820300BB1012000E00020032A55
:1019F000824601D0072A04DB2946204600F0BEFBC0
:101A00003FE12078800601D40D2500E0E569C7F3A9
:101A10000A560D2D49DA00214FEA175B08464FF0B0
:101A20000000002F00F4400007DA00EB80004FF4C4
:101A3000400100EBD07001EA60008115012901DD51
:101A40004FF0FF3100224FEA850CBCF1180F06D38E
:101A50001346ACF118004FF08052C24003E04FF43F
:101A6000801323FA0CF30CF10C0CBCF1200F04D3FF
:101A7000ACF1200C09FA0CF001E007FA0CF0002997
:101A80004FF0004801DD18B90FE00ED140450CD3EE
:101A900019EB02095F4121B9404502D19F4329EA70
:101AA0000209BBEB175F00D0761C2088000502D529
:101AB0007B48784402E07A487844193808AA3023F1
:101AC00002F80A30037C0AF10101002E0AF1020A31
:101AD00053546A4602DC4FF0300101E04FF031010F
:101AE0004FF001088DF8001002D0A6F2FF3603E097
:101AF00059EA470100D06B4E002D02DC217809071E
:101B000004D54FF002082E218DF80110C4460021A3
:101B10000BE0C7F303433F01C35C491C6D1E02F891
:101B20000830052908F1010801DA002DF1DC002157
:101B30000CE000EB1973491C1B786D1E082902F894
:101B400008304FEA091908F1010801DA002DF0DC2C
:101B500021688B0602D516E0A8F10108E04505DDF5
:101B600002EB080313F8013C302BF5D0B8F1000F5D
:101B700009DD02EB080313F8013C2E2B03D1090702
:101B800001D4A8F10108002D05DD3E2102F808105E
:101B90006D1E08F10108407C002E02F8080008F1D3
:101BA000010804DA2D20764202F8080002E02B201A
:101BB00002F808000A214FF47A70864208F1010801
:101BC0000BDB96FBF0F3303302F8083096FBF0F3B2
:101BD00008F1010800FB136601E0642E0CDB6420B1
:101BE00096FBF0F3303302F8083096FBF0F308F17F
:101BF000010800FB136601E00A2E06DB96FBF1F0FC
:101C0000303002F8080008F1010896FBF1F001FB02
:101C10001060303002F80800A16908F1010808EBF3
:101C2000050202EB0A00081AA0612078C00602D45F
:101C30002046FEF76DFC216A08AE01EB0A00206227
:101C400004E0D4E9012116F8010B9047BAF1010A2A
:101C5000F7D22078C00602D52046FEF759FC6E4622
:101C600009E016F8010B3E280FD0D4E90121904776
:101C7000206A401C2062B8F10108F2D22046FEF72B
:101C80005DFC09B00320BDE8F08F206A2844206283
:101C900003E0D4E90121302090476D1EEBD3F8E733
:101CA000B91D010002FCFFFF10B5436913B1AFF38A
:101CB000008001E0FEF7DEFF012010BD128800F178
:101CC000240182840022C2840122EDE711684FF0D2
:101CD000FF32E9E72DE9F34F4FF0000A0C46564674
:101CE0008DB001200C9001F10C000B9062690B98F3
:101CF00001219047051E2DD0252D2CD0216A884723
:101D0000C0B162690B9801219047216A8847002879
:101D1000F7D16269411E0B98904700E0761CA169DB
:101D20000D988847216A88470028F7D1E1690D9806
:101D30008847DBE7A1690D988847A842074601D18B
:101D4000761CD3E7E1690D9888477F1C02D1BAF170
:101D5000000F6FD06CE162690B9800273D46394651
:101D600090472A2804D162690B98012190470125E8
:101D7000DFF8D08262690B9801219047A0F1300111
:101D80000A290AD24745E5DC07EB870100EB41074A
:101D9000303FDFD445F01005ECE7E90601D46FF0E1
:101DA00000476C280AD04C2814D0682815D06A281F
:101DB0000DD074281CD07A281AD01DE062690B98C7
:101DC000012190476C2802D045F0040514E045F04D
:101DD00002050DE045F020050AE062690B9801213B
:101DE0009047682802D045F0080505E045F40065F5
:101DF00062690B9801219047C4E9015765283DD0DD
:101E000019DC58287AD00CDC452837D004DC25288A
:101E100026D041289ED131E046282FD0472899D19D
:101E20002CE05B2877D0612828D063287CD06428F8
:101E300023D15AE0F7E06F2848D008DC66281DD08F
:101E400067281BD0692821D06E2816D127E070287A
:101E500045D0732868D0752847D078280DD14DE03B
:101E6000A1690D988847252805463FF469AFE169C7
:101E70000D9888476D1C3FF46AAFD9E00D99234651
:101E80006A466FF0010011F034FAC6E045F04000F8
:101E900023464FF000026060A80736D43EE0E80712
:101EA0007FF447AF2068011D21600068290501D536
:101EB00006701BE7290701D5068017E7A90703D598
:101EC000F117C0E9006111E706600FE745F0400037
:101ED00023464FF008026060A80716D41EE040F6C3
:101EE0000E0125EA0100606016E045F0400023463F
:101EF0004FF00A026060A80707D40FE045F04000E9
:101F00006060A80708D5234610220D996FF00100E4
:101F1000AFF3008081E007E0102223460D996FF0B7
:101F20000100FEF727FC78E04FF0000963284F46D8
:101F3000C8464B46CB4602D05B2807D039E0207913
:101F4000C00601D40120A060012732E06269D4F804
:101F50000CB00B98012190475E2807D14FF0010982
:101F600049466269D4F80CB00B989047216939B999
:101F700000210A4603AB43F82120491C0829FADB5B
:101F8000D8B3216949B308F1010862690B980121AE
:101F900090475D28F4D1B9F1000F09D0002003A9C2
:101FA00051F82020D24341F82020401C0828F7DBBC
:101FB00003AB2069002820794FEA40701ED05B46B1
:101FC0002246CDF80080CDE901970D9900286FF0E9
:101FD000010020DAAFF300801FE0C11703AA00EB75
:101FE000D1614B1121F01F0102EB8302411A1368EA
:101FF0000120884003431360C7E719E00D9922468A
:1020000000286FF00100009702DAAFF3008004E0CF
:10201000FEF756FC01E0AFF3008000280ADA401C0E
:1020200006D10C9820B14FF0FF300FB0BDE8F08F13
:102030005046FAE7E90701D10AF1010A06440020F7
:102040000C9053E6CCCCCC0C2DE9F04781461646DB
:102050008AB0354878440DC88DE80D003248784480
:10206000801C03AC0DC884E80D0041F69B30084489
:10207000372190FBF1F290FBF1F5A5F1800501FB12
:1020800012041B3C02D56442012000E00020DFF86E
:1020900098A080460027FA44AAF1BE0A0EE0E007A5
:1020A0000AD03246684607EB470101230AEB81015B
:1020B00000F0DAFD8DE8070064107F1C002CEED1E3
:1020C000194F7F44AE3F19E0E80715D007EB041025
:1020D0000DF1180A90E80E008AE80E00C068F04280
:1020E00001D1981908903246012306A903A800F0EF
:1020F000BBFD03AB83E807006D10641C002DE3D12A
:102100004FF0010332466946B8F1000F03A802D030
:1021100000F080FD01E000F0A7FDC9E90001C9F869
:1021200008200AB0BDE8F087A818010070B516466F
:102130000C46054600F01AF8036893F801010128DF
:1021400006D0FF2C0FD8185D68B101202C7070BD2F
:10215000D3F807013246214603F207130344284609
:10216000BDE8704018474FF0FF3070BD10B5FFF765
:102170005FF9001D10BD00BFAD0E01002DE9F0415B
:102180001F46044603260168072A01F4006004DBA9
:1021900008B116A505E016A503E008B115A500E0F5
:1021A00015A521F010002060A069C01EA0610FB12C
:1021B000401EA0612046FEF7ABF94FB1D4E90121E2
:1021C00038469047206A401C2062C01C206206E00E
:1021D000206AFAE7D4E9012115F8010B9047761E31
:1021E000F8D22046FEF7AAF9BDE8F0814E414E0034
:1021F0006E616E00494E4600696E66002DE9FF4F24
:102200001F464FF03C0987B04FF00042DDE9141043
:1022100001F10108DDF858A002EA405003900020C7
:1022200005908346054604460490B969461E089801
:102230008847AAF1010A0290BAF1000F3BDD02982B
:102240002E2815D01021FEF733FE00282EDB4FF08C
:10225000010B0599014317D0B9F1000F0BDB4A467A
:10226000C11700F0FEF905430C43A9F1040905E08C
:10227000012004900BE008B145F001050120059014
:10228000049820B9361D02E0049800B1361FB969E0
:10229000089808F101088847BBF1000FAAF1010A6C
:1022A0000290C9D00999C1F80080C5E7029870284A
:1022B00008D0502806D0F96908988847BBF1000F6C
:1022C00014D04FE0002002900120BBF1000F0490D9
:1022D00009D0B969089808F101088847AAF10109ED
:1022E000B9F1000F07DCF969089888476FF0010021
:1022F0000BB0BDE8F08F2B2804D02D280CD14FF067
:10230000FF300490B969089808F101088847A9F1DD
:102310000109B9F1000FE6DD411CE4D00A21FEF706
:10232000C7FD0028DFDB029908F1010801EB8101FC
:1023300000EB41000290B969089888470A21FEF72E
:10234000B7FD099AA9F10109B9F1000FC2F800809F
:1023500001DD0028E7DAF9690898884704990298AE
:1023600000FB016655EA040004D004F04041090076
:1023700002D006E0039898E0A40044EA9574AD000A
:10238000B61E04F00041080002D16D196441761EAA
:10239000159810F0240F03D04FF00B095C4803E0B0
:1023A0004FF028096FF07D008246564507DAAAEB08
:1023B00006018944B9F1410F01DD4FF041090120C7
:1023C0000021A9F1010200F04CF9024628400B4619
:1023D0002140084301D0012100E00021501E02915C
:1023E00043F1FF3128402140084301D0012000E0A3
:1023F00000200299834651EA0B014FD00021084684
:102400004FF00000039900F4400039B100EB800068
:102410004FF4400100EBD07001EA60008015012804
:1024200002DD4FF0FF3000E013D0401C36D00298A0
:1024300060B3BBF1000F0CD14A460120002100F02F
:1024400010F928402140084301D0012000E000207D
:10245000E0B101204A46002100F003F9034640198B
:102460000A4661412D1A8C4111D3B9F1400F09DDA3
:10247000159810F0240F02D0AAF1340603E0AAF157
:10248000170600E0761C00254FF0004406E05B1EB6
:1024900042F1FF3220EA030521EA0204CAF10100F9
:1024A000B04206DA1B4903980843019000200090CF
:1024B0000EE0039AC4F3D321E80A0A43164940EA1E
:1024C00044500A433146CDE9000268460FF0A4FEAD
:1024D000159810F0240F0BD01598C00715D1386847
:1024E000DDE90012031D3B600068C0E900120CE04A
:1024F00002A869460FF0DAFD1598C00705D13868C3
:10250000029A011D3960006802604046F0E6000052
:1025100002FCFFFF0000F07F0000F03F2DE9FF4FBD
:1025200092461D4685B04FF00041DDE9124BDDE9D2
:1025300014727F1E01EA4B50414940F0FF4940EAC6
:102540000108002122F020004928049102D04E28E1
:1025500028D04CE03BA0012607C88DE80700A969F8
:102560000698641C88477F1E014606D41DF80600A5
:1025700018B121F0200181420BD0E9690698884703
:10258000032E34D0082E32D06FF0010009B0BDE820
:10259000F08F761C032E01D0082EE0D1601CCAF803
:1025A0000000DCE7A9690698641C88477F1E2AD4CE
:1025B00020F02000412826D1A9690698641C88478C
:1025C0007F1E20D420F020004E281CD1A969069837
:1025D000641C88477F1E48F4002849F48009CAF823
:1025E000004001D4282806D0E969069888475FEAA8
:1025F000CB7012D022E0A9690698641C88477F1E20
:1026000001D4002803DAE96906988847BCE729283D
:10261000F1D1641CCAF80040E9E71BF0240F07D091
:1026200028680499031D2B600068C0E9001805E0C4
:102630002868021D2A600068C0F800902046A5E7BF
:102640000000F07F494E46494E49545900000000B1
:1026500010B50446AFF300802046BDE81040FDF7FA
:10266000E9BEB2F120030AD5C2F1200301FA02F15A
:1026700020FA03F300FA02F041EA0301704700FA7E
:1026800003F14FF00000704701491820ABBEFEE790
:102690002600020070475FEA400C08BF91F0000F6F
:1026A0004FEA8C234FEAC12243EA51514FEA1C50B2
:1026B00018BF00F5F0404FEA300018BF41F000416C
:1026C0005FEA6C5C00F02980BCF1FF3F08BF40F07E
:1026D00080407047130C06BF12044FF0100C4FF0EF
:1026E000000C130E04BF12020CF1080C130F04BFF0
:1026F00012010CF1040C930F04BF92000CF1020CB8
:10270000D30F04BF52000CF1010C11464FF0000230
:10271000A0F11F00A0EB0C00704711F0004F08BFA4
:10272000704731F000413FF4D5AF0B0C06BF0904F0
:102730004FF0100C4FF0000C0B0E04BF09020CF10F
:10274000080C0B0F04BF09010CF1040C8B0F04BF24
:1027500089000CF1020CCB0F04BF49000CF1010CF5
:10276000CCF12003A0EB0C0022FA03F302FA0CF2E6
:1027700041EA030100F10100704720F07F4C80EA3C
:10278000030023F07F47ACEB070303F57C5300F015
:10279000004003F1FF032DE980494FEA154B09B4CE
:1027A0004FEA144325EA0B4E24EA03480FF20426AD
:1027B00006EB132749083E785FEA320203FB0667FF
:1027C000C7F5000707FB06F64FEA54374FEAD6462F
:1027D00006F1020607FB066CCCF1005C4FEA1C47D1
:1027E0002CEA074C07FB06F40CFB06F504EB154638
:1027F0004FEA961634BF00204FF000404FEAD13721
:1028000006FB07FC4FEA1C4C0CFB0BF7D21B03FB2F
:102810000CF761EB07010CFB0EF7B0EB074072EB16
:1028200017420CFB08F734BFA2EB0742B2EB07429A
:1028300061EB17414FEA0C444FEA910706FB07FC96
:102840004FEA1C4C0CFB0BF7B0EBC74072EB573256
:1028500003FB0CF734BFA2EBC742B2EBC74261EBFC
:1028600057310CFB0EF7B0EBC70072EB57720CFB45
:1028700008F734BFA2EBC702B2EBC70261EB577196
:10288000039F4FEA816141EA921104EBCC044FEAC5
:10289000D1374FEA826206FB07FC42EA90124FEA08
:1028A00080604FEA1C4C0CFB0BF7D21B03FB0CF7B0
:1028B00061EB07010CFB0EF7B0EB074072EB174220
:1028C0000CFB08F734BFA2EB0742B2EB074261EB07
:1028D00017414FEA8C554FEA910704EB9C2406FB05
:1028E00007FC4FEA1C4C0CFB0BF7B0EBC74072EB3C
:1028F000573203FB0CF734BFA2EBC742B2EBC7421F
:1029000061EB57310CFB0EF7B0EBC70072EB57725F
:102910000CFB08F734BFA2EBC702B2EBC70261EBB6
:10292000577115EB4C254FEA816141EA92114FEA4C
:1029300082624FEAD13742EA901206FB07FC44F16B
:1029400000044FEA80604FEA1C4C0CFB0BF7D21BD3
:1029500003FB0CF761EB07010CFB0EF7B0EB074034
:1029600072EB17420CFB08F734BFA2EB0742B2EB45
:10297000074261EB174115EB1C154FEA813141EA23
:1029800092414FEA823242EA90424FEA80304FEA67
:102990000C7644F1000448EA03434EEA0B484FF03A
:1029A000000EB2EB080C71EB030724BF62463946F8
:1029B0004EEB0E0E4FF0000B0018524149414BEB0D
:1029C0000B0BB2EB080C71EB03077BF1000B24BF80
:1029D000624639464EEB0E0E4FF0000B0018524186
:1029E00049414BEB0B0BB2EB080C71EB03077BF18E
:1029F000000B24BF624639464EEB0E0E51EA020729
:102A000018BF46F0010616EB0E7655F1000254F1A0
:102A1000000103D5BDE88901BDE80088BDE8890152
:102A2000BDE80048B619524141EB0101A3F1010391
:102A3000704780807F7E7D7C7B7A7978777676752B
:102A40007473727171706F6E6E6D6C6C6B6A6A69A3
:102A50006868676666656464636362616160605F3D
:102A60005F5E5E5D5D5C5C5B5B5A5A5959585857B6
:102A7000575656555555545453535252525151501E
:102A800050504F4F4F4E4E4D4D4D4C4C4C4B4B4B71
:102A90004A4A4A49494948484847474747464646B7
:102AA00045454544444444434343434242424241F2
:102AB0004141000046EA0646A3F570534FEA164628
:102AC00046EA42564FEAD22242EA415210B54FEA54
:102AD000D121A3F1010300F02FF820F0004000F114
:102AE000020C00F0004701EB00501146BCF5006FEE
:102AF00040EA070000D210BDBAF1000F0AD01CB5A1
:102B000003B44FF004004FF004014FF000000FBC7D
:102B1000BDE810404FF00001BBF1010FB9BF044800
:102B20004FF0FF310348002140EA070010BD00BF0D
:102B3000FFFFEF7F0000F07F002B9C4630D4770032
:102B40002BD01CB54FEA370703B44FF010004FF0FD
:102B50001001BAF1000F06D0BCF1000FDCBF40F04D
:102B6000080040F008014FF000000FBCBDE8104025
:102B70000BF1010BBBF1010F08BF5FEA170722BF82
:102B800012F1010211F101014FF0004143F1000384
:102B900000F0004043EA00007047F9D35708D0E73F
:102BA00046EA064613F1400F4FEA16461FDD13F1C1
:102BB000200FDFBF16430A46002120335B42BED000
:102BC000C3F1200746EA064602FA07F74FEA16461F
:102BD00046EA0706C3F1200722FA03F201FA07F7D3
:102BE00021FA03F14FF0000342EA0702A7E746EAA1
:102BF000020646EA06464FEA164646EA0106BCBF0A
:102C000046EA0646360C4FF000034FF000024FF044
:102C1000000194E72DE9804C9A46934670B491E800
:102C2000380007C831EA400C48BF34EA430C03D5EA
:102C3000FFF7A3FDFFF780FFF0BCBDE8008C2DE996
:102C4000804C9A46934670B491E8380007C831EA40
:102C5000400C48BF34EA430C03D5FFF78EFDFFF765
:102C600029FFF0BCBDE8008C2DE9804C9A469346C4
:102C700070B491E8380007C810F0804F08BF13F017
:102C8000804F03D100F01AF8FFF756FFF0BCBDE803
:102C9000008C2DE9804C9A46934670B491E8380038
:102CA00007C810F0804F08BF13F0804F03D100F029
:102CB00005F8FFF7FFFEF0BCBDE8008C20F07F4771
:102CC00080EA030023F07F4C07EB0C03A3F57C5351
:102CD00000F00040A3F1FE0392F0000F00F0B3807B
:102CE00095F0000F00F077802DE901494FEA11407F
:102CF0004FEA144621EA004800FB06FC24EA064796
:102D000008FB06F607FB08F800FB07F718EB064878
:102D10004CEB164C4FEA124B18EB07484FEA15469E
:102D20004CEB174022EA0B4E0BFB06FC25EA06474C
:102D30000EFB06F607FB0EFE0BFB07F71EEB064E1F
:102D40004CEB164C4FF000061EEB074E4CEB174BAE
:102D500018EB0B0840F1000018EB0E0B58EB0008C5
:102D600040F100008F1A4FF000013CBFC943661BC1
:102D700014BFB5EB040C00213CBFC943F61B4FEA5E
:102D800017444EEA8E0E27EA04454FEA1C4704FB1F
:102D900007622CEA074C05FB07F70CFB05F604FB62
:102DA0000CFC16EB074642EB174216EB0C4642EBC7
:102DB0001C421BEB060658EB0202414146EA9E0606
:102DC00001D5BDE80189B619524141EB0101A3F1DA
:102DD0000103BDE801894FEA14454FEA114724EA8F
:102DE000054621EA074C05FB07F406FB07F70CFB39
:102DF00006F105FB0CFC11EB074144EB17444FEACD
:102E0000124711EB0C4144EB1C4422EA074C05FB32
:102E100007F206FB07F70CFB06F605FB0CFC16EBAE
:102E2000074642EB174216EB0C4642EB1C456A186C
:102E300054F1000148BF7047B619524141EB0101FE
:102E4000A3F10103704795F0000F37D04FEA11420C
:102E50004FEA144721EA024624EA074C02FB07F135
:102E600006FB07F70CFB06F402FB0CFC14EB074413
:102E700041EB17414FEA154714EB0C4441EB1C4161
:102E800025EA074C02FB07F506FB07F70CFB06F6E5
:102E900002FB0CFC16EB074645EB174516EB0C4600
:102EA00045EB1C42121951F1000148BF7047B61999
:102EB000524141EB0101A3F1010370474FEA144570
:102EC0004FEA114724EA054621EA074C05FB07F1C2
:102ED00006FB07F70CFB06F24FF0000605FB0CFCA7
:102EE00012EB074241EB174112EB0C4251EB1C4134
:102EF00048BF7047921841EB0101A3F101037047ED
:102F000041F2BD0CC2F2000C604741F2796CC0F294
:102F1000000C604745F2B57CC0F2000C604745F2FA
:102F2000F97CC0F2000C604740F2AD5CC0F2000CCE
:102F3000604744F2950CC0F2000C604741F2196CF6
:102F4000C0F2000C604744F6C92CC0F2000C604788
:102F500043F6956CC0F2000C604741F2417CC0F230
:102F6000000C604743F6D93CC0F2000C604743F6C2
:102F7000F51CC0F2000C604741F2FD6CC0F2000C81
:102F8000604742F26D5CC0F2000C604740F2BD6CDD
:102F9000C0F2000C604741F6C92CC0F2000C60473B
:102FA00043F6B93CC0F2000C604740F2C51CC2F2C7
:102FB000000C604745F2CD0CC0F2000C604743F6B0
:102FC000CD3CC0F2000C604741F2456CC0F2000CF1
:102FD000604740F20D1CC2F2000C604741F2293CF0
:102FE000C0F2000C604740F2D51CC2F2000C6047F2
:102FF00040F2615CC2F2000C604740F6857CC2F290
:10300000000C604741F2291CC2F2000C604744F2F8
:10301000D52CC0F2000C604744F2C57CC0F2000C15
:10302000604743F61D4CC0F2000C604740F2850C2F
:10303000C0F2000C604740F2D15CC0F2000C604767
:1030400040F2116CC0F2000C604740F2556CC0F2C7
:10305000000C604740F2E17CC0F2000C604740F693
:10306000A97CC0F2000C604740F2957CC0F2000CD5
:10307000604741F2E56CC0F2000C604741F6090C74
:10308000C0F2000C604740F2996CC0F2000C60473F
:1030900070B500290CDB07290ADC046A8E000F25B5
:1030A000B540AC438D0002FA05F52C43046213E0F1
:1030B000082910DB0F290EDC446AA1F10805AE00D7
:1030C0000F25B540AC43A1F10805AD0002FA05F5A6
:1030D0002C43446200E070BDC4684E000325B54037
:1030E000AC43C46003F0010434B1C4684E00012550
:1030F000B5402C43C46008E003F002042CB1C4685E
:103100004E000225B5402C43C46003F4807424B102
:10311000446801258D402C43446084684E0003259B
:10312000B540AC43846003F480642CB184684E00E5
:103130000325B5402C43846004684E000125B5404A
:10314000AC43046004684E000225B5402C43046083
:1031500000BFC0E730B5D0E902456319C468144424
:10316000C46003E011F8014B03F8014B141EA2F1F7
:103170000102F7D130BD00000FB4F0B587B00546AD
:103180000EA806900295554800688068012805D170
:1031900052480068007B8DF804000CE04FF6FF7089
:1031A000854203D111208DF8040004E005F12100CF
:1031B000C0B28DF8040001208DF80500BDF8340080
:1031C00003900020049046A00590BDF834008128AB
:1031D00039D1069810C80690069880C8069000203D
:1031E0000390002D1BDB032D19DAC5EBC5013D480B
:1031F00000EB01104069A04224D0B4F5004F07D085
:103200008120039004940597394637A000F0E0FE32
:10321000C5EBC501334800EB0110446112E03148B1
:103220004C38C06AA0420DD0B4F5004F07D08120C1
:1032300003900494059739462BA000F0C9FE294855
:103240004C38C46200BF00BF0020069025484C38AF
:10325000806902283ED123484C38006B21494C3903
:10326000C96B884213D1274A01A9002001F0D4FF7D
:103270000646012E2ED12348426801682248FFF7F6
:1032800069FF20490868022100F0D8FF22E01548B4
:103290004C38006B13494C39496B884207D01148B0
:1032A0004C38006B0F494C39096C884212D1174ACF
:1032B00001A9002001F0B0FF0646012E0AD11348F3
:1032C000426801681248FFF745FF10490868042169
:1032D00000F0B4FF07B0F0BC5DF814FB1C3401082B
:1032E00000000000A03805240D0A415054206E6FE4
:1032F00074696669636174696F6E3A2025732E0D77
:103300000A00000098010024D0010024900100244C
:10331000C001002410B502684C000323A3401A43E7
:103320000260C2684C000323A3409A43C26010BDF0
:103330002DE9F04106460C4626B1012E05D0022E9D
:1033400009D105E00027404D08E001273F4D05E089
:1033500002273F4D02E00120BDE8F08100BF3D485B
:1033600050F82600D0F8048008F19C003A49086023
:103370000020096848603948374909688860002199
:10338000354800680161002033490968C860206839
:10339000022806D0032805D0042804D0052807D128
:1033A00002E000BF00BF00BF38460DF087F900BF44
:1033B00000BFE068022802D003283CD11DE00220B3
:1033C000254909684860244800680660224800686A
:1033D0008560206908B9012000E000201E490968C5
:1033E000C8601D48216900680161216909B901218E
:1033F00000E000210846A8471DE0012016490968A1
:1034000048601548006806601348006885602069B8
:1034100008B9012000E000200F490968C8600E4883
:10342000216900680161216909B9012100E00021D9
:103430000846A84700BF00BF711C09A0D4E90323B8
:1034400000F0C6FD002087E7C5340008ED34000811
:1034500015350008289406241C000024B9440008EF
:103460000D0A4D6F746F72204368616E6E656C203B
:103470002564204178697320492F4F3A204F757495
:1034800046756E633A2025642C204F7574506F6C1E
:10349000203D2025640D0A0010B5002001F08EF9B2
:1034A000C0F3001010BD10B5002001F087F9C0F383
:1034B000401010BD10B5002001F080F9C0F380105D
:1034C00010BD000010B504460CB1012100E0002140
:1034D0000548006861F38A200349086008460168CE
:1034E000032001F0E5F910BD6C02002410B504467C
:1034F0000CB1012100E000210548006861F3CB20F8
:103500000349086008460168032001F0D1F910BDA5
:103510006C02002410B504460CB1012100E000212A
:103520000548006861F30C300349086008460168EB
:10353000032001F0BDF910BD6C0200242DE9F34F0A
:1035400083B0824600200290002104980160BAF105
:10355000000F06D0BAF1010F08D0BAF1020F0FD157
:1035600009E0FE480190FE4800900CE0FD48019003
:10357000FD48009007E0FD480190FD48009002E002
:103580000120029000BF00BF0298012802D105B0BF
:10359000BDE8F08FB222F749684600F0FDFD0290C9
:1035A000029808B90220F2E7F24890F80090B9F1C9
:1035B000250F04D0B9F1260F01D00320E7E7B9F1B8
:1035C000250F7DD1DFF8ACB39BF80100C0F10008F6
:1035D000002503E0E748405D80446D1CB22DF9DB17
:1035E00008F0FF019BF80100814201D00420CEE7E2
:1035F00059200AFB00F0E04901EB40049BF8000071
:1036000020709BF801006070BBF80200FCF718FF07
:103610006080DBF80400FCF713FF6060DBF8080053
:10362000FCF70EFFA060DBF80C00FCF709FFE06080
:10363000DBF81000FCF704FF2061DBF81400FCF756
:10364000FFFE6061DBF81800FCF7FAFEA061DBF812
:103650001C00FCF7F5FEE061DBF82000FCF7F0FE53
:103660002062DBF82400FCF7EBFE6062DBF8280048
:10367000FCF7E6FEA062DBF82C00FCF7E1FEE0625E
:10368000002506E00BF13000415D04F130004155AA
:103690006D1C102DF6DBDBF84400FCF7D1FE6064F6
:1036A000DBF84800FCF7CCFEA064DBF84C00FCF72C
:1036B000C7FEE064DBF85000FCF7C2FE206500E0C6
:1036C0006AE1DBF85400FCF7BBFE6065BBF858000C
:1036D000FCF7B6FE81B204F14400A4F85810BBF820
:1036E0005A00FCF7ADFE81B204F14400A4F85A1070
:1036F000BBF85C00FCF7A4FE81B204F14400A4F81E
:103700005C10DBF85E00FCF79BFEC4F85E00BBF8C3
:103710006200FCF795FE81B204F14400A4F8621047
:10372000BBF86400FCF78CFE81B204F14400A4F8FD
:103730006410BBF96600FCF783FE01B204F144009B
:10374000A4F86610BBF96800FCF77AFE01B204F138
:103750004400A4F86810BBF96A00FCF771FE01B2DE
:1037600004F14400A4F86A10BBF86C00FCF768FE92
:1037700081B204F14400A4F86C10BBF96E00FCF7B0
:103780005FFE01B204F14400A4F86E10BBF97000B2
:10379000FCF756FE01B204F14400A4F87010BBF827
:1037A0007200FCF74DFE81B204F14400A4F87210DF
:1037B000BBF97400FCF744FE01B204F14400A4F824
:1037C0007410DBF87600FCF73BFEC4F87600BBF91A
:1037D0007A00FCF735FE01B204F14400A4F87A1037
:1037E00000250EE00BF17C0101EB4501B1F9000071
:1037F000FCF726FE01B204F17C0000EB45000180DD
:103800006D1C0D2DEEDB00250EE00BF1960101EB9A
:103810004501B1F90000FCF713FE01B204F1960076
:1038200000EB450001806D1C022DEEDB00250EE053
:103830000BF19A0101EB4501B1F90000FCF700FE24
:1038400001B204F19A0000EB450001806D1C022DCD
:10385000EEDBBBF99E00FCF7F3FD01B204F144007E
:10386000A4F89E10BBF9A000FCF7EAFD01B204F138
:103870004400A4F8A010BBF9A200FCF7E1FD01B2DE
:1038800004F14400A4F8A21000250EE00BF1A401FD
:1038900001EB4501B1F90000FCF7D2FD01B204F1E2
:1038A000A40000EB450001806D1C042DEEDB3148C7
:1038B00090F8AC7090F8AD6094F8AD0067F300003C
:1038C00084F8AD00790894F8AD0061F3420084F803
:1038D000AD00F90894F8AD0061F3C40084F8AD00C0
:1038E000790994F8AD0061F3451084F8AD00B90989
:1038F00094F8AD0061F3871084F8AD0094F8AC0043
:1039000066F3000084F8AC00710894F8AC0061F331
:10391000420084F8AC00F10894F8AC0061F3C300F5
:1039200084F8AC00310994F8AC0061F3051084F818
:10393000AC00B10994F8AC0061F3861084F8AC00D7
:10394000F10994F8AC0061F3C71084F8AC009BF85F
:10395000AE1084F8AE109BF8AF100FE0B9BE0008AF
:10396000C9BE0008E1BE0008F5BE000809BF000896
:1039700019BF0008963705248035052484F8AF1058
:10398000BBF8B000FCF75CFD81B204F14400A4F880
:10399000B0100498046067E1B9F1260F7DD1B349F6
:1039A0004878C0F10008002503E0B048405D80443D
:1039B0006D1C802DF9DB08F0FF024878824201D0AF
:1039C0000420E4E559200AFB00F0A94A02EB400478
:1039D000891C11F8020C207011F8010C6070087835
:1039E0006080D1F8010020F07F4262604A68A260E6
:1039F0008A68E260CA6822610A6962610022A26183
:103A00004A69E2618A692262CA696262CA69A2621B
:103A10000A6A891EE262002506E001F12600425D85
:103A200004F1300042556D1C102DF6DB3E3151F88B
:103A3000080C606451F8042CA26451F8042CE26470
:103A40000A6822654A6862650A8904F14400A4F89C
:103A500058204A89A4F85A204FF4FA62A4F85C204E
:103A60000022C4F85E200122A4F86220A4F8642099
:103A70008A89A4F86620CA89A4F868200A8AA4F86A
:103A80006A204A8AA4F86C208A8AA4F86E20CA8A1E
:103A9000A4F8702047F6FF7200E0E3E0A4F872207B
:103AA0000A8BA4F87420D1F81A20C4F87620CA8BA7
:103AB000A4F87A200A8CA4F87C204A8CA4F87E20F2
:103AC0008A8CA4F880200A8CA4F882204A8CA4F85E
:103AD00084208A8CA4F88620CA8CA4F888200A8DB9
:103AE000A4F88A204A8DA4F88C200A8EA4F88E208F
:103AF000CA8DA4F890200A8EA4F892200022A4F87F
:103B0000942047F6FF72A4F89620A4F89820488ED7
:103B100002B204F14400A4F89A20888E02B2A4F8FC
:103B20009C20C88E02B204F14400A4F89E204A8F63
:103B3000A4F8A0208A8FA4F8A2204A8FA4F8A42079
:103B4000CA8FA4F8A620CA8FA4F8A820B1F84020F4
:103B50003E39A4F8AA206088122807D194F8AD0055
:103B600020F00100401C84F8AD0005E094F8AD00A1
:103B700020F0010284F8AD2094F8AD0020F006009A
:103B8000001D84F8AD0094F8AD0020F0180284F810
:103B9000AD2094F8AD0020F02000203084F8AD0076
:103BA00094F8AD0020F0C000803084F8AD0094F8A7
:103BB000AC0020F0010284F8AC2094F8AC0020F0B6
:103BC0000600001D84F8AC0094F8AC0020F0080258
:103BD00084F8AC2091F87600401C012807D04028DA
:103BE0000CD0802812D0B0F5807F1FD116E094F859
:103BF000AC0020F0300284F8AC2017E094F8AC0060
:103C000020F03000103084F8AC000FE094F8AC00E5
:103C100020F03000203084F8AC0007E094F8AC00CD
:103C200020F03000303084F8AC0000BF00BF94F8C2
:103C3000AC0020F0400284F8AC2094F8AC0020F0F6
:103C40008000803084F8AC00082284F8AF2084F82B
:103C5000AE2042F2107204F14400A4F8B02004989F
:103C6000046001E0012092E4002090E496370524EE
:103C7000803505242DE9F04106460F46154627B14B
:103C8000012F04D0022F16D113E0002413E035B128
:103C9000012D06D0022D06D0032D08D105E0052404
:103CA00005E0012403E0022401E0032400BF00BF7B
:103CB00001E0062400BF00BF012E04D0022E09D06F
:103CC000032E15D10DE01548006864F39850134990
:103CD00008600DE01148006864F35B600F490860FC
:103CE00006E00E48006864F31E700C49086000BFCF
:103CF00000BF0A480168032000F0DAFD3A46314669
:103D000007A000F065F91DB911A000F061F903E00A
:103D1000294612A000F05CF9BDE8F0816C02002495
:103D20000D0A53657420424E43206E756D626572B4
:103D300020256420746F204D6F64652025642C203D
:103D4000636F6E74726F6C6C656420627920000022
:103D5000736F667477617265000000006D6F746F39
:103D600072206368616E6E656C202564000000003F
:103D700030B50546802901D9012030BD2C46064AC0
:103D8000002304E012F8010B04F8010B5B1C8B42CA
:103D9000F8D30020F1E700005040005870B5054608
:103DA000802901D9012070BD0D48006840F4807061
:103DB0000B4E3060CA200B4E7062532070622B464F
:103DC000084A5032002404E013F8010B02F8010BFA
:103DD000641C8C42F8D3FF20024E70620020E2E7A0
:103DE00000480258004000582DE9F05F05460E4695
:103DF0004048D0F80090D0F814A03F4951F829105D
:103E0000306849680968A0EB01083B4951F82A105D
:103E1000706849680968471A394640460DF050FCF9
:103E200083465946404609F065FA34498860594648
:103E3000384609F05FFA3149C860002455E0002097
:103E400004EB840101EBC40105EB8101886004EB04
:103E5000840101EBC40145F8210056F8240004EB6D
:103E6000840101EBC40105EB81014860234A08325B
:103E700052F82410083A1068FFF742F804EB840166
:103E800001EBC40105EB8101C86004EB840000EB89
:103E9000C40005EB8000C06838B9012004EB840140
:103EA00001EBC40105EB8101C860144A083252F8E5
:103EB0002410083A5068FFF723F804EB840101EB63
:103EC000C40105EB8101086104EB840000EBC40030
:103ED00005EB8000006938B9012004EB840101EB97
:103EE000C40105EB81010861641C012CA7DDBDE85C
:103EF000F09F00000C95062428940624649506245F
:103F00002DE9F04104461B49C96A481E0CF0C0FB6C
:103F100007461848406B022801D1012000E000202C
:103F200080EA07061348006B06281DD2DFE800F080
:103F30001C03050C131A012518E0052C01D130468D
:103F400000E00120054611E0082C01D1304600E0D8
:103F5000012005460AE0012C01D1304600E0012095
:103F6000054603E0354601E0012500BF00BF2846B5
:103F7000BDE8F0810C9506240948016842690948AA
:103F800050F821004068806C012807D1054850F89E
:103F900022004068806C012800D170470020FCE7B7
:103FA0000C950624289406240149086070470000F7
:103FB0004002002410B500E000BF04490968886889
:103FC00080470028F8D000F093F810BD400200248C
:103FD0000FB438B505A800900F48006840F6FF718F
:103FE000884213D20C4A1268C2F58052511E0B4A05
:103FF0001268094B1B68D018009B049AFCF758FA0A
:1040000004460548006820440349086000200090E9
:10401000204638BC5DF814FB48020024440200240A
:104020002DE9F04105460E4600272B48006808B9E7
:104030002A48056037E0082C04D00A2C14D00D2C37
:1040400017D110E02448006860B125A0FFF7C0FF39
:1040500021480068401E2049086020480068401E32
:104060001E4908601EE000BF012700201A490860B1
:1040700018E019480068B04213D21A490C7008467B
:10408000017819A0FFF7A4FF144909680C701348C0
:104090000068401C114908600F480068401C0E4928
:1040A000086000BF00BF11490968086880470446DE
:1040B000B0F5807FBFD16FB1002008490968087052
:1040C00006480068401C0549086008460068401B17
:1040D000BDE8F0810020FBE74C02002450020024E0
:1040E0000820080054020024256300004002002438
:1040F00010B50F480068D0B10E490968886880473C
:10410000A8B10C4800684268094801680A4800687C
:104110009047094800680949884202D101F580505A
:1041200000E006480449086000200149086010BD0D
:10413000480200244002002444020024DC950624A6
:1041400010B511490968491C0F4A116001210F4A35
:1041500011600F49096889B10D490968884720B184
:104160004FF000610B4A11600CE00A4950310968B8
:1041700021F01001074A5032116003E04FF0006156
:10418000044A116010BD000080020024780200245F
:104190007C020024080402402DE9F04105460E4649
:1041A00090461C49286808601B496868086072B618
:1041B0000120184909688847002405E04FF47A7007
:1041C000164909688847641C642CF7DB07F0C2FDB8
:1041D000B0B10127CC2007F00DFEF02007F00AFE59
:1041E000002007F007FE002007F004FE002404E092
:1041F00007F0A0FD06F8010B641C4445F8DB00E065
:104200000027002003490968884762B63846BDE8A0
:10421000F08100000C000024100000241400002491
:1042200008B1022101E04FF40031014A11607047EA
:104230001814025810B50446002010BD2DE9F047AF
:10424000064689460024308887B2B9F1070F77D235
:10425000DFE809F076334C041D626C004FA553482B
:10426000C069022801D1012000E0002004434F482A
:10427000C069012808D140F29240874204D0B7F5C6
:10428000926F01D0012000E00020044358E048A5CF
:104290004648006A022801D1012000E000200443C2
:1042A0004248006A012805D140F29140874201D07E
:1042B000012000E00020044342E041A53B48C069E2
:1042C000022801D1012000E0002004433748C069E2
:1042D000012808D140F29240874204D0B7F5926F8E
:1042E00001D0012000E00020044329E038A52F4838
:1042F000006A022801D1012000E0002004432B487D
:10430000006A012805D140F29140874201D0012086
:1043100000E00020044313E031A52448C0690328CD
:1043200001D1012000E00020044309E030A51F482E
:10433000006A032801D1012000E00020044300BFEF
:1043400000BF012C27D12846FFF742FE307900F04C
:10435000800028B1B078F178220212FB010000E061
:10436000002000F1060A4FF0000806E016F80810D9
:1043700023A0FFF72DFE08F10108D04502DAB8F1BD
:10438000400FF3DBBAF1400F02DB1FA0FFF720FE66
:104390001EA0FFF71DFEBDE8F08700001B5B333455
:1043A0006D0D0A5553422052783A2000DCB906249C
:1043B0001B5B33326D0D0A5553422054783A20006E
:1043C0001B5B33356D0D0A4574682052783A200026
:1043D0001B5B33366D0D0A4574682054783A200013
:1043E0001B5B33336D0D0A4C43442052783A200056
:1043F0001B5B33316D0D0A4C43442054783A200046
:1044000025303258200000002E2E2E001B5B33304A
:104410006D00000070B504460CF0F0F8054600E0B1
:1044200000BF0CF0EBF8064629460CF0E3F8A0427A
:10443000F6DB70BD10B504464FF080700949886105
:10444000012C02D14FF4FA6100E005210846FFF784
:10445000E1FF4FF48070034988616420FFF7DAFFC1
:1044600010BD00000000025810B50F480068D0B120
:104470000E49096888688047A8B10C4800684268FE
:10448000094801680A4800689047094800680949D6
:10449000884202D101F5806000E0064804490860C6
:1044A00000200149086010BD143505240C35052491
:1044B000103505243CBF0624704770470246002093
:1044C000704710B500F0C2FA84B242F21F40844235
:1044D00001D1204610BD0020FCE700002DE9FF4F70
:1044E00081B00E46144601200090DDF8049030198A
:1044F000B0F5042F03D3012005B0BDE8F08F0CB94F
:104500000020F9E7A2464FF48470B6FBF0F736E0DE
:104510003946224800F0C0FA00BF0AF021FB0546E8
:10452000042D01D0002DF8DC042D01D00220E3E79A
:10453000BAF5847F01D2504601E04FF4847083467F
:104540004FF0000816E0049828B9144810F8080045
:1045500009F8010B0CE0009840B119F8011B0F4855
:1045600010F80800814201D1012000E000200090F5
:1045700008F10108D845E6D3AAEB0B0A7F1C3019D5
:104580004FF48471B0FBF1F0B842C1D20098012819
:1045900001D00120B0E70020AEE700003000003875
:1045A0002DE9F74F0E4615467019B0F5042F02D3CA
:1045B0000220BDE8FE8F0DB90120FAE7DDF800A06A
:1045C000A8464FF48470B6FBF0F73BE0B8F5847F63
:1045D00001D2404601E04FF484708346B8F5847FF1
:1045E00010D239461C4800F057FA00BF0AF0B8FA5A
:1045F0000446042C01D0002CF8DC042C02D04FF02F
:10460000FF30D6E74FF0000906E01AF8010B124917
:1046100001F8090009F10109D945F6D3A8EB0B0807
:1046200039460D4800F048FA00BF0AF0F3FA044694
:104630000C2C01D0002CF8DC0C2C02D04FF0FF30F9
:10464000B7E77F1C70194FF48471B0FBF1F0B842EA
:10465000BCD20120ADE700003000003806480068F9
:1046600040F001004FF0B041C1F888000348C06C31
:10467000401E0249C864704788000058B894062458
:1046800010B504464FF4802008490860012C02D17F
:104690004FF4FA6100E005210846FFF7BBFE042055
:1046A000024908606420FFF7B5FE10BD18140258D7
:1046B0000446214603A0FFF78BFC01E0FFF718FD3D
:1046C000FCE700000D0A457869742077697468205A
:1046D0006572726F723A20257300000010B50E48A3
:1046E000006840F010000C49086000E000BF0A4874
:1046F000006800F010001028F8D1020203210748DA
:1047000000F044FB00220121044800F03FFB044973
:104710000868804710BD0000E044025800100258AD
:104720008837010870B5FFF7D9FF012000F04EF877
:104730000220FFF76FFE002000F048F80A20FFF784
:1047400069FE00F033F808B1012070BD144C154823
:10475000066800BF4FF6FF70844201DA204601E090
:104760004FF6FF700546AAB20F4800214368304655
:10477000984700E000BF0C49886880470028F9D0BE
:10478000641B06EB4506002CE4DC0A20FFF742FE22
:1047900000F00CF808B90120D7E70020D5E70000A9
:1047A0003E99020004350524883701080248006953
:1047B000C0F3400070470000001002580146024854
:1047C00050F82100704700001CBB062408B10821E6
:1047D00001E04FF40021014A916170470010025836
:1047E00070B52248006800EB4000214901EB8004CD
:1047F000204A2168A06842F821001D48D0F8C8006E
:10480000002801DD012000E00020054665B31848BE
:10481000D0F8C400154908601548D0F8C410D0F885
:10482000C400401C124AC2F8C40001EB410011460A
:1048300001EB8004206800F021F80F48022204F107
:1048400008014368201D98470948D0F8C400102883
:1048500003DB00200649C1F8C4000548D0F8C800B1
:10486000401E0349C1F8C800284670BD74020024E8
:1048700050BA06241CBB0624883701084FF4604157
:1048800001EA4031C2434FF0604303EA42721143F0
:10489000054A116000F0080109B1012101E04FF45F
:1048A0008031024A116070471808025818140258E3
:1048B000FEB504460D460020009001900290009441
:1048C00001951649086980471548D0F8C010D0F8FE
:1048D000C000401C124AC2F8C00001EB4100114662
:1048E00001EB80009DE80E000EC00D48D0F8C0001E
:1048F000102803DB00200A49C1F8C0000848D0F89E
:10490000C800401C0649C1F8C80009F025F8064651
:104910000249C86880473046FEBD0000883701085C
:1049200050BA062410B50446044948698047001B64
:10493000022801D3012010BD0020FCE788370108C0
:1049400070B501253548006840F002003349086021
:104950000023012208213248FEF79AFB2F4810302D
:10496000006840F400302D491031086000E000BFBD
:104970002A481030006800F40030B0F5003FF6D14E
:10498000284C012000EB1445681E27490880B4FB21
:10499000F5F0401E091D086008460068234908809C
:1049A00021481038006840F060001F491039086045
:1049B0000846006840F0080008601C49088800EBC1
:1049C000D0714910184A0C32116017480838006835
:1049D00040F0010014490839086013481C30006891
:1049E00040F4004010491C3108600F482838008806
:1049F00040F060000C49283908800B4814380068E2
:104A000040F0010008491439086007482838008838
:104A100040F0010004492839088070BDE044025884
:104A20000004025800350C00284401400000002416
:104A300004490988414340F28F225143090C024A3C
:104A400011607047000000243444014010B500207C
:104A500009F00AFB9F200F490870012200210D4830
:104A600009F096FA00E000BF09F070F90028FAD0CA
:104A700004220849002009F08BFA00E000BF09F089
:104A800065F90028FAD0012009F0EEFA0148006823
:104A900010BD000014000038044A10604A00044BA6
:104AA0001A600022034B1A607047000004000038AF
:104AB0000800003800000038044A10604A00044B27
:104AC0001A600022034B1A60704700001000003883
:104AD000080000380C0000382DE9F04198B0054678
:104AE0000F46C5EBC5011D4800EB0118D8F80400BE
:104AF000012802D018B0BDE8F081194850F825000F
:104B00004468174850F825000668206F00B9F1E79F
:104B1000E06B042802D0E06B00B1EBE7606E012887
:104B200000D0E7E70420E06300200B900C970D9085
:104B3000B06E0E90F06E0F900AA0124B0C9A0F9967
:104B40001B68984728220EA96846FBF780FF284675
:104B50000BA90EC906F01CFF00BFCBE7A038052447
:104B6000289406240D0A4B6E6F62206D6F76652CBB
:104B70002056656C203D2025642C20506F73203D0D
:104B800020256400300200242DE9F04397B0074649
:104B90008846B8F1000F02D117B0BDE8F083C7EB2B
:104BA000C701224800EB0119D9F80400012800D000
:104BB000F2E71F4850F8270045681D4850F82700C5
:104BC0000468286F00B9E7E7E86B042802D0E86BB7
:104BD00000B1E1E70420E863B8F1000F07DD2968C0
:104BE000606E0E186068B04208DA666806E02968F0
:104BF000606E0E1AA068B04200DDA6680021C9F8F8
:104C0000441000200A900B960C90A06E0D90E06E60
:104C10000E9028220DA96846FBF719FF38460AA90D
:104C20000EC906F0B5FE00BFB6E70000A0380524A7
:104C3000289406242DE9F04198B006460C46C6EBB0
:104C4000C601434800EB0118D8F80400012802D03F
:104C500018B0BDE8F0813F4850F8260045683D484F
:104C600050F826000768286F00B9F1E7E86B0428C0
:104C700002D0E86B00B1EBE75CB9686F012865D141
:104C800035A03949096888470321304606F056FFA8
:104C90005CE0386840B30420E86301200B90002CEE
:104CA00001DD800701E04FF040400C9000200D90A6
:104CB000B86E0E90201E01DA414200E00146F86E07
:104CC000C00941430F9129A0274B0C9A0F991B68EB
:104CD000984728220EA96846FBF7B9FE30460BA973
:104CE0000EC906F055FE31E0686E01282ED1042071
:104CF000E86300200B90002C05DD164850F82600D4
:104D00000068406804E0134850F826000068806896
:104D10000C9000200D90B86E0E90201E01DA4142DA
:104D200000E00146F86EC00941430F910FA00E4B01
:104D30000C9A0F991B68984728220EA96846FBF722
:104D400086FE30460BA90EC906F022FE00BF7FE7A3
:104D5000A0380524289406240D0A4B6E6F62207338
:104D6000746F702E00000000300200240D0A4B6E9C
:104D70006F62206D6F76652C2056656C203D202576
:104D8000642C20506F73203D2025640030B502F460
:104D90008053FBB903684D000324AC40A343036078
:104DA000C3684D000324AC40A343C36002F0010379
:104DB00033B1C3684D000124AC402343C36036E0E7
:104DC00002F002039BB3C3684D000224AC402343AE
:104DD000C3602CE002F4007313B101238B4002E0A6
:104DE0004FF480338B40836102F4807323B14368B6
:104DF00001248C402343436083684D000324AC406E
:104E0000A343836002F480632BB183684D000324C5
:104E1000AC402343836003684D000224AC40A343AD
:104E2000036003684D000124AC402343036030BDA0
:104E300070B5024601240AB9002070BD108883B203
:104E4000911D40F24545581BAB426ED06EDCB3F568
:104E5000197F6CD041DCB3F5047F69D01CDC142BC6
:104E600067D00CDC052B70D004DC012B6ED0022B3C
:104E70006DD123E1112B6BD0122BF9D117E1502BFF
:104E800067D004DC152B74D0402BF1D101E1602BED
:104E900070D0812BECD110E1B3F50A7F6BD011DC1F
:104EA000B3F5057F68D006DCA3F21120002875D089
:104EB0000228DDD1FEE0A3F2232000286FD00328D2
:104EC000D6D1EBE0A3F22920002869D0372868D09A
:104ED000382867D03A28CBD1E1E040F21445581B7E
:104EE000AB4279D026DC40F20945A3EB0500AB428A
:104EF00073D011DC40F27225A3EB0500AB426DD0FC
:104F000005DCA3F2692098B30728B1D1CAE00128D3
:104F100073D00228ACD1FFE001286FD007286ED0F3
:104F200008286DD00A28A3D11CE123E125E0B7E0D1
:104F3000D2E0B9E027287DD011DC10287BD009DC35
:104F4000022879D0032893D1CCE0A3E0A0E09DE033
:104F5000ACE09CE0152870D0262889D108E12C28E7
:104F60006CD02D286BD02F286AD0302885D1BDE099
:104F700097E09AE08FE08FE09DE0952871D040DCCB
:104F800027286FD01DDC12286DD011DC0B286BD0C8
:104F900009DC012869D003288BD1CEE09DE099E09F
:104FA0007BE0F9E0B6E00C286FD00E2888D1BAE09B
:104FB0001F3808286AD2DFE800F0CF8ED0F5F5F56B
:104FC0009E7B74286FD00FDC4B287DD007DC2B280C
:104FD0007BD02C2899D1A4E083E0BBE09BE04C2857
:104FE00074D04D2891D16EE08F2870D090286FD06A
:104FF00092286ED0932888D17EE08EE06EE0A7E004
:105000006DE0AC287ED01EDCA1287CD00ADCA0F1AB
:1050100096000A28CED2DFE800F072C5C5C5C5B932
:1050200073C5BB74A22879D0A4286ED0A52865D0FA
:10503000AB2806E05BE056E096E051E096E053E0F6
:1050400053E080D1A6E040F20116851BB04270D03B
:1050500011DCBC285DD009DCAE282DD0BB2885D161
:1050600056E091E025E045E086E041E0FE2826D0CC
:10507000FF2891D124E0012D51D0A5F2BA450DB3FE
:10508000032D1ED0062D87D160E032E08AE000BFFC
:1050900000BF00BF00BF00BF00BF00BF00BF00BF18
:1050A00000BF00BF00BF00BF00BF00BF00BF00BF08
:1050B00000BF00BF00BF00BF00BF00BF00BF00BFF8
:1050C00000BF00BF00BF6EE049E029E048E057E0C4
:1050D00013E053E000BF00BF00BF00BF00BF00BF30
:1050E00000BF00BF00BF00BF00BF00BF00BF00BFC8
:1050F00000BF00BF00BF00BF00BF00BF00BF00BFB8
:1051000000BF03E003E049E008E03BE000BF00BF70
:1051100000BF00BF00BF00BF00BF00BF00BF00BF97
:1051200000BF94783FE0107900F0800010B108884B
:1051300001E035E09078044635E0107900F0800019
:1051400008B1088800E0907804462CE04C882AE0FA
:105150000C8828E00C8826E000BF0C8823E000BF04
:105160000C8820E00C881EE00C881CE00C881AE0FB
:105170000C8818E00C8816E00C8814E00C8812E00B
:105180000C8810E00C880EE00C880CE00C880AE01B
:105190000C8808E00C8806E00C8804E00C8802E02B
:1051A0000C8800E000BF00BF204646E670B505460B
:1051B000062600240CE0094800EBC400416828469C
:1051C000FBF7EEFB18B1054850F8346002E0641CB0
:1051D000062CF0DB00BF304670BD00003C330108F8
:1051E00010B503460020022A08D0032A04D0042A5E
:1051F00003D0052A0CD102E000BF00BF00BF012987
:1052000001D1012B02D011B95C1C04B9104600E099
:1052100000BF00BF10BD000007B5B0B032980068F5
:105220002D9032980068801D2C903098F0B1309805
:1052300000682F9030980068008880B22B903098DA
:105240000068801D2E903098006840791B9030983F
:105250000068007900F07F001A902D991B98087162
:105260002D991A9848710120279019E03198B8B10A
:1052700000202F902E903198008980B22B90319889
:1052800041782D980171319801782D984171002055
:105290001B90319800781A9031984068401C2790F4
:1052A00000212D98C17000202090329841601A98FA
:1052B000112841F0AC812B98B0F51C7F79D02EDC01
:1052C000602877D015DC142801F0B28009DC0128B1
:1052D00064D002286FD005286ED0122841F0958145
:1052E0006DE1152801F07181402866D05028F5D174
:1052F0004BE040F22922811A90427CD008DCA0F2D7
:105300002320002878D0032877D00528E6D1F5E0BF
:105310003A2973D03B2972D04029DFD1F5E340F21E
:105320004352811A90426BD017DC40F26642A0EBE8
:105330000201904265D008DCA0F25340002870D0F2
:1053400011286FD01228C9D1F9E32A296BD02B2953
:105350006AD05329C2D101F065B840F2C342881A1D
:10536000914277D008DC012975D0A1F2BD41002916
:1053700072D00329B2D1FDE30A286ED00B2800F0C9
:10538000C2870D28AAD101F047B82E980088FE499F
:105390004861FEA0FEF71CFE01F037B901212D98EF
:1053A000018000212D9881702D98C17001202090DE
:1053B000F2E7FDE377E015E150E000201F900AE0FE
:1053C0001F992E98425CF848006800F50B70425413
:1053D0001F98401C1F901F980428F1DB99213098DA
:1053E0000068017130984068099030980168089110
:1053F000EE48099A06E099E0C0E0A7E0FEE3FEE38C
:105400000EE14EE2FDF7A6FE3098006806210990F5
:10541000FEF714FFE6A1E8A0FEF7DAFD00201F90DA
:1054200011E0B8E23CE23EE23CE2DF48006800F511
:105430000B701F99405C01460990E4A0FEF7C8FD7F
:105440001F98401C1F901F980428EEDBE0A0FEF779
:10545000BFFDA1E7F0E35BE1E4E3EEE306212D9875
:10546000018054212D9881702D98007940F08001A1
:105470002D9801715422D8492C98FBF7A3FAD748EC
:1054800001682C980160C048808881B22C98A0F8EF
:10549000521001212C98A0F84E10012020900220DB
:1054A000B949886178E761212D9801802F9880782B
:1054B0002690269820B1012803D0022812D101E0BD
:1054C00000BF00BFC649269851F8200080680F90A1
:1054D0000F980068012801D1012100E002212D98D8
:1054E000C17003E002212D98C17000BF00BF269853
:1054F000C1B22D988170012020904DE72F988078BF
:10550000A9490968C1F83C02A748006890F83C1214
:10551000B448006861F30300B249086008460068B7
:10552000014609900320FFF7C3F935E74FF40C71EA
:105530002D9801809C48006890F83C122D9881704D
:1055400000212D98C1700120209025E740F22721ED
:105550002D98018004212D98817000212D98C17013
:105560002D98007940F080012D9801710020FFF7FF
:1055700025F92C990860012020900DE72F9880785C
:10558000401E269040212698C0EBC0027E484C3039
:1055900000EB0210C1601921309800680171309849
:1055A00041680991016808918048099AFDF7D2FD88
:1055B0003098006806210990FEF740FEECE60020D6
:1055C0001F900BE000211F98C0EBC0026E484C30CA
:1055D00000EB021001651F98401C1F901F980328C4
:1055E000F0DBD9E60021684881617F48664908639D
:1055F0007E48886400201F900BE000211F98C0EBBC
:10560000C00261484C3000EB021001651F98401C3D
:105610001F901F980328F0DB75A0FEF7D9FCBBE6AE
:105620002E98008860490968C1F818022E984188B0
:105630005D480068C0F81C122E9881885A4800689E
:10564000C0F820122E98C18857480068C0F824126C
:1056500055480068D0F81C026BA302466CA1099063
:105660006DA0FEF7B5FC1B98012832D0192848D14F
:105670004548406902282BD140F2455130980068D6
:1056800001808121309800680171112130980068F3
:105690004171309840680990309801683A48089103
:1056A000806C0790099AFDF755FD3748006B364925
:1056B000C96B884201D1022000E004200990309893
:1056C000006808900999FEF7B9FD5BA0FEF780FC21
:1056D00017E099213098006801713098406809906E
:1056E0003098016808913148099AFDF733FD3098E8
:1056F000006806210990FEF7A1FD57A0FEF768FC9F
:1057000000BF00BF5E494FF0FF3006F09FFA43E64E
:1057100040F245512D9801801C212D9881702D98C3
:10572000007940F080012D9801711F480068B0F8A1
:10573000180281B22C9801801B480068B0F81C0246
:1057400081B22C98418018480068B0F8200281B2DC
:105750002C98818014480068B0F8240281B22C98FB
:10576000C18000201F9009E000222C9808301F996A
:1057700000EB410002801F98401C1F901F980A28D0
:10578000F2DB094800687DE0543805240D0A4B69B6
:105790006E65736973207365727665722072756EBB
:1057A0006E696E672E0D0A001C340108E0010024AA
:1057B0001B5B33366D00000025730D0A49502061D4
:1057C000646472657373203D2000000025642E0020
:1057D0000D0A1B5B33306D0074330108044105244E
:1057E000D84B00206C02002430330108C001002493
:1057F0000D0A53657276657220646973636F6E6E0D
:1058000065637465640D0A001B5B33306D00000036
:105810001B5B33316D00000025730D0A4C4344209F
:105820006272696768746E6573732073657420743F
:105830006F202564257300000D0A4D657373616741
:105840006520666F7277617264656420746F20737F
:1058500065727665720000000D0A4D6573736167AD
:105860006520666F7277617264656420746F20646E
:105870006973706C617920626F617264000000006E
:1058800021200928D0F81C02AFF284030246AFF2AF
:1058900080010990FEA0FEF79BFB012020907BE594
:1058A00000BF00BF00BF2B98B0F5926F02D140F24D
:1058B000914000E02B9801B22D980180FC480079BE
:1058C000C0EBC0004006010E2D98817000212D987C
:1058D000C1702D98007940F080012D980171002051
:1058E000269052E0F349269851F8200080680F90E6
:1058F0000F980068012845D1EF49269851F82000FB
:1059000040680E90ED4890ED000A0F9890ED3B1A1C
:10591000F1EEC10A20EE200AD0ED550AF5EEC00ADC
:10592000F1EE10FADFEDE60A9FEDE61A70FE810A4D
:1059300020EE200A8DED130A269801464FF0010053
:1059400000FA01F081B22C9801800E9801688068FD
:1059500001442C98C0F802100E98808981B22C98CE
:10596000C18013980DF08AFB00F30F0081B22C98D0
:105970000181269807F082FD2C99C1F80A002C9825
:105980000E302C902698401C269026980328A9DBE0
:105990000120209000E50021C548C0F8A0112F98F3
:1059A000007900F08000002878D126906FE02F98D1
:1059B000807826990A4601219140084090B3BE495B
:1059C000269851F8200040680E90269851F8200043
:1059D00000680D902698C0EBC001B5484C3000EB34
:1059E00001100C900D98806C15900E98006F00B906
:1059F00052E00E98C06B012803D00E98C06B00B126
:105A00004AE001210E98C1630020AF490860159853
:105A10004860084641680E980068814203DA0D9894
:105A2000406B01E030E00020A74988600D98C06815
:105A3000C8600D988169A4480161C0680090A248BF
:105A400000690990A0484068089002462699491CC0
:105A50009EA0099BFEF7BCFA28229B490C316846A0
:105A6000FAF7F5FF98480EC8269805F091FF012136
:105A70000C9841648E48D0F8A001012226998A40F2
:105A800010438B49C1F8A0012698401C26908848F5
:105A90004068269988428AD890E0FFE72F9881785D
:105AA0000620B1FBF0F0199000201F907EE03098A6
:105AB00001681F9800EB4000062202EB40000844FA
:105AC0002E902E980088401E26902E98D0F8020026
:105AD0001590774841682698814264D9764926987E
