:020000040800F2
:10000000F8FF0020D9020008E1020008E30200081E
:10001000E5020008E7020008E9020008000000000D
:10002000000000000000000000000000EB020008DB
:10003000ED02000800000000EF020008F1020008D5
:10004000F3020008F3020008F3020008F3020008BC
:10005000F3020008F3020008F3020008F3020008AC
:10006000F3020008F3020008F3020008F30200089C
:10007000F3020008F3020008F3020008F30200088C
:10008000F3020008F3020008F3020008F30200087C
:10009000F3020008F3020008F3020008F30200086C
:1000A000F3020008F3020008F3020008F30200085C
:1000B000F3020008F3020008F3020008F30200084C
:1000C000F3020008F3020008F3020008F30200083C
:1000D000F3020008F3020008F3020008F30200082C
:1000E000F3020008F3020008F30200080000000019
:1000F0000000000000000000000000000000000000
:100100000000000000000000F3020008F3020008F5
:10011000F3020008F3020008F3020008F3020008EB
:10012000F3020008F3020008F3020008F3020008DB
:10013000F302000835290008F3020008F302000862
:10014000F3020008F3020008F3020008F3020008BB
:1001500000F002F800F0B0F80AA090E8000C824429
:100160008344AAF10107DA4501D100F0A5F8AFF206
:10017000090EBAE80F0013F0010F18BFFB1A43F085
:100180000103184738BA000058BA00000A444FF07B
:10019000000C10F8013B13F0070408BF10F8014BE6
:1001A0001D1108BF10F8015B641E05D010F8016B2B
:1001B000641E01F8016BF9D113F0080F1EBF10F88F
:1001C000014BAD1C0C1B09D16D1E58BF01F801CBB2
:1001D000FAD505E014F8016B01F8016B6D1EF9D535
:1001E0009142D6D37047000000230024002500264A
:1001F000103A28BF78C1FBD8520728BF30C148BF8A
:100200000B6070476E2900F0AF83702900F00F85F6
:1002100066290BF0058265290BF0028267290BF035
:10022000FF8161290BF0FE8103681B0A28BF41F0A2
:100230008001692900F0F080642900F0ED807529C3
:1002400000F0EA806F2900F09C84782900F0DB84BC
:10025000E92900F03784E42900F03484F52900F01E
:100260003184EF2900F09984F82900F0DA840368DA
:10027000DB0928BF41F08001632900F0B8837329AE
:1002800000F0BD83E32901F02B81F32901F03081D7
:10029000002070471FB501F037FB0400002000214B
:1002A0000BF0A8F9401C6060002000210BF08CF9D5
:1002B000E0601FBD10B510BD01F0F8FA1146FFF760
:1002C000E9FF07F017FB01F0D5FB03B4FFF7F2FFDE
:1002D00003BC01F0DDFB00000948804709480047E6
:1002E000FEE7FEE7FEE7FEE7FEE7FEE7FEE7FEE7E6
:1002F000FEE7FEE704480549054A064B7047000043
:10030000D547000851010008F8F30020F8FF00204D
:10031000F8FB0020F8FB00207CB51D4616460C00BB
:10032000009001D02044401E074B7B442A4669467A
:100330000190304600F031FB05461CB100206946B3
:1003400000F03EFB28467CBD9D0600000FB41CB5A6
:10035000084B06AA7B4469460090059800F01DFBF7
:1003600004460020694600F02BFB20461CBC5DF8CB
:1003700014FB00006906000070B50446856900683A
:10038000C10601D5302600E02026C00707D070BD89
:10039000D4E9012130469047206A401C20626D1E3E
:1003A000F6D570BD70B5044685690078C00707D1E1
:1003B00070BDD4E9012120209047206A401C2062B2
:1003C0006D1EF6D570BD70B50C460546012A05D0E8
:1003D0002878800600D5EA69002302E0012305E0C1
:1003E0005B1C934202D2E05C0028F9D1A869E618B0
:1003F000C01AA861286A184428622846FFF7BCFF83
:1004000004E0D5E9012114F8010B9047B442F8D378
:100410002846FFF7C7FF70BD2DE9F04106460024CE
:1004200010687529314616A510D000F032FA002860
:1004300002DA404213A507E031688A0701D512A508
:1004400002E0490704D511A5012401E000F02AFAD1
:1004500000210A2206F1240709E0B0FBF2FCB0FB00
:10046000F2F302FB1C00303078541846491C002877
:10047000F3D123462A463046BDE8F04100F01BBACE
:10048000000000002D0000002B00000020000000F4
:100490002DE9F05F894604464FF0000ADFF874B199
:1004A000FB44C0F820A02046E1688847002874D0AB
:1004B000252806D0D4E901219047206A401C2062FB
:1004C000F1E700265F462046E16888472028054678
:1004D00007DB312D05D2781910F8200C08B106433E
:1004E000F1E7B00701D526F00406C4F81CA00027E8
:1004F000C4F818A02A2D09D0284604F03CFD38B3D2
:1005000004EB8708303DC8F8185019E059F8041B6F
:10051000204604EB87029161E1688847012F054678
:1005200018D1E069002820DA26F020061DE0D8F86E
:10053000180000EB800005EB40003038C8F81800C8
:100540002046E1688847054604F015FD0028EED1F5
:10055000012F0AD02E2D08D12046E16888477F1C44
:100560000546022F46F02006C4DBA069002803DA06
:10057000404246F00106A061F00701D026F01006C7
:100580006C2D0BD0682D09D04C2D39D06A2D35D06B
:10059000742D35D07A2D33D016E038E0E1682F463F
:1005A00020468847B842054609D16C2F26D04FF423
:1005B0008060E168064320468847054604E06C2FCA
:1005C0001AD04FF4807006430DB3A5F141001928ED
:1005D00002D8203546F400664A4629462046266061
:1005E0004E46FFF70FFE80B101280BD0F61D26F016
:1005F000070000F1080956E74020E4E78020D8E72B
:100600000020D6E706F104094DE7284652E7206AA4
:10061000BDE8F09FFCB500000FB400B58DB010A987
:10062000099000910B904FF0FF300A9000200C9041
:10063000064878440690064878446A4607900F9921
:1006400009A800F005FB0DB05DF814FB3B060000A7
:10065000530600002DE9FF5F4FF00008994614464D
:1006600046469169D2E901A7DDF838B0019888477C
:10067000054659EA0B0005D009E0A1690198761CEE
:1006800088470546216A284688470028F5D1681C16
:1006900003D05FEACA7005D015E04FF0FF3004B018
:1006A000BDE8F09F2068011D2160D0F800800AE0BD
:1006B0005FEACA7001D108F8015BA169761C019854
:1006C0007F1E88470546002F1ADD681C18D0B9F137
:1006D000000F0DD0E81705EBD060421120F01F008D
:1006E00059F822102A1A012090400142E0D107E077
:1006F000BBF1000FDCD12846216A88470028D7D0FB
:10070000E16901988847BBF1000F07D1002E05DD94
:100710005FEACA7002D1002188F80010A068B842D0
:1007200003DDBBF1000F03D017B16FF00100B6E796
:100730003046B4E7032A40F2308010F0030C00F09A
:10074000158011F8013BBCF1020F624498BF11F80B
:1007500001CB00F8013B38BF11F8013BA2F10402C4
:1007600098BF00F801CB38BF00F8013B11F003033C
:1007700000F09E82083AC0F0088051F8043B083A25
:1007800051F804CBA0E80810F5E7121D5CBF51F842
:10079000043B40F8043BAFF30080D20724BF11F8BC
:1007A000013B11F801CB48BF11F8012B24BF00F821
:1007B000013B00F801CB48BF00F8012B70474FF018
:1007C000000200B5134694469646203922BFA0E8A1
:1007D0000C50A0E80C50B1F12001BFF4F7AF0907AD
:1007E00028BFA0E80C5048BF0CC05DF804EB89009E
:1007F00028BF40F8042B08BF704748BF20F8022BE1
:1008000011F0804F18BF00F8012B70474FF0013CEA
:1008100050F8042B51F8043B9A4221D1A2EB0C036F
:10082000934313EACC1317D150F8042B51F8043B2F
:100830009A4215D1A2EB0C03934313EACC130BD1CC
:1008400050F8042B51F8043B9A4209D1A2EB0C0357
:10085000934313EACC13DBD04FF00000704700BF86
:10086000D01A01BAB1FA81F101F0180122FA01F0AF
:10087000CB40C1F12001DBB2C0B2C01A2CFA01F3A7
:10088000D11A914311EAC311E6D1704770477047FE
:10089000704709684A0501D540B27047C905FCD5C3
:1008A00000B2704709684A0501D5C0B27047C90552
:1008B000FCD580B270472DE9F0470D469946924627
:1008C000044600F124080168880604D5E06921F097
:1008D0001001216000E00120A84201DD471B00E07B
:1008E0000027A1697A1902EB0900081AA061207893
:1008F000C00602D42046FFF73FFD002608E0D4E9F9
:1009000001211AF806009047206A401C761C2062DC
:100910004E45F4DB2078C0060AD52046FFF72CFDB3
:1009200006E0D4E9012130209047206A401C206273
:10093000381EA7F10107F4DC07E0D4E9012118F81B
:1009400005009047206A401C2062281EA5F1010581
:10095000F3DC2046FFF726FD2078000602D50220B2
:10096000BDE8F0870120FBE711680268006A5305C3
:1009700001D508700AE0D30501D5088006E013060A
:1009800003D5C217C1E9000200E0086001207047EA
:1009900001694A1C02610878704700B58FB0CDE943
:1009A00001310021059105497944CDE90310114633
:1009B0006846FFF76DFD0FB000BD0000E5FFFFFFCB
:1009C0000A6802F8010B0A607047D1E900239A42D5
:1009D00002D2531C0B601070704710B5436913B1FD
:1009E000AFF3008001E0FFF7EEFC012010BD1278AC
:1009F00000F124010A7000224A700122EDE711681B
:100A00004FF0FF32E9E700002DE9FF5F15468A4607
:100A10000446DFF8AC80F8440027D8E900103E46D1
:100A2000CDE9001010E03AF816106A4602A800F06E
:100A30001DFF411C07D02178890603D5E2693918CA
:100A400091420DD80744761C2078800602D5E069D3
:100A5000B84205DDAE42E6DB3AF816000028E2D1E6
:100A6000A069C01BA0612046FFF786FCD8E90010F2
:100A7000CDE90010002017E03AF818106A4602A8E5
:100A800000F0F4FEB0F1FF3F81460BD000250DF1E0
:100A9000080B05E0D4E901211BF8050090476D1C07
:100AA0004D45F7D308F10100B0428046E4DB206AEF
:100AB000384420622046FFF775FCBDE8FF9F000028
:100AC0009AB000002DE9F0418046D21D22F00702C5
:100AD0000025D2E90002F52915A614D0011E72F1F5
:100AE000000106DA0023D0EB030063EB020211A63B
:100AF00008E0D8F800108B0701D50FA602E04907DF
:100B000001D50EA601251146002408F1240704E0B2
:100B100000F000F930323A55641C50EA0102F7D176
:100B20002B46324621464046BDE8F041FFF7C3BEA2
:100B3000000000002D0000002B000000200000003D
:100B400030B4002100F1240408E002F00705D208C7
:100B5000303542EA4372DB086554491C52EA03050A
:100B6000F3D10468002310A2250707D5A40600D4FA
:100B700021B1C46901230DA2641EC46130BCFFF71A
:100B80009ABE10B5044621461068FFF78BFE024658
:100B90002046BDE810400023D2E7D21D22F0070115
:100BA000D1E90023CCE70000000000003000000085
:100BB000F0B40D460188090502D5214C7C4402E0C1
:100BC0001F4C7C440E34002100F1240608E002F0A2
:100BD0000F071209E75D42EA03721B097754491CAB
:100BE00052EA0307F3D102780023120704D5702DCF
:100BF00006D009B1022311342246F0BCFFF75BBED8
:100C000001231034F8E770B504460D4621461068FC
:100C1000FFF748FE024629462046BDE87040002303
:100C2000C6E7D21D22F00703D3E90023C0E703681B
:100C3000126843F0200303600823C3610023B7E771
:100C4000FCAE00000268114413780160184670473A
:100C5000D160054979445161044979441162002108
:100C60001161114600F048BCEDFFFFFF410100009B
:100C7000426842B1016811F8013B23B1521EC0E93C
:100C80000012184670470121C160881E70474268F3
:100C90005AB1C368016843B983688B4205D0491EC5
:100CA000521CC0E90012002070474FF0FF3070471F
:100CB00010B5203AC0F00B80B1E81850203AA0E8F7
:100CC0001850B1E81850A0E81850BFF4F5AF5FEA2B
:100CD000027C24BFB1E81850A0E8185044BF18C9DE
:100CE00018C0BDE810405FEA827C24BF51F8043B85
:100CF00040F8043B08BF7047D20728BF31F8023BD9
:100D000048BF11F8012B28BF20F8023B48BF00F86C
:100D1000012B704730B5B0F10A024FEA900E71F125
:100D200000034EEA817EB0EB0E0061EB91014FEAC9
:100D3000101E4EEA017E10EB0E0041EB11114FEA3E
:100D4000102E4EEA016E10EB0E0041EB11214FEA1E
:100D5000104E4EEA014E10EB0E0041EB11414018CF
:100D600041F100014FEAD00040EA41704FEAD10161
:100D700010EB80054FEA810444EA907444EB0104CF
:100D80006D1944EB0404521BA3414FF0000348BF0C
:100D90000A3200D530BD401C41F1000130BD10B514
:100DA000044600F0A9FD0068005D00F0010010BDE0
:100DB00070472DE9FF4F0C461E464FF0FF378BB0B2
:100DC000D2E90001DDF860800A908A46C1F30A5535
:100DD00005B93D46002108464FF00000BAF1000F6A
:100DE00000F4400005DA00EB80004FF4400101EA16
:100DF00050004FEA9059B9F1010F00DDB9460A9849
:100E000050EA4A000ED044F61050A5F2FF35454393
:100E10002F14B8F1000F1ED07542291E1EDDC9F136
:100E200000021CE0B8F1010F4FF0000001D03021AA
:100E300003E0F24305E02154401CB042FBDB3046A6
:100E40000022002121540B99C1F80880C1E900203B
:100E50000FB0BDE8F08FBD1B6D1CDEE74A4600DA1F
:100E6000694206A800F094FD06AB93E8070003ABC7
:100E700083E8070050460A9900F011FE8DE807004C
:100E8000A0F500501F3800900398002D0ADD42F2B3
:100E90001F014A460844002303A90390684601F055
:100EA0007AF809E0A0F500504A461F38002303A94C
:100EB0000390684601F084F88DE807000004000CF8
:100EC00003D04FF0FF30410800E01046B8F1000FAA
:100ED00003D00022009215461EE0751E05D4FFF7D0
:100EE00019FF303262556D1EF9D5B3460122084311
:100EF00002D000227F1C04E02078302801D100229B
:100F00007F1E002A099784D01DE0112D07DAFFF714
:100F100001FF303262556D1C50EA0102F5D10843E1
:100F200002D00098C8B10EE00021681E05E0235CE5
:100F3000625C63542254401E491C8142F7DBAB467D
:100F4000A81B401E0990002004F80B000B98099A7A
:100F5000C0F80880C0E9002B7AE711264FF000089E
:100F600057E72DE9F04F88460446D21D22F00701CD
:100F700091B0D1E90001CDE90A0103F0E8FF024692
:100F80000B98C00F01D02D2007E02068810701D504
:100F90002B2002E0202101EAC000032A099001D0A1
:100FA000072A05DB03464146204600F0B1FC0BE171
:100FB0002078800601D5E06900E00620B8F1650FD1
:100FC000814606D0B8F1660F18D0B8F1670F70D11E
:100FD00031E00020B9F1110F009001DB112301E095
:100FE00009F101030AAA01A90CA8FFF7E2FEDDE955
:100FF0000C70002609F10105834647E001204B46AD
:1010000000904FF000470AAA01A90CA8FFF7D1FEF3
:10101000DDE90DB00C995D46002610B909F101001B
:101020000D18B9EB050003D4C0F1FF3609F1010535
:10103000A5EB09002BE0B9F1010F01DA4FF001092E
:101040000020B9F1110F0090484601DD112300E0A6
:1010500003460AAA01A90CA8FFF7ABFEDDE90C7054
:101060004D4600268346207800070AD4AB4500DAB7
:101070005D4601A8012D04DD411911F8011C30293C
:1010800007D04F4502DA17F1040F04DA0120824637
:101090000FE06D1EEEE7002F02DCED1B3E4403E087
:1010A000781CA84200DD7D1CB81B00F1010A4FF03E
:1010B00000472078000703D4AA4501DB4FF0FF3A30
:1010C0000021B7F1004F0DF143088DF8431024D0F3
:1010D00002202B23002F01DA7F422D230A21021E3A
:1010E000A0F1010000DC5FB197FBF1FC97FBF1F28E
:1010F00001FB1C7C17460CF1300C08F801CDEEE723
:10110000A8F1010003702188090501D5452100E0FF
:101110006521A0F1010800F8011C09980FA9A1EBB5
:101120000807FF1D00B10120411901EBEA70A16918
:101130003844081A401EA0612078C00602D4204618
:10114000FFF71AF9099828B1D4E901219047206ADC
:10115000401C20622078C00622D52046FFF70CF9FB
:101160001EE0002E04DBB34502DD01A8805D00E037
:101170003020D4E901219047206A401C2062761C6F
:10118000AAF101005FEA000A0AD100F0BDFBC068C5
:101190000168405CD4E901219047206A401C20622C
:1011A000281EA5F10105DCDC07E0D4E9012118F8CF
:1011B000010B9047206A401C2062381EA7F10107EE
:1011C000F3DC2046FFF7EEF8032011B041E6000003
:1011D0002DE9F04F04460D46D21D22F0070089B0DC
:1011E000D0E900974846394603F0B1FE0246F80FB1
:1011F00001D02D2307E02068810701D52B2302E0D1
:10120000202101EAC0038DF820300BB1012000E05D
:101210000020032A824601D0072A04DB2946204603
:1012200000F076FB3FE12078800601D40D2500E038
:10123000E569C7F30A560D2D49DA00214FEA175B1D
:1012400008464FF00000002F00F4400007DA00EBE2
:1012500080004FF4400100EBD07001EA600081157E
:10126000012901DD4FF0FF3100224FEA850CBCF16E
:10127000180F06D31346ACF118004FF08052C2404D
:1012800003E04FF4801323FA0CF30CF10C0CBCF1C7
:10129000200F04D3ACF1200C09FA0CF001E007FA9E
:1012A0000CF000294FF0004801DD18B90FE00ED115
:1012B00040450CD319EB02095F4121B9404502D1E9
:1012C0009F4329EA0209BBEB175F00D0761C2088F8
:1012D000000502D57B48784402E07A487844193802
:1012E00008AA302302F80A30037C0AF10101002E1B
:1012F0000AF1020A53546A4602DC4FF0300101E061
:101300004FF031014FF001088DF8001002D0A6F225
:10131000FF3603E059EA470100D06B4E002D02DC96
:101320002178090704D54FF002082E218DF801100D
:10133000C44600210BE0C7F303433F01C35C491CD3
:101340006D1E02F80830052908F1010801DA002DA8
:10135000F1DC00210CE000EB1973491C1B786D1EB9
:10136000082902F808304FEA091908F1010801DAE2
:10137000002DF0DC21688B0602D516E0A8F10108EB
:10138000E04505DD02EB080313F8013C302BF5D0F6
:10139000B8F1000F09DD02EB080313F8013C2E2B16
:1013A00003D1090701D4A8F10108002D05DD3E2174
:1013B00002F808106D1E08F10108407C002E02F8AA
:1013C000080008F1010804DA2D20764202F808002E
:1013D00002E02B2002F808000A214FF47A708642BE
:1013E00008F101080BDB96FBF0F3303302F808300C
:1013F00096FBF0F308F1010800FB136601E0642E90
:101400000CDB642096FBF0F3303302F8083096FBD7
:10141000F0F308F1010800FB136601E00A2E06DB79
:1014200096FBF1F0303002F8080008F1010896FB55
:10143000F1F001FB1060303002F80800A16908F1FA
:10144000010808EB050202EB0A00081AA0612078E7
:10145000C00602D42046FEF78FFF216A08AE01EBDA
:101460000A00206204E0D4E9012116F8010B90473C
:10147000BAF1010AF7D22078C00602D52046FEF75D
:101480007BFF6E4609E016F8010B3E280FD0D4E929
:1014900001219047206A401C2062B8F10108F2D275
:1014A0002046FEF77FFF09B00320BDE8F08F206AD9
:1014B0002844206203E0D4E90121302090476D1ECA
:1014C000EBD3F8E71DA8000002FCFFFF10B543694D
:1014D00013B1AFF3008001E0FFF796FA012010BDD1
:1014E000128800F1240182840022C2840122EDE7E7
:1014F00011684FF0FF32E9E72DE9F34F4FF0000A92
:101500000C4656468DB001200C9001F10C000B905A
:1015100062690B9801219047051E2DD0252D2CD0F6
:10152000216A8847C0B162690B9801219047216AFE
:1015300088470028F7D16269411E0B98904700E068
:10154000761CA1690D988847216A88470028F7D141
:10155000E1690D988847DBE7A1690D988847A842A3
:10156000074601D1761CD3E7E1690D9888477F1CB7
:1015700002D1BAF1000F6FD06CE162690B980027BD
:101580003D46394690472A2804D162690B980121CB
:1015900090470125DFF8D08262690B9801219047BE
:1015A000A0F130010A290AD24745E5DC07EB8701A3
:1015B00000EB4107303FDFD445F01005ECE7E906CA
:1015C00001D46FF000476C280AD04C2814D068284A
:1015D00015D06A280DD074281CD07A281AD01DE0A6
:1015E00062690B98012190476C2802D045F00405F0
:1015F00014E045F002050DE045F020050AE06269BF
:101600000B9801219047682802D045F0080505E0B5
:1016100045F4006562690B9801219047C4E90157C0
:1016200065283DD019DC58287AD00CDC452837D005
:1016300004DC252826D041289ED131E046282FD031
:10164000472899D12CE05B2877D0612828D06328DF
:101650007CD0642823D15AE0F7E06F2848D008DC1A
:1016600066281DD067281BD0692821D06E2816D186
:1016700027E0702845D0732868D0752847D078288F
:101680000DD14DE0A1690D988847252805463FF406
:1016900069AFE1690D9888476D1C3FF46AAFD9E0E6
:1016A0000D9923466A466FF00100AFF30080C6E053
:1016B00045F0400023464FF000026060A80736D492
:1016C0003EE0E8077FF447AF2068011D2160006815
:1016D000290501D506701BE7290701D5068017E704
:1016E000A90703D5F117C0E9006111E706600FE70C
:1016F00045F0400023464FF008026060A80716D46A
:101700001EE040F60E0125EA0100606016E045F09B
:10171000400023464FF00A026060A80707D40FE09C
:1017200045F040006060A80708D5234610220D99B7
:101730006FF00100AFF3008081E007E01022234644
:101740000D996FF00100AFF3008078E04FF00009D1
:1017500063284F46C8464B46CB4602D05B2807D08D
:1017600039E02079C00601D40120A060012732E0D1
:101770006269D4F80CB00B98012190475E2807D11C
:101780004FF0010949466269D4F80CB00B989047B4
:10179000216939B900210A4603AB43F82120491CCD
:1017A0000829FADBD8B3216949B308F10108626955
:1017B0000B98012190475D28F4D1B9F1000F09D0B1
:1017C000002003A951F82020D24341F82020401CDA
:1017D0000828F7DB03AB2069002820794FEA407026
:1017E0001ED05B462246CDF80080CDE901970D99C9
:1017F00000286FF0010020DAAFF300801FE0C1176E
:1018000003AA00EBD1614B1121F01F0102EB83020F
:10181000411A13680120884003431360C7E719E0A9
:101820000D99224600286FF00100009702DAAFF30D
:10183000008004E0FEF70EFF01E0AFF30080002817
:101840000ADA401C06D10C9820B14FF0FF300FB0DF
:10185000BDE8F08F5046FAE7E90701D10AF1010A25
:10186000064400200C9053E6CCCCCC0C70B5164648
:101870000C46054600F040F8036893F80101012882
:1018800006D0FF2C0FD8185D68B101202C7070BDF8
:10189000D3F807013246214603F2071303442846D2
:1018A000BDE8704018474FF0FF3070BD754600F03E
:1018B000EBF8AE4605006946534620F00700854622
:1018C00018B020B5FEF716FDBDE820404FF0000629
:1018D0004FF000074FF000084FF0000B21F0070118
:1018E000AC46ACE8C009ACE8C009ACE8C009ACE85B
:1018F000C0098D467047000010B500F005F8001DC6
:1019000010BD00BFF19C000000487047B8F30020F4
:101910002DE9F0411F46044603260168072A01F419
:10192000006004DB08B116A505E016A503E008B1C8
:1019300015A500E015A521F010002060A069C01ECB
:10194000A0610FB1401EA0612046FEF715FD4FB10A
:10195000D4E9012138469047206A401C2062C01C0F
:10196000206206E0206AFAE7D4E9012115F8010BAC
:101970009047761EF8D22046FEF714FDBDE8F081B0
:101980004E414E006E616E00494E4600696E660023
:101990002DE9F047814616468AB0354878440DC88F
:1019A0008DE80D0032487844801C03AC0DC884E8F3
:1019B0000D0041F69B300844372190FBF1F290FB7B
:1019C000F1F5A5F1800501FB12041B3C02D5644230
:1019D000012000E00020DFF898A080460027FA44AC
:1019E000AAF1BE0A0EE0E0070AD03246684607EBCD
:1019F000470101230AEB810100F0E2FA8DE80700BC
:101A000064107F1C002CEED1194F7F44AE3F19E0CB
:101A1000E80715D007EB04100DF1180A90E80E0046
:101A20008AE80E00C068F04201D198190890324649
:101A3000012306A903A800F0C3FA03AB83E807005B
:101A40006D10641C002DE3D14FF00103324669464E
:101A5000B8F1000F03A802D000F09DFA01E000F0F9
:101A6000AFFAC9E90001C9F808200AB0BDE8F0875B
:101A7000E8A1000010B50446AFF300802046BDE8A1
:101A80001040FEF722BC00000048704798F3002089
:101A900001491820ABBEFEE72600020070475FEA4E
:101AA000400C08BF91F0000F4FEA8C234FEAC1228F
:101AB00043EA51514FEA1C5018BF00F5F0404FEA7D
:101AC000300018BF41F000415FEA6C5C00F02980F3
:101AD000BCF1FF3F08BF40F080407047130C06BFC9
:101AE00012044FF0100C4FF0000C130E04BF120242
:101AF0000CF1080C130F04BF12010CF1040C930F2E
:101B000004BF92000CF1020CD30F04BF52000CF181
:101B1000010C11464FF00002A0F11F00A0EB0C00D9
:101B2000704711F0004F08BF704731F000413FF49B
:101B3000D5AF0B0C06BF09044FF0100C4FF0000C92
:101B40000B0E04BF09020CF1080C0B0F04BF0901B6
:101B50000CF1040C8B0F04BF89000CF1020CCB0FAD
:101B600004BF49000CF1010CCCF12003A0EB0C00E8
:101B700022FA03F302FA0CF241EA030100F1010038
:101B8000704720F07F4C80EA030023F07F47ACEBE6
:101B9000070303F57C5300F0004003F1FF032DE938
:101BA00080494FEA154B09B44FEA144325EA0B4E1E
:101BB00024EA03480FF2042606EB132749083E786F
:101BC0005FEA320203FB0667C7F5000707FB06F66C
:101BD0004FEA54374FEAD64606F1020607FB066C79
:101BE000CCF1005C4FEA1C472CEA074C07FB06F4DB
:101BF0000CFB06F504EB15464FEA961634BF0020A1
:101C00004FF000404FEAD13706FB07FC4FEA1C4C6F
:101C10000CFB0BF7D21B03FB0CF761EB07010CFB72
:101C20000EF7B0EB074072EB17420CFB08F734BF1E
:101C3000A2EB0742B2EB074261EB17414FEA0C44BB
:101C40004FEA910706FB07FC4FEA1C4C0CFB0BF715
:101C5000B0EBC74072EB573203FB0CF734BFA2EB7B
:101C6000C742B2EBC74261EB57310CFB0EF7B0EB4A
:101C7000C70072EB57720CFB08F734BFA2EBC70228
:101C8000B2EBC70261EB5771039F4FEA816141EAF2
:101C9000921104EBCC044FEAD1374FEA826206FB83
:101CA00007FC42EA90124FEA80604FEA1C4C0CFBA2
:101CB0000BF7D21B03FB0CF761EB07010CFB0EF7D4
:101CC000B0EB074072EB17420CFB08F734BFA2EBF6
:101CD0000742B2EB074261EB17414FEA8C554FEADE
:101CE000910704EB9C2406FB07FC4FEA1C4C0CFB01
:101CF0000BF7B0EBC74072EB573203FB0CF734BF66
:101D0000A2EBC742B2EBC74261EB57310CFB0EF7B7
:101D1000B0EBC70072EB57720CFB08F734BFA2EBB5
:101D2000C702B2EBC70261EB577115EB4C254FEAC6
:101D3000816141EA92114FEA82624FEAD13742EA69
:101D4000901206FB07FC44F100044FEA80604FEA62
:101D50001C4C0CFB0BF7D21B03FB0CF761EB0701D0
:101D60000CFB0EF7B0EB074072EB17420CFB08F7C9
:101D700034BFA2EB0742B2EB074261EB174115EB10
:101D80001C154FEA813141EA92414FEA823242EA20
:101D900090424FEA80304FEA0C7644F1000448EA62
:101DA00003434EEA0B484FF0000EB2EB080C71EB08
:101DB000030724BF624639464EEB0E0E4FF0000B70
:101DC0000018524149414BEB0B0BB2EB080C71EB85
:101DD00003077BF1000B24BF624639464EEB0E0E23
:101DE0004FF0000B0018524149414BEB0B0BB2EB8B
:101DF000080C71EB03077BF1000B24BF62463946E8
:101E00004EEB0E0E51EA020718BF46F0010616EB24
:101E10000E7655F1000254F1000103D5BDE88901A9
:101E2000BDE80088BDE88901BDE80048B619524107
:101E300041EB0101A3F10103704780807F7E7D7C2F
:101E40007B7A7978777676757473727171706F6E4C
:101E50006E6D6C6C6B6A6A696868676666656464F7
:101E6000636362616160605F5F5E5E5D5D5C5C5B81
:101E70005B5A5A59595858575756565555555454F0
:101E8000535352525251515050504F4F4F4E4E4D4E
:101E90004D4D4C4C4C4B4B4B4A4A4A49494948489A
:101EA00048474747474646464545454444444443DA
:101EB00043434342424242414141002B9C4630D47D
:101EC00077002BD01CB54FEA370703B44FF0100052
:101ED0004FF01001BAF1000F06D0BCF1000FDCBFCB
:101EE00040F0080040F008014FF000000FBCBDE8D2
:101EF00010400BF1010BBBF1010F08BF5FEA1707A0
:101F000022BF12F1010211F101014FF0004143F132
:101F1000000300F0004043EA00007047F9D357087F
:101F2000D0E746EA064613F1400F4FEA16461FDD9A
:101F300013F1200FDFBF16430A46002120335B4216
:101F4000BED0C3F1200746EA064602FA07F74FEA79
:101F5000164646EA0706C3F1200722FA03F201FA01
:101F600007F721FA03F14FF0000342EA0702A7E75F
:101F700046EA020646EA06464FEA164646EA0106E1
:101F8000BCBF46EA0646360C4FF000034FF0000295
:101F90004FF0000194E72DE9804C9A46934670B4C7
:101FA00091E8380007C831EA400C48BF34EA430CD6
:101FB00003D5FFF7E6FDFFF780FFF0BCBDE8008C1E
:101FC0002DE9804C9A46934670B491E8380007C8D2
:101FD00010F0804F08BF13F0804F03D100F005F8D8
:101FE000FFF76BFFF0BCBDE8008C20F07F4780EA74
:101FF000030023F07F4C07EB0C03A3F57C5300F0A8
:102000000040A3F1FE0392F0000F00F0B38095F0C2
:10201000000F00F077802DE901494FEA11404FEAA7
:10202000144621EA004800FB06FC24EA064708FBA8
:1020300006F607FB08F800FB07F718EB06484CEB21
:10204000164C4FEA124B18EB07484FEA15464CEB7B
:10205000174022EA0B4E0BFB06FC25EA06470EFB57
:1020600006F607FB0EFE0BFB07F71EEB064E4CEBCE
:10207000164C4FF000061EEB074E4CEB174B18EBBF
:102080000B0840F1000018EB0E0B58EB000840F174
:1020900000008F1A4FF000013CBFC943661B14BFFC
:1020A000B5EB040C00213CBFC943F61B4FEA1744B3
:1020B0004EEA8E0E27EA04454FEA1C4704FB0762EE
:1020C0002CEA074C05FB07F70CFB05F604FB0CFCA0
:1020D00016EB074642EB174216EB0C4642EB1C424E
:1020E0001BEB060658EB0202414146EA9E0601D56B
:1020F000BDE80189B619524141EB0101A3F1010389
:10210000BDE801894FEA14454FEA114724EA054624
:1021100021EA074C05FB07F406FB07F70CFB06F169
:1021200005FB0CFC11EB074144EB17444FEA124747
:1021300011EB0C4144EB1C4422EA074C05FB07F26F
:1021400006FB07F70CFB06F605FB0CFC16EB074637
:1021500042EB174216EB0C4642EB1C456A1854F151
:10216000000148BF7047B619524141EB0101A3F18C
:102170000103704795F0000F37D04FEA11424FEA44
:10218000144721EA024624EA074C02FB07F106FB4A
:1021900007F70CFB06F402FB0CFC14EB074441EBC5
:1021A00017414FEA154714EB0C4441EB1C4125EA5B
:1021B000074C02FB07F506FB07F70CFB06F602FBD4
:1021C0000CFC16EB074645EB174516EB0C4645EBAA
:1021D0001C42121951F1000148BF7047B619524113
:1021E00041EB0101A3F1010370474FEA14454FEAA7
:1021F000114724EA054621EA074C05FB07F106FBD7
:1022000007F70CFB06F24FF0000605FB0CFC12EB87
:10221000074241EB174112EB0C4251EB1C4148BF06
:102220007047921841EB0101A3F10103704778B5A3
:1022300004460B46002B04DB072B02DC20469900EA
:1022400009E0082B06DB0F2B04DC201DA3F1080599
:10225000A90000E078BD0568009503258D40009E2B
:10226000AE43009608258D40009EAE43009604259F
:102270008D40009E35430095009D056002F4805519
:102280002DBB066803258D40AE43066002F00105B4
:1022900015B902F002057DB1056804268E40B543EC
:1022A0000560066808258D402E430660E568012616
:1022B0009E403543E56035E0066808258D40AE4315
:1022C0000660056804268E40354305602AE002F466
:1022D000807555B1066804258D402E43066006685A
:1022E00008258D402E43066009E0056804268E40CF
:1022F000B5430560066808258D402E4306600668D4
:1023000002258D402E43066002F480652DB10568DC
:1023100001268E403543056004E0066801258D40A6
:10232000AE43066000BF95E7074909680143064AC6
:1023300011600649896941F00101044A916102492D
:102340000968034A516070470400002000100240F1
:102350000000014030B5D0E902456319C468144457
:10236000C46003E011F8014B03F8014B141EA2F105
:102370000102F7D130BD00000FB4F8B506460D4696
:1023800009A80090BDF82000052873D0242802D0A9
:10239000402831D131E0112D2ED1009810C8009085
:1023A000242046490968087000204449096848709B
:1023B00042490968C870E8B240F080003F490968A6
:1023C00008713E4909684E713C490968881D2246DA
:1023D0003BA1FDF7BBFF401C3849096888703748AE
:1023E000006880783549486008464068821D084684
:1023F00001683448FFF7AEFF59E040202F490968D3
:10240000087000202D490968487014202B4909687C
:102410008870002029490968C870E8B240F080003F
:10242000264909680871254909684E7123480068E2
:10243000841D25480089A08023488088E0802348A7
:10244000007B20702148407B60702048807BA0701A
:102450001E48C07BE07019480068807817494860C2
:1024600008464068821D084601681648FFF772FF5B
:102470001DE0FFE7052011490968088000200F4989
:10248000096888700D490968C8700C4909680D71A0
:102490000A4909684E7106200849486008464068A4
:1024A000821D084601680748FFF754FF00BF00BFC0
:1024B00000200090F8BC5DF814FB00005C010020D7
:1024C0002573000074010020B00100209801002055
:1024D00070B500210D460E469A200D490870B022B5
:1024E00001210B4804F0B0FAB0220621094804F09B
:1024F00011FA002407E0310241EA15660548005D43
:1025000040EA0525641C062CF5DB2846314670BDE3
:10251000200100202201002010B500E000BF02F0E1
:10252000CBFB0028FAD000F08FF810BD0FB438B5FF
:1025300005A800900F48006840F2FF31884213D28E
:102540000C4A1268C2F58062511E0B4A1268094B90
:102550001B68D018009B049AFDF7DEFE0446054870
:10256000006820440349086000200090204638BCE1
:102570005DF814FB44000020400000202DE9F041EC
:1025800005460E4600272D48006808B92C4805600E
:102590003DE0082C04D00A2C1DD00D2C20D119E0D0
:1025A00026480068A8B1082126A0FFF7BFFF202118
:1025B00024A0FFF7BBFF082122A0FFF7B7FF1F48A9
:1025C0000068401E1D4908601D480068401E1C49E7
:1025D00008601BE000BF012700201849086015E0D3
:1025E00016480068B04210D2214616A0FFF79EFFA1
:1025F000134909680C7012480068401C10490860B3
:102600000E480068401C0D49086000BF00BF02F082
:10261000EBFB0446B0F5807FBBD16FB100200849C9
:102620000968087006480068401C054908600846AB
:102630000068401BBDE8F0810020FBE74800002057
:102640004C0000202563000010B50D480068B0B1B3
:1026500002F032FB98B10A4801680A48006802F0AB
:10266000E5FB084800680849884202D101F580600E
:1026700000E005480349086000200149086010BDDA
:102680004400002040000020EC04002010B94FF46A
:10269000802100E00421014A1160704710140140BC
:1026A0002DE9F04107460C46394613A0FFF73EFFDF
:1026B000207900F0800030B1A078E1784FF480728A
:1026C00002FB010000E00020861D002504E0615DA2
:1026D0000BA0FFF72BFF6D1CB54201DA062DF6DBD0
:1026E000062E03DDB11F08A0FFF720FF09A0FFF7AA
:1026F0001DFFBDE8F08100000D0A257300000000F9
:1027000025303258200000002B2025642062797487
:10271000657300001B5B33306D00000010B502468E
:1027200002F0AAF8044600E000BF02F0A5F8001B82
:102730009042F9D310BD0000014948617047000084
:102740000090024029B1064AD2690243044BDA6183
:1027500004E0034AD2698243014BDA61704700000A
:102760000090024030B10749896941F00201054AF1
:10277000916105E00349896921F00201014A9161F3
:10278000704700000090024030B50C46134600210F
:10279000104D286000BF18E000EB01124FF000451B
:1027A000156044F2F0555560C1EB411505EB8115FC
:1027B00004EB051595605D1E8D4204D900EB0115F3
:1027C0001035D56000E0D060491C9942E4D3024D39
:1027D000E86030BDE40000200090024021B1426872
:1027E00022F00042426003E0426842F00042426050
:1027F0007047000030B10749896941F40051054A2A
:10280000916105E00349896921F40051014A916110
:10281000704700000090024030B50C46134600217E
:102820000F4D286000BF15E000EB01124FF480153A
:102830001560C1EB411505EB811504EB051595609D
:102840005D1E8D4204D900EB01151035D56000E006
:10285000D060491C9942E7D3024D286130BD000089
:10286000E00000200090024002680A4302607047C6
:102870000548806A40F48040034988620846806ABF
:1028800020F48040886270470010024001B581B09A
:10289000002000900198009002E00098401E0090F7
:1028A00000980028F9D10CBD0348806940F48010DD
:1028B00001498861704700000090024001480068AB
:1028C00080687047E000002001460868C0F30D40B2
:1028D0007047000000B500220F480068006800F053
:1028E0000040B0B90C480068008800F4004080B98E
:1028F00009480068008800F4807050B106480068FC
:10290000008800F4007020B103480068FFF7DCFF86
:102910000246104600BD0000E400002000200449EB
:10292000096801F0010109B1012000E000207047B1
:102930000090024010B501E000F032FFFFF7CAFF3F
:102940000028F9D14020FFF7F7FE4FF48030FFF761
:10295000F3FE10BD2DE9FC4104460F464FF0000880
:102960000025002001908B4E00908B48006848BBEA
:102970008A48056925F01C05894E8A48864205D398
:102980008948864202D245F0080509E08648864219
:1029900005D38048864202D245F00C0500E000BF16
:1029A0007E4805614FF400420021384600F06AFA83
:1029B00010B90020BDE8FC817C48FFF767FF0120CB
:1029C00075490860206800284CD000BF0098401C62
:1029D00000900121384600F031F900F0040010B9F0
:1029E00000980A28F2D300980A2801D10020E1E7D4
:1029F000002000904FF480520021384600F042FA47
:102A000008B90020D6E700BF0098401C00900121C3
:102A1000384600F013F900F0200018B96449009816
:102A20008842F1D362490098884201D10020C1E771
:102A3000002000901021384600F000F9804608F090
:102A4000040018B14FF40060206201E00020206211
:102A500008F0020010B10020606116E04FF48040E1
:102A6000606112E0206AC0F3CF006169C1F34F01D9
:102A700040EA01020021384600F004FA08B90020BB
:102A800098E76FF07F40FFF701FF44480568494829
:102A90000540D4E901010843E1680843216908437E
:102AA00061690843A1690843E1690843216A084351
:102AB000616A0843A16A0843E16A0843216B08433D
:102AC000616B0843054335480560D4E90E010843AE
:102AD000216C0843616C0843A16C0843E16C084316
:102AE000216D0843616D08432C494860A06D8860E2
:102AF000E06DC860084685694FF641700540B4F83E
:102B00006010606E40EA0140A16E0843E16E084328
:102B1000216F0843616F0843054320488561D4E96C
:102B20001E0108431D49C8612348856923480540A3
:102B3000D4E920010843D4F888100843D4F88C1055
:102B40000843D4F890100843D4F894100843D4F8FC
:102B500098100843D4F89C100843D4F8A0100843F8
:102B6000054315488561D4E929010843D4F8AC1020
:102B70000843D4F8B0100843D4F8B41040EA8100F8
:102B8000D4F8B810084340F400000B490860012055
:102B900010E7000000879303F0000020008002404F
:102BA00000A24A04002D3101C00E1602FFFF0F00E3
:102BB000FFFF04000F8120FF00900240233FDEF85A
:102BC00010B50B794C7943EA0422094B03441A648B
:102BD000CB781B068C7843EA04434C7843EA042301
:102BE0000C7843EA0402024B03445A6410BD00000F
:102BF0000080024030B10749096841F00401054AEC
:102C0000116005E00349096821F00401014A1160DF
:102C1000704700000080024030B10749096841F068
:102C20000801054A116005E00349096821F008011F
:102C3000014A1160704700000080024018B502464A
:102C40000B460021002000901548016901F01C018D
:102C50004FF4784000EAC22001434FF4F86000EAE4
:102C60008310014321F0020141F001010C48016190
:102C700000BF0098401C00900948016901F0010064
:102C800018B1084C0098A042F3D3064C0098A0421B
:102C900001D1002018BD0248406980B2FAE7000067
:102CA00000800240FFFF04001EB5002100220092B8
:102CB00001920292214A1268126802F0004282B127
:102CC000002200921E4A526902F0800222B1802244
:102CD0001B4B5A6100229A609DE81C0080E81C0092
:102CE0001EBD164A1268128802F40042B2B9134A95
:102CF0001268128802F4807282B1104A1268128837
:102D000002F4007252B10D4A12681268C2F30D4209
:102D1000111F0A4A12689268019200E00021009196
:102D2000064A12680292054A1268D268034B1A607A
:102D30009DE81C0080E81C0000BFD1E7E4000020F3
:102D4000009002400348006840F00100014908601B
:102D5000704700000090024000B50120FFF75CFFC3
:102D6000FFF7A2FD0120FFF745FF0120FFF742FD1D
:102D70000120FFF7F7FC00BD002101604160816088
:102D8000C160016141618161C16101624162816231
:102D9000C162016341638163C163402101642021F9
:102DA000416400218164C164016541658165C1653B
:102DB00001668021416600218166C1660167416725
:102DC0008167C1674FF08061C0F880104910C0F87A
:102DD00084104910C0F88810C910C0F88C10002168
:102DE000C0F89010C0F89410C0F89810C0F89C106B
:102DF000C0F8A0104FF00071C0F8A4100021C0F876
:102E0000A8104FF40031C0F8AC104912C0F8B0104F
:102E10000021C0F8B410C0F8B81070470146174838
:102E20000068006800F0004008B100207047C1F35E
:102E30000C00124A1268506010480068006840F0A8
:102E400040500E4A126810600C480068006840F05C
:102E500000400A4A126810600948406900F0040006
:102E600020B10420064A50610020506003480068E9
:102E7000C068024A10600120D8E70000E00000208E
:102E80000090024038B503460C4600210020009017
:102E90001448016901F01C014FF4784000EAC32096
:102EA00001434FF4F86000EA8410014341F002014D
:102EB00041F001010B484261016100BF0098401CD4
:102EC00000900848016901F0010018B1064D009812
:102ED000A842F3D3044D0098A84201D1002038BD88
:102EE0000120FCE700800240FFFF040038B501200C
:102EF00000F0E0F84FF4805208214748FFF797F9B7
:102F00000020009003E000BF0098401C009043495F
:102F100000988842F7D3002000F0CCF84048406881
:102F200040F400003E4948603E48406940F4E030CB
:102F30003C4948610846806940F01D0088610022D4
:102F40000121354800F002F94FF4A0520221324825
:102F5000FFF76DF9002207212F4800F0F7F84FF432
:102F6000A05201213048FFF762F9002204212E48C7
:102F700000F0ECF8002205212B4800F0E7F84FF4B0
:102F8000A0520B212948FFF752F94FF4A0520C210F
:102F90002648FFF74CF94FF4A0520D212348FFF7C4
:102FA00046F93D20002807DB00F01F020121914077
:102FB0001F4A430942F8231000BF3D200321002887
:102FC00004DB0A07130E1B4A135406E00A07140E0B
:102FD000194A00F00F031B1FD45400BF3D200028E6
:102FE0000DDB00BF00BF00F01F020121914042092C
:102FF000920002F1E022C2F8001100BF00BF00BF42
:10300000FFF736FCFFF79EFE00E000BFFFF786FCEF
:103010000128FAD038BD0000000801404019010025
:10302000000001400010024000100140000C01406F
:1030300080E200E000E400E018ED00E010B5B0B080
:1030400001A8FFF799FE01200190002008904FF49D
:1030500000700B9000200C900F901290149015901F
:1030600016904FF480600A90002021904FF000707D
:10307000229000112490002026902790042029906F
:10308000C0052A9040122B9080012C9040122D9068
:1030900040002F90012101A8FFF75CFC0446012CA1
:1030A00003D101210248FFF74DFB204630B010BD8F
:1030B00040000100012803D1C107044A116103E067
:1030C0004FF40041014A11617047000000100140B7
:1030D00010B588B06C460A4802680068401C084B6E
:1030E00008A118606846FDF731F904E014F8011BE7
:1030F000062001F0B5FE20780028F7D108B010BDF9
:10310000000000200D0A48656C6C6F2066726F6DC0
:1031100020585231364C37383820256400000000E2
:103120000446214603A0FFF701FA01E0FFF78CFAFD
:10313000FCE700000D0A45786974207769746820FF
:103140006572726F723A20257300000078B50446EC
:103150000B46002B04DB072B02DC2046990009E01C
:10316000082B06DB0F2B04DC201DA3F10805A900AA
:1031700000E078BD0568009503258D40009EAE43B4
:10318000009608258D40009EAE43009604258D4094
:10319000009E35430095009D056002F480552DBBCF
:1031A000056803268E40B543056002F0010515B998
:1031B00002F002057DB1056804268E40B543056026
:1031C000056808268E4035430560E66801259D4068
:1031D0002E43E66043E0066808258D40AE43066056
:1031E000066804258D402E43066038E002F4007521
:1031F0002DB1E66801259D402E43E66004E0E668B7
:1032000001259D40AE43E660066802258D402E43B1
:10321000066002F480652DB1066801258D402E43BD
:10322000066004E0066801258D40AE43066002F4A6
:10323000807555B1066804258D40AE43066005686B
:1032400008268E403543056009E0056804268E4057
:10325000B5430560056808268E40B543056000BF8C
:1032600087E700002DE9FC5F0646894617466EB1E8
:1032700030680190306800881FFA80FA306800F1E9
:1032800006083068007900F07F0B0DE0B9F1000FFF
:103290000AD0002001908046B9F804001FFA80FA95
:1032A00099F8000000F07F0B3C683868851D00200D
:1032B000E0700120207184F805B000200090786053
:1032C000BAF1060F4BD006DCBAF1010F0AD0BAF101
:1032D000050F6BD111E0BAF1140F5AD0BAF1240FD7
:1032E00064D151E039A0FFF721F9012020800020AE
:1032F000A070E0700120009059E037A0FFF716F9A8
:10330000062020805420A070207940F08000207199
:1033100036480068286036A3072237A1281DFDF72C
:1033200015F81020A8814FF00110C5F80E0034A345
:103330002F2231A105F11200FDF708F82FA3092271
:103340002DA105F14200FDF701F8012025F84E0FEF
:10335000002068800120A8804E3D009027E0D8F82A
:10336000000022490860084601682EA0FFF7DEF839
:103370001E4800683749B0FBF1F201FB12003649E4
:1033800008441A49086012E0414634A0FFF7CEF81D
:103390000DE0D8F80000EE2806D10120134948605E
:1033A00030A0FFF7C3F800BF00BF00E000BF00BFC0
:1033B000009840B1207900F0800010B1A078801D05
:1033C00000E0062078600098BDE8FC9F0D0A506977
:1033D0006E672E2E2E0D0A000D0A48617264776109
:1033E000726520696E666F0D0A000000980100206A
:1033F0004554483030310000252D2A73000000006C
:10340000424D433130582045746865726E657420B2
:10341000496E74657266616365204D6F64756C6595
:10342000000000000D0A485720696E666F20726523
:103430006365697665642066726F6D206D61696E83
:1034400020626F6172642C20532F4E203D20257521
:103450000D0A000040420F00C0B060060D0A25733F
:10346000000000000D0A4465627567206C696E6B90
:103470002E2E2E0070B598B005460020159016909F
:103480001790012615AA25A12846FDF7C5F80024A6
:103490000DE0234800EB0410416815A8FDF7B6F9CC
:1034A00020B91F4800EB0410066802E0641C012CE0
:1034B000EFDD00BF00BF1BA0FFF738F8002423E0BA
:1034C000174800EB04108068007840B9144800EBFE
:1034D000041017A1426801A8FCF738FF0BE0104860
:1034E00000EB041083680E4800EB041011A1426841
:1034F00001A8FCF72BFF0A4800EB041001A9C268E1
:103500000EA0FFF713F8641C012CD9DB0EA0FFF707
:103510000DF800BF00BF18B070BD00002539730062
:1035200028B600080D0A4D656E753A0A00000000C5
:1035300025733A0025732025733A00000D0A252DC6
:1035400031307309257300000D0A3E0000B516489E
:10355000806940F00400144988618A1408211348E6
:10356000FEF765FE1048806940F008000E4988614A
:103570000846806940F0100088618A140F210C48C9
:10358000FFF7E4FD0848806940F0200006498861A3
:103590004FF4905202210748FFF7D8FD4FF000701A
:1035A000FEF7C2FE00BD000000100240000801400E
:1035B00000100140001401400448006A18B103489B
:1035C000006A007870474FF0FF30FBE70C7700206F
:1035D00001484068704700000C77002001480068EF
:1035E00070470000080100203EB5044626480068E8
:1035F000201AFA2847D32448046024484068244904
:10360000096888421AD021484068214908601F484B
:1036100090F82E0000F0080060B101201D490860FC
:103620001D48006810B1032008602CE002201949F1
:10363000086028E004201749086024E01448006866
:1036400008BB0520134908601048006A4078042828
:1036500019D9062008600D4802F06AFB0F4803F0F4
:10366000C7F802906FF0FF0003F0C2F801900B481A
:10367000C01F03F0BDF800906B4601AA02A90348E1
:1036800004F096FC00BF3EBD0C0100200C7700202A
:103690001001002008010020040100200800A8C03B
:1036A00070B588B004460D4619A103C9CDE90301E0
:1036B000052606E003A98C55200A40EA05642D0A78
:1036C000761E002EF6DA04F063FA04F0E5FB012022
:1036D00011490860002007900690059003A801F0AA
:1036E00063F80E480E49002205ABCDE90021029097
:1036F00006AA07A90B4804F01FFC0A4804F06CFC5A
:10370000084802F0AFFA074804F0C0FC08B070BDEA
:10371000000300000001000004010020C96400084B
:10372000356500080C77002001B519490098096833
:10373000401AFA2804D316490098086007F04EFC96
:10374000144900980968401A41F28831884204D32C
:1037500010490098086002F067FE0F490098096858
:10376000401AB0F5FA7F04D30B490098086001F0C5
:1037700075FE0A4900980968401A4EF66021884291
:1037800004D306490098086001F0B4FC08BD0000AD
:10379000F4000020F8000020FC00002000010020C0
:1037A00010B5024802F0ECFE10BD00000C770020BE
:1037B0000B480C49086000208860486008730021AD
:1037C000084841738173C173024611615161481EFB
:1037D000054948608860C86008600020086170473B
:1037E000C1B0600698010020B001002010B54FF470
:1037F000805200213C48FFF7A9FC4FF4905203216E
:103800003948FFF7A3FC4FF4905205213648FFF7E3
:103810009DFC4FF4905206213348FFF797FC00229D
:1038200004213148FFF792FC012200212F48FFF7C5
:103830008DFC012211462D48FFF788FC0022022151
:103840002A48FFF783FC012203212848FFF77EFC6A
:10385000012204212548FFF779FC00220521234895
:10386000FFF774FC012206212048FFF76FFC0122BC
:1038700007211E48FFF76AFC4FF4805200211C48C4
:10388000FFF764FC4FF4805202211948FFF75EFCF9
:103890004FF4805203211648FFF758FC4FF4805232
:1038A00006211348FFF752FC4FF4805207211048BD
:1038B000FFF74CFC4FF4805208210D48FFF746FCFF
:1038C0004FF4805209210A48FFF740FC4FF4805220
:1038D0000C210748FFF73AFC03490120103108602A
:1038E0008005086010BD000000080140000C014088
:1038F000001001400B4A4FF0883111600A4951F81D
:1039000020000A4908610A494FF40010086000BF0E
:1039100000BF00BF0348083000682022C0B20A6020
:1039200070470000000C0140A0B6000800100140E4
:10393000100801400C4A52F820000C4A10610C4853
:103940004FF400220260CA43D2B241EA0241094A5E
:103950001160084A4FF03331103A116000BF00BFC8
:1039600000BF082101607047A0B6000800100140A8
:1039700010080140100C01402DE9F0414FF0000803
:10398000002500F0FBFC9F4801689F4800F0BEF94D
:103990000746781C18B99DA0FFF7C2FB46E09A487D
:1039A000C068012842D19848806818281BD1A34AD2
:1039B00000219548FFF756FC8046B8F1010F32D13F
:1039C0009E48426801689E48FEF7C4FC9B484068D8
:1039D0009C49096808449B490860984801689AA076
:1039E000FEF75EFE1FE0002414E087480068005DDB
:1039F00097490968087096480068401C9449086017
:103A0000084601689348814203D1A0F51670904999
:103A10000860641C7C484068A042E6D87A48016887
:103A20008DA0FEF73DFE02207749C86075498448A5
:103A300000F0B4F93D2000280BDB00F01F0201214B
:103A40009140874A430942F82310BFF34F8FBFF3D9
:103A50006F8F00BF8349844800F058F907463D2026
:103A600000280DDB00BF00BF00F01F0201219140C4
:103A70004209920002F1E022C2F8001100BF00BF2B
:103A800000BF781C18B979A0FFF74AFB46E07648DA
:103A9000C068012842D174488068182829D17E4A1C
:103AA00000217148FFF7DEFB8046B8F1010F32D1EB
:103AB000002414E078480068005D654909680870D2
:103AC00063480068401C6249086008460168614814
:103AD000814203D1A0F516705D490860641C6E48F0
:103AE0004068A042E6DC6C4801686CA0FEF7D8FD97
:103AF00011E05D48426801685148FEF72BFC5A48C6
:103B000040685049096808444E49086056480168B1
:103B100064A0FEF7C5FD02205349C8603949886892
:103B2000804708B347480068002803DD454800681F
:103B30005E4908605E48D0F8C00BA8B15B480068D9
:103B400090B15B49D1F8C00B5849096800F0A8FF53
:103B500058A3564859A102685AA0FEF7E7FC002076
:103B6000384908605149086000F002FF0646002508
:103B700000F0CAFED0B3002E38DD354800685A493F
:103B80000968884212D93248006857490968451ABD
:103B9000B54200DD354629465348006800F098FFDD
:103BA000514800682844504908601FE028480068D0
:103BB0004D490968884219D226484B490968451A77
:103BC000B54200DD354629464748006800F080FFD1
:103BD00045480068284444490860084601681D4873
:103BE000814203D1A0F516703F490860002D07DD22
:103BF00030A32A463DA13FA0FEF798FC00F0CAFE84
:103C0000BDE8F08194B600082C010020496E766171
:103C10006C696420415054206D6573736167652041
:103C2000666F726D61742066726F6D206D6F74685F
:103C30006572626F6172642E000000005C010020FA
:103C400074010020140000204D2D3E453A20000054
:103C50000C0000201C0400204D2D3E533A20000093
:103C600080E100E0A549000844010020496E76612A
:103C70006C696420415054206D65737361676520E1
:103C8000666F726D61742066726F6D204574686531
:103C9000726E65742E00000068010020452D3E53B1
:103CA0003A200000532D3E4D3A200000180000201D
:103CB000407700201B5B33306D0000001B5B33340A
:103CC0006D00000025730D0A544350206E6F746917
:103CD00066792025642062797465732068616E645A
:103CE0006C65640D0A257300100000201B5B3332E5
:103CF0006D0000000D0A2573544350205478202590
:103D00006420627974657325730000002DE9F04129
:103D100004460E460027E068022802D00220BDE8D3
:103D2000F08131E06069401C606101272269501C0C
:103D3000206120688554206906281CD120680079FC
:103D400000F07F00A0602068007900F0800038B1AA
:103D5000206880782168C9783A0202FB010000E0FF
:103D60000020801D606041F288316068884202D97D
:103D70004FF0FF30D3E761682069884204D100200A
:103D800020610120E0600327E068012804D0B047EB
:103D90000546B0F5807FC5D13846C0E770B504460A
:103DA0000D46E06880B1A868804768B1D4E9020197
:103DB0006A6890472168A068884201D1606800E085
:103DC0002068A0600020E06070BD000010B54F21A9
:103DD0000948FEF7D3FB044654B104E00022204614
:103DE000641C05490A544F2CF8DD0348FFF742FBD9
:103DF000FEF72AFC10BD00009C040020F0B593B033
:103E0000FFF7ECFB074655480068B8423ED05348E0
:103E10000760072F39D2DFE807F03804080C2C3090
:103E200034004FA0FEF782FB2FE053A0FEF77EFB8D
:103E30002BE0FFF7CDFB0446200EE1B2C4F30743AD
:103E4000C4F30722009054A0FEF770FB200EC4F3C9
:103E50000741E2B2C4F30723CDE900105CA103A837
:103E6000FCF774FA03AB242211211820FEF784FA20
:103E70000BE05EA0FEF75AFB07E061A0FEF756FBE1
:103E800003E067A0FEF752FB00BF00BFFFF794FB03
:103E9000054668480068854241D066480560681C50
:103EA0000F2836D2DFE800F03435080C1014181C47
:103EB0002024282C353530005FA0FEF737FB2DE09D
:103EC00062A0FEF733FB29E066A0FEF72FFB25E09A
:103ED00069A0FEF72BFB21E06CA0FEF727FB1DE09D
:103EE0006EA0FEF723FB19E071A0FEF71FFB15E0A3
:103EF00074A0FEF71BFB11E076A0FEF717FB0DE0A8
:103F000079A0FEF713FB09E07BA0FEF70FFB05E0AD
:103F100004E029467BA0FEF709FB00BF00BF00F0CC
:103F200065FD06467C4909688E4215D07A480660D0
:103F3000012E08D0022E02D0032E0CD107E077A06C
:103F4000FEF7F4FA07E07AA0FEF7F0FA03E07DA0AE
:103F5000FEF7ECFA00BF00BF13B0F0BD3400002044
:103F60000D0A436F6E6669677572696E6720444813
:103F700043502E2E2E0000000D0A436F6E666967B7
:103F800075726564206173204448435020636C69F6
:103F9000656E740D0A0000000D0A436F6E66696756
:103FA00075726564206173204448435020736572C4
:103FB0007665722C204950206164647265737320A9
:103FC0003D2025642E25642E25642E2564000000E6
:103FD00049502061646472657373203D2025642E0E
:103FE00025642E25642E2564000000000D0A5573FB
:103FF000696E67207374617469632049500D0A000B
:104000000D0A4C6F6F6B696E6720666F72204448B3
:104010004350207365727665722E2E2E00000000CC
:104020000D0A444843502074696D656F75740D0A1C
:10403000000000003C0000200D0A4448435020725C
:10404000657175657374696E670000000D0A4448F8
:10405000435020696E697469616C697A6174696F33
:104060006E0000000D0A44484350207265626F6F75
:1040700074696E67000000000D0A444843502072C6
:104080006562696E64696E67000000000D0A44484D
:1040900043502072656E6577696E67000D0A44486B
:1040A00043502073656C656374696E67000000009F
:1040B0000D0A4448435020696E666F726D696E67E1
:1040C000000000000D0A4448435020636865636B9C
:1040D000696E67000D0A44484350207065726D6137
:1040E0006E656E74000000000D0A44484350206263
:1040F0006F756E640D0A00000D0A44484350206F2E
:10410000666600000D0A444843502073746174656C
:10411000203D202564000000380000200D0A544393
:104120005020636F6D6D73206F70656E6564000065
:104130000D0A54435020636F6D6D7320636C6F7371
:10414000656400000D0A54435020636F6D6D732049
:104150006572726F7200000010B5FFF737FEFFF74F
:104160004DFE10BD70B575480068A8B97448006868
:10417000744908600846006873490860714800681F
:10418000724908606F4800687149086000207149F1
:10419000486001206949086014E06B4909680D70A6
:1041A00069480068401C684908600846006865491D
:1041B000096841F288321144884203D1614800689D
:1041C0006149086000F03AFD0546B0F5807FE4D112
:1041D00000F072FD80B35C4800685C490968884261
:1041E00011D95948006859490968441A5748224664
:1041F0002146036858A0FEF799F954480068204406
:104200005249086018E050480068504909688842DF
:1042100012D24C48006841F2883108444B49096881
:10422000441A4A482246214603684DA0FEF77EF90B
:10423000444800684549086000F0D8FB02284FD187
:1042400000F096FB0646002400F05EFB002842D0FA
:10425000002E40DD3C4800683D490968884212D97B
:10426000394800683A490968441AB44200DD3446C6
:1042700021463748006800F02BFC35480068204490
:104280003349086027E030480068314909688842AE
:1042900021D22C48006841F2883108442C49096831
:1042A000441AB44200DD344621462948006800F033
:1042B0000FFC27480068204425490860084600682C
:1042C0002049096841F288321144884203D11D48CF
:1042D00000681F490860002C01DD00F05BFB00BF97
:1042E0000AE00D2D08D01B4842684068401C194B5D
:1042F000586018460068855400F054FB0546B0F538
:10430000807FEED11348406898B112484268016836
:104310001748FEF71FF800200E4948601548D0F8EE
:10432000C00B30B10A465168124AD2F8C00B00F0F7
:10433000B7FB11490E48FFF731FD70BD1C0000208E
:104340006801002020000020240000202800002018
:104350002C0000202C010020252A2E2A73000000AA
:104360001B5B33316D252A2E2A731B5B33306D00A6
:10437000840100204077002094B600082DE9F04128
:10438000FFF72CF907462F484068B84223D02D4844
:104390004760072F1DD2DFE807F01C040509060758
:1043A000080000BF00BF00BF00BF13E0FFF710F917
:1043B000054625490D73290A23484173290C817349
:1043C000280E2149C873402211211820FDF7D4FF7F
:1043D00000E000BF00BFFFF7EFF80446194880680F
:1043E000A04219D0174884600E2C08D2DFE804F0F0
:1043F0000708090A0B0C0D0E0F101107071200BF5A
:1044000000BF00BF00BF00BF00BF00BF00BF00BFB4
:1044100000BF00BF00BF00BF00F0E8FA0646094831
:10442000C068B0420CD00748C660012E05D0022EED
:1044300002D0032E03D101E000BF00BF00BF00BFC8
:10444000BDE8F081B001002098010020002000218B
:10445000D34A126842F48032D14B1A6000BFD04A6E
:10446000126802F40031401C11B9B0F5A06FF6D10A
:10447000CB4A126802F40032002A6ED0C94A126890
:1044800042F01002C74B1A601A46126822F003026B
:104490001A601A46126842F002021A600122102ABB
:1044A0002ED008DC012A11D0022A14D0042A19D0F7
:1044B000082A48D11DE0402A29D0802A2ED0B2F502
:1044C000807F32D0B2F5007F3DD135E0B44A5268EA
:1044D000B34B5A6037E0B24A526842F08002B04BA8
:1044E0005A6030E0AE4A526842F09002AC4B5A60DB
:1044F00029E0AB4A526842F0A002A94B5A6022E080
:10450000A74A526842F0B002A54B5A601BE0A44A89
:10451000526842F0C002A24B5A6014E0A04A5268AE
:1045200042F0D0029E4B5A600DE09D4A526842F024
:10453000E0029B4B5A6006E0994A526842F0F00252
:10454000974B5A6000BF00BF0122042A17D005DC38
:10455000012A08D0022A27D10AE020E1082A15D032
:10456000102A21D119E08E4A52688D4B5A601BE007
:104570008B4A526842F40052894B5A6014E0884AD0
:10458000526842F42052864B5A600DE0844A5268C9
:1045900042F44052824B5A6006E0814A526842F42B
:1045A00060527F4B5A6000BF00BF0222042A16D01F
:1045B00004DC012A07D0022A26D109E0082A15D0F6
:1045C000102A21D119E0764A5268754B5A601BE0D7
:1045D000734A526842F48062714B5A6014E0704A28
:1045E000526842F4A0626E4B5A600DE06C4A526809
:1045F00042F4C0626A4B5A6006E0694A526842F46B
:10460000E062674B5A6000BF00BF654AD26A42F061
:104610004002634BDA6200220D2A47D2DFE802F043
:10462000070E151C232A3146384646463F005C4A91
:10463000D26A42F4C0625A4BDA6237E0584AD26A10
:1046400042F4E062564BDA6230E0554AD26A42F4F4
:104650000062534BDA6229E0514AD26A42F4106296
:104660004F4BDA6222E04E4AD26A42F420624C4B4F
:10467000DA621BE04A4AD26A42F43062484BDA629C
:1046800014E0474AD26A42F44062454BDA620DE0D8
:10469000434AD26A42F46062414BDA6206E0404A21
:1046A000D26A42F470623E4BDA6200BF00BF3C4AFD
:1046B000D26A42F480323A4BDA621A46D26A42F047
:1046C0000402DA620522062A2ED2DFE802F0030A8B
:1046D00011181F26324A526842F40022304B5A60A9
:1046E00022E02F4A526842F440222D4B5A601BE0D0
:1046F0002B4A526842F48012294B5A6014E0284A2F
:10470000526842F4A012264B5A600DE0244A5268C7
:1047100042F4C012224B5A6006E0214A526842F429
:10472000E0121F4B5A6000BF00BF1D4A526842F49E
:1047300080321B4B5A601A46126842F080621A603F
:1047400000E000BF164A126802F00062002AF8D0AA
:10475000134A126842F08072114B1A6000E000BFE9
:104760000F4A126802F00072002AF8D00C4A526810
:1047700022F003020A4B5A601A46526842F00202C3
:104780005A6000E000BF064A526802F00C02082A94
:10479000F8D1034A526842F0C062014B5A60704738
:1047A000001002400020024010B50446207808495D
:1047B000087060784870A0788870E078C8702079B8
:1047C00008716079487121460020FEF7F9F910BDA3
:1047D0005800002010B51648006840F00100144948
:1047E0000860084640681349084011494860084677
:1047F0000068114908400E4908600846006820F426
:10480000802008600846406820F4FE0048600846A2
:10481000006820F0A05008604FF47F0088600020FE
:10482000C862FFF713FE4FF000600449086010BD36
:10483000001002400000FFF0FFFFF6FE08ED00E070
:104840000246501A704700000A48C06940F0010053
:104850000849C8618804008840F001008904088084
:1048600048F69F4008850846808A40F0010088820B
:10487000704700000010024008B54FF08040808C67
:1048800000904FF08040008A00F0010088B14FF0A6
:104890008040808C00900A48006800F10040084980
:1048A00008604FF08040008A20F001004FF0804106
:1048B000088203480068009900EB510008BD000021
:1048C0000800002070B505460C461646002120461B
:1048D00004F030F80849204604F059FB0749204607
:1048E00006F0B8F80649204606F0C2F9022005494C
:1048F0000860002070BD000065490008F949000803
:10490000B14A000814010020014800687047000007
:104910001C01002010B500240F480146C1F8B80B57
:10492000D0F8B80BC1F8BC0B0020C1F8C00BC1F81F
:10493000C40B04F03DFF044649F66F520749204678
:1049400003F0FAFFFF21204604F0C4FE04460449A8
:10495000204603F08FFF10BD4077002080B600088E
:10496000C54800080322014B1A607047140100205B
:104970000648006840B106480068022804D1034890
:104980000068B0F86E0070470020FCE718010020B6
:104990001401002010B50248006804F059FF10BD52
:1049A000180100201049D1F8BC1B0F4AD2F8B82BCF
:1049B000914202D14FF4807015E00B49D1F8BC1B35
:1049C00008780949D1F8BC1B491C074AC2F8BC1B2E
:1049D0001146D1F8BC2B01F6B8318A4203D1024905
:1049E0000A46C2F8BC1B70474077002001480068A7
:1049F00070470000140100202DE9F04782460F4661
:104A000015461E46002D3CD02EB1284603F066FD0B
:104A10003046BDE8F0872C462AE0D4F804904FF0E9
:104A2000000819E019F8010B1B49D1F8B81B0870F0
:104A30001948D0F8B80B401C1749C1F8B80B084604
:104A4000D0F8B81B00F6B830814203D112480146B5
:104A5000C1F8B80B08F1010860894045E2DC0E4856
:104A6000D0F8C40B618908440B49C1F8C40B246811
:104A7000002CD2D10848C0F8C07B284603F02EFD98
:104A800007E036B9012005490860384603F0D0FF39
:104A9000BFE70020BDE700004077002014010020A0
:104AA00070B505460C46A1B2284605F0EAFF70BD78
:104AB00010B503460448006808B9034801600120A6
:104AC000024C2060002010BD180100201C010020B5
:104AD00070B505460C4601260C480068A0B10C488C
:104AE0000068022810D109480068B0F86E00A042A2
:104AF0000ADDA2B2012329460448006806F09CFAA8
:104B00000020044908600026304670BD18010020CE
:104B1000140100201C0100200248008800F0400021
:104B2000704700000038014010B504463E488069D7
:104B300040F005003C4988610846806940F48040A7
:104B400088610846406940F00100486100220A215E
:104B50003648FDF76CFB4FF4805209213348FDF7CE
:104B600066FB40F27120324908800020304908314C
:104B70000880091D08802E48001D008814B14FF4DC
:104B8000A05100E0002108432949091D088008467A
:104B90000088012C01D1491500E000210843244977
:104BA000091D08800846008840F40050088020480D
:104BB0000C30008840F0C0001D490C3108801C48B2
:104BC000001F1C49C864002088640846406C40F0FF
:104BD000900048641648001F08661748486640F66B
:104BE000E830C8650846806D40F0A0008865104830
:104BF0000838008820F040000D49083908800C482A
:104C0000001D008840F00C000949091D0880094872
:104C1000406C40F00100074948640846806D40F050
:104C20000100886510BD000000100240000801402E
:104C30000838014000000240088300200E49C96D79
:104C400040F6E832511A0D4A1268914202D14FF4EF
:104C5000807010E009490A680968491C074B19600F
:104C60000749885C1946096840F6E832914202D14A
:104C700000211A4611607047000002402801002000
:104C8000088300200A4A526C22F00102084B5A6441
:104C90001A4610659164074A128822F04002054BBB
:104CA0001A80034A526C42F00102014B5A64704769
:104CB00000000240003801400248008800F0400037
:104CC000704700000048004010B504464048806925
:104CD00040F011003E4988610846C06940F48020D8
:104CE000C8610846406940F00100486139484068A1
:104CF00040F010003749486000220B213648FDF78C
:104D000096FA4FF480520A213348FDF790FA40F2A8
:104D10003910324908800020304908310880091DC7
:104D200008802E48001D008814B14FF4A05100E007
:104D3000002108432949091D088008460088012CE4
:104D400001D1491500E0002108432449091D0880CC
:104D50000846008840F40050088020480C30008845
:104D600040F0C0001D490C3108801C48001F1C4940
:104D70004862002008620846C06940F09000C8619F
:104D80001648001F88631748C86380204863084698
:104D9000006B40F0A000086310480838008820F03D
:104DA00040000E49083908800C48001D008840F07A
:104DB0000C000A49091D08800948C06940F001003B
:104DC0000749C8610846006B40F00100086310BD48
:104DD000001002400000014000100140084800405F
:104DE000000002401C0400200D49496BC1F1800104
:104DF0000C4A1268914202D14FF480700EE00949CA
:104E00000A680968491C074B19600749885C1946FC
:104E10000968802902D100211A46116070470000FC
:104E200000000240300000201C0400200A4AD26921
:104E300022F00102084BDA611A4690621162074AB9
:104E4000128822F04002054B1A80034AD26942F0D0
:104E50000102014BDA617047000002400048004047
:104E600070B505460E462C0104F10A01C8B2FEF7E2
:104E700041FD3E2802DD4FF4004070BDE0B23146F6
:104E8000FEF758FD0020F8E770B5FEF7AFFC8D2067
:104E9000FEF730FD0446282C01D0482C55D1FF21C7
:104EA0008A20FEF747FD01218E20FEF743FD0021F9
:104EB0000120FEF73FFD07210220FEF73BFD802188
:104EC0000320FEF737FD02210020FEF733FD00210D
:104ED0000120FEF72FFD10210920FEF72BFD0420F5
:104EE000FEF708FD40F0800529460420FEF722FD6C
:104EF00003210846FEF71EFDC0210820FEF71AFD1B
:104F00003C210B20FEF716FD0420FEF7F3FC00F019
:104F1000FB0529460420FEF70DFD0920FEF7EAFCFB
:104F200040F0D00529460920FEF704FD0420FEF7D5
:104F3000E1FC40F0020529460420FEF7FBFC0021BD
:104F40008E20FEF7F7FCE0B270BDFF20FCE74900C1
:104F500050EAC12018BF04204A0D18BF40F00100DC
:104F600040F2FF72B2EB515F08BF40F0020001282F
:104F700008BF0520704730380A2801D20120704749
:104F80000020704770B504460D4600BF14B900BF3D
:104F900000BF70BD00BF206A58B1206A00780828A1
:104FA00007D12868216A096B884202D1204600F0A7
:104FB0006BF900BFEDE700002DE9FC41064600BF9C
:104FC0001EB900BF00BFBDE8FC8100BF346A00BF4E
:104FD00014B900BF00BFF6E700BF206D401C70B1E0
:104FE000206D1E303C21B0FBF1F5B5F5803F01D3BB
:104FF0004FF6FF752585208D08B901202085606D4D
:10500000401C70B1606D1E303C21B0FBF1F5B5F570
:10501000803F01D34FF6FF756585608D08B901208B
:10502000608504F1340008B9002000E0606B019055
:105030000198C0B9019803F03FF8070E7F2F05DCF7
:105040004FF07F4001F0D4FB01900BE0C02F05DB57
:105050006FF0FF0001F0CCFB019003E0164801F077
:10506000C7FB019000BF04F1380008B9002000E040
:10507000A06B0090009848B9206B019908400090FF
:10508000012001F0B5FB00990843009004F13001C4
:10509000304602F0B9FF01A9304602F0F1FF69463F
:1050A000304602F0ABFF304602F0F0FF0A21204606
:1050B00000F0D0FD00BF86E70000FFFF2DE9F041C2
:1050C00005462C6A0821204600F0C4FD002204F1A8
:1050D0003001284601F028F807466078401C6070CF
:1050E0004FF4FA7606F2F310314690FBF1F0E084CB
:1050F000BDE8F08110B50F48046817E0206AA0B140
:10510000206A418D481E226A5085012903D120461C
:1051100000F046FE09E0206A018D481E226A1085D3
:10512000012902D1204600F02BFE2468002CE5D195
:1051300010BD0000BC00002070B5064600BF26B9B7
:1051400000BF00BF6FF0090070BD00BF346A00BF30
:1051500024B900BF00BF6FF00800F5E700BF00BF33
:10516000E06908B100BF00BF00BF00BF206A08B1FE
:1051700000BF00BF00BF00224FF49A71104602F03A
:10518000A7FFE061E06910B94FF0FF30DCE700BF36
:10519000E0694089B0F59A7F01D200BF00BF00BF2F
:1051A000607820B936480068401C354908603448AA
:1051B00000686060E069406820620120216A087030
:1051C000216A48700620216A88700020216AC87010
:1051D000606801F00DFB216A48600020216A0881A7
:1051E000216A4881216AC86020780A2805D0207881
:1051F000052802D02078042802D17068216AC8608E
:105200000020216A0861216A4861216A88610025BD
:105210000DE096F82400A84203DD06F12500405D6C
:1052200000E00020216A1C314855681C85B2102D11
:10523000EFD3002505E00021206A2C304155681C81
:1052400085B2402DF7D3002505E00021206A6C309F
:105250004155681C85B2802DF7D30A4801F0C8FA81
:10526000216AC1F8EC000020A084002504E0206A37
:10527000F0304555681C85B2442DF8D3002063E713
:10528000A8000020635382632DE9F84305462C6A89
:1052900000260C21204600F0DDFC2846FFF74CFFDD
:1052A00006466EBB01223521204600F02DFA04216E
:1052B000204600F040FA04223221204600F024FA71
:1052C000206B02F0F9FE80464146204600F041FA8C
:1052D000204600F07CFAA28CF03291B2E06903F033
:1052E0008FF943220E49A06805F038FF009543234B
:1052F0000C4AE169A06806F081F8284600F014F82D
:105300006078401C607042F2107707F2F3104FF49F
:10531000FA7190FBF1F0E0843046BDE8F8830000BC
:1053200080B6000884B6000870B5054600BF15B900
:1053300000BF00BF70BD00BF2C6A00BF14B900BF22
:1053400000BFF7E700BF00BFE06908B900BF00BFBA
:1053500000BF00BF206A08B900BF00BF00BFE069FE
:1053600010B1E06903F0BAF80020E061206200BFEC
:10537000E0E70000F8B505462C6A0026354808B974
:10538000002001E03348006820630621204600F039
:1053900061FC2846FFF7D0FE0646002E3ED10122D2
:1053A0003521204600F0B0F90121204600F0C3F974
:1053B00002223921204600F0A7F9A98D204600F0ED
:1053C000EFF904223721204600F09EF90121204602
:1053D00000F0B1F90321204600F0ADF91C21204670
:1053E00000F0A9F90621204600F0A5F9204600F0BA
:1053F000EEF9A28CF03291B2E06903F001F9432298
:105400001449A06805F0AAFE00954323124AE169F9
:10541000A06805F0F3FF2846FFF786FF6078401C80
:1054200060706078062803DA61780120884000E027
:105430003C2000EB4001C1EBC0104FF6FF7101EAC8
:10544000C00707F2F3104FF4FA7190FBF1F0E0841B
:105450003046F8BD80B6000884B6000810B50F4885
:10546000046818E0206AA8B1206AC08C012805DD14
:10547000206AC08C401E216AC8840BE0206AC08C60
:10548000012807D1206AC08C401E216AC8842046AA
:1054900000F096FC2468002CE4D110BDBC00002074
:1054A00010B50446206920B1206902F035FB0020C8
:1054B0002061606928B1606902F02EFB0020606104
:1054C000208310BD014608787047014611F8013B62
:1054D000180611F8013B40EA034011F8013B40EA8D
:1054E000032011F8012B1043704770B503460D4699
:1054F00000265869002847D0188B002844DD5A69D7
:10550000002114E0505C342806D1881C81B2084682
:105510004C1CA1B2165C0AE0505CA84201D15018A4
:1055200070BD481C81B2505C401C084481B2188B8D
:10553000884202DD505CFF28E4D126B3012E04D15D
:10554000186900F16C0280240AE0022E04D1186967
:1055500000F12C02402403E0186900F12C02C02461
:1055600000210AE0505CA84201D15018D8E7481C3D
:1055700081B2505C401C084481B2A14202DA505C06
:10558000FF28EFD100BF00BF0020C9E72DE9F0419F
:1055900007463C6A00206063A063E0633321204635
:1055A000FFF7A3FF05461DB1A81CFFF78EFFE064BF
:1055B0003A212046FFF799FF054625B1A81CFFF7C1
:1055C00084FF206502E0E06C400820653B21204616
:1055D000FFF78BFF054625B1A81CFFF776FF606536
:1055E00001E0E06C60652069103008B9002001E03E
:1055F00020690069206301212046FFF776FF0546F8
:1056000035B1A81CFFF761FF064601F0F1F86063B1
:1056100003212046FFF769FF054635B1A81CFFF7B7
:1056200054FF064601F0E4F8A0631C212046FFF772
:105630005CFF054635B1A81CFFF747FF064601F0A1
:10564000D7F8E06306212046FFF74FFF0546F5B186
:10565000681CFFF737FF80082064206C022801D9FE
:105660000220206400260EE0022101EB8601481989
:10567000FFF72BFF804601F0BBF804F1440141F82D
:105680002600701CC6B2206CB042EDD800BFBDE849
:10569000F081000070B50446256A204602F0A2FCA5
:1056A0000949204602F0B0FC0749204602F0A6FC5A
:1056B0000549204602F0E4FC0C21284600F0CAFA15
:1056C0002046FFF757FE70BD80B600082DE9F04177
:1056D00005462C6A36212046FFF707FF06468EB1A5
:1056E000B01CFFF7F2FE074601F082F8E062206985
:1056F000103008B9002001E02069006920632846C5
:1057000000F020FABDE8F08110B500BF838C9B1C2F
:105710001344442B01D900BF00BF00BF848C631C1D
:105720008384036AF0331955848C631C8384036A71
:10573000F0331A5510BD00BF828C442A01D300BF3C
:1057400000BF00BF838C5A1C8284026AF032D1549D
:10575000704710B500BF828C121D442A01D900BFCA
:1057600000BF00BF0B0E848C621C8284026AF03280
:105770001355C1F30743848C621C8284026AF032A1
:105780001355C1F30723848C621C8284026AF032B1
:105790001355848C621C8284026AF032115510BD4C
:1057A00010B500BF828C921C442A01D900BF00BFF3
:1057B00000BF0B0A848C621C8284026AF03213558B
:1057C000848C621C8284026AF032115510BD00BFC5
:1057D00010B900BF00BF704700BF00BF016A09B920
:1057E00000BF00BF00BF00BF818C442901D300BFB0
:1057F00000BF00BFFF22838C591C8184016AF031F5
:10580000CA540DE000BF818C442901D300BF00BF02
:1058100000BF0022838C591C8184016AF031CA5474
:10582000818C4429EED390F8241001F00301002963
:10583000E8D100BFCFE70000F8B505462C6A042187
:10584000204600F007FA2846FFF776FC06464EBBD6
:10585000012235212046FFF757FF03212046FFF79D
:105860006AFF022239212046FFF74EFFA98D20460C
:10587000FFF796FF2046FFF7AAFFA28CF03291B205
:10588000E06902F0BDFE43221249A06805F066FC03
:1058900000954323104AE169A06805F0AFFD284652
:1058A000FFF742FD6078401C607060780A2804DAD7
:1058B00060784FF47A71484301E042F2107087B289
:1058C00007F2F3104FF4FA7190FBF1F0E0843046E8
:1058D000F8BD000080B6000884B600082DE9F05F2E
:1058E00082461746D046D8F82040D7F804B0E76083
:1058F0009BF80000022800D067E000260AE008F1CB
:105900002500815D0BF11C00805D814200D05CE0D0
:10591000701CC6B298F82400B042F0DCDBF804003A
:1059200002F0CAFB6168884200D04EE0204600F0D9
:105930008BFA00B149E035212046FFF7D6FD8146BC
:10594000B9F1000F00D140E009F10200FFF7BAFD04
:105950000546052D1AD12078012808D14046FFF7C9
:1059600015FE0020E0844046FFF7A8FB2CE02078DD
:10597000032805D02078042802D02078052823D1D8
:105980000020E0844046FFF717FB1DE0062D11D1F3
:105990002078032808D02078012805D02078042812
:1059A00002D02078052805D10020E0844046FFF78A
:1059B00071FE09E0022D07D12078062804D10020CD
:1059C000E0844046FFF782FE00BF2046FFF768FDF7
:1059D000384602F083FD0020E060BDE8F09F000043
:1059E000F8B505462C6A0D21204600F033F9002059
:1059F000E06260632063E063A06360652065E0644B
:105A000020642846FFF798FB064616BB0122352185
:105A10002046FFF779FE07212046FFF78CFE20463F
:105A2000FFF7D5FEA28CF03291B2E06902F0E8FDFA
:105A3000432204F12C01A06805F090FB009543235C
:105A400004F12C02E169A06805F0D8FC2846FFF7B4
:105A50006BFC6078401C607060780A2804DA60781B
:105A60004FF47A71484301E042F2107087B207F2B6
:105A7000F3104FF4FA7190FBF1F0E084284602F045
:105A8000B1FA0749284602F0BFFA0549284602F054
:105A9000B5FA0349284602F0F3FA3046F8BD000093
:105AA00080B60008F8B505462C6A0521204600F0AE
:105AB000D1F82846FFF740FB06465EBB01223521A0
:105AC0002046FFF721FE03212046FFF734FE022285
:105AD00039212046FFF718FEA98D2046FFF760FE0A
