:020000040800F2
:10000000205C0020150300083303000835030008B6
:1000100037030008390300083B0300080000000014
:100020000000000000000000000000003D03000888
:100030003F03000800000000D581000843030008CA
:100040004503000845030008450300084503000870
:10005000450300084503000845030008891F000800
:100060004503000845030008450300084503000850
:100070004503000845030008450300084503000840
:100080004503000845030008450300084503000830
:100090004503000845030008450300084503000820
:1000A0004503000845030008450300084503000810
:1000B0004503000845030008450300084503000800
:1000C00045030008450300084503000845030008F0
:1000D00045030008450300084503000845030008E0
:1000E00045030008450300084503000845030008D0
:1000F00045030008450300084503000845030008C0
:1001000045030008450300080F1C000845030008CC
:1001100045030008672A0008450300084503000856
:10012000450300084503000845030008450300088F
:10013000450300084503000845030008450300087F
:10014000450300084503000845030008450300086F
:10015000450300084503000845030008450300085F
:10016000450300084503000845030008450300084F
:10017000450300084503000845030008450300083F
:1001800045030008EB81000800F002F800F0B2F827
:100190000AA090E8000C82448344AAF10107DA45E2
:1001A00001D100F0A7F8AFF2090EBAE80F0013F082
:1001B000010F18BFFB1A43F0010318478015010017
:1001C000A01501000A444FF0000C10F8013B13F099
:1001D000070408BF10F8014B1D1108BF10F8015BA0
:1001E000641E05D010F8016B641E01F8016BF9D193
:1001F00013F0080F1EBF10F8014BAD1C0C1B09D1EA
:100200006D1E58BF01F801CBFAD505E014F8016B5B
:1002100001F8016B6D1EF9D59142D6D370470000ED
:100220000023002400250026103A28BF78C1FBD8FF
:10023000520728BF30C148BF0B6070476E290BF0D2
:100240005B8570290CF0CA8066290FF0A2876529AA
:100250000FF09F8767290FF09C876129AFF300801B
:1002600003681B0A28BF41F0800169290BF0DC817B
:1002700064290BF0D98175290BF0D6816F290CF018
:10028000558078290CF09680E9290BF0ED87E42958
:100290000BF0EA87F5290BF0E787EF290CF0528085
:1002A000F8290CF095800368DB0928BF41F0800134
:1002B00063290BF06E8773290BF07387E3290CF029
:1002C000CF83F3290CF0D483002070471FB50FF0C3
:1002D00056FF0CF025FB0400002000210FF0D0F8A1
:1002E000401C6060002000210FF0B4F8E0601FBDEA
:1002F00010B510BD0CF00EFE1146FFF7E7FF03F03E
:10030000A1FF0DF05DF803B4FFF7F2FF03BC0DF0A1
:1003100071F800000F481049026800608A4203D05B
:100320000E4880470E4800470E48D0F800D040687D
:100330000047FEE7FEE7FEE7FEE7FEE7FEE7FEE733
:10034000FEE7FEE7FEE7000007480849084A094BB8
:1003500070470000F01F0020EFBEADDE9F040008D4
:10036000890100080000FF1F20520020205C0020AF
:100370002054002020540020002100205E4A1268F2
:1003800042F480325C4B1A6000BF5B4A126802F490
:100390000030491C10B9B1F5705FF6D1564A1268A9
:1003A000C2F34040002879D0534A4032126842F0EC
:1003B0008052514B40331A60504A126842F48042D6
:1003C0004E4B1A6040F205624D4B1A604A4A0832A1
:1003D0001268494B08331A601A46126842F4004208
:1003E0001A601A46126842F4A0521A601A4612683D
:1003F00022F4F81242F400221A601A46126822F01F
:100400007C521A601A46126842F080621A601A46DC
:10041000126842F060521A601A46126822F0404296
:100420001A601A46126842F080421A60354A1B1F51
:100430001A601A1F126842F080721B1F1A6000E0D7
:1004400000BF2D4A126812F0007FF9D02A4A083204
:10045000126822F00302284B08331A601A46126809
:1004600042F002021A6000E000BF234A083212681C
:1004700002F00C02082AF7D1234A1F4B84331A607A
:100480001D4A126842F080621B4B1A6001E005E0D1
:1004900000BF194A126812F0006FF9D0704710B50A
:1004A0001A48006840F47000184908601248006853
:1004B00040F001001049086000200F490831086031
:1004C0000D480068124908400B4908601148091D91
:1004D0000860081F006820F48020091F08600020C1
:1004E00005490C310860FFF747FF4FF000600749EE
:1004F0008039086010BD00000038024000700040E4
:10050000003C0240085040070040005088ED00E0E9
:10051000FFFFF6FE103000249D48006840F0800088
:100520009B4908604F209B49088040F2E730091D35
:100530000860401097490C310860964808380088D8
:1005400040F001009349083908809248103800882B
:1005500040F060008F4910390880081F008840F083
:100560000100091F08808B482838008840F00100EE
:100570008849283908808648006840F0400084494E
:1005800008602020844908800846008840F0070061
:10059000088000208049203108804FF6FF70091D37
:1005A00008607D480838008840F001007A49083921
:1005B0000880704778481C30006880B27047024657
:1005C000501A80B270477248006840F010007049BD
:1005D00008604F20714908854FF6FF704862C86275
:1005E0000846008840F0080008800846008840F06F
:1005F000010008807047414268484162018841F02B
:10060000010101800188C907FCD1704730B503465C
:10061000FFF7D0FF044600E000BFFFF7CBFF054621
:100620002146FFF7CCFF9842F6DB30BD02465C481E
:1006300050434FF47A73B0FBF3F1B1F1807F01D3F3
:10064000012070474FF0E020006940F001004FF0BA
:10065000E0231861184641610020F2E74FF0E020E6
:10066000006900F4803070474948006840F08050CD
:10067000474908604B48006840F480704949086069
:1006800043483030006840F48030414930310860E0
:100690000846006820F4803008600846006840F48E
:1006A000407008600846006840F400400860CA20B6
:1006B0003D490860532008603B481838006840F006
:1006C000800039491839086000E000BF3648183802
:1006D000006810F0400FF8D03348143800686FF30A
:1006E0000E0042F20F7108442F4914390860084681
:1006F000006820F4FE0040F4C600086000202A498B
:10070000243908602948091D0860274818380068FE
:1007100020F0800024491839086000E000BF22481A
:100720001838006810F0800FF8D1FF201E490860CB
:100730001D481838006820F020001B49183908604F
:100740007047CA21184A116053211160164918399F
:10075000096841F08001144A183A116000E000BFB6
:1007600011491839096811F0400FF8D010490140BB
:100770000D4A243A11600C491839096821F08001AA
:10078000094A183A1160FF21074A116070470000BA
:1007900040380240281C004008180040001000406B
:1007A000002D310100700040242800400244130055
:1007B0007F7F3F0010B57748006840F00200754C1D
:1007C000206074481030006840F48040714C103450
:1007D00020607148006820F080406F4C2060204607
:1007E000006840F000402060201D006820F40040B8
:1007F000241D206068480C30006820F04040664CA2
:100800000C342060201F006860F04040241F2060EE
:100810006148406A20F0704040F0A0445E48446265
:10082000006820F080605C4C20602046006840F04A
:1008300000602060201D006820F40050241D20600E
:1008400055480C30006820F04060534C0C34206058
:100850004FF40050504C183420604F480830006866
:1008600060F040604C4C083420604B48406A20F4F3
:10087000700040F4A00448484462006820F08050B2
:10088000454C20602046006840F0005020604248FF
:100890000C30006840F080503F4C0C342060204603
:1008A000006820F0005020603B48406A20F07060F3
:1008B00040F0A064384844620015374C183420607A
:1008C0003548006840F48010334C206020460068B2
:1008D00020F400102060201D006820F48060241D9A
:1008E00020602D480C30006820F440102A4C0C3455
:1008F0002060201F006860F44010241F20602748FB
:10090000008820F04000254C2080201F008820F027
:100910004000241F20800224B4FA84F4C4F1200192
:10092000481E382404EAC00242F441701B4C241FC4
:1009300020802046008840F0400020801748083082
:10094000038801208840164CB4FBF0F010BD10B1B4
:100950004FF4806101E04FF080610F4A183211605E
:100960007047014600E000BF0C4A121D128812F0C9
:10097000020FF8D0094A0832118000E000BF074A90
:10098000121D128812F0010FF8D0044A08321288A2
:10099000D0B27047303802400004024004380040B2
:1009A000005A620250480068504908434E490860A6
:1009B0004F48006840F6FF7108434D4908604C48B5
:1009C0000C3000686FF30B0049490C310860464851
:1009D000006840F00100444908604648006840F063
:1009E000F000444908600846C06820F0F000C86084
:1009F0003D481430006840F480703B491431086071
:100A00003D48006840F440303C49C1F8040340F2DE
:100A1000033088604FF47C6008613948C86008463C
:100A2000C06A20F47000C8620846C06A40F4E00062
:100A3000C862344848634FF0620008633248006877
:100A400020F001003049086000E000BF2E48006837
:100A500010F0010FF9D12C48006820F060602A499D
:100A600008600846006840F45060086023484C3035
:100A70002549083108602548091D086008202249D9
:100A8000091D08601D48406840F480701B4948609B
:100A90001D48006840F001001B4908601748806845
:100AA00040F080401549886070470146174830F88B
:100AB00011007047154931F8101000EE101AB8EE09
:100AC000400A9FED131A20EE010AF0EE400A114988
:100AD00001EBC00191ED000A0E4901EBC00191ED5F
:100AE000011A00EE810A70473038024004004000CD
:100AF00000080240000002400423014000200140A1
:100B0000FFFF03006AB1E61E706402402C0A002059
:100B10006740533A94020108FE48006840F0020022
:100B2000FC490860FC48006820F00400FA490860AD
:100B30000846006840F008000860081D006820F0C2
:100B40000200091D0860F4480C30006820F00C0019
:100B5000F1490C310860081F006820F00C00091FE3
:100B60000860ED482030006820F0F00040F02000E0
:100B7000E94920310860E748006840F00400E54991
:100B80000860E648006820F48030E44908600846C0
:100B9000006840F400300860081D006820F4807090
:100BA000091D0860DD480C30006820F44030DB4946
:100BB0000C310860081F006820F44030091F0860ED
:100BC000D648406A20F00F00C01CD4494862D14882
:100BD000006840F00800CF490860D148006820F064
:100BE0008070CF4908600846006840F000700860D7
:100BF000081D006820F48050091D0860C8480C30AA
:100C0000006820F04070C6490C310860081F006879
:100C100020F04070091F0860C148406A20F470202D
:100C200040F40031BE484162BA48006840F010000C
:100C3000B8490860BB480068BB490840B94908602A
:100C400008460068B9490843B64908600846406844
:100C500020F4446048600846C068B5490840B1497E
:100C6000C86008468068B2490840AE4988600846B6
:100C7000406A20F4706040F48071AA484162406A82
:100C800020F4704040F48051A6484162006A20F090
:100C9000706040F04070A34908629E4810300068C0
:100CA00040F001009B4910310860002009060880CF
:100CB00020208880002008850120C86295481430D3
:100CC000006840F001009349143108600020994900
:100CD00008808880102008810846008940F00700BD
:100CE00008814FF4E04008835020088407200885DD
:100CF0004FF40040904908809048006840F002009E
:100D00008E4908604FF000008D49088001F1040110
:100D100008804FF0100001F10401088008460088A7
:100D200040F0070008804FF4E040864908804FF407
:100D3000805001F1040108804FF0010082490880D1
:100D40007E48006840F004007C4908604FF00000D5
:100D50007E49088001F1040108804FF0100001F184
:100D6000040108800846008840F0070008804FF022
:100D70007000774908804FF00100764908804FF0F5
:100D80000300754908807548006840F00200734907
:100D900008604FF000007249088001F104010880EA
:100DA0004FF0100001F1040108800846008840F06F
:100DB000070008804FF070006A4908804FF4807087
:100DC00001F1040108804FF00000674908804FF4EA
:100DD0000040664908806148006840F480305F49FF
:100DE00008604FF00000624908808880088108464A
:100DF000008940F0070008814FF4E04008834FF07D
:100E0000100008844FF0000008854A48008840F030
:100E10000100484908804A48008840F001004849DC
:100E200008804A48008840F00100484908804C4842
:100E3000008840F001004A4908804D48008840F091
:100E400001004B490880704710B52DED028BB0EEC4
:100E5000408AB5EEC08AF1EE10FA04D29FED450A41
:100E6000B0EE408A0AE0B7EE000AB4EEC08AF1EEB6
:100E700010FA03DDB7EE000AB0EE408A3E4880ED7E
:100E8000008A3B48C06A3C49C8800846D0ED000A49
:100E9000C08800EE100AB8EE400A20EE800A10EE7C
:100EA000101A08460FF01EF9334988804FF0804031
:100EB000008820F001004FF0804108801D48808AA2
:100EC00040F001001B4988821E480838008840F025
:100ED00001001C49083908801D48001F008840F0A7
:100EE00001001B49091F08801E480838008840F08F
:100EF00001001C49083908801D48808A40F0010023
:100F00001B4988821C48808848620804008840F099
:100F1000010033E030380240000402400008024083
:100F2000000C024000100240FFEFAFFF0020A000C5
:100F3000FFCF0FFF00000140440001404038024055
:100F4000000400401C040040280400400008004049
:100F5000180800402008004028080040443802409B
:100F6000000401401C0401402804014044040140E5
:100F7000004001400000000000000020090408803B
:100F80005348808800EE100AF8EE400A5048C088A6
:100F900000EE100AB8EE401A80EE810ABDEC028B1A
:100FA00010BD4FF08040008820F001004FF08041DC
:100FB0000880704710B54748808A40F001004549D5
:100FC00088824548008840F0010043490880434832
:100FD000008840F00100414908804148008840F005
:100FE00001003F4908803F48808A40F001003D49A8
:100FF00088823748D0ED000A0846C06A00EE100A21
:10100000B8EE400A20EE800A10EE101A08460FF0E3
:1010100069F82F4988800846808832494862080468
:10102000008840F001000904088010BD2DE9F0415E
:1010300005462D48854201D9054604E042F210706C
:10104000854200D20546FFF7ACFF2D012748B0FBD3
:10105000F5F46000461EE7007800A0F10108B0B288
:101060001C49C862A0B28863B0B21B49183108603D
:10107000A0B219492C310860B0B218491831086083
:10108000A0B2164920310860B0B215491831086085
:10109000A0B21349283108601FFA88F01149C862CC
:1010A000B8B28863FFF786FF0A48C06A00EE100AEC
:1010B000B8EE400AF7EE000A30EE200AF2EE000A1F
:1010C00060EE200A9FED0A1A81EE200ABDE8F08149
:1010D00000000020000001401404004014080040FB
:1010E0001404014000400140A0860100005A620241
:1010F0008096184C10B52448006840F0080022493A
:10110000086048152149086020481838006840F4F4
:1011100080201E49183908600846006820F4002025
:1011200008601A481038006820F440201749103928
:10113000086001F02FFA10BD70B505460E4646F462
:10114000C014012D01D1000400E00020044394FAF2
:10115000A4F40F4804600D48006840F000700B498B
:10116000086003210A48401C01F09EFA00E000BF1D
:1011700001F0BCFA0028FAD00448006840F400707E
:101180000249086070BD000030380240180C02406F
:101190000800002010B5FE48006840F00800FC4937
:1011A00008604FF48030FB4988610846006820F0F1
:1011B000010008600846006840F002000860084628
:1011C000406820F0010048600846C06820F0030035
:1011D000C8600846806860F0030088600846006ABE
:1011E00020F00F00801C08620020EB49088040F6C8
:1011F0009F70091D0860A020E7490C310860E6488F
:101200001438008840F00100E34914390880081DB3
:10121000008840F06000091D0880DF480838008819
:1012200040F00100DC4908390880DB481C300088A8
:1012300040F40040D8491C310880D748283800883D
:1012400040F00100D44928390880D3481838008874
:1012500020F00200D04918390880081F008840F0AB
:101260000200091F0880322000F0EAFC10BD70B5B2
:10127000C7481038006840F00100C54910390860BF
:10128000C348001D006840F48050C149091D086032
:10129000C048006820F48040BE49086008460068E5
:1012A00040F4004008600846406820F08000486034
:1012B0000846C06820F44040C8600846806860F472
:1012C000404088600846006A20F0704040F0A0402E
:1012D00008620846006820F48060086008460068DC
:1012E00040F4006008600846406820F02000486034
:1012F0000846C06820F44060C8600846806860F412
:10130000406088600846006A20F4700040F4A00045
:1013100008620846006820F48050086008460068AB
:1013200040F4005008600846C06840F48050C8602F
:101330000846C06820F40050C8600846006A20F0E3
:10134000706040F0A06008620846006820F00C0061
:1013500008608F481038006840F010008C49103940
:10136000086080208D4988610846006840F480400C
:1013700008600846006820F400400860084640689D
:1013800020F0800048600846C06820F44040C860F3
:101390000846806860F4404088608148808820F07A
:1013A00040007F4988800846008820F0400008807F
:1013B0000421B1FA81F1C1F12004601E382101EA53
:1013C000C00646F4417040F00200754908800846A6
:1013D000008820F0010008800846808840F0030063
:1013E00088806B481038006840F4800068491039E4
:1013F00008606C48006820F001006A49086000E05D
:1014000000BF6848006810F0010FF9D16548006816
:1014100020F06060634908600846006840F0C060E2
:1014200008600846006840F4A06008605C480C3022
:101430005C49083108605C48091D0860032059496F
:10144000091D0860081F006840F00100091F0860BE
:1014500054487830006820F0010052497831086023
:1014600000E000BF4F487830006810F0010FF8D15D
:101470004C487830006820F060604A497831086054
:101480000846006840F0C06008600846006840F404
:10149000806008600846006840F0400008604048EE
:1014A0000C304049803108600020091F08603C482A
:1014B000008840F040003A49088008468589FFF7D7
:1014C00069FE0120A0403949B1FBF0F070BDF0EE9B
:1014D000400A91ED010A81ED020A91ED000A81EDC9
:1014E000010A91ED040A81ED050A91ED030A81EDEF
:1014F000040AC1ED000A91ED000A90ED001A20EEF9
:10150000010A91ED011AD0ED011A01EE210A91EDC7
:10151000021AD0ED021A01EE210A91ED041AD0ED63
:10152000031A01EE210A91ED051AD0ED041A01EE1D
:10153000210A81ED030A91ED030A704770B52DED84
:10154000088B1B4890ED090AB8EEC00A1948D0ED87
:101550000C0A30EE200AD0ED0B0A20EE200AF0EE45
:1015600040AA1348C06907287ED2DFE800F09CC17A
:10157000FCFD7D7D04000E48D0ED090AF8EEE00A7E
:10158000B0EE600A0C4801680C48006818E00000E2
:101590004038024000000240280C00400010024089
:1015A000003001401064024048000020005A6202EE
:1015B000484C0020D84A0020140000200C000020D5
:1015C000FFF785FFF0EE408AFA480168FA480068A4
:1015D000B0EE680AFFF77BFFF0EE408AB0EE688A53
:1015E000F648D0ED020AF64890ED000A08EE200A0F
:1015F00080ED000A90ED000ADFEDF20AB4EEE00A99
:10160000F1EE10FA04DD9FEDEF0A80ED000A0DE027
:10161000EB4890ED000ADFEDEC0AB4EEE00AF1EEE3
:1016200010FA03D29FEDE80A80ED000AE34890ED3E
:10163000040AE648D0ED000A78EE600A20EE200A9F
:10164000DE48D0ED040AB7EE001A71EE600A00EE33
:10165000A90AF0EE409AD0ED010AD94890ED000AAF
:1016600008EE200AD54800E0D7E1D0ED030AB0EE3D
:10167000409A09EEA09A19EE100A0EF02CFDD449FA
:10168000084480F31200D3494865084680ED1E8A5D
:10169000CB4890ED000A084680ED1F0A80ED209AA5
:1016A000C0ED218AB9E1CC4890ED070A20EE2A0A64
:1016B000F2EE0E0A20EE20BAC648C06BC749086099
:1016C000C44890F8C000C0F3001040B11BEE100AEF
:1016D0000EF001FDC14909680844C0490860BD48D1
:1016E000D0F8C40020F48040BA49C1F8C40094E1A5
:1016F000B84890F8C000C0F3801018B1B54890ED1C
:10170000190A02E0B34890ED170AB54880ED000AC7
:10171000B04890F8C000C0F3001028B9B04890ED70
:10172000000AAC4880ED1B0AAA48C06BAD490860AE
:101730009FEDAD0AA24880ED000AA94890ED000A8D
:10174000AA4880ED000A1822A949AA480AF0E6F939
:101750001822A749A74818300AF0E0F902209D494D
:10176000C8615AE100E01EE09A4890F8C000C0F35A
:10177000001020B9994800689649C86308E0954868
:10178000D0ED100AB0EE600A06F020FE9149C86361
:101790009049C86B06F044FE8E4880ED0E0A00208A
:1017A0008C49C86139E18B4890F8C000C0F38010C3
:1017B00018B1884890ED190A02E0864890ED170AA2
:1017C000F0EE40BA834890ED1B0A854880ED000A90
:1017D000804890F8C000C0F3001048B17D48D0EDBB
:1017E000130A7F4890ED000A0AEEA00A80ED000A75
:1017F0007B4890ED000AF1EE040AB4EEE00AF1EE47
:1018000010FA04DDB1EE040A80ED000A0DE0744820
:1018100090ED000AFEEE000AB4EEE00AF1EE10FAD6
:1018200003D2BEEE000A80ED000A6D4890ED000A7A
:101830006E48D0ED000A30EE60AAB0EECA0A5F48EA
:10184000D0ED070AB4EEE00AF1EE10FA04DD90EDF7
:10185000060A20EE0A0A01E09FED630A10EE105A14
:101860005F4890ED000A614880ED000A5C4890ED09
:10187000000A30EE6B0AB0EE408A5F4801685F48AC
:101880000068B0EE480AFFF722FEF0EE408A4948B1
:10189000016849480068B0EE680AFFF718FEF0EEEC
:1018A000408AB0EE688A4548D0ED020A444890ED7F
:1018B000000A08EE200A80ED000A90ED000ABDEE55
:1018C000C00A10EE104A74B1D0ED000A00EE104AC2
:1018D000B8EEC00A30EEC00A80ED000A4148006848
:1018E00020444049086028460EF0F5FB3D49096850
:1018F000081A3C49086008460068B0F5801F02DB02
:101900003F48086006E037480068002802DA0020F7
:1019100034490860294890ED040A2C48D0ED000AAB
:1019200078EE600A20EE200A2448D0ED040AB7EED3
:10193000001A71EE600A00EEA90AF0EE409AD0EDAE
:10194000010A1F4890ED000A08EE200A1B48D0ED5E
:10195000030AB0EE409A09EEA09A19EE100A0EF0B2
:10196000BAFB2049096808441C490860194880ED01
:101970001E8A134890ED000A164880ED1F0A80ED7C
:10198000209AC0ED218A174800681249C1F88800E2
:10199000B0EEC80ADFED1B0AB4EEE00AF1EE10FA71
:1019A00032DD0846D0F8C40040F48040C1F8C400DD
:1019B00032E0000018000020100000202C4A002017
:1019C000380000200024F4490024F4C93C00002021
:1019D000FFFF0100484C0020D84A002028000020CA
:1019E00030000020400000200000000034000020F3
:1019F000D40201086C0A0020140000200C00002012
:101A0000FFFF0F0000007A449848D0F8C40020F48B
:101A100080409649C1F8C40000BF00BF94480068E8
:101A2000401C934908609149496F884205D3914809
:101A300080ED008A00208E4908608C48006B8E493A
:101A40000968884204DA8948006B8B49086009E01C
:101A50008648406B88490968884203DD8348406BAB
:101A6000854908608448006880F314008249086052
:101A700008460068BDEC088B70BD70B52DED028B7B
:101A8000F0EE408A1FED280AB0EE408A7B4C774E7C
:101A9000903600250CE001CEB0EE680A8047B4EC29
:101AA000011AF0EE480A41EE000AB0EE608A6D1CA1
:101AB000052DF0DBB0EE480ABDEC028B70BD10B511
:101AC0002DED048B6E48008820F002006C490880E0
:101AD00080206C4988616C4800686C490860084641
:101AE000006800BA001408EE100A604880ED168AFB
:101AF000B8EEC80AF0EE408A60484C3890ED100A03
:101B0000D0ED0F0A08EEA00AF0EE408A5748C0ED6B
:101B1000178A5F4801685F480068B0EE680AFFF7FF
:101B2000D6FC524880ED180AB0EE680AFFF7A5FF10
:101B30004E4880ED190A90F8C000C0F3C010C0B93B
:101B40004A4890ED190A4D484C38D0ED110A60EE24
:101B5000200A90ED120AB0EE001AB0EE409A00EEA4
:101B6000819A19EE100A0EF0B6FA80F312003F497E
:101B700048653E48D0ED190AB0EE600A4648016853
:101B800044480068FFF7A3FC384880ED1A0A434830
:101B9000006810F4001F05D04048046800203F4949
:101BA000086003E0FFF7CAFC40F48014200200BA8A
:101BB0003B490860084600683A4908603A480068AE
:101BC00020F0010038490860364837490C31086078
:101BD00003203549091D0860C81433497C39086061
:101BE0002F48006831490968884207D04FF4000047
:101BF000244988612A4800682C4908602A480068FE
:101C000040F0010028490860BDEC048B10BD10B500
:101C1000FFF755FF10BD10B50446322000F01CF848
:101C20001E480460322000F00BF810BD10B53220C1
:101C300000F012F810BD10B5322000F001F810BD10
:101C400000F01F020121914042094FF0E02303EB15
:101C50008202C2F80011704700F01F02012191407A
:101C6000134A430942F8231070470000484C0020F3
:101C70002C0000203C00002028000020244B0020E5
:101C8000100C0040001002404800002050000020CE
:101C9000200000201C00002024000020580000200C
:101CA000540000204C0000208864024044000020C2
:101CB00080E100E02DE9F041D348006840F00200E7
:101CC000D1490860D148006820F44060CF490860DD
:101CD000CD48006840F40010CB490860CA48103075
:101CE000006840F40040C84910310860C7480068E7
:101CF00020F04000C54908600846006840F08000B8
:101D00000860081D006820F00800091D0860BF4831
:101D10000C30006820F0C000BC490C31086008207D
:101D2000BA4918310860B9480830006840F0C0006E
:101D3000B64908310860B5482030006820F470408A
:101D400040F4C040B14920310860B048006820F438
:101D50008070AE4908600846006840F40070086072
:101D6000AA480C30006840F48070A8490C31086023
:101D70000846006820F400700860A448203000681D
:101D800020F4702040F4C020A049203108609F4812
:101D9000006820F480609D4908600846006840F4AF
:101DA00000600860081D006820F02000091D086020
:101DB00096480C30006820F4406094490C3108606B
:101DC000081F006840F44060091F08608F482030F9
:101DD000006820F4700040F4C0008C492031086095
:101DE0008B48008820F0400089490880081F00883F
:101DF00020F04000091F08800421B1FA81F1C1F1EF
:101E00002004601E382101EAC00646F44170804972
:101E1000091F08800846008820F003000880081D7C
:101E2000008840F00300091D08807A48006820F00F
:101E300001007949C1F8B80000E000BF75480068AA
:101E400010F0010FF9D172480830744908607448E5
:101E50007149C1F8C4000846D0F8B80020F4F04039
:101E6000C1F8B8000846D0F8B80040F48060C1F866
:101E7000B8000846D0F8B80040F040006549086056
:101E80004FF000006449C1F8BC000846D0F8B80023
:101E900020F06060C1F8B8000846006920F0010039
:101EA000086100E000BF5C48006910F0010FF9D143
:101EB0005948006920F06060574908610846006988
:101EC00058490843544908615148083088615048CE
:101ED000001F008840F040004D49091F08804C4811
:101EE0000830058850484C49C8610C3008620846E3
:101EF000006920F4002008610C20486120208860DF
:101F00000846006940F0010008613F48143000684D
:101F100040F480403C49143108604448006843491B
:101F200008604348006840F00200414908604048AA
:101F30000C38006840F002003D490C390860072069
:101F40000121002807DA0A07170E3A4A00F00F03AA
:101F50001B1FD75403E00A07130E374A135400BF60
:101F600007200121814042094FF0E02303EB820268
:101F7000C2F8001100BF03F0ADF90120A0402F49C5
:101F8000B1FBF0F0BDE8F08129490831096841F062
:101F90000201274A083211601E49096821F0010137
:101FA0001D4AC2F8B8102649496D09BA1C4A916009
:101FB0001146244A11604FF00C01234A11604FF082
:101FC0000061154AD1601146D1F8B81041F0010105
:101FD000C2F8B8101146096911F4002F01D0124956
:101FE00001E011490C310846D0F8031009BA091272
:101FF000134AD162016809BA09125162D0F8061079
:1020000009BA091291627047303802400004024058
:10201000043C0040B860024000600240C0600240E2
:10202000B40A0020000504009C0A00200838014082
:102030000C3C014018ED00E000E400E0005A6202B0
:10204000484C0020C4600240BC600240A6480068C2
:1020500040F01000A4490860A34814380068A34960
:102060000843A14914390860A148006820F4802081
:102070009F4908600846006840F400200860084650
:10208000406820F4007048600846C06820F4402092
:10209000C8600846806820F4402088600846406A8E
:1020A00020F0F00040F0700191484162006820F497
:1020B00080108F4908600846006840F400100860EE
:1020C0000846C06820F40010C8600846C06840F4A4
:1020D0008010C8600846406A20F4706040F4E061F7
:1020E00083484162006820F080708149086008469A
:1020F000006840F0007008600846406820F4805096
:1021000048600846C06820F04070C8600846806893
:1021100020F0407088600846406A20F4702040F447
:10212000E02173484162006820F480007049086033
:102130000846006840F4000008600846C06820F4C3
:102140000000C8600846C06840F48000C8600846C7
:10215000406A20F4704040F4E0416548416240F23A
:10216000B620644908810020088288820846808958
:1021700040F4005088810846808A40F0C000888280
:102180000846808A40F4407088825B48006820F0EE
:1021900001005949086000E000BF5748006810F08E
:1021A000010FF9D15448006820F06060524908607E
:1021B0000846006840F0006008600846006840F487
:1021C000886008604B48001D4B49083108600020BA
:1021D000091F086048487838006820F00100464927
:1021E0007839086000E000BF43487838006810F094
:1021F000010FF8D140487838006820F060603E490F
:10220000783908600846006840F0006008600846B9
:10221000006840F4A06008603648001D36497039F7
:1022200008603648091D086008153349743908608C
:102230003048008820F040002E49088008468089F8
:1022400040F00C0088812C487838006840F001008C
:102250002949783908607047274974390968C1F5F8
:102260008061274A1268914202D14FF6FF700FE059
:1022700023490A680968491C214B19601F49885C79
:1022800019460968B1F5806F02D100211A46116024
:102290007047194A126822F00102174B1A6000E0D9
:1022A00000BF154A126812F0010FF9D1124A0C3220
:1022B0001060114A121D11600E4A128822F040026D
:1022C0000C4B1A804FF000620B4BAC3B1A600A4A71
:1022D000126842F00102084B1A60704705480088F6
:1022E00000F0400070470000443802400100400008
:1022F0000000024000100140B8640240C00A002003
:102300005C0000209348006840F400309149086068
:10231000904810380068904908438E491039086089
:102320008E48006820F480608C4908600846006888
:1023300040F400600860081D006820F02000091DBE
:10234000086086480C30006820F4406083490C31F6
:102350000860081F006820F44060091F08607F487B
:102360002030006820F4700040F4E0007B49203108
:1023700008607A48006820F4805078490860084670
:10238000006840F40050086074480C30006820F485
:10239000005072490C3108600846006840F48050D3
:1023A00008606E482030006820F0706040F0E06007
:1023B0006A492031086040F25B10694908800020BA
:1023C000674908310880091D08806548001D00889C
:1023D00040F400506249091D088061480C300088B3
:1023E00040F0C0005E490C3108805E48006820F073
:1023F00001005D49C1F8A00000E000BF5948006835
:1024000010F0010FF9D15748006820F0606056497C
:10241000C1F8A0000846D0F8A00040F00060C1F864
:10242000A0000846D0F8A00040F488604D4908603C
:102430004E484F4908604FF000004B49C1F8A400D6
:102440000846D0F8880020F00100C1F8880000E0BC
:1024500000BF4848006810F0010FF9D145480068F6
:1024600020F060604049C1F888000846D0F8880034
:1024700040F00060C1F888000846D0F8880040F4B9
:10248000A0603C49086039483B4908603B4801F17D
:10249000040108604FF480603349C1F88C0038486B
:1024A000008820F04000364908803648008840F017
:1024B0000C00344908802C48D0F8880040F0010016
:1024C0002C490860704730490968C1F580612F4A7E
:1024D0001268914202D14FF6FF700FE02B490A6853
:1024E0000968491C294B19602449885C1946096808
:1024F000B1F5806F02D100211A4611607047194A68
:10250000126822F00102184BC3F8A02000E000BFBF
:10251000144A126812F0010FF9D11D4A1060124AD4
:10252000C2F8A410164A128822F04002144B1A80F6
:102530004FF400120C4BDA601A46D2F8A02042F099
:102540000102C3F8A02070470D48008800F0400049
:10255000704700004038024008002000000C024094
:1025600008440040A0600240006002400444004073
:10257000A86002408860024090600240C00E0020C7
:10258000004400400C4400408C6002406000002089
:10259000AC6002405848006840F48020564908600A
:1025A00055481038006855490843534910390860A8
:1025B0005348006820F488105149086008460068B4
:1025C00040F408100860081D006820F4A060091D90
:1025D00008604B480C30006820F44C1048490C311E
:1025E0000860081F006840F44C10091F0860444848
:1025F000406A20F00F00C01D414948620846406A09
:1026000020F4706040F4E0613D48416250203D4953
:1026100008804FF430603B49083108800020091DD4
:1026200008803848001D008840F400503549091DD5
:10263000088034480C30008840F0800031490C316B
:1026400008803148806D20F001002F49886500E046
:1026500000BF2D48806D10F0010FF9D12A48806D20
:1026600020F06060284988650846806D40F0006071
:1026700088650846806D40F4886088652148001FA1
:1026800008660020C8651F480838008820F0400010
:102690001C49083908801B48001D008840F00800CC
:1026A0001849091D08807047174A926D22F00102EF
:1026B000154B9A6500E000BF134A926D12F0010FAE
:1026C000F9D1114A5066D1650E4A083A128822F0B3
:1026D00040020C4B083B1A804FF000620A4B9A6094
:1026E0001A46926D42F001029A6570470548083813
:1026F000008800F040007047403802400800200089
:10270000000C024008480040006002408548006814
:1027100040F40020834908608248103800688249EC
:1027200008438049103908608048006820F4801010
:102730007E4908600846006840F400100860081DE3
:10274000006820F48060091D086078480C3000683B
:1027500020F4401075490C310860081F006820F40F
:102760004010091F08607148406A20F4706040F40E
:1027700000616E484162006820F480006B49086087
:102780000846006840F40000086068480C300068A3
:1027900020F4000065490C3108600846006840F4E8
:1027A000800008606148406A20F4704040F40041B5
:1027B0005E48416240F25B105D49088000205C4940
:1027C00008310880091D08805948001D008840F420
:1027D00000505749091D088055480C30008840F0CA
:1027E000C00053490C3108805248006F20F00100AE
:1027F0005049086700E000BF4E48006F10F0010F1D
:10280000F9D14C48006F20F060604A4908670846DB
:10281000006F40F0006008670846006F40F4886071
:1028200008674348001F8867002048670846006C17
:1028300020F00100086400E000BF3E48006C10F08A
:10284000010FF9D13B48006C20F060603949086401
:102850000846006C40F0006008640846006C40F4D4
:10286000A06008643248001F88643348C864802030
:1028700048642F480838008820F040002C49083967
:1028800008802B48001D008840F00C002849091DD5
:1028900008802848006C40F0010026490864704711
:1028A0002449496CC1F18001244A1268914202D145
:1028B0004FF6FF700EE021490A680968491C1F4B5A
:1028C00019601D49885C19460968802902D10021D8
:1028D0001A4611607047174A126F22F00102154B19
:1028E0001A6700E000BF134A126F12F0010FF9D10E
:1028F000104AD06751670E4A083A128822F0400207
:102900000B4B083B1A8020220A4BDA601A46126FE2
:1029100042F001021A67704705480838008800F045
:102920004000704740380240040020000008024088
:10293000084C004000600240C012002064000020EB
:1029400010B59348006840F48010914908609048A1
:102950001038006840F00C008D49103908608D482F
:10296000006820F080708B4908600846006840F0DD
:1029700000700860081D006820F48050091D086080
:1029800084480C30006820F0407082490C310860A7
:10299000081F006820F04070091F08607D48406AE9
:1029A00020F4702040F400217A4841627A4800689F
:1029B00020F01000784908600846006840F02000C8
:1029C000086075480C30006820F0200072490C3116
:1029D00008600846006840F0100008606E4820302B
:1029E000006820F4706040F400606B49203108609A
:1029F00040F25B10694908810020088288820846FD
:102A0000808940F40050888135200721002807DAAA
:102A10000A07140E624A00F00F031B1FD45403E090
:102A20000A07130E5F4A135400BF352000F01F023F
:102A30000121914042094FF0E02303EB8202C2F8EA
:102A4000001100BF5548808940F02000534988811B
:102A50000846808940F0080088810846808940F057
:102A60000C00888110BD4D49098811F0200F1AD043
:102A70004A498988C8B24C490968802913D24B4910
:102A80000A680968491C494B196049498854194624
:102A90000968802902D100211A461160424909685B
:102AA000491C414A11603D49098811F0800F1FD02F
:102AB0004049096831B93949898921F08001374A8B
:102AC000918115E03C490A680968491C3A4B196034
:102AD0003A49895C314A918019460968802902D1B6
:102AE00000211A46116033490968491E314A1160B4
:102AF000704700E000BF2F4909688029FAD22749B2
:102B0000898921F08001254A91812D490A68096847
:102B1000491C2B4B1960294988541946096880299A
:102B200002D100211A46116022490968491C214A34
:102B300011601A49898941F08001184A91817047D2
:102B40001948006810B94FF6FF7070471348808924
:102B500020F02000114A90811A4802680068401C49
:102B6000184B18601248815C18460068802802D112
:102B700000201A4610600C480068401E0A4A106087
:102B80000648808940F02000044A90810846DCE72E
:102B90004038024000080240000C02400050004053
:102BA00018ED00E000E400E0680000206C00002068
:102BB00040130020740000207C000020C01300207F
:102BC00078000020700000209148006840F020004C
:102BD0008F4908608E48143800688E4908438C4934
:102BE000143908608C48006820F480508A490860D5
:102BF0000846006840F400500860081D006820F096
:102C00004000091D086084480C30006820F44050E2
:102C100081490C310860081F006820F44050091FEA
:102C200008607D482030006820F0706040F000604F
:102C30007949203108607848006820F4804076495E
:102C400008600846006840F40040086072480C3094
:102C5000006820F4404070490C3108606E48203014
:102C6000006820F0704040F000406B49203108605F
:102C700040F2B62069490880002068490831088080
:102C8000091D08806548001D008840F40050634914
:102C9000091D088061480C30008840F0C0005F4981
:102CA0000C3108805E48006820F001005C49086033
:102CB00000E000BF5A48006810F0010FF9D15848F1
:102CC000006820F06060564908600846006840F0DF
:102CD000206008600846006840F4886008604F483B
:102CE000001F4F49083108600020091F08604C4848
:102CF0007838006820F0010049497839086000E020
:102D000000BF47487838006810F0010FF8D14448F8
:102D10007838006820F060604149783908600846DA
:102D2000006840F0206008600846006840F4A06039
:102D300008603A48001F3A49703908603948091D4F
:102D40000860081536497439086034480838008826
:102D500020F040003149083908803048001D0088C3
:102D600040F00C002D49091D08802D487838006876
:102D700040F001002A4978390860704728497439C1
:102D80000968C1F58061284A1268914202D14FF664
:102D9000FF700FE024490A680968491C224B19603A
:102DA0002049885C19460968B1F5806F02D100217D
:102DB0001A46116070471A4A126822F00102184B35
:102DC0001A6000E000BF164A126812F0010FF9D134
:102DD000134A0C321060124A121D11600F4A083A51
:102DE000128822F040020D4B083B1A804FF400126B
:102DF0000B4B943B1A600A4A126842F00102084BDE
:102E00001A60704705480838008800F04000704795
:102E10004438024004004000000802400814014009
:102E2000A0640240401400208000002070B50125FD
:102E30003F4E3046D0F80004012801D0022070BD7A
:102E400035E03C4802680068401C3A4B186038483E
:102E500084541846006806281BD13548007910F0C4
:102E6000800F02D03248807800E00020801D324977
:102E700008602F48007900F07F00502807D12C48C7
:102E80004079012803D108460068802801D99020A4
:102E9000D5E72848006828490968884207D10020FA
:102EA0002449086000212248C0F800140325204866
:102EB000D0F8000438B12149086880470446A0F5DD
:102EC0007F41FF39BDD12846B9E710B51C4B1B68BF
:102ED0001C4C24681A191B4B1B680B44194C2360AB
:102EE00003E010F8013B02F8013B0B00A1F10101E6
:102EF000F7D110BD10B513480068C0B10F498868FC
:102F00008047A0B10D4842680E4801680C4800682F
:102F100090470B4800680C49884202D101F5806057
:102F200000E009480649086000200649086010BD15
:102F3000840000209C040020A004002088040020BD
:102F400094040020980400204018002010B5044686
:102F50002146F9A002F016FA10BD10B505F03EFBAF
:102F6000DFEDFC0A20EE200A10EE104A20460DF09C
:102F7000B2F800F30F0010BD10B52DED028BF6482E
:102F800090F8C000C0F3801078B1F34890F8C0000A
:102F9000C0F3401018B1F04890ED1A0A02E0EE4874
:102FA00090ED190AB0EE408A0EE0EB4890F8C000B0
:102FB000C0F3401018B1E84890ED180A02E0E64866
:102FC00090ED170AB0EE408AE34890ED120AC8EE81
:102FD000000AB0EE608A18EE100A0DF07CF800F3DB
:102FE0000F00BDEC028B10BD70B54FF00054DA48F5
:102FF00090F8C000C0F3C00008B144F00044D648C7
:10300000C069022801D144F48064D3488068012853
:1030100002D144F0100405E0CF488068022801D1B5
:1030200044F02004CC48D0F8C40043F6FC410842E8
:1030300001D044F08044C84890ED170ADFEDC70A7C
:10304000B4EEE00AF1EE10FA01D244F48054C24822
:1030500090ED170ADFEDC20AB4EEE00AF1EE10FAC5
:1030600005DCFFF789FF47F6FF71884201DB44F476
:10307000005405F006FC054615F0010F01D044F49C
:10308000801415F0020F01D044F4001415F0040F61
:1030900001D044F4800415F0080F01D044F400047A
:1030A000204670BD2DE9F04F2DED028B8DB080468E
:1030B0000F46B8F8000080B20C903C46BD1D08F1E8
:1030C00006060020E0700120207150206071002071
:1030D000F86540F246620C98811A90427ED030DC4E
:1030E00040F21122A0EB0201904278D015DC1428A6
:1030F00076D009DC022874D005284AD0112871D076
:10310000122841F02F80B1E0152801F01B8018280B
:1031100069D0B0F5047FF4D1CAE040F22F42881A9A
:10312000914274D006DC022972D0032971D0122991
:10313000E7D179E001286DD003286CD00428E0D1D4
:10314000B6E1402968D012DC152971D008DC0129CC
:103150006FD00A296ED012296DD01329D1D17FE109
:103160001C2969D03A2968D03B29CAD1DAE14E2915
:1031700077D006DC4A2975D04B2974D04D29C0D1AF
:1031800082E2502970D051296FD0B1F5C57FB8D1F6
:10319000F3E3062020805420A070207940F08000C6
:1031A00020717048D0F8B4006F49884203D16D484F
:1031B00000686E490860684890F8C000C0F380005D
:1031C00050B16B4B0A226BA16848423008F0C4F939
:1031D000FF206649A1F84C00542205E0BFE1D7E08A
:1031E000FEE351E02AE0FCE36049284608F051FC88
:1031F0005A20F865012061490860FDF7DBF95F4955
:1032000088805F48804508D1012088600BE0FCE0A1
:10321000D0E0D9E011E133E1FEE35A48804502D124
:1032200001205649C860E5E340204B490862FAE7AF
:10323000B3E1A1E1D2E00FE136E04AE15048804538
:1032400003D101204D49086105E04E48804502D177
:1032500001204A49486100204849C861401E8862EF
:10326000E1E7A9E2ABE1D5E1E2E2C4E3444880450D
:1032700003D100204149086105E04248804502D160
:1032800000203E494861CEE700203C4908603C48A8
:10329000804502D10020886005E03A48804502D18F
:1032A00000203649C860BEE700203449C861BAE74B
:1032B00098F80300012801D1012100E000212648EF
:1032C000D0F8C00061F3C3002349C1F8C00008462C
:1032D00090F8C000C0F3C000A0B14FF400402A49EC
:1032E00008601D48D0ED100AB0EE600A05F085F8C0
:1032F0001948D0F8C00020F0080008301649C1F87D
:10330000C00017E0144890ED0E0A80ED100A9FED02
:103310001F0A05F072F81420FDF778F94FF000400D
:10332000194908600C48D0F8C00020F008000A498C
:10333000C1F8C00077E700000D0A556E7265636F33
:1033400076657261626C65206572726F723A2025D3
:103350007300000059725A43484C00209A99193E54
:103360009A999940D84A002066191225DC08002055
:103370003A4E0020252E2A7300000000104D002038
:10338000C80400208400002018080240000000004B
:1033900040F2122020800120A070F84890F8C00070
:1033A000C0F3C00008B1012000E00220E070062058
:1033B000F86538E798F80200F049C1F8A800D1F89C
:1033C000A80005F0D9F92EE740F215202080EB483F
:1033D00090F8A800A0700620F86524E740F251603C
:1033E00020800420A070207940F08000207101200E
:1033F0002880E348008800EB80004FF6FF7101EA67
:10340000400068800A20F8650DE798F8030001285D
:1034100003D098F80300032803D1002006F0E8F950
:103420000AE098F80300022803D098F80300042863
:1034300002D1022006F0DCF9F5E640F2426020807D
:103440000120A070CD48C069022800D100E0012011
:10345000E0700620F865E6E6CAA001F093FFE2E618
:1034600040F25A6020800420A070207940F0800053
:10347000207101202880002068800A20F865D2E6AB
:10348000B6F9020000EE100AB8EEC00ADFEDC60A77
:1034900020EE200ADFEDC50A80EE201AB74880ED45
:1034A000101AD0ED100AB0EE600A04F0A6FFBAE6DA
:1034B00040F2456020800420A070207940F0800018
:1034C000207101202880FFF748FD68800A20F865F8
:1034D000A9E6708800EE100AB8EE400AF2EE040A7F
:1034E00080EE208AA648408800EE100AB8EE400A16
:1034F000B4EEC80AF1EE10FA02DBB0EE480A05E0BD
:103500009F48408800EE100AB8EE400AA84880EDB7
:10351000000AD0ED000AB0EE600A04F057FF9749A8
:10352000086380E640F2826020800620A070207947
:1035300040F080002071012028809D4890ED000A15
:10354000F2EE040A20EE200A10EE101A08460CF0E3
:10355000C2FD68800120A8800C20F86563E67088B1
:1035600000EE100AB8EE400A8448D0ED120A20EEB0
:10357000200A80ED1B0A56E64FF4C9602080042023
:10358000A070207940F08000207101202880FFF792
:10359000F3FC68800A20F86545E640F25C60208014
:1035A0000620A070207940F0800020710120288042
:1035B000FFF71AFDC5F802000C20F86533E656F84F
:1035C000020F05909DED050AF2EE040A20EE200A96
:1035D000774880ED010A706805909DED050A7448F2
:1035E00080ED020AB06805909DED050A704880EDF7
:1035F000030AF06805909DED050A6D4880ED050A07
:10360000308AA6F10206012800D100E000206849B6
:10361000086208E640F2926020801420A0702079B1
:1036200040F080002071012005F1020525F8020C10
:103630005F4890ED010AF2EE040A80EE201A8DED4B
:10364000051A059828605A4890ED020A8DED050A82
:1036500005986860564890ED030A8DED050A0598B7
:10366000A860534890ED050A8DED050A0598E860BD
:10367000A5F102054E48006A08B1012000E00220D1
:1036800068821A20F865CEE5B07810F0010F36D0C8
:10369000706805909DED050A454880ED0B0AB068FD
:1036A00005909DED050A424880ED0D0AB08901287C
:1036B00000D100E000203E4948620846406A88B1D7
:1036C000084690ED0D1AF0EE410A90ED0B1AB0EE9F
:1036D000410A01A806F03AFD142201A906A808F043
:1036E0001DFA04E01422334906A808F017FA72B64E
:1036F000142206A92E483C3008F010FA62B6B078C1
:1037000010F0020F38D0D6F80E0005909DED050A96
:10371000274880ED0C0AD6F8120005909DED050AA9
:10372000234880ED0E0AF08A012801D1012100E032
:1037300000211F488162806A88B11D4890ED0E1AF1
:10374000F0EE410A90ED0C1AB0EE410A01A806F025
:10375000FDFC142201A906A808F0E0F904E01422F7
:10376000144906A808F0DAF972B6142206A910481E
:10377000503008F0D3F962B655E50000484C0020FF
:10378000340900200D0A4150543A205A65726F3AAC
:10379000206E6F74207573656420666F72205050C0
:1037A000433030312E0000000000164300FEFF467B
:1037B0002C4A00205C03010840F29560208018200C
:1037C000A070207940F08000207101202880032023
:1037D0006880FA4890ED0B0A8DED050A059868603F
:1037E000F64890ED0D0A8DED050A0598A860F3489E
:1037F000406A08B1012000E00220A881EF4890ED66
:103800000C0A8DED050A0598C5F80E00EB4890ED01
:103810000E0A8DED050A0598C5F81200E748806A82
:1038200008B1012000E00220E8821E20F865FAE4D9
:10383000B078E249496E60F34101E0484166B078F2
:10384000C0F34001DD48406E61F38200DB49486609
:10385000084690F86400C0F34001D948D0F8C00091
:1038600061F30410D649C1F8C000B088012801D026
:10387000012100E00021D148406E61F3C300CF492F
:103880004866B088022801D0012100E00021CB4821
:10389000406E61F30410C9494866F088022801D1DE
:1038A000012100E00021C548406E61F34510C34985
:1038B00048663089022801D1012100E00021BF487B
:1038C000406E61F38610BD4948667089032801D1B6
:1038D000012100E00021B948406E61F3C710B749EB
:1038E00048667089022801D1012100E00021B34817
:1038F000406E61F30820B1494866084690F86400BC
:10390000C0F3C00020B14FF00040AE49886103E031
:103910004FF40040AB498861A84890F86400C0F3B8
:10392000001020B14FF48000A749086002E0402059
:10393000A5490860A14890F86400C0F3401020B188
:103940004FF08050A049086003E04FF480509E493A
:1039500008609A4890F86400C0F3C01020B14FF49A
:10396000804004F088FE0EE09449B1F86410C1F381
:10397000002119B14FF4005102E0AAE04FF4805148
:10398000084604F078FE8E48006870B98B4890F8BD
:103990006400C0F3801020B14FF400008B49086030
:1039A00028E080208949086024E0844890F8640079
:1039B000C0F3801082490968012900D100E000218C
:1039C000884217D0812020804420A070207940F0C8
:1039D0008000207140F29660288048F2010001E0EA
:1039E000C3E0C1E068807AA284A1281D07F0B4FD7D
:1039F0004A20F865BBE34FF4D36020800E20A0700E
:103A0000207940F08000207101202880002068800B
:103A10006A4890F8640000E080E0C0F3400018B10C
:103A2000688840F001006880644890F86400C0F342
:103A3000800018B1688840F0020068805F4890F804
:103A40006400C0F3C00050B15C4890F86400C0F35B
:103A5000001008B1032000E00220A88001E001204E
:103A6000A880564890F86400C0F3401008B10220C6
:103A700000E00120E8805248006850B94F4890F8B3
:103A80006400C0F3801008B1022000E0012028810A
:103A900007E04B480068012801D1022000E0012026
:103AA0002881464890F86400C0F3C01010B103208C
:103AB000688109E04148B0F86400C0F3002008B113
:103AC000022000E0012068810020A8811420F86510
:103AD0004DE3B8224A494B4808F020F84A48374994
:103AE000C1F8A800AC224748B83008F017F84FF4E6
:103AF000B2720021434804F074FF01234FF4B27204
:103B00000021404804F02AFF0B900B9909B93FA10E
:103B100000E042A1084601F035FC28E3B82238490C
:103B2000384807F0FBFF3848C0432449C1F8A800D3
:103B3000AC223448B83007F0F1FF4FF4B2720021E4
:103B4000304804F04EFF01234FF4B27200212D489B
:103B500004F004FF0B900B9909B92CA100E02FA1F0
:103B6000084601F00FFC02E301E3D6F800A0D6F806
:103B700004B0B0680590BAF1120F73D00DDCBAF141
:103B8000120F6ED2DFE80AF06D5E6F8D6D6D6D6D98
:103B90006D6DAF6DFEFDFC6DFBFABAF1190F7CD0B7
:103BA00046DCBAF1140F79D0BAF1160F77D0BAF11A
:103BB000170F75D0BAF1180F53D124E22C4A002008
:103BC000484C00200000024018040240180C02403B
:103BD000496E76616C696420617474656D707420DF
:103BE000746F206368616E676520666565646261F5
:103BF000636B20747970652E00000000257300004F
:103C0000D84A0020C8480020661912250D0A4545EB
:103C10005772697465204F4B2E0D0A000D0A4545F9
:103C20005772697465206661696C65642E0D0A00BF
:103C3000BAF11A0F7ED0BAF11B0F7CD0BAF5C87F4B
:103C4000BAD150E2F448C0F800B00168F3A001F026
:103C500099FB08200390F8480490DDE9030106F081
:103C600089FB6DE22FE14FF0000905E00020F349E8
:103C700041F8290009F10109B9F10A0FF6DBEF4813
:103C8000C0F800A0E4480068EC494860E248406899
:103C90008860EB484068C86052E2FDE155E160E1B0
:103CA00062E1BBF1010F01D1012100E00021E548F3
:103CB000406E61F30000E3494866084690F86400EE
:103CC00010F0010F01D0E0A000E0E1A00146E4A067
:103CD00001F058FB08200390D7480490DDE9030168
:103CE00006F048FB2CE2D548C0F800A00020FCF705
:103CF000E1FEF0EE408A07F0A7FBD04948600120C2
:103D0000FCF7D8FEF0EE408A07F09EFBCB498860B6
:103D10000220FCF7CFFEF0EE408A07F095FBC74982
:103D2000C8600320FCF7C6FEF0EE408A07F08CFB6B
:103D3000C24901E0B9E1C1E108610420FCF7BAFE23
:103D4000F0EE408A07F080FBBC4948610520FCF793
:103D5000B1FEF0EE408A07F077FBB8498861062093
:103D6000FCF7A8FEF0EE408A07F06EFBB349C8618D
:103D70000720FCF79FFEF0EE408A04E05BE053E092
:103D800046E02DE00AE007F05FFBAC4908629FEDDA
:103D9000C00A07F059FBA9494862D1E1012003900C
:103DA000BBF1060F13D2DFE80BF0120306090C0F6C
:103DB000012004900EE0022004900BE00320049008
:103DC00008E00420049005E00520049002E00020B3
:103DD000049000BF00BFDDE9030106F0CBFAAFE1BC
:103DE0004FF0000905E00020944941F8290009F14D
:103DF0000109B9F10A0FF6DB9048C0F800A0A54808
:103E000040688E494860A3488068401C886097E1FC
:103E100002200390584607F01AFB8DED040ADDE9F5
:103E2000030106F0A7FA8BE104200390DDE903010A
:103E300006F0A0FA84E18148C0F800A09548D0F8C7
:103E400038017E4948609348D0ED070AB0EE600A19
:103E500007F0FAFA794988608E48D0ED060AB0EE8C
:103E6000600A07F0F1FA7549C8608A48D0ED050A82
:103E7000B0EE600A07F0E8FA704908618548D0EDB5
:103E8000040AB0EE600A07F0DFFA6C494861814825
:103E9000D0ED030AB0EE600A07F0D6FA67498861F0
:103EA0009FED7B0A07F0D0FA6449C8619FED780A5C
:103EB00007F0CAFA614908629FED750A07F0C4FA73
:103EC0005E4948623CE15D48C0F800A004F086FB12
:103ED000F0EE408A07F0B8FA5849486004F08DFBCC
:103EE000F0EE408A07F0B0FA5449886004F094FB81
:103EF000F0EE408A07F0A8FA5049C86004F09BFB36
:103F0000F0EE408A07F0A0FA4C4908619FED600A84
:103F100007F09AFA494948619FED5D0A07F094FA63
:103F2000464988619FED5A0A07F08EFA4349C861F5
:103F30009FED570A07F088FA404908629FED540A3E
:103F400007F082FA3D494862FAE00720039058469C
:103F500007F07DFA8DED040ADDE9030106F00AFAA7
:103F6000EEE005F095F9EBE03448C0F800A0002041
:103F7000324948602848D0ED030AB0EE600A07F0E5
:103F800063FA2E4988602448D0ED040AB0EE600A36
:103F900007F05AFA2949C8601F48D0ED060AB0EE6A
:103FA000600A07F051FA254908611B48D0ED050A5F
:103FB000B0EE600A07F048FA204948612048D0ED89
:103FC000030AB0EE600A07F03FFA1C4988611C48FA
:103FD000D0ED040AB0EE600A07F036FA1749C8615E
:103FE0001748D0ED050AB0EE600A07F02DFA134924
:103FF00008621348D0ED060AB0EE600A07F024FA12
:104000000E4948629CE0082003900B480490DDE9CB
:10401000030106F0AFF993E0D84A00200D0A53657A
:104020007269616C206E756D6265722073657420B3
:10403000746F2025750000006619122540200020AD
:10404000484C00202C4A002052532D3233320000BD
:10405000496E7465726E616C20686561646572009A
:104060000D0A417420746865206E65787420706F45
:1040700077657220757020646562756720706F7255
:10408000742077696C6C2062652025732E00000017
:10409000000000003450002008200390FB480490EA
:1040A000DDE9030106F066F94AE003200390CDF84C
:1040B00010B0DDE9030106F05DF941E04FF00009C1
:1040C00005E00020F24941F8290009F10109B9F1A0
:1040D0000A0FF6DBEE48C0F800A0EE488068401CEE
:1040E000EB4948602CE0ABF5E060C53827D1059876
:1040F00028BBE9A001F046F96420FCF787FA72B604
:10410000EC48006820F48000EA490860084600682E
:1041100020F400100860E848E849086000BFBFF3D9
:104120004F8FE748006800F4E060E6490843001D4F
:10413000E3490860BFF34F8F00BF00BFFEE700BF39
:1041400000BF14E0162020802820A070207940F0C5
:10415000800020712822CE49284607F09AFC2E20A4
:10416000F86504E0D8A00C9901F00CF900BF00BF7D
:104170000DB0BDEC028BBDE8F08F70B5044640F287
:10418000616020800A20A0700020E07081202071F2
:10419000502060711020E065A51D01202880FEF7E9
:1041A000DCFE6880FEF7E8FEA880FEF71DFFC5F87C
:1041B0000600CE48C069401CCC49C86108468069E9
:1041C000012806D10846C069096A884201DD00203D
:1041D000E06570BD2DE9F041064688461446002092
:1041E000E065C3480068864201D1BDE8F081002E39
:1041F00024D0812020804420A0700020E070812005
:104200002071502060714A20E065A51D00202880A3
:1042100006F500406880002703E00021281DC155F5
:104220007F1C402FF9DB43464022AFF6B861281DC2
:1042300007F092F9291DAFA001F0A4F8AC48066080
:1042400000BFD2E72DED068B8AB00027B8460BF0F1
:1042500096FF01F053FAFCF75FF9FCF7B4F964201C
:10426000FCF7E4F9FCF700FA00F02AFF4FF00050E9
:10427000A4490860FDF7EAFEFEF744F8FEF7A4FC47
:10428000FEF744FAFEF75CFBFCF794FAFDF712FD2B
:10429000FCF7EDFFFCF72EFF002004F06DFA9FED18
:1042A0009A0A04F017F91FED860A04F061F940201C
:1042B00096490860802093490860FCF72DFC46F27F
:1042C000A810FCF7B3FEFCF775FE1FED8F0AFCF794
:1042D000BBFD62B60A20FCF799F94FF480108949BA
:1042E0000860FA20FCF792F94FF0807088498861E5
:1042F0004001884908600520FCF788F94FF4807078
:1043000083498861400183490860C0037F49086090
:10431000C0007F498861000D7A4908601FEDA40A3A
:1043200004F06BF80A20FCF771F97B48FDF773FC89
:104330004FF4007075490860FCF734FB4FF4FA70D5
:10434000FCF764F94FF480407249086004F05CFAAD
:10435000212004F079FA4FF400506A4908600120E6
:1043600004F089F9082004F086F9202004F083F98C
:104370004FF4005004F07FF900234FF4B272194655
:10438000664804F0EBFA6548D0F860013F49C9433C
:10439000884212D1614890F81C0110F0010F0CD036
:1043A0005F48604B0ECB0EC05F49604AD2E9000304
:1043B0009268C1E9013208600BE059485B4B0ECBB3
:1043C0000EC0594A5A4BD3E900109B68C2E9010359
:1043D000116058A000F0D6FF60A000F0D3FF55A0F8
:1043E00000F0D0FF6748D0F80E1067A000F0CAFFB9
:1043F0009FED6B0B53EC102B6BA000F0C3FF04F090
:10440000D1FD05466DB96F48D0F8C00020F004001A
:10441000001D6C49C1F8C00003F076FE04F03BFAC1
:1044200013E06848D0F8C00020F004006549C1F8E6
:10443000C000294664A000F0A5FF6248D0F8C4007F
:1044400040F001005F49C1F8C40067A000F09AFF86
:104450003248D0F8B4000D49C943884213D1B8227C
:104460002E49664807F05AFB564840682B49496870
:10447000884209D15348D0F8C40020F002005149C5
:10448000C1F8C400BCE0CDE0BEE0000099E6EDDA82
:1044900040200020345000200D0A456E746572697A
:1044A0006E6720626F6F746C6F616465722E2E2E62
:1044B0000D0A000030380240EFBEADDEF01F0020D4
:1044C0000CED00E00000FA050D0A556E68616E649F
:1044D0006C65642041505420636F6D6D616E643A69
:1044E000203078253034580D0A000000104D00208F
:1044F000A40400200D0A415054204572723A203C19
:1045000025733E00180C0240CDCC5C4018040240DC
:10451000000002401808024010002000C848002097
:104520008804002050030108AC040020EC020108BC
:10453000F80201080D0A2D2D2D2D2D2D2D2D2D2D9F
:104540002D2D2D2D2D2D2D2D2D2D2D2D2D2D2D2D9B
:104550002D2D2D2D2D2D2D2D000000000D0A50503C
:1045600043303031205049455A4F204D4943524F36
:1045700053434F505920434F4E54524F4C4C455289
:1045800000000000DC0800200D0A0A4669726D7701
:10459000617265207265763A092530365800000050
:1045A00000000000000064400D0A53797374656DCB
:1045B00020636C6F636B3A09252E3266204D487A72
:1045C00000000000484C00200D0A4F6E65576972CC
:1045D00065206572726F723A20737461747573200E
:1045E0003D2025640D0A00000D0A0A43616C6962D2
:1045F000726174696F6E3A0900000000D84A0020A9
:10460000FBA000F0BFFE18E0FC48D0F8C40040F06A
:104610000200FA49C1F8C400F9484168F94800F0BD
:10462000B1FE0AE0F548D0F8C40040F00200F349BA
:10463000C1F8C400F4A000F0A5FEF148D0ED030AD3
:10464000B0EE600A03F05EFFED48D0ED040AB0EE74
:10465000600A03F03FFFEA4890ED030A10EE101ADB
:1046600008460BF00DFD41EC100BB0EE408AF0EE69
:10467000608A53EC182BEEA000F084FEE04890ED29
:10468000040A10EE101A08460BF0FAFC41EC100B6D
:10469000B0EE408AF0EE608A53EC182BEAA000F0EE
:1046A00071FED748D0ED060AB0EE600A03F03DFF78
:1046B000D348D0ED050AB0EE600A03F059FFD048A8
:1046C00090ED060A10EE101A08460BF0D9FC41ECEA
:1046D000100BB0EE408AF0EE608A53EC182BDFA08E
:1046E00000F050FEC64890ED050A10EE101A08467C
:1046F0000BF0C6FC41EC100BB0EE408AF0EE608A85
:1047000053EC182BDBA000F03DFEE0A000F03AFED9
:1047100000241CE0BA48603000EB840090ED000AF1
:1047200010EE101A08460BF0ABFC41EC100BB0EE8B
:10473000408AF0EE608A042C01D0D8A000E0C1A02D
:1047400053EC182B0090D6A000F01CFE641C052C26
:10475000E0D3D5A000F016FE00241CE0A8484C30A1
:1047600000EB840090ED000A10EE101A08460BF0E2
:1047700087FC41EC100BB0EE408AF0EE608A042C0E
:1047800001D0C6A000E0AFA053EC182B0090C4A04D
:1047900000F0F8FD641C052CE0D305229749903108
:1047A0009748603005F05EFC05463DB19348D0F86F
:1047B000C00020F040009149C1F8C0008F4890F837
:1047C000C000C0F3801008B1BBA000E0BBA0014650
:1047D000BBA000F0D7FDBFA000F0D4FDC248D0F8C8
:1047E0006001C249884209D181A000F0CBFDAC2212
:1047F000BD49B831BE4807F091F902E082A000F04F
:10480000C1FD7F480168BBA000F0BCFDB84890ED39
:10481000000A10EE101A08460BF032FC41EC100BA7
:10482000B0EE408AF0EE608A53EC182BB5A000F091
:10483000A9FDAF4890ED030A10EE101A08460BF0E0
:104840001FFC41EC100BB0EE408AF0EE608AA848E5
:1048500090ED020A10EE101A08460BF011FC41EC24
:10486000100BB0EE409AF0EE609AA14890ED010A6C
:1048700010EE101A08460BF003FC41EC100BB0EEE2
:1048800040AAF0EE60AA8DED028B8DED009B53ECFB
:104890001A2BA2A000F076FD9548406A012801D1AC
:1048A00085A000E085A00146A7A000F06BFD904820
:1048B00090ED0D0A10EE101A08460BF0E1FB41ECEA
:1048C000100BB0EE408AF0EE608A894890ED0B0A3A
:1048D00010EE101A08460BF0D3FB41EC100BB0EEB3
:1048E000409AF0EE609A8DED008B53EC192B9BA053
:1048F00000F048FD7E48806A012801D16EA000E0EA
:104900006EA001469BA000F03DFD794890ED0E0A97
:1049100010EE101A08460BF0B3FB41EC100BB0EE92
:10492000408AF0EE608A724890ED0C0A10EE101A80
:1049300008460BF0A5FB41EC100BB0EE409AF0EEF0
:10494000609A8DED008B53EC192B84A000F01AFDBA
:10495000674890F86400C0F3C01020B14FF4804065
:1049600003F089FE0DE06249B1F86410C1F3002143
:1049700011B14FF4005101E04FF48051084603F0AB
:104980007AFE5B4890F86400C0F340011B48D0F801
:10499000C00061F304101949C1F8C000544890F8F0
:1049A0006400C0F3C00020B14FF000407649886138
:1049B00003E04FF40040744988614D4890F864006A
:1049C000C0F3001020B14FF480007049086002E08D
:1049D00040206E490860464890F86400C0F34010DB
:1049E00020B14FF0805069490860D5E0D0E0000068
:1049F000646174612076616C69640000484C002039
:104A0000D84A0020040301086461746120696E764D
:104A1000616C69642C207573696E672064656661DA
:104A2000756C7420706172616D65746572730000DD
:104A30000D0A53696E6520667265713A09252E303C
:104A40006620487A000000000D0A53696E652061F7
:104A50006D706C3A09252E33662056000D0A4465A8
:104A60006D6F642070686173653A09252E33662086
:104A7000646567000D0A44656D6F64206F66667338
:104A800065743A09252E3366205600000D0A506FD2
:104A90006C7920706F776572733A09002C200000E2
:104AA000252B6625730000000D0A506F6C7920637A
:104AB0006F656666733A09006F6E00006F66660088
:104AC0000D0A506F6C7920636F72723A0925730A70
:104AD000000000000D0A55736572204F705061721E
:104AE000616D733A09000000C8480020661912255C
:104AF0002C4A00200D0A556E697420532F4E3A0936
:104B0000257500000D0A55736572204856206C69A2
:104B10006D69743A09252E31662056000D0A5049F8
:104B20004420706172616D733A0950203D20252E3A
:104B300030662C2049203D20252E30662C20442034
:104B40003D20252E306600000D0A4E6F74636820EC
:104B500023313A0925732C20000000006663203DB4
:104B600020252E316620487A2C2051203D20252EEC
:104B7000316600000D0A4E6F7463682023323A09D3
:104B800025732C20000000000000024018040240A1
:104B90004FF48050FE490860FE48006868B9FE483E
:104BA00090F86400C0F3801020B14FF40000FB497E
:104BB000086002E08020F9490860F748D0ED000A5B
:104BC000B0EE600A03F002FCF24908639FEDF40ABC
:104BD00003F013FC4FF4FA70FBF718FD4FF400409C
:104BE000F0490860F0A000F0CDFB00F0A2FC63E209
:104BF00000F0DAFC0546902D02D1F4A0FEF7A6F9EC
:104C0000F948D0F8000470B9F849F748FEF74AFAB5
:104C1000F648C06D18B1F548C16D00F013FD0121D3
:104C2000F148C0F8001400F022FDFEF7FFF8054639
:104C3000902D02D1E5A0FEF789F9ED48D0F80004E7
:104C400070B9EA49EA48FEF72DFAE848C06D18B194
:104C5000E648C16DFEF739F90121E548C0F80014B6
:104C6000FEF748F9FBF7FAFC00287DD0E14800691F
:104C700030B1DE48FFF781FADC48C16D00F0E2FC9C
:104C8000DC48406930B1D948FFF777FAD748C16DA1
:104C9000FEF71BF9BF48006A00280FDDBD4991F8F7
:104CA0002020096A491EBB4B196212F0040F01D083
:104CB000022100E00121084603F0DDFC03F0BEFB09
:104CC000B449D1F8C4100843B249C1F8C40003F094
:104CD000D2FD38B1AF48D0F8C40040F48050AD499F
:104CE000C1F8C40003F0BCFD68B1AA48D0F8C40004
:104CF00040F40050A749C1F8C4001020A74908603B
:104D0000642003F0A1FDA348D0F8C40068B3A14813
:104D1000D0F8C400B8490968884223D09D48D0F82B
:104D2000C410B6A000F02EFB082004F02BF80124DC
:104D300016E09848D0F8C400204210D09549D1F828
:104D4000C41001EA040000F0C1FC06469148D0F806
:104D5000C40000EA04023146AEA000F013FB640078
:104D6000002CE6D18B4801E0B5E003E0D0F8C400A8
:104D7000A14908609F480068012846D1FBF71AFC4A
:104D800006469C4881883046FBF719FC44F62061B2
:104D900088423ADD7F48D0F8C4009649896A0840C5
:104DA0009449496A00EA0106304600F08FFC8146CA
:104DB0008E4A49463046FFF70DFA8E488068012832
:104DC00004D18A48C16D00F03DFC07E08948C06805
:104DD000012803D18548C16DFEF777F856B16D48BB
:104DE000D0F8C4008349496A08408249896A8143EE
:104DF000804881627F48406A40007E494862084698
:104E0000406A08B90120486200BF04F0F1F8054685
:104E10000A2D02D104F0E8FC09E00B2D07D15D4812
:104E2000D0F8C40040F480305A49C1F8C40004F0FE
:104E300036FA05460C2D07D15648D0F8C40040F488
:104E400000405449C1F8C40003F01BFDC0F3001139
:104E50005048D0F8C00061F300004E49C1F8C000CE
:104E6000084690F8C00000F00100B8420ED0084695
:104E700090F8C00000F00100070007D0C96909B927
:104E8000022100E00021084604F0B2FC4048083846
:104E90000068012121EAD0213E48D0F8C00061F32A
:104EA00041003C49C1F8C000084690F8C000C0F37A
:104EB000400040450FD0084690F8C000C0F34000C5
:104EC0005FEA000807D0C96909B9022100E00021A2
:104ED000084604F08DFC03F08EFE2E49C1F8A400B4
:104EE0002D4890F86400C0F38000B0B30846D0F8B5
:104EF000A40090B30846C06980BB084690ED100A34
:104F0000D0ED290AF8EEE00A9FED451A01EE200ADD
:104F100080ED100A90ED100A1F48D0ED000AB4EEA3
:104F2000E00AF1EE10FA05DD90ED000A084680ED8A
:104F3000100A0BE0174890ED100AB5EEC00AF1EE2A
:104F400010FA03D29FED160A80ED100A1148D0ED39
:104F5000100AB0EE600A03F050FA7BE0FFE70D485C
:104F6000C069022876D10B4890ED1B0AD0ED290AC2
:104F7000F8EEE00A9FED2B1A01EE200A80ED1B0AE5
:104F800090ED1B0AF1EE040AB4EEE00A4CE061E099
:104F900018040240484C00202C4A0020180C024003
:104FA00000000000180802400D0A0A507265737371
:104FB00020456E74657220666F7220646562756745
:104FC000206D656E752E0D0A00000000496E766139
:104FD0006C696420415054206D657373616765206E
:104FE000666F726D61742E00C80400206820002076
:104FF00084000020104D0020A80400200D0A4572F6
:10500000726F722C20636F6465203D2030782558C4
:105010003A0D0A002573202830782558290D0A00FA
:105020006F12833A17B7D138F1EE10FA04DDB1EE02
:10503000040A80ED1B0A0DE0204890ED1B0AFEEEED
:10504000000AB4EEE00AF1EE10FA03D2BEEE000A56
:1050500080ED1B0A1948D0F8C40047F6FC4108420D
:1050600003D0042003F007FB02E0082003F003FB59
:105070001249C969022901D1102100E02021084606
:1050800003F0F9FA06F04DFA03A805F079F9DDE925
:105090000301CDE9080102A8DDE9081205F069FA6B
:1050A00002A807C805AB07C305A807C805F08FFE0F
:1050B00005F06BF901F098F89AE50000484C0020E3
:1050C0009C48006840F001009A4908609A489B4952
:1050D0008861084600689A4908439849086008466C
:1050E00000689849084095490860084680689649D4
:1050F0000840924988608F48006840F002008D495E
:1051000008604FF49A509149086090481838006838
:105110008F4908438D4918390860084600688D4951
:1051200008408A49183908608848103800688A4958
:10513000084086491039086084481838006820F40F
:10514000404082491839086080480C38006820F4D3
:1051500040407E490C3908607C481838006820F4CB
:1051600040007A491839086078480C38006820F403
:10517000400076490C3908606E48006840F0040031
:105180006C4908604FF060407449086073481838F3
:10519000006840F0A8407149183908600846006866
:1051A00020F0284008606D481038006820F07C40EE
:1051B0006A49103908605F48006840F008005D499E
:1051C00008601B206649086065481838006840F28E
:1051D000451108436249183908600846006840F2E2
:1051E0008A2188435E49183908605D481038006894
:1051F00040F2CF3188435A49103908604FF460407B
:1052000057490860564818380068564908435449B9
:105210001839086008460068534908405049183951
:1052200008604F4810380068504908404C49103910
:105230000860C8144A49086049481838006840F4B2
:1052400080004749183908600846006820F40000CB
:10525000086043481038006820F440004049103985
:1052600008603448006840F0100032490860404847
:1052700040498861084600683F4908433D49086045
:10528000084600683D4908403A49086008460068F9
:105290003B490840374908600846C068384908401B
:1052A0003449C8604FF4801088610846006840F4B3
:1052B000807008600846006820F4007008600846A6
:1052C000006820F4406008600846C06820F4406030
:1052D000C86070471748006840F00400154908602E
:1052E0001E481838006820F480201C4918390860CE
:1052F0000846006840F400200860081D006820F49B
:105300000070091D086015480C38006820F4402022
:1053100012490C390860081F006840F44020091F3A
:1053200008600E481838406A20F0F0000B49183920
:10533000486270473038024000800001000002409F
:1053400000000140FFFFFD7FFFFFFC3F180402400B
:1053500000100501FFDFF5FDFFCFF0FC180802404B
:10536000180C024000401054FF7FDF57FF3FCF036F
:1053700000000F01001002405500010055FFFDFF25
:10538000FFFFF3000FB438B505A800907C49096809
:105390007C4A12688818009A049906F0CBF80446F3
:1053A0007848006820447749086000200090204633
:1053B00038BC5DF814FB2DE9F04104460F4600258A
:1053C000A84600BF7049086880470646A0F57F419F
:1053D000FF3925D0082E04D00A2E13D00D2E14D15B
:1053E0000FE06DB1082169A0FFF7CCFF202167A075
:1053F000FFF7C8FF082165A0FFF7C4FF6D1E641EFC
:105400000DE000BF4FF0010809E0BD4206D2314671
:105410005EA0FFF7B7FF04F8016B6D1C00BF00BF73
:10542000B8F1010FCED1002004F8010B2846BDE8E9
:10543000F0812DE9F04105460E46002754480068EA
:1054400008B9544805603DE0082C04D00A2C1DD052
:105450000D2C20D119E04E480068A8B108214BA0BE
:10546000FFF790FF202149A0FFF78CFF082147A0FC
:10547000FFF788FF46480068401E454908604548D8
:105480000068401E434908601BE000BF0127002060
:105490003F49086015E03E480068B04210D22146FE
:1054A0003AA0FFF76FFF3B4909680C703948006864
:1054B000401C3849086036480068401C3449086080
:1054C00000BF00BF3049086880470446A0F57F410F
:1054D000FF39B9D16FB100202E49096808702D48F5
:1054E0000068401C2B49086008460068401BBDE866
:1054F000F0810020FBE710B522480068C0B12249C6
:1055000088688047A0B1204842681E4801681C484E
:10551000006890471A4800681F49884202D101F587
:10552000805000E01C4816490860002015490860BA
:1055300010BD10B500E000BF1349886880470028FF
:10554000F9D0FFF7D8FF10BD70B505460E4613A081
:10555000FFF718FF00240FE0295D11A0FFF712FFED
:10556000E11704EB11710911A4EB01110F2902D10C
:105570000AA0FFF707FF641CB442EDDB70BD00001A
:10558000B8040020BC040020AC0400202563000007
:10559000C0040020C4040020C82000200D0A000020
:1055A000253032582000000070B501253E4E3046AF
:1055B000D0F80004012801D0022070BD35E03B483E
:1055C00002680068401C394B1860374884541846FC
:1055D000006806281BD13448007910F0800F02D0F3
:1055E0003148807800E00020801D314908602E4855
:1055F000007900F07F00502807D12B48407901281E
:1056000003D108460068802801D99020D5E72748B3
:10561000006827490968884207D1002023490860AB
:1056200000212148C0F8001403251F48D0F80004C9
:1056300030B1FCF711FE0446A0F57F41FF39BED121
:105640002846BAE710B51B4B1B681B4C24681A1977
:10565000194B1B680B44184C236003E010F8013B06
:1056600002F8013B0B00A1F10101F7D110BD10B50B
:1056700011480068B0B1FCF731FE98B10E480168DE
:105680000C480068FCF705FE0A4800680B49884290
:1056900002D101F5806000E008480649086000205A
:1056A0000549086010BD0000C8040020D40800208F
:1056B000D8080020CC080020D0080020C8400020D6
:1056C0004FF6FF7070477047012070470246002177
:1056D000D74B18680AE0D74B53F83130134204D047
:1056E000D44B03EBC103586806E0491CD14B03EBD4
:1056F000C1035B68002BEED100BF704710B586B0C8
:105700000020CD49086008614861C8618861322085
:10571000086201204862801E8862C848C849086043
:105720004FF0FF304860022088609FEDC60A0846AF
:1057300080ED030AB7EE000A80ED040A9FEDC20A6D
:1057400080ED050A9FEDC00A80ED060A9FEDBF0AB5
:1057500080ED080A9FEDBE0A80ED070A9FEDBD0AA5
:1057600080ED090A9FEDBC0A80ED0A0A9FEDBB0A95
:1057700080ED0B0A9FEDB40A80ED0C0A9FEDB80A8C
:1057800080ED0D0A9FEDB00A80ED0E0A9FEDB50A7F
:1057900080ED0F0AB0EE040A80ED100A9FEDB20A08
:1057A00080ED110A9FEDB10A80ED120A9FEDB00A5B
:1057B000B04880ED110A002417E0012C02D1B7EEA9
:1057C000000A01E09FEDA00A9D484C3000EB8400E8
:1057D00080ED000A00EE104AB8EE400A98486030AA
:1057E00000EB840080ED000A641C052CE5D3A24880
:1057F0009349C1F8B400B822A04806F08FF90522F9
:105800009C4990318E48603004F02CFC9C48406EDE
:1058100020F001009A4948660846406E20F00200D8
:1058200048660846406E20F0040048660846406E10
:1058300020F0080048660846406E20F010004866D8
:105840000846406E20F0200048660846406E20F072
:105850004000403048660846406E20F080004866B0
:105860000846406E20F4807000F5807048669FED19
:10587000850A084680ED010A9FED830A80ED020A41
:105880009FED820A80ED030A9FED810A80ED0B0AED
:10589000B0EE000A80ED0D0A90ED0D1AF0EE410A0F
:1058A00090ED0B1AB0EE410A01A804F04FFC14224F
:1058B00001A973483C3006F031F901207049486273
:1058C0009FED740A084680ED0C0AB0EE000A80EDE8
:1058D0000E0A90ED0E1AF0EE410A90ED0C1AB0EEA1
:1058E000410A01A804F032FC142201A96448503096
:1058F00006F014F90121624881629FED670A80ED8C
:10590000050AB7EE000A80ED040A9FED4F0A80ED0C
:10591000060A9FED4D0A80ED070A002058490862EB
:105920009FED5E0A084680ED000A9FED470A02F0EF
:1059300039FE00204F49086048600846D0F8C00092
:1059400020F008000830C1F8C000002088609FEDFA
:105950003E0A084680ED030A9FED3B0A80ED040AEB
:105960009FED390A80ED050A9FED370A80ED060AA2
:105970000020C86108629FED340A084680ED0E0AD7
:105980009FED310A80ED100A0020C1F8A400C1F893
:10599000A8009FED420A02F019FD36490863BBEEEC
:1059A0000E0A02F013FD334948639FED270A02F007
:1059B0000DFD3049C863012048679FED230A084662
:1059C00080ED1B0AB7EE000A80ED120AB6EE000A5F
:1059D00080ED130AB2EE040A01A804F08DFC142233
:1059E00001A92448AC3006F099F82248D0F8C0004C
:1059F00020F0200020301F49C1F8C0000846D0F830
:105A0000C00020F040004030C1F8C0000020C1F8C4
:105A1000C4000846D0F8C00020F00400C1F8C0005F
:105A200064201F4908809620488006B010BD000001
:105A30003009002070030108104D002000639F0210
:105A4000D84A00200050C34600000000A3A13C48F3
:105A50008776AC45020048B7989999CA0200C8B544
:105A600081A4A0B50000A0B8E16BAF460068BD45B9
:105A700000004843484C002099E6EDDA904B0020A6
:105A80002C4A002000C0A8450000F0430000484216
:105A90000000A6420000D64200007A4400001643EF
:105AA00034090020F0B52DED048B85B0FE48006868
:105AB00010287BD1FAF77EFD0746FB48818A3846DD
:105AC000FAF77DFDF849898889B288426EDDFAF7D8
:105AD00071FDF5498882F54890F8C000C0F3801048
