:020000040800F2
:1000000078700020F50200081303000815030008AB
:1000100017030008190300081B0300080000000074
:100020000000000000000000000000001D030008A8
:100030001F03000800000000ED390008230300083A
:1000400025030008250300082503000825030008F0
:1000500025030008250300082503000825030008E0
:1000600025030008250300082503000825030008D0
:1000700025030008250300082503000825030008C0
:100080002503000825030008250300082D4E00085D
:10009000354D000825030008250300082503000846
:1000A0002503000825030008250300082503000890
:1000B000250300080149000825030008250300085E
:1000C0002503000825030008250300082503000870
:1000D0001949000825030008250300082503000826
:1000E00025030008DF100008250300082503000889
:1000F0002503000825030008250300082503000840
:10010000250300082503000825030008250300082F
:10011000250300082503000825030008250300081F
:10012000250300082503000825030008250300080F
:1001300025030008250300082503000825030008FF
:1001400025030008250300082503000825030008EF
:1001500025030008250300082503000825030008DF
:1001600025030008250300082503000825030008CF
:1001700025030008250300082503000825030008BF
:10018000250300082503000800F002F800F0A2F89B
:100190000AA090E8000C82448344AAF10107DA45E2
:1001A00001D100F097F8AFF2090EBAE80F0013F092
:1001B000010F18BFFB1A43F001031847A8C700003E
:1001C000C8C700000A4410F8014B14F00F0508BF1F
:1001D00010F8015B240908BF10F8014B6D1E05D013
:1001E00010F8013B6D1E01F8013BF9D1641E03D0EC
:1001F000641E01F8015BFBD19142E4D3704700001B
:100200000023002400250026103A28BF78C1FBD81F
:10021000520728BF30C148BF0B6070476E2908F0F5
:100220000585702908F05A8566290AF054866529E3
:100230000AF0518667290AF04E866129AFF30080E3
:1002400003681B0A28BF41F08001692908F0B284C5
:10025000642908F0AF84752908F0AC846F2909F08F
:100260008F83782908F02685E92909F02783E42976
:1002700009F02483F52909F02183EF2909F08C8303
:10028000F82908F025850368DB0928BF41F08001C3
:10029000632909F0A882732909F0AD82E32909F0E6
:1002A0006584F32909F06A84002070471FB50AF0BD
:1002B0000DFE09F0BFFB0400002000210AF0DCFA6B
:1002C000401C6060002000210AF0C0FAE0601FBD01
:1002D00010B510BD09F0A4FE1146FFF7E7FF01F0CD
:1002E0000BFF09F0CBFE03B4FFF7F2FF03BC09F0EC
:1002F000CBFE00000F481049026800608A4203D01C
:100300000E4880470E4800470E48D0F800D040689D
:100310000047FEE7FEE7FEE7FEE7FEE7FEE7FEE753
:10032000FEE7FEE7FEE7000007480849084A094BD8
:1003300070470000F01F0020EFBEADDE8B120008FA
:10034000890100080000FF1F786A002078700020F3
:10035000786C0020786C0020FE48006840F00100B6
:10036000FC4908604FF40030FB498861084600688A
:1003700040F0040008600846006820F008000860AB
:100380000846806860F00C00886004208861084698
:10039000006840F0100008600846006820F0200067
:1003A00008600846806860F03000886088008861D6
:1003B0000846006840F0400008600846006820F0E9
:1003C000800008600846806860F0C00088604020B7
:1003D00088610846006840F480500860084600685C
:1003E00020F4005008600846806860F4405088603F
:1003F000D848006840F00200D64908604FF48030C9
:10040000D6490860D5481838006840F00100D34943
:10041000183908600846006820F002000860CF48DC
:100420001038006860F00300CC49103908604FF4C0
:100430000030CA490860C9481838006840F0040014
:10044000C649183908600846006820F008000860AE
:10045000C2481038006860F00C00C04910390860CC
:100460001020BE490860BD481838006840F480700C
:10047000BA49183908600846006820F4007008601E
:10048000B6481038006860F44070B449103908600C
:10049000B048006840F00400AE4908600120B0494F
:1004A0000860AF481838006840F00100AC491839BE
:1004B00008600846006820F002000860A84810386C
:1004C000006860F00300A649103908600220A449C2
:1004D0000860A3481838006840F00400A0491839A3
:1004E00008600846006820F0080008609C48103842
:1004F000006860F00C009A4910390860042098499F
:10050000086097481838006840F01000944918397E
:1005100008600846006820F0200008609048103805
:10052000006860F030008E49103908604FF4801088
:100530008B4908608A481838006840F48070884900
:10054000183908600846006820F400700860844884
:100550001038006860F4407081491039086040200C
:100560007F4908607E481838006840F480507C4914
:10057000183908600846006820F400500860784880
:100580001038006860F440507549103908604FF425
:1005900000407349086072481838006840F0804095
:1005A0006F49183908600846006820F0004008606C
:1005B0006B481038006860F04040694910390860A5
:1005C00066481838006820F44060644918390860AB
:1005D00062480C38006820F4406060490C390860BB
:1005E0005E481838006820F440405C4918390860BB
:1005F0005A480C38006820F4404058490C390860CB
:1006000056481838006820F040705449183908607E
:1006100052480C38006840F0807050490C3908602E
:100620000846006820F0007008604D4818380068DF
:1006300020F0C0004A491839086049480C38006861
:1006400020F0C00046490C39086045481838006859
:1006500020F0406042491839086041480C38006871
:1006600020F040603E490C3908603D481838006869
:1006700020F040503A491839086039480C38006871
:1006800020F0805036490C3908600846006840F078
:1006900000500860704708B1402101E04FF480012C
:1006A0002D4A9161704708B1022101E04FF40031F9
:1006B000294A91617047294808380068012121EAD8
:1006C000501070470121264A1160254918390868E1
:1006D00020F0030040F0010020F0020008607047A5
:1006E0001E481838006820F440401C49183908603A
:1006F00080201B490860BFF35F8F184808380068E6
:10070000C0F3C01070474FF48031154A116008B132
:10071000802101E04FF40001104A11600F4918399F
:10072000096841F480410D4A183A116070470C483D
:100730001838006820F0C000094918390860022004
:1007400007490860BFF35F8F054808380068C0F3A9
:10075000C0007047303802400000024018040240D8
:10076000180802404FF400311E4A116008B10821F8
:1007700001E04FF400211B4A11601A491839096839
:1007800041F04001174A183A1160704708B108213A
:1007900001E04FF40021144A9161704710B1012823
:1007A0000ED106E04FF48031104A11600221116031
:1007B0000DE04FF400310D4A11600121116006E097
:1007C0004FF48031094A11604900116000BF00BF39
:1007D000704708B1042101E04FF48021014A116003
:1007E0007047000018080240000002401804024050
:1007F0008448006840F480208249086081481038AD
:100800000068814908437F49103908607F480068C3
:1008100020F480107D4908600846006840F400100C
:100820000860081D006820F48060091D0860774892
:100830000C30006820F4401074490C310860081F27
:10084000006820F44010091F08607048406A20F4D6
:10085000706040F4E0616D484162006820F48000FF
:100860006A4908600846006840F40000086067486C
:100870000C30006820F4400064490C310860634883
:10088000406A20F4704040F4E0416048416240F228
:100890006D105F49088000205D4908310880091DFE
:1008A00008805B48001D008840F400505849091D2D
:1008B000088057480C30008840F0C00054490C3183
:1008C00008805448806D20F001005249886500E09E
:1008D00000BF5048806D10F0010FF9D14D48806D78
:1008E00020F060604B4988650846806D40F00060EC
:1008F00088650846806D40F4886088654448001F1C
:1009000008660020C8650846806A20F001008862F9
:1009100000E000BF3F48806A10F0010FF9D13D4868
:10092000806A20F060603B4988620846806A40F037
:10093000006088620846806A40F4A060886234489B
:10094000001F0863344848630815C86230480838F7
:10095000008820F040002E49083908802C48001DEE
:10096000008840F00C002A49091D08802948806A47
:1009700040F001002749886270472649C96AC1F5DD
:100980008061264A1268914202D14FF6FF700FE053
:1009900022490A680968491C204B19601E49885C75
:1009A00019460968B1F5806F02D100211A4611601D
:1009B0007047184A926D22F00102164B9A6500E0CA
:1009C00000BF144A926D12F0010FF9D1114A50661E
:1009D000D1650F4A083A128822F040020C4B083BBE
:1009E0001A804FF000620B4B9A601A46926D42F0EB
:1009F00001029A65704706480838008800F04000F8
:100A0000704700004038024002002000000402400D
:100A10000848004000600240000200200000002062
:100A2000FE48006840F40030FC490860A720FC49FB
:100A3000088040F2E730091D08604010F8490C3189
:100A40000860F7480838008840F00100F449083988
:100A50000880F3481038008840F06000F0491039F1
:100A60000880081F008840F00100091F0880EC483A
:100A70002838008840F00100E94928390880E74813
:100A8000006840F48030E54908602020E54908818D
:100A90000846008940F007000881002008854FF6CD
:100AA000FF70C8620846008840F001000880DB48FB
:100AB0001438006840F00400D849143908604FF039
:100AC0000070D9490860D8481838006820F48020A0
:100AD000D549183908600846006840F400200860CD
:100AE000081D006820F40070091D0860CE480C380D
:100AF000006820F44020CC490C390860081F0068C9
:100B000060F44020091F0860C7481838406A20F088
:100B1000F00040F03001C44818384162BF48006816
:100B200040F00200BD4908600020C0490880091F4C
:100B3000086042F27440BD49091D086041F2392045
:100B4000BA4918310860B9480C38008840F4E040D0
:100B5000B6490C390880081D008840F48050091DF2
:100B60000880B2481438008840F00100AF491439B9
:100B70000880AE482838008840F00100AB49283989
:100B80000880AA481C30008840F40040A7491C3166
:100B900008807047A348406A80B270470246501AE6
:100BA00080B270479D48001F006840F010009B49CC
:100BB000091F086053209E4908854FF6FF70486260
:100BC000C8620846008840F008000880084600888F
:100BD00040F0010008807047414295484162018819
:100BE00041F0010101800188C907FCD170478B48A1
:100BF000001F006840F008008849091F0860874806
:100C00002438006840F0080084492439086000E076
:100C100000BF82482438006810F0080FF8D07F48E1
:100C20002438006820F008007C492439086000203E
:100C300080490880091F086078481438006840F02F
:100C400001007649143908607B48006820F00100F3
:100C5000794908600846006840F0020008600846CC
:100C6000006A20F00F00801C08624FF0FF307149CD
:100C7000091D086057206F49203908806D481038D9
:100C8000008840F001006B4910390880081F008877
:100C900040F00100091F088066482838008840F0AD
:100CA00001006449283908805C481438006840F025
:100CB00002005A49143908606048006820F48050E6
:100CC0005E4908600846006840F4005008605B48D0
:100CD0002030006820F0706040F0007057492031EB
:100CE00008600846006820F0704040F0005008603E
:100CF0004A48001F006840F004004849091F086086
:100D000000204F490880091F086041F267004C49E4
:100D1000091D086040104A490C3108600846006807
:100D2000091D086047F270004549103908804448A1
:100D30000838008840F001004149083908804048DF
:100D40001438008840F001003D491439088070478C
:100D500030B50346FFF71EFF044600E000BFFFF773
:100D600019FF05462146FFF719FF9842F6DB30BD13
:100D70000246344850434FF47A73B0FBF3F1B1F1BB
:100D8000807F01D3012070474FF0E020006940F0E0
:100D900001004FF0E0231861184641610020F2E79E
:100DA0004FF0E020006900F4803070470CB558B96E
:100DB000254909680191244928390968234A1160A5
:100DC00021492439096800911449091F096841F033
:100DD0008051124A121F11601D49096841F4807147
:100DE0001B4A11600D492C31096841F480310B4ACE
:100DF0002C3211601146096821F4803111601146CE
:100E0000096841F4407111601146096841F40041DC
:100E10001160CA210C4A121F11601BE044380240C5
:100E200028440140004001401808024028040140C5
:100E300000100040280C0040000002400004024066
:100E400028080040406F400128280040040000208E
:100E50000070004053211160B049096841F08001E1
:100E6000AE4A116000E000BFAC49096811F0400FC4
:100E7000F9D0AA49091D09686FF30E0142F20F72F9
:100E80001144A64A121D11601146096821F4FE01A1
:100E900041F4C6011160A2490968A04A0C3A1160E8
:100EA000A049121D11609D49096821F080019B4AEB
:100EB000116000E000BF9949096811F0800FF9D175
:100EC000FF21964A183211609449096821F02001E7
:100ED000924A11600CBD9449096841F08051924AD0
:100EE00011609249096841F48071904A11608E49FD
:100EF0003031096841F480318B4A3032116011463B
:100F0000096821F4803111601146096840F2051228
:100F10001143854A303211601146096841F400419D
:100F2000116028B18249098841F00101804A11808D
:100F3000CA217A4A18321160532111607749096831
:100F400041F08001754A116000E000BF73490968F3
:100F500011F0400FF9D07149091D09686FF30E01B6
:100F600042F20F7211446D4A121D11601146096858
:100F700021F4FE0141F48031116069490968674A32
:100F80000C3A11606749121D11606449096821F02B
:100F90008001624A116000E000BF6049096811F0F9
:100FA000800FF9D1FF215D4A183211605B49096851
:100FB00021F02001594A116070475E490140584AAA
:100FC00011607047CA21554A1832116053211160CF
:100FD0005249096841F08001504A116000E000BFA9
:100FE0004E49096811F0400FF9D0524901404B4A6F
:100FF0000C3A11604949096821F08001474A1160A3
:10100000FF21464A18321160704730B50246CA20A7
:10101000424B18331860532018604048001F006886
:1010200020F480703D4B1B1F1860181D006840F0B5
:1010300001001B1D186000E000BF3848006810F078
:10104000010FF9D03B48104040F00040334B1033C3
:101050001860C1F30E0040F07060304B38331860F8
:101060002E48006820F001002C4B186018460068DC
:1010700020F480701860181F006840F488501B1F0F
:101080001860181D006820F001001B1D1860FF206B
:10109000224B183318602848006840F40030264B73
:1010A000186025480838006840F40030224B083B9F
:1010B000186021480C30006840F400301E4B0C339F
:1010C0001860292000F01F040123A34044094FF0B9
:1010D000E02505EB8404C4F8003100BF30BD10B535
:1010E0000E48006820F480700C49086000E000BFE2
:1010F0000A48006810F4807FF9D10F480C3000686E
:1011000040F400300C490C3108600C4A9069516978
:1011100088470BA001F056FD10BD00000C280040D0
:1011200004000020024413004038024000700040D8
:10113000000800407F7F3F00083C014024670020FA
:101140000D0A52544320416C61726D210D0A00005A
:1011500000210020634A126842F48032614B1A6019
:1011600000BF604A126802F40030491C10B9B1F5A2
:10117000705FF6D15B4A1268C2F3404000287CD011
:10118000584A4032126842F08052564B40331A603F
:10119000554A126842F48042534B1A6040F205628D
:1011A000524B1A604F4A083212684E4B08331A608D
:1011B0001A46126842F400421A601A46126842F453
:1011C000A0521A601A46126822F4F81242F4402221
:1011D0001A601A46126822F07C521A601A46126887
:1011E00042F0C0621A601A46126842F060521A60F9
:1011F0001A46126822F4C0021A601A46126842F4B3
:1012000080021A601A46126822F040421A601A469A
:10121000126842F080421A60354A1B1F1A601A1F7A
:10122000126842F080721B1F1A6000E000BF2D4A56
:10123000126812F0007FF9D02A4A0832126822F0B0
:101240000302284B08331A601A46126842F0020261
:101250001A6000E000BF234A0832126802F00C0254
:10126000082AF7D1234A1F4B84331A601D4A12689B
:1012700042F080621B4B1A6001E005E000BF194A92
:10128000126812F0006FF9D0704710B51A48006864
:1012900040F47000184908601248006840F00100EE
:1012A0001049086000200F49083108600D480068A7
:1012B000124908400B4908601148091D0860081FC1
:1012C000006820F48020091F0860002005490C31C7
:1012D0000860FFF73DFF4FF0006007498039086064
:1012E00010BD00000038024000700040003C024089
:1012F0000C5440070040005088ED00E0FFFFF6FE70
:101300001030002404462146FAA001F05BFC01E005
:1013100001F0D2FCFCE70FB47FB509A80390BDF83B
:101320002000009000200190F8A00290BDF820005D
:10133000812818D1039810C80390039820C80390FF
:1013400000200090F248806BA0420CD0B4F5004F12
:1013500007D081200090019402952946EDA001F06C
:1013600031FCEB48846300200390E948806C02283C
:101370000ED1EE4A6946002000F0E8F80646012E3C
:1013800006D1EA4803F0E1F90021E84802F039FB10
:101390007FBC5DF814FB10B568220021E44802F020
:1013A0001AFE0446012C05D0E2A248F2D041812069
:1013B000FFF7B1FF012368220021DD4802F0C8FDDC
:1013C00004462CB1DDA248F2D0418120FFF7A3FFF3
:1013D00010BD70B50024CE48C068002852D044F03B
:1013E000005424F0804444F00104C94890F83C00C3
:1013F00010F0010F08D1C64890F83C00C0F340003F
:1014000010B944F0010443E0C14890F83C0010F0EA
:10141000010F28D1BE4890F83C00C0F3400010B343
:10142000FFF7B8FB0546C84801882846FFF7B6FB1A
:10143000B0F5FA7F0BDDFFF7ADFBC3490880C34869
:10144000006808B9012000E00020C0490860BF48DA
:101450000068012802D144F0100401E024F01004D7
:1014600044F0200414E0AA4890F83C0010F0010F6A
:101470000ED0A74890F83C00C0F3400040B944F0BB
:10148000100405E024F0005444F0804424F01004DB
:10149000AF48007800F07000102804D0202807D052
:1014A00040280FD109E044F4805424F4C0440AE0F9
:1014B00044F4005424F4A04405E044F4804424F4AB
:1014C000405400E000BF00BFA148006B012819D1C3
:1014D0009F48806B012808D1FFF702F910B144F44E
:1014E000801411E024F480140EE09948806B0228E7
:1014F0000AD1FFF7F5F810B124F4801404E044F4A5
:10150000801401E024F480149148406B01281BD121
:101510008F48C06B012808D1FFF709F910B144F4D6
:10152000001411E024F400140EE08948C06B022876
:1015300008D1FFF7FCF810B124F4001404E044F4DF
:10154000001401E024F40014204670BD2DE9F74F8B
:1015500086B083469146BBF1000F08D0CDF814B099
:10156000BBF8000080B204900BF1060608E0079873
:1015700030B10020059000260798008880B20490C2
:101580004C46A51D0020E0700120207150206071A4
:1015900000200390C9F800010498B0F5FA6F7BD0E1
:1015A00029DC40F21322A0EB0201904275D00EDC40
:1015B000142873D006DC052844D011286FD01228D7
:1015C0006ED1E2E015286CD01628F9D145E240F240
:1015D0004D42881A91427DD008DC10297BD0A1F5BC
:1015E00080613D3978D00829EAD1EFE3012874D031
:1015F0000228E5D10FE140F2DD72811A90426DD0F0
:1016000014DC40F2DA72A0EB0201904267D008DCF1
:10161000A0F5E060D13869D0012868D00228CFD188
:10162000F3E3012964D00229CAD1ACE3A1F1190086
:10163000062835D2DFE810F06D0491049004AE0462
:10164000CA04C904062020805420A070207940F0EC
:101650008000207154223F49284607F063FD34483A
:10166000006828602A488089A5F84C003AA00078D4
:1016700085F8420038A041784320415536A0C17812
:101680004420415534A001794520415535A00079C9
:10169000202807D1302007E000E2FDE3BFE06BE047
:1016A000B6E0DBE12FA00079462148552DA0417915
:1016B000472041552BA001784820415529A0417869
:1016C0004920415527A081784A20415500214B20CF
:1016D000415505E082E04BE098E35AE0FEE3F1E19A
:1016E0000120039002200A4988644BE3B3E3E2E35C
:1016F0004AE300000D0A4578697420776974682010
:101700006572726F723A20257300000000000000BD
:10171000246700200D0A415054206E6F7469666979
:10172000636174696F6E3A2025730000A052002037
:101730005C660020454557726974650045455665ED
:101740007269667900000000080000201400002083
:10175000C466002080B0000830393A32303A303266
:10176000000000004F6374202033203230313600F7
:101770004020F7490863B8E70120F549C864002014
:101780004863FA20FFF7E4FAAFE70020F049C864A5
:10179000ABE740F2616020800A20A0700020E0707A
:1017A000207940F08000207101202880E9480089DC
:1017B0006880E9484088A880FFF70BFEC5F806005E
:1017C00001200390E24890F84C0010F0010F04D083
:1017D000DF48406B322800DD87E700BF40F26160E0
:1017E00020800A20A0700020E070207940F0800066
:1017F000207101202880D74800896880D648408819
:10180000A880FFF7E6FDC5F80600012003906CE70D
:101810000020039069E70020CD49486365E7306800
:10182000CB4988650846806D0C2877D006DC0628F1
:1018300071D2DFE800F070122B38475912286BD0B4
:1018400004DC0D287FD00E2865D18DE0B0F5C87F6F
:101850006CD0B0F5167FF7D1E9E07068BF49086039
:1018600008460168BEA001F0ADF9BC48BA49D1E90B
:1018700000238968C0E90123C16049F65A20B749AD
:101880004866FFF788FD00200390E4E0B348006855
:10189000AF49C865002048660866B0480168B8A02E
:1018A00001F090F9D7E07068A9494860084680883F
:1018B000A949888008468188B8A001F083F90020F2
:1018C0000390C8E0B088A449488030890880084661
:1018D0004188BDA001F076F99F480188C4A001F0BD
:1018E00071F900200390B6E09B4840889849C8658C
:1018F0009948008808660020486697484188C7A034
:1019000001F060F994480188CDA001F05BF9002056
:101910000390A0E002E09BE043E014E0B08800B256
:101920008D49C8800846B0F9061000E059E0CEA005
:1019300001F048F98849B1F90600002103F047FD9C
:101940000020039087E08448B0F906008049C8650C
:101950000020486608668048B0F90610CDA001F066
:1019600031F90020039076E07068A0F5E061D63987
:1019700016D145F6A5207849886078480B46D3E90A
:1019800000219B68C0E90213426049F65A2073495E
:101990004866FFF700FDC9A001F014F9002003908C
:1019A00059E07068A0F5E061D63919D145F6A52057
:1019B00069498860694A0B460BCB121D0BC249F678
:1019C0005A2066494866FFF7E6FC6349B1F906000C
:1019D000012103F0FCFCC2A001F0F4F80020039008
:1019E00039E0CAA001F0EEF86420FFF7B1F972B651
:1019F000CD48006820F48000CB49086008460068A4
:101A000020F400100860C948C949086000BFBFF34E
:101A10004F8FC848006800F4E060C7490843001DC4
:101A2000C4490860BFF34F8F00BF00BFFEE7706876
:101A3000484908620846006A632801DD632008629D
:101A4000444991F8200005F027F90020039002E0B6
:101A50000020039000BF00BF3DE300BF16202080A0
:101A60002820A070207940F080002071002704E039
:101A7000002005EB870108607F1C0A2FF8DB344843
:101A8000806D28603248C06D68603148006EA86083
:101A90002F48406EE860012003901CE377882F48B0
:101AA0002D4B0ECB001D0EC054222A4907F07FFBA0
:101AB00049F65A2029494866FFF76DFC9FA001F0BE
:101AC00081F808E370880290B6F804A0D6F8060002
:101AD000204948600298012802D002281ED10EE059
:101AE0001C48006840F002001A4908600846006877
:101AF00020F004000860012003F07AFB0FE0154895
:101B0000006840F00400134908600846006820F0AF
:101B100002000860022003F06BFB00E000BF00BF82
:101B2000BAF1010F06D0BAF1020F0FD0BAF1030FCC
:101B30000DD119E10748006840F010000549086020
:101B40000846006820F0600008601AE100E117E133
:101B500024670020C4660020186700205C6600200F
:101B60000D0A53657269616C206E756D6265722035
:101B700073657420746F3A202575200D0A000000EB
:101B80000D0A53657269616C206E756D6265722015
:101B900069733A202575200D0A0000000D0A436183
:101BA0006C6962726174696F6E2076616C75652014
:101BB00028444143205A45524F29207365742074AC
:101BC0006F3A2025640D00000D0A43616C69627252
:101BD0006174696F6E2076616C756520285343418E
:101BE0004C45292073657420746F3A2025640D00DC
:101BF0000D0A43616C6962726174696F6E2076616F
:101C00006C756520284F46465345542920736574EA
:101C100020746F3A2025640D0A0000000D0A43610C
:101C20006C6962726174696F6E2076616C75652093
:101C3000285343414C45292069733A2025640D00FF
:101C40000D0A43616C6962726174696F6E2076611E
:101C50006C756520284F4646534554292069733AD0
:101C60002025640D0A0000000D0A43616C69627250
:101C70006174696F6E2076616C75652028545249D5
:101C80004D292073657420746F3A202564200D0A55
:101C9000000000000D0A43616C6962726174696F33
:101CA0006E2076616C756520285452494D29206953
:101CB000733A202564200D0A000000000D0A4545F6
:101CC00050524F4D2063616C6962726174696F6E2E
:101CD000206461746120736176656421200D0A00BF
:101CE0000D0A454550524F4D2063616C6962726127
:101CF00074696F6E2064617461207361766564201D
:101D00005452494D21200D0A000000000D0A456E75
:101D1000746572696E6720626F6F746C6F61646561
:101D2000722E2E2E0D0A000030380240EFBEADDEBE
:101D3000F01F00200CED00E00000FA050D0A5361D1
:101D4000766564204545506172616D730D0A00002F
:101D5000FE48006840F02000FC4908600846006822
:101D600020F0500008600CE0F848006840F04000A7
:101D7000F64908600846006820F03000086000E07E
:101D800000BF00BFA7E100BFF048007800F00600E8
:101D9000022802D0042806D102E00120029003E0CC
:101DA0000220029000E000BF00BFE848007800F089
:101DB0007000102804D0202805D040280AD106E061
:101DC0004FF0010A07E04FF0020A04E02FE04FF065
:101DD000030A00E000BF00BF40F2DC7020800E204C
:101DE000A070207940F080002071012028800298A6
:101DF0006880A5F804A0D5484068C5F80600002012
:101E00006881A8810120039065E153E040F25160B0
:101E100020800420A070207940F0800020710120F3
:101E20002880CB48808968800120039053E147F6E1
:101E3000FF70C74948600846C06B20F00200801C54
:101E4000C8630846C06B20F00100C8630020086426
:101E50000A20C8613FE1B6F80080B8F11A0F05D238
:101E6000B8F1000F02D04FF00A0805E0642008FB2B
:101E700000F0FF21B0FBF1F80A20B8FBF0F000EB16
:101E800080004FEA4008B148C0F82080006A38B9A5
:101E90000020AE49486200E0C9E005F0CBF808E058
:101EA00008F0FF0004F0F8FE0120A849486205F0A0
:101EB000C6F810E100BFA548006AC0EB002063210E
:101EC00090FBF1F840F2D37020800220A0702079BE
:101ED00040F080002071A5F8008000E002E00120C1
:101EE0000390F8E040F2DE7020800620A070002011
:101EF000E070207940F08000207101202880934814
:101F0000008900B2688093484088A880012003902F
:101F1000E1E070888D4908620846006A88B10120B6
:101F200048620846006A642801DD6420086205F002
:101F300086F806F055FC854991F8200004F0ACFEC7
:101F400009E08248006A30B900208049486205F003
:101F500071F806F045FCBEE000BF7C48D0F8208058
:101F60004FF4FF6020801020A070207940F08000A6
:101F7000207101202880A5F80280002705E00021BB
:101F8000281D00EB470001807F1C062FF7DB012096
:101F90000390A0E070886D490863B0888863F18879
:101FA0006A4841633189C163D6F80A00674988628B
:101FB000D6F80E00C862708A08646548406C20F04C
:101FC0000100401C6249486485E000BF40F2FB709C
:101FD00020802020A070207940F080002071012016
:101FE00028805A48008E68805848008FA88057483B
:101FF000808EE8805548808F28815448806AC5F8D3
:102000000A005248C06AC5F80E005048B0F84000B7
:102010006882002706E0002105F1140000EB47006C
:1020200001807F1C082FF6DB0120039053E04A4813
:10203000807801904548806B01280FD14348006BA0
:102040000A280BD1019810F0010F03D00120FEF7F0
:102050005AFB16E00020FEF756FB12E03B48806B6F
:1020600002280ED13948006B0A280AD1019810F0D5
:10207000010F03D00020FEF746FB02E00120FEF72F
:1020800042FB3248C06B01280FD13048406B0A2810
:102090000BD1019810F0020F03D00120FEF762FB74
:1020A00016E00020FEF75EFB12E02848C06B022815
:1020B0000ED12648406B0A280AD1019810F0020F71
:1020C00003D00020FEF74EFB02E00120FEF74AFBA2
:1020D0000020039000BF00BF039848B1207910F0A2
:1020E000800F02D0A078801D00E00620C9F8000112
:1020F000039809B0BDE8F08F08B508F0E7FEFEF7D9
:102100002BF9FEF78DFC6420FEF732FEFEF74AFD48
:1021100010201249086000F09BFF02F095F9FEF7CD
:1021200067FB00F0FBFD01F0EFFD01F0AFFF02F0F7
:1021300091FF02F0B3FCC820FEF70AFE04F0CFFBCB
:10214000C820FEF705FEC8200AE00000C466002093
:10215000246700201867002068000020180402404F
:10216000FEF7F6FDDDA000F02DFDE6A000F02AFD53
:10217000DAA000F027FDED48D0F80E10ECA000F03A
:1021800021FD9FEDF10B53EC102BF1A000F01AFD97
:10219000F748006810F4005F01D0F6A000E0F8A056
:1021A0000146FAA000F00EFD002368221946FA4805
:1021B00001F0CEFEF8480068F84990FBF1F03B28AA
:1021C00002D0F748F44908603220FEF7C1FDF2481A
:1021D000406EA0F51A415A392DD1F248EE4AD2E9A3
:1021E0000131D268C0E900318260806820B904F012
:1021F000D3FBEDA000F0E6FCEA488068A0F5B4410E
:10220000A53907D1E748E44B1B1D0ECB0EC0F6489D
:1022100000F0D8FC5422E0491031F44806F0C7FF22
:10222000F348C06820F080008030F149C860F1A018
:1022300000F0C8FC02E0F9A000F0C4FC02F0EAFFE4
:10224000FE49C86002F08AFFFEF73CFAE7480078D2
:1022500000F00600022802D0042808D103E0012083
:1022600002F0C6FF04E0022002F0C2FF00E000BF5F
:1022700000BFF3A000F0A6FC0120FEF7AAFA04F0CC
:10228000DEFE06F091FB002006F005FC06F0A8FA41
:10229000322004F001FDF24805F0D6F84FF420702A
:1022A00006F0C0FBEF480068012131EA501005D16B
:1022B0000320E249C86206F093FA5FE0EAA006F064
:1022C00085FA9A48D0F80E20EBA1EE4806F00AFCF9
:1022D0000221002005F038F9EA4806F077FAFEF707
:1022E00059FC804601E000F02DFEFEF753FC8146CC
:1022F0004146FEF753FCB0F5FA6FF4DB06F070FAD6
:10230000CE48C068E8B1CD48C0686F280DD0DEA0C7
:1023100006F05CFAC948C0680A21B0FBF1F94A46E8
:10232000DDA1D84806F0DEFB12E0DDA006F04EFA93
:10233000DDA1D44806F0D6FB4FF47A70BF49C860DF
:1023400006E0D1A006F042FADAA1CE4806F0CAFBB8
:102350000621002005F0F8F8CA4806F037FAFEF723
:1023600019FC804601E000F0EDFDFEF713FC81460C
:102370004146FEF713FCB0F5FA6FF4DB8949B1F979
:102380000600002103F023F800209FEDCD0B02F0A2
:1023900091FFFEF7FFFBCC49088062B602F014FA09
:1023A00047F6FF74A54844609048006A28B90020A9
:1023B0008E49486204F03EFE09E08C4991F8200005
:1023C00004F06AFC01208949486204F038FEF4E315
:1023D000BE4802F073F90646902E02D1BCA0FEF76B
:1023E00091FFBA48D0F80001012816D10121B74861
:1023F00001F007FBBD4A0021B448FFF7A7F80746E4
:10240000012F06D1B94802F0A0F90021B74801F028
:10241000F8FA0220AD49C1F8000102F0AEF9FEF76A
:10242000BFFC002856D0854890F84C0010F0010FF2
:1024300003D040F26160FEF76EFF8048006B002819
:102440000EDD7E4890F83010006B401E7B4A106312
:1024500011F0040F02D004F0EDFD01E004F0EFFDF7
:1024600003F009F975494862084690F83C00C0F34A
:10247000400000282FD00846016D4A480088801C83
:1024800081420ADD092D08DD6C48406820446B4913
:10249000486097A000F096FB10E06848016D414845
:1024A0000088401E814209DA092D07DD6348406833
:1024B000001B6249486091A000F084FB5F48016DF9
:1024C00038480088801C814206DA5C48016D354836
:1024D00000881BE1C8E249E11BE100000D0A2D2D37
:1024E0002D2D2D2D2D2D2D2D2D2D2D2D2D2D2D2D1C
:1024F0002D2D2D2D2D2D2D2D2D2D2D2D2D2D2D2D0C
:10250000000000000D0A7C2020204B534731303161
:102510002053747261696E2047617567652052654A
:10252000616465722020207C0000000080B00008FB
:102530000D0A0A4669726D77617265207265763A96
:1025400009253036580000000000000000006540FA
:102550000D0A53797374656D20636F726520636C27
:102560006F636B203D20252E3266204D487A000097
:10257000100802406F6E2074686520687562000064
:102580007374616E64616C6F6E6500000D0A4D6F4F
:1025900064653A20257300005C66002040420F000D
:1025A000C0448403186700200D0A0A556E69742020
:1025B0006973206E6F742063616C69627261746507
:1025C000642E2044656661756C742063616C696279
:1025D000726174696F6E2064617461206C6F6164F4
:1025E0006564210D00000000DCAE0008C466002018
:1025F0008C6700200D0A454550524F4D20636F6E89
:1026000074656E74206C6F616465642073756363B8
:1026100065737366756C6C79210D0A000D0A45456A
:1026200050524F4D20636F6E74656E74206E6F74E0
:10263000206C6F61646564210D0A0000246700202E
:102640000D0A0A507265737320456E7465722066B8
:102650006F72206465627567206D656E752E00006F
:1026600018C500081004024054686F726C616273F0
:10267000204B534731303100537752657620302557
:102680003034580028060020537461676520747246
:102690006176656C3A00000025342E3175856D0039
:1026A00053746167653A000050474D3130302D5307
:1026B000470000004E6F20737461676521000000C1
:1026C000000000000094D1400800002068000020B5
:1026D000496E76616C696420415054206D65737356
:1026E00061676520666F726D61742E00A0520020D4
:1026F0000D0A426967676572210D0A000D0A536D64
:10270000616C6C6572210D0A00000000801E814220
:1027100001DC012C15D1092D13DDFB48C06B20F025
:102720000200F949C8630846C06B20F00100401C54
:10273000C863F6A000F046FA47F6FF740020F2499D
:102740000864092D09DD204604EBD0714C10EE48D9
:10275000006C401CEC49086400256D1CEA4800959B
:1027600043682146026CEBA000F02CFA02F059FFFE
:10277000E549886202F08AFF03F0ADFB03F0A8FF91
:10278000F248806B012878D1F048006B012874D0A2
:10279000EE48006B0A2870D0EC48006B00286CD023
:1027A000EA48006B0B38062865D2DFE800F0031119
:1027B0001F2D3B4FD4488068E449896A884203DA78
:1027C0000120FDF7A0FF02E00020FDF79CFF53E091
:1027D000CD488068DD49896A884203DD0120FDF724
:1027E00092FF02E00020FDF78EFF45E0C6488068BA
:1027F000D649C96A884203DA0120FDF784FF02E066
:102800000020FDF780FF37E0BF488068CF49C96AE4
:10281000884203DD0120FDF776FF02E00020FDF78E
:1028200072FF29E0B8488068C849896A884209DD92
:10283000B5488068C549C96A884203DA0120FDF7B6
:1028400062FF02E00020FDF75EFF15E0AE48806801
:10285000BE49896A884205DBAB488068BB49C96AC2
:10286000884204DD0120FDF74EFF03E005E0002073
:10287000FDF749FF00E000BF7BE0B448806B022811
:1028800077D1B248006B012873D0B048006B0A289A
:102890006FD0AE48006B78B3AC48006B0B3806289D
:1028A00065D2DFE800F003111F2E3C509648806887
:1028B000A649896A884203DA0020FDF724FF02E076
:1028C0000120FDF720FF53E08F4880689F49896A07
:1028D000884203DD0020FDF716FF02E00120FDF72E
:1028E00012FF45E0884880689849C96A884204DA3E
:1028F0000020FDF708FF03E03BE00120FDF703FFA8
:1029000036E0814880689149C96A884203DD002029
:10291000FDF7F9FE02E00120FDF7F5FE28E07A4818
:1029200080688A49896A884209DD774880688749D2
:10293000C96A884203DA0020FDF7E5FE02E00120C3
:10294000FDF7E1FE14E0704880688049896A88429A
:1029500005DB6D4880687D49C96A884203DD002037
:10296000FDF7D1FE02E00120FDF7CDFE00E000BF43
:1029700000BF7648C06B012877D17448406B0128AE
:1029800073D07248406B0A286FD07048406B78B3A0
:102990006E48406B0B38062865D2DFE800F0031163
:1029A0001F2E3C50584880686849896A884203DA7B
:1029B0000120FDF7D7FE02E00020FDF7D3FE53E033
:1029C000514880686149896A884203DD0120FDF72A
:1029D000C9FE02E00020FDF7C5FE45E04A488068D8
:1029E0005A49C96A884204DA0120FDF7BBFE03E0B8
:1029F0003BE00020FDF7B6FE36E0434880685349CF
:102A0000C96A884203DD0120FDF7ACFE02E0002028
:102A1000FDF7A8FE28E03C4880684C49896A884256
:102A200009DD394880684949C96A884203DA0120CA
:102A3000FDF798FE02E00020FDF794FE14E0324816
:102A400080684249896A884205DB2F4880683F498F
:102A5000C96A884203DD0120FDF784FE02E0002000
:102A6000FDF780FE00E000BFA1E03848C06B0228FF
:102A70003AD13648406B012836D03448406B0A289A
:102A800032D03248406B78B33048406B0B38062860
:102A900072D2DFE800F003111F2E61761A488068B9
:102AA0002A49896A884203DA0020FDF75BFE02E0CA
:102AB0000120FDF757FE79E0134880682349896AB1
:102AC000884203DD0020FDF74DFE02E00120FDF706
:102AD00049FE6BE00C4880681C49C96A884204DAE8
:102AE0000020FDF73FFE03E061E00120FDF73AFE24
:102AF0005CE0054880681549C96A884228DD0020E5
:102B0000FDF730FE27E00000246700200D0A4F4B40
:102B1000210D0A000D0A537465703A2025642C209B
:102B2000697465726174696F6E3A2025642C204463
:102B300041432076616C75653A20256420636F758A
:102B40006E7465723A2025640D0A0000C466002088
:102B50000120FDF707FE29E0184880681849896AB6
:102B600088420ADD154880681549C96A884204DA36
:102B70000020FDF7F7FD03E017E00120FDF7F2FD6F
:102B800014E00E4880680E49896A884205DB0B48CC
:102B900080680B49C96A884203DD0020FDF7E2FD29
:102BA00002E00120FDF7DEFD00E000BF00BF00F005
:102BB000C9F900F081F800F0CBFE09E42467002099
:102BC000C46600200FB438B505A800904D490968C7
:102BD0004D4A12688818009A049905F071FF04465E
:102BE0004948006820444849086000200090204679
:102BF00038BC5DF814FB2DE9F04105460E46002770
:102C00004248006808B9424805603DE0082C04D0FD
:102C10000A2C1DD00D2C20D119E03C480068A8B129
:102C200008213CA0FFF7CEFF20213AA0FFF7CAFF02
:102C3000082138A0FFF7C6FF34480068401E33491A
:102C4000086033480068401E314908601BE000BF3F
:102C5000012700202D49086015E02C480068B0428B
:102C600010D221462BA0FFF7ADFF294909680C704F
:102C700027480068401C2649086024480068401C1A
:102C80002249086000BF00BFFDF777FE0446A0F5AB
:102C90007F41FF39BAD16FB100201D490968087022
:102CA0001B480068401C1A49086008460068401B21
:102CB000BDE8F0810020FBE710B513480068B0B113
:102CC000FDF799FE98B1104801680E480068FDF7BD
:102CD00070FE0C4800681049884202D101F58060FE
:102CE00000E00D480749086000200749086010BD52
:102CF00010B500E000BFFDF77EFE0028FAD0FFF718
:102D0000DBFF10BD20000020240000202800002050
:102D10002C000020256300004006002008B58448F0
:102D2000006840F00100824B186081481430006850
:102D300040F480507E4B143318607E48006820F4C5
:102D400080407C4B18601846006840F400401860D2
:102D50001846406820F0800058601846C06820F48B
:102D60004040D8601846806860F44040986018463B
:102D7000006A20F0704040F0A040186218460068D9
:102D800020F4806018601846006840F40060186005
:102D90001846406820F0200058601846C06820F4AB
:102DA0004060D860202098611846806860F44060D8
:102DB00098601846006A20F4700040F4A000186281
:102DC0005B48006840F00100594B18601020594BD7
:102DD00098611846006840F48070186018460068D2
:102DE00020F4007018601846406820F01000586009
:102DF0001846C06820F44070D8601846806860F4B7
:102E0000407098604C48808820F040004A4B988081
:102E10001846008820F0400018802A23B3FA83F374
:102E2000C3F12001481E382303EAC00242F4417076
:102E3000414B18801846808840F0020098803C483A
:102E4000006840F480003A4B18603C48006820F06D
:102E500001003A4B186000E000BF3848006810F0ED
:102E6000010FF9D14FF40060344B7C3B18603348BC
:102E7000006820F06060314B18601846006840F030
:102E8000C06018601846006840F4806018601846FA
:102E9000006840F04000186027480C30274B08338A
:102EA000186000201B1F18602348008840F0400075
:102EB000214B188018468089009001208840204BC3
:102EC000B3FBF0F008BD08B1102101E04FF4801110
:102ED000184A91617047194A126822F00102174B93
:102EE0001A6000E000BF154A126812F0010FF9D114
:102EF000124A0C321060114A121D1160D2140F4B8D
:102F00007C3B1A600D4A126842F001020B4B1A60BA
:102F100070470A488438006810F4006F06D00648ED
:102F2000008910F0800F01D1012070470020FCE7DC
:102F30003038024000000240003001408864024006
:102F400000BD010510B53B48006820B101282BD019
:102F5000022867D154E038480068374949688842F8
:102F600021D93648344A06CA06C033484068344935
:102F7000884207D101F500502F4948600846406853
:102F8000086005E02E482C49486008464068086003
:102F90002A4840682B490860084600682A490860AA
:102FA0000120244908603DE024480068254909685B
:102FB000884221D923480068047822480068408864
:102FC0002249088020480068001D1F490860DA2C4B
:102FD00003D10120FDF75FFB04E0C02C02D10020EB
:102FE000FDF759FB1948018817480068FFF773FF80
:102FF00002201049086002E000200E49086011E03C
:10300000FFF787FF68B11048006810490988084435
:103010000D490860084600680A4908600120054912
:10302000086000BF00BF0348006808B1012010BD60
:103030000020FCE74C000020300000204000002071
:10304000400E00203C0000203800002048000020F6
:103050003948006840F00300374908603748006885
:1030600020F08040354908600846006840F0004084
:1030700008600846C06840F08040C8600846C068E4
:1030800020F00040C8600846406A20F0704040F0E0
:1030900080512A4841622A48006820F040002849AF
:1030A00008600846006840F08000086024480C3042
:1030B000006840F0400022490C3108600846006872
:1030C00020F0800008601E482030006820F4704026
:1030D00040F480501A4920310860174810300068C9
:1030E00040F001001449103108604FF0FF3009062C
:1030F000C8620846008B40F2011108438907088323
:10310000022008814007008840F0010008807047D5
:103110004FF08040406A70474FF08041098821F0AD
:1031200001014FF08042118011464862098841F048
:103130000101118070470000303802400000024059
:103140000004024070472DE9F0432DED068B9FB03F
:10315000804600201C901D901E9015271CAAFDA1E2
:10316000404605F08DFE00240AE0FB4800EB041009
:1031700041681CA806F04EF808B9274602E0641C16
:10318000152CF2DD00BF152F77D2DFE807F00B22F8
:103190002A4149606696A4B4BAD3FDFCFBFAF9F85B
:1031A000F7F6F50018AAEDA1404605F069FE18995A
:1031B00009B1012100E000210846FDF7A4FA1898A2
:1031C00008B1012000E000200146E6A0FFF7FAFC6C
:1031D000A3E3FDF785FA81464946E9A0FFF7F2FC33
:1031E0009BE318AADDA1404605F04AFE189909B1F3
:1031F000012100E000210846FDF7B4FA189808B153
:10320000012000E000200146E3A0FFF7DBFC84E39F
:10321000FDF78DFA81464946E6A0FFF7D3FC7CE333
:1032200018AACEA1404605F02BFE189909B101213C
:1032300000E000210846FDF736FA189808B1E3A02F
:1032400000E0E3A00146E3A0FFF7BCFC65E301F06A
:10325000F0FCE7A0FFF7B6FC5FE319AAE9A140463E
:1032600005F00EFEE9480078E949086019A805F064
:103270003AFFE7490873002406E01CE319A8015D42
:10328000E348001D0155641C19A805F02CFFA0425D
:10329000F4D80020DE4948738873084601F045FEE3
:1032A0000020DC49086019A805F01DFF81464A4648
:1032B00019A9D9A0FFF786FC2FE318AAA7A14046B9
:1032C00005F0DEFDD1491898087008460178DBA0AA
:1032D000FFF778FC21E318AAA0A1404605F0D0FD35
:1032E0001899C8B2002101F0BAFC1898C1B2D9A04F
:1032F000FFF768FC11E301F054FEDDA0FFF762FC6C
:103300000BE318AA95A1404605F0BAFD18980128CC
:1033100003D10005DB49086002E01020D9490860AC
:10332000189808B9D8A000E0D9A00146DAA0FFF7A4
:1033300049FCF2E216A817AB18AAE0A1009040469B
:1033400005F09EFD1899159861F315401590179991
:10335000159861F30E201590DDE9150161F3060063
:1033600015901598FDF72EFE159800F07F03C0F319
:103370000622C0F3054108E062E24BE236E227E2B2
:1033800000E2E6E1D2E145E009E0CFA0FFF71AFC58
:10339000D6A0FFF717FC0220D5490860BDE216A8A9
:1033A00017AB18AAC5A10090404605F069FD189911
:1033B000159861F3154015901799159861F30E2033
:1033C0001590DDE9150161F30600159000211598AF
:1033D000FDF71BFEC7480069042808D10020FDF74F
:1033E000C1F9C548C34948610120886107E0002050
:1033F000FDF789F9C148BF494861012088611598E6
:1034000000F07F03C0F30622C0F30541BCA0FFF724
:10341000D9FB82E218AA51A1404605F031FDC1480E
:103420000468C048283800681690BE4824380068F0
:10343000169815901598C0F303401599C1F30151E2
:1034400001EB810100EB410017901598C0F30320B8
:103450001599C1F3023101EB810100EB4100169097
:10346000159800F00F001599C1F3021101EB8101CD
:1034700000EB41054FF46161179848431699C1EB81
:10348000011100EB81002844189908441890A649BE
:10349000189890FBF1F201FB120018904FF4616153
:1034A000189890FBF1F017900A21179890FBF1F112
:1034B000159861F3155015900A21179890FBF1F2B9
:1034C00001FB1201159861F3134015904FF46161EF
:1034D000189890FBF1F201FB120017903C2117980D
:1034E00090FBF1F01690179890FBF1F201FB12059A
:1034F0000A21169890FBF1F1159861F30E301590A2
:103500000A21169890FBF1F201FB1201159861F364
:103510000B2015900A2095FBF0F1159861F3061029
:1035200015900A2095FBF0F100FB1151159861F3FD
:103530000300159021461598FDF767FD159800F0DA
:103540007F03C0F30622C0F305416DA0FFF73AFBED
:10355000E3E100002539730020AF0008252A732518
:10356000640000000D0A5472696720492F4F202320
:10357000312073657420746F2025640D0A000000EB
:103580000D0A5472696720492F4F20233120697337
:103590002025640D0A0000000D0A54726967204955
:1035A0002F4F2023322073657420746F2025640D03
:1035B0000A0000000D0A5472696720492F4F20232A
:1035C000322069732025640D0A0000006F6E000030
:1035D0006F6666000D0A43414E207465726D696E18
:1035E0006174696F6E2069732025730D0A000000F5
:1035F0000D0A43414E20737461727465642E0D0A86
:1036000000000000252A73253873000060000020A8
:10361000904E0020580000200D0A43414E206D734B
:10362000672073656E743A20222573222C2025644E
:103630002062797465732E0D0A0000000D0A434163
:103640004E2049442073657420746F2025640D0A50
:10365000000000000D0A43414E2052782066696C3C
:103660007465722025642061646465642E0D0A000F
:103670000D0A43414E2073746F707065642E0D0AFD
:103680000000000018080240696E707574000000A8
:103690006F757470757400000D0A53796E6368203D
:1036A00070696E2069732073657420746F20626581
:1036B00020616E2025730D0A00000000252A732565
:1036C00058202558202558000D0A5254432074696B
:1036D0006D652073657420746F20253032583A254B
:1036E0003032583A25303258000000000D0A0000F0
:1036F0005C00002024670020650700080707000819
:103700000D0A52544320616C61726D207365742000
:10371000746F20253032583A253032583A253032ED
:1037200058000000282800408051010018AAAFF27C
:10373000D411404605F0A4FB1898FDF7CCFB18986F
:1037400008B1DAA000E0DBA00146DCA0FFF73AFAFE
:10375000E3E018AAAFF2FC11404605F091FB18987F
:1037600001F076FE40B9DB49189808610846016906
:10377000D9A0FFF727FA04E0D6480169DDA0FFF7DA
:1037800021FACAE016A817AB18AAAFF2D001009030
:10379000404605F075FB1899159861F31540159092
:1037A0001799159861F30E201590DDE9150161F365
:1037B000060015901598FDF700FC159800F07F03A2
:1037C000C0F30622C0F30541D6A0FFF7FBF9A4E041
:1037D000DE48006810F0200F02D1DDA0FFF7F2F9FB
:1037E0004FF48010D9490831086096E018AAAFF26A
:1037F0009421404605F044FB189801F0F9FC189814
:10380000012801D1DCA000E0DEA00146E0A0FFF726
:10381000D9F982E018AAAFF2BC21404605F030FB8E
:103820006422189901FB02F007F0C3F941EC190B6F
:103830000A20B0EE490AF0EE690A01F03BFD6CE0A7
:10384000A44890ED000AF8EEC00AD848008800EEBF
:10385000100AB8EE400A70EEC00A9FEDD51A81EE4C
:10386000200ADFEDD40A20EE208A18EE100A07F0B5
:10387000B5FA41EC100BB0EE40AAF0EE60AA53ECA2
:103880001A2BCDA0FFF79EF918EE100A07F0D1FA17
:1038900000F310063146CDA0FFF794F98D4801687A
:1038A000D1A0FFF78FF9D6488168D6A0FFF78AF933
:1038B000BE494E8031E00020DA490860DAA0FFF707
:1038C00081F9002423E0DB4800EB041080680078D5
:1038D00040B9D84800EB0410D7A1426801A805F010
:1038E00001F90BE0D34800EB04108368D14800EBEA
:1038F0000410D2A1426801A805F0F4F8CD4800EB0D
:10390000041001A9C268CFA0FFF75CF9641C152C54
:10391000D9DBCFA0FFF756F900BF00BF1FB0BDEC49
:10392000068BBDE8F08310B54F21CA48FFF763F955
:10393000044654B104E000222046641CC5490A54E0
:103940004F2CF8DDC348FFF7FEFBFFF7B5F910BDBC
:10395000FEB5FFF7E8FFFFF7F5FB01F03BFA0500C6
:1039600013D0002404E0281D005D0DF80400641C41
:10397000287BA042F7DC0021601C0DF800102A7B98
:103980006B46B5A02968FFF71DF901F042FB06461A
:103990004EB1BA48006830B93146B9A0FFF712F904
:1039A0000120B6490860FEBD00B585B09D4800788D
:1039B00010F0020F18D0BA4800680290B8482838B2
:1039C00000680490B6482438006803900498019079
:1039D00002980090019800F07F03C0F30622C0F324
:1039E0000541B0A0FFF7EEF805B000BD10B5B64830
:1039F000006820F08050B4490860B4A0FFF7E2F8F6
:103A000010BD2DE9F04705460C46002628881FFA10
:103A100080F9012C05D1B5480068022801D10120A8
:103A200000E000200643012C09D1B04800680128BD
:103A300005D1A9F5C060623801D0012000E0002066
:103A400006432CB9A9484068022801D1012000E0B2
:103A5000002006434CB9A5484068012805D1A9F5C6
:103A6000C060613801D0012000E000200643012E33
:103A700019D1012C01D19EA100E09FA10846FFF7BA
:103A8000A1F8287910F0800F01D0A87800E000207C
:103A900000F10608002704E0E95D99A0FFF792F81D
:103AA0007F1C4745F8DBBDE8F08700006D6173744B
:103AB00065720000736C6176650000000D0A525457
:103AC000432073796E6368656420617320612025EB
:103AD00073000000246700200D0A53796E6368208C
:103AE0006D6F64652073657420746F2025642E0DDE
:103AF0000A0000000D0A496E76616C6964207061ED
:103B000072616D657465722C2073796E6368206DC7
:103B10006F64652072656D61696E732025642E0D7A
:103B20000A0000000D0A5254432077696C6C207320
:103B30007461727420617420253032583A25303215
:103B4000583A253032580D0A000000001004024097
:103B50000D0A55736520706F7765722062757474F5
:103B60006F6E20746F207475726E206375626520AD
:103B70006F66662E0D0A00006368616E6E656C20CC
:103B8000410000006368616E6E656C2042000000B9
:103B90000D0A53656C6563746564206368616E6EBD
:103BA000656C206973202573200D0A0018670020BA
:103BB0000000004800409C460D0A66706172616D0D
:103BC0003A20252E3366200D0A0000000D0A4D61B3
:103BD000676963206E756D6265722069733A20258E
:103BE00064200D0A000000000D0A41444320726564
:103BF0006164696E672069733A202564200D0A00AC
:103C0000C46600200D0A506F736974696F6E20726C
:103C1000656164696E672069733A202564200D0A26
:103C2000000000005C0000200D0A4D656E753A0A28
:103C30000000000020AF000825733A0025732025FE
:103C4000733A00000D0A252D3130730925730000E9
:103C50000D0A3E00404E00200D0A43414E2052788E
:103C60002066726F6D2025642C2025642062797493
:103C700065733A20222573220D0A000058000020A7
:103C80000D0A43414E206572726F723A207374615F
:103C9000747573203D20307825582E0D0A000000E1
:103CA000282800400D0A53796E63682054696D65B9
:103CB000203D20253032583A253032583A253032CE
:103CC000582E25640000000004ED00E00D0A466552
:103CD0006174757265206E6F742079657420696DEA
:103CE000706C656D656E7465642100005000002085
:103CF0000D0A52783A2000000D0A54783A2000004C
:103D0000253032582000000018B58B48006840F07C
:103D100002008949086088481030006840F48040FB
:103D20008549103108608548006820F0804083494B
:103D300008600846006840F000400860081D006800
:103D400020F40040091D08607C480C30006820F019
:103D500040407A490C310860081F006860F040401C
:103D6000091F08607548406A20F0704040F0A0418B
:103D700072484162006820F080607049086008461F
:103D8000006840F000600860081D006820F40050E2
:103D9000091D086069480C30006820F040606749E0
:103DA0000C310860081F006860F04060091F08605F
:103DB0006248406A20F4700040F4A0015F4841620C
:103DC000006820F080505D4908600846006840F0B7
:103DD0000050086059480C30006840F08050574946
:103DE0000C3108600846006820F000500860534815
:103DF000406A20F0706040F0A061504841624E4837
:103E0000006840F004004C49086088154C4908607F
:103E10004B481838006840F4803049491839086028
:103E20000846006820F400300860081D006820F48F
:103E30008070091D086042480C38006820F440304A
:103E40003F490C390860081F006860F44030091FC2
:103E500008603C48008820F040003A490880081F6C
:103E6000008820F04000091F088040F614300880C8
:103E70000846008840F040000880081D008840F097
:103E80004000091D088024200121002807DA0A07C4
:103E9000140E2D4A00F00F031B1FD45403E00A0731
:103EA000130E2A4A135400BF242000F01F020121E0
:103EB000914042094FF0E02303EB8202C2F8001167
:103EC00000BF204808300088009018BD10B14FF4A2
:103ED000807101E04FF08071194A1160704708B19C
:103EE000802101E04FF40001154A1160704701463E
:103EF00000E000BF134A121D128812F0020FF8D022
:103F0000104B0833198000E000BF0E4A121D1288C2
:103F100012F0010FF8D00B4A0832128810B2704725
:103F200010B504460020FFF7D1FF2046FFF7DFFF62
:103F30000120FFF7CBFF10BD3038024000040240E3
:103F4000180802400438004018ED00E000E400E0EA
:103F50002DE9F05F81460C4617469A464FF0010B5B
:103F60004E46E019B0F5006F02D30120BDE8F09F86
:103F7000002000F0B1F9032000F0B6F9C4F30720E7
:103F800000F0B2F9E0B200F0AFF94FF0000816E02F
:103F9000002000F0A9F90546BAF1000F02D106F899
:103FA000015B0AE0BBF1000F05D016F8011BA94226
:103FB00001D1012000E00020834608F10108B84546
:103FC000E6D3012000F088F9BBF1010F01D00120F8
:103FD000CCE70020CAE72DE9F05F81460D46164682
:103FE000A819B0F5006F02D30120BDE8F09FC846C4
:103FF0002C4643E004F01F07AC4200D0AFB90020CC
:1040000000F06AF9062000F06FF9012000F064F971
:10401000002000F061F9022000F066F9C4F30720E7
:1040200000F062F9E0B200F05FF918F8010B00F05F
:104030005BF91F2F03D0A819401EA0421DD14FF0DD
:10404000000B012000F048F900BF002000F044F907
:10405000052000F049F9002000F046F982460120D1
:1040600000F03AF958460BF1010BB0F57A7F01D90F
:104070000220BAE71AF0010FE7D1641CA819A04288
:10408000B8D8012000F028F90120AEE708B5E848CB
:10409000006840F00400E64908600846006840F007
:1040A00008000860E2481030006840F40040E04931
:1040B00010310860DF48006820F08070DD4908603A
:1040C0000846006840F000700860081D006820F491
:1040D0008050091D0860D7480C30006820F04070FF
:1040E000D4490C310860081F006860F04070091F57
:1040F0000860D048406A20F4702040F4C021CD48C8
:104100004162006820F48010CA49086008460068CF
:1041100040F400100860081D006820F48060091D4C
:104120000860C4480C30006820F44010C1490C31CC
:104130000860081F006860F44010091F0860BD484F
:10414000406A20F4706040F4C061BA48416200687F
:1041500020F48000B74908600846006840F4000079
:104160000860B4480C30006840F48000B1490C315C
:1041700008600846006820F400000860AD48406A06
:1041800020F4704040F4C041AA4841620420AA498A
:104190000860A9481838006840F01000A64918398E
:1041A00008600846006820F020000860081D0068CC
:1041B00020F00400091D08609F480C38006820F0BA
:1041C00030009D490C390860081F006860F030001D
:1041D000091F086040209749183108609548006819
:1041E00040F48050934908600846006820F400506D
:1041F0000860081D006820F04000091D08608D4817
:104200000C30006820F440508A490C310860081FC7
:10421000006860F44050091F086004208749086066
:1042200086481838006840F0100084491839086042
:104230000846006820F020000860081D006820F093
:104240000400091D08607D480C38006820F030002B
:104250007A490C390860081F006860F03000091FB7
:1042600008604FF08070764988610846006840F425
:10427000003008600846006820F480300860084676
:10428000406820F4807048600846C06820F44030E0
:10429000C8600846806860F4403088600846406A1C
:1042A00020F00F0048626748008820F04000654910
:1042B0000880081F008820F04000091F08804FF484
:1042C000497008800846008840F0400008805D483A
:1042D00008300088009008BD08B1042101E04FF4C7
:1042E0008021554A11607047014600E000BF554AE1
:1042F000121D128812F0020FF8D0524A08321180B3
:1043000000E000BF4F4A121D128812F0010FF8D0D2
:104310004C4A08321288D0B2704708B1402101E0FF
:104320004FF48001434A18321160704708B10421EC
:1043300001E04FF48021414A1160704708B54148BF
:10434000008820F040003F490880081F008820F0C6
:104350004000091F08800846008820F002000880FD
:104360000846008820F0010008800846008820F4F4
:10437000006008804FF4497008800846008840F0CB
:10438000400008802F4808300088009008BD08B51C
:104390002C48008820F040002A490880081F008827
:1043A00020F04000091F08800846008840F449704A
:1043B00008800846008840F40060088008460088AD
:1043C00040F0020008800846008840F04000088065
:1043D0001C4808300088009008BD08B519480088BE
:1043E00020F0400017490880081F008820F0400096
:1043F000091F08800846008820F00200088008464F
:10440000008820F0010008800846008840F44970C8
:1044100008800846008840F400600880084600884C
:1044200040F040000880074808300088009008BD30
:104430003038024000080240180C024018040240C4
:1044400000000240043C00409548006840F0100025
:10445000934908609248143800689249084390498B
:10446000143908609048006820F480208E49086064
:104470000846006840F4002008600846406820F4C0
:10448000007048600846C06820F44020C8600846B4
:10449000806820F4402088600846406A20F0F000E0
:1044A00040F0700180484162006820F480107E492D
:1044B00008600846006840F4001008600846C068BC
:1044C00020F40010C8600846C06840F48010C8603E
:1044D0000846406A20F4706040F4E061724841622E
:1044E000C002714988610846006840F08070086029
:1044F0000846006820F0007008600846806840F0B8
:10450000407088600846006820F440000860084653
:10451000C06820F40000C8600846C06840F480000D
:10452000C86040F2D9206149088100200882888251
:104530000846808940F4005088810846808A40F00F
:10454000C00088825A48006820F00100584908607D
:1045500000E000BF5648006810F0010FF9D1544840
:10456000006820F06060524908600846006840F02A
:10457000006008600846006840F4886008604B48A6
:10458000001D4B49083108600020091F0860484899
:104590007838006820F0010045497839086000E06B
:1045A00000BF43487838006810F0010FF8D1404848
:1045B0007838006820F060603D4978390860084626
:1045C000006840F0006008600846006840F4A060A1
:1045D00008603648001D3649703908603548091DA5
:1045E000086008153249743908603048008820F0A6
:1045F00040002E4908800846808940F00C008881E0
:104600002B487838006840F0010029497839086063
:104610007047274974390968C1F58061264A1268D4
:10462000914202D14FF6FF700FE023490A680968F2
:10463000491C214B19601F49885C19460968B1F56E
:10464000806F02D100211A4611607047184A126823
:1046500022F00102164B1A6000E000BF144A1268F3
:1046600012F0010FF9D1124A0C321060104A121DDB
:1046700011600E4A128822F040020C4B1A804FF053
:1046800000620B4BAC3B1A60094A126842F001020F
:10469000074B1A6070470548008800F040007047DB
:1046A0004438024001004000000002400010014078
:1046B000B8640240A04E00206400002070B504469B
:1046C0000126D4F80001022801D0022070BD2FE09D
:1046D000384802680068401C364B1860A5541846DC
:1046E0000068062817D1207910F0800F01D0A0783B
:1046F00000E00020801D30490860207900F07F0034
:10470000502806D16079012803D108460068802826
:1047100001D99020DAE727480068274909688842CC
:1047200006D10020234908600120C4F800010326B7
:10473000D4F80001012806D0FFF76BFF0546A0F56D
:104740007F41FF39C4D13046C0E730B5D0F80031E1
:1047500002461A4C24681A4D2D686119184C2468B9
:104760001C44174D2C6003E012F8014B01F8014B7B
:104770001C00A3F10103F7D130BD10B5104800684B
:10478000B0B1FFF788FF98B10D4801680B48006889
:10479000FFF75CFF094800680A49884202D101F529
:1047A000807000E00748054908600020044908605F
:1047B00010BD000074010020780100206C01002071
:1047C00070010020A453002010B5A248006840F0FA
:1047D0000400A04908604FF400009F4908609E480B
:1047E0001838006820F480409B4918390860084652
:1047F000006840F400400860081D006820F0800058
:10480000091D086094480C38006820F44040924923
:104810000C390860081F006840F44040091F086018
:104820008D480830006820F0704040F000508A4900
:104830000831086087481030006840F00200854960
:10484000103108605320854908803120091D086017
:10485000052082491031086080481038008840F4F3
:10486000C0407E49103908807C480838008840F0F4
:1048700010007A490839088078481438008840F0D8
:10488000010076491439088074481C38008840F0CB
:10489000040072491C39088070482838008840F0AC
:1048A00001006E4928390880032002466C4B1968C4
:1048B0004FF6FF0319406B4B0B4343EA0221684B51
:1048C000196000BF1D200121002808DA0A07140E14
:1048D000634A0C3200F00F031B1FD45403E00A0795
:1048E000130E614A135400BF1D200121814042096B
:1048F0004FF0E02303EB8202C2F8001100BF10BDAD
:1049000056481838008820F00400544918390880A7
:10491000002056490880704708B5002000904E4896
:10492000001F006810F4807F7ED0504800885049F6
:104930000860084690ED000AB8EEC00A4D4880EDC8
:10494000000A90ED000ADFED4C0A20EE200A4B48E9
:10495000D0ED000AF8EEE00A9FED491A01EE200AB8
:10496000BDEEC00A80ED000A90F8440010F0010F7F
:1049700018D0002043490860434908604349086053
:104980000AE000204249414A126841F822003F48AB
:104990000068401C3D4908603E48006C3B4909687E
:1049A0008842EEDC3548406C20F001003349486411
:1049B00037483449096850F8210033490968081A12
:1049C0003149086008460068002802DA00202B49B7
:1049D00048652A4800682C49096808442A49086043
:1049E00026480268274801680068401C254B18606B
:1049F000274840F821202748006C1946096888425A
:104A000002D10020194608602248006C1E4909683E
:104A100091FBF0F0194908651B4800684865096D6D
:104A20001D4A1288881A00E00CE000EBD071491092
:104A3000184A91600020FFF749FA104880880B4916
:104A4000088005E00948008800900120FFF73EFA41
:104A500008BD000030380240180802402804004019
:104A60000CED00E00000FA0500E400E00C38004026
:104A7000A8010020900100200AD7233C24670020D1
:104A8000A4707D3F9C01002098010020B00100200F
:104A9000A4550020C4660020186700202DE9F041CD
:104AA0000020F749086048608860F649086048605F
:104AB0008860F548006840F00200F3490860F34858
:104AC000006820F48020F14908600846006840F43E
:104AD00000200860081D006820F40070091D0860AF
:104AE000EA480C30006820F44020E8490C310860A6
:104AF000081F006840F44020091F0860E348406A2E
:104B000020F0F00040F09001E0484162006820F49D
:104B10008030DE4908600846006840F400300860D4
:104B2000DA480C30006820F44030D8490C31086075
:104B3000D648406A20F00F0040F00901D348416296
:104B4000D1481030006840F00070CF491031086043
:104B5000CD481038006840F00070CB49103908602B
:104B600000E000BFC8481038006810F0007FF8D09F
:104B7000C5481038006820F00070C349103908603B
:104B80000120C34908600320C149143108602A2468
:104B90001520B4FBF0F8B4FBF0F100FB114010B1AC
:104BA0000120BDE8F0810E25681CC0F11506771EB6
:104BB0000FB90120F5E7B6481C300068B549084038
:104BC000B3491C310860781E4FF0407101EA006063
:104BD000711E4FF4E00202EA01510843691E4FF4CE
:104BE000702202EA01410843A8F10101C1F3090161
:104BF0000843A7491C3109680843A5491C310860CE
:104C0000132000F00AFA142000F007FA0020C8E789
:104C10009F491C31096821F040419D4A1C321160B6
:104C20001146096800F040421143994A1C32116054
:104C300070479748006820F001009549086000E03F
:104C400000BF9348006810F0010FF9D100E000BFE9
:104C50008F480830006810F0806FF8D0704730B58A
:104C600002460B4600218C4800880D2801DD0120FA
:104C700030BD0BB9012000E0002018B1002040EA4F
:104C8000425001E0D000001D01438448006840F01C
:104C90000100824C206081481C3000687E4C2578E1
:104CA0000124AC40A0437D4C1C3420607B480C3078
:104CB0000068794C25780124AC402043774C0C34B3
:104CC00020607648001D0068734C25780124AC40B4
:104CD0002043724C241D2060704840306E4C248864
:104CE00040F834106C4C248800EBC40041606B48E1
:104CF00014300068684C25780124AC40A043674C10
:104D00001434206065481C300068634C2578012409
:104D1000AC402043614C1C3420606048006820F0A7
:104D200001005E4C20605C480088401C5A4C20808A
:104D300000209DE756490C31096811F0030F48D057
:104D40004F494A684968491C4D4B596003F10C01B1
:104D500001EB021051495039096811F0040F0AD1D2
:104D6000002141734D495039096840F2FF7202EA4F
:104D70005151016008E001214173484950390968E7
:104D8000474A02EAD1010160444950390968C1F338
:104D9000400181734349096801F00F0101734249E1
:104DA0000968416041490A688260354949680829B3
:104DB00002D10021324A516031490968491C304A08
:104DC000116033490C31096841F02001304A0C323E
:104DD000116070472E491431096821F002012C4AF4
:104DE000143211602649096809B9002015E02449E8
:104DF0008A688968491C224B996003F10C0101EB18
:104E000002100C398968082902D100211A469160E4
:104E10001B490968491E1A4A11601D491431096865
:104E200041F002011A4A14321160704718490831E2
:104E3000096811F0010F77D015491431096821F084
:104E40000101134A143211600E49096800296BD020
:104E50000C498A688968491C0A4B996003F10C0166
:104E600001EB021000210F4A343A116011460A6822
:104E7000417BE9B90188002343EA41511BE000006E
:104E800044650020D0650020303802400004024014
:104E90000064004000FC80FCB80100200066004077
:104EA000FFFF0300B4650040B8650040BC650040EA
:104EB0000168C900091D0A435E490A600968827BCE
:104EC0000AB9002200E0022211435A4A11605A49ED
:104ED00042680A6001F1040182680A605749096862
:104EE00021F00F0255490A600968027B02F00F02A7
:104EF00041EA0201514A11605149096841F001013A
:104F00004F4A11604B49096841F00101494A11605B
:104F10004C498968082902D100214A4A91604949CF
:104F20000968491E474A1160704770B50146444AF6
:104F3000126822F00102424B1A60424A1268082AA3
:104F400001D3012019E03F4A53685268521C3D4C7E
:104F5000626004F10C0202EB031391E8740074C365
:104F6000384A5268082A02D10022364B5A60354A24
:104F70001268521C334B1A600020314A126842F00A
:104F800001022F4B1A60304A1268012A08D1294ABF
:104F9000126842F00102274B1A6000222A4B1A6065
:104FA00070BD2748006820F001002549086000BF57
:104FB00023480C38006840F0800021490C39086013
:104FC0000846006810F0800FF2D10846006820F013
:104FD000010008601A48001D00681C490840184973
:104FE000091D08600020174908604860886001209A
:104FF00015490860132001218140154A430942F8F0
:10500000231000BF0E48006840F001000C49086002
:1050100070470B48001D0068704700F01F02012117
:10502000914042094FF0E02303EB8202C2F80011E5
:10503000704700008065004088650040846500403E
:1050400014640040D0650020B40100208CFF00FFF4
:1050500080E200E05E4800685E4908435C49086001
:105060005D48006840F003005B4908605A480C3016
:10507000006820F0030058490C3108605648006869
:1050800040F440605449086053480C30006820F4F4
:10509000406051490C3108604D481430006840F4BC
:1050A00080704B49143108604C48006840F440302F
:1050B0004B49C1F8040340F2033088604948C86096
:1050C0000846C06A20F47000C8620846C06A40F40E
:1050D0008010C86240F24F1048634348006820F0D7
:1050E00001004149086000E000BF3F48006810F03F
:1050F000010FF9D13C48006820F060603A4908602F
:105100000846006840F45060086035484C30364925
:10511000083108603548091D086002203249091D20
:1051200008602F48406840F480702D494860084668
:10513000406820F0007048600846406840F0807089
:1051400048602948006840F0010027490860244869
:10515000806840F08040224988607047224800689B
:1051600020F001002049086000E000BF1E480068F0
:1051700010F0010FF9D11A48806820F00100184999
:1051800088600846C06A20F47000C8620846C06A99
:10519000C86201201449091D08600F2010494863A6
:1051A0000846806840F0010088600F48006840F0C1
:1051B00001000D4908600A48806840F080400849B5
:1051C000886070470146094830F8110070470000B8
:1051D000303802400400400000080240042301402F
:1051E000002001400780030070640240BA010020E3
:1051F00010B50446012C02D0022C08D103E0012096
:10520000FBF7CCFA04E00020FBF7C8FA00E000BF8F
:1052100000BF10BD70B50020FFF7D4FF4FF47A71C6
:1052200000FB01F50120FFF7CDFFB5FBF0F4322CB8
:1052300001D2C82070BDF32C01D26420FAE7B4F586
:10524000AB7F02D84FF49670F4E7B4F5D97F02D261
:105250004FF4C870EEE7B4F5037F02D24FF4FA7052
:10526000E8E740F25B20844201D2C01EE2E740F250
:105270009220844202D24FF4FA60DBE740F2C3206E
:10528000844202D24FF44870D4E740F2E6208442D0
:1052900001D29620CEE740F21630844201D26F2030
:1052A000C8E740F25230844202D24FF47A70C1E72C
:1052B0000020BFE72DE9F0412DED068BB0EE408ACE
:1052C000F0EE608A05469FED5D0B53EC102B51EC20
:1052D000180B05F085FC41EC100BB0EE40AAF0EE87
:1052E00060AA9FED580B53EC102B51EC1A0B05F0F4
:1052F000D9FA41EC100BB0EE409AF0EE609A51EC06
:10530000190B05F027FC0446C4F30D0000F580409E
:1053100006B2A40BC4F30D0000F5804007B22803C9
:105320004FF4B471B0FBF1F808F54048FFF72FF8DF
:105330000020FEF7F2FF4FF404504449088001209A
:10534000FBF706FD0120FEF7E8FF0520FBF700FD57
:105350000020FEF7E2FF3D490E800120FBF7F8FC3C
:105360000120FEF7DAFF0520FBF7F2FC0020FEF734
:10537000D4FF36490F800120FBF7EAFC0120FEF73D
:10538000CCFF0520FBF7E4FC0020FEF7C6FF4FF43E
:1053900040402E4908800520FBF7DAFC0120FEF78B
:1053A000BCFF0520FBF7D4FC0020FEF7B6FF4FF44E
:1053B0000050264908800520FBF7CAFC0120FEF7B3
:1053C000ACFFFEF7BBFFBDEC068BBDE8F08170B50E
:1053D00004460D460120FEF77FFF0120FEF79DFFEA
:1053E000FEF7FBFF0020FEF7A1FF0A20FBF7B0FC51
:1053F00084F3080415B915490C8012E013490C8098
:105400000A20FBF7A5FC0120FEF790FF0A20FBF71E
:105410009FFC0020FEF78AFFA0B240F400500B4929
:1054200008800A20FBF794FC0120FEF77FFF0A208A
:10543000FBF78EFCFEF782FF70BD0000000000004D
:105440000000B0410000000060E346410C3C004019
:1054500070B504460025062C7ED2DFE804F0031E5A
:10546000446181B1FA48006840F48040F84908601E
:105470000846006820F400400860F648008820F0E4
:105480000100F44908801020F3490860C003F34983
:1054900088610020FBF78AFCC0E0ED48006840F41A
:1054A0008040EB4908600846006820F4004008602E
:1054B000E848008820F01100E6490880E5482038D7
:1054C000008820F00100E349203908801020E249DB
:1054D0000860C003E14988610003DF4908600420D7
:1054E000DE4988619AE0DA48006840F48040D84993
:1054F00008600846006820F4004008600820D7498A
:1055000088614004D4490860401108600420D349F0
:105510008861D048008840F00100CE4908807DE0D5
:10552000CB48006840F48040C949086008460068DC
:1055300020F400400860C748008820F00100C549F9
:1055400008801020C4490860C003C4498861001164
:10555000C1490860042000E05EE0C04988615DE068
:105560004FF48030BC490860BB481838006840F0F0
:105570000100B949183908600846006820F00200A7
:105580000860B348006820F48040B14908600846CC
:10559000006840F4004008604FF48010AE49086095
:1055A0000820AE4988610003AB4908600420AB497C
:1055B0008861A848008840F01100A64908802DE0C5
:1055C000A348006840F48040A1490860084600688C
:1055D00020F400400860A0481838006820F0C0009F
:1055E0009D491839086001209B4908609A4818387D
:1055F000006840F0010098491839086008460068C2
:1056000020F002000860102093490860C00393490D
:1056100088614010886101E0012500BF00BF284675
:1056200070BD70B58A4810300068012121EA10343D
:105630008B480068844207D089480460012C01D15E
:10564000202000E0002004437CB1FBF7A3FA0546CC
:10565000844801882846FBF7A1FAB0F5FA6F01D912
:10566000102000E00020044303E0FBF793FA7D499B
:105670000880204670BD70B5FDF74AFDC401E017F3
:1056800004EBD060451105F3070070BD70B5764896
:10569000C06928B3FBF77EFA05467348018C28469B
:1056A000FBF77CFA41F2883188421FD96F48406A83
:1056B00040B96D4890F83C00C0F3400010B901F0CB
:1056C000B9FC04E0322001F0E7FA01F0B8FC6648CA
:1056D00090F83C00C0F3400018B10A206249C8614C
:1056E00004E003F07DF800205F49C8615E48C06AAD
:1056F00038B101205C49C86101F0A1FC322001F001
:10570000CBFA5948406A042801DD012000E000205E
:105710005549496A11F1040F01DA012100E0002125
:10572000441AFBF737FA05464F48018C2846FBF729
:1057300035FA462800DA00240020FDF7EDFC0020B1
:10574000494948620846806A00B91CB1FBF722FA51
:10575000454908844448C069292870D017DC1E28B0
:105760006ED00BDC14286CD003DC48B30A2869D156
:10577000F3E0152867D01628F9D15FE11F2863D020
:10578000202862D0212861D02828F0D156E240F2AA
:10579000E932811A904235D009DC2A2857D03228C4
:1057A00076D0332875D0B0F57A7FE0D11BE001299F
:1057B0007AD002296FD003296ED00429D7D1BBE05B
:1057C000294890F8280010F0100F0BD1264890F8C7
:1057D000280010F0200F05D003F002F84FF47A7083
:1057E0002149C86174E32148406A20B9322001F0A0
:1057F00053FA01F024FC601C03D140F2E9301A494D
:10580000C86165E3184890F8280010F0200F44D0D4
:1058100017A0FDF7D7F947F6FF701349486008460F
:10582000C06B20F00200801CC8630846C06B20F0EB
:105830000100C8630A20C8610020086433E065E203
:105840002CE194E043E3C9E071E19DE1C9E18FE21D
:1058500000040240200800401808024000000240F6
:10586000C4010020C001002024670020C46600207D
:105870000D0A5A65726F696E67207265717565737E
:10588000742066726F6D20756E6974210D0A0000B8
:10589000A0E2C8E208E01FE036E0601C03D140F25D
:1058A000EA30F849C86113E3F64890F8280010F090
:1058B000200F03D01420F349C8610CE0012C04D15F
:1058C00040F2E930EF49C86105E0601C03D140F2C5
:1058D000EB30EC49C861FBE2EA4890F8280010F090
:1058E000200F03D01E20E749C8610CE0012C04D131
:1058F00040F2EA30E349C86105E0601C03D14FF48F
:105900007B70E049C861E3E2DE4890F8280010F0BF
:10591000200F03D02820DB49C8610CE0012C04D102
:1059200040F2EB30D749C86105E0601C03D140F27A
:10593000ED30D449C861CBE2D24890F8280010F08D
:10594000200F03D03220CF49C86105E0012C03D1DC
:105950004FF47B70CB49C861BAE2CA4890F828007E
:1059600010F0200F02D1012C00D000BFB0E2C548DA
:1059700090F8280010F0200F08D0C348406A08B9FA
:1059800001F058FB0020BF49C86126E0012C11D16D
:10599000BD48007810F0020F03D01620B949C86145
:1059A0001BE0B948007810F0040F16D01520B54957
:1059B000C86112E0601C10D1B348007810F0020FEB
:1059C00003D01620AF49C86107E0AF48007810F057
:1059D000040F02D01520AB49C86179E2A94890F8BC
:1059E000280010F0200F1DD0A748006840F00200EA
:1059F000A54908600846006820F0040008600120FE
:105A0000FFF7F6FB40F2DB70FBF785FC9E48406A2F
:105A100010B901F00FFB01E002F0E2FE002099490D
:105A2000C8610AE0012C03D116209649C86104E040
:105A3000601C02D116209349C86149E2914890F850
:105A4000280010F0200F1DD08F48006840F004009F
:105A50008D4908600846006820F0020008600220B6
:105A6000FFF7C6FB40F2DB70FBF755FC8648406A47
:105A700010B901F0DFFA01E002F0B2FE0020814926
:105A8000C8610AE0012C03D115207E49C86104E0F9
:105A9000601C02D115207B49C86119E2794890F851
:105AA000280010F0200F08D07748406A08B901F0AC
:105AB000C1FA00207349C86138E0012C1AD172483C
:105AC000007810F0100F03D020206E49C8612DE03F
:105AD0006D48007810F0200F03D021206949C8617B
