:020000040000fa
:08000000000c040000000000e8
:020000040000fa
:08020000000c000005000000e5
:020000040000fa
:101800008f2e21000e7f22000e01880000000000b4
:101810000c000700403726000100200011000700df
:10182000000020000000e000020032000000020082
:1018300000000000bc340200000000000040da009c
:101840000000fe004440a900605d20000000e000b0
:101850000300320000002000a00188004440a800de
:101860000000060091018800800078000000eb0075
:1018700015003700e280400032a0b4009101ba00a8
:10188000e280400032a0b4009102ba00e280400041
:1018900032a0b4000002eb00472bde00f507b200d7
:1018a000602ce10004003a000059eb008301e900dc
:1018b000fdff3e00040037006128e1000100320016
:1018c0000082eb00040007001101ba000200e000f2
:1018d000e8ff3a00000006003159ba008301e90030
:1018e0000c0032002159ba008301e90008003200df
:1018f0000400e00003003a00e280400032a0b4009f
:10190000f5ff370011d9ba008301e900faff3a0068
:101910008100e800e180400032a0b4000000060031
:101920006022b800060220000000d0008180d200b2
:101930000482d2008582d2000000a0000202520080
:1019400083825a00030031000202420083824a006f
:101950000000a1000603e900f3ff3a0000000600c2
:10196000839f68000100e00002003d00600010005d
:10197000e08018000300e00002003d00600111005b
:10198000e0811900e6ff07004f00e00002003b0085
:1019900060001000e080180000000600e0ff070073
:0819a0000400be000000060077
:020000040000fa
:020000040001f9
:0457f0007fff000037
:020000040000fa
:020000040001f9
:0457f400fffc0000b6
:020000040000fa
:020000040001f9
:0457f800cefa0000e5
:020000040000fa
:020000040001f9
:0457fc007f3f0000eb
:020000040000fa
:10000800de660000de660000de660000de660000d8
:10001800de660000de660000de660000de660000c8
:10002800de660000de660000de660000de660000b8
:10003800de660000de660000de660000de660000a8
:10004800de660000de6600001a130000aa12000037
:10005800c6120000de660000de660000de660000f4
:10006800de660000de660000de6600003613000073
:10007800de660000de660000de660000de66000068
:10008800de660000de660000de660000de66000058
:10009800de660000de660000e2120000fe120000cc
:1000a800de660000de660000de660000de66000038
:1000b800de660000de660000de660000de66000028
:1000c800de660000de660000de660000de66000018
:1000d800de660000de660000de660000de66000008
:1000e800de660000de660000de660000de660000f8
:1000f800de660000de660000de660000de660000e8
:10010800de660000de660000de660000de660000d7
:10011800de660000de660000de660000de660000c7
:10012800de660000de660000de660000de660000b7
:10013800de660000de660000de660000de660000a7
:10014800de660000de660000de660000de66000097
:10015800de660000de660000de660000de66000087
:10016800de660000de660000de660000de66000077
:10017800de660000de660000de660000de66000067
:10018800de660000de660000de660000de66000057
:10019800de660000de660000de660000de66000047
:1001a800de660000de660000de660000de66000037
:1001b800de660000de660000de660000de66000027
:1001c800de660000de660000de660000de66000017
:1001d800de660000de660000de660000de66000007
:1001e800de660000de660000de660000de660000f7
:0801f800de660000de66000077
:020000040000fa
:10020800de660000de660000de660000de660000d6
:10021800de660000de660000de660000de660000c6
:10022800de660000de660000de660000de660000b6
:10023800de660000de660000de660000de660000a6
:10024800de660000de6600001a130000aa12000035
:10025800c6120000de660000de660000de660000f2
:10026800de660000de660000de6600003613000071
:10027800de660000de660000de660000de66000066
:10028800de660000de660000de660000de66000056
:10029800de660000de660000e2120000fe120000ca
:1002a800de660000de660000de660000de66000036
:1002b800de660000de660000de660000de66000026
:1002c800de660000de660000de660000de66000016
:1002d800de660000de660000de660000de66000006
:1002e800de660000de660000de660000de660000f6
:1002f800de660000de660000de660000de660000e6
:10030800de660000de660000de660000de660000d5
:10031800de660000de660000de660000de660000c5
:10032800de660000de660000de660000de660000b5
:10033800de660000de660000de660000de660000a5
:10034800de660000de660000de660000de66000095
:10035800de660000de660000de660000de66000085
:10036800de660000de660000de660000de66000075
:10037800de660000de660000de660000de66000065
:10038800de660000de660000de660000de66000055
:10039800de660000de660000de660000de66000045
:1003a800de660000de660000de660000de66000035
:1003b800de660000de660000de660000de66000025
:1003c800de660000de660000de660000de66000015
:1003d800de660000de660000de660000de66000005
:1003e800de660000de660000de660000de660000f5
:0803f800de660000de66000075
:020000040000fa
:1019a8000025000064000000256c000000250000f0
:1019b8006425000064000000256400002564000020
:1019c80025640000000000001a000000020000006a
:1019d800d48c00003400000002000000d58c000008
:1019e8003700000006000000d48c0000a6000000ac
:1019f80004000000d48c0000310000000400000046
:101a0800d48c0000ad00000006000000d48c00005b
:101a1800a400000004000000d48c0000470000006f
:101a280002000000d48c0000d0000000020000007a
:101a3800d58c00004d00000002000000d88c00008a
:101a48003b00000002000000d88c000048000000a5
:101a580002000000db8c000097000000020000007c
:101a6800d88c0000aa00000002000000d58c0000fd
:101a7800bc00000002000000d58c0000a800000097
:101a880002000000d58c0000be000000020000002b
:101a9800d58c00006a00000002000000d88c00000d
:101aa800da00000002000000d58c0000de00000013
:101ab80002000000db8c0000a00000000200000013
:101ac800d58c0000ae00000002000000d58c00009c
:101ad8001400000002000000d88c0000250000005f
:101ae80002000000d58c0000270000000200000062
:101af800d58c00002600000002000000d58c0000f4
:101b08009e00000002000000d58c00009300000039
:101b180002000000d58c00002b000000020000002d
:101b2800d58c00000f00000002000000d58c0000da
:101b38000600000002000000d58c00009c00000098
:101b480002000000d58c0000950000000200000093
:101b5800d88c00007700000002000000d58c00003f
:101b6800eb00000002000000d58c00002f000000f0
:101b780002000000d58c0000a20000000200000056
:101b8800d58c0000d800000002000000d58c0000b1
:101b98007500000002000000d58c0000e200000083
:101ba80002000000d58c0000e800000002000000e0
:101bb800d58c0000e400000002000000d58c000075
:101bc8007200000002000000d58c0000e600000052
:101bd80002000000d58c0000d600000002000000c2
:101be800e08c0000d400000002000000db8c000044
:101bf8001b00000002000000d58c00000800000057
:101c080002000000d58c00000c000000020000005b
:101c1800d58c00004300000002000000d58c0000b5
:101c2800f600000002000000db8c000073000000da
:101c380002000000db8c00005e00000002000000d3
:101c4800db8c00004500000002000000e08c000072
:101c5800fb00000002000000d58c000062000000bc
:101c680002000000db8c00004100000002000000c0
:101c7800db8c00006500000002000000d58c00002d
:101c88009000000002000000d88c000091000000c5
:101c980002000000d88c00001100000002000000c3
:101ca800d88c00001300000002000000d88c00004f
:101cb8001000000002000000d88c00008f00000017
:101cc80006000000d48c00007a000000020000002a
:101cd800d48c00003600000006000000d48c000000
:101ce8002e00000002000000d48c0000f500000067
:101cf80002000000d88c00008500000002000000ef
:101d0800db8c00000e00000004000000d48c0000f2
:101d18002900000002000000db8c0000ef0000003a
:101d280004000000d58c0000c0560000fe0300002f
:101d38005442000044300000303100000000000030
:101d48001000000007000000010000000000000073
:101d5800000000000000000000000000000000007b
:101d6800000000000000000000000000000000006b
:101d7800000000000000000000000000000000005b
:101d8800000000000000000000000000000000004b
:101d9800000000000000000000000000000000003b
:101da800000000000000000001000000000000002a
:101db800000000000000000000000000000000001b
:101dc8000000000001000000000000000100000009
:101dd800526500007365000074000000496e000041
:101de800766100006c69000064200000496e000004
:101df800737400007275000063740000696f00005e
:101e08006e000000496e0000766100006c690000f9
:101e18006420000041780000697300000049000058
:101e28006e760000616c00006964000020500000bc
:101e380061720000616d0000657400006572000049
:101e480000350000003600000037000000380000b0
:101e58000042000061640000204300006865000043
:101e6800636b0000737500006d00000031300000e6
:101e7800004e00006567000061740000697600008c
:101e880065200000566500006c6f00006369000063
:101e980074790000005300002d6300007572000083
:101ea8007665000020430000686100006e6700004e
:101eb80065000000496e0000766100006c69000052
:101ec800642000004d6f000076650000204100008e
:101ed8006674000065720000204500007665000009
:101ee8006e740000004d00006f7600006520000051
:101ef800496e0000746f0000204c0000696d0000fe
:101f0800697400000031000035000000496e0000cf
:101f1800766100006c690000642000004f700000ca
:101f28004d6f0000646500002041000066740000e9
:101f38006572000020450000766500006e740000a0
:101f4800004900006e760000616c000069640000c2
:101f5800204900006e730000747200007563000071
:101f6800746900006f6e0000204300006f6e00006f
:101f78007465000078740000000000000d0a00007d
:101f88004e7500006d2000006d6500007373000041
:101f98006167000065730000203d000020250000f7
:101fa800640000000d0a00004d7300006720000067
:101fb8006e7500006d620000657200003a20000036
:101fc80025640000000d00000a20000020540000d5
:101fd800782000006c6500006e2000003d200000a5
:101fe80025640000000d00000a200000204d0000bc
:101ff8007367000020540000783a000020000000b9
:1020080025780000200000000d0a000020200000b4
:102018004d7300006720000052780000206c00001b
:10202800656e0000203d00002025000064000000cf
:102038000d0a0000202000004d73000067200000fa
:10204800527800003a200000000d00000a2000002d
:1020580020530000746100007475000073200000b4
:102068003d20000025640000004d000043350000bd
:10207800383100003132000020280000256c0000b3
:1020880058290000005000006861000073650000d6
:10209800206900006e69000074690000616c00002e
:1020a8006973000061740000696f00006e20000011
:1020b80066610000696c0000656400000020000093
:1020c8000045000045570000726900007465000073
:1020d8000045000045560000657200006966000072
:1020e80079000000910400000e000000812100002a
:1020f80000000000000000000000000000000000d8
:102108000000000000000000000000004d6f00000b
:10211800746900006f6e00002045000072720000b4
:102128006f7200003a200000257300002c20000088
:10213800636f00006d6d0000616e00006420000098
:102148003d200000307800002578000000420000a3
:1021580075730000566f00006c7400006167000022
:1021680065000000436f00006d6d0000757400008d
:1021780061740000696f00006e0000004f76000077
:1021880065720000746500006d70000065720000e3
:10219800617400007572000065000000496e00005f
:1021a80074650000726c00006f6300006b00000033
:1021b800496e0000737400007245000072720000de
:1021c8006f720000004f0000766500007263000027
:1021d80075720000726500006e7400000056000001
:1021e800656c00006f6300006974000079200000ce
:1021f8003d20000025640000202800006c690000d4
:102208006d2000003d20000025640000290000002a
:102218000d0a000054420000443000003031000034
:102228002042000072750000736800006c650000b1
:102238007373000020440000432000004d6f00002d
:10224800746f000072200000436f00006e7400007d
:10225800726f00006c6c0000657200000d0a0000cf
:10226800003100002d570000697200006520000051
:102278004f4b0000003100002d570000697200002c
:102288006520000065720000726f00007220000077
:1022980025640000000d00000a530000746100006e
:1022a80067650000203d000020250000732c000019
:1022b800205300002f4e0000203d00002025000084
:1022c8006c750000000d00000a4500004553000031
:1022d8002f4e0000203d0000202500006c750000f6
:1022e8000d0a000000430000616c000069620000f4
:1022f800446100007461000020280000506800005c
:1023080041290000203d000020250000640d000048
:102318000a000000436100006c690000624400008c
:10232800617400006120000028500000684200002d
:10233800292000003d200000256400000d0a00004f
:10234800004e00006f200000436100006c6900002f
:102358006244000061740000610d00000a00000082
:102368000d0a00004f70000050610000726100000b
:102378006d7300003c2d00004545000050610000d1
:10238800726100006d730000000d00000a49000032
:102398006e6900007420000066610000696c00002e
:1023a800656400002c2000006d73000067200000a9
:1023b8003d20000000300000782500007820000053
:1023c8000054000078510000756500007565000034
:1023d800467500006c6c0000000d00000a4100000a
:1023e80074200000746900006d650000203d000045
:1023f80020250000752000000045000078630000db
:102408006867000020650000727200006f720000ab
:10241800002000005374000061740000203d00009b
:1024280020250000582c000020540000785400009b
:10243800696d0000653d0000202500007520000042
:102448000052000078540000696d0000656f0000bc
:1024580075740000000000000d0a000043610000d0
:102468006c6900006272000061740000696e00000f
:10247800673a0000200000002a0000000d0a000052
:1024880041760000652000003d2000002575000011
:10249800206100006e640000202500007500000027
:1024a8000d0a0000446f00006e6500002e00000059
:1024b800436100006c6900006272000061740000f2
:1024c800656400002c20000070610000726100004b
:1024d8006d730000203d00002025000075200000dd
:1024e800616e0000642000002575000000000000f7
:1024f8000d0a0000486f00006d6900006e6700005b
:102508003a200000004800006f6d0000696e00006e
:1025180067460000616900006c6500006400000007
:102528002564000020000000303100003233000034
:1025380034350000363700003839000041420000c9
:0c25480043440000454600000000000075
:020000040000fa
:102554003600f800809fbe00829fbe00849fbe00ac
:10256400869fbe000000fa00f52707000080fa00ed
:102574004f03be004f02be004f01be004f00be001d
:102584003600f900004006003600f800809fbe00c7
:10259400829fbe00849fbe00869fbe000000fa009a
:1025a4001d2807000080fa004f03be004f02be0042
:1025b4004f01be004f00be003600f9000040060087
:1025c4003600f800809fbe00829fbe00849fbe003c
:1025d400869fbe000000fa00dc2607000080fa0097
:1025e4004f03be004f02be004f01be004f00be00ad
:1025f4003600f900004006003600f800809fbe0057
:10260400829fbe00849fbe00869fbe000000fa0029
:10261400052707000080fa004f03be004f02be00ea
:102624004f01be004f00be003600f9000040060016
:102634003600f800809fbe00829fbe00849fbe00cb
:10264400869fbe000000fa00f32807000080fa000d
:102654004f03be004f02be004f01be004f00be003c
:102664003600f900004006003600f800809fbe00e6
:10267400829fbe00849fbe00869fbe000000fa00b9
:102684009e2207000080fa004f03be004f02be00e6
:102694004f01be004f00be003600f90000400600a6
:1026a4000000fa001327070020958800d4e2a80050
:1026b400cc82a8008d27070000202c0011002000e8
:1026c400852607000e290700bd2807007d2907007d
:1026d400452907006c29070020958000e40f50006d
:1026e40001003a007b2207000080fa000000060087
:1026f4002e00fa000000eb00100798002040800034
:10270400e6004700801f780020fc2800801f780026
:102714000100780091200700e48757006600470015
:102724001e1f0700670037009e0090001e009000e7
:102734000000e8001007980066014700811f780038
:1027440060fd2800801f78000200780083200700c5
:10275400e487570066004700101f07001e0078003a
:1027640010009000e6004700801f780070fe2800eb
:10277400801f78000100780078200700e487570064
:1027840066004700051f070070ff2800031f0700ad
:102794000000eb0020079800120037002e00900084
:1027a4009e00780064004000010040001040780062
:1027b4000000fb00e6004700801f7800400029006d
:1027c400801f78000100780064200700e487570028
:1027d40066004700f11e07002e0090000000e8008c
:1027e400200798002e0090009e0078009100900031
:1027f400810f5000e9ff39001e0078001008900096
:10280400e6004700801f780080002900801f7800c0
:102814000100780051200700e48757006600470054
:10282400de1e0700c0012900dc1e07000000eb00cb
:1028340020079800120037002e0090009e007800b8
:102844007600400001004000104078000000fb00ca
:10285400e6004700801f780040002900801f7800b0
:10286400010078003d200700e48757006600470018
:10287400ca1e07002e0090000000e8002007980000
:102884002e0090009e00780091089000810f500067
:10289400e9ff39001e00780000089000e6004700b8
:1028a400801f780090022900801f780001007800c2
:1028b4002a200700e487570066004700b71e070078
:1028c4004b220700fd220700000f78001e00e000e5
:1028d40095ff3a0010002000b52107000080fa009f
:1028e400000006000400fa000000eb0090018800dc
:1028f4000000eb001000ba00100798000000eb0085
:102904001080ba00000f78001e007800010020003b
:10291400c001dd00020020001e0090000100200024
:1029240000007100818071000080fa000000060040
:10293400ae00fa00881f7800a0bc20005007980061
:1029440080c3200040079800309780000080e80092
:1029540030079800c0d520002007980000202100ef
:1029640010079800c017210010007800600f98002d
:1029740080d1bf000074a1002057980040022000bd
:102984000e00400010179800400220000e00400086
:10299400660040000017980020182100700f98006e
:1029a4001e109000e30040000040eb0080487800d7
:1029b4001e109000e400400010c0b300804878006e
:1029c4001e109000e50040002e50900080487800d2
:1029d4000040eb00105798006e0890006097980034
:1029e40060442000ee909000808f50005e0432001e
:1029f400604420006e919000800f51008e003e00d4
:102a0400a0402000ee919000808f510070023200af
:102a1400a0402000ee909000808f50003e003e00c9
:102a2400002120006e919000800f5100fd013200c2
:102a340000212000ee919000808f510018003e008c
:102a44006e909000f20f5000b9013200ee909000a9
:102a5400f28f500007003e006e919000e50f510088
:102a64000d013200ee919000f18f51009e01320071
:102a7400df0b37006e909000f50f5000b10b320061
:102a840000062000ee909000808f50006801320014
:102a94006e919000f40f5100350b3200d40b3700c7
:102aa40040212000ee919000808f5100c00132003f
:102ab40040212000ee909000808f500009003e00dd
:102ac400102120006e919000800f510018023200f6
:102ad40030212000ee919000808f51009a01320045
:102ae400c30b370090222000ee909000808f50009e
:102af40069013200904020006e919000800f5100d7
:102b04002602320030222000ee919000808f510086
:102b140044013200b60b370040422000ee90900092
:102b2400808f500035033200404220006e919000a7
:102b3400800f51001e003e0030412000ee919000b5
:102b4400808f51008d02320030412000ee909000c1
:102b5400808f500009003e00004120006e919000db
:102b6400800f51003902320010412000ee91900094
:102b7400808f5100420232009d0b370060412000db
:102b8400ee909000808f5000cc0232007041200003
:102b94006e919000800f5100e50232004041200008
:102ba400ee919000808f51009f023200900b37000d
:102bb40000442000ee909000808f50005c033200af
:102bc400004420006e919000800f51000d003e00e3
:102bd400a0432000ee919000808f5100b00332009a
:102be400b0432000ee909000808f5000bd0332006f
:102bf400904220006e919000800f510046023200f6
:102c04007b0b370030442000ee919000808f510000
:102c14007a03320050442000ee909000808f5000e0
:102c2400cb033200104420006e919000800f5100bd
:102c34004b0332006e0b3700a04d2000ee91900044
:102c4400808f51001d073200a04d2000ee909000af
:102c5400808f500048003e00a04620006e919000f6
:102c6400800f510043053200a0462000ee919000f1
:102c7400808f51001e003e0010452000ee90900011
:102c8400808f500041043200104520006e91900066
:102c9400800f510009003e0080442000ee91900016
:102ca400808f5100ca03320000452000ee9090004e
:102cb400808f50002e0432004d0b370070452000e9
:102cc4006e919000800f5100aa04320050462000fb
:102cd400ee919000808f51000205320030452000b3
:102ce400ee909000808f500043043200400b370078
:102cf400404d20006e919000800f5100ff0732007c
:102d0400404d2000ee919000808f51000d003e0058
:102d140020492000ee909000808f5000fa0132008c
:102d2400904b20006e919000800f5100790a320080
:102d340000492000ee919000808f5100ef01320095
:102d44002b0b3700704d2000ee909000808f5000c8
:102d540029063200804d20006e919000800f5100b2
:102d640093063200504d2000ee919000808f510068
:102d74008b0832001e0b3700704e2000ee9090003e
:102d8400808f5000040a3200704e20006e91900033
:102d9400800f51001e003e00104e2000ee91900066
:102da400808f51005d073200104e2000ee9090009d
:102db400808f500009003e00b04d20006e919000bd
:102dc400800f5100ed063200004e2000ee9190007d
:102dd400808f510013073200050b3700404e20004e
:102de400ee909000808f50009f073200604e2000cc
:102df4006e919000800f5100220a3200304e200064
:102e0400ee919000808f510078073200f80a370065
:102e1400104f2000ee909000808f50004a0932003d
:102e2400104f20006e919000800f51000d003e0065
:102e3400a04e2000ee919000808f5100e6083200f1
:102e4400004f2000ee909000808f50001609320051
:102e5400904e20006e919000800f51009708320030
:102e6400e30a370000502000ee919000808f51005b
:102e74006c05320010502000ee909000808f5000be
:102e8400ce053200304f20006e919000800f51002b
:102e9400320a3200d60a37009e10900060002000eb
:102ea400800878001e1090008080e80040c5b300c0
:102eb400804878001e109000640140001e109000ad
:102ec400640040009040780000c8b30000c0700067
:102ed400004978000e10900083e9280029000900b9
:102ee400331878004005b1001e0090001001be00a8
:102ef4000e109000f2004000829fbe009003290053
:102f0400801f780001007800941e0700e6875700b0
:102f14000e11900050648000616480000089be003e
:102f24000e1090005097980020958000e40f5000f8
:102f340003003a0021002000419798000200370066
:102f440012002000429798004e909000de9190006d
:102f5400f02198008e10900010c3b300a0c0980018
:102f64008e10900030c3b300b0c098008e10900053
:102f740040c3b300c0c098008e10900070c3b3006b
:102f8400d0c098008e1090003197980001c2b30011
:102f940000c2b30080cf50000300320002c2b3006d
:102fa400426799000200370003c3b30043679900e6
:102fb400ce6091003e90900061c098008e10900009
:102fc40030c3b300f0c098008e10900060c4b3000a
:102fd40080c898008e10900050c6b30090c8980026
:102fe4008e10900020c6b300a0c898008e109000e8
:102ff40020c3b300b0c898008e10900020c3b30063
:10300400c0c898008e1090000040eb00d0c8980013
:1030140010c0b3001057980020002000309588009d
:10302400750a370020002000291f0700720a3700a4
:103034007ed1bf00005798009e109000100620001b
:10304400800878001e1090008080e8000e509000e8
:10305400804878001e10900063004000109798008c
:103064000e5090000004e00003003a0012c0b300c8
:10307400026799000200370023c0b3000367990078
:103084008e6091001e9090000148780010c0b3003b
:1030940010579800580a37007fd1bf00fcf1b700e1
:1030a4009e10900000232000800878001e109000dd
:1030b4008080e8000040eb00804878001e109000fb
:1030c400e30040000040eb00804878001e109000b0
:1030d400e5004000fcd1bf008048780010c0b30078
:1030e40010579800440a37001e019000d20890003f
:1030f4000010200000807000500998009e0090008d
:103104000000eb0080109800d1908000000820009f
:10311400008060000000e000370a3a0072042900d1
:10312400510f28000000eb00ad0b0700320a3700f6
:103134001e019000d2089000f0ef2f000080600084
:10314400500998002c0a37007ed1bf000000fb0014
:10315400610060000004e000070032005e0090009f
:10316400b018900000402000808070005e00900045
:1031740031189800060037005e009000b0189000e7
:10318400f0bf2f00808060005e009000311898002e
:103194005e00900030189000801f7800200a200004
:1031a400801f7800d9200700e4875700120a3700ef
:1031b4009e10900050212000800878001e0090008e
:1031c400300890004a00de00e10060005e009000dc
:1031d400301890004a00de0061006000808f5000cb
:1031e40005003a001e1090008080e80010c0b30073
:1031f40080487800040037001e1090008080e800aa
:103204000040eb00804878001e109000e30040006e
:103214000040eb008048780010c0b30010579800bd
:10322400f50937007fd1bf008000fb00f00f2000bc
:1032340000806000e10f50002c003a00c0002c0018
:10324400801f780040032000801f7800af20070013
:10325400e4875700d19080000000280000806000bf
:103264000000e0000700320030032000801f7800d7
:1032740050062000801f7800a4200700e487570030
:103284000600370070032000801f780050062000dd
:10329400801f78009d200700e4875700f0fe2f0070
:1032a400801f780040032000801f780097200700cb
:1032b400e487570032062900010028000000eb00d3
:1032c400470b07001e019000d2089000f0bf2f00aa
:1032d40000806000500998009e0090005108900002
:1032e4000020a000d0089800c30937001000200077
:1032f400801f780050062000801f7800832007007c
:10330400e48757001e019000d2089000b0ff2f0000
:1033140000806000500998001e019000d2089000bf
:10332400f0ff2e000080600050099800b2093700b9
:103334009e10900020212000800878001e1090002c
:103344008080e80010c0b300804878001e10900010
:1033540063004000708f98001e009000d008900019
:1033640000202000008060000000e0000300320024
:1033740012c0b300425f99000200370023c0b300bb
:10338400435f9900ce5891007e88900001487800f0
:1033940010c0b30010579800970937007e089000ba
:1033a40010019000a0019000620798007307980034
:1033b4006e009000fe009000809fbe00d0042000ac
:1033c400801f780051200700e68757008a093700dc
:1033d4009e109000b0402000800878001e109000dd
:1033e4008080e80060c0b300804878001e10900020
:1033f400640140001e10900064004000904078007a
:1034040000c8b30000c07000004978008e1090001e
:1034140010002000800878001e0090002001900019
:10342400b001900062079800730798000e10900096
:103434006e019000fe019000120098002300980095
:1034440010c0b300105798006b0937007e08900035
:1034540010019000a0019000620798007307980083
:103464006e009000fe009000809fbe00d0042000fb
:10347400801f780025200700e68757005e09370083
:103484009e10900020412000800878001e109000bb
:103494008080e80060c0b300804878001e1090006f
:1034a400640140001e1090006400400090407800c9
:1034b40000c8b30000c07000004978008e1090006e
:1034c40010002000800878001e0090002001900069
:1034d400b001900062079800730798000e109000e6
:1034e4006e019000fe0190001200980023009800e5
:1034f40010c0b300105798003f093700104920004e
:10350400610907003c0937009e0090000000eb00b1
:1035140080109800380937009e109000a0422000c7
:10352400800878001e1090008080e80060c0b3001e
:10353400804878001e109000640140001e10900026
:10354400640040009040780000c8b30000c07000e0
:10355400004978008e109000100020008008780048
:103564000e149000830907001004980021049800a9
:1035740010c0b300105798001f0937007e08900050
:10358400c0009000300090004e019000400198006f
:10359400510198004e009000d0009000400090002f
:1035a4004e01900060019800710198007e0890001f
:1035b400e0009000500090004e0190000009980037
:1035c400110998004e009000d00090004000900037
:1035d400809fbe0000092000801f7800cb1f0700d9
:1035e400e68757004e009000f000900060009000c5
:1035f400809fbe0010092000801f7800c31f0700b1
:10360400e68757004e009000900890000008900054
:10361400809fbe0010012000801f7800bb1f0700a0
:10362400e6875700f40837009e10900050412000b0
:10363400800878001e1090008080e800e0c0b3008d
:10364400804878001e109000640140001e10900015
:10365400640040009040780000c8b30000c07000cf
:10366400004978008e109000100020008008780037
:103674000e1190006000b80010019800210198001c
:103684000e1190004e009000d00090004000900079
:1036940030019800410198000e1190004e009000f6
:1036a4009008900000089000500198006101980073
:1036b40010c0b30010579800cf0837007e08900060
:1036c40010009000800078004e009000510898008f
:1036d4007e089000b0009000200090004e01900001
:1036e40060099800710998007e089000f00090002d
:1036f400600090004e019000001198001111980094
:103704007e08900090089000000890004e01900000
:1037140020119800311198007e0890002008900034
:10372400800078004e00900041109800b2083700e5
:103734009e10900080412000800878001e109000a8
:103744008080e80060c1b300804878001e109000bb
:10375400640140001e109000640040009040780016
:1037640000c8b30000c07000004978008e109000bb
:1037740010002000800878008e1090004e00900009
:1037840050089000900098000e1190004e00900098
:10379400f008900060089000200198003101980022
:1037a4000e1190006000b80040019800510198008b
:1037b4000e1190004e0090009010900000109000a8
:1037c40060019800710198000e1190004e00900065
:1037d400b010900020109000000998001109980082
:1037e4008e1090004e00900040109000a0089800a9
:1037f40010c0b300105798007f0837009e10900047
:1038040050422000800878001e1090008080e8005c
:1038140000c1b300804878001e109000640140008d
:103824001e109000640040009040780000c8b3006f
:1038340000c07000004978008e1090001000200035
:10384400800878005e009000503090006f006000a7
:103854000000e00004003a008e10900010002000e8
:10386400900098000d0037005e0090003018900022
:103874004400de00610060000004e0000400320047
:103884008e10900030002000900098000300370054
:103894008e10900020002000900098005e009000a0
:1038a400d030900000f02000008060000000e000b4
:1038b40004003a008e10900010002000a000980030
:1038c4000d0037005e009000301890004500de00c7
:1038d400610060000004e000040032008e109000db
:1038e40030002000a0009800030037008e109000e4
:1038f40020002000a00098000e1190006000b80085
:1039040030019800410198000e1190006000b80049
:1039140050019800610198008e1090000000eb00a7
:10392400f000980010c0b300105798003208370018
:103934007e089000c0009000300090004e0190007e
:1039440000199800111998007e089000100090004a
:10395400800078004e00900071109800260837000f
:103964009e10900020442000800878001e109000d3
:103974008080e800e0c0b300804878001e1090000a
:10398400640140001e1090006400400090407800e4
:1039940000c8b30000c07000004978008e10900089
:1039a40010002000800878008e1090004e009000d7
:1039b40070109000900098008e109000100020006d
:1039c400a00098000e1190004e00900090189000f6
:1039d4000018900030019800410198000e119000e9
:1039e40000a62e00010020005001980061019800fb
:1039f40010c0b30010579800ff0737001e00900056
:103a0400d008900000002100008060000000e00069
:103a1400f9073a00ae0090006000200080087800aa
:103a24002e019000000020000100240010019800e5
:103a3400210198002e0190006000b8003001980028
:103a4400410198004e009000b0189000201890009a
:103a54002e01900050019800610198004e009000e2
:103a640090189000001890002e01900070019800aa
:103a7400010998002e0190006000b8001009980018
:103a840021099800ae0090000000eb00b0089800f7
:103a94009e00900010002000f0089800d607370020
:103aa4007e089000a0009000100090004e0190004d
:103ab40050119800611198004e009000e0109000a1
:103ac40050109000e00f5000e08f5800ca073d00ee
:103ad4004e0190006000b8005011980061119800e8
:103ae400c50737009e109000c0432000800878006e
:103af4001e1090008080e80060c0b3008048780009
:103b04001e109000640140001e10900064004000ec
:103b14009040780000c8b30000c0700000497800ed
:103b24008e10900010002000800878000e11900084
:103b34004e009000e010900050109000100198008a
:103b44002101980010c0b30010579800aa0737004d
:103b54007e089000a000900010009000822a2100ae
:103b64000089be00a40737009e1090007044200016
:103b7400800878001e1090008080e80060c0b300c8
:103b8400804878001e109000640140001e109000d0
:103b9400640040009040780000c8b30000c070008a
:103ba400004978008e1090001000200080087800f2
:103bb4000e119000802a21001000be001001980010
:103bc4002101980010c0b300105798008a073700ed
:103bd4001e009000d00890000000220000806000c9
:103be4000000e000060032001e009000d0089000a3
:103bf40000002100008060000000e0007e073a0021
:103c04001e009000d0089000000021000080600099
:103c14000000e000040032002e0090003008900004
:103c2400e20f5000740732001e019000d208900089
:103c34000000210000807000500998001e019000cf
:103c4400d2089000f0ff2d00008060005009980019
:103c54001e00900020019000b001900062079800bf
:103c6400730798007e08900010019000a001900056
:103c74006e009000fe009000000041008180490029
:103c84006007980071079800ae00900010002000b3
:103c9400800878002e0090006e019000fe019000d4
:103ca40012009800230098002e009000100190004c
:103cb400a00190001e009000b00090002000900031
:103cc400800f5100818f590006003d004e00900086
:103cd40050119000e0119000428f9800538f98008b
:103ce400030037006000b800408f9800518f98009f
:103cf4002e0090004e899000de89900032009800da
:103d0400430098004e009000d000900040009000c6
:103d14002e01900050019800610198004e0090001f
:103d240090089000000890002e0190007001980007
:103d3400010998004e009000b008900020089000ff
:103d44002e01900010099800210998004e0090005f
:103d5400c00890002e009000310898009e0090004a
:103d6400510890000030a000d008980022073700c6
:103d74007e089000a000900010009000822a21008c
:103d840020019800310198001b0737009e10900015
:103d940020452000800878001e1090008080e800f4
:103da40060c0b300804878001e1090006401400099
:103db4001e109000640040009040780000c8b300da
:103dc40000c07000004978008e10900010002000a0
:103dd400800878000e119000802a2100b000900025
:103de40020009000100198002101980010c0b30039
:103df40010579800000737001e009000d00890006c
:103e040000002200008060000000e0000600320094
:103e14001e009000d0089000000021000080600087
:103e24000000e000f4063a001e009000d008900064
:103e340000002100008060000000e0000400320067
:103e44002e00900030089000e20f5000ea06320085
:103e54001e019000d2089000000021000080700034
:103e6400500998001e019000d2089000f0ff2d0028
:103e740000806000500998007e08900010019000b6
:103e8400a00190006207980073079800ae009000ac
:103e940010002000800878002e0090006e01900031
:103ea400fe01900012009800230098002e0090005c
:103eb40010019000a00190001e009000b00090003e
:103ec40020009000800f5100818f590006003d00b2
:103ed4004e00900050119000e0119000228f980045
:103ee400338f9800030037006000b800208f9800db
:103ef400318f98002e0090002e899000be8990008a
:103f040032009800430098004e009000d0009000ca
:103f1400400090002e01900050019800610198002b
:103f24004e00900090089000000890002e01900030
:103f340070019800010998004e009000b0089000ac
:103f4400200890002e019000100998002109980083
:103f54004e009000c00890002e0090003108980098
:103f64009e009000510890000030a000d0089800f6
:103f7400a10637001e009000d00890000000220027
:103f8400008060000000e000060032001e00900087
:103f9400d008900000002100008060000000e000d4
:103fa40095063a001e009000d00890000000210001
:103fb400008060000000e000040032002e00900049
:103fc40030089000e20f50008b0632001e01900072
:103fd400d208900000002100008070005009980071
:103fe4001e019000d2089000f0ff2d0000806000b8
:103ff400500998007fd1bf008000fb00f00f200023
:1040040000806000e10f50000c003a004e00900068
:104014001000be002e0190001001980021019800ac
:104024004e00900090089000000890002e0190002f
:1040340070019800010998000e0037004e009000ae
:10404400b0009000200090002e0190001001980014
:10405400210198004e009000900890000008900004
:1040640060001000e08018002e019000700198009c
:1040740001099800ae00900010002000800878002c
:104084002e0190006000b8003001980041019800b2
:104094004e009000d0009000400090002e0190004f
:1040a40050019800610198004e009000b008900003
:1040b400200890002e019000100998002109980012
:1040c400ae00900010002000b00898001e0190007f
:1040d400d208900070ff2f00008060005009980003
:1040e400450637007fd1bf008000fb00f00f2000a1
:1040f40000806000e10f500007003a00100020002b
:10410400801f7800000d2000801f7800ff1c07002e
:10411400e48757000600370020002000801f780045
:10412400000d2000801f7800f81c0700e48757006a
:10413400a0012000801f7800f41c07008f87e9008d
:104144001e019000d208900070ff2f0000806000d4
:10415400500998009e009000510890000040a00073
:10416400d0089800ae00900050002000800878002d
:10417400210637001e009000d008900000002200a5
:10418400008060000000e000060032001e00900085
:10419400d008900000002100008060000000e000d2
:1041a40015063a001e009000d0089000000021007f
:1041b400008060000000e000040032002e00900047
:1041c40030089000e20f50000b0632001e019000f0
:1041d400d20890000000210000807000500998006f
:1041e4001e019000d2089000f0ff2d0000806000b6
:1041f400500998001e019000d20890000080200011
:1042040000807000500998004e0090005008900003
:10421400e10f500029003a007fd1bf008000fb006d
:10422400f00f200000806000e10f50000c003a0005
:104234004e0090001000be002e0190001001980066
:10424400210198004e009000b010900020109000c2
:104254002e01900070019800010998000e003700ab
:104264004e009000b0009000200090002e019000bd
:1042740010019800210198004e009000b0109000a9
:104284002010900060001000e08018002e019000c3
:104294007001980001099800ae0090001000200001
:1042a400b00898001e019000d208900070ff2f0003
:1042b4000080600050099800460037007fd1bf009d
:1042c4008000fb00f00f200000806000e10f500030
:1042d40016003a001e00900020019000b0019000ea
:1042e4004e009000f008900060089000020040002a
:1042f4008380480060079800710798004e00900082
:104304001001be006e009000fe009000800f51006e
:10431400818f59001c003d004e0090001001be002a
:104324006207980073079800170037001e0090007a
:1043340020019000b00190004e009000f008900021
:1043440060089000000051008180590060079800c7
:10435400710798004e00900020019000b001900079
:104364006e009000fe009000800f5100818f590074
:10437400050034004e00900020019000b001900030
:1043840062079800730798002e0090006e01900059
:10439400fe01900012009800230098004e00900047
:1043a400b0109000201090002e0190007001980031
:1043b400010998004e009000c00890002e00900063
:1043c400310898009e009000510890000030a00031
:1043d400d0089800ae0090001000200080087800fb
:1043e4002e0190006000b80030019800410198004f
:1043f4004e00900090109000001090002e0190004c
:1044040050019800610198004e009000b00890009f
:10441400200890002e0190001009980021099800ae
:10442400750537007fd1bf008000fb00f00f20002e
:10443400808060004e009000512098004e00900053
:10444400502090004400de00610060000004e000a1
:10445400070032005e009000b01890000040200079
:10446400808070005e0090003118980006003700cc
:104474005e009000b0189000f0bf2f0080806000b4
:104484005e009000311898005e0090003018900093
:10449400801f7800200a2000801f78001b1c070062
:1044a400e48757004e009000d0209000000e2000ba
:1044b40080806000118f9800000220009e89900087
:1044c400808f51001c003200000220009e88900062
:1044d400808f500004003c001e8990000200e00020
:1044e4000a00320044053700000420009e89900031
:1044f400808f51001b003200000820009e8890002d
:10450400808f5000220032003b0537000000eb0092
:10451400801f78000000eb00801f78000000eb0093
:10452400801f780050042000801f7800f71b0700cc
:10453400e88757003005370000402000801f7800ce
:1045440000402000801f780000202000801f780099
:1045540050042000801f7800ec1b0700e8875700f8
:104564002505370010002000801f7800100020006f
:10457400801f780000102000801f78005004200065
:10458400801f7800e11b0700e88757001a053700f1
:1045940020002000801f780020002000801f780069
:1045a40000202000801f780050042000801f780025
:1045b400d61b0700e88757000f0537009e109000b0
:1045c40020502000800878001e1090008080e800b1
:1045d40010c0b300804878001e109000e300400033
:1045e4004e009000502090008048780010c0b30026
:1045f40010579800000537007e0890009000900046
:104604005e009000111098007e089000a0009000b9
:104614005e009000311098007e089000c000900069
:10462400300090005e019000101998002119980044
:104634007e089000d00090005e0090002110980049
:104644007e089000e00090005e0090000118980041
:104654007e089000f00090005e00900041109800e9
:104664007e089000800890005e0090006110980021
:104674007e089000900890005e0090005110980011
:104684007e089000b0089000200890005e01900021
:1046940000099800110998005e0090001010900025
:1046a400801f780050022000801f7800971b0700ad
:1046b400e48757005e00900030109000801f78005f
:1046c40060022000801f7800901b0700e4875700d9
:1046d4005e00900020109000801f7800700220007f
:1046e400801f7800891b0700e48757005e00900054
:1046f400a018900010189000809fbe005009200060
:10470400801f7800811b0700e68757005e00900039
:1047140040109000801f7800e0092000801f78007e
:104724007a1b0700e48757005e0090006010900039
:10473400801f7800b0022000801f7800731b0700e0
:10474400e48757005e00900050109000801f7800ae
:1047540030092000801f78006c1b0700e487570095
:104764005e00900000189000801f7800c0092000af
:10477400801f7800651b0700e4875700a001200014
:10478400801f7800611b07008f87e9005e0090009e
:104794009008900000089000809fbe0070092000df
:1047a400801f7800591b0700e687570092043700e2
:1047b4009e109000904d2000800878001e109000fc
:1047c4008080e800c0c1b300804878001e109000cb
:1047d400640140001e109000640040009040780086
:1047e40000c8b30000c07000004978008e1090002b
:1047f40010002000800878008e1090005e00900069
:1048040010109000900098008e1090005e009000b0
:1048140030109000a00098000e1190005e009000ef
:10482400a0189000101890003001980041019800e1
:104834008e1090005e00900020109000d000980030
:104844008e1090005e00900000189000e000980028
:104854008e1090005e00900040109000f0009800d0
:104864008e1090005e009000601090008008980008
:104874008e1090005e0090005010900090089800f8
:104884000e1190005e0090009008900000089000c7
:1048940020099800310998008e1090000000eb0068
:1048a400c00898008e1090000000eb00d00898001b
:1048b40010c0b300105798004f0437007e089000d2
:1048c40010009000800078005e009000312898006d
:1048d4007e08900020009000800078005e00900028
:1048e400412898005e009000c0289000d0962100d6
:1048f400808f500003003400de009000e096210019
:10490400c02898007e089000b00090005e009000df
:10491400711098005e00900030289000801f78008d
:104924000000eb00801f780010042000801f780036
:10493400f61a0700e68757005e00900040289000b2
:10494400801f780010002000801f780010042000d1
:10495400801f7800ed1a0700e68757005e0090007c
:1049640070109000801f780060002000801f780085
:10497400e61a0700e48757001f0437009e109000d2
:10498400c04d2000800878001e1090008080e80050
:10499400e0c0b300804878001e109000640140001d
:1049a4001e109000640040009040780000c8b300de
:1049b40000c07000004978008e10900010002000a4
:1049c400800878008e1090005e00900030289000df
:1049d400900098008e1090005e0090004028900097
:1049e400a00098008e1090005e009000701090005f
:1049f400b00098008e1090000000eb00c0009800fa
:104a04008e1090000000eb00d00098008e109000f3
:104a14000000eb00e000980010c0b30010579800ad
:104a2400f50337007e089000900090005e0090002f
:104a3400210898007e089000a00090005e0090007d
:104a4400310898007e089000b00090005e0090004d
:104a5400410898005e009000200890000041eb009f
:104a6400025799000000e0000200320013c0b300b6
:104a740003579900de0190008e5091000180fb00e5
:104a8400610060004801dd00c3309000f0ef2f00aa
:104a94000080600002007000c03198005e00900049
:104aa400403090004800de00614060000080fb0060
:104ab400801f7800b00e2000801f7800931a070032
:104ac400e48757005e00900020089000801f780063
:104ad400a00a2000801f78008c1a0700e487570082
:104ae4005e00900030089000801f7800c00b20000a
:104af400801f7800851a0700e48757005e00900045
:104b040040089000801f7800800a2000801f7800f1
:104b14007e1a0700e4875700b70337009e10900001
:104b2400204e2000800878001e1090008080e8004d
:104b3400c0c0b300804878001e109000640140009b
:104b44001e109000640040009040780000c8b3003c
:104b540000c07000004978008e1090001000200002
:104b6400800878000e119000728798005e00900013
:104b7400c030900000102000008060000000e000c1
:104b8400040032005e0090002008900060879800c6
:104b9400020037008001eb0063879800ee809000ec
:104ba4007e809000110098008e1090005e009000ae
:104bb40030089000a00098008e1090005e009000d5
:104bc40040089000b00098008e1090000000eb00a8
:104bd400c00098008e1090000000eb00d0009800f8
:104be40010c0b30010579800830337007e0890006c
:104bf40010009000e30060004e009000410898000f
:104c04007e089000b0009000200090004e019000bb
:104c140020099800310998004e0090004008900047
:104c2400801f7800000a2000801f7800371a0700d0
:104c3400e48757004e009000b008900020089000d0
:104c4400809fbe0030012000801f78002f1a0700cb
:104c5400e6875700a0012000801f78002b1a070068
:104c64008f87e900640337009e109000504e2000a7
:104c7400800878001e1090008080e800c0c0b30057
:104c8400804878001e109000640140001e109000bf
:104c9400640040009040780000c8b30000c0700079
:104ca400004978008e1090001000200080087800e1
:104cb4008e1090004e0090004008900090009800e4
:104cc4000e1190004e009000b00890002008900053
:104cd40020019800310198008e1090000000eb0034
:104ce400c00098008e1090000000eb00d0009800e7
:104cf40010c0b300105798003f0337007e0890009f
:104d040020009000800078005e0090004118980018
:104d14007e08900030009000800078005e009000d3
:104d2400511898007e0890004000900080007800a0
:104d34005e009000611898005e009000401890009a
:104d4400801f78000000eb00801f780030072000ef
:104d5400801f7800ed190700e68757005e00900079
:104d640050189000801f780010002000801f7800e9
:104d740030072000801f7800e4190700e6875700f9
:104d84005e00900060189000801f780020002000d2
:104d9400801f780030072000801f7800db1907008f
:104da400e68757007e08900020009000800078007d
:104db4005e009000711898007e089000300090000a
:104dc400800078005e009000012098007e0890002a
:104dd40040009000800078005e0090001120980050
:104de4005e00900070189000801f78000010200072
:104df400801f780030072000801f7800c319070047
:104e0400e68757005e00900000209000801f780025
:104e140010102000801f780030072000801f7800c9
:104e2400ba190700e68757005e0090001020900032
:104e3400801f780020102000801f78003007200099
:104e4400801f7800b1190700e68757007e0890009c
:104e540050009000800078005e009000712098005f
:104e64007e08900060009000800078005e00900052
:104e7400012898005e00900070209000801f780048
:104e840030202000801f780030072000801f780029
:104e94009e190700e68757005e00900000289000e6
:104ea400801f780040202000801f780030072000f9
:104eb400801f780095190700e6875700a00120009d
:104ec400801f7800911907008f87e9005e00900029
:104ed400401890000000e0000f003a005e009000cf
:104ee400501890000000e0000b003a005e009000b3
:104ef400401890000000e00007003a005e009000b7
:104f0400501890000000e00003003a001200200056
:104f140052879800020037008001eb005387980005
:104f24002e489100614060000080fb004f01dd00cd
:104f3400d1908000f0ff2700008060000200700024
:104f4400d09088001e009000d0089000002020001f
:104f5400008060000000e000a7023200d0908000d2
:104f640001002800010060000000e000030032009e
:104f740030032000408798000200370071032000ae
:104f8400418798004e819000821f780050062000cf
:104f9400801f78005d190700e487570096023700e8
:104fa4007fd1bf008000fb00f00f20000080600074
:104fb400400f98009e109000604d200080087800fb
:104fc4001e1090008080e80020c1b3008048780063
:104fd4001e109000640140001e1090006400400008
:104fe4009040780000c8b30000c070000049780009
:104ff4008e10900010002000800878000e109000a1
:10500400ce099000130098004e089000e10f500064
:105014000d003a008e1090005e0090007018900011
:10502400a00098008e1090005e0090000020900078
:10503400b00098008e1090005e0090001020900048
:10504400c00098000c0037008e1090005e009000a5
:1050540040189000a00098008e1090005e00900010
:1050640050189000b00098008e1090005e009000e0
:1050740060189000c00098008e1090005e009000b0
:1050840070209000d00098008e1090005e00900078
:1050940000289000e00098008e1090000000eb00c3
:1050a400f00098008e1090000000eb00800898003b
:1050b40010c0b300105798004f0237007e089000cc
:1050c40020009000800078005e009000212098006d
:1050d4007e08900030009000800078005e00900010
:1050e400312098007e0890004000900080007800f5
:1050f4005e009000412098007e08900050009000cf
:10510400800078005e009000512098007e08900096
:1051140060009000800078005e009000612098009c
:105124005e00900020209000801f78000030200056
:10513400801f780030072000801f7800f3180700d4
:10514400e68757005e00900030209000801f7800b2
:1051540010302000801f780030072000801f780066
:10516400ea180700e68757005e0090004020900090
:10517400801f780020302000801f78003007200036
:10518400801f7800e1180700e68757005e00900052
:1051940050209000801f780030302000801f78005d
:1051a40030072000801f7800d8180700e6875700d2
:1051b4005e00900060209000801f78004030200046
:1051c400801f780030072000801f7800cf18070068
:1051d400e6875700080237007fd1bf008000fb003c
:1051e400f00f200000806000400f98009e10900097
:1051f400b04e2000800878001e1090008080e800e7
:1052040020c1b300804878001e1090006401400063
:105214001e109000640040009040780000c8b30065
:1052240000c07000004978008e109000100020002b
:10523400800878008e1090005e009000202090007e
:10524400a00098008e1090005e0090003020900026
:10525400b00098008e1090005e00900040209000f6
:10526400c00098008e1090005e00900050209000c6
:10527400d00098008e1090005e0090006020900096
:10528400e00098008e1090000000eb00f000980001
:105294008e1090000000eb008008980010c0b3004e
:1052a40010579800d40137007e08900080109000b9
:1052b400700890004e019000200198003101980080
:1052c4004e00900020019000b00190003e0090003c
:1052d400e000900050009000800f5100818f590031
:1052e40006003d003e009000e00090005000900059
:1052f4004e01900020019800310198007e08900032
:10530400a0109000101090004e0190000089be0083
:105314004e0090001001be003e00900080089000f6
:1053240070009000800f5100818f5900b201340049
:105334003e00900080089000700090004e019000a4
:105344000089be00ac0137009e109000204f200061
:10535400800878001e1090008080e800a0c4b3008c
:10536400804878001e109000640140001e109000d8
:10537400640040009040780000c8b30000c0700092
:10538400004978000000eb00500f98000a00370035
:105394005e089000e6004000400220000e0040003d
:1053a400808040000040eb00804878005e08900058
:1053b4000000e800500f9800de08900090042000e0
:1053c400808f5000f2ff36000e1090001100200074
:1053d400010878003e0090001000780030879800a3
:1053e4003e809000f10f500013003200be80900008
:1053f400f18f500004003e003e819000f00f5100f8
:10540400080032001b003700be819000f28f51006b
:105414000e0032003e809000f50f50001000320064
:105424001400370000012000300f98000001200014
:10543400200f98001300370010012000300f98004f
:1054440010012000200f98000e00370020012000da
:10545400300f980020012000200f98000900370029
:1054640050072000300f980030002000200f9800d3
:105474000400370010002000300f980010002000b6
:10548400200f98000e109000be08900011009800a4
:105494000e1090002e099000220098000000eb00ee
:1054a400500f98000d0037000e119000de09900097
:1054b4005e089000be009000e002b00001004000d1
:1054c4009040780066804100020040000148780066
:1054d4005e0890000000e800500f98005e089000fd
:1054e400ef0f5000f0ff36000e1190003e009000c8
:1054f400a000900010009000300998004109980025
:105504000e1190003e0090008010900070089000f2
:1055140050099800610998000e1190004e00900007
:10552400b0009000200090007009980001119800cc
:105534000e1190004e0090001000be001011980053
:10554400211198000e1190003e009000a0109000d0
:105554001010900030119800411198000e11900025
:105564003e009000c0109000301090005011980040
:10557400611198000e1190003e009000e010900020
:1055840050109000701198000119980010c0b300d9
:1055940010579800180137009e109000804e20008c
:1055a400800878001e1090008080e80040c1b3009d
:1055b400804878001e109000640140001e10900086
:1055c400640040009040780000c8b30000c0700040
:1055d400004978008e1090001000200080087800a8
:1055e4000e1190004e009000d018900040189000ca
:1055f40010019800210198000e1190004e009000b7
:10560400f018900060189000300198004101980053
:105614000e1190004e009000902090000020900009
:1056240050019800610198000e1190004e00900006
:10563400b02090002020900070019800010998008b
:105644008e119000238798004e0090004020900017
:105654000000e000030032002000200010879800c2
:105664000200370011002000118798009e819000ed
:105674002e8190001309980010c0b30010579800b1
:10568400dd0037007e089000a0009000100090001c
:105694004e01900040199800511998007e0890001e
:1056a400c0009000300090004e01900060199800f6
:1056b400711998007e089000e0009000500090005e
:1056c4004e01900000219800112198007e0890005e
:1056d40080089000700090004e01900020219800f6
:1056e400312198007e089000100890008000eb00a3
:1056f40001879800e20f500002003a0012002000d7
:10570400028798004e0090008e81900043209800fc
:10571400b900370060c92000a1bc20003600090090
:105724003118780042d0200083c3200025000900ee
:10573400331978003064800041648000706488000c
:1057440081648800700020001100200090648800ab
:10575400a1648800b1000700a70037006000b8000a
:105764007064880081648800ac000700a2003700e0
:105774007e0890001000be00703f980000192000c1
:10578400fe389000808f500049003200001920003c
:105794007e399000800f510008003c00fe399000d3
:1057a400e28f51001200320040062000fe389000c3
:1057b400808f5000170032008f00370080252000b2
:1057c4007e399000800f51003f003200c02b200032
:1057d400fe399000808f510041003200401f2000ac
:1057e400fe389000808f5000340032008200370071
:1057f4007e089000b0009000200090005064880063
:1058040061648800850007000040eb001057980091
:10581400790037007e089000b000900020009000ce
:105824004090880051908800409080005190800002
:10583400800078000080eb000081600040908000d0
:10584400519080004088de00cf80de00821f780007
:10585400801f78000000eb00801f7800600d20009e
:10586400801f780029170700e887570040002000b0
:10587400801f780040002000801f78000010200066
:10588400801f780050042000801f78001f17070035
:10589400e8875700b0ff2f00801f780040032000e6
:1058a400801f780019170700e4875700520037005b
:1058b4004007a9000000fe004f0037001000200040
:1058c400bb1507004c003700909580000000e000f5
:1058d40049003a00100020009095880046003700e7
:1058e4007e089000b000900020009000000f780027
:1058f4001e017800821f780020002000801f78009d
:1059040020062000801f780000170700e687570054
:105914001e00780052002000110009000280d80007
:105924004200dd00801f780030002000801f7800d6
:1059340020062000801f7800f4160700e687570031
:105944002d0037009e109000600120008008780030
:105954001e1090008080e80080c2b3008048780068
:105964001e109000640140001e109000640040006e
:105974009040780000c8b30000c07000004978006f
:105984008001eb00220d20008000eb00a0c8200065
:10599400c41707000000eb00500f980009003700ff
:1059a4008e1090005e0890004200dd00010140006e
:1059b4006000b8000089be005e0890000000e800a6
:1059c400500f98005e089000e90f5000f4ff360075
:1059d4000e109000526480006364800002089800f6
:1059e4001308980010c0b300105798000200370045
:1059f4000040eb00105798001e5090000004e00097
:105a040003003200400220000e004000cc1b0700bf
:105a14004f0478000080fa00000006000200fa003b
:105a2400220d20008000eb00a0c82000f017070022
:105a3400000f7800100020009e0f100004003200b8
:105a440052062900014d28000000eb006401070004
:105a540013002000220d20008000eb00a0c82000cd
:105a640090170700000f78001e00e00004003200c9
:105a7400d2062900014d28000000eb005801070060
:105a84000080fa00000006001a00fa00400f980097
:105a940064004700610729001300090031587800a9
:105aa4004001b10000202100000f78001e007800a2
:105ab4008010900020032000808f50002b003c00b9
:105ac400e400470010c2b300d04098004e08900094
:105ad4008040780064004700014878004e08900038
:105ae4004800de00804078006400470011409800c0
:105af4006400470066004000100798009e00900074
:105b040010002000800878001e007800b00090008b
:105b1400200090001e0190001001980021019800bf
:105b24001e00780060009000800078001e00900045
:105b3400310098009e0090000000eb00c000980027
:105b44000c0007001e0190005001980061019800ac
:105b5400640047007a1b07001e00780000109000c4
:105b64008000e8001e007800011098000080fa0010
:105b7400000006000e00fa006000b800100798004c
:105b84002107980000202100000f78001e007800f3
:105b9400d008900000202000008060000000e00099
:105ba400080032001e009000ae00900002002000a9
:105bb4000300280002007000838070001007980022
:105bc400210798001e00780070089000e90f50002b
:105bd40009003a001e009000ae0090000240200030
:105be40003002000020070008380700010079800fa
:105bf400210798000c0037001e0078007008900000
:105c04000000e000080034001e009000ae00900088
:105c14000220200003002000020070008380700036
:105c240010079800210798001e007800d008900003
:105c340000402000008060000000e0000800320006
:105c44001e009000ae00900002002000030024001b
:105c540002007000838070001007980021079800ec
:105c64001e007800100890004a00de006100600009
:105c74000004e000150032001e007800600090006f
:105c84000000e000050034000001200001002000b5
:105c940050079800610798000400370002022000b2
:105ca4000300200052079800630798001e0090002c
:105cb400ae0090005e019000ee01900002007000c2
:105cc4008380700010079800210798001e00780058
:105cd400100890004200de00610060000004e00053
:105ce400080032001e009000ae0090000200210067
:105cf40003002000020070008380700010079800e9
:105d0400210798001e007800100890004700de006c
:105d1400610060000004e000080032001e009000f2
:105d2400ae00900002002200030020000200700078
:105d34008380700010079800210798001e007800e7
:105d4400200890004400de00610060000004e000d0
:105d54000d0032001e0078005008900064006000be
:105d64000000e000080032001e009000ae00900029
:105d740002002400030020000200700083807000f1
:105d840010079800210798001e0078002008900052
:105d94004700de00610060000004e00008003200fb
:105da4001e009000ae0090000200280003002000b6
:105db400020070008380700010079800210798008b
:105dc4001e007800200890004800de00610060009a
:105dd4000004e000080032001e009000ae009000b5
:105de4000200200013002000020070008380700075
:105df40010079800210798001e00780020089000e2
:105e04004900de00610060000004e0000800320088
:105e14001e009000ae00900002002000230020002d
:105e2400020070008380700010079800210798001a
:105e34001e007800200890004b00de006100600026
:105e44000004e000080032001e009000ae00900044
:105e54000200200083002000020070008380700094
:105e640010079800210798001e0078002008900071
:105e74004a00de00610060000004e0000800320017
:105e84001e009000ae00900002002000430020009d
:105e940002007000838070001007980021079800aa
:105ea4001e007800400890000000d10061006000ee
:105eb4000004e000080032001e009000ae009000d4
:105ec4000200200003102000020070008380700094
:105ed40010079800210798001e007800d008900051
:105ee40000802000008060000000e0001500320007
:105ef4001e007800600090000000e00005003400ff
:105f04000004200001002000300798004107980099
:105f14000400370002082000030020003207980024
:105f2400430798001e009000ae0090003e019000d0
:105f3400ce0190000200700083807000100798006a
:105f4400210798001e007800300890004400de000d
:105f54000000a200610060000004e00005003200bf
:105f64001e009000ae0090000010a00010079800e2
:105f7400210798001e007800300890004500de00dc
:105f84000000a200610060000004e000050032008f
:105f94001e009000ae0090000000a00010079800c2
:105fa400210798003f1b07000000e00008003a00aa
:105fb4001e009000ae0090000200200003012000ab
:105fc4000200700083807000100798002107980079
:105fd4001e009000ae0090000080fa000000060051
:105fe4006800fa00003798001137980022379800ab
:105ff400819580001e309000810f50003e003200d9
:1060040066004700200798006600470066004000cd
:1060140010079800ae009000100820008008780057
:106024002e0090008080e80040c4b30080487800cf
:106034002e009000e30040000040eb008048780010
:106044002e009000e400400010c8b300804878009f
:106054002e009000e500400010c2b3008048780094
:106064009e0090000e309000800878009e00900002
:106074001e309000900098000000eb00000f7800a4
:106084009e0190009e0078002e3090001041780010
:106094006480400003004000024878001e0fe800be
:1060a4002e3090001040780060e798006ee0900079
:1060b4000004e0000200320010c0b30060e7980062
:1060c4006ee09000ae3090008100e8002137980027
:1060d4000004e000eaff3a009e309000000028002f
:1060e400808f5000020032002e009000141a070026
:1060f4001e309000809588000080fa0000000600a1
:106104005400fa00ed140700300798003e00900098
:106114000000e00001003a0075f1070000202100b2
:10612400200798003e009000605090000000fb00a3
:10613400000f78001e00e000170032002e019000ce
:10614400d2089000004020000080700050099800a0
:106154003e009000100178001e007800800040008e
:10616400202621000080400010007800821f780063
:10617400801f7800a0082900801f780020222100b9
:10618400f6110700e687570022222100a10e2800fd
:106194000000eb0092ff07003e00900000589000c2
:1061a400504f98005e489000304f98003e00900099
:1061b40010589000404f98004e489000204f98008f
:1061c4003e00900020589000104f98003e00900030
:1061d40030589000004f98003e0090001000780066
:1061e4007027980070032000fe209000808f5000dc
:1061f40033003200700320007e219000800f510094
:1062040015003e0010032000fe219000808f5100f5
:106214004e00320010032000fe209000808f5000ba
:1062240004003e007e219000ee0f5100d8003200a1
:106234003a01370040032000fe219000808f510076
:10624400cb00320060032000fe209000808f5000bd
:106254002100320031013700600a20007e219000c5
:10626400800f510027003200600a2000fe219000b8
:10627400808f510009003e00f0082000fe209000ad
:10628400808f500008013200400a20007e219000d7
:10629400800f5100b200320020013700d00a2000e4
:1062a400fe219000808f5100bd003200f00e2000ce
:1062b400fe209000808f500000013200170137004b
:1062c4004e009000de0090002e0190002001980006
:1062d40031019800110137004e009000de0090005b
:1062e4002e01900070019800010998002e01900081
:1062f400d20890000002200000807000500998002d
:1063040006013700ee0090002e009000110898005e
:106314002e009000100890004800de0061406000ec
:1063240061406000614060000080fb00610060002b
:106334004901dd00d1908000f0df2f000080600073
:1063440002007000d0908800f4003700ee00900046
:106354002e009000210898002e019000d208900091
:10636400000420000080700050099800f18f800024
:1063740000f92300008160002e009000a008900026
:1063840000f9230000806000800f510047003200b4
:106394002e009000a008900000f822000080600009
:1063a4000000e000050032002e019000d2089000a9
:1063b4000040200000807000500998002e009000da
:1063c400200890004a00de00610060000004e00044
:1063d40004003200b20a2900810e28000000eb00fc
:1063e400fffe07002e009000200890004b00de0006
:1063f400610060000004e00004003200620b290028
:10640400b10e28000000eb00f5fe07002e009000fe
:10641400200890004900de00610060000004e000f4
:1064240004003200220c2900d10e28000000eb00e9
:10643400ebfe07002e009000200890004800de00cc
:10644400610060000004e00004003200220d290015
:10645400410f28000000eb00e1fe07002e00900031
:10646400200890004700de00610060000004e000a6
:1064740004003200c20d2900a10e28000000eb0028
:10648400d7fe07002e009000200890004d00de008b
:10649400610060000004e00004003200720e290074
:1064a400c10e28000000eb00cdfe07002e00900076
:1064b40020089000610060000004e0002400320025
:1064c4002e00900050089000610060000000e00081
:1064d4000e003200ae009000510890000010a000a1
:1064e400d00898002e019000d2089000e0ff2f0001
:1064f40000806000500998002e019000d20890009e
:10650400f0ff2e0000806000500998002e009000db
:1065140050089000700060000000e0000c003200a1
:106524006046200058fd07002e019000d20890001c
:10653400f0fe2f0000806000500998002e019000aa
:10654400d2089000f0ff2e000080600050099800ef
:106554002e00900020089000f08f88006f00370014
:10656400ee0090002e009000310898006b00370078
:106574006e0090000000e00068003a002e009000d9
:10658400d00890000100a000510898006300370073
:10659400ee0090002e009000410898005f00370044
:1065a400ee0090002e00900061009800309780006b
:1065b400f010900060109000002f9800112f9800a8
:1065c4000e2990009e299000e00f5100e08f5900a1
:1065d40008003d00f0ff2f00010020000e2990006c
:1065e4009e2990000201400083814800022f9800f8
:1065f400132f98000e2990009e2990004098de00e9
:10660400cf80de00100798001e009000a20020003a
:10661400110009000200d800800078001e009000dc
:1066240001004000100798002e009000e000900048
:106634001e009000808f500006003c002e00900049
:10664400e00090001e0090000000ea00808f5000df
:1066540032003d002e00900060009000ee004700e4
:106664009e019000831f7800801f7800300f29005e
:10667400801f780001007800b8100700e6875700f3
:106684002e019000d208900000402000008070008d
:10669400500998006e014700918b28000000eb0020
:1066a4004ffe07001d0037004e009000de009000f2
:1066b4002e0190000089be00180037003e009000b3
:1066c400104890000004e00008003a00b2958000f1
:1066d400c39580006e00900001002000020040007d
:1066e40083804800b0958800c19588003e009000e2
:1066f40010489000e24f500008003a00d295800004
:10670400e39580006e00900001002000020040002c
:1067140083804800d0958800e19588000080fa00c5
:10672400000006000400fa00000f78001e00780044
:10673400100798001e009000e40f5000070032007c
:106744001e009000f40f5000370032001e0090002d
:10675400e20f50007700320084003700d0908000b0
:1067640001202000010060000000e00023003a0046
:10677400c0002c00801f780040032000801f780098
:1067840062130700e4875700d190800000002800be
:10679400008060000000e0000700320030032000a9
:1067a400801f780050062000801f780057130700d0
:1067b400e48757000600370070032000801f78002c
:1067c40050062000801f780050130700e48757000c
:1067d400f0fe2f00801f780040032000801f780007
:1067e4004a130700e48757001b52a9001a52a80055
:1067f40010002000361107005c0037001000200054
:10680400801f780050062000801f78003f13070087
:10681400e48757001a52a9001b92a9000000eb005c
:106824002b11070051003700d09080000100210097
:10683400010060000000e0004c003a00d0908000ad
:1068440001202000010060000000e00020003a0068
:10685400c0002c00801f780040032000801f7800b7
:106864002a130700e4875700d19080000000280015
:10687400008060000000e0000700320030032000c8
:10688400801f780050062000801f78001f13070027
:10689400e48757000600370070032000801f78004b
:1068a40050062000801f780018130700e487570063
:1068b400f0fe2f00801f780040032000801f780026
:1068c40012130700e48757001b52a9001a52a800ac
:1068d40060002000e06a880000002000010024001d
:1068e400f06a8800016b88006000b800106b8800b3
:1068f400216b88006063800071638000306b8800c6
:10690400416b88004063800051638000506b8800b5
:10691400616b88006000b800706b8800816b880030
:106924000000eb00906b880010002000f0908800bd
:106934000e003700d09080004e00de000000a20060
:106944006140600061406000614060000080fb00c5
:10695400610060004e01dd00d1908000f0ff2b004b
:106964000080600002007000d09088000080fa006f
:10697400000006003a00fa00889fbe000000eb0009
:1069840050079800a0bc2000000f780044ef0700d7
:10699400c482a800cc42a800d4a2a80020032000ee
:1069a4007a180700cc42a900d4a2a9002003200031
:1069b4007618070020002000c5100700d2c2bf00cf
:1069c400624060000004e00007003a00d2c2bf0049
:1069d400644060000004e00003003a00200020004e
:1069e400731107000a003700d2c2bf006240600082
:1069f4000004e00004003200d2c2bf006440600022
:106a04000004e00002003a001000200068110700b2
:106a14000000eb00204088000000eb0030408800bc
:106a24000000eb00404088001a32a9001a72a90045
:106a34001a92a9001b12a9001b32a9000000eb0046
:106a4400206488001af2a9001ad2a9001ab2a90077
:106a54000000eb00f09088001a52a9001b52a90014
:106a64000000eb00009188001b92a9001bb2a90052
:106a74001bd2a9000000200001002c0040908800d7
:106a8400519088001bf2a9000000eb00e06a880026
:106a94000000eb0010648800cc42a800c522a900c5
:106aa400d4a2a800803e200038180700c010290096
:106ab4003a0e0700d70a0700500798005e009000be
:106ac4000000e00007003a00ee00470050132900e0
:106ad400801f780001007800a00f07008f87e9006d
:106ae40008003700ee0047005e009000801f780029
:106af400f0132900801f780001007800970f070029
:106b0400e48757006e004700240e07005e009000e3
:106b14000000e000a4003a00309780004004b00078
:106b2400a1bc200036000900b0187800e006b100ce
:106b34003097800020049000b004900030978000cb
:106b4400100090006103b80086007800002424003f
:106b54000009b8006f30b900030278000002420057
:106b64000024240000b8b900000242008401780027
:106b74000200be000800400089804800306488009c
:106b84004164880010002000206488003264800082
:106b940043648000309780000003b000ee0047009b
:106ba400829fbe00801f7800f0142900801f7800a7
:106bb40001007800690f0700e88757006e0047005e
:106bc400f60d07001e0078001000be001e017800bc
:106bd40070399800018198001e007800b000900080
:106be400200090001e017800303998004139980047
:106bf4001e007800d0009000400090001e01780034
:106c040050399800613998001e007800f000900017
:106c1400600090001e017800108198002181980086
:106c24001e007800403090004e00de008080fb00a3
:106c34001e007800318098009e007800100020002b
:106c4400c08098001e017800803e200001002000d2
:106c540050819800618198001e007800b000900077
:106c6400200090001e01780070819800018998002e
:106c74001e0078001000be001e01780010899800e4
:106c8400218998009e00780020002000b088980098
:106c94001e0078001000be00a200200003002000a7
:106ca4001eeb07001e01780070899800019198007e
:106cb4001e007800b00090002000900042012000e7
:106cc4000300200015eb07001e01780010919800c6
:106cd400219198009e00780010002000e088980020
:106ce4001e0178006000b80040899800518998001e
:106cf4003097800090089000000890001e017800f2
:106d0400703198000139980030978000f0009000ad
:106d1400600090001e017800103998002139980015
:106d24001e0078001000be00420620000300200070
:106d3400faea07001e01780030919800419198000a
:106d44001e0078001000be00a200200003002000f6
:106d5400f2ea07001e0178005091980061919800b2
:106d64001e007800b0009000200090001e01780002
:106d740070919800019998001e007800b00090006e
:106d8400200090004201200003002000e3ea0700f5
:106d94001e01780010999800219998009e007800af
:106da4000000eb00b098980080628000906b88002f
:106db4000062800011628000306b8800416b8800a3
:106dc4004062800051628000506b8800616b8800d3
:106dd400400620006d1707008001eb00220d200003
:106de4008000eb00a0c82000ae1207007064800091
:106df400816480006e014700809fbe0070162900e8
:106e0400801f780002007800d40e0700e687570040
:106e14006e004700610d07005264800063648000c7
:106e240000942a0011c02f00020040008380480013
:106e34000001be00f0232400f1002000800f510067
:106e4400818f590004003600006c2500e13f2000ca
:106e54005064880061648800400620004b170700d6
