:020000040800F2
:2000000000710120150300083B030008BB6700083F030008410300084303000800000000DA
:20002000000000000000000000000000450300084703000800000000976700084B030008C2
:200040004D0300084D0300084D0300084D0300084D0300084D0300084D0300084D030008E0
:200060004D0300084D0300084D0300084D0300084D0300084D0300084D0300084D030008C0
:200080004D0300084D0300084D03000887590008655800084D0300084D0300084D030008A3
:2000A0004D0300084D0300084D0300084D030008EB2E00084D0300084D0300084D030008B7
:2000C0004D0300084D0300084D0300084D0300084D0300084D0300084D0300084D03000860
:2000E0004D030008CB2C00084D0300084D0300084D0300084D0300084D0300084D03000899
:200100004D0300084D0300084D0300080D2F00084D0300084D0300084D0300084D03000833
:200120004D0300084D0300084D0300084D0300084D0300084D0300084D0300084D030008FF
:200140004D0300084D0300084D0300084D0300084D0300084D0300084D0300084D030008DF
:200160004D0300084D0300084D0300084D0300084D0300084D0300084D0300084D030008BF
:200180004D0300084D03000800F002F800F0B2F80AA090E8000C82448344AAF10107DA45AE
:2001A00001D100F0A7F8AFF2090EBAE80F0013F0010F18BFFB1A43F001031847B4F8000034
:2001C000E4F800000A444FF0000C10F8013B13F0070408BF10F8014B1D1108BF10F8015BE4
:2001E000641E05D010F8016B641E01F8016BF9D113F0080F1EBF10F8014BAD1C0C1B09D16E
:200200006D1E58BF01F801CBFAD505E014F8016B01F8016B6D1EF9D59142D6D3704700005A
:200220000023002400250026103A28BF78C1FBD8520728BF30C148BF0B6070476E290AF004
:200240009B8370290AF0EB8366290DF06E8565290DF06B8567290DF068856129AFF300805F
:2002600003681B0A28BF41F0800169290AF0488364290AF0458375290AF042836F290BF0BF
:20028000208278290AF0B783E9290BF0BB81E4290BF0B881F5290BF0B581EF290BF01D825C
:2002A000F8290AF0B6830368DB0928BF41F0800163290BF03C8173290BF04181E3290BF05E
:2002C0007785F3290BF07C85002070471FB50DF01FFD0BF0CDFC0400002000210DF098FAAE
:2002E000401C6060002000210DF07CFAE0601FBD10B510BD0BF0B8FF1146FFF7E7FF01F0AA
:20030000B8F90CF009FA03B4FFF7F2FF03BC0CF01FFA000072B61148016841F0010101603D
:2003200000BF0F48016811F0200F02D10D48406800470D4880470D480047FEE7FEE7FEE790
:20034000FEE7FEE7FEE7FEE7FEE7FEE7FEE7000007480849084A094B7047000030380240B3
:2003600010000240000004082D40000889010008005F012000710120006101200061012002
:2003800010B504229102F64803F03AFB0446012C08D0F4A248F2D041812000F0E8FFF7A03A
:2003A00001F046FF012304229102ED4803F07DFA044644B1F8A248F2D041812000F0D7FF00
:2003C000FBA001F035FF10BD2DE9F04104460D464FF0000800260B2D6FD008DC0A2D6DD26E
:2003E000DFE805F06C126C6D6C836CBD6CC40F2D78D004DC0D2D76D00E2D5FD135E0102D01
:2004000072D01D2DF9D168E14FF008082580EF4890ED030ADFEDEE0A20EE200A10EE101A64
:2004200008460DF028FC00F30F006080E74890ED040ADFEDE70A20EE200A10EE101A084646
:200440000DF019FC00F30F00A080E04890ED050ADFEDDF0A20EE200A10EE101A08460DF054
:200460000AFC00F30F00E0805CE14FF01E08A41C24F8025CD548C0682060D448006960602E
:20048000D2484069A060D148C069E060CF48006A2061CE48406A6061A41ECC48806A0228AA
:2004A00001D1012000E002206083C848C06A012800D100E00220A08334E17EE031E14FF047
:2004C0000C082580C348008C6080C248408CA080C048C08CE080BF48008D2081BD48408D3B
:2004E00060811FE191E086E0DFE04FF012082580B648B0F848006080B448B0F84A00E0806B
:20050000B248B0F84C00A080B048B0F84E002081AE48B0F844006081AC48B0F84600A08178
:20052000AA4890ED140ADFEDAC0A20EE200A10EE101A08460DF09FFB00F30F00E081A34819
:2005400090ED150ADFEDA40A20EE200A10EE101A08460DF090FB00F30F002082E2E04FF0AA
:20056000040825809B48C08F6080DBE04FF0060800269848C08F012802D146F001060CE036
:200580009448C08F022802D146F0020605E09148C08F032801D146F00406002004F0EEFCAD
:2005A00008B146F48016012004F0E8FC08B146F400162580C4F80260B4E04FF00808258065
:2005C0008248008860800020A080804840686FF00041884201D1002705E07C4840684FF442
:2005E000167190FBF1F7794880684FF4007101FB0070E08096E04FF0060825807548008D26
:2006000060807448408DA0808CE04FF0220825806E48B0F8780060806C48B0F87000A08035
:200620006A48806D3230642148434FF6FF7190FBF1F0E0806548006E3230642148434FF656
:20064000FF7190FBF1F020816048806E32306421484347F6FF7190FBF1F060815B48B0F8D0
:200660007C00A0815948B0F87400E0815748C06D3230642148434FF6FF7190FBF1F02082BE
:200680005248406E3230642148434FF6FF7190FBF1F060824D48C06E32306421484347F62B
:2006A000FF7190FBF1F0A0823CE04FF010082580002060804748008E00F4804018B16088A2
:2006C00040F0010060804348008E00F4004018B1608840F00200608024E04FF00608258003
:2006E0003C4890ED060A3D48D0ED030A20EE200A10EE101A08460DF0BEFA00F30F00608055
:20070000344890ED070A3548D0ED040A20EE200A10EE101A08460DF0AEFA00F30F00A08012
:2007200000E000BF00BF4046BDE8F0812DE9F0472DED088B8AB0044620881FFA80F9B9F15D
:200740000D0F7DD04CDCB9F1010F56D0B9F1050F77D0B9F1070F75D0B9F10B0F73D10BE12A
:20076000A8020020454550524F4D205772697465204661696C757265000000000D0A454533
:2007800050524F4D205772697465204661696C7572650D0A00000000454550524F4D2056B3
:2007A0006572696679204661696C7572650000000D0A454550524F4D20566572696679209E
:2007C0004661696C7572650D0A0000006C20002000FEFF462C210020000000471421002042
:2007E000B9F10E0F59D0B9F10F0F7DD0B9F1100F7BD0B9F11D0FB1D14BE2608800EE100A6B
:20080000B8EE400A5FED0E0A80EE201AFC4880ED031AA08800EE100AB8EE400A5FED140A84
:2008200080EE201AF64880ED041AE08800EE100AB8EE400A5FED1A0A80EE201AF04803E0B4
:20084000DEE01BE185E042E280ED051A90ED050A10EE101A08460DF0E3F941EC190BE8486D
:2008600090ED040A10EE101A08460DF0D9F941EC1A0BE34890ED030A10EE101A08460DF02E
:20088000CFF941EC1B0B8DED029B8DED00AB53EC1B2BDCA001F0CCFC1AE254F8020FD849CD
:2008A000C86060680861A06848612069086260694862E068C861208BA41E01281FD1084683
:2008C00090ED091AF0EE410A90ED081AB0EE410A684604F04FFD1422694605A80AF006FB4C
:2008E00072B6142205A901E01BE16CE1C44830300AF0FCFA0220C249886262B60FE0142212
:20090000C84905A80AF0F2FA72B6142205A9BC4830300AF0EBFA0020B949886262B6A08B95
:2009200001280DD1B648D0ED070AB0EE600A04F0D9FDB34880ED060A0120B149C86207E06E
:20094000B7EE000AAE4880ED060A0020AC49C862BEE16088B4498887898F012901D001216E
:2009600000E00021084604F099FAAF48828FC18FAEA001F05DFCABE1A14806684768D0F857
:20098000088060889E490860E08828B96FF0004048600220886018E0E088C11700EBD151B9
:2009A0004912A0EB4125E088C11700EBD1514912934A916025B96FF000401146486004E015
:2009C0004FF4167068438E4948608D480068B04207D18B484068B84203D189488068404596
:2009E00001D0012000E000208246BAF1000F06D000208D49C8658249086804F028FB67E1F0
:200A0000B4F90200404200F30F0087498885A088C8850846B0F92C007949B1F94A1088429E
:200A200004DD7748B0F84A007F4988857E48B0F92C007349B1F94810884204DA7048B0F8EE
:200A40004800794988857848B0F92E006C49B1F94E10884204DD6A48B0F84E007249C885D0
:200A60007148B0F92E006649B1F94810884204DA6348B0F848006C49C88529E16088604955
:200A8000A1F84800E088A1F84A00A088A1F84C002089A1F84E006089A1F84400A089A1F805
:200AA0004600E08900B200EE100AB8EEC00A5FEDB60A80EE201A084680ED141A208A00B264
:200AC00000EE100AB8EEC00A5FEDBD0A80EE201A084680ED151A90ED150A10EE101A0846E7
:200AE0000DF09EF841EC190B454890ED140A10EE101A08460DF094F841EC1A0B8DED009B84
:200B000053EC1A2B58A001F093FB3D49B1F84410012901D0012100E00021084604F0C6F938
:200B2000D6E0608836498867A0880867E088C0EB0040642190FBF1F0314988652089C0EB13
:200B40000040642190FBF1F02D4908666089C0EBC030642190FBF1F029498866A189284811
:200B6000C167E1894167208AC0EB0040642190FBF1F12348C165608AC0EB0040642190FB3E
:200B8000F1F11F484166A08AC0EBC030642190FBF1F11B48C166816F002004F0D0F92249EC
:200BA00048631748C16F012004F0C9F91E4988631348816F002004F081F91148C16F01204F
:200BC00004F07CF984E0A07800F0010030B11648006B40F480401449086305E01248006B2F
:200BE00020F4804010490863A07800F0020030B10D48006B40F400400B49086348E041E036
:200C00006C2000200D0A5049443A2050203D2025662C2049203D2025662C2044203D2025B3
:200C2000660000002CDE00082C2100200D0A43757272656E74206F70206D6F6465203D2094
:200C400025642C206E6577206F7065726174696E67206D6F646520726571756573746564D5
:200C60003A202564000000000D0A466565646261636B206761696E203D20256620616E645B
:200C800020256600FE48006B20F40040FC4908631EE0B4F9020000EE100AB8EEC00AF9488E
:200CA000D0ED030A80EE208AB4F9040000EE100AB8EEC00AF348D0ED040AC0EE208A72B6A3
:200CC000EF4880ED068AC0ED078A62B600E000BF00BF0AB0BDEC088BBDE8F0872DE9F04FC5
:200CE0002DED028B89B081468B469046B9F1000F07D0CA46B9F8000080B2089009F1060685
:200D000009E0BBF1000F06D04FF0000A0026BBF8000080B208904446A51D0020E070012090
:200D200020715020607100200590C8F800010898B0F5076F71D012DC122872D006DC0228F9
:200D40006DD005281FD011285CD160E0142867D015286ED0A0F223200028F5D153E0B0F50B
:200D6000086F7AD008DCA0F67100002872D0012871D00428E8D1DCE0A0F6810000285AD0E9
:200D80000128E1D151E0062020805420A070207940F0800020715422BB4928460AF061F8E8
:200DA000BAA0007885F84200B8A0417843204155B6A0C17844204155B4A001794520415546
:200DC000B5A00079202801D1302001E0B2A0007946214855B0A0417947204155AEA001785D
:200DE00048204155ACA0417849204155AAA081784A20415500214B204155012005900220B4
:200E0000A8490860A0E240209D4948649CE20120A44948600020C86096E268E001E060E0A8
:200E2000ABE000209F4948608EE200209D49C8608AE277E211E09B48806801280CD1994871
:200E4000C168C068401C974AD06010460069814202DD79E252E050E000BF40F681002080A0
:200E60000E20A070207940F0800020718448008C28808348408C68808148C08CA8808048D6
:200E8000008DE8807E48408D28817D48C08F012802D1C5F80A000DE07948C08F022802D150
:200EA000C5F80A0006E07648C08F032802D10420C5F80A00002004F061F828B1D5F80A0072
:200EC00040F48010C5F80A00012004F057F828B1D5F80A0040F40010C5F80A0001200590B2
:200EE00032E204206F490860002005902CE23046FFF71CFC0020059026E200BFB9F1000F1E
:200F000002D09AF8020001E0DBF8040080B2079028460799FFF758FA049040F672002080B8
:200F20000498A070207940F080002071012005900AE230880E2800D006E2A8225A495B48D3
:200F400009F0D4FF5A4859492039C1F8C800CC2200215648203802F053FD0123CC2200212D
:200F60005248203802F0A1FC07460FB951A100E054A1084601F05CF9E6E1306803907068B6
:200F80000290B06808EE100AF0680190039848286ED00EDC45284DD006DC01281DD00228CF
:200FA00035D0172865D138E0462863D04728F9D1C9E040F29112811A90425CD006DC49285B
:200FC0005AD04A2859D04B28ECD122E1042955D0A1F28F110029E5D187E1344920390298DD
:200FE0000860CC2200213148203802F009FD0123CC2200212D48203802F057FC07460FB957
:2010000035A100E038A1084601F012F988E12748203800683949486082E1029830B1012036
:2010200020498860084680ED048A02E000201D49886075E140F2D371029888426BD1182220
:2010400010491A481C3809F051FF2D4817492039C861CC2200211548203802F0D1FC01233A
:20106000CC2200211148203802F01FFC074649E085E054E150E0E8E098E0B3E016E14AE06F
:201080002C210020142100205402002031353A30353A3038000000004A756E202032203280
:2010A00030323100F82100206C200020C01F0020172001300D0A45455772697465204F4BEB
:2010C000000000000D0A45455772697465206661696C6564000000000D0A45455772697498
:2010E00065204F4B2E0000000D0A45455772697465206661696C65642E00000034030020ED
:201100009B548CE317B9AFF2300101E0AFF22801084601F08DF803E1019800F58040FE49E7
:201120000860B8EEC80ADFEDFD0A70EE600A9FEDFC1A80EE810AF7EE000A30EE200A084614
:2011400080ED030AECE0F4480068A0F58040F549C860F14890ED030AF7EE000A30EE600AB0
:20116000DFEDEF0A20EE200A10EE101A08460CF082FD00B200F58040EA498860D0E00198B6
:2011800000F58040E4494860B8EEC80ADFEDE30A70EE600A9FEDE21A80EE810AF7EE000A5C
:2011A00030EE200A084680ED040AB9E0DA484068A0F58040DB49C860D74890ED040AF7EE8B
:2011C000000A30EE600ADFEDD60A20EE200A10EE101A08460CF04FFD00B200F58040D1495A
:2011E00088609DE00198A0F58040CB498860B8EEC80ADFEDCA0A70EE600A9FEDC91A80EEE3
:20120000810AF7EE000A30EE200A084680ED050A86E0C148806800F58040C249C860BE48FD
:2012200090ED050AF7EE000A30EE600ADFEDBC0A20EE200A10EE101A08460CF01CFD00B2A4
:2012400000F58040B74988606AE07068B0F1553F2BD1B068022802D141F29A1001E04FF08C
:20126000FF30B14908600846006841F29A11884202D16FF0010000E00120AC49C864AA4838
:20128000006841F29A12904201D1A9A000E0ACA00146B0A000F0CCFFB448A34909680160E2
:2012A000FFF76EF8B2A000F0C3FF39E00020069008E000219B4A069802EB80000160069807
:2012C000401C069006980A28F3DB40F29510954908609548006841F29A11884201D1022080
:2012E00000E001208F4988601AE04FF0FF30A749C861CC220021A54802F082FB0123CC222F
:201300000021A24802F0D1FA074617B9AFF2382101E0AFF22C21084600F08AFF00E000BFB9
:2013200000BF11E016202070002060702820A070207940F08000207128227A49284609F0A1
:2013400090FD0120059000BF00BF059848B1207900F0800010B1A078801D00E00620C8F8F1
:201360000001059809B0BDEC028BBDE8F08F0FB47FB509A80390BDF820000090002001906B
:2013800079A00290BDF82000812803D0A0F67200E8B915E0039810C80390039840C8039077
:2013A000002000906148806CA04208D0B4F5004F03D081200090019402965C48846407E092
:2013C0000398006801900398001D039000E000BF00BF002003906E48006802280ED16D4A3F
:2013E00069460020FFF77AFC0546012D06D1694801F0EBFC0021674805F0E2F97FBC5DF8A9
:2014000014FB10B5A82264496048203009F06EFDCC2200215D4802F0F3FA0446012C05D046
:201420005EA248F2D0418120FFF7A1FF0123CC220021564802F039FA04462CB159A248F2D8
:20144000D0418120FFF793FF10BD70B5044658480068052808D2DFE800F0030819394800AB
:2014600014B9012052490860C7E052A000F0E0FE55484649C1F8C800FFF7C3FF01F012F9B3
:201480005249088002204A490860B6E034B10020474908604EA000F0CBFE16E001F002F9F0
:2014A00005464A480188284601F000F9B0F5FA6F0BDD4AA000F0BCFE00203549486003207B
:2014C0003B490860002003F0C2FD96E001F0EAF805463E480188284601F0E8F8B0F57A6FDE
:2014E00002DD04203249086087E04FF480203E49086040F6B83001F009FA00BFBFF34F8F6C
:201500003A48006800F4E06039490843001D37490860BFF34F8F6DE01421002000008046E3
:201520000000004734030020AC0200202C21002048616D616D6174737520533435303600EF
:20154000486F6E657977656C6C2048434C323730310000000D0A4A6F79737469636B207319
:20156000657420746F20257300000000A80200200D0A53617665642070726F6475637420C2
:201580004E56506172616D732E0D0A00A01F0020F82100205C1B00206C2000204545577250
:2015A00069746500454556657269667900000000040000200D0A506F776572696E672064E0
:2015C0006F776E2E2E2E0000172001300000002063616E63656C6C65640D0A00676F6F644A
:2015E0006279650D0A000000180402400CED00E00000FA0500BF00BFFEE700BFF848006894
:2016000070BD2DE9F04106460D460027002E2DD1002D2BD0012426E005EA040001280AD01B
:2016200004281DD1EFA000F003FE0B2140F67200FFF79DFE15E0F548B0F84000F349888746
:20164000898F012901D0012100E00021084603F025FCEE48B0F84010EDA000F0E9FD00E081
:2016600000BF00BF6400002CD6D101273846BDE8F0814FF0000972B60CF04AFB00F042FC1A
:2016800000F0C8FF962001F051F901F013F801F036F8002001F07FFA012001F065F9042069
:2016A000E249086005F032F900F076FE00F010FB03F030FB02F038FA02F012FB01F0A6FE42
:2016C00001F0E8FF01F060FF01F0BEFBFA2001F01DF903F02DFF012003F0E0FBD4A000F0A5
:2016E000A7FDDDA000F0A4FDD1A000F0A1FDE448D0F80E10E3A000F09BFD9FEDE80B53EC5E
:20170000102BE8A000F094FDED48006800F4005008B1ECA000E0EEA00146F0A000F088FDA5
:20172000002304229102F04802F0BFF8EE48006841F29A11884203D1EB480068EB4908609B
:20174000EA48006841F29A11884202D16FF0010000E00120AD49C864E448006841F29A127E
:20176000904202D1AFF2382001E0AFF22C200146DFA000F05DFD4FF6FF70A44908660020BE
:2017800005F0DDFA07F05AFE0A2001F0BFF83C2003F05DFC002007F0DAFE1F237F220021C1
:2017A000084607F0E3FE07F003FD012007F0CFFE7F231A462021002007F0D8FE07F0F8FC0C
:2017C000AF48D0F80E20CFA140F6B83003F025FAD34805F0B7FD4FF4207007F071FE07F088
:2017E000E7FC05F0AFF904462CB9CE4A1021CEA000F01EFD03E02146D6A000F019FD00238F
:20180000CC221946DC4802F050F8DCA000F010FDD9480068DD49B0FBF1F0452808D1D64805
:201820000168DBA000F004FDD348006894490860D148C069D949884208D1D9A000F0F8FCA7
:201840001822CD49091DE04809F050FBCA48D0F8C800DE49884224D1DDA000F0E9FCA82202
:20186000C5492031E54809F041FBE449086803F0EEFBE248816F002003F061FB634948634E
:20188000DE48C16F012003F05AFB60498863DB48816F002003F012FBD848C16F012003F05E
:2018A0000DFBD649B1F84410012901D0012100E00021084603F0FAFAD1A000F0B9FC01207A
:2018C00005F03DFA62B6FCE1D64801F037FA0546902D03D1D4A003F015FD1BE0D148D0F876
:2018E0000001012816D10121CE4804F069FFD54A0021CC48FFF7F2F90646012E06D1D148A3
:2019000001F063FA0021CF4804F05AFF0220C549C1F8000101F071FA00F0C4FE82464946A5
:2019200000F0C4FE642858DD00F0BCFE8146C648406818B140F68100FFF719FD03F0AAFBE9
:20194000324908655E480068012121EA10202F494866486E02F0CDFB2C4988660B469A6DE3
:20196000196D986E703302F01DFC2849C866C86E02F017FEB5480068012121EA90002349C3
:20198000486500208867496D21B12049896F09B9012100E000210846FFF757FD1B498865D4
:2019A0000A46116FD06EFFF72CFE184948670846406F012801D1002008671448406C002832
:2019C0000DDD124991F84420496C491E0F4B596402F0040111B100213DE143E138E13DE14F
:2019E000040000200D0A415054206E6F74696669636174696F6E3A20646973706C61792030
:201A000073657474696E67732E0D0A002C2100200D0A4E6577206F7065726174696E672059
:201A20006D6F6465203D202564000000180402400D0A2D2D2D2D2D2D2D2D2D2D2D2D2D2D10
:201A40002D2D2D2D2D2D2D2D2D2D2D2D2D2D2D2D2D2D2D2D000000000D0A4B50413130317D
:201A600020504F534954494F4E20414C49474E455220434F4E54524F4C4C4552000000008B
:201A8000540200200D0A0A4669726D77617265207265763A092530365800000000000000DF
:201AA000000065400D0A53797374656D20636C6F636B3A09252E3266204D487A000000005C
:201AC000100802406F6E207468652068756200007374616E64616C6F6E6500000D0A4D6F13
:201AE00064653A0909257300A8020020AC0200200D0A4A6F79737469636B3A0925730D0A48
:201B0000000000004B696E65736973204B50413130310A537752657620253036580000005D
:201B200098EE0008962300200D0A4F6E6557697265206461746120666F756E642C20646563
:201B4000736372697074696F6E203D2027252E2A732700000D0A4F6E6557697265206E6F22
:201B6000742064657465637465642C20737461747573203D20256400A01F00200D0A454519
:201B800050524F4D20726561642E000040420F000D0A532F4E203D20256400009B548CE341
:201BA0000D0A466F756E642056616C69642043616C6962726174696F6E20506172616D6504
:201BC000746572732E00000014210020172001300D0A466F756E642056616C696420557351
:201BE0006572204F7065726174696E6720506172616D65746572732E000000006C20002037
:201C00000D0A507265737320456E74657220666F72206465627567206F7074696F6E730DBB
:201C20000A0000002C000020496E76616C696420415054206D65737361676520666F726DA9
:201C400061742E005C1B0020F8210020100C02401C490968491C084603F0F9F903F00EFBE9
:201C60001949886704F098FC04F092FF1548026F816F002003F0A6F980461248426FC16F95
:201C8000012003F09FF90746B8F1020F01D0022F17D10D48C08F032807D10B48808F0B494A
:201CA00008800220084988870BE00748C08F022807D106480088042800D100E0032002496E
:201CC000888701E66C2000202C210020080000208548006840F4802083490860824810387E
:201CE0000068824908438049103908608048006820F480107E4908600846006840F40010EF
:201D00000860081D006820F48060091D086078480C30006820F4401075490C310860081FFA
:201D2000006820F44010091F08607148406A20F4706040F4E0616E484162006820F4800036
:201D40006B4908600846006840F40000086068480C30006820F4400065490C31086064486E
:201D6000406A20F4704040F4E0416148416240F26D106049088000205E4908310880091DC6
:201D800008805C48001D008840F400505949091D088058480C30008840F0C00055490C316F
:201DA00008805548806D20F001005349886500E000BF5148806D00F001000028F8D14E48DA
:201DC000806D20F060604C4988650846806D40F0006088650846806D40F48860886545483B
:201DE000001F08660020C8650846806A20F00100886200E000BF4048806A00F001000028AC
:201E0000F8D13D48806A20F060603B4988620846806A40F0006088620846806A40F4A0602E
:201E200088623448001F0863344848630815C86230480838008820F040002E490839088074
:201E40002C48001D008840F00C002A49091D08802948806A40F00100274988627047264900
:201E6000C96AC1F58061264A1268914202D14FF6FF700FE022490A680968491C204B1960CE
:201E80001E49885C19460968B1F5806F02D100211A4611607047184A926D22F00102164B3F
:201EA0009A6500E000BF144A926D02F00102002AF8D1114A5066D1650E4A083A128822F0B2
:201EC00040020C4B083B1A804FF000620A4B9A601A46926D42F001029A65704705480838C5
:201EE000008800F04000704740380240020020000004024008480040006002405C030020A0
:201F00000C000020C548006840F00100C34908604FF48020C24988610846006840F01000AE
:201F200008600846006820F0200008600846806860F030008860880088610846006840F0F6
:201F4000400008600846006820F0800008600846806860F0C00088604020886108460068FE
:201F600040F4805008600846006820F4005008600846806840F440508860A848006840F009
:201F80000200A64908600420A6490860A5481838006840F01000A34918390860084600682D
:201FA00020F0200008609F481038006820F030009C49103908604FF400209A49086099488D
:201FC0001838006840F040009649183908600846006820F08000086092481038006820F0F9
:201FE000C00090491039086010208E4908608D481838006840F480708A491839086008469D
:020000040800F2
:20200000006820F40070086086481038006820F44070844910390860480682490860814862
:202020001838006840F080707E49183908600846006820F0007008607A481038006820F028
:2020400040707849103908607448006840F004007249086004207449086073481838006827
:2020600040F010007049183908600846006820F0200008606C481038006820F030006A4909
:202080001039086008206849086067481838006840F040006449183908600846006820F04B
:2020A0008000086060481038006820F0C0005E491039086010205C4908605B481838006820
:2020C00040F480705849183908600846006820F40070086054481038006820F44070524935
:2020E0001039086050481838006820F440604E49183908604C480C38006820F440604A4954
:202100000C3908604FF480004749086046481838006840F480504449183908600846006811
:2021200020F40050086040481038006840F440503D491039086080203B4908603A48183842
:20214000006840F480403849183908600846006820F40040086034481038006840F4404097
:2021600031491039086030481838006820F040502D49183908602C480C38006820F0805035
:2021800029490C3908600846006840F0005008604FF400402449086023481838006840F0D7
:2021A00080402149183908600846006820F0004008601D481038006820F040401A4910397D
:2021C00008601648006840F00800144908601748006820F030001549086014480C30006807
:2021E00020F0300011490C310860704708B1402101E04FF480010A4A9161704708B108214B
:2022000001E04FF40021064A91617047074810300068012121EA900070470000303802406B
:20222000000002401804024018080240000C02400FB438B505A8009051480068B0F5006F4C
:2022400002D300E000BFFDE74E4909684C4A12688818009A049908F0DBFA04464848006828
:2022600020444749086000200090204638BC5DF814FB2DE9F04105460E4600274248006895
:2022800008B9424805603DE0082C04D00A2C1DD00D2C20D119E03C480068A8B108213CA0D9
:2022A000FFF7C6FF20213AA0FFF7C2FF082138A0FFF7BEFF34480068401E3349086033483C
:2022C0000068401E314908601BE000BF012700202D49086015E02C480068B04210D221466A
:2022E0002BA0FFF7A5FF294909680C7027480068401C2649086024480068401C224908600D
:2023000000BF00BFFFF7ABFD04464FF6FF718842BAD16FB100201D49096808701B480068F3
:20232000401C1A49086008460068401BBDE8F0810020FBE710B512480068B0B1FFF7CEFDA4
:2023400098B10F4801680F480068FFF7A4FD0D4800681049884202D101F5006000E00D48E0
:202360000849086000200649086010BD10B500E000BFFFF7B3FD0028FAD0FFF7DBFF10BD67
:202380001400002010000020180000201C000020256300005C0700209748006840F01000D3
:2023A00095490860944814380068944908439249143908609248006820F480209049086058
:2023C0000846006840F4002008600846406820F4007048600846C06820F44020C860084609
:2023E000806820F4402088600846406A20F0F00040F0700182484162006820F480108049BE
:2024000008600846006840F4001008600846C06820F40010C8600846C06840F48010C860CE
:202420000846406A20F4706040F4E06174484162C002734988610846006840F08070086047
:202440000846006820F0007008600846806840F0407088600846006820F440000860084620
:20246000C06820F40000C8600846C06840F48000C86040F2D9206349088100200882888292
:202480000846808940F4005088810846808A40F0C00088825C48006820F001005A490860DE
:2024A00000E000BF5848006800F001000028F8D15548006820F06060534908600846006804
:2024C00040F0006008600846006840F4886008604C48001D4C49083108600020091F086033
:2024E00049487838006820F0010047497839086000E000BF44487838006800F0010000281D
:20250000F7D141487838006820F060603E49783908600846006840F000600860084600687E
:2025200040F4A06008603748001D3749703908603648091D0860081533497439086031489F
:20254000008820F040002F4908800846808940F00C0088812C487838006840F001002A49D7
:20256000783908607047284974390968C1F58061274A1268914202D14FF6FF700FE02449C4
:202580000A680968491C224B19602049885C19460968B1F5806F02D100211A4611607047DF
:2025A000194A126822F00102174B1A6000E000BF154A126802F00102002AF8D1124A0C3253
:2025C0001060114A121D11600E4A128822F040020C4B1A804FF000620B4BAC3B1A600A4AAD
:2025E000126842F00102084B1A6070470548008800F04000704700004438024001004000ED
:202600000000024000100140B86402405C17002020000020FE48006840F40030FC49086037
:20262000A720FC49088040F2E730091D08604010F8490C310860F7480838008840F00100C1
:20264000F44908390880F3481038008840F06000F04910390880081F008840F00100091FC7
:202660000880EC482838008840F00100E94928390880E748006840F48030E5490860202019
:20268000E54908810846008940F007000881002008854FF6FF70C8620846008840F001005A
:2026A00008807047DC48406A80B270470246501A80B27047D648001F006840F01000D44987
:2026C000091F08605320D54908854FF6FF704862C8620846008840F0080008800846008858
:2026E00040F00100088070474142CC484162018841F0010101800188C907FCD17047C4480A
:20270000001F006840F00800C149091F0860C0482438006840F00800BD492439086000E0B1
:2027200000BFBB482438006800F008000028F7D0B7482438006820F00800B549243908608E
:202740000020B7490880091F0860B1481438006840F00100AE4914390860B248006820F045
:202760000100B04908600846006840F0020008600846006A20F00F00801C08624FF0FF305C
:20278000A749091D08605720A54920390880A4481038008840F00100A14910390880081FA6
:2027A000008840F00100091F08809D482838008840F001009A49283908809548001F006882
:2027C00040F002009249091F0860002096490880091F08608E481438006840F002008C49B4
:2027E000143908609148006820F001008F4908600846006840F0020008608C4820300068B6
:2028000020F00F00801C8949203108600846006820F0F00040F02000086041F2680084499C
:20282000086008460068401E7F49091D086040F633007D491431086008460068091D0860A6
:2028400047F2700078490C390880081D008840F48070091D08807548006820F480607349ED
:2028600008600846006840F4006008606F482030006820F4700040F400106C492031086099
:202880006948001D0068400867491031086066481038008820F4E0406349103908800846E4
:2028A000008840F4C04008805F480838008840F010005D49083908805B481438008840F00F
:2028C000010059491439088057482838008840F00100554928390880704710B52DED028B1E
:2028E000B0EE408A524890ED000AB8EE400A28EE000A10EE101A08460BF0BDF980F3100095
:20290000494910310860BDEC028B10BD30B50346FFF7C8FE044600E000BFFFF7C3FE0546A4
:202920002146FFF7C3FE9842F6DB30BD0246414850434FF47A73B0FBF3F1B1F1807F01D349
:20294000012070474FF0E020006940F001004FF0E0231861184641610020F2E74FF0E020D3
:20296000006900F4803070470CB558B9324909680191314928390968304A11602E49243938
:20298000096800912249091F096841F08051204A121F11602A49096841F48071284A116036
:2029A0001B492C31096841F48031194A2C3211601146096821F4803111601146096841F4D1
:2029C000407111601146096841F400411160CA21194A121F11605321116017491C3909682B
:2029E00041F08001144A1C3A116000E000BF12491C39096801F040010029F7D00E49183976
:202A000009686FF30E0142F20F7211440A4A19E04438024028440140004001400010004041
:202A2000280C004000000240280400400004024024000020406F4001282800402800002022
:202A400000700040183A11601146096821F4FE0141F4C6011160B1490968B14A1160B149E9
:202A6000121D1160AE490C31096821F08001AC4A0C32116000E000BFA9490C31096801F0AA
:202A800080010029F7D1FF21A54A24321160A4490C31096821F02001A14A0C3211600CBDBE
:202AA000A149096841F080519F4A11609F49096841F480719D4A11609B493031096841F49D
:202AC0008031994A303211601146096821F4803111601146096840F205121143924A3032ED
:202AE00011601146096841F40041116028B19049098841F001018E4A1180CA21884A2432C4
:202B000011605321116086490C31096841F08001834A0C32116000E000BF81490C3109689D
:202B200001F040010029F7D07D49103109686FF30E0142F20F721144794A103211601146B3
:202B4000096821F4FE0141F48031116073490968734A11607349121D116071490C3109687A
:202B600021F080016E4A0C32116000E000BF6C490C31096801F080010029F7D1FF21684A25
:202B80002432116066490C31096821F02001644A0C321160704767490140604A1160704708
:202BA000CA215F4A24321160532111605C490C31096841F080015A4A0C32116000E000BFDE
:202BC00057490C31096801F040010029F7D059490140534A116052490C31096821F08001B9
:202BE0004F4A0C321160FF214D4A24321160704710B50246CA204A4B243318605320186012
:202C000047480830006820F48070454B08331860181D006840F001001B1D186000E000BF21
:202C20003F480C30006800F001000028F7D04148104040F000403A4B1C331860C1F30E0032
:202C400040F07060364B4433186035480C30006820F00100324B0C3318601846006820F4C4
:202C600080701860181F006840F488501B1F1860181D006820F001001B1D1860FF20284B9F
:202C8000243318602C48006840F400302A4B186029480838006840F40030274B083B18608E
:202CA00025480C30006840F40030234B0C331860292000F01F040123A3404409A40004F131
:202CC000E024C4F8003100BF10BD15480C30006820F4807012490C31086000E000BF10487B
:202CE0000C30006800F480700028F7D112480C30006840F4003010490C31086070470EB582
:202D000007482830006800900548006802900448001D0068019002980EBD000028000020BE
:202D200000280040024413004038024000700040000400407F7F3F00083C014070B50446F3
:202D40000126D4F80001022801D0022070BD2FE0384802680068401C364B1860A554184628
:202D60000068062817D1207900F0800008B1A07800E00020801D30490860207900F07F0075
:202D8000502806D16079012803D108460068802801D99020DAE727480068274909688842E3
:202DA00006D10020234908600120C4F800010326D4F80001012806D0FFF7D5FB05464FF61F
:202DC000FF718842C4D13046C0E730B5D0F8003102461A4C24681A4D2D686119184C246889
:202DE0001C44174D2C6003E012F8014B01F8014B1C1EA3F10103F7D130BD10B510480068F9
:202E0000B0B1FFF7F3FB98B10D4801680B480068FFF7C6FB094800680A49884202D101F555
:202E2000807000E007480549086000200449086010BD0000380100203C0100203001002014
:202E400034010020601C0020FE48016841F001010160FD48016821F080410160016841F0C3
:202E600000410160416821F400414160C16821F04041C160816841F040418160416A21F0FC
:202E8000704141F080514162EE481030016841F0010101605321000601853121C1620521CE
:202EA0004163018B41F060010183018C41F001010184818941F002018181018841F001018B
:202EC0000180E24908684FF6FF021040E04A40F4407010430860DF49102081F800044FF063
:202EE000E0210006C1F800017047DB4808210160C9060A8A22F002020A82D84A00211180D4
:202F0000D74A11804FF40021016070472DE9F04FDFF844B308212DED028B81B0CBF800108C
:202F2000D0480068DFF840A3C204CD49CB48CF4DCF4CDFF840837DD50F460988CE4E81467C
:202F400000883268891A00EE101AF8EEC08A7168401A00EE100AC948B8EEC08A4188B06847
:202F6000081A00EE100AB8EEC00ADFEDC51A94ED022A68EEA10A9FEDC31A68EE211A42EE34
:202F8000010AC4ED020A94ED032A42EE011AC4ED031A9FEDBD1AD4ED051A20EE011A9FEDAA
:202FA000BB2A01EE821A84ED051AC4ED008A84ED018A84ED040A96ED030A20EEC00A10EEF5
:202FC000100A0AF058FE00F30F00208494ED030AD6ED040A20EE600A10EE100A0AF04BFEAF
:202FE00000F30F00608494ED050AD6ED050A20EE200A10EE100A0AF03EFE80F31000E0841C
:2030000094ED040AD6ED050A20EE200A10EE100A0AF031FE80F31000A08498ED140AD8EDC7
:20302000041A60EE280A98ED150A20EE081A95ED0A0A00E0E8E000EEA10A954A10EE100A50
:2030400085ED0A0A9FED932A9349DFED942A904202DD85ED0A2A05E010EE100A884201D943
:20306000C5ED0A2A95ED0B0A01EE210A10EE100A85ED0B0A904202DD85ED0B2A05E010EEDF
:20308000100A884201D9C5ED0B2AD5ED0C1A98ED060AB7EE002A70EEE11A72EE402A95ED9A
:2030A0000E2A60EE211A42EE821AC5ED0E1A95ED0D2A31EE422A20EE022A95ED0F0A02EEA0
:2030C000802A85ED0F2AC5ED0C0A85ED0D1A98ED033A95ED0A0AD8ED052A00EE830AD5EDB1
:2030E0000B0A41EE030A95ED021A01EEA20A85ED031AD5ED101A42EE220AC5ED021AD5EDDF
:20310000042AC5ED052A95ED113A85ED043A85ED100A686890ED002AD0ED033A90ED044A5B
:2031200022EE000A90ED012A01EE820AD0ED021A01EE210A03EE230A02EE840A85ED110A36
:20314000D5ED064AC5ED074A95ED121A85ED061AD5ED082AC5ED092A95ED133A85ED083ABE
:20316000C5ED120A90ED005A65EE200A41EE020A44EEA10A43EE230A42EE840AC5ED130A2A
:20318000E08F032832D0A08D2085E08D60859FED440A85ED110A85ED130A85ED0A0A85ED81
:2031A0000B0A00BFB4F92800B8F94810884203DBB8F94A10884200DD2185B4F92A00B8F9D5
:2031C0004C10884203DBB8F94E10884200DD61854FF08051CAF80010618D47F6FF70411A78
:2031E000A9F80010218D401A3880F9E010EE100A0AF041FD00F30F002085E86C0AF03BFD08
:2032000000F30F006085CDE7098800884FF480510090CAF800102348816841F0804181605D
:203220001348144BA28F2E88B0F92810B0F92A000227B3F846304FF0030CB2424ED0012A64
:2032400037D031E030380240000002400CED00E00000FA051CE000E0180802400C380040D0
:203260000C3C00401404024018040240400100202C2100206C20002014210020900100208E
:20328000A69BC43BC9767E3F6F12833A77BE7F3F00FEFF4600FEFF4600FEFFC600FEFFC6B5
:2032A0000000000000200140022A05D0032A14D111E00126E68710E0012B05D00E46A685A5
:2032C00005D14FF0000603E04FF00006F7E70646E685E78701E0A4F83EC02A80494D042ABF
:2032E000AD6D10D1A28CAA420BDA012B02D100BF4FF00001A18501D14FF00000E085E787CC
:2033000001E0A4F83EC04049E08C096BA84202DD41F0010101E021F001012163D8F8601015
:203320008842216B02DA41F0020101E021F002012163D8F85C108842216B02DD41F0040107
:2033400001E021F004012163D8F864108842206B02DA40F0080001E020F008002063B4F91C
:203360002000002800DA4042B4F92210002900DA4942D8F86820824205D98A4203D9226B0D
:2033800042F0100202E0226B22F010022263D8F86C20824205D98A4203D9206B40F0200050
:2033A00002E0206B20F020002063D4E90C1088431FD00020A26B8A431DD00024D8F87010FF
:2033C00002291AD000214140002001F0E7FDD8F87400022813D000216140012001F0DEFD41
:2033E0004FF40021CBF8001001B0BDEC028BBDE8F08F0120DEE70124E0E70121E3E70121AB
:20340000EAE700006C2000202C21002008B55B48006840F002005949086058481030006876
:2034200040F480405549103108605548006820F08040534908600846006840F000400860EA
:20344000081D006820F40040091D08604C480C30006820F040404A490C310860081F00686E
:2034600060F04040091F08604548406A20F0704040F0A04142484162006820F080604049D6
:2034800008600846006840F000600860081D006820F40050091D086039480C30006820F062
:2034A000406037490C310860081F006860F04060091F08603248406A20F4700040F4A001BB
:2034C0002F484162006820F080502D4908600846006840F00050086029480C30006840F0C9
:2034E000805027490C3108600846006820F0005008602348406A20F0706040F0A0612048DB
:20350000416280141E49183108601D48006840F080701B4908600846006820F00070086005
:20352000081D006820F48050091D086014480C30006820F0407012490C310860081F00683D
:2035400060F04070091F08600E48008820F040000C490880081F008820F04000091F088021
:2035600040F6143008800846008840F040000880044808300088009008BD00003038024070
:2035800000040240043800403C48006840F004003A4908603A48006840F003003849086058
:2035A00037480C30006820F0030035490C3108603348006840F00C003149086030480C30FD
:2035C000006820F00C002E490C3108602B481430006840F480702949143108602948006810
:2035E00040F440302849C1F8040340F6013088603F2008610846C06A20F47000C86208466B
:20360000C06A40F48010C8624FF4B57048631F48006820F001001D49086000E000BF1B48CF
:20362000006800F001000028F8D11848006820F06060164908600846006840F450600860DF
:2036400011484C301149083108601148091D086002200E49091D08600B48406840F410600D
:20366000094948600948006840F001000749086070470146064830F81100704730380240C8
:20368000000802400423014000200140706402409001002018B56C48006840F004006A4980
:2036A000086069481030006840F400406649103108606648006820F0807064490860084604
:2036C000006840F000700860081D006820F48050091D08605D480C30006820F040705B49CE
:2036E0000C310860081F006860F04070091F08605648406A20F4702040F4C02153484162C7
:20370000006820F48010514908600846006840F400100860081D006820F48060091D08602A
:203720004A480C30006820F4401048490C310860081F006860F44010091F08604348406AC1
:2037400020F4706040F4C06140484162006820F480003E4908600846006840F400000860C8
:203760003A480C30006840F4800038490C3108600846006820F4000008603448406A20F4DD
:20378000704040F4C041314841622F48006840F001002D4908604FF400402D49886108460A
:2037A000006840F0804008600846006820F0004008600846406820F4004048600846C06873
:2037C00020F04040C8600846806860F0404088602048008820F040001E490880081F008865
:2037E00020F04000091F088040F6143008800846008840F040000880081D008840F04000DC
:20380000091D088033200121002807DA0A07140E114A00F00F031B1FD45403E00A07130E75
:203820000E4A135400BF332000F01F02012191404209920002F1E022C2F8001100BF05480A
:2038400008300088009018BD303802400008024000000240043C004018ED00E000E400E0E4
:203860002DE9FC4105460C460026FEF71BFF064600BFFEF717FF07463146FEF717FFA0425C
:2038800001DD012000E000200190284600F0DAF90090019810B900980028EAD0019810B1A1
:2038A0000120BDE8FC810220FBE72DE9F05F83460E46174698464FF0010A5C46F019B0F56A
:2038C000005F02D30120BDE8F09F0FB90020FAE7012000F0E0F900F0C8F903219048FFF709
:2038E000BFFF022801D00220EDE7A02000F0CFF903218C48FFF7B4FF022801D00220E2E71A
:20390000C6F3072000F0DBF903218648801CFFF7A7FF022801D00220D5E7F0B200F0CFF9A6
:2039200003218048801CFFF79BFF022801D00220C9E7012000F0AFF900F097F90321784885
:20394000FFF78EFF022801D00220BCE7A12000F09EF903217248401CFFF782FF022801D030
:203960000220B0E74FF000091EE003216C483F30FFF776FF022801D00220A4E700F0A3F962
:203980000546B8F1000F02D104F8015B0AE0BAF1000F05D014F8011BA94201D1012000E09A
:2039A0000020824609F10109781E4845DDD8002000F071F903215A483F30FFF751FF022824
:2039C00001D002207FE700F059F900F07CF90546B8F1000F02D104F8015B0AE0BAF1000F15
:2039E00005D014F8011BA94201D1012000E000208246BAF1010F01D0012064E7002062E7C3
:203A00002DE9F84F81460D461646A819B0F5005F02D30220BDE8F88F0EB90120FAE7C84614
:203A20002C4674E004F01F07AC4200D087BB012000F031F900F019F903213948FFF710FFBF
:203A4000022801D01E20E5E7A02000F020F903213448FFF705FF022801D01F20DAE7C4F34C
:203A6000072000F02CF903212E48801CFFF7F8FE022801D02020CDE7E0B200F020F903213A
:203A80002848801CFFF7ECFE022802D02120C1E7FFE718F8010B00F012F903212148801C2F
:203AA000FFF7DEFE022801D02220B3E71F2F03D0A819401EA04229D100F0E0F8FEF7F2FD95
:203AC000824600BF00F0D1F803211548FFF7C8FE022801D023209DE7A02000F0D8F8022104
:203AE0001048FFF7BDFE022800D10EE0FEF7DAFD83465146FEF7DAFD142801DD012000E0C1
:203B00000020009000980028DCD000BF641CA819A04287D8009808B901207BE7242079E7C8
:203B200001000300820007006948006840F005006749086066481030006840F4000064495B
:203B40001031086062481038006840F400006049103908600846006820F4000008605D48FD
:203B6000406A20F00F00001D5A4948620846406840F4807048600846C06820F44030C8602E
:203B80000846806860F4403088600846006820F4803008600846006840F4003008604E4849
:203BA000406A20F0F00040F040014B484162001D006840F400704849091D086046480C30A2
:203BC000006820F4402044490C310860081F006860F44020091F08603F48006820F4802061
:203BE0003D4908600846006840F4002008603B48008820F03F0040F02A0038490880081F81
:203C0000008820F00100091F08804FF48C703349183108802B20091D08803048001F0088B7
:203C200040F480602D49091F0880EE202B49091D08802A48001F008840F001002749091F38
:203C40000880704710B50146244810300388001D048843EA044020F07F4202EA0100884240
:203C600001D1012010BD0020FCE71C48001F008840F480701949091F088070471748001F0B
:203C8000008840F400701549091F0880704713490C3108807047012808D11049091F098847
:203CA00041F480610D4A121F118007E00B49091F098821F48061094A121F118070470749CF
:203CC0000C310880704705480C300088C0B27047303802400000024000080240045C004058
:203CE00008B58548006840F00100834B186082481430006840F480507F4B143318607F4891
:203D0000006820F480407D4B18601846006840F4004018601846406820F0800058601846C9
:203D2000C06820F44040D8601846806840F4404098601846006A20F0704040F0A04018628B
:203D40001846006820F4806018601846006840F4006018601846406820F020005860184613
:203D6000C06820F44060D860202098611846806840F4406098601846006A20F4700040F464
:203D8000A00018625C48006840F001005A4B186010205A4B98611846006840F4807018607F
:203DA0001846006820F4007018601846406820F0100058601846C06820F44070D860184683
:203DC000806840F4407098604D48808820F040004B4B98801846008820F04000188005238E
:203DE000B3FA83F3C3F12001481E382303EAC00242F44170424B18801846808840F00200B7
:203E000098803D48006840F480003B4B18603D48006820F001003B4B186000E000BF3948CF
:203E2000006800F001000028F8D14FF40060354B7C3B18603348006820F06060314B18603F
:203E40001846006840F0C06018601846006840F4806018601846006840F040001860284864
:203E60000C30284B0833186000201B1F18602448008840F04000224B1880184680890090AE
:203E800001208840204BB3FBF0F008BD08B1102101E04FF48011194A91617047194A1268F3
:203EA00022F00102174B1A6000E000BF154A126802F00102002AF8D1124A0C321060114A4C
:203EC000121D1160D2140F4B7C3B1A600D4A126842F001020B4B1A6070470A4884380068CE
:203EE00000F4006030B10648008900F0800008B9012070470020FCE73038024000000240BE
:203F0000003001408864024000BD0105002100205C4A126842F480325A4B1A6000BF594A75
:203F2000126802F40030491C10B9B1F5705FF6D1544A1268C2F34040002876D0514A4032AF
:203F4000126842F080524F4B40331A604E4A126842F480424C4B1A6040F205624B4B1A6098
:203F6000484A08321268474B08331A601A46126842F400421A601A46126842F4A0521A606C
:203F80001A46126822F4F81242F440221A601A46126822F060521A601A46126842F000529F
:203FA0001A601A46126822F040421A601A46126842F080421A60364A1B1F1A601A1F126870
:203FC00042F080721B1F1A6000E000BF2D4A126802F00072002AF8D02A4A0832126822F0E9
:203FE0000302284B08331A601A46126842F002021A6000E000BF234A0832126802F00C024A
:020000040800F2
:20400000082AF7D1234A1F4B84331A601D4A126842F080621B4B1A6001E006E000BF194AE0
:20402000126802F00062002AF8D0704710B51A48006840F47000184908601248006840F01B
:2040400001001049086000200E49083108600D480068124908400B4908601148091D086083
:20406000081F006820F48020091F0860002005490C310860FFF74AFF4FF000600649803974
:20408000086010BD0038024000700040003C02400C5440070036004088ED00E0FFFFF6FEDF
:2040A0001030002410B502460B46002107E0FE4C04EB01142468944200D102E0491C0A293B
:2040C000F5D900BF23B1012B07D0022B0FD109E0F54C04EB0114606809E0F34C04EB01144D
:2040E000A06804E0F04C04EB0114E06800BF00BF10BD70B504460025EC48006806284ED283
:20410000DFE800F0030E4D203A3F012C07D10120E64908602025FEF7C5FAE54908803EE067
:20412000FEF7C0FA0646E24801883046FEF7BEFAC82806D9012C01D1032000E00020DB4999
:2041400008602CE0012C0FD1FEF7ACFA0646D84801883046FEF7AAFAB0F57A7F0BD9042099
:20416000D2490860102506E00520D0490860FEF799FAD049088012E014B90520CB49086072
:204180000DE0FEF78FFA0646CA4801883046FEF78DFAC82802D90020C449086000BF00BFFD
:2041A000284670BD2DE9F0472DED028B80460D4691461E46C048C06DC0494968884205DA84
:2041C000BD48C06D401CBC49C86528E0BA48C06DBA49496888420ED1B849886800F037FF74
:2041E000B548C06D401CB449C865B5480068BDEC028BBDE8F087B8F1000F06D1281E01DBA7
:20420000014600E04142192909DDAC49086800F01EFF0020A849C865A9480068E7E7A94804
:204220000068A7490860A748006890B1A548006809280ED0FEF736FA8246A34801885046CB
:20424000FEF734FA41F28831884202D900209D490860B9F1010F06D19A480068092802D05E
:20426000092098490860192D01DD012000E0002015F1190F01DA012100E00021441AFEF708
:2042800011FA8246904801885046FEF70FFAB0F5FA7F00DA0024B8F1000F00D11CB1FEF7EF
:2042A00001FA89490880012C07D1002185480068FFF7F8FE834908603DE0601C38B9012182
:2042C00080480068FFF7EEFE7E49086033E008F0200038B102217B480068FFF7E3FE7949A2
:2042E000086028E0B8F1100F25D178A0FDF7A0FF05F0A4F87149086800F0A9FE002005F07E
:2043000026F91F237F220021084605F02FF904F04FFF724803F016F84FF4207005F0D0F882
:20432000012005F014F97F231A462021002005F01DF904F03DFF63480068401F052836D215
:20434000DFE800F00336A2E9F20000EE105AB8EEC00ADFED630A20EE208ABDEEC80A10EEBC
:20436000100A20B300EE105AB8EEC00ADFED5C0A20EE200AB0EE408A5048BDEEC80A016838
:2043800010EE100A08444D49086008460068002802DA0020086006E048480068642802DD30
:2043A000642046490860306840F004003060C2E0002C68D04FF4167004FB00F73F48406832
:2043C0006FF00041884205D1002F03DA45483B4948604AE03948406838444249884204DDD3
:2043E0006FF00040354948603FE034484068384448F6A041884211DD30484068491090FB5E
:20440000F1F201FB12012D48426840F26540604302EB0010401A2949486026E02748406883
:20442000384441F27071884210DD2448406890FBF1F201FB12012148426840F27710604335
:2044400002EB0010401A1D4948600EE01B4840683844002809DD19484068C4EB041101EBBB
:20446000810100EBC10015494860144840684FF4167190FBF1FA51461BA0FDF7D9FE30680F
:2044800040F00400306056E06CB10B48B0F8400020440949A1F840000846B0F840000128DC
:2044A0002FDA04202AE035E0940100203C020020380200203A0200202C2100206C200020CE
:2044C0004802002044020020400200200D0A4C6F6E672070726573732E0D0A0098EE0008E3
:2044E000CDCC4C3D006504000D0A54696D656F7574203D202564206D696E0000A1F84000F0
:2045000008E0FE48B0F84000042803DD0120FB49A1F840000FE0306840F0010030600020D3
:20452000F749086007E0FFE7B9F1000F02D10020F349086000BF00BFF1480068F1490968EC
:2045400088420BD0EE49096811B9EF49096802E0ED490968491C084600F079FDE848006861
:2045600045E603468B4205DD934201DA184670471046FCE70846FAE7F0EE401AF4EEE01AD7
:20458000F1EE10FA0ADDF4EEC11AF1EE10FA02D2B0EE610A7047B0EE410AFBE7B0EE600A3E
:2045A000F8E7F0B52DED0A8B8DB004460A2C7DD2DFE804F0059FB0BECFDDFEFD7CFCCF48B9
:2045C000B0F9200000EE900AF8EEE00A9FEDCF1A60EE810AB0EE600A9FEDCD1ADFEDCD0A4E
:2045E000FFF7CAFFB0EE409AC448B0F9220000EE900AF8EEE00A9FEDC51A60EE810AB0EE73
:20460000600A9FEDC31ADFEDC30AFFF7B5FFF0EE409ABA48B0F9280000EE900AF8EEE00AA1
:204620009FEDBA1A60EE810AB0EE600A9FEDB81ADFEDB80AFFF7A0FFB0EE40AAAF48B0F990
:204640002A0000EE900AF8EEE00A9FEDB01A60EE810AB0EE600A9FEDAE1ADFEDAE0AFFF7D3
:204660008BFFF0EE408AA548C08F012801D14D250AE0A248C08F022801D14F2504E09F4801
:20468000C08F032800D143251AEE100A09F0C8FA41EC1B0B19EE100A09F0C2FA41EC1C0B0D
:2046A00002958DED00BB53EC1C2B00E0E7E09AA19E4806F0BFF818EE900A09F0B1FA41ECC2
:2046C0001B0B19EE900A09F0ABFA41EC1C0B8B48808F042801D1412000E0202002908DEDB4
:2046E00000BB53EC1C2B92A19048283006F0A2F8D8E0002004F02BFF92A2964801688B4842
:2047000006F098F894A2934801688848283006F091F8C7E08BA28F480168844806F08AF89A
:2047200090A28C4801688148283006F083F8B9E0002004F00CFF83A2864801687B4806F0AB
:2047400079F88CA2834801687848283006F072F8A8E07CA27F480168744806F06BF889A2F8
:204760007C4801687148283006F064F89AE0002004F0EDFE64480068632802DC62480068A1
:2047800000E06320024683A103A806F053F803AA70480168654806F04DF882A26D48016866
:2047A0006248283006F046F8574902E05DE02BE003E0086800F04BFC74E0534840686FF079
:2047C0000041884204D17AA103A806F033F80AE04D4840684FF4167190FBF1F73A4678A115
:2047E00003A806F027F803AA5A4801684F4806F021F86CA2574801684C48283006F01AF891
:2048000000203E49C8654DE03C48B0F84000012806D002280BD0032810D004281CD114E00F
:204820006BA24C480168414806F004F814E06AA2484801683D4805F0FDFF0DE069A24548FF
:2048400001683A4805F0F6FF06E069A241480168364805F0EFFF00BF00BF69A23D480168C8
:204860003248283005F0E6FF1CE068A12F4805F0E1FF6AA12D48283005F0DCFF12E06CA293
:2048800034480168294805F0D5FF22466DA103A805F0D0FF03AA2F4801682448283005F0CE
:2048A000C9FF00BF00BF002004F051FE1349B1F8601088B202F062FA0021084602F0D8FD1C
:2048C0001A4804F05BFC0121002002F0D1FD1748283004F053FC012004F039FE002002F0D1
:2048E0004DFA594A12882F3211B2584A12882F3210B20023052203F07CF8A9E02C2100200A
:2049000044020020480200206C200020E7FB9F390AD71F410AD71FC15820252B312E3266A0
:2049200020252B312E32662025630000601E00205920252B312E326620252B312E32662083
:20494000256300004D656E75206F7074696F6E7300000000340200205573652077686565C2
:204960006C0000003120436F6E74726F6C206D6F6465000032204272696768746E65737369
:20498000000000003320446973702E54696D656F757400004272696768746E657373203DA9
:2049A000202564008220746F2061646A7573740054696D656F75743A206E657665720000BD
:2049C0004166746572202564206D696E000000004D6F6E69746F72004F70656E206C6F6FF4
:2049E00070000000436C6F736564206C6F6F70004175746F204F70656E2F436C6F736500A3
:204A00008220746F2073656C65637400536176696E6720706172616D73202600706F776564
:204A200072696E6720646F776E2E2E2E00000000556E68616E646C65642073746174653A56
:204A40000000000025640000500200204C020020A449B1F8601088B202F090F92F210520BD
:204A600003F054F82F215A2003F006F905212F2003F04CF85A212F2003F0FEF85A231A46FF
:204A80000521084603F0FBF944231A461A21084603F0F5F9934890ED058AB2EE040AB4EE53
:204AA000C08AF1EE10FA03D2B2EE040AB0EE408A8C4890ED020ADFED8C0A20EE200AC0EE33
:204AC000080A10EE907A384609F0D5F887490860844890ED030ADFED840A20EE200AC0EEAA
:204AE000080A10EE907A384609F0C5F8804908602A2251427D480068FFF733FD7B490860D9
:204B00002A2251427A480068FFF72BFD784908600A4612882F3211B2744A12882F3210B2BC
:204B20000023052202F065FF012004F0C9FC6D48C08C00EB001000EB8000060C532E00D928
:204B4000532602200021CDE90010C6F15800C1B25A237322642003F0B1FC002004F0B0FC5B
:204B600002200021CDE90010C6F15800C3B272220521652003F0A2FC00200DB0BDEC0A8BBD
:204B8000F0BD0FB470B5BEB0044644A83D9015A83D9A439905F03CFE15AA56A115A805F008
:204BA00049FE29AB33AA54A115A806F007F833AA554801680BA805F03DFE29AA52480168BA
:204BC00001A805F037FE00203D9004F0C0FC04F0EFFA0021084602F04BFC4FF4784002F0F3
:204BE000CDF80BA804F0CAFA0121002002F040FC01A804F0C3FAFDF755FD054601E001F058
:204C0000C7FFFDF74FFD06462946FDF74FFDA042F5DB3EB070BC5DF814FB0FB470B5BEB00D
:204C2000044644A83D9015A83D9A439905F0F0FD15AA30A115A805F0FDFD29AB33AA2EA163
:204C400015A805F0BBFF33AA2F4801680BA805F0F1FD29AA2C48016801A805F0EBFD00203F
:204C60003D9004F074FC04F0A3FA4FF4784002F085F8264B00221146104603F0B5FB012004
:204C800004F065FC224802F05DFB0021084602F0EFFB0BA804F072FA0121002002F0E8FB96
:204CA00001A804F06BFAFDF7FDFC054600E000BFFDF7F8FC06462946FDF7F8FCA042F6DBDD
:204CC000002004F044FC124802F03CFB04F070FA012004F03CFC04F06BFA3EB070BC5DF88A
:204CE00014FB00002C2100200000AA424C0200205002002025730A00255B5E0A5D0A255BFB
:204D00005E0A5D0A0000000034020020E0EF000898EE000810B50020524908604860C86051
:204D20008860322008614FF0FF304F4908609FED4F0A4F4880ED030A9FED4E0A80ED040A0D
:204D40009FED4D0A80ED050AB7EE000A80ED060A9FED4A0A80ED080AB1EE040A80ED090A3C
:204D60000020434988629FED460A084680ED070A0020C862142243493D48303006F0B6F860
:204D80003C203B4908606FF000404860022088608003A1F84800401EA1F84A00401CA1F8E0
:204DA0004C00401EA1F84E000120A1F84400A1F84600B7EE000A084680ED140AB7EE000A4E
:204DC00080ED150A41F6991088654EF26560086640F24710886601200867886741F6991130
:204DE0002348C1654EF26561416640F24711C16601214167C1673C201D490860002022491D
:204E000088670120C86402208887C887A1F8400000208885C8859FED1D0A084680ED060A05
:204E20009FED1A0A80ED070A47F6FF7018490860486040F6CC4088609FED160A084680ED96
:204E4000030A9FED140A80ED040A9FED130A80ED050A00200C49C865088548854864C86625
:204E600010BD0000F8210020AC020020CDCCCC3D6C200020CDCC4C3E9A99993E000096430A
:204E800000007A442CDE00082C2100200000000014210020E4388E3FCDCC8C3F08B18021D9
:204EA00001E04FF40001FE4A1160704708B1402101E04FF48001FA4A116070470E293CD2ED
:204EC000DFE801F00708093B3B3B3B3B3B3B2021222300BF00BF48B9F24A126822F00C028A
:204EE000F04B1A600422EE4B1A600AE0012808D1ED4A126822F00C02EB4B1A60C203E84BBF
:204F00001A601AE000BF00BF00BF50B94FF48022E34B1A60E34A126842F00402E14B1A60C5
:204F20000AE0012808D1C207DD4B1A60DE4A126842F00402DC4B1A6000BF00BF7047024622
:204F400000200A2906D00B290DD00C290ED00D2912D10EE012B940F4804003E0012A01D15E
:204F600040F4004008E040F0030005E040F0100002E040F0130000BF00BF704701460020BC
:204F800029B9C84A10321268C2F3400005E0012903D1C54A1269C2F34000704740B909B1A0
:204FA000022201E04FF40032BE4B18331A6008E0012806D109B1022201E04FF40032BA4B88
:204FC0009A6170472DE9F04781460D4617464FF0000AB9F1000F03D0B9F1010F0BD103E00D
:204FE000B24BB34CB34E09E0B04B1B1DB04C241DB04E361D02E00020BDE8F08700BF306895
:20500000A84203D06FF00100206018603560022D15D1186820604846FFF7B0FF18601868A6
:205020002168A0EB0108012F02D1B8F1010F04D0022F03D108F1010000B9AA4604E06FF0D8
:2050400001002060186000BF00BF5046D4E710B52DED028B0446642C00DD6424002C12DDC2
:2050600000EE104AB8EEC00ADFED930A20EE208A9FED921ADFED920A48EE010AB0EE600A6E
:20508000FDF72BFC03E09FED8F0AFDF726FCBDEC028B10BD10B501F097FC8B49C96C4843F7
:2050A0008A494843C41304F3070010BD70B504460025062C7ED2DFE804F0031E446282B224
:2050C0007848006840F00400764908600846006820F0080008607E48008820F480707C4900
:2050E000088010206F4918310860C00308600020FDF73AFCBFE06B48006840F0040069497A
:2051000008600846006820F0080008607048008820F488506E4908806D482038008820F0E1
:2051200001006B492039088010205E4918310860C003086040105C49886108205849086017
:2051400099E05848006840F00400564908600846006820F0080008600820524918310860E9
:205160004004086004205049886108204C4908605748008840F48070554908807BE049485B
:20518000006840F00400474908600846006820F0080008604E48008820F480704C49088006
:2051A0001020404918310860C003086004203E49886100E05DE00820394908605BE04FF419
:2051C00080203749086036481838006840F010003349183908600846006820F0200008604E
:2051E0003048006820F004002E4908600846006840F0080008604FF480102A49183108608F
:20520000082008600420284988610820244908602F48008840F488502D4908802BE0214806
:20522000006840F004001F4908600846006820F0080008601C48006820F00C001A49086019
:2052400004201749086016481838006840F010001349183908600846006820F020000860A9
:205260001020104918310860C00308600C49086001E0012500BF00BF284670BD10B5002007
:20528000FEF7F7F900EE100AB8EE400ADFED110A20EE200ADFED100AB4EEE00A1EE00000A2
:2052A000180802400004024000000240B0020020B8020020C00200200AD7233C5D74513FD5
:2052C0008C2E3A3E000000002C2100205C8F020020040040333353383333F33FF1EE10FA6C
:2052E0000DD21148007800F0010040B90FA0FCF79FFF0D48006840F001000B4908600A48D8
:20530000006810BD044621460FA0FCF791FF224614A14FF6FF70FFF734FC03E0FDF70AF8A5
:2053200001F036FCFAE70000C80200200D0A4C6F7373206F6620565245462F2B3135562049
:205340007261696C0D0A00000D0A556E7265636F76657261626C65206572726F723A202561
:20536000730000004572726F720A2531362E31367300000010B52DED0A8B86B00446B0EE80
:2053800040AAF0EE608A9FED660A2AEE000ADFED650A80EE201AB0EE41CAB0EE4C0A08F0C5
:2053A00017F8F7EE000A80EE801AB0EE418AB7EE000A08EE080AB0EE409A88EE280A30EE89
:2053C000090AF0EE409A89EE290AF0EE40AAB0EE000A68EE000AB0EE000A00EEC80AC0EE72
:2053E000290AB0EE60BA88EE280A39EE400AC0EE290AF0EE60BACDED01AA8DED02BACDED7B
:2054000003AAB1EE4B0A8DED040AB1EE6B0A8DED050A142201A9204605F068FD06B0BDECC7
:205420000A8B10BD10B52DED088B86B00446F0EE409A9FED3B0A29EE800ADFED3A0A80EE70
:20544000201AF0EE41BAB0EE6B0A07F0C1FFF7EE000A80EE801AB0EE418AB7EE000A08EE6A
:20546000080AB0EE40AADFED300A88EE200A30EE0A0AB0EE409AB7EE000AC0EE090AF0EEF4
:20548000608AB0EE000A68EE000AB0EE000A00EEC80AC0EE090AF0EE60AADFED230A88EE9A
:2054A000200A3AEE400AC0EE090AB0EE60BACDED018AB0EE000A28EE800A8DED020ACDED0A
:2054C000038AB1EE6A0A8DED040AB1EE4B0A8DED050A142201A9204605F008FD06B0BDEC88
:2054E000088B10BD10B52DED048BB0EE408A9FED0F0A28EE000ADFED0B0A80EE201AB0EE8A
:20550000419AB0EE490A07F007FEF7EE000A30EEC00AF0EE408AB0EE680ABDEC048B10BD2F
:20552000DB0F494000409C46F304353FDB0FC9C02DE9F0410020FC49086048608860FB4910
:20554000086048608860FA48006840F00200F8490860F848006820F48020F649086008467D
:20556000006840F400200860081D006820F40070091D0860EF480C30006820F44020ED49E3
:205580000C310860081F006840F44020091F0860E848406A20F0F00040F09001E548416248
:2055A000006820F48030E34908600846006840F400300860DF480C30006820F44030DD4934
:2055C0000C310860DB48406A20F00F0040F00901D8484162D6481030006840F00070D449BA
:2055E00010310860D2481038006840F00070D0491039086000E000BFCD481038006800F07A
:2056000000700028F7D0CA481038006820F00070C749103908600120C74908600320C6495D
:20562000143108602A241520B4FBF0F8B4FBF0F100FB114010B10120BDE8F0810E25681C18
:20564000C0F11506771E0FB90120F5E7BA481C300068BA490840B8491C310860781E4FF098
:20566000407101EA0060711E4FF4E00202EA01510843691E4FF4702202EA01410843A8F183
:205680000101C1F309010843AB491C3109680843A9491C310860132000F054FA142000F0C6
:2056A00051FA0020C8E7A4491C31096821F04041A14A1C3211601146096800F0404211435B
:2056C0009D4A1C32116070479B48006820F001009949086000E000BF9748006800F00100F0
:2056E0000028F8D100E000BF93480830006800F080600028F7D0704730B502460B4600218A
:205700008F4800880D2801DD012030BD0BB9012000E0002018B1002040EA425001E0D000CE
:20572000001D01438748006840F00100854C206084481C300068824C25780124AC40A04370
:20574000804C1C3420607F480C3000687C4C25780124AC4020437B4C0C3420607948001D04
:205760000068774C25780124AC402043754C241D206074484030724C248840F83410704C9D
:20578000248800EBC40041606E48143000686C4C25780124AC40A0436A4C14342060694833
:2057A0001C300068664C25780124AC402043654C1C3420606348006820F00100614C2060A0
:2057C0005F480088401C5E4C208000209DE710B502460B4600210BB9012000E0002018B123
:2057E000002040EA425001E0D000001D01435548006840F00100534C206052481C30006818
:2058000020F001004F4C1C3420604E480C30006840F001004B4C0C3420604A48001D006833
:2058200040F00100474C241D2060464840300160001D016043481430006820F00100414C31
:20584000143420603F481C30006840F001003D4C1C3420603B48006820F00100394C2060BA
:20586000002010BD34490C31096801F0030100294BD02D494A684968491C2B4B596003F176
:205880000C0101EB02102F495039096801F0040151B9002141732B495039096840F2FF72A5
:2058A00002EA5151016008E001214173254950390968254A02EAD1010160224950390968E0
:2058C000C1F3400181731F494C39096801F00F0101731C494839096841601A4944390A68C2
:2058E000826011494968082902D100210E4A51600D490968491C0C4A11600F490C31096894
:2059000041F020010C4A0C32116070470A491431096821F00201084A143211600249096897
:20592000A1B9002028E000000C2200209822002030380240000402400064004000FC80FCB1
:20594000D002002000660040FFFF030083498A688968491C814B996003F10C0101EB0210D6
:205960000C398968082902D100211A4691607B490968491E794A11607949096841F0020144
:20598000774A1160704776490C39096801F0010100295DD07249096821F00101704A1160F6
:2059A00070490968002953D06E498A688968491C6C4B996003F10C0101EB021000216A4AEE
:2059C000116011460A68417B21B90188002343EA415102E00168C900091D0A4362490A60F0
:2059E0000968827B0AB9002200E0022211435E4A11605D49083142680A60091D82680A6076
:205A00005949091D096821F00F025749091D0A600968027B02F00F021143534A121D116079
:205A20004F49096841F001014D4A11604E49096841F001014C4A11604A498968082902D158
:205A40000021484A916047490968491E454A1160704770B50146424A126822F00102404B71
:205A60001A60404A1268082A01D3012019E03D4A53685268521C3B4C626004F10C0202EBE5
:205A8000031391E8740074C3364A5268082A02D10022344B5A60334A1268521C314B1A60D7
:205AA00000202F4A126842F001022D4B1A602F4A1268012A08D12C4A126842F001022A4B1B
:205AC0001A600022294B1A6070BD2548006820F001002349086000BF21480C38006840F051
:205AE00080001F490C3908600846006800F080000028F1D10846006820F001000860184872
:205B0000001D00681A4908401549091D0860002014490860486088600120144908601320DB
:205B200001218140134A430942F8231000BF0C48006840F001000A49086070470848001DE1
:205B40000068704700F01F02012191404209920002F1E022C2F80011704700000C22002080
:205B6000146400409822002080650040CC0200208CFF00FF80E200E000B585B0FA48007810
:205B8000C0F34000C0B1F94800680290F748283800680490F548243800680390049801900A
:205BA00002980090019800F07F03C0F30622C0F30541EFA0FCF73CFBEB480078C0F3800045
:205BC00020B1F448016DF4A0FCF732FB05B000BD10B5FCF767FD0446F34801882046FCF7A1
:205BE00065FDB0F5FA7F10D9FCF75CFDEE490880EE48006808B9012000E00020EB49086015
:205C00000846006808B1FFF7B7FF10BD2DE9F0432DED048BA1B0804600201E901F90209066
:205C200014271EAAE2A1404604F0C8FF00240AE0E04800EB041041681EA805F089F908B9C1
:205C4000274602E0641C142CF2DD00BF142F71D2DFE807F00A597794C0D7DDFCFBFAF9F89F
:205C6000F7F6F5F4F3F2F1F01BAAD3A1404604F0A5FFD3A11BA805F06BF938B9BA48006846
:205C800020F00100401CB84908603BE0CDA11BA805F05EF938B9B448006820F00200801C93
:205CA000B14908602EE0C8A11BA805F051F938B9AD48006820F00400001DAB49086021E02D
:205CC000C2A11BA805F044F938B9A748006820F008000830A449086014E0A348006820F028
:205CE0000100A14908600846006820F0020008600846006820F0040008600846006820F029
:205D0000080008607AE21AAAB1A1404604F056FF95491A9848601A9820B1012806D00228EE
:205D20000DD108E0ACA0FCF783FA08E0B0A0FCF77FFA04E0C9E3BCA0FCF77AFA00BF00BF6C
:205D4000E0E71AAAA2A1404604F038FF86491A9888601A9820B1012806D002280CD107E0EB
:205D6000B8A0FCF765FA07E0BCA0FCF761FA03E0C8A0FCF75DFA00BF00BFF2E30020FDF7EC
:205D800078FC00EE100AB8EE400ADFEDC90A20EE200A10EE109A484607F042FF41EC180B02
:205DA0000120FDF766FC00EE100AB8EE400ADFEDC00A20EE200A10EE109A484607F030FF4A
:205DC00041EC190B8DED008B53EC192BB9A0FCF72FFAC6E31AAA7EA1404604F0EFFE1A99CF
:205DE00009B1012100E000210846FCF707FA1A9808B1BBA000E0BBA00146BBA0FCF718FADC
:205E0000AFE3FFF761FCBFA0FCF712FAA9E31BAA69A1404604F0D2FE5E48B0F87C00C0F31D
:205E20000A00BD4908601BA804F0FCFFBA490873002412E048E30BE3FDE2D6E2B9E2A5E2D2
:205E400004E2DCE16BE051E04AE032E01EE01BA8015DB148001D0155641C1BA804F0E2FF44
:205E6000A042F4D80020AC49487388730846FFF7F0FD0020A94908601BA804F0D3FF8146AE
:205E80004A461BA9A6A0FCF7D3F96AE31AAA50A1404604F093FE1A98C0F30A003D49C86778
:205EA0000846B0F87C00C0F30A01A6A0FCF7C0F957E31AAA46A1404604F080FE1A98C0F37E
:205EC0000A053448C0F8805000212846FFF77FFC30482A46D0F8A010A0A0FCF7A9F940E357
:205EE000FFF7F3FDAAA0FCF7A3F93AE31AAA38A1404604F063FE1A98012803D10005A949A8
:205F0000086002E01020A74908601A9808B9A6A000E0A7A00146A8A0FCF78AF921E318A806
:205F200019AB1AAAADA10090404604F047FE032819D11A99179861F3154017901999179814
:205F400061F30E201790DDE9170161F3060017901798FCF725FE179800F07F03C0F3062278
:205F6000C0F3054140E142E124230020282800400D0A53796E63682054696D65203D202580
:205F80003032583A253032583A253032582E2564000000002C2100200D0A4A6F7973746958
:205FA000636B203D20256400DC020020D80200202539730040DE0008252A7325387300008C
:205FC00061646300737400006A73000074726A00252A7325640000000D0A41505420527854
:205FE000206D6F6E69746F72206F66660D0A00000D0A415054205278206D6F6E69746F72F9
:020000040800F2
:20600000206F6E2C2053746174757341636B732077696C6C206E6F74206265207072696E28
:206020007465640D0A0000000D0A415054205278206D6F6E69746F72206973206F6E0D0AEE
:20604000000000000D0A415054205478206D6F6E69746F72206F66660D0A00000D0A415016
:2060600054205478206D6F6E69746F72206F6E2C20537461747573557064732077696C6C77
:20608000206E6F74206265207072696E7465640D0A0000000D0A415054205478206D6F6E29
:2060A00069746F72206973206F6E0D0A00000000333353380D0A414443206368616E6E65B5
:2060C0006C733A2053554D203D20252E3266562C20524546203D20252E3266560D0A0000D6
:2060E0006F6E00006F6666000D0A43414E207465726D696E6174696F6E2069732025730D14
:206100000A0000000D0A43414E20737461727465642E0D0A0000000080230020D402002077
:206120000D0A43414E206D73672073656E743A20222573222C2025642062797465732E0DA8
:206140000A0000000D0A43414E2049442073657420746F2025640D0A000000000D0A4341D5
:206160004E2052782066696C746572206E756D6265722025642C20776974682076616C750F
:20618000652025642061646465642E0D0A0000000D0A43414E2073746F707065642E0D0A4D
:2061A0000000000018040240696E7075740000006F757470757400000D0A53796E63682064
:2061C00070696E2069732073657420746F20626520616E2025730D0A00000000252A732581
:2061E0005820255820255800F1A0FCF721F8F948006820F00200801CF6490860B1E118A820
:2062000019AB1AAAAFF22C010090404604F0D6FC1A99179861F3154017901999179861F3E5
:206220000E201790DDE9170161F30600179000211798FCF7DDFC179800F07F03C0F3062212
:20624000C0F30541E4A0FBF7F3FF8AE11AAAAFF28021404604F0B2FCE8480468E748283819
:2062600000681890E54824380068189817901798C0F303401799C1F3015101EB810100EB12
:20628000410019901798C0F303201799C1F3023101EB810100EB41001890179800F00F0008
:2062A0001799C1F3021101EB810100EB41064FF46161199848431899C1EB011100EB8100AB
:2062C00030441A9908441A90CD491A9890FBF1F201FB12001A904FF461611A9890FBF1F090
:2062E00019900A21199890FBF1F1179861F3155017900A21199890FBF1F201FB1201179895
:2063000061F3134017904FF461611A9890FBF1F201FB120019903C21199890FBF1F0189031
:20632000199890FBF1F201FB12060A21189890FBF1F1179861F30E3017900A21189890FB94
:20634000F1F201FB1201179861F30B2017900A2096FBF0F1179861F3061017900A2096FB5F
:20636000F0F100FB1161179861F30300179021461798FCF73DFC179800F07F03C0F30622E4
:20638000C0F3054194A0FBF753FFEAE01AAAAFF2C031404604F012FC1A98FCF781FB1A9811
:2063A00008B198A000E099A001469AA0FBF740FFD7E01AAAAFF2E831404604F0FFFB1A98C6
:2063C000FEF774FE50B999491A98C1F8B4000846D0F8B41096A0FBF72BFF05E09348D0F898
:2063E000B4109AA0FBF724FFBBE018A819AB1AAAAFF218210090404604F0E0FB1A99179886
:2064000061F3154017901999179861F30E201790DDE9170161F3060017901798FCF7BBFB6B
:20642000179800F07F03C0F30622C0F3054193A0FBF7FEFE95E09B48006800F0040010B9C9
:2064400099A0FBF7F5FE4FF48020A149086088E015AB16AA9FA1404604F0B0FB159807F0F8
:20646000DFFB41EC180B169807F0DAFB41EC190B8DED008B53EC192B98A0FBF7D9FE9DED14
:20648000160ADFEDA60A20EE200AA548D0ED030A80EE201A8DED161A9DED150ADFED9F0A01
:2064A00020EE200AD0ED040A80EE201A8DED151A72B69DED160A5D4880ED060A9DED150AEB
:2064C00080ED070A62B64CE04BE04248006820F00100404908600846006820F002000860AB
:2064E0000846006820F0040008600846006820F0080008600846006820F0100008600020D6
:206500004860886087A0FBF793FE002423E0884800EB04108068007840B9854800EB041026
:2065200084A1426801A804F085F90BE0804800EB041083687E4800EB04107FA1426801A89C
:2065400004F078F97A4800EB041001A9C2687CA0FBF76EFE641C142CD9DB7CA0FBF768FEDF
:2065600000BF00BF21B0BDEC048BBDE8F08310B54F217748FBF77DFE044654B104E00022C6
:206580002046641C72490A544F2CF8DD7048FFF73DFBFBF7CFFE10BDFEB5FFF7E8FFFFF7B4
:2065A00017FBFFF7B3F9051E01D00024D7E0E3E00D0A5254432074696D65207365742074C6
:2065C0006F20253032583A253032583A2530325800000000242300200D0A52544320616CC7
:2065E00061726D2073657420746F20253032583A253032583A25303258000000282800402B
:20660000805101006D61737465720000736C6176650000000D0A5254432073796E63686557
:206620006420617320612025730000002C2100200D0A53796E6368206D6F6465207365740F
:2066400020746F2025642E0D0A0000000D0A496E76616C696420706172616D657465722C5E
:206660002073796E6368206D6F64652072656D61696E732025642E0D0A0000000D0A525456
:20668000432077696C6C20737461727420617420253032583A253032583A253032580D0A54
:2066A00000000000100C02400D0A55736520706F77657220627574746F6E20746F20747523
:2066C000726E2063756265206F66662E0D0A000018040240252A7325662566000D0A436C7F
:2066E0006F736564206C6F6F7020706F736974696F6E20736574706F696E7473203D2025D5
:206700002E336620616E642079203D20252E3366205B566F6C74735D0D0A0000CDCC4C452C
:20672000142100200D0A4D656E753A0A0000000040DE000825733A0025732025733A000092
:206740000D0A252D31387309257300000D0A3E0030230020281D005D0DF80400641C287BBD
:20676000A042F7DC0021601C0DF800102A7B6B463DA02968FBF75CFDFFF7E0F906464EB189
:206780004248006830B9314641A0FBF751FD01203E490860FEBD10B54548006820F0805021
:2067A0004349086043A0FBF743FD10BD10B50446214648A0FBF73CFD10BD00E000BFFDE72A
:2067C0002DE9F04705460C46002628881FFA80F9012C05D146484068022801D1012000E031
:2067E00000200643012C09D141484068012805D140F68200814501D0012000E00020064340
:206800002CB93B488068022801D1012000E0002006434CB936488068012805D140F68100A1
:20682000814501D0012000E000200643012E19D1012C01D12FA100E030A10846FBF7F8FC8A
:20684000287900F0800008B1A87800E0002000F10608002704E0E95D2AA0FBF7E9FC7F1CC2
:206860004745F8DBBDE8F0870D0A43414E2052782066726F6D2025642C2025642062797409
:2068800065733A20222573220D0A0000D40200200D0A43414E206572726F723A2073746108
:2068A000747573203D20307825582E0D0A00000004ED00E00D0A46656174757265206E6FE4
:2068C000742079657420696D706C656D656E7465642100000D0A535643206E756D62657251
:2068E000202575207761732063616C6C65640000242300200D0A52783A2000000D0A547869
:206900003A200000253032582000000008B53148006840F002002F4908602F48006820F47B
