:020000040000fa
:08000000000c040000000000e8
:020000040000fa
:08020000000c00000a000000e0
:020000040000fa
:101800000fd521000e7f22000e018800000000008d
:101810000c00070020ad220001002000110007008d
:10182000000020000000e000020032000000020082
:1018300000000000ae350200000000000040da00a9
:101840000000fe004440a900202e20000000e0001f
:101850000300320000002000a00188004440a800de
:101860000000060091018800800078000000eb0075
:1018700015003700e280400032a0b4009101ba00a8
:10188000e280400032a0b4009102ba00e280400041
:1018900032a0b4000002eb00472bde00f507b200d7
:1018a000602ce10004003a000059eb008301e900dc
:1018b000fdff3e00040037006128e1000100320016
:1018c0000082eb00040007001101ba000200e000f2
:1018d000e8ff3a00000006003159ba008301e90030
:1018e0000c0032002159ba008301e90008003200df
:1018f0000400e00003003a00e280400032a0b4009f
:10190000f5ff370011d9ba008301e900faff3a0068
:101910008100e800e180400032a0b4000000060031
:101920000a00fa0080017800e20f500028003e0013
:1019300070ea8000e10f5000080032008023200090
:101940000000e000050032000423200025232000d1
:101950004623200080017800040037000422200084
:1019600025222000462220008322200014409000df
:101970000004e000040035008009eb0014409000f2
:101980000074a00010429800154090000028a300a9
:1019900003003a00154090000024a00090429800f7
:1019a0008001eb0007003700154090000008a300fd
:1019b000fdff320063c078000000fb00000b7800e0
:1019c0008301e800828f5100f7ff3a0008003700da
:1019d00030002000b0bf9f00c3bf9f00d1bf9f0059
:1019e000e2bf9f006a80570000c0da006fb997001d
:1019f000020078000080fa00000006002800fa00cb
:101a0000889fbe008a9fbe008c9fbe0003866b002d
:101a1000400307000028a30064003a000128a30047
:101a200067003a000008a30062003a000108a30022
:101a300065003a001e009000be089000810640003c
:101a4000ed3fb100f4805700ee019000111ab8008c
:101a50008e099000311bb8009e099000311cb8001f
:101a6000511db800f485570046000700fe019000a4
:101a70003a0007008b85e8003e0007008e099000c1
:101a800040000700ee019000340007008b85e8005d
:101a9000380007008e099000400007009e09900062
:101aa0001b18b800890440000a854800fe01900018
:101ab000340007008b85e80038000700ee01900035
:101ac000300007008e0990001b18b8008904400000
:101ad0000a8548000a98a30008003a000402420060
:101ae00085824a0006034b0087834b0008044c00a4
:101af00089844c000a054d008d06e900848272003d
:101b0000850273004c3add0085027200010032004c
:101b100015002000443ade001400b2004538de0013
:101b2000cb45dd000b007000c540de00cb4ddd0075
:101b30008b8070004549de00cb55dd000b01710044
:101b4000c551de000d0378000b03070003f0a10070
:101b50000cf0a70003f0a000020337001b18b80028
:101b60008502400006834800e0834b0060044c007f
:101b7000070037001b18b8000603400087834800a1
:101b8000faff37001b18b80087034000088448009c
:101b9000e0844c0060054d00000006001b18b800f2
:101ba0000804400089844800faff37000108a300b8
:101bb000e9023a005800be005801be00e3ff3700ba
:101bc0000008a300e4023a0009047800f9ff370096
:101bd00081037800140307000001be006000b80014
:101be0000478a30013003a006220e10015003e00d3
:101bf0000d0039008301d1000281d3008180d30020
:101c00008301d1000281d3008180d3008301d10000
:101c10000281d3008180d3000538b000c42add00e2
:101c2000f300b2008381720007f0a70003f0a00068
:101c300000000600f3ff2700f2ff2f006110b9003b
:101c4000fbff370003ff2700f7ff37008f1fd1008e
:101c50000a0307008f87e9000000e000000006008b
:101c6000801feb00050307008f87e9000000e000fc
:101c7000000006001400fa00889fbe008a9fbe0084
:101c80008c9fbe000005be000206be006800470033
:101c90000c90be000a90be00210307006400e10022
:101ca0001a00320016003e006100e1001a00320006
:101cb0006e049000fe0490000e0b90009e0b9000ae
:101cc0006011b8009e0590000b38b100d5012000ce
:101cd00082817100610164008703d1000683d30013
:101ce0008984d3000884d3008502e900f8ff3a0014
:101cf000320307000df0a70001f0a00099023700a1
:101d0000f1ff2700f0ff2f009602370001f82700af
:101d100000002000f7ff37006000b800f5ff370033
:101d20004c0307000509780000000600809feb00c7
:101d3000d20207008f87e9000000e00000000600e3
:101d40002800fa00889fbe008a9fbe008c9fbe00bc
:101d500003866b006f0207006400e100440032005c
:101d60006408e1004a0032006100e10046003200f0
:101d70006108e10049003200ec0647006000b8004d
:101d80003d02be003d03be00f48657006011b8005e
:101d90003d04be003d05be007d0320000b00370062
:101da0000000a0008d06e90013003200040242008a
:101db00085824a0006034b0087834b0000004000e9
:101dc00081804800020149008381490008025200d5
:101dd00089825a000a035b008b835b00f0ff3b00a3
:101de0000802420089824a000a034b008b834b00a1
:101df0008d06e900edff3a0084827200868272004f
:101e0000f707b2008782720001003200150020003f
:101e10001e0490003e0b900006035400e63fb00005
:101e20000368a300070032000000a7000500a0001f
:101e30008301d1000281d3008180d3000080d300d0
:101e40000603e8008301d1000281d3008180d30022
:101e50000080d3000002eb000482d200460207009b
:101e600003f0a1000cf0a70003f0a0003d02370032
:101e7000640247006408e100370232003400be000b
:101e80003401be00f6ff37006108e1003202320083
:101e90006011b8006000b800f1ff370003ff2700b1
:101ea00002002000fbff37001400fa00889fbe00ec
:101eb0008a9fbe008c9fbe000004be000205be00cb
:101ec000680047000a90be000890be009402070018
:101ed0000070a7000bf0a1000bf8a30016003a0059
:101ee0009e0290003043200080825200b0fe2f00fe
:101ef0000028e1000d003c00b0fc2f000028e100ac
:101f00000d0034001e0990008e0890007e009000a5
:101f10000501b0000201d1008180d3000080d30010
:101f20008502e800fbff3a000e023700010028009e
:101f3000000020000b0237006000b80009023700e3
:101f40004f89de0082017800bb0137002800fa00cb
:101f5000889fbe008a9fbe008c9fbe000706780047
:101f6000878669000c003b00030478008704780032
:101f700008f0a10009f0a100840f5000858f5800df
:101f8000860f5900890f5c00030033000cf0a2009b
:101f900001003a000cf0a100de0107006400e1003e
:101fa0005f003200780147006408e1006100320000
:101fb0006c014700748557003200be001201be005c
:101fc0003a04be001a05be001e039000be0a90002f
:101fd0008503530006003d000004fd008104fd0060
:101fe0000205fd008305fd008703ea000503780074
:101ff0000df8a3000400320060041400e0841c000b
:1020000060051d00e0851d006022b8007d032000f2
:102010000d38e1008006eb000b0039004433dd0091
:10202000f300b2008301730039003700848272002c
:102030000d027800e10664008b85d1000a85d3008b
:102040008984d3000884d3008703e900f7ff3b00ad
:1020500008004000898048000a0149008b8149003e
:1020600004003b0060001000e080180060011900cf
:10207000e08119000358a300090032008d8272002c
:1020800084827200610260008301d1000281d3006a
:102090008180d3000080d3000603e8001b003700d6
:1020a0000348a30017003a000600e00017003400c0
:1020b0000603e9000d00a3000000480081804800ed
:1020c00002014900838149000348a3000f003a0040
:1020d0000600e000090034000603e90000004000ab
:1020e00081804800020149008381490001003a00d3
:1020f0000003eb000348a300f5ff32006022b800a4
:102100000200370084827200618266009a01070033
:1021100003f0a1000cf0a70003f0a000910137002c
:10212000640147006408e10002003a000df8a300d2
:1021300089013a003200be001201be008901370059
:1021400007f0a20081ff3700881f780000047800a4
:102150005001be004000be000400400085804800e1
:102160000601490087814900009cbe000294be0020
:102170000400e1000588e1000690e1000798e10015
:1021800002003100680044001008e8004f047800a5
:1021900000000600f4874700889fbe008a9fbe00ab
:1021a0008c9fbe008e1f78000205be000004be009a
:1021b000d4b79f00e5b79f00f6b79f0087bf9f0089
:1021c0000000eb00c0b79f00b0b79f00a0b79f0012
:1021d00090b79f0080b79f000d042000bfb097000c
:1021e0004fb09700000140000000e0000f003d00ec
:1021f0004f08de0000007100c0b79f009e0007007e
:1022000001003d0012002000a100070001003d0078
:1022100012002000a6000700b1000700b60007006a
:102220000f004000c8ff0700220037004f08de0003
:1022300000067100ccb79f008f00070001003d0031
:10224000120020009200070001003d001200200053
:1022500097000700a20007000fb297009fb29700f7
:102260002fb39700bfb39700a900070000005200ea
:1022700081805a0002015b0083815b0080b79f0070
:1022800091b79f00a2b79f00b3b79f000007eb0074
:102290009f0007000020e10001a8e10002b0e1007a
:1022a00003b8e100010031001e0020000e005600be
:1022b000c0b79f004fb297000400e0000700350050
:1022c00010002000010020006011b8000804700018
:1022d000898470000a0571008b8571008d06e90004
:1022e000beff3a000400e00003003d00820007004a
:1022f0000f00400094ff07004fa897000000e00087
:1023000004003a000fb497009fb497002fb59700d0
:10231000bfb59700940007004f0778004f06be0036
:102320004f05be004f04be004f01b1000000060083
:10233000881f780018002000881f780095ff07008c
:102340008f87e9004f04780000000600801feb0033
:1023500090ff07008f87e90000000600889fbe00fd
:102360008a9fbe008c1f78006e00070007003d00aa
:1023700073000700e00f5b00e08f5b0007003d008b
:10238000320007000006eb000400370034000700ad
:1023900002003d002a0007001c0020007200070018
:1023a000e3ff07000203be000002be000c00e000d5
:1023b00001003200220007000400be000601be003a
:1023c0004f0678004f05be004f04be000000060017
:1023d000889fbe008a9fbe008c1f780051000700b6
:1023e00005003d0056000700e00f5b00e08f5b003a
:1023f00006003d00040037001900070003003d00ff
:102400006000b8006011b800100007005600070017
:10241000ceff07000203be000002be000c00e00079
:1024200001003200060007000400be000601be00e5
:102430004f0678004f05be004f04be0000000600a6
:102440006000b8006011b8000000370004025000be
:102450008582580006035900878359000000060052
:102460000006eb00e00f5200e08f5a00e00f5b0027
:10247000e08f5b00000006000180400090b79f00e5
:102480000001eb008fb097000100e00000000600a3
:102490000200700090b79f000180400080b79f004d
:1024a0000001eb00ffa897000100e000000006001b
:1024b0000200700080b79f00018040006faa970063
:1024c000cf20de0001007000f0af9f000402420048
:1024d000250007004f18de00000272000000060011
:1024e000e4af9f000804440089844c000a054d00b5
:1024f0008b854d00000006003fb29700cfb29700d9
:102500005fb39700efb3970000fe2f0000000600b6
:102510003fb09700cfb097005fb19700efb1970041
:10252000000006000205be000004be00e00f5000df
:10253000e08f5800e00f5900e08f590000000600be
:102540006000b8006011b800080450008984580089
:102550000a0559008b8559001c002000e00f52002d
:10256000e08f5a00000006000800be000a01be000d
:10257000000006001400fa00889fbe008a9fbe007b
:102580008c9fbe000004be000205be00680047002c
:102590000a90be000890be00e10007000070a7008e
:1025a0000bf0a1000bf8a30020003a009e09900058
:1025b0000e099000fe0090006e0090009e029000b8
:1025c0003443200084825200660032000a003c003e
:1025d000b4fc2f000428e100140034008301d10072
:1025e0000281d3008180d3000080d3008502e800ff
:1025f000faff3a005b003700b40020000428e10035
:1026000007003c00000040008180480002014900b2
:10261000838149008502e900faff3a005100370042
:102620000300280002002000010037006011b800fc
:102630006000b8004b003700889fbe00830478001c
:102640000300e0002c00350003003c000082700015
:10265000040271002600320036432000c50020002d
:102660008383cf000a0039000541b1008283cf0087
:10267000070039000541b1008183cf000400390013
:102680000541b1008083cf00010039000541b10050
:1026900085c353006022b800120032000a003b00dc
:1026a00084827200610260008301d1000281d30044
:1026b0008180d3000080d3000603e8008743e80050
:1026c000f7ff3a0007003700000040008180480013
:1026d00002014900838149000603e9008743e900bc
:1026e000f9ff3a002400070009f0a70003f0a0005a
:1026f0004f04be000000060060001000e0801800db
:1027000060011900e0811900d3ff3b00033e2c005b
:10271000f7ff3700680447000294be000094be0033
:10272000fc0447008694be008494be000900780033
:102730007b00070008007800790007009900780006
:10274000814f70000b003b000800be00ce00070068
:102750004f00b10003003700f3ff2700f2ff2f0006
:102760006110b9004f06be004f05be004f04be0009
:102770000080fa000000060018002000570020002a
:10278000080453000d003d000600200097fc2f00b8
:102790000740e1001e003400848272006102600084
:1027a0008301d1000281d3008180d3000080d30057
:1027b0000804e800f8ff3a004700200061046000c8
:1027c00005047400040464000d0032006100400040
:1027d000e080480060014900e081490003b8a5009d
:1027e000070032000603e8006538e10004003a0003
:1027f0008301d1000281d3008180d3000080d30007
:10280000f87f20000830e10003003500080378005d
:102810006000b8006011b8004433dd00f300b2007e
:102820008301730000000600c70ade00f107b20052
:10283000f50fb20008003200e1cf42000200320082
:102840000170a00024000500810f7000010032001b
:102850000408050044000500810f700002003a00e2
:10286000140005008502e9000000400081c0480016
:10287000fcff3b000170a00024000500889fbe0003
:102880008a9fbe008c9fbe000404be000605be00e9
:10289000809fbe00829fbe0089000700040678006a
:1028a0000800be000a01be0085000700840678000b
:1028b0004f03be004f02be008d4f76007fb09700e1
:1028c00013003300f0ff2f008b8f6b0006003b00de
:1028d0000d0666000c00a7000a00370007f0a600ee
:1028e000100020000a003700880f5200898f5a001c
:1028f0008a0f5b008b8f5b00030039001000200003
:1029000001003e000000200007f0a7000000ea00e0
:102910004f06be004f05be004f04be00000006007b
:10292000800078005002be005003be004439de0033
:10293000f700b200f37f20000301610009003200bc
:102940000218e10016003a0085017200830173004d
:10295000838173000008200015003a004000200029
:1029600013003700850172008301730083817300b7
:1029700005003a0004a8be0006a8be001000200012
:102980000b0037000201e9000402420085824a0080
:1029900006034b0087834b000748a300f9ff320072
:1029a0000740a00004a8be0006a8be00200020002a
:1029b000800098009200980000000600810020002e
:1029c000618055000b003d000b00200061fe2f00d0
:1029d0000100e1001d00340082817100610164008a
:1029e0008904d1000884d3000000e800faff3a000f
:1029f00071002000610064000300700002006000ac
:102a00000900320061044400e0844c000988a500fc
:102a1000050032008b05e8006808e10002003a007a
:102a20008904d1000884d300f20f20000258e1008d
:102a300005003d00c75ddd00f907b2008980750023
:102a400008007800000006000bf827008b007800d3
:102a5000000005000003be0073ff07006220e100d4
:102a6000020032000600be0005000500e507b100c7
:102a7000f107b20004f023008480700007f0a70083
:102a800001f0a00024000500e48240001078a300bb
:102a900007003200640240001178a3003400be0039
:102aa0001401be00040032000330a700000006003d
:102ab0003500be001501be000330a0000000060076
:102ac00005ff270005826100070032000428e100ad
:102ad00001003200240005000600070001003a0052
:102ae000440005000408050002000700f9ff3a0051
:102af000140005006f826100810270008502710080
:102b000085027200000006000c00fa00889fbe00db
:102b100000047800f0ff2700d0bf9f008004eb0086
:102b200099bf9f0088bf9f00a8bf9f00200c200076
:102b3000b0bf9f0070805700b10007000fb897002a
:102b4000094878000fb89700080450000800780082
:102b50004f04be000080fa0000000600889fbe00ff
:102b60008a9fbe0080407800d0c6b30080cf50005e
:102b7000290036000185fb004206200011000900f3
:102b80000285d80000017800010478004311dd00bf
:102b90008baf21000b0141006022b800060020002d
:102ba00007fe23000288900092889000b28990006e
:102bb0002289900091fb0700a9002000809fbe00a1
:102bc000110009000984d800000478004f00be00fd
:102bd0004344dd000b04440048229000d8229000ba
:102be00068239000f823900084fb0700801f780082
:102bf00001027800110009000985d8000102fd00da
:102c00004f0078004322dd000b0242005403be0057
:102c10004402be001f0037000180fb0089af210085
:102c2000eacf500014003600a20020001100090075
:102c30000280d80000017800010478004311dd0013
:102c4000090141006022b8000600200007fe2300b1
:102c500042209000d2209000f2219000622190004a
:102c600066fb07004344dd00090444003802be004f
:102c70002803be00070037004300dd0009004000c4
:102c80006022b8000600200007fe23005001be00ad
:102c90004000be0059fb07004f05be004f04be00b8
:102ca00000000600889fbe008a1f780080407800e0
:102cb0000004e00021003d008040ea00d0c6b300df
:102cc00080cf5000090034008104fb004206200040
:102cd000110009008204d80000017800010078008a
:102ce0004311dd008aaf21001f0037000100fb0007
:102cf00083af210039003700a20020001100090035
:102d00000200d80000017800010078004311dd00c6
:102d1000030141004300dd00030040003002be001b
:102d20002003be0042209000d2209000f2219000ab
:102d30006221900031fb07002e003700d0c6b3009f
:102d400080cf5000230034008104fb0042062000a5
:102d5000110009008204d800000178000100780009
:102d60004311dd008aba21000a014100a8002000b9
:102d7000110009000800d8004300dd000a004000ef
:102d800040229000d022900060239000f023900019
:102d90000288900092889000b28990002289900069
:102da00016fb0700801f780001027800110009005f
:102db0008804d8000102fd004f0078000402fb00e7
:102dc0004322dd000a0242005403be004402be005a
:102dd000d8ff37000100fb0083ba2100eacf500082
:102de000c5ff3c004300dd00030040005001be0071
:102df0004000be004f0578004f04be0000000600f2
:102e0000ef04b000889fbe008a9fbe008c9fbe006a
:102e10008e1f78006022b8006033b800e4a79f00de
:102e2000f5a79f0086af9f0097af9f00a0af9f00c0
:102e3000b1af9f00c2af9f008002eb00a5a79f002b
:102e4000d00737008001eb0050c2b30080cf5000a4
:102e5000090032000100fb00afa89700d607070069
:102e6000e10f4000c70732002fa397000603e800d8
:102e7000a6a79f00c3073700bfab97009740780015
:102e8000b0c2b30080cf50001900320007003c00f0
:102e90006b40500080cf5000100032006340400073
:102ea00080cf500021003a0016003700d0c2b30096
:102eb00080cf5000040032006340400080cf5000bb
:102ec0001a003a00140037000330a0003fac97000e
:102ed0000804e800b8af9f00e7ff37000300a00038
:102ee000bfac97008904e800b9af9f00e2ff37004c
:102ef0000310a0003fad97000a05e800baaf9f009d
:102f0000ddff370003b0a000bfad97008b05e800e0
:102f1000bbaf9f00d8ff37000320a0003fa8970059
:102f20000000e800b0af9f00d3ff37000318a300f4
:102f3000010032000300a1000338a30001003200a9
:102f40000320a1000100fb0002fd2f000200400051
:102f5000e90f500010003e008000eb00e1979f0059
:102f6000020278006f9197006a10b900bfaa97001b
:102f70001501fb000001410004014100e2979f00a0
:102f80005500fb00b5af9f0004004000e90f500062
:102f90000d003e00f3ff37000003eb00e6979f00b3
:102fa000a0c2b30080cf500007003a00cfab97001b
:102fb00047047800c7af9f00e8979f00bfac970019
:102fc0008904e800b9af9f00e0c2b3003fad9700ad
:102fd0009a4f100021003a00830678000de0a0000f
:102fe0008a00e80064405000914f10000400320055
:102ff000b1af9f008005eb00bba79f00100037001a
:103000004fa89700c0007800c0af9f00b1a79f00f5
:103010003fa997000281e800b2af9f00130037007c
:103020003fa297006a20b900000041000300400061
:10303000b0a79f00bfaa97008502e800b5af9f0028
:103040003fab97001601fb0003fd2f00030041007a
:10305000e90f5000f2ff36000400370083067800c5
:103060000dc0a0008003eb00b7a79f003fac970006
:10307000b8407800b8af9f00e1679f0070c6b3000a
:1030800080cf50003c00320017003c0064405000ec
:1030900080cf50008f0032000e003c007c4050007a
:1030a00080cf50003300320006003c000104e000f5
:1030b0003a07320000c0e90080cf5000aa003a0071
:1030c0002900370080c5b30080cf5000a6003a0029
:1030d0002d00370050c6b30080cf500023003200cf
:1030e0001f003c00a700370000c7b30080cf50008e
:1030f000250032000a003c006440500080cf5000a0
:10310000110032006340400080cf50001c003200ac
:103110006640500080cf500093003a00990037007d
:1031200050c7b30080cf500095003200634040008c
:1031300080cf5000150032006540500080cf500015
:1031400089003a0013003700000028000d48a30052
:1031500001003a000001200080867600c3ff37009e
:103160000da0a000870037000d50a0000d80a0002a
:10317000840037000d50a0000d90a00081003700a2
:103180000d60a0007f0037000d50a0000d70a00062
:103190007c003700cfac970049007800c9af9f0092
:1031a000e0a79f000000e00002003a008bcf210062
:1031b000eba79f000000eb00f0a79f000200370084
:1031c0008100e800f1a79f00ffa097006fa1970082
:1031d000028040001004e000f9ff3a00bfa1970010
:1031e0000300e000040032007fa29700848f5100aa
:1031f00001003100f3a79f007fa097000005eb00be
:103200006f939700800f53000100360000055300b4
:103210004368de00e104600019003a000904780008
:1032200009003700afa8970000022000e20607005f
:10323000e10f400003003200afa397008703e800ce
:10324000a7a79f000804e8008a0f5400f5ff3a0082
:103250000085eb000a003700efa097003100fb006b
:10326000e1a79f00afa89700d3060700e10f400039
:10327000030032002fa497000804e800a8a79f00cd
:10328000ffa597000b00e900f0a79f00e10f4000a9
:10329000f1ff3a000004eb000900e0000a003a00e8
:1032a000b8063700afa8970000022000c20607004a
:1032b000e10f4000030032002fa197000201e80057
:1032c000a2a79f000804e8008a0f5400f5ff3a0007
:1032d000ac063700cfa9970043007800c3af9f002a
:1032e000cf80de0001017800820178000203be0079
:1032f0000002be00e0a79f00f1a79f0082af9f00e1
:1033000093af9f004822de00482cdd0004027400c9
:10331000e4679f000d48a3000c0032000404e000a5
:103320000a003200e14f42000800320079fa2f0013
:1033300009804700044878004fcd97001a40980054
:103340002b002000fba79f0003003700f0679f00c1
:1033500010002000f0a79f0071fa2f008180470025
:10336000e1a79f009dff370062fa2f000f01410087
:10337000e2a79f0013002000f3a79f0097ff3700ec
:103380000d0cb30000702000008266008204320041
:103390000dc8a3000200320064002000b4a79f0003
:1033a0000d48a300090032004fa897004005be0059
:1033b0004004be00c0af9f00e89f9f00f99f9f00a0
:1033c0008aa79f009ba79f00080037004fa997007e
:1033d0004200be00c2af9f00fdf90700e09f9f00c2
:1033e000f19f9f0082a79f0093a79f006022b800d3
:1033f0006033b8006f989700ff9897000fa197006f
:103400009fa1970011fa07000000e0000a003d00ac
:103410006f9a9700ff9a97000fa397009fa39700ba
:1034200007f0a200e49f9f00f59f9f0086a79f00e2
:1034300097a79f003d00b3000000eb00d0979f00ce
:103440006022b8006033b8006f989700ff9897002b
:103450000fa197009fa1970001fa07000000e0006c
:10346000340032006f989700ff9897000fa19700e3
:103470009fa19700fff90700a5fa2f0005814700db
:1034800027fa07005f9097000000e9006300b90089
:10349000a2002000110009000200d8008000fd00f9
:1034a000d1979f000100e00002003d000100e9000b
:1034b000d0979f005f9497000840ea00f9fd07004d
:1034c0006f9a9700ff9a97000fa397009fa397000a
:1034d0004af90700a09f9f00b19f9f00c29f9f00d5
:1034e000d39f9f006022b8000600200007ff230042
:1034f000d6f907000000e00002003d000800e900e6
:103500000b0037006022b8000600200047022400ac
:103510002f989700bf9897004f999700df999700d1
:1035200002fa07000000e000020035000800e80091
:10353000d0979f005f939700d6a79f000600e000fa
:1035400003003c0010c0b300e0679f00020037009a
:10355000afcb9700e7679f000d0678000c10b20014
:1035600008003a000d98a300770232005fa497008c
:10357000e40f440003003500bfa49700890f5400f6
:10358000f20135003fa597000a00e0000400320078
:103590000d98a300020032000a05e900baa79f00b7
:1035a000bfa5970020c1b300f28f550001003e0077
:1035b0006fc09700e0679f006022b8006033b800da
:1035c0006f989700ff9897000fa197009fa1970011
:1035d000a3f907000000e0006d0032006f6597005e
:1035e000afc897000ac05000aefd07000002be0041
:1035f0000203be006f989700ff9897000fa19700f5
:103600009fa19700cef90700e09f9f00f19f9f00c8
:1036100082a79f0093a79f0023fa07000004be0023
:1036200047fa0700e00f5400e08f5c0004003d0003
:103630006022b80006002000071f240043fa07009c
:103640000002be000203be006f989700ff9897002b
:103650000fa197009fa19700b9fa07006022b80058
:103660000600200007fe2300b0f907000000e0007c
:103670000c0035006022b8000600200007fe230081
:103680006f989700ff9897000fa197009fa1970050
:103690002efa0700e09f9f00f19f9f0082a79f00e6
:1036a00093a79f006f989700ff9897000fa197002e
:1036b0009fa19700fcf907000002be006033b8002c
:1036c0000a00fb004304dd0089c521000900440015
:1036d000d000900060019000f00190004000900048
:1036e0000020e10001a8e10002b0e10003b8e10020
:1036f000100039000400200005002a0096992900d6
:1037000097fb23006f989700ff9897000fa19700f1
:103710009fa19700b9f80700e09f9f00f19f9f00cd
:1037200082a79f0093a79f005fa197000200e80077
:1037300016003700090044005001be004000be00e2
:103740000020e10001a8e10002b0e10003b8e100bf
:103750000f0031006022b80006002000470224005c
:103760006f989700ff9897000fa197009fa197006f
:10377000a2f80700e09f9f00f19f9f0082a79f0093
:1037800093a79f00dfa197000300e900d0979f0057
:103790004968de006100600080cf9f000004e00007
:1037a0004000320000802000008666003d003a00a4
:1037b000bfa29700f48f520002003400460120009f
:1037c000b6a79f006f989700ff9897000fa19700ea
:1037d0009fa19700b4f907000004be000c05780013
:1037e0008c0578000b003700bfa397008703e90022
:1037f000b7a79f00a4002000050020006033b80098
:103800000800be000a01be00c9fa07000205be009a
:103810000004be00e00f5400e08f5c00e00f5d008c
:10382000e08f5d000b003200a400200005002000a6
:103830006033b8000800be000a01be00c3fa0700ea
:10384000e00f5000e08f5800e00f5900e08f590062
:10385000e5ff3200ef6097000100fb003fa49700f6
:10386000800f54000f003d0008c050000dfd070000
:103870000002be000203be006f989700ff989700f9
:103880000fa197009fa197002df90700e09f9f00cf
:10389000f19f9f0082a79f0093a79f00efc497000e
:1038a000e9679f006f959700bfa597000b00550033
:1038b000650650000b00e00002003a000db8a300be
:1038c000010032006606500063806600010032008d
:1038d0000c06e9000d28a30026003200e1806600f6
:1038e0000d18a3000c003200d00220000100e000ff
:1038f00001003a000080e900afa897002e050700fc
:10390000e10f4000180032002fa097000000e800ef
:10391000a0a79f00140037000100e0001200320051
:10392000afa897000002200023050700e10f400028
:103930000d003200afa097008100e800a1a79f0012
:1039400009003700afa89700000320001a05070000
:10395000e10f4000030032002fa197000201e800b0
:10396000a2a79f000c06e9000c00e000f5ff3c0058
:103970002e0037000d38a3000a0032000b0037007c
:10398000afa89700000220000b050700e10f4000e0
:1039900003003200afa197008301e800a3a79f00b6
:1039a0000c06e9000c00e000f5ff3c00e180660039
:1039b0000d18a30013003200d00220000100e00027
:1039c00001003a000080e900afa89700fa04070060
:1039d000e10f4000150032002fa297000402e8001a
:1039e000a4a79f0011003700e8a79f00f9a79f0038
:1039f0008aaf9f009baf9f008042eb00e5679f006e
:103a0000800037000100e00008003200afa89700f6
:103a100000022000e8040700e10f4000030032002c
:103a20002fa397000603e800a6a79f006f989700b2
:103a3000ff9897000fa197009fa197001af9070020
:103a40000004be006055b800ef6397000700fb005c
:103a50004300dd008ec521000e0040003002be0094
:103a60002003be000800be000a01be0030fa0700b5
:103a70000003b000afa89700cf040700e10f40009b
:103a8000030032002fa097000000e800a0a79f00cd
:103a9000ef6097000100fb004300dd000e004000d6
:103aa0003002be002003be000800be000a01be00b6
:103ab00026fa07000205be000004be00e0a79f0032
:103ac000f1a79f0082af9f0093af9f00bfa2970016
:103ad0000500e00002003a000db8a30049003200e2
:103ae000afa89700e0022000b3040700e10f4000f8
:103af000030032002fa397000603e800a6a79f004b
:103b0000ef6397000700fb00bfa097000080500004
:103b1000809f9f00240037000fc997000204e00037
:103b200005003200e00f5400e08f5c00e00f5d0004
:103b3000e08f5d00acff32000000fb004300dd00c1
:103b40008ec521000e0040003002be002003be00e2
:103b50000800be000a01be00f5f907000003b0002e
:103b6000afa8970094040700e10f40000300320063
:103b7000afa197008301e800a3a79f006f629700a1
:103b80000400fb004300dd000e0040003002be00d8
:103b90002003be000800be000a01be00ebf90700ca
:103ba0000205be000004be00ef6297000540e90078
:103bb000e0679f00e14f4000d7ff3a00e8a79f0071
:103bc000f9a79f008aaf9f009baf9f000004eb0006
:103bd00009003700afa89700000320007604070013
:103be000e10f4000030032002fa397000603e80016
:103bf000a6a79f000804e8008f9b9700870f54003a
:103c0000f4ff3a000d58a30009003200afa8970056
:103c10005004200068040700e10f40000c0032004f
:103c20002fa497000804e800a8a79f000800370009
:103c3000afa89700500620005f040700e10f400086
:103c400003003200afa497008904e800a9a79f00f1
:103c50005f9097000000e0000b003d000000ea00cc
:103c6000d0979f00afa89700d00220005204070011
:103c7000e10f40000c0032002fa597000a05e80074
:103c8000aaa79f0008003700afa89700b002200045
:103c900049040700e10f400003003200afa5970080
:103ca0008b05e800aba79f005f909700a80020005d
:103cb000110009000800d8000003b000afa8970069
:103cc0003d040700e10f4000030032002fa09700e1
:103cd0000000e800a0a79f00df90970011000900f6
:103ce0008800d8008000fd000003b000afa8970056
:103cf00031040700e10f400003003200afa097003d
:103d00008100e800a1a79f000d38a3001d04320028
:103d10000c00e0001b0434000004eb00afa8970087
:103d20000002200024040700e10f400003003200dd
:103d30002fa197000201e800a2a79f000804e80055
:103d40008c0f54000f043200f4ff3700dfa19700fe
:103d50000300e00004003d003fa297000300520072
:103d60000000e900b0a79f006f989700ff989700a8
:103d70000fa197009fa19700fef907000205be0062
:103d80000004be000c42780085c521000b003700fe
:103d90000400fb004300dd00050040005001be00b0
:103da0004000be000040e10001c8e10002d0e10097
:103db00003d8e100030039000442e800f44f520048
:103dc000f3ff3a00e4679f000400fb00bfa29700e6
:103dd00000875200f80f57000d003c000e4078009d
:103de0005efb07000002be000203be006f98970052
:103df000ff9897000fa197009fa1970053f8070025
:103e0000e09f9f00f19f9f0082a79f0093a79f00c4
:103e10000e407800a3fb0700d0af9f00e1af9f00ea
:103e2000f2af9f0083b79f00e00f5400e08f5c006b
:103e3000e00f5d00e08f5d00040035000800be006b
:103e40000a01be00fcf90700130037001000200033
:103e5000010020006011b800080060008980600047
:103e60000a0161008b8161008b03d1000a83d300ba
:103e70008982d3000882d300000072008180720022
:103e80000201730083817300ebf907000002be009a
:103e90000203be002df807000002be000203be00b0
:103ea0006f989700ff9897000fa197009fa1970028
:103eb000a3f807000002be000203be005fa897003f
:103ec000efa897007fa997008fb19700cbf6070066
:103ed000a8f907000205be000004be000006eb00c2
:103ee00008003700a4002000050020006033b8005f
:103ef0000800be000a01be000df907000205be0061
:103f00000004be000c035700b6a79f008e0f56009a
:103f10001d0032000c06e800a4002000050020006f
:103f20006033b8000800be000a01be0007f90700b0
:103f3000e00f5000e08f5800e00f5900e08f59006b
:103f4000e8ff320010003700bfa39700f88f53003e
:103f50000d003c000740780000fb07000002be0097
:103f60000203be006f989700ff9897000fa197007b
:103f70009fa19700f5f70700e09f9f00f19f9f002a
:103f800082a79f0093a79f005fa49700e90f5400aa
:103f900015003c006022b8006033b8006f989700ad
:103fa000ff9897000fa197009fa197002cf707009b
:103fb0000000e000360032006f989700ff989700ed
:103fc0000fa197009fa197006af90700e00f50002a
:103fd000e08f5800e00f5900e08f59002c003a00a4
:103fe000e10f54002a0034000400200005002e00d8
:103ff000b6e02200170124002f989700bf98970081
:104000004f999700df99970010f707000000e00034
:1040100003003d00dfa497007380540002003700c6
:104020005fa5970072005500d0979f002f689700fa
:104030001cfb0700a09f9f00b19f9f00c29f9f0095
:10404000d39f9f000002be000203be006f9897003e
:10405000ff9897000fa197009fa1970038f70700de
:1040600044f90700e0a79f00f1a79f0082af9f00df
:1040700093af9f006000b8006011b800d0b79f00f8
:10408000e1b79f00f2b79f0083bf9f003400370065
:104090006f989700ff9897000fa197009fa1970036
:1040a00034f90700e0a79f00f1a79f0082af9f00af
:1040b00093af9f00e00f5000e08f5800e00f5900d1
:1040c000e08f5900020035005bf907001700370048
:1040d00010002000010020006011b8006fa29700be
:1040e000ffa297000fab97009fab97000400600002
:1040f0008580600006016100878161008703d1002f
:104100000683d3008582d3000482d30000007200ae
:1041100081807200020173008381730046f90700f9
:104120000002be000203be0088f707000002be00c6
:104130000203be006f989700ff9897000fa19700a9
:104140009fa19700fef70700d0b79f00e1b79f003f
:10415000f2b79f0083bf9f000000eb00d0979f0045
:1041600014c0b30085c521000f0037000400fb0018
:104170004300dd00050340003600be002601be00fe
:104180006fa49700ffa497000fad97009fad970015
:104190000040e10001c8e10002d0e10003d8e100e5
:1041a000030039000442e800f44f5200efff3a00e8
:1041b000e4679f000400fb00bfa497000080440058
:1041c000df909700010040006f95970000065500b2
:1041d0004b68de0061006000004778000004e000ea
:1041e00002003a000900e000010032000c06e9007c
:1041f00063806600010032000c06e9000d28a30070
:1042000026003200e18066000d18a3000c00320089
:10421000d00220000100e00001003a000080e90027
:10422000afa89700e4020700e10f40001800320039
:10423000afa597008b05e800aba79f0014003700df
:104240000100e00012003200afa897000002200039
:10425000d9020700e10f40000d0032002fa09700a7
:104260000000e800a0a79f0009003700afa8970052
:1042700000032000d0020700e10f400003003200dd
:10428000afa097008100e800a1a79f000c06e900fd
:104290000c00e000f5ff3c003f0037000d38a300a4
:1042a0000a0032000b003700afa897000002200080
:1042b000c1020700e10f4000030032002fa1970068
:1042c0000201e800a2a79f000c06e9000c00e00034
:1042d000f5ff3c00e18066000d18a3000c003200e1
:1042e000d00220000100e00001003a000080e90057
:1042f000afa89700b0020700e10f4000260032008f
:10430000afa197008301e800a3a79f002200370018
:104310000100e00020003200afa89700000220005a
:10432000a5020700e10f40001b0032002fa29700fa
:104330000402e800a4a79f00170037000000fb005c
:104340004300dd0081c52100010040003002be00b5
:104350002003be006fa09700ffa097000fa9970051
:104360009fa99700f2f70700a40020000500200095
:104370006033b800f5f707000003b000afa897005e
:104380008d020700e10f400003003200afa297004a
:104390008502e800a5a79f006f6397000640e9002b
:1043a000e0679f00e14f4000e4ff3a000b00370058
:1043b000afa89700000320007f020700e10f400034
:1043c00003003200afa397008703e800a7a79f0070
:1043d0005f9097000000e900d0979f005f909700e2
:1043e0000000e000f2ff3c003fa49700f20f5400f1
:1043f0000300340020c1b300e0679f0002003700d3
:10440000efc49700e9679f00ef6097000100fb0091
:104410003fa5970000005500f0979f000104e000c1
:1044200002003a000e04e00008003200afa8970036
:10443000e002200060020700e10f400003003200ac
:10444000afa597008b05e800aba79f006f609700b2
:1044500014fa07000002be000203be005fb097001e
:10446000efb097007fb197008fb9970063f5070011
:1044700040f807001e0037000000fb004300dd008d
:104480008ec521000e0040003002be002003be0099
:104490000800be000a01be00a5f70700a400200026
:1044a000050020006033b800a8f707000003b00043
:1044b000afa8970040020700e10f40000300320060
:1044c0002fa097000000e800a0a79f00ef609700d2
:1044d0000100fb004300dd000e0040003002be0082
:1044e0002003be000800be000a01be0097f70700c7
:1044f0000205be000004be006f6197000240e900a3
:10450000e0679f00e14f4000dbff3a00e8a79f0013
:10451000f9a79f008aaf9f009baf9f000004eb00ac
:1045200009003700afa8970000032000220207000f
:10453000e10f400003003200afa197008301e800c3
:10454000a3a79f000804e8007f929700840f5400ff
:10455000f4ff3a000d38a3000a0232000c00e0001c
:10456000080234000004eb00afa89700000220000e
:1045700011020700e10f400003003200afa29700d4
:104580008502e800a5a79f000804e8008c0f5400ee
:10459000fc013200f4ff37000d007800000cb2007f
:1045a00032003a000d00e00009003d004fa89700de
:1045b0004005be004004be00c0af9f00e8a79f00ba
:1045c000f9a79f008aaf9f009baf9f00160037009e
:1045d0000d48a300090032004fa997004200be0019
:1045e000c2af9f004f89de00cf91de000002be0007
:1045f000020378008203780007003700cfa99700f4
:1046000043007800c3af9f0000027800cfa2de0015
:104610000503780086037800e4a79f00f5a79f00b4
:1046200086af9f0097af9f006fa49700ffa49700ed
:104630000fad97009fad9700e00f5400e08f5c0036
:10464000e00f5d00e08f5d0026003d003d00b300ff
:104650006000b8006011b800080450008984580058
:104660000a0559008b8559001a0037000d00e0003b
:1046700005003d004faa97004401be004400be0063
:10468000c4af9f00070037000d48a3000a003200a6
:10469000cfaa97004500be00c5af9f000401780077
:1046a00084017800e0a79f00f1a79f0082af9f00e0
:1046b00093af9f000b0037004fab97004600780088
:1046c000c6af9f0000047800090020000a00200007
:1046d0000b002000e8a79f00f9a79f008aaf9f006a
:1046e0009baf9f00bfa497000900e0000b003a00b9
:1046f0006fa09700ffa097000fa997009fa99700b0
:10470000e00f5000e08f5800e00f5900e08f590093
:1047100002003a0011002000b1a79f000d067800aa
:104720000c0cb20000042000800f5600370032004d
:1047300003003c000c00e000070032004b00370093
:1047400000082000800f560018003200000c2000e6
:10475000800f560045003a0014c0b30085c5210003
:104760000f0037000400fb004300dd00050040009f
:104770005001be004000be006fa49700ffa4970048
:104780000fad97009fad97000040e10001c8e10028
:1047900002d0e10003d8e100330039000442e80010
:1047a000f44f5200efff3a002f00370000012000c5
:1047b000010020006011b80014c0b3006fa497007e
:1047c000ffa497000fad97009fad97000040e10058
:1047d00001c8e10002d0e10003d8e1002200390065
:1047e000490020000000d0008180d2000281d20068
:1047f0008381d2008904e900faff3a000442e8000c
:10480000f04f5200edff3a00170037008000200003
:10481000010020006011b80014c0b3006fa497001d
:10482000ffa497000fad97009fad97000040e100f7
:1048300001c8e10002d0e10003d8e1000a0039001c
:10484000390020000000d0008180d2000281d20017
:104850008381d2008904e900faff3a000442e800ab
:10486000f54f5200edff3a00e4679f006f65970037
:104870000a00fb00bfa597008b0f500002003d000f
:10488000eb679f0004003700bfa09700808f5000a7
:1048900001003d00b0a79f006f9197000200e0006b
:1048a0000400320063806600020032000201e90069
:1048b000e2979f000de8a3000b003200ef919700f4
:1048c0003fa29700848f510003003c008002eb0060
:1048d000e5979f00040037006f939700bfa39700f0
:1048e00007035300e6979f00408c2000008066007d
:1048f00001842000810f500006003a006f94970059
:104900000800e000110032000804e900e8979f0069
:104910000e003700008c2000008066000188200017
:10492000810f500009003a00ef949700e28f540085
:1049300003003c000005eb00ea979f0003003700ee
:10494000ef9597008b85e900eb979f00ef6097004c
:104950000100fb000007eb006f919700800f5100f2
:1049600001003400000751000d28a3004b00320065
:10497000e18066000d18a3000c003200d002200078
:104980000100e00001003a000080e900afa89700b4
:1049900009010700e10f400027003200afa1970096
:1049a0008301e800a3a79f00230037000100e00077
:1049b00009003200afa8970000022000fe000700a7
:1049c000e10f40001c0032002fa297000402e80013
:1049d000a4a79f0018003700008c2000008066000c
:1049e00001882000810f500013003a00afa8970003
:1049f00000032000f0000700e10f40000300320038
:104a0000afa297008502e800a5a79f0080052000bf
:104a10000d58a30001003a0080072000afa89700be
:104a2000e5000700e10f4000030032002fa39700cc
:104a30000603e800a6a79f000e00e0000d0032006c
:104a40000004eb00afa8970000032000da00070085
:104a5000e10f400003003200afa397008703e80096
:104a6000a7a79f000804e8008e0f5400f5ff3a0046
:104a70000007eb003fa49700c340dd0000c5210004
:104a8000808540004240dd00640550006340b9006d
:104a9000909f9f0063045000a20037000e00e000ca
:104aa0000f003200688066000d003a0000047800b4
:104ab000afa8970000022000bf000700e10f4000f0
:104ac00003003200afa497008904e800a9a79f0063
:104ad0000804e8008e0f5400f5ff3a000007eb00d1
:104ae000e18066000d18a3000c003200d002200007
:104af0000100e00001003a000080e900afa8970043
:104b0000ad000700e10f40000e0032002fa5970016
:104b10000a05e800aaa79f000a0037000100e0008c
:104b200008003200afa8970000022000a200070092
:104b3000e10f400003003200afa597008b05e800ad
:104b4000aba79f00008c20008080660000842000be
:104b5000808f500009003a00afa8970000032000a2
:104b600095000700e10f4000c2ff32002fa0970020
:104b70000000e800a0a79f00beff370000882000cb
:104b8000808f5000bbff3a00afa8970000032000c1
:104b900089000700e10f400003003200afa097003a
:104ba0008100e800a1a79f00800520000d58a30008
:104bb00001003a0080072000afa897007e000700a0
:104bc000e10f4000abff32002fa197000201e80087
:104bd000a2a79f00a7ff370000042000800f560007
:104be0003100320003003c000c00e00007003200fe
:104bf0004000370000082000800f560012003200ed
:104c0000000c2000800f56003a003a003b02be0024
:104c10002b03be006fa09700ffa097000fa997007d
:104c20009fa99700c2f50700a400200005002000fe
:104c30006033b800c5f5070004c3b3000442400068
:104c4000e4679f002b003700f9cf21000d58a30027
:104c500001003a0009d121001400200005002000c5
:104c60006033b8000a0078000000e9000500330056
:104c70000402d0008582d2000683d2008783d2004e
:104c8000f9ff37006fa09700ffa097000fa99700ca
:104c90009fa99700a6f507006f006000e94478001f
:104ca000e9679f0013003700140020000500200072
:104cb0006033b800880078008100e9000500330007
:104cc0000402d0008582d2000683d2008783d200fe
:104cd000f9ff37006fa09700ffa097000fa997007a
:104ce0009fa9970092f50700674060000043b0005d
:104cf000e0679f006f6197000200fb00afa897007c
:104d00002d000700e10f400003003200afa1970023
:104d10008301e800a3a79f00e885550064055500be
:104d200063045400d0ff2f003fa2970000a0b900f9
:104d30009f9a97000080420063005000800f54004b
:104d4000a5ff3a000d38a3000e0032000e00e0006f
:104d50000c0034000004eb00afa897000002200014
:104d600015000700e10f4000030032002fa3970059
:104d70000603e800a6a79f000804e8008e0f540071
:104d8000f5ff3a00bfab9700b7407800b7af9f0080
:104d9000e1679f000104e0002af83a002fa0970085
:104da0004f0778004f06be004f05be004f04be00ff
:104db000ef04b10000000600889fbe0000017800eb
:104dc00001047800b10090000118a3003d003200fa
:104dd0000198a30003003a00180090000000e000d2
:104de00038003a000190a000310498008204780055
:104df000f90fb200180090000000e00002003a0035
:104e000028009000000c7800ea8f540006003a0059
:104e1000380090000078a30003003a008800780072
:104e2000d0002000e4ff0700980090005800900098
:104e3000808f50000b0032000100e8001004980041
:104e40001800780009587800000c780011c0b300f1
:104e5000c0d4210001487800ea8f540006003200d7
:104e60001900370088007800094078001900070011
:104e70008004780014003700380090000088a300f8
:104e80001100320018019000a80090004800900026
:104e9000a3f2070098009000810f50000400320038
:104ea000380090000003b300300498008084eb00c9
:104eb0000000eb001004980028009000000c78001f
:104ec000010037008084eb00090078004f04be0029
:104ed000000006000200fa00889fbe00a0ff9f00ad
:104ee00001047800b1009000810478000904b20048
:104ef000020032000000fb00360037000118a3005a
:104f000005003a000103b300310498001904980029
:104f10000080eb002f003700580090000000e000f8
:104f200006003a004800900012002000e68057007a
:104f30007bf2070019049800240037002800900035
:104f40000000e00008003a0080d42100200498000e
:104f5000000c7800200020005004980010049800f5
:104f60000130a0003104980018019000a8009000c2
:104f7000480090006af2070028009000000c7800ba
:104f80000080eb001004980018007800aff897003c
:104f900001587800000c78002ff89700ea4f500075
:104fa0000a003a00380090000088a3000700320091
:104fb00018019000a80090004800900058f20700e7
:104fc00019049800a8009000010c7800aff8970031
:104fd0000100fb004f04be000080fa000000060044
:020000040000fa
:020000040001f9
:0457f0007fff000037
:020000040000fa
:020000040001f9
:0457f400fffc0000b6
:020000040000fa
:020000040001f9
:0457f800cefa0000e5
:020000040000fa
:020000040001f9
:0457fc007f3f0000eb
:020000040000fa
:10000800f23f0000f23f0000f23f0000f23f000024
:10001800f23f0000f23f0000f23f0000f23f000014
:10002800f23f0000f23f0000f23f0000f23f000004
:10003800f23f0000f23f0000f23f0000f23f0000f4
:10004800f23f0000f23f0000f23f00008031000064
:100058009c310000f23f0000f23f0000f23f000038
:10006800f23f0000f23f0000f23f0000f23f0000c4
:10007800f23f0000f23f0000f23f0000f23f0000b4
:10008800f23f0000f23f0000f23f0000f23f0000a4
:10009800f23f0000f23f0000f23f0000f23f000094
:1000a800f23f0000f23f0000f23f0000f23f000084
:1000b800f23f0000f23f0000f23f0000f23f000074
:1000c800f23f0000f23f0000f23f0000f23f000064
:1000d800f23f0000f23f0000f23f0000f23f000054
:1000e800f23f0000f23f0000f23f0000f23f000044
:1000f800f23f0000f23f0000f23f0000f23f000034
:10010800f23f0000f23f0000f23f0000f23f000023
:10011800f23f0000f23f0000f23f0000f23f000013
:10012800f23f0000f23f0000f23f0000f23f000003
:10013800f23f0000f23f0000f23f0000f23f0000f3
:10014800f23f0000f23f0000f23f0000f23f0000e3
:10015800f23f0000f23f0000f23f0000f23f0000d3
:10016800f23f0000f23f0000f23f0000f23f0000c3
:10017800f23f0000f23f0000f23f0000f23f0000b3
:10018800f23f0000f23f0000f23f0000f23f0000a3
:10019800f23f0000f23f0000f23f0000f23f000093
:1001a800f23f0000f23f0000f23f0000f23f000083
:1001b800f23f0000f23f0000f23f0000f23f000073
:1001c800f23f0000f23f0000f23f0000f23f000063
:1001d800f23f0000f23f0000f23f0000f23f000053
:1001e800f23f0000f23f0000f23f0000f23f000043
:0801f800f23f0000f23f00009d
:020000040000fa
:10020800f23f0000f23f0000f23f0000f23f000022
:10021800f23f0000f23f0000f23f0000f23f000012
:10022800f23f0000f23f0000f23f0000f23f000002
:10023800f23f0000f23f0000f23f0000f23f0000f2
:10024800f23f0000f23f0000f23f00008031000062
:100258009c310000f23f0000f23f0000f23f000036
:10026800f23f0000f23f0000f23f0000f23f0000c2
:10027800f23f0000f23f0000f23f0000f23f0000b2
:10028800f23f0000f23f0000f23f0000f23f0000a2
:10029800f23f0000f23f0000f23f0000f23f000092
:1002a800f23f0000f23f0000f23f0000f23f000082
:1002b800f23f0000f23f0000f23f0000f23f000072
:1002c800f23f0000f23f0000f23f0000f23f000062
:1002d800f23f0000f23f0000f23f0000f23f000052
:1002e800f23f0000f23f0000f23f0000f23f000042
:1002f800f23f0000f23f0000f23f0000f23f000032
:10030800f23f0000f23f0000f23f0000f23f000021
:10031800f23f0000f23f0000f23f0000f23f000011
:10032800f23f0000f23f0000f23f0000f23f000001
:10033800f23f0000f23f0000f23f0000f23f0000f1
:10034800f23f0000f23f0000f23f0000f23f0000e1
:10035800f23f0000f23f0000f23f0000f23f0000d1
:10036800f23f0000f23f0000f23f0000f23f0000c1
:10037800f23f0000f23f0000f23f0000f23f0000b1
:10038800f23f0000f23f0000f23f0000f23f0000a1
:10039800f23f0000f23f0000f23f0000f23f000091
:1003a800f23f0000f23f0000f23f0000f23f000081
:1003b800f23f0000f23f0000f23f0000f23f000071
:1003c800f23f0000f23f0000f23f0000f23f000061
:1003d800f23f0000f23f0000f23f0000f23f000051
:1003e800f23f0000f23f0000f23f0000f23f000041
:0803f800f23f0000f23f00009b
:020000040000fa
:104fe0000d0a00000a0a00003136000038330000c4
:104ff0003333000020520000616300006b2000008a
:105000005553000042200000436f00006d6d00000a
:1050100073200000426f00006172000064200000f5
:10502000002800006329000020540000686f000081
:10503000726c0000616200007320000028550000bf
:105040004b290000204c0000746400002c2000005c
:1050500032300000313100002d32000030310000cc
:10506000380000000d0a00005049000043320000e3
:10507000344600004a360000344700004131000049
:105080003034000020730000657200006961000088
:105090006c200000706f0000727400002069000036
:1050a0006e740000657200006661000063650000b8
:1050b0000d0a00000058000052310000364c00007c
:1050c00037380000382000005541000052540000dd
:1050d00020640000657400006563000074650000d2
:1050e000642e0000005800005231000036560000c7
:1050f00037390000382000005541000052540000ac
:1051000020640000657400006563000074650000a1
:10511000642e0000005500004152000054200000a1
:1051200065720000726f0000722e0000000d00001a
:105130000a57000061690000746900006e67000092
:10514000206600006f720000206d00006f64000098
:10515000756c000065730000207400006f20000073
:10516000626f00006f7400002e2e00002e00000001
:105170000d0a00004261000079730000206f0000fa
:10518000636300007570000069650000643a000008
:1051900020000000256400002c2000000008000012
:1051a00008200000006e00006f6e00006500000027
:1051b0000d0a000041700000706c0000696300007f
:1051c00061740000696f00006e20000073740000bd
:1051d0006172000074650000642e0000000d000084
:1051e0000a3100003638000033330000332000005d
:1051f00052610000636b0000205500005342000024
:10520000204300006f6d00006d730000204200001d
:105210006f6100007264000020000000286300003d
:1052200029540000686f0000726c00006162000089
:1052300073200000285500004b290000204c00007e
:10524000746400002c200000323000003131000076
:10525000000d00000a5500004152000054200000db
:105260004348000036200000696e000074650000ad
:105270007266000061630000650d00000a00000016
:105280000d0a0000466c00006173000068200000f9
:10529000707200006f670000726100006d6d0000a9
:1052a000696e0000672000006f6600002062000049
:1052b0006179000020250000640000000d0a000054
:1052c00052650000707200006f670000726100009c
:1052d0006d6900006e67000020000000726f000022
:1052e0007574000065720000206200006f610000ac
:1052f000726400002e2e00002e0000006576000073
:10530000656e000000620000617900002025000049
:10531000642c0000207000006172000069740000bd
:1053200079200000257300002e2e00002e000000c2
:105330000d0a0000436f00006d7000006c650000f6
:1053400074650000642c000020720000657300008a
:1053500065740000746900006e6700002e2e000066
:105360002e0d00000a0000000d0a00000a4f000088
:1053700070740000696f00006e7300003a00000056
:105380000d0a000028650000292000002d200000e3
:10539000456e0000616200006c6500002041000065
:1053a0005054000020640000656200007567000032
:1053b000000d00000a28000064290000202d0000d4
:1053c0002044000069730000616200006c65000009
:1053d000204100005054000020640000656200007d
:1053e00075670000000d00000a3e0000000d00007f
:1053f0000a4100005054000020520000783a00009a
:10540000200000000d0a0000415000005420000060
:10541000547800003a200000000d00000a4100000e
:1054200050540000206300006f6d00006d73000099
:1054300020650000727200006f72000020300000d2
:10544000782500003032000058200000646500001c
:105450007465000063740000656400002c20000087
:10546000726500007365000074740000696e0000ce
:10547000672e00002e2e0000000d00000a410000e3
:1054800050540000206d000065730000736100003f
:10549000676500002066000072610000676d000013
:1054a000656e0000743a0000200000002530000006
:1054b00032580000200000000d0a00005265000074
:1054c0007365000074740000696e0000672e0000b0
:1054d0002e2e000000000000c068000078040000cc
:1054e0004d4d000052360000303100000000000039
:1054f0000300000003000000010000004d4d00000b
:10550000523600003031000020520000616300007c
:105510006b2000005553000042200000436f000044
:105520006d6d0000756e000069630000617400001d
:10553000696f00006e730000204200006f61000080
:105540007264000020280000497300007375000099
:10555000652000003329000000000000000000006a
:10556000000000000000000000000000000000003b
:105570000000000003000000000000000600000022
:10558000303100003233000034350000363700007f
:105590003839000041420000434400004546000005
:0455a0000000000007
:020000040000fa
:1055a4002411000030070000020000000000000089
:1055b40000000000000000000000000000000000e7
:1055c40000000000000000000000000000000000d7
:1055d40000000000000000000000000000000000c7
:1055e40000000000000000000000000000000000b7
:105f44000000000000080000240900000000000018
:105f5400e01900000401000000000000e41a000041
:105f64001400000002000000000000000001000016
:105f7400000000000000000000000000000000001d
:105f840000000000541800008c0100000000000014
:105f9400581c0000a00000000200000001000000e6
:105fa4000000000000000a000000000000000000e3
:105fb400006400000000000000000000e80300008e
:105fc4000000000000001000270000000000000096
:105fd40000a08600010000000000000040420f0005
:105fe40000000000000080009698000000000000ff
:105ff4000000e100f50500000000000000ca9a005e
:106004003b00000000000000e40b5400020000000c
:106014000000e80076481700000000000010a5000a
:10602400d4e8000000000000a0724e00180900002f
:10603400000040007a10f3005a0000000080c600ff
:10604400a47e8d000300000000c16f00f2862300cf
:10605400000000008a5d78004563010000006400d0
:10606400a7b3b600e00d000000e889000423c700d0
:106074008a000000f81c00002a0000000200000052
:10608400286e75006c6c2900003031003233340006
:106094003536370038394100424344004546000054
:1060a400303132003334350036373800396162001c
:1060b4006364650066000000f81a000060010000d7
:1060c400020000000000000000000000f03f00009b
:1060d4000000a0009999b9003f0000000040e100d1
:1060e4007a843f0000000000e04d6200503f000051
:1060f4000000e000e2361a003f0000000080b50016
:10610400f8e43e0000000000a0f7c600b03e000026
:106114000000a000f2d77a003e00000000e08e00ec
:1061240079453e0000000000e00b2e00113e000007
:106134000000e000df7cdb003d0000000000a10067
:106144009cc73b0000000000004c4800b43900002c
:1061540000000000206ca1003700000000000000d7
:10616400000000000000000000000000000000002b
:10617400000000000000000000000000000000001b
:10618400000000000000000000000000000000000b
:1061940000000000000000000000000000000000fb
:1061a40000000000000000000000000000000000eb
:1061b400000000000000f0003f00000000000000ac
:1061c40000244000000000000000000059400000ce
:1061d4000000000000408f004000000000000000ac
:1061e40088c340000000000000006a00f84000007e
:1061f4000000000080842e00410000000000d00058
:1062040012634100000000000084d70097410000a1
:106214000000000065cdcd004100000000205f00bb
:10622400a002420000000000801daf0015440000e1
:1062340000004000593e2900460000000000000014
:1062440000f07f000000000000000000f07f00006c
:10625400000000000000f0007f00000000000000cb
:1062640000f07f000000000000000000f07f00004c
:10627400000000000000f0007f00000000000000ab
:1062840000f07f000000000000000000f07f00002c
:10629400000000000000f0007f000000221d00004c
:1062a4002600000002000000241d4a001d0000001a
:1062b4004a1d090000000000020048001d00000003
:1062c400481d06000201000000000000000000005c
:1062d400000006000202000000000000481d00004b
:1062e40006000000000000004e1d00000200000037
:0c62f4000200000001000000000000009b
:020000040000fa
:106300003600f800809fbe00829fbe00849fbe00c2
:10631000869fbe000000fa00370607000080fa00e2
:106320004f03be004f02be004f01be004f00be0033
:106330003600f900004006003600f800809fbe00dd
:10634000829fbe00849fbe00869fbe000000fa00b0
:106350005f0607000080fa004f03be004f02be0038
:106360004f01be004f00be003600f900004006009d
:106370000a00fa000000eb00000f78008706070013
:1063800008060700cc060700fc06070040c7bf0050
:106390000080fb004600de000004a20061406000b7
:1063a0006140600061406000614060000041400069
:1063b000512c200091407800d0cfb30000c0600085
:1063c00002407000c5e2b700c482a800c502a80060
:1063d000cc62a800c422a900a0002000d0060700bb
:1063e000c422a800007f2a00801f780086050700cd
:1063f0008f87e90010812a00801f7800820507003e
:106400008f87e90020832a00801f78007e0507001f
:106410008f87e90036040700404798004e409000ff
:106420000000fb004007980080022000ce00900092
:10643000808f50000500320080042000ce009000c4
:10644000808f5000060032000a003700b0852a0015
:10645000801f78006c0507008f87e9000d0037006a
:1064600030872a00801f7800670507008f87e900c2
:1064700008003700b0882a00801f780062050700f6
:106480008f87e900803e2000a5060700c522a900ed
:106490000140fe0070892a00801f78005a0507001d
:1064a0008f87e900803821009d060700c522a800db
:1064b000808b2a00801f7800530507008f87e90032
:1064c0000000eb0010079800170037001e00900036
:1064d000970407000004e000100032001e00900046
:1064e000ae0407001e00900080004000c0ae2100f6
:1064f0008080400010002000800878001e0fe80017
:106500001e0090000000e800801f7800a08c2a0088
:10651000801f78003c050700e48757001e009000ac
:106520000000e800100798001e009000e50f5000e2
:10653000e6ff34001e00e00003003400f08c2a0067
:106540003007980002003700318d2a00310798008b
:106550003e009000801f78002b0507008f87e90020
:10656000808d2a00801f7800270507008f87e900ab
:10657000f08e2a00da040700e0902a00d804070011
:1065800090922a00d60407000080fa00000006005e
:106590000c00fa00400798000000eb00200798006c
:1065a0000000eb0010079800320037007000200058
:1065b00047040700000f7800000028009e0f10001d
:1065c000160032001e007800804078004e009000d7
:1065d000260407000040eb00204f98009e0090002a
:1065e00000402000808f50000200360010c0b30031
:1065f000204f98001e0090000000e800100798004f
:106600002e4890000004e00002003200100020003c
:10661000200798003e060700300798004e009000c3
:106620002b040700000f7800000028009e0f1000c8
:10663000040032001e0078008040780070002000c6
:106640000a0407002e009000e10f500009003a00f4
:106650002f060700800078003e00900080805000e8
:1066600000772100808f50000200360020002000bb
:10667000200798002e009000e20f5000cbff3a0058
:106680000080fa00000006008000fa00401221009d
:1066900090007800010f9800a0122100200f9800b0
:1066a0007a004700400f98007a00470066004000db
:1066b000300f98004e089000e30040000040eb00cf
:1066c000804878004e089000e400400010c0b300fd
:1066d000804878004e089000e500400010c1b300eb
:1066e000804878000040eb00305798000e09900079
:1066f000723f9800fe399000f48f510092003200f2
:106700007e389000f40f500007003c00fe389000e7
:10671000e28f5000880032007e399000e50f510072
:1067200009003200f3003700fe399000f78f510066
:106730006700320000062000fe389000808f500075
:1067400047003200eb003700ce08900060002000c8
:10675000800878004e0890008080e80040c5b300b3
:10676000804878004e089000640140004e08900078
:10677000640040009040780000c8b30000c0700082
:10678000004978003e089000c2a62a0029000900ae
:10679000321878004005b100be08900000c3b30075
:1067a000a0c09800be08900080c3b300b0c098009d
:1067b000be08900010c3b300c0c09800be0890008f
:1067c00080c3b300d0c09800be099000633f98001a
:1067d00011c3b30000c2b30080cf500003003200e9
:1067e00010c3b30020ff98000200370001c3b300bc
:1067f00021ff9800aef990006e39900063c19800b7
:10680000be08900000c3b300f0c09800be0890001e
:1068100060c4b30080c89800be08900050c6b300a2
:1068200090c89800be08900020c6b300a0c8980089
:10683000be08900020c3b300b0c89800be08900006
:1068400030c3b300c0c89800be0890000040eb0001
:10685000d0c8980010c0b30030579800a50037008a
:1068600026d1bf0020579800ce08900010062000c7
:10687000800878004e0890008080e8002e5090003c
:10688000804878004e08900063004000403f980028
:106890002e5090000080fb00a50307000004e000dc
:1068a0000300320010c0b30060f798000200370008
:1068b00021c0b30061f79800eef190004e399000ce
:1068c0000349780010c0b3003057980089003700a2
:1068d0006112210091407800f0cdb30000c040006b
:1068e0002057980041ae21000000eb00a000980066
:1068f00041ae21000000eb00800878002e5090008f
:106900000080fb00960307002e5090000080fb00e3
:10691000c70307002e5090000080fb000000e80035
:10692000801f780000942a00801f7800360407003a
:10693000e48757006f00370041ae21000000eb00f4
:10694000800878006b0037002e0890001001be0010
:1069500062079800730798002e08900020019000ad
:10696000b001900042079800530798002e0890004d
:1069700040019000d0019000220798003307980052
:106980002e08900060019000f0019000028fbe0080
:10699000ee00900000192000808f500001003200ae
:1069a00054003700e0952a00801f78001604070085
:1069b0008f87e9004e019000de019000507c20009e
:1069c00001002000800f5100818f590049003a00da
:1069d0002e009000be009000e00f5000e08f5800a5
:1069e0000b003a00e0962a00801f7800060407009a
:1069f0008f87e900c422a900c522a900a0002000b9
:106a0000470507004007a9000000fe0039003700d5
:106a10002e009000be009000e00f5000e08f580064
:106a2000340034002e019000be0190006000200070
:106a300001002000800f5100818f59002d003c0083
:106a4000e08a200001002000be0f1000ae8f180069
:106a500003003a00e3972a00233f98000200370022
:106a6000308d2a00203f98002e009000ae38900014
:106a7000811f7800801f780030982a00801f7800de
:106a8000e1030700e68757002e0090000040e90070
:106a90002057980041ae21000000eb00a0009800b4
:106aa00041ae21000000eb0080087800e08a200061
:106ab00001002000be0f1000ae8f180003003a0046
:106ac0002e5090000080fb00690307002e509000bc
:106ad0000080fb00aefe070080992a00801f78002e
:106ae000c90307008f87e900400120000c0507005b
:106af0000000fe003e5090000004e0000200320062
:106b00007a004700c80107000080fa000000060074
:106b10000000fa00409b2a00801f7800ba0307009b
:106b20008f87e900009c2a00801f7800b6030700c9
:106b30008f87e900909d2a00801f7800b20307002c
:106b40008f87e900309f2a00801f7800ae0307007e
:106b50008f87e9000080fa00000006001a00fa00a2
:106b60000000eb00400798000000eb0010079800c1
:106b70000000eb00000f7800fdfd0700e4040700b3
:106b80008000780040ae210031009800e0ff07004f
:106b9000c482a900000037000a010700604798007e
:106ba00024d2bf000004e000330032001e00900039
:106bb000e10f500003003a0041122100709f2a00ab
:106bc0005903070028d1bf000074a1007047980046
:106bd0007e409000f14f500002003a00aafe0700ec
:106be00023003700fe40900000c2b30080cf500069
:106bf0001f003600fe40900060c2b30080cf5000fe
:106c00001b003e007e4090008080fb00f0fd2f00c6
:106c10000080400041122100cd01070040122100f8
:106c200090007800210798002e009000f70f500088
:106c300008003200ae00900020662000808f5000d7
:106c400004003200ae00900060662000808f50008b
:106c500007003a0041ae21001000200080087800b3
:106c6000ab0407008000780040ae210011009800be
:106c70000040eb0024f2b700980107000000eb0091
:106c8000500798003f0037005e00900080004000f1
:106c9000c0ae210000804000100078000000e0003d
:106ca000350032005e00900017010700de00900002
:106cb000601020000088b900011020008080400092
:106cc0000080200000804000104078000004e000b8
:106cd00027003200de009000601020000088b9001c
:106ce000e400400000802000008040001040780058
:106cf0000074a100704798007e409000e14f500062
:106d000012003a00de009000601020000088b900f8
:106d100080007800008020000080400042010700d1
:106d20001e009000e10f500008003a00de009000c5
:106d3000601020000088b9008000780000802000ea
:106d40008080400020a02a00f7020700de009000ab
:106d5000601020000088b9000110200080804000f1
:106d600000802000808040000040eb0080487800d8
:106d70005e009000b20107005e0090000000e80095
:106d8000500798005e009000e50f5000beff3600ef
:106d90005f04070060079800ee0090007e009000fe
:106da0008080500040062000808f50005d0036003b
:106db0006e0090007007980040ae2100100078002f
:106dc000e10f500008003a0040ae21009000900012
:106dd0006e0090008100500080382100808f5000ac
:106de000010036001e00a00040ae210020009000ef
:106df000e10f500008003a0040ae2100b0009000c2
:106e00006e0090008100500080382100808f50007b
:106e1000010036001e20a000ee40900000c9b30023
:106e200080cf500001003a001e10a0001e00e000bc
:106e30002b003200c522a9009e007800811f780037
:106e4000d0a02a00801f7800ef020700e4875700d7
:106e50001e0078004200de00610060000004e000d7
:106e600018003200d0a32a00801f7800e602070035
:106e70008f87e9000000eb00500798000d003700f5
:106e8000de00900040122100008040001040780099
:106e90000000fb00801f780060a52a00801f78009a
:106ea000d9020700e48757005e0090000000e80068
:106eb00050079800319180005e009000808f500054
:106ec000efff3e00c0a52a00801f7800ce02070019
:106ed0008f87e90040012000110407000000fe0038
:106ee0004e0090004300de000000a2006140600000
:106ef0006140600061406000614060004401dd006d
:106f0000412c200091407800f0ceb30000c060001a
:106f100002407000c4e2b7004e0090000000e8009c
:106f200040079800309180000000e00003003a0024
:106f300040ae2100ee009000310098007000470044
:106f400071002000c60207000000e00012ff3200be
:106f500070004700104078000000fb00400f9800d0
:106f600040062000ce089000808f50000c003200b8
:106f700050062000ce089000808f500001003200a3
:106f80000e0037001000200010079800309f2a00e4
:106f9000801f78009c0207008f87e900fefe370003
:106fa0000000eb0010079800309f2a00801f780037
:106fb000950207008f87e900f7fe3700d4fe07002f
:106fc000f5fe37000600fa0024d2bf00e14f500062
:106fd0003e003a00000120002007980047003700db
:106fe000329180001e009000804078004012210005
:106ff00000004100014878000200e800309188005c
:1070000030918000e60f500028003a0028d1bf00e0
:107010000004e00009003d0026d1bf008000fb0015
:1070200027d1bf000000fb004800dd0000804000c9
:107030006600400040918800020037006000200098
:107040004091880028d1bf00804078000174a100e1
:10705000014f780010c1b3009e4f100009003200ac
:1070600000c2b3009e4f10000300340060c2b300a2
:107070009e4f1000030034000109200021079800f2
:107080001e00370029d1bf00e14f500004003a0034
:107090004191800050082000808f5000030036008e
:1070a000000920002007980014003700319180006b
:1070b00040918000808f500004003a000000eb00f7
:1070c0003091880010c0b30024f2b70024d2bf0072
:1070d000e14f500007003200700020007c010700e3
:1070e000100798009e00900000002800808f50003c
:1070f000bbff3a0041002000210798002e009000bd
:107100000080fa00000006000800fa00200798003e
:10711000ae009000601020000088b9008000780068
:1071200000802000008f40001e0078000040920088
:10713000e14f50002c003a00000120003007980079
:10714000360037001e007800100191001e009000ec
:10715000804078001e00780000004100014878005f
:107160008200e8001e007800110099001e007800df
:1071700010009100e60f50000f003a001e0078004a
:10718000404090000004e00008003d001e00780030
:10719000204090000000fb00660040008000780066
:1071a0001e00780021009900030037009e0078003f
:1071b00060002000a00099001e007800900091005f
:1071c0001e00780020009100808f500006003a00d9
:1071d0009e0078000000eb00900099009e0078006f
:1071e00010c0b30080409a001e007800004092005a
:1071f000e14f5000070032002e00900034010700dc
:10720000100798009e00900000002800808f50001a
:10721000ccff3a0040002000300798003e0090006c
:107220000080fa00000006000600fa00100798002f
:107230001e00900064004000104078000004e00050
:1072400007003d001e0090000080e800104078001c
:107250000000fb0066004000200798000200370095
:1072600060002000200798002e009000000f78009a
:1072700014003700629180001e009000904078005a
:1072800040e2200000004100014878000200e800d0
:10729000609188001e0090000000e8001007980030
:1072a0006191800000302000808f500002003a0081
:1072b0000000eb0060918800509180000000e80021
:1072c000509188001e0fe9000080eb009e0f100017
:1072d000e8ff3a000080fa00000006000000fa0013
:1072e0000c003700709180000000e8007091880069
:1072f0007191800000302000808f500002003a0021
:107300000000eb0070918800509180000000e900bf
:1073100050918800509180000000e0000a00340085
:107320007191800040e22000008040009040780091
:1073300070002000cd0007008000780000002800c9
:10734000808f5000e7ff3a000080fa00000006003e
:107350000a00fa002007980031079800ae0090005c
:10736000601020000088b900800078000023210010
:10737000008f40003e009000640040001040780004
:107380000004e00007003d003e0090000080e8009f
:10739000104078000000fb006600400040079800a5
:1073a0000200370060002000400798004e00900067
:1073b000100798001a0037001e0078001001910095
:1073c0003e009000904078001e00780000004100d0
:1073d000014878008200e8001e0078001100990042
:1073e0003e0090000000e800300798001e00780082
:1073f0009000910000102000808f500003003a00a0
:107400009e0078000000eb00900099001e007800bc
:10741000000091008000e8001e0078000100990043
:107420001e0090000000e900100798001e00900068
:10743000e10f4000e0ff3a000080fa000000060083
:107440000400fa00100798009e00900060102000d1
:107450000088b9008000780000232100008f4000e0
:10746000120037001e007800200091008000e80024
:107470001e007800210099001e007800a0009100f5
:1074800000102000808f500003003a009e0078001a
:107490000000eb00a00099001e00780000009100a1
:1074a0008000e9001e007800010099001e007800ad
:1074b000000091000000e0000b0034001e00780086
:1074c000a00091001e0078000080400090407800ed
:1074d0001e00900065000700800078000000280072
:1074e000808f5000dfff3a000080fa0000000600a5
:1074f0000400fa00d0082400b00207000000fb00de
:10750000000f7800800220009e0f10000300320060
:10751000800420009e0f10004f003a0080c0eb0056
:10752000a00824009d02070011c0b300e008240059
:107530009a0207008040eb00100024009702070029
:1075400071c0b300200024009402070001c8b300fa
:10755000300024009102070021c0b3000000240085
:107560008e0207008040eb00100024008b02070011
:1075700001c1b300900024008802070040002400ed
:107580008e0207008040780000c8b30080c0700001
:10759000400024008102070031c0b3003000240005
:1075a0007e02070001ccb300800024007b020700ac
:1075b000c1c3b300b0002400780207008040eb0094
:1075c00090002400750207008040eb00e0082400d2
:1075d0007202070001c1b300900624006f02070089
:1075e0008040eb00900624006c02070001c1b3004c
:1075f0009007240069020700400724006f0207007b
:1076000080407800b0cfb30080c060004007240005
:10761000620207009007240068020700804078009b
:1076200000cdb30080c07000900724005b0207000b
:107630004007240061020700804078000114a00088
:1076400040072400550207001e0078000000fb00e0
:1076500010079800020037000080eb001007980028
:107660001e0090000080fa00000006000800fa00ea
:1076700010079800414798001e0090004400dd006c
:10768000000f7800a00024001e0040004b020700fd
:1076900080407800e0c3b30080cf50000300340086
:1076a0000000280030079800060037000000240082
:1076b0001e004000ce409000380207000000eb00a2
:1076c000300798003e0090000080fa00000006009d
:1076d0000600fa00100798001e0090004400dd002c
:1076e000000f7800500024001e0040003302070005
:1076f0000000fb000000a200610060000004e00048
:107700000300320000002800200798000500370021
:10771000000024001e004000280207000000fb00bb
:10772000200798002e0090000080fa00000006005c
:107730000400fa00100798001e0090004400dd00cd
:10774000000f7800600024001e0040001b020700ac
:107750000000fb00700060000080fa0000000600de
:107760000400fa00100798001e0090004400dd009d
:10777000000f7800900024001e00400001c1b300fb
:1077800006020700900024001e0040008040eb002d
:10779000020207000080fa00000006000400fa0060
:1077a000100798001e0090004400dd00000f7800d4
