:020000040800F2
:1000000008790020150300083303000835030008B1
:1000100037030008390300083B0300080000000014
:100020000000000000000000000000003D03000888
:100030003F03000800000000173E000843030008CB
:100040004503000845030008450300084503000870
:100050004503000845030008450300084503000860
:100060004503000845030008450300084503000850
:100070004503000845030008450300084503000840
:1000800045030008450300084503000833530008F2
:1000900033520008450300084503000845030008E3
:1000A0004503000845030008450300084503000810
:1000B00045030008E94D0008450300084503000812
:1000C00045030008450300084503000845030008F0
:1000D000094E0008450300084503000845030008D1
:1000E000450300082F1100084503000845030008D8
:1000F00045030008450300084503000845030008C0
:1001000045030008450300084503000845030008AF
:10011000450300084503000845030008450300089F
:10012000450300084503000845030008450300088F
:10013000450300084503000845030008450300087F
:10014000450300084503000845030008450300086F
:10015000450300084503000845030008450300085F
:10016000450300084503000845030008450300084F
:10017000450300084503000845030008450300083F
:10018000450300084503000800F002F800F0B2F84B
:100190000AA090E8000C82448344AAF10107DA45E2
:1001A00001D100F0A7F8AFF2090EBAE80F0013F082
:1001B000010F18BFFB1A43F001031847C4D7000012
:1001C000E4D700000A444FF0000C10F8013B13F094
:1001D000070408BF10F8014B1D1108BF10F8015BA0
:1001E000641E05D010F8016B641E01F8016BF9D193
:1001F00013F0080F1EBF10F8014BAD1C0C1B09D1EA
:100200006D1E58BF01F801CBFAD505E014F8016B5B
:1002100001F8016B6D1EF9D59142D6D370470000ED
:100220000023002400250026103A28BF78C1FBD8FF
:10023000520728BF30C148BF0B6070476E2909F0D4
:10024000F382702909F0438366290BF046846529FF
:100250000BF0438467290BF040846129AFF30080E1
:1002600003681B0A28BF41F08001692909F0A082B8
:10027000642909F09D82752909F09A826F290AF094
:100280006E81782909F00F83E9290AF00981E429B0
:100290000AF00681F5290AF00381EF290AF06B8143
:1002A000F82909F00E830368DB0928BF41F08001BB
:1002B00063290AF08A8073290AF08F80E3290AF003
:1002C0004582F3290AF04A82002070471FB50BF0DF
:1002D000FFFB0AF09FF90400002000210BF0CEF88C
:1002E000401C6060002000210BF0B2F8E0601FBDF0
:1002F00010B510BD0AF086FC1146FFF7E7FF02F0CB
:1003000056F80AF0ADFC03B4FFF7F2FF03BC0AF0A5
:10031000B1FC00000F481049026800608A4203D017
:100320000E4880470E4800470E48D0F800D040687D
:100330000047FEE7FEE7FEE7FEE7FEE7FEE7FEE733
:10034000FEE7FEE7FEE7000007480849084A094BB8
:1003500070470000F01F0020EFBEADDEDF12000886
:10036000890100080000FF1F0873002008790020A1
:1003700008750020087500200020FD49096841F03B
:100380000101FB4A11604FF40031FA4A91611146B4
:10039000096841F0040111601146096821F0080163
:1003A00011601146896861F00C019160042191612E
:1003B0001146096841F0100111601146096821F0E9
:1003C000200111601146896861F03001916091004F
:1003D00091611146096841F04001116011460968B8
:1003E00021F0800111601146896861F0C0019160BF
:1003F0001146096821F4406111601146C96821F471
:100400004061D16011460969C1F3401040219161FA
:100410001146096841F4805111601146096821F4C0
:10042000005111601146896861F440519160D049D2
:10043000096841F00201CE4A11604FF48031CE4A82
:100440001160CD491839096841F00101CA4A183ACA
:1004500011601146096821F002011160C649103986
:10046000096861F00301C44A103A11604FF4003189
:10047000C14A1160C0491839096841F00401BE4AF7
:10048000183A11601146096821F008011160BA4953
:100490001039096861F00C01B74A103A1160102157
:1004A000B54A1160B4491839096841F48071B24AFB
:1004B000183A11601146096821F400711160AE49C3
:1004C0001039096861F44071AB4A103A1160A849CB
:1004D000096841F00401A64A11600121A74A116090
:1004E000A6491839096841F00101A44A183A116077
:1004F0001146096821F002011160A049103909680C
:1005000061F003019D4A103A116002219B4A11607B
:100510009A491839096841F00401984A183A11605B
:100520001146096821F008011160944910390968E1
:1005300061F00C01914A103A11604FF480218F4A0A
:1005400011608E491839096841F010018B4A183A38
:1005500011601146096821F02001116087491039A6
:10056000096861F03001854A103A11604FF480113A
:10057000824A116081491839096841F480717F4AC3
:10058000183A11601146096821F4007111607B4925
:100590001039096861F44071784A103A11604021BD
:1005A000764A116075491839096841F48051734AD7
:1005B000183A11601146096821F4005111606F4921
:1005C0001039096861F440516C4A103A11604FF4D7
:1005D00000416A4A116069491839096841F080414F
:1005E000664A183A11601146096821F0004111600D
:1005F00062491039096861F04041604A103A11605F
:100600005D491839096821F440615B4A183A116064
:1006100059490C39096821F44061574A0C3A116074
:1006200055491839096821F44041534A183A116074
:1006300051490C39096821F440414F4A0C3A116084
:100640004D491839096821F040714B4A183A116038
:1006500049490C39096841F08071474A0C3A1160E8
:100660001146096821F00071116044491839096880
:1006700021F0C001414A183A116040490C3909681B
:1006800021F0C0013D4A0C3A11603C491839096813
:1006900021F04061394A183A116038490C3909682B
:1006A00021F04061354A0C3A116034491839096823
:1006B00021F04051314A183A116030490C3909682B
:1006C00021F080512D4A0C3A11601146096841F021
:1006D00000511160704708B1402101E04FF48001E2
:1006E000244A9161704708B1022101E04FF40031C2
:1006F000204A91617047204808380068012121EAAA
:100700005010704701211D4A11601C4918390868B2
:1007100020F0030040F0010020F002000860704764
:1007200015481838006820F440401349183908600B
:10073000802012490860BFF35F8F0F4808380068B7
:10074000C0F3C01070474FF480310C4A116008B1FB
:10075000802101E04FF40001074A11600649183971
:10076000096841F48041044A183A1160704700005A
:1007700030380240000002401804024018080240CD
:100780002848006820F0C00026490860022025495A
:1007900018310860BFF35F8F224810300068C0F343
:1007A000C00070474FF400311E4A1832116008B182
:1007B000082101E04FF400211A4A1832116019494A
:1007C000096841F04001174A1160704708B10821DB
:1007D00001E04FF40021144A9161704710B10128E3
:1007E0000ED106E04FF48031104A116002211160F1
:1007F0000DE04FF400310D4A11600121116006E057
:100800004FF48031094A11604900116000BF00BFF8
:10081000704708B1042101E04FF48021014A1832E9
:1008200011607047000802400000024018040240B6
:100830008548006840F48020834908608248103869
:100840000068824908438049103908608048006880
:1008500020F480107E4908600846006840F40010CB
:100860000860081D006820F48060091D0860784851
:100870000C30006820F4401075490C310860081FE6
:10088000006820F44010091F08607148406A20F495
:10089000706040F4E0616E484162006820F48000BE
:1008A0006B4908600846006840F40000086068482A
:1008B0000C30006820F4400065490C310860644841
:1008C000406A20F4704040F4E0416148416240F2E7
:1008D0006D106049088000205E4908310880091DBC
:1008E00008805C48001D008840F400505949091DEB
:1008F000088058480C30008840F0C00055490C3141
:1009000008805548806D20F001005349886500E05B
:1009100000BF5148806D00F001000028F8D14E481A
:10092000806D20F060604C4988650846806D40F01D
:10093000006088650846806D40F488608865454899
:10094000001F08660020C8650846806A20F0010084
:10095000886200E000BF4048806A00F00100002883
:10096000F8D13D48806A20F060603B4988620846C3
:10097000806A40F0006088620846806A40F4A060A7
:1009800088623448001F0863344848630815C86209
:1009900030480838008820F040002E490839088087
:1009A0002C48001D008840F00C002A49091D0880D1
:1009B0002948806A40F0010027498862704726492B
:1009C000C96AC1F58061264A1268914202D14FF688
:1009D000FF700FE022490A680968491C204B196022
:1009E0001E49885C19460968B1F5806F02D1002163
:1009F0001A4611607047184A926D22F00102164B98
:100A00009A6500E000BF144A926D02F00102002ACC
:100A1000F8D1114A5066D1650E4A083A128822F080
:100A200040020C4B083B1A804FF000620A4B9A6060
:100A30001A46926D42F001029A65704705480838DF
:100A4000008800F04000704740380240020020005B
:100A5000000402400848004000600240A402002058
:100A600000000020FE48006840F40030FC490860A7
:100A7000A720FC49088040F2E730091D08604010BB
:100A8000F8490C310860F7480838008840F0010048
:100A9000F44908390880F3481038008840F06000B5
:100AA000F04910390880081F008840F00100091F34
:100AB0000880EC482838008840F00100E9492839CE
:100AC0000880E748006840F48030E549086020204D
:100AD000E54908810846008940F0070008810020A8
:100AE00008854FF6FF70C8620846008840F0010094
:100AF0000880DB481438006840F00400D8491439F5
:100B000008604FF00070D9490860D848183800686C
:100B100020F48020D549183908600846006840F460
:100B200000200860081D006820F40070091D08609E
:100B3000CE480C38006820F44020CC490C390860BD
:100B4000081F006860F44020091F0860C748183873
:100B5000406A20F0F00040F03001C448183841628B
:100B6000BF48006840F00200BD4908600020C0494D
:100B70000880091F086042F27440BD49091D0860E1
:100B800041F23920BA4918310860B9480C38008858
:100B900040F4E040B6490C390880081D008840F454
:100BA0008050091D0880B2481438008840F00100C8
:100BB000AF4914390880AE482838008840F0010059
:100BC000AB4928390880AA481C30008840F400400E
:100BD000A7491C3108807047A348406A80B270471B
:100BE0000246501A80B270479D48001F006840F0CE
:100BF00010009B49091F086053209E4908854FF645
:100C0000FF704862C8620846008840F0080008800B
:100C10000846008840F0010008807047414295482E
:100C20004162018841F0010101800188C907FCD1BE
:100C300070478B48001F006840F008008849091F72
:100C4000086087482438006840F008008449243947
:100C5000086000E000BF82482438006800F0080007
:100C60000028F7D07E482438006820F008007C492E
:100C700024390860002080490880091F08607848EE
:100C80001438006840F001007549143908607B4849
:100C9000006820F00100794908600846006840F0CB
:100CA000020008600846006A20F00F00801C0862FD
:100CB0004FF0FF307049091D086057206E492039F8
:100CC00008806D481038008840F001006A491039EA
:100CD0000880081F008840F00100091F088066484E
:100CE0002838008840F001006349283908805C48B2
:100CF0001438006840F0020059491439086060480F
:100D0000006820F480505E4908600846006840F49E
:100D1000005008605A482030006820F0706040F0B1
:100D200000705749203108600846006820F0704084
:100D300040F0005008604A48001F006840F004007E
:100D40004749091F086000204E490880091F0860B4
:100D500041F267004B49091D0860401049490C31B8
:100D6000086008460068091D086047F270004549A0
:100D70001039088043480838008840F00100414994
:100D8000083908803F481438008840F001003D4988
:100D900014390880704730B50346FFF71DFF04463D
:100DA00000E000BFFFF718FF05462146FFF718FFD8
:100DB0009842F6DB30BD0246334850434FF47A7315
:100DC000B0FBF3F1B1F1807F01D3012070474FF008
:100DD000E020006940F001004FF0E0231861184660
:100DE00041610020F2E74FF0E020006900F480301C
:100DF00070470CB558B9254909680191234928392C
:100E00000968234A1160214924390968009114496D
:100E1000091F096841F08051114A121F11601D49D4
:100E2000096841F480711B4A11600D492C31096831
:100E300041F480310A4A2C3211601146096821F4CC
:100E4000803111601146096841F44071116011460A
:100E5000096841F400411160CA210C4A121F1BE0CD
:100E60004438024028440140004001401808024034
:100E70002804014000100040280C004000000240FF
:100E80000004024028080040406F4001282800402C
:100E90000400002000700040116053211160B3492C
:100EA000096841F08001B14A116000E000BFAF491C
:100EB000096801F040010029F8D0AC49091D096812
:100EC0006FF30E0142F20F721144A84A121D116015
:100ED0001146096821F4FE0141F4C6011160A449DC
:100EE0000968A24A0C3A1160A249121D11609F497B
:100EF000096821F080019D4A116000E000BF9B4914
:100F0000096801F080010029F8D1FF21974A1832C1
:100F100011609649096821F02001944A11600CBDC6
:100F20009549096841F08051934A116093490968D5
:100F300041F48071914A11608F493031096841F460
:100F400080318D4A303211601146096821F48031B8
:100F500011601146096840F205121143864A303289
:100F600011601146096841F40041116028B18449BB
:100F7000098841F00101824A1180CA217B4A183256
:100F80001160532111607949096841F08001774A65
:100F9000116000E000BF7549096801F040010029B7
:100FA000F8D07249091D09686FF30E0142F20F7201
:100FB00011446E4A121D11601146096821F4FE01A8
:100FC00041F4803111606A490968684A0C3A11603D
:100FD0006849121D11606549096821F08001634A62
:100FE000116000E000BF6149096801F0800100293B
:100FF000F8D1FF215D4A183211605C49096821F07F
:1010000020015A4A116070475E490140584A1160F8
:101010007047CA21554A1832116053211160534953
:10102000096841F08001514A116000E000BF4F495A
:10103000096801F040010029F8D0524901404B4AAB
:101040000C3A11604949096821F08001474A116052
:10105000FF21464A18321160704710B50246CA2077
:10106000424B18331860532018604048001F006836
:1010700020F480703D4B1B1F1860181D006840F065
:1010800001001B1D186000E000BF3848006800F038
:1010900001000028F8D03B48104040F00040334B9E
:1010A00010331860C1F30E0040F070602F4B3833DE
:1010B00018602E48006820F001002C4B186018467C
:1010C000006820F480701860181F006840F4885091
:1010D0001B1F1860181D006820F001001B1D186000
:1010E000FF20224B183318602748006840F4003076
:1010F000254B186024480838006840F40030224B23
:10110000083B186020480C30006840F400301E4B4B
:101110000C331860292000F01F040123A340440968
:10112000A40004F1E024C4F8003100BF10BD10B5E4
:101130000E48006820F480700C49086000E000BF91
:101140000A48006800F480700028F8D10E480C307E
:10115000006840F400300C490C3108600B4A90697B
:10116000516988470AA001F099FF10BD0C28004082
:101170000400002002441300403802400070004088
:10118000000800407F7F3F00083C0140A02F002066
:101190000D0A52544320416C61726D210D0A00000A
:1011A00000210020644A126842F48032624B1A60C7
:1011B00000BF614A126802F40030491C10B9B1F551
:1011C000705FF6D15C4A1268C2F3404000287DD0BF
:1011D000594A4032126842F08052574B40331A60ED
:1011E000564A126842F48042544B1A6040F205623B
:1011F000534B1A60504A083212684F4B08331A603A
:101200001A46126842F400421A601A46126842F402
:10121000A0521A601A46126822F4F81242F44022D0
:101220001A601A46126822F07C521A601A46126836
:1012300042F0C0621A601A46126842F060521A60A8
:101240001A46126822F4C0021A601A46126842F462
:1012500080021A601A46126822F040421A601A464A
:10126000126842F080421A60364A1B1F1A601A1F29
:10127000126842F080721B1F1A6000E000BF2E4A05
:10128000126802F00072002AF8D02B4A0832126865
:1012900022F00302284B08331A601A46126842F003
:1012A00002021A6000E000BF234A0832126802F00E
:1012B0000C02082AF7D1244A1F4B84331A601E4AB5
:1012C000126842F080621C4B1A6001E006E000BF29
:1012D000194A126802F00062002AF8D0704710B56F
:1012E0001A48006840F47000184908601248006805
:1012F00040F001001049086000200F4908310860E3
:101300000D480068124908400B4908601148091D42
:101310000860081F006820F48020091F0860002072
:1013200005490C310860FFF73BFF4FF000600749AB
:101330008039086010BD0000003802400070004095
:10134000003C02400C5440070040005088ED00E093
:10135000FFFFF6FE1030002404462146FBA001F0FA
:101360009DFE01E001F014FFFCE70FB47FB509A872
:101370000390BDF82000009000200190F9A0029099
:10138000BDF82000812818D1039810C80390039855
:1013900020C8039000200090F348806BA0420CD03E
:1013A000B4F5004F07D081200090019402952946A2
:1013B000EEA001F073FEEC48846300200390EA483D
:1013C000406D02280ED1EF4A6946002000F00CF96A
:1013D0000646012E06D1EB4803F003FC0021E94844
:1013E00002F024FD7FBC5DF814FB10B568220021DB
:1013F000E54803F034F80446012C05D0E3A248F296
:10140000D0418120FFF7B1FF012368220021DE488F
:1014100002F0E2FF04462CB1DEA248F2D041812066
:10142000FFF7A3FF10BD10B50822D101DC4803F07F
:1014300016F80446012C08D0D4A248F2D0418120ED
:10144000FFF793FFD7A001F029FE01230822D10165
:10145000D34802F0C1FF044644B1CEA248F2D041C5
:101460008120FFF782FFD6A001F018FE10BD70B5F5
:101470000024BD48C068002852D044F0005424F035
:10148000804444F00104B84890F83C0000F00100AA
:1014900040B9B54890F83C00C0F3400010B944F0A2
:1014A000010443E0B04890F83C0000F0010040BB6C
:1014B000AD4890F83C00C0F3400010B3FFF78CFB40
:1014C0000546C64801882846FFF78AFBB0F5FA7F33
:1014D0000BDDFFF781FBC1490880C148006808B9EE
:1014E000012000E00020BE490860BD4800680128D6
:1014F00002D144F0100401E024F0100444F0200470
:1015000014E0994890F83C0000F0010070B1964852
:1015100090F83C00C0F3400040B944F0100405E0EE
:1015200024F0005444F0804424F01004AD480078C6
:1015300000F07000102804D0202807D040280FD1D8
:1015400009E044F4805424F4C0440AE044F4005414
:1015500024F4A04405E044F4804424F4405400E022
:1015600000BF00BF9F48006B012819D19D48806BC8
:10157000012808D1FFF7D4F810B144F4801411E029
:1015800024F480140EE09748806B02280AD1FFF7FC
:10159000C7F810B124F4801404E044F4801401E08E
:1015A00024F480148F48406B01281BD18D48C06BF8
:1015B000012808D1FFF7E4F810B144F4001411E059
:1015C00024F400140EE08748C06B022808D1FFF70E
:1015D000D7F810B124F4001404E044F4001401E03E
:1015E00024F40014204670BD2DE9F74F84B09146D5
:1015F000049830B10498008880B203900498861D46
:1016000006E0059820B100260598008880B2039076
:101610004D46AC1D0020E8700120287150206871F3
:1016200000200290C9F800010398B0F5FA6F7DD050
:1016300029DC40F21322A0EB0201904277D00EDCAD
:10164000142875D006DC052844D0112871D0122842
:1016500070D10BE115286ED01628F9D1BBE240F20B
:101660004D42881A914267D008DC102965D0A1F25A
:101670003D41002962D00829EAD1F5E301285ED076
:101680000228E5D138E140F2DD72811A904257D04C
:1016900014DC40F2DA72A0EB0201904251D008DC77
:1016A000A0F2D17000284DD001284CD00228CFD113
:1016B000F0E3012948D00229CAD1ECE3A1F11900D5
:1016C000062837D2DFE810F04C057E057D05B00511
:1016D000DD05DC05062028805420A870287940F01C
:1016E0008000287154224049204608F012FB264809
:1016F000006820601C488089A4F84C001A48806C5F
:10170000012801D1022000E00120A4F84E0037A0FA
:10171000007884F8420035A041784320015533A079
:10172000C1784420015531A0017965E0DAE3F2E3A4
:10173000E6E092E0DDE0B5E3C1E082E0ECE399E0D1
:10174000EBE3EBE3EBE3EBE3EBE300000D0A4578BF
:1017500069742077697468206572726F723A202507
:101760007300000000000000A02F00200D0A41506F
:1017700054206E6F74696669636174696F6E3A2094
:10178000257300001C1B0020D82E002045455772F1
:101790006974650045455665726966790000000008
:1017A0003C0200200D0A454550524F4D20577269AA
:1017B0007465204661696C7572650D0A0000000051
:1017C0000D0A454550524F4D205665726966792085
:1017D0004661696C7572650D0A0000000800002002
:1017E00014000020402F002070BF000831303A352F
:1017F000383A31380000000045200155F6A0007944
:10180000202801D1302001E0F3A0007946210855BD
:10181000F1A0417947200155EFA0017848200155FA
:10182000EDA0417849200155EBA081784A2001556F
:1018300000214B200155012002900220E949486512
:101840002EE3E948006A10B14020E6490863E64A01
:10185000D16C106A04F08FF9F2E70120E149886544
:1018600000204863FA20FFF796FAE9E70020DD49F7
:101870008865E5E740F2616028800A20A8700020B2
:10188000E870287940F08000287101202080D64837
:1018900000896080D5484088A080FFF7E8FDC4F843
:1018A000060001200290CF4890F8580000F0010097
:1018B00020B1CC48406B322800DDC1E700BF40F2C8
:1018C000616028800A20A8700020E870287940F024
:1018D0008000287101202080C34800896080C348AF
:1018E0004088A080FFF7C3FDC4F8060001200290E5
:1018F000A6E700200290A3E70020BA4948639FE7CB
:101900003068B84948660846406E0D2874D00ADC35
:101910000D2872D2DFE800F0711D364352647171F8
:1019200071838C719D00B0F5C87F67D008DC0E28EC
:1019300070D012286FD014286ED063285DD1EBE0F0
:10194000A0F29110002868D0042867D0C728F5D1EC
:1019500094E27068A649086008460168A5A001F0F5
:101960009DFBA348A14AD2E900139268C0E9023264
:10197000416049F65A209E494866FFF736FD00202F
:1019800002908CE29A4800689649886600200867B1
:10199000C866974801689FA001F080FB7FE27068ED
:1019A0009049486008468088904988800846818828
:1019B0009FA001F073FB0020029070E2B0888B4979
:1019C00048803089088008464188A4A001F066FB61
:1019D00086480188ABA001F061FB002002905EE226
:1019E000824840887F49886680480088C866002011
:1019F00008677E48418802E03EE04DE2A0E0ACA0EE
:101A000001F04CFB79480188B2A001F047FB0020AF
:101A1000029044E241E05AE079E0A8E025E2B748CC
:101A200000687049886600200867C866029036E240
:101A3000B08880B2B1490860086805F08CFB6A493B
:101A4000086AAF490968884700206649C86402905F
:101A500025E2B08800B26549C8800846B0F9061092
:101A6000A8A001F01BFB6149B1F90600002103F0B9
:101A700020FF0020029012E25C48B0F906005949AC
:101A8000886600200867C8665848B0F90610A8A004
:101A900001F004FB0020029001E2706840F2D67170
:101AA000884213D145F6A5205049886050480B461E
:101AB0000ECB001D0EC049F65A204D494866FFF76F
:101AC00094FCA5A001F0EAFA00200290E7E170681A
:101AD00040F2D671884219D145F6A5204349886065
:101AE00043480B460ECB001D0EC049F65A20404914
:101AF0004866FFF77AFC3D49B1F90600012103F081
:101B0000D8FE9EA001F0CAFA00200290C7E1FFF7BC
:101B10008AFC00200290C2E105F0A2FB5422324967
:101B20003348103008F03AF949F65A2030494866EF
:101B3000FFF75BFC9CA001F0B1FA00200290AEE13F
:101B4000A1A001F0ABFA6420FFF725F972B6A54811
:101B5000006820F48000A34908600846006820F46B
:101B600000100860A048A149086001F080FA002038
:101B700002907068B0F1553F29D1B068012802D0B9
:101B800002281FD10EE0802016494867012098499D
:101B9000486008228102964802F061FC95A001F09D
:101BA0007DFA13E06FF07F000E49486702209049EC
:101BB0004860082241028E4802F051FC94A001F0D6
:101BC0006DFA03E099A001F069FA00BF02E09FA05E
:101BD00001F064FA63E164E146656220203320325B
:101BE00030323100A02F0020402F0020942F002001
:101BF000D82E00200D0A53657269616C206E756DD8
:101C00006265722073657420746F3A202575200D0B
:101C10000A0000000D0A53657269616C206E756DD3
:101C20006265722069733A202575200D0A00000054
:101C30000D0A43616C6962726174696F6E2076612E
:101C40006C75652028444143205A45524F29207322
:101C5000657420746F3A2025640D00000D0A4361FD
:101C60006C6962726174696F6E2076616C75652053
:101C7000285343414C45292073657420746F3A20E2
:101C800025640D000D0A43616C6962726174696FAD
:101C90006E2076616C756520284F46465345542961
:101CA0002073657420746F3A2025640D0A000000CB
:101CB0000D0A43616C6962726174696F6E207661AE
:101CC0006C756520285343414C45292069733A209F
:101CD00025640D000D0A43616C6962726174696F5D
:101CE0006E2076616C756520284F46465345542911
:101CF0002069733A2025640D0A0000003C02002090
:101D0000240200200D0A43616C6962726174696F7C
:101D10006E2076616C756520285452494D292073D8
:101D2000657420746F3A202564200D0A00000000BD
:101D30000D0A43616C6962726174696F6E2076612D
:101D40006C756520285452494D292069733A202525
:101D500064200D0A000000000D0A454550524F4D09
:101D60002063616C6962726174696F6E2064617472
:101D70006120736176656421200D0A000D0A4545D6
:101D800050524F4D2063616C6962726174696F6E6D
:101D90002064617461207361766564205452494DFA
:101DA00021200D0A000000000D0A556E6974207391
:101DB000657420746F2064656661756C742073743B
:101DC0006174652E0D0A00000D0A456E7465726916
:101DD0006E6720626F6F746C6F616465722E2E2E59
:101DE0000D0A000030380240EFBEADDEF01F0020CB
:101DF000440200200D0A53657420486F6E657977A0
:101E0000656C6C204A6F6720576865656C00000040
:101E10000D0A5365742048616D616D61747375209E
:101E20004A6F6720576865656C0000000D0A556EA3
:101E30006B6E6F776E204A6F6720576865656C2000
:101E400053656C6563746564000000000D0A496E9B
:101E500076616C69642056616C69646174696F6E47
:101E600020436F646500000013E100200290FA49EE
:101E700008678866F9484068C86610E07068F849E5
:101E800008620846006A632801DD632008620020BA
:101E9000029004E037E1AAE00020029000BF00BFFA
:101EA00074E200BF162028802820A870287940F00E
:101EB00080002871002704E0002004EB87010860FF
:101EC0007F1C0A2FF8DBE448406E2060E248806EF9
:101ED0006060E148C06EA060DF48006FE0600120F4
:101EE000029053E27788DF4ADF4BD3E900109B680A
:101EF000C2E9020351605422D949DA48103007F090
:101F00004DFF49F65A20D7494866FFF76EFAD7A029
:101F100001F0C4F83AE2E5E1AAE00AE102E0D1E02A
:101F2000F2E065E0B6F802B0B6F804A0D6F8060014
:101F3000CB4948600A46D16C106A03F01CFEBBF125
:101F4000010F03D0BBF1020F1ED10EE0C4480068A0
:101F500040F00200C24908600846006820F0040012
:101F60000860012003F0C2FB0FE0BD48006840F0AC
:101F70000400BB4908600846006820F002000860C1
:101F8000022003F0B3FB00E000BF00BFBAF1010F75
:101F900006D0BAF1020F0FD0BAF1030F24D117E027
:101FA000AF48006840F01000AD490860084600687E
:101FB00020F06000086018E0A948006840F02000A8
:101FC000A74908600846006820F0500008600CE04F
:101FD000A348006840F04000A14908600846006836
:101FE00020F03000086000E000BF00BFCEE100BF7D
:101FF0009B48007800F00600022802D0042806D191
:1020000002E04FF0010B03E04FF0020B00E000BFD5
:1020100000BF9348007800F07000102804D02028FA
:1020200005D0402809D105E04FF0010A06E04FF045
:10203000020A03E04FF0030A00E000BF00BF40F2D5
:10204000DC7028800E20A870287940F0800028716C
:1020500001202080A4F802B0A4F804A080484068C1
:10206000C4F8060000206081A081012002908DE16B
:1020700040F2516028800420A870287940F0800048
:10208000287101202080744880896080012002909E
:102090007CE147F6FF70704948600846C06B20F04D
:1020A0000200801CC8630846C06B20F00100C863B2
:1020B000002008640A20C861694AD16C106A03F0E4
:1020C0005AFD63E1B6F80080B8F11A0F05D2B8F1F5
:1020D000000F02D04FF00A0805E0642008FB00F072
:1020E000FF21B0FBF1F80A20B8FBF0F000EB800014
:1020F0004FEA40085A48C0F820800246D16C106A66
:1021000003F039FD42E100BF5548006AC0EB0020F2
:10211000632190FBF1F840F2D37028800220A87070
:10212000287940F080002871A4F8008001200290F6
:102130002CE140F2DE7028800620A8700020E870B4
:10214000287940F0800028710120208044480089CF
:1021500000B2608044484088A0800120029015E1D0
:102160007088632803DD63203D49086202E07088BF
:102170003B490862B08840B9F08830B941F27070CC
:10218000374988640220C8640EE0F0883449C86486
:10219000B08818B96FF00040886405E0B0884FF44B
:1021A000167148432E4988642D48006A642802DD70
:1021B00064202B4908622A4AD16C106A03F0DBFCC8
:1021C000E4E000BF2648D0F820804FF4FF6028806C
:1021D0001020A870287940F080002871012020800C
:1021E000A4F802801E48806C6FF00041884202D142
:1021F0000020A08006E01A48806C4FF4167190FB16
:10220000F1F0A0801648B0F84C00E080002706E00E
:10221000002104F1080000EB470001807F1C042F1F
:10222000F6DB01200290B1E070880D490863B088A8
:102230008863F1880A4841633189C163D6F80A008E
:1022400007498862D6F80E00C862708A08640120C7
:10225000014948649AE00000A02F002044020020B9
:10226000402F0020D82E0020942F00200D0A53610B
:10227000766564204545506172616D730D0A0000FA
:1022800000BF40F2FB7028802020A870287940F021
:102290008000287101202080EC48008E6080EB488F
:1022A000008FA080E948808EE080E848808F208100
:1022B000E648806AC4F80A00E448C06AC4F80E0020
:1022C000E248B0F840006082002706E0002104F1F7
:1022D000140000EB470001807F1C082FF6DB012073
:1022E000029053E0DA4880780190D848806B01284A
:1022F0000FD1D648006B0A280BD1019800F00100DD
:1023000018B10120FEF71FFA16E00020FEF71BFAB5
:1023100012E0CE48806B02280ED1CC48006B0A2810
:102320000AD1019800F0010018B10020FEF70BFA65
:1023300002E00120FEF707FAC448C06B01280FD164
:10234000C248406B0A280BD1019800F0020018B176
:102350000120FEF727FA16E00020FEF723FA12E02C
:10236000BA48C06B02280ED1B848406B0A280AD17F
:10237000019800F0020018B10020FEF713FA02E005
:102380000120FEF70FFA0020029000BF00BF029864
:1023900048B1287900F0800010B1A878801D00E0D5
:1023A0000620C9F80001029807B0BDE8F08F08B513
:1023B000FDF7E2FF8046B8F1010F01D1012000E0F6
:1023C0000020A4498864FEF796F940B904F0B5FDF1
:1023D00000BFFEF790F90028FBD000F048FEFEF7A2
:1023E00041FB6420FEF7E7FCFEF7FEFBFEF721FC55
:1023F0000020FEF709FE0120FEF7FBFC10209649A5
:10240000086001F00DF802F067FAFEF711FA00F02B
:10241000F1FE01F0BBFE02F07FF803F097F802F046
:10242000B9FD62B6C820FEF7B6FC0120FEF7F1F94F
:1024300004F0A9FEC820FEF7AEFC88A000F02EFE36
:1024400090A000F02BFE85A000F028FE9748837B2B
:10245000C089C0F307229548D0F80E00C0F30741A9
:1024600093A000F01BFE9FED9A0B53EC102B9AA04B
:1024700000F014FEA048006800F4005008B19FA0CE
:1024800000E0A1A00146A3A000F008FE7148806C06
:10249000012801D1A2A000E0A2A00146A3A000F063
:1024A000FDFD00230822D101A64801F095FF00237D
:1024B00068221946A44801F08FFFA348406E49F6F0
:1024C0005A2188420CD19F480068002812DB9D48A1
:1024D000006863280EDC9B4800689C49086009E09E
:1024E00039209A490860974908600822D101954827
:1024F00001F0B5FF012004F0B5FFB8F1010F01D1E3
:10250000022100E00121084605F0F6F907F04CF839
:102510008C484068012802D002280FD106E08020B4
:102520004C4948678AA000F0B9FD16E06FF07F00C3
:10253000484948678DA000F0B1FD0EE0924800F0D8
:10254000ADFD01207F494860082281027D4801F0ED
:1025500086FF80203F49486700BF00BF3D48806C30
:1025600001280FD1894802F017FC894804F0FAFDD0
:102570007649086804F0EFFD7448016885A000F012
:102580008DFD08E03348806C28B9002002F004FC7F
:10259000854804F0E7FD002007F07DF806F020FFF5
:1025A000824805F04FFD4FF4207007F03BF805F02E
:1025B00037FB32207E4909688847634800687D49B7
:1025C00090FBF1F03B2802D07B485F490860322045
:1025D000FEF7E1FB5C48406E49F65A21884234D14F
:1025E000764A594BD3E90110DB68C2E90103116057
:1025F0001046806820B904F026FE71A000F04EFD60
:102600006E48806845F6A521884207D16B484E4B3D
:102610001B1D0ECB0EC0794800F040FD54224A49E4
:1026200010310A4807F0BAFB0848806C28B941F21B
:102630007070064988640220C8647148C06820F040
:10264000800080306E49C860DCE0DFE0402F002071
:1026500040000020A02F0020180402400D0A2D2D5C
:102660002D2D2D2D2D2D2D2D2D2D2D2D2D2D2D2D9A
:102670002D2D2D2D2D2D2D2D2D2D2D2D2D2D2D2D8A
:10268000000000000D0A7C2020204B5347313031E0
:102690002053747261696E204761756765205265C9
:1026A000616465722020207C0000000070BF00087B
:1026B0000D0A0A4669726D77617265207265763A15
:1026C0000925303264253032642530326400000040
:1026D00000000000000065400D0A53797374656DB9
:1026E00020636F726520636C6F636B203D20252E25
:1026F0003266204D487A0000100802406F6E207448
:1027000068652068756200007374616E64616C6F47
:102710006E6500000D0A4D6F64653A202573000058
:102720004C4344004F4C4544000000000D0A4469EE
:1027300073706C617920747970653A202573090A89
:102740000000000044020020D82E00203C0200209F
:102750000D0A486F6E657977656C6C2028312920E9
:102760004A6F6720576865656C0000000D0A486174
:102770006D616D6174737520283229204A6F67205E
:10278000576865656C00000034D500081B710008AF
:10279000017100080D4C434420636F6E74726173C5
:1027A000743A202564090A00D570000808D400088E
:1027B0002402002040420F00C0448403942F0020D4
:1027C0000D0A556E6974206973206E6F7420636101
:1027D0006C696272617465642E2044656661756C13
:1027E000742063616C6962726174696F6E206461E8
:1027F0007461206C6F61646564210D00F0D4000881
:1028000018300020E9A000F049FC02E0F1A000F03F
:1028100045FC02F07DFFF749C86002F01CFFFDF7A0
:1028200071FFF548007800F00600022802D0042865
:1028300008D103E0012002F059FF04E0022002F079
:1028400055FF00E000BF00BFECA000F027FCF348FC
:102850000068012121EA501028B90320E549C86227
:1028600006F0BEFD68E0EEA006F0B1FDF048807B0A
:102870000090EF48C089C0F30723ED48D0F80E0060
:10288000C0F30742EBA1F04806F02CFF0221002024
:1028900005F058FCEC4806F09AFDFEF79DF98246DB
:1028A00001E004F007FDFEF797F981465146FEF777
:1028B00097F9B0F5FA6FF4DB06F092FDCD48C068E9
:1028C000E8B1CC48C0686F280DD0E0A006F07FFDCD
:1028D000C848C0680A21B0FBF1F94A46DFA1DA48CE
:1028E00006F000FF12E0DFA006F071FDDFA1D64880
:1028F00006F0F8FE4FF47A70BE49C86006E0D3A037
:1029000006F065FDDCA1D04806F0ECFE06210020B3
:1029100005F018FCCC4806F05AFDFEF75DF982463A
:1029200001E004F0C7FCFEF757F981465146FEF777
:1029300057F9B0F5FA6FF4DBD249B1F9060000217E
:1029400002F0B7FF00209FEDD00B02F031FFFEF741
:1029500043F9CF49088002F083F947F6FF74A54890
:102960004460A548006A48B90020A349486205F0C0
:1029700052F90020C7490968884709E09E49086A5A
:10298000C4490968884701209B49486205F048F915
:102990006CE3C14802F0DEF80646902E02D1BFA0DB
:1029A000FEF7DAFCBC48D0F80001012816D101215D
:1029B000B94801F03BFAC04A0021B748FEF714FEBF
:1029C0000746012F06D1BC4802F00BF90021BA4896
:1029D00001F02CFA0220B049C1F8000102F019F907
:1029E000FEF701FA00287DD0824890F8580000F0E8
:1029F000010018B140F26160FEF7B7FC7D48006B42
:102A000000280EDD7B4890F83010006B401E794A9C
:102A1000106301F0040010B105F0FDF801E005F0CD
:102A2000FFF803F09AF873494862084690F83C00B2
:102A3000C0F3400000285FD00846C16D914800886F
:102A4000801C81420ADD092D08DD6A484068204467
:102A50006849486099A000F021FB10E06548C16D0D
:102A600088480088401E814209DA092D07DD614847
:102A70004068001B5F49486093A000F00FFB5D4871
:102A8000C16D80480088801C814206DA5948C16DBA
:102A90007C480088801E814201DC012C15D1092D63
:102AA00013DD5448C06B20F002005249C863084649
:102AB000C06B20F00100401CC86387A000F0EEFA54
:102AC00047F6FF7400204B490864092D09DD2046B4
:102AD00004EBD0714C104748006C401C4549086419
:102AE000002500E03FE26D1C424800954368214606
:102AF000026C7BA000F0D2FA03F005F83D49886231
:102B000003F06FF803F098FD04F0A8F93A48806BE1
:102B100001283AD13848006B012836D03648006B7E
:102B20000A2832D03448006B78B33348006B0B3836
:102B3000062839D2DFE800F003111F2EF6F02D48E9
:102B400080682D49896A884203DA0120FDF7FBFD80
:102B500002E00020FDF7F7FD0DE1264880682649D8
:102B6000896A884203DD0120FDF7EDFD02E00020C7
:102B7000FDF7E9FDFFE01F4880681F49C96A8842E8
:102B800004DA0120FDF7DFFD03E0F5E00020FDF7AA
:102B9000DAFDF0E0174880681749C96A884204DD09
:102BA0000120FDF7D0FDBCE0E4E0B7E00D45455065
:102BB000524F4D20636F6E74656E74206C6F61644C
:102BC0006564207375636365737366756C6C7921D6
:102BD0000D0000000D454550524F4D20636F6E743F
:102BE000656E74206E6F74206C6F61646564210D76
:102BF00000000000A02F0020402F00200D0A50727E
:102C000065737320456E74657220666F722064650B
:102C1000627567206D656E752E000000100402401D
:102C200054686F726C616273204B534731303100CE
:102C300070BF000853775265762025303264253006
:102C40003264253032640000A406002053746167AA
:102C5000652074726176656C3A00000025342E316F
:102C600075856D0053746167653A000050474D31BA
:102C700030302D53470000004E6F2073746167653C
:102C800021000000942F0020000000000094D1409B
:102C9000080000202402002040000020496E7661D8
:102CA0006C696420415054206D65737361676520C1
:102CB000666F726D61742E001C1B00200D0A426944
:102CC00067676572210D0A000D0A536D616C6C65B2
:102CD00072210D0A000000000D0A4F4B210D0A0061
:102CE0000D0A537465703A2025642C20697465724E
:102CF0006174696F6E3A2025642C2044414320762C
:102D0000616C75653A20256420636F756E74657219
:102D10003A2025640D0A000018E003E00020FDF7CA
:102D200012FD28E0D9488068D949896A884209DDBE
:102D3000D6488068D649C96A884203DA0120FDF77F
:102D400002FD02E00020FDF7FEFC14E0CF488068A1
:102D5000CF49896A884205DBCC488068CC49C96A7A
:102D6000884203DD0120FDF7EEFC02E00020FDF7C4
:102D7000EAFC00E000BF7BE0C548806B022877D109
:102D8000C348006B012873D0C148006B0A286FD07C
:102D9000BF48006B78B3BE48006B0B38062865D27D
:102DA000DFE800F003111F2E3C50B8488068B84996
:102DB000896A884203DA0020FDF7C5FC02E00120A1
:102DC000FDF7C1FC53E0B1488068B149896A884287
:102DD00003DD0020FDF7B7FC02E00120FDF7B3FCA6
:102DE00045E0AA488068AA49C96A884204DA0020F6
:102DF000FDF7A9FC03E03BE00120FDF7A4FC36E071
:102E0000A2488068A249C96A884203DD0020FDF714
:102E10009AFC02E00120FDF796FC28E09B488068C0
:102E20009B49896A884209DD984880689849C96A3F
:102E3000884203DA0020FDF786FC02E00120FDF75E
:102E400082FC14E0914880689149896A884205DBD8
:102E50008E4880688E49C96A884203DD0020FDF7EC
:102E600072FC02E00120FDF76EFC00E000BF00BF35
:102E70008748C06B012877D18548406B012873D003
:102E80008348406B0A286FD08148406B78B38048F4
:102E9000406B0B38062865D2DFE800F003111F2EC7
:102EA0003C507A4880687A49896A884203DA01206E
:102EB000FDF778FC02E00020FDF774FC53E0734856
:102EC00080687349896A884203DD0120FDF76AFC46
:102ED00002E00020FDF766FC45E06C4880686C4924
:102EE000C96A884204DA0120FDF75CFC03E03BE09C
:102EF0000020FDF757FC36E0644880686449C96AE1
:102F0000884203DD0120FDF74DFC02E00020FDF7C3
:102F100049FC28E05D4880685D49896A884209DD8E
:102F20005A4880685A49C96A884203DA0120FDF785
:102F300039FC02E00020FDF735FC14E053488068BE
:102F40005349896A884205DB504880685049C96AFC
:102F5000884203DD0120FDF725FC02E00020FDF79B
:102F600021FC00E000BF7BE04948C06B022877D11C
:102F70004748406B012873D04548406B0A286FD002
:102F80004348406B78B34248406B0B38062865D203
:102F9000DFE800F003111F2E3C503C4880683C499C
:102FA000896A884203DA0020FDF7FCFB02E0012079
:102FB000FDF7F8FB53E0354880683549896A884257
:102FC00003DD0020FDF7EEFB02E00120FDF7EAFB48
:102FD00045E02E4880682E49C96A884204DA0020FC
:102FE000FDF7E0FB03E03BE00120FDF7DBFB36E013
:102FF000264880682649C96A884203DD0020FDF71B
:10300000D1FB02E00120FDF7CDFB28E01F488068DE
:103010001F49896A884209DD1C4880681C49C96AC1
:10302000884203DA0020FDF7BDFB02E00120FDF736
:10303000B9FB14E0154880681549896A884205DBA8
:10304000124880681249C96A884203DD0020FDF7F2
:10305000A9FB02E00120FDF7A5FB00E000BF00BFD7
:1030600004F028F900F094F800F087FE91E4BFF333
:103070004F8F0848006800F4E06007490843001DCE
:1030800004490860BFF34F8F00BFFEE7A02F002068
:10309000402F00200CED00E00000FA050FB438B519
:1030A00005A800904D4909684D4A12688818009A91
:1030B000049906F005FB0446494800682044484945
:1030C000086000200090204638BC5DF814FB2DE914
:1030D000F04105460E4600274248006808B94248BC
:1030E00005603DE0082C04D00A2C1DD00D2C20D109
:1030F00019E03C480068A8B108213CA0FFF7CEFFCA
:1031000020213AA0FFF7CAFF082138A0FFF7C6FF29
:1031100034480068401E3349086033480068401E48
:10312000314908601BE000BF012700202D490860DD
:1031300015E02C480068B04210D221462BA0FFF7C2
:10314000ADFF294909680C7027480068401C2649D2
:10315000086024480068401C2249086000BF00BF86
:10316000FDF72DFC04464FF6FF718842BAD16FB1CE
:1031700000201D49096808701B480068401C1A4956
:10318000086008460068401BBDE8F0810020FBE7AE
:1031900010B513480068B0B1FDF750FC98B1104865
:1031A00001680E480068FDF726FC0C4800681049CD
:1031B000884202D101F5006000E00D48074908602F
:1031C00000200749086010BD10B500E000BFFDF702
:1031D00035FC0028FAD0FFF7DBFF10BD18000020F7
:1031E0001C00002020000020240000202563000097
:1031F000BC06002008B58548006840F00100834BFC
:10320000186082481430006840F480507F4B1433BB
:1032100018607F48006820F480407D4B1860184695
:10322000006840F4004018601846406820F08000B4
:1032300058601846C06820F44040D860184680683E
:1032400060F4404098601846006A20F0704040F0FA
:10325000A04018621846006820F480601860184684
:10326000006840F4006018601846406820F02000B4
:1032700058601846C06820F44060D86020209861EB
:103280001846806860F4406098601846006A20F430
:10329000700040F4A00018625C48006840F0010033
:1032A0005A4B186010205A4B98611846006840F439
:1032B000807018601846006820F400701860184686
:1032C000406820F0100058601846C06820F4407034
:1032D000D8601846806860F4407098604D488088D7
:1032E00020F040004B4B98801846008820F04000AA
:1032F00018802A23B3FA83F3C3F12001481E382330
:1033000003EAC00242F44170424B1880184680889C
:1033100040F0020098803D48006840F480003B4B3C
:1033200018603D48006820F001003B4B186000E049
:1033300000BF3948006800F001000028F8D14FF4C0
:103340000060354B7C3B18603348006820F06060BB
:10335000314B18601846006840F0C060186018468D
:10336000006840F4806018601846006840F0400033
:10337000186028480C30284B0833186000201B1FA9
:1033800018602448008840F04000224B18801846FE
:103390008089009001208840204BB3FBF0F008BDED
:1033A00008B1102101E04FF48011194A9161704772
:1033B000194A126822F00102174B1A6000E000BFA0
:1033C000154A126802F00102002AF8D1124A0C32A2
:1033D0001060114A121D1160D2140F4B7C3B1A6011
:1033E0000D4A126842F001020B4B1A6070470A48FE
:1033F0008438006800F4006030B10648008900F0AD
:10340000800008B9012070470020FCE730380240F6
:1034100000000240003001408864024000BD010508
:103420003948006840F003003749086037480068B1
:1034300020F08040354908600846006840F00040B0
:1034400008600846C06840F08040C8600846C06810
:1034500020F00040C8600846406A20F0704040F00C
:1034600080512A4841622A48006820F040002849DB
:1034700008600846006840F08000086024480C306E
:10348000006840F0400022490C310860084600689E
:1034900020F0800008601E482030006820F4704052
:1034A00040F480501A4920310860174810300068F5
:1034B00040F001001449103108604FF0FF30090658
:1034C000C8620846008B40F201110843890708834F
:1034D000022008814007008840F001000880704702
:1034E0004FF08040406A70474FF08041098821F0DA
:1034F00001014FF08042118011464862098841F075
:103500000101118070470000303802400000024085
:103510000004024070472DE9F0432DED068B9FB06B
:10352000804600201C901D901E9016271CAAFDA10D
:10353000404606F09BFA00240AE0FB4800EB04102A
:1035400041681CA806F05CFC08B9274602E0641C30
:10355000162CF2DD00BF162F77D2DFE807F00B2222
:103560002A4149606696A4B4BAD3FEFDFCFBFAF981
:10357000F8F7F6F518AAEDA1404606F077FA189983
:1035800009B1012100E000210846FDF7DCF8189898
:1035900008B1012000E000200146E6A0FFF77EFD13
:1035A000D0E3FDF7BDF881464946E9A0FFF776FD77
:1035B000C8E318AADDA1404606F058FA189909B1E7
:1035C000012100E000210846FDF7ECF8189808B149
:1035D000012000E000200146E3A0FFF75FFDB1E31A
:1035E000FDF7CEF881464946E6A0FFF757FDA9E36F
:1035F00018AACEA1404606F039FA189909B101215E
:1036000000E000210846FDF76EF8189808B1E3A025
:1036100000E0E3A00146E3A0FFF740FD92E301F0E4
:1036200085FDE7A0FFF73AFD8CE319AAE9A1404622
:1036300006F01CFAE9480078E949086019A806F084
:1036400049FBE7490873002406E049E319A8015D36
:10365000E348001D0155641C19A806F03BFBA0427D
:10366000F4D80020DE4948738873084601F0DDFE77
:103670000020DC49086019A806F02CFB81464A4668
:1036800019A9D9A0FFF70AFD5CE318AAA7A1404633
:1036900006F0ECF9D1491898087008460178DBA0CB
:1036A000FFF7FCFC4EE318AAA0A1404606F0DEF9A5
:1036B0001899C8B2002101F051FD1898C1B2D9A0E3
:1036C000FFF7ECFC3EE301F0ECFEDDA0FFF7E6FCCB
:1036D00038E318AA95A1404606F0C8F918980128C1
:1036E00003D10005DB49086002E01020D9490860D9
:1036F000189808B9D8A000E0D9A00146DAA0FFF7D1
:10370000CDFC1FE316A817AB18AAE0A10090404615
:1037100006F0ACF91899159861F3154015901799B2
:10372000159861F30E201590DDE9150161F306008F
:1037300015901598FDF76DFC159800F07F03C0F308
:103740000622C0F3054109E099E261E24AE235E26E
:1037500026E2FFE1E5E1D1E145E009E0CEA0FFF797
:103760009DFCD6A0FFF79AFC0220D5490860E9E24B
:1037700016A817AB18AAC5A10090404606F076F926
:103780001899159861F3154015901799159861F3DC
:103790000E201590DDE9150161F30600159000215A
:1037A0001598FDF75AFCC7480069042808D1002085
:1037B000FCF7F8FFC448C34948610120886107E06D
:1037C0000020FCF7C0FFC148BE4948610120886164
:1037D000159800F07F03C0F30622C0F30541BCA09A
:1037E000FFF75CFCAEE218AA50A1404606F03EF995
:1037F000C0480468BF48283800681690BD4824387F
:103800000068169815901598C0F303401599C1F3F8
:10381000015101EB810100EB410017901598C0F3B5
:1038200003201599C1F3023101EB810100EB410046
:103830001690159800F00F001599C1F3021101EBD5
:10384000810100EB41054FF46161179848431699D7
:10385000C1EB011100EB810028441899084418902D
:10386000A549189890FBF1F201FB120018904FF453
:103870006161189890FBF1F017900A21179890FB5E
:10388000F1F1159861F3155015900A21179890FBE6
:10389000F1F201FB1201159861F3134015904FF4FA
:1038A0006161189890FBF1F201FB120017903C2126
:1038B000179890FBF1F01690179890FBF1F201FB2E
:1038C00012050A21169890FBF1F1159861F30E305C
:1038D00015900A21169890FBF1F201FB1201159840
:1038E00061F30B2015900A2095FBF0F1159861F318
:1038F000061015900A2095FBF0F100FB1151159868
:1039000061F30300159021461598FDF7A6FB159865
:1039100000F07F03C0F30622C0F305416CA0FFF75F
:10392000BDFB0FE225397300E0BA0008252A732594
:10393000640000000D0A5472696720492F4F20234C
:10394000312073657420746F2025640D0A00000017
:103950000D0A5472696720492F4F20233120697363
:103960002025640D0A0000000D0A54726967204981
:103970002F4F2023322073657420746F2025640D2F
:103980000A0000000D0A5472696720492F4F202356
:10399000322069732025640D0A0000006F6E00005C
:1039A0006F6666000D0A43414E207465726D696E44
:1039B0006174696F6E2069732025730D0A00000021
:1039C0000D0A43414E20737461727465642E0D0AB2
:1039D00000000000252A73253873000038000020FD
:1039E0000C170020300000200D0A43414E206D735B
:1039F000672073656E743A20222573222C2025647B
:103A00002062797465732E0D0A0000000D0A43418F
:103A10004E2049442073657420746F2025640D0A7C
:103A2000000000000D0A43414E2052782066696C68
:103A30007465722025642061646465642E0D0A003B
:103A40000D0A43414E2073746F707065642E0D0A29
:103A50000000000018080240696E707574000000D4
:103A60006F757470757400000D0A53796E63682069
:103A700070696E2069732073657420746F206265AD
:103A800020616E2025730D0A00000000252A732591
:103A900058202558202558000D0A52544320746997
:103AA0006D652073657420746F20253032583A2577
:103AB0003032583A25303258000000000D0A00001C
:103AC00034000020A02F0020A507000847070008A9
:103AD0000D0A52544320616C61726D20736574202D
:103AE000746F20253032583A253032583A2530321A
:103AF00058000000282800408051010018AAAFF2A9
:103B0000D411404605F0B2FF1898FDF709FA18984D
:103B100008B1F0A000E0F1A00146F2A0FFF7BEFA64
:103B200010E118AAAFF2FC11404605F09FFF18986B
:103B300001F000FF40B9F149189808610846016991
:103B4000EFA0FFF7ABFA04E0EC480169F3A0FFF740
:103B5000A5FAF7E016A817AB18AAAFF2D0010090AB
:103B6000404605F083FF1899159861F315401590AC
:103B70001799159861F30E201590DDE9150161F391
:103B8000060015901598FDF73FFA159800F07F0391
:103B9000C0F30622C0F30541ECA0FFF77FFAD1E0A5
:103BA000F448006800F0200010B9F3A0FFF776FA9F
:103BB0004FF48010EF4908310860C3E018AAAFF253
:103BC0009421404605F052FF189801F08FFD189897
:103BD000012801D1F2A000E0F4A00146F6A0FFF711
:103BE0005DFAAFE018AAAFF2BC21404605F03EFFF7
:103BF0006422189901FB02F007F0DDFD41EC190B7E
:103C00000A20B0EE490AF0EE690A01F0D1FD99E010
:103C1000BA4890ED000AF8EEC00AEE48008800EEBF
:103C2000100AB8EE400A70EEC00A9FEDEB1A81EE62
:103C3000200ADFEDEA0A20EE208A18EE100A07F0CB
:103C4000CFFE41EC1A0B53EC1A2BE5A0FFF726FA36
:103C500018EE100A07F0EFFE00F310063146E5A05B
:103C6000FFF71CFAA5480168E9A0FFF717FAEE482C
:103C70008168EEA0FFF712FAD6494E8062E018AADA
:103C8000AFF25831404605F0F1FE1898012802D0F5
:103C900002281FD10EE08020984948670120EB4997
:103CA000486008228102E94800F0D9FBE8A0FFF74C
:103CB000F5F913E06FF07F00904948670220E3496F
:103CC000486008224102E14800F0C9FBE7A0FFF785
:103CD000E5F903E0ECA0FFF7E1F900BF00BF00BF8A
:103CE0000020F1490860F1A0FFF7D8F9002423E093
:103CF000F14800EB04108068007840B9EE4800EB12
:103D00000410EEA1426801A805F0ECFC0BE0EA48C3
:103D100000EB04108368E84800EB0410E8A1426857
:103D200001A805F0DFFCE44800EB041001A9C2681B
:103D3000E5A0FFF7B3F9641C162CD9DBE5A0FFF76B
:103D4000ADF900BF00BF1FB0BDEC068BBDE8F0832E
:103D500010B54F21E048FFF7BAF9044654B104E02A
:103D600000222046641CDC490A544F2CF8DDDA4856
:103D7000FFF7D1FBFFF70CFA10BDFEB5FFF7E8FF28
:103D8000FFF7C8FB01F0A9FA051E13D0002404E0D8
:103D9000281D005D0DF80400641C287BA042F7DCA0
:103DA0000021601C0DF800102A7B6B46CBA029680F
:103DB000FFF774F901F0AEFB06464EB1D04800683B
:103DC00030B93146CFA0FFF769F90120CC4908602E
:103DD000FEBD00B585B0B448007800F00200C0B167
:103DE000D04800680290CF48283800680490CD4839
:103DF000243800680390049801900298009001987C
:103E000000F07F03C0F30622C0F30541C6A0FFF710
:103E100045F905B000BD10B5CC48006820F08050D1
:103E2000CA490860CAA0FFF739F910BD2DE9F0476B
:103E300005460C46002628881FFA80F9012C05D17A
:103E4000CB480068022801D1012000E00020064391
:103E5000012C09D1C6480068012805D140F26260F2
:103E6000814501D0012000E0002006432CB9C04864
:103E70004068022801D1012000E0002006434CB92F
:103E8000BB484068012805D140F26160814501D0FE
:103E9000012000E000200643012E19D1012C01D1A0
:103EA000B4A100E0B5A10846FFF7F8F8287900F0C2
:103EB000800008B1A87800E0002000F10608002783
:103EC00004E0E95DAFA0FFF7E9F87F1C4745F8DBA8
:103ED000BDE8F0876D61737465720000736C617684
:103EE000650000000D0A5254432073796E636865C3
:103EF000642061732061202573000000A02F002042
:103F00000D0A53796E6368206D6F64652073657464
:103F100020746F2025642E0D0A0000000D0A496EE2
:103F200076616C696420706172616D657465722C74
:103F30002073796E6368206D6F64652072656D61B2
:103F4000696E732025642E0D0A0000000D0A52547C
:103F5000432077696C6C20737461727420617420E3
:103F6000253032583A253032583A253032580D0A29
:103F700000000000100402400D0A55736520706FA8
:103F800077657220627574746F6E20746F2074751B
:103F9000726E2063756265206F66662E0D0A0000E2
:103FA0006368616E6E656C20410000006368616E3D
:103FB0006E656C20420000000D0A53656C656374E9
:103FC0006564206368616E6E656C2069732025737B
:103FD000200D0A00942F00200000004800409C465D
:103FE0000D0A66706172616D3A20252E3366200DD0
:103FF0000A0000000D0A4D61676963206E756D62ED
:1040000065722069733A202564200D0A00000000C3
:104010000D0A4144432072656164696E67206973CB
:104020003A202564200D0A00402F00200D0A506F11
:10403000736974696F6E2072656164696E67206967
:10404000733A202564200D0A00000000440200207D
:104050000D0A53657420486F6E657977656C6C2026
:104060004A6F6720576865656C0000000D0A53654C
:10407000742048616D616D61747375204A6F6720AB
:10408000576865656C0000000D0A556E6B6E6F77A2
:104090006E204A6F6720576865656C2053656C65B4
:1040A0006374656400000000340000200D0A4D6553
:1040B0006E753A0A00000000E0BA000825733A0065
:1040C00025732025733A00000D0A252D3130730920
:1040D000257300000D0A3E00BC1600200D0A434166
:1040E0004E2052782066726F6D2025642C20256446
:1040F0002062797465733A20222573220D0A00002C
:10410000300000200D0A43414E206572726F723AF2
:1041100020737461747573203D20307825582E0DFE
:104120000A000000282800400D0A53796E636820B9
:1041300054696D65203D20253032583A253032587B
:104140003A253032582E25640000000004ED00E0CE
:104150000D0A46656174757265206E6F742079650D
:104160007420696D706C656D656E74656421000006
:10417000280000200D0A52783A2000000D0A5478D9
:104180003A200000253032582000000018B58C4835
:10419000006840F002008A490860894810300068D1
:1041A00040F480408649103108608648006820F05D
:1041B0008040844908600846006840F0004008607C
:1041C000081D006820F40040091D08607D480C307F
:1041D000006820F040407B490C310860081F0068EF
:1041E00060F04040091F08607648406A20F0704047
:1041F00040F0A04173484162006820F0806071493E
:1042000008600846006840F000600860081D00680B
:1042100020F40050091D08606A480C30006820F046
:10422000406068490C310860081F006860F0406019
:10423000091F08606348406A20F4700040F4A00140
:1042400060484162006820F080505E49086008467E
:10425000006840F0005008605A480C30006840F098
:10426000805058490C3108600846006820F0005022
:1042700008605448406A20F0706040F0A0615148E6
:1042800041624F48006840F004004D4908608815BD
:104290004D4908604C481838006840F480304A495D
:1042A000183908600846006820F400300860081DCE
:1042B000006820F48070091D086043480C380068CD
:1042C00020F4403040490C390860081F006860F451
:1042D0004030091F08603D48008820F040003B49FD
:1042E0000880081F008820F04000091F088040F661
:1042F000143008800846008840F040000880081DFF
:10430000008840F04000091D088024200121002879
:1043100007DA0A07140E2E4A00F00F031B1FD454AD
:1043200003E00A07130E2B4A135400BF242000F0A9
:104330001F02012191404209920002F1E022C2F8DD
:10434000001100BF214808300088009018BD10B14E
:104350004FF4807101E04FF080711B4A116070478B
:1043600008B1802101E04FF40001174A1160704745
:10437000014600E000BF154A121D128802F0020239
:10438000002AF7D0114B0833198000E000BF0F4A14
:10439000121D128802F00102002AF7D00B4A0832DF
:1043A000128810B2704710B504460020FFF7CFFF07
:1043B0002046FFF7DDFF0120FFF7C9FF10BD000019
:1043C000303802400004024018080240043800401F
:1043D00018ED00E000E400E02DE9F05F81460C46B6
:1043E00017469A464FF0010B4E46E019B0F5006FA4
:1043F00002D30120BDE8F09F002000F0B3F90320B4
:1044000000F0B8F9C4F3072000F0B4F9E0B200F00E
:10441000B1F94FF0000816E0002000F0ABF90546B6
:10442000BAF1000F02D106F8015B0AE0BBF1000F00
:1044300005D016F8011BA94201D1012000E000209F
:10444000834608F10108B845E6D3012000F08AF957
:10445000BBF1010F01D00120CCE70020CAE72DE914
:10446000F05F81460D461646A819B0F5006F02D3DD
:104470000120BDE8F09FC8462C4644E004F01F0729
:10448000AC4200D0AFB9002000F06CF9062000F07B
:1044900071F9012000F066F9002000F063F90220B4
:1044A00000F068F9C4F3072000F064F9E0B200F00E
:1044B00061F918F8010B00F05DF91F2F03D0A8195E
:1044C000401EA0421ED14FF0000B012000F04AF91F
:1044D00000BF002000F046F9052000F04BF9002055
:1044E00000F048F98246012000F03CF958460BF1F3
:1044F000010BB0F57A7F01D90220BAE70AF001007A
:104500000028E6D1641CA819A042B7D8012000F009
:1045100029F90120ADE7000008B5E948006840F03E
:104520000400E74908600846006840F00800086099
:10453000E3481030006840F40040E1491031086061
:10454000E048006820F08070DE4908600846006896
:1045500040F000700860081D006820F48050091DBC
:104560000860D8480C30006820F04070D5490C3104
:104570000860081F006860F04070091F0860D1489B
:10458000406A20F4702040F4C021CE4841620068A7
:1045900020F48010CB4908600846006840F4001001
:1045A0000860081D006820F48060091D0860C54887
:1045B0000C30006820F44010C2490C310860081F1C
:1045C000006860F44010091F0860BE48406A20F48B
:1045D000706040F4C061BB484162006820F4800014
:1045E000B84908600846006840F400000860B54813
:1045F0000C30006840F48000B2490C310860084675
:10460000006820F400000860AE48406A20F4704062
:1046100040F4C041AB4841620420AB490860AA485D
:104620001838006840F01000A7491839086008469B
:10463000006820F020000860081D006820F00400D9
:10464000091D0860A0480C38006820F030009E4921
:104650000C390860081F006860F03000091F08600E
:1046600040209849183108609648006840F480500E
:10467000944908600846006820F400500860081D4E
:10468000006820F04000091D08608E480C3000686A
:1046900020F440508B490C310860081F006860F41A
:1046A0004050091F0860042088490860874818386E
:1046B000006840F010008549183908600846006815
:1046C00020F020000860081D006820F00400091D8B
:1046D00008607E480C38006820F030007B490C39B7
:1046E0000860081F006860F03000091F08604FF084
:1046F0008070774988610846006840F4003008609F
:104700000846006820F4803008600846406820F4BD
:10471000807048600846C06820F44030C860084691
:10472000806860F4403088600846406A20F00F00DE
:1047300048626848008820F0400066490880081FE9
:10474000008820F04000091F08804FF4497008805D
:104750000846008840F0400008805E480830008825
:10476000009008BD08B1042101E04FF48021564AB1
:1047700011607047014600E000BF564A121D1288C2
:1047800002F00202002AF7D0524A0832118000E0FB
:1047900000BF504A121D128802F00102002AF7D011
:1047A0004C4A08321288D0B2704708B1402101E06B
:1047B0004FF48001434A18321160704708B1042158
:1047C00001E04FF48021414A1160704708B541482B
:1047D000008820F040003F490880081F008820F032
:1047E0004000091F08800846008820F00200088069
:1047F0000846008820F0010008800846008820F460
:10480000006008804FF4497008800846008840F036
:10481000400008802F4808300088009008BD08B587
:104820002C48008820F040002A490880081F008892
:1048300020F04000091F08800846008840F44970B5
:1048400008800846008840F4006008800846008818
:1048500040F0020008800846008840F040000880D0
:104860001C4808300088009008BD08B51948008829
:1048700020F0400017490880081F008820F0400001
:10488000091F08800846008820F0020008800846BA
:10489000008820F0010008800846008840F4497034
:1048A00008800846008840F40060088008460088B8
:1048B00040F040000880074808300088009008BD9C
:1048C0003038024000080240180C02401804024030
:1048D00000000240043C00409748006840F010008F
:1048E00095490860944814380068944908439249EF
:1048F000143908609248006820F4802090490860CC
:104900000846006840F4002008600846406820F42B
:10491000007048600846C06820F44020C86008461F
:10492000806820F4402088600846406A20F0F0004B
:1049300040F0700182484162006820F48010804994
:1049400008600846006840F4001008600846C06827
:1049500020F40010C8600846C06840F48010C860A9
:104960000846406A20F4706040F4E0617448416297
:10497000C002734988610846006840F08070086092
:104980000846006820F0007008600846806840F023
:10499000407088600846006820F4400008600846BF
:1049A000C06820F40000C8600846C06840F4800079
:1049B000C86040F2D92063490881002008828882BB
:1049C0000846808940F4005088810846808A40F07B
:1049D000C00088825C48006820F001005A490860E5
:1049E00000E000BF5848006800F001000028F8D13E
:1049F0005548006820F06060534908600846006828
:104A000040F0006008600846006840F48860086074
:104A10004C48001D4C49083108600020091F0860FF
:104A200049487838006820F0010047497839086023
:104A300000E000BF44487838006800F0010000281A
:104A4000F7D141487838006820F060603E497839F5
:104A500008600846006840F000600860084600688A
:104A600040F4A06008603748001D3749703908607D
:104A70003648091D08600815334974390860314803
:104A8000008820F040002F4908800846808940F0C7
:104A90000C0088812C487838006840F001002A49D1
:104AA000783908607047284974390968C1F5806110
:104AB000274A1268914202D14FF6FF700FE0244955
:104AC0000A680968491C224B19602049885C19460C
:104AD0000968B1F5806F02D100211A461160704754
:104AE000194A126822F00102174B1A6000E000BF59
:104AF000154A126802F00102002AF8D1124A0C325B
:104B00001060114A121D11600E4A128822F04002F4
:104B10000C4B1A804FF000620B4BAC3B1A600A4AF8
:104B2000126842F00102084B1A607047054800887D
:104B300000F040007047000044380240010040008F
:104B40000000024000100140B86402401C17002021
:104B50003C00002070B504460126D4F8000102286C
:104B600001D0022070BD2FE0384802680068401C68
:104B7000364B1860A55418460068062817D12079CE
:104B800000F0800008B1A07800E00020801D3049CE
:104B90000860207900F07F00502806D16079012854
:104BA00003D108460068802801D99020DAE7274819
:104BB000006827490968884206D100202349086017
:104BC0000120C4F800010326D4F80001012806D012
:104BD000FFF769FF05464FF6FF718842C4D13046A2
:104BE000C0E730B5D0F8003102461A4C24681A4D9F
:104BF0002D686119184C24681C44174D2C6003E083
:104C000012F8014B01F8014B1C1EA3F10103F7D16F
:104C100030BD10B510480068B0B1FFF787FF98B1FC
:104C20000D4801680B480068FFF75AFF0948006803
:104C30000A49884202D101F5807000E00748054921
:104C4000086000200449086010BD00004C010020ED
:104C5000500100204401002048010020201C0020B9
:104C600010B5B748006840F00400B54908604FF43B
:104C70000000B4490860B3481838006820F4804048
:104C8000B049183908600846006840F400400860E0
:104C9000081D006820F08000091D0860A9480C3834
:104CA000006820F44040A7490C390860081F0068DC
:104CB00040F44040091F0860A2480830006820F016
:104CC000704040F000509F49083108609C48103007
:104CD000006840F002009A491031086053209A4958
:104CE00008803120091D08600520974910310860AF
:104CF00095481038008840F4C04093491039088026
:104D000091480838008840F010008F490839088021
:104D10008D481438008840F001008B491439088010
:104D200089481C38008840F0040087491C390880F5
:104D300085482838008840F00100834928390880D8
:104D400003200246814B19684FF6FF031940804B40
:104D50000B4343EA02217D4B196000BF1D20012156
:104D6000002808DA0A07140E784A0C3200F00F0304
:104D70001B1FD45403E00A07130E764A135400BFD6
:104D80001D20012181404209920002F1E022C2F877
:104D9000001100BF10BD704710B501466A481C38AD
:104DA000008820F00400684A1C3A1080101D00881A
:104DB00020F00100121D10801D2001228240664B50
:104DC000440943F8242000BF11B16448016002E0A7
:104DD0006348624A10605C481C38008840F0040058
:104DE000594A1C3A108010BD10B557481838008831
:104DF00020F004005449183908805848006880475A
:104E000000205849088010BD08B5002000904D488A
:104E1000001F006800F4807000287DD05148008891
:104E200051490860084690ED000AB8EEC00A4F48A4
:104E300080ED000A90ED000ADFED4D0A20EE200A19
:104E40004C48D0ED000AF8EEE00A9FED4B1A01EE57
:104E5000200ABDEEC00A80ED000A90F8440000F080
:104E60000100C0B100204549086045490860454936
:104E700008600AE000204449424A126841F82200D2
:104E800040480068401C3F4908604048006C3D496C
:104E900009688842EEDC0020364948643A483749C0
:104EA000096850F8210036490968081A3449086031
:104EB00008460068002802DA00202E4908662D48BE
:104EC00000682F49096808442D490860294801688D
:104ED0002A4802680068401C284B18602A4840F89D
:104EE00022102A48006C19460968884202D1002025
:104EF000194608602548006C2149096891FBF0F0CB
:104F00001C49C8651E4800680866C96D204A128899
:104F1000881A00EBD07100E00AE049101B4A91604A
:104F20000020FFF714FA134880880E49088005E036
:104F30000C48008800900120FFF709FA08BD000026
:104F40003038024018080240280400400CED00E010
:104F50000000FA0500E400E080E200E054010020D7
:104F6000974D00080C3800407C010020740100209F
:104F70000AD7233CA02F0020A4707D3F8C01002085
:104F80008801002084010020201E0020402F0020E6
:104F9000942F00202DE9F0410020FB490860486073
:104FA0008860FA49086048608860F948006840F005
:104FB0000200F7490860F748006820F48020F549AE
:104FC00008600846006840F400200860081D00687A
:104FD00020F40070091D0860EE480C30006820F4D1
:104FE0004020EC490C310860081F006840F4402064
:104FF000091F0860E748406A20F0F00040F0900187
:10500000E4484162006820F48030E24908600846C4
:10501000006840F400300860DE480C30006820F47E
:105020004030DC490C310860DA48406A20F00F005B
:1050300040F00901D7484162D5481030006840F07F
:105040000070D34910310860D1481038006840F032
:105050000070CF491039086000E000BFCC4810381C
:10506000006800F000700028F7D0C94810380068C8
:1050700020F00070C649103908600120C649086058
:105080000320C549143108602A241520B4FBF0F828
:10509000B4FBF0F100FB114010B10120BDE8F0813C
:1050A0000E25681CC0F11506771E0FB90120F5E723
:1050B000B9481C300068B9490840B7491C3108603C
:1050C000781E4FF0407101EA0060711E4FF4E0025B
:1050D00002EA01510843691E4FF4702202EA0141BD
:1050E0000843A8F10101C1F309010843AA491C3191
:1050F00009680843A8491C310860132000F00EFA23
:10510000142000F00BFA0020C8E7A3491C310968FD
:1051100021F04041A04A1C3211601146096800F09C
:10512000404211439C4A1C32116070479A48006803
:1051300020F001009849086000E000BF9648006830
:1051400000F001000028F8D100E000BF92480830CC
:10515000006800F080600028F7D0704730B5024644
:105160000B4600218E4800880D2801DD012030BD4E
:105170000BB9012000E0002018B1002040EA4250A5
:1051800001E0D000001D01438648006840F00100A6
:10519000844C206083481C300068814C25780124B1
:1051A000AC40A0437F4C1C3420607E480C3000682B
:1051B0007B4C25780124AC4020437A4C0C34206091
:1051C0007848001D0068764C25780124AC402043C7
:1051D000744C241D206073484030714C248840F882
:1051E00034106F4C248800EBC40041606D481430CB
:1051F00000686B4C25780124AC40A043694C143402
:10520000206068481C300068654C25780124AC405B
:105210002043644C1C3420606248006820F0010088
:10522000604C20605E480088401C5D4C208000205F
:105230009DE759490C31096801F0030100294BD061
:1052400051494A684968491C4F4B596003F10C01A8
:1052500001EB021053495039096801F0040151B9BA
:10526000002141734F495039096840F2FF7202EA48
:105270005151016008E0012141734A4950390968E0
:10528000494A02EAD1010160464950390968C1F32F
:105290004001817343494C39096801F00F010173E2
:1052A00040494839096841603E4944390A6882608A
:1052B00035494968082902D10021334A51603249F1
:1052C0000968491C304A116033490C31096841F0C2
:1052D0002001314A0C32116070472F49143109689E
:1052E00021F002012C4A143211602749096809B9DA
:1052F000002015E024498A688968491C224B99607E
:1053000003F10C0101EB02100C398968082902D164
:1053100000211A4691601C490968491E1A4A116009
:105320001D491431096841F002011B4A1432116011
:10533000704719490831096801F00101002973D04B
:1053400015491431096821F00101134A1432116022
:105350000E490968002967D00C498A688968491C88
:105360000A4B996003F10C0101EB021000210D4A78
:10537000803A116011460A68417BB9B9018800235F
:1053800043EA415115E00000C02D00204C2E0020C2
:1053900030380240000402400064004000FC80FC01
:1053A0009401002000660040FFFF03000168C9006F
:1053B000091D0A435F490A600968827B0AB9002215
:1053C00000E0022211435B4A11605A4908314268E9
:1053D0000A60091D82680A605649091D096821F0A2
:1053E0000F025449091D0A600968027B02F00F028E
:1053F0001143504A121D11604F49096841F00101E3
:105400004D4A11604B49096841F00101494A116058
:105410004A498968082902D10021484A91604749D0
:105420000968491E454A1160704770B50146424AF5
:10543000126822F00102404B1A60404A1268082AA2
:1054400001D3012019E03D4A53685268521C3B4C7D
:10545000626004F10C0202EB031391E8740074C360
:10546000364A5268082A02D10022344B5A60334A25
:105470001268521C314B1A6000202F4A126842F009
:1054800001022D4B1A602E4A1268012A08D1294ABE
:10549000126842F00102274B1A600022284B1A6062
:1054A00070BD2548006820F001002349086000BF56
:1054B00021480C38006840F080001F490C39086012
:1054C0000846006800F080000028F1D10846006816
:1054D00020F0010008601848001D006819490840C4
:1054E0001549091D0860002014490860486088605B
:1054F000012013490860132001218140124A430909
:1055000042F8231000BF0C48006840F001000A492F
:10551000086070470848001D0068704700F01F02CF
:10552000012191404209920002F1E022C2F80011EB
:105530007047000080650040146400404C2E00203D
:10554000900100208CFF00FF80E200E05F480068CF
:105550005F4908435D4908605E48006840F0030009
:105560005C4908605B480C30006820F00300594932
:105570000C3108605748006840F4406055490860A5
:1055800054480C30006820F4406052490C310860E7
:105590004E481430006840F480704C491431086063
:1055A0004D48006840F440304C49C1F8040340F2D3
:1055B000033088604A48C8600846C06A20F470001A
:1055C000C8620846C06A40F48010C86240F24F10BA
:1055D00048634448006820F001004249086000E048
:1055E00000BF4048006800F001000028F8D13D48A5
:1055F000006820F060603B4908600846006840F49D
:105600005060086035484C303649083108603648EB
:10561000091D086002203349091D08602F484068B1
:1056200040F480702D4948600846406820F00070C2
:1056300048600846406840F080704860294800682B
:1056400040F00100274908602448806840F080400D
:105650002249886070472348006820F001002149F2
:10566000086000E000BF1F48006800F0010000284B
:10567000F8D11A48806820F001001849886008466F
:10568000C06A20F47000C8620846C06AC86201207F
:105690001449091D08600F201049486308468068B6
:1056A00040F0010088600F48006840F001000D499B
:1056B00008600A48806840F0804008498860704768
:1056C0000146094830F811007047000030380240A8
:1056D0000400400000080240042301400020014073
:1056E00007800300706402409601002010B5044654
:1056F000012C02D0022C08D103E00120FBF76EF848
:1057000004E00020FBF76AF800E000BF00BF10BD16
:1057100070B50020FFF7D4FF4FF47A7100FB01F55C
:105720000120FFF7CDFFB5FBF0F4322C01D2C820E9
:1057300070BDF32C01D26420FAE7B4F5AB7F02D838
:105740004FF49670F4E7B4F5D97F02D24FF4C870E5
:10575000EEE7B4F5037F02D24FF4FA70E8E740F2C7
:105760005B20844201D2C01EE2E740F292208442D4
:1057700002D24FF4FA60DBE740F2C320844202D247
:105780004FF44870D4E740F2E620844201D29620DC
:10579000CEE740F21630844201D26F20C8E740F2D3
:1057A0005230844202D24FF47A70C1E70020BFE742
:1057B0002DE9F0412DED068BB0EE408AF0EE608AC7
:1057C00005469FED570B53EC102B51EC180B06F0D0
:1057D00009F841EC1A0B9FED540B53EC102B05F01C
:1057E00063FE41EC190B05F0B7FF0446C4F30D004E
:1057F00000F5804006B2A40BC4F30D0000F5804014
:1058000007B228034FF4B471B0FBF1F808F5404833
:10581000FFF705F80020FEF7C8FF4FF40450444995
:1058200008800120FBF7B7FA0120FEF7BEFF052034
:10583000FBF7B1FA0020FEF7B8FF3D490E800120CA
:10584000FBF7A9FA0120FEF7B0FF0520FBF7A3FA4A
:105850000020FEF7AAFF36490F800120FBF79BFAD4
:105860000120FEF7A2FF0520FBF795FA0020FEF7C6
:105870009CFF4FF440402E4908800520FBF78BFA2F
:105880000120FEF792FF0520FBF785FA0020FEF7C6
:105890008CFF4FF40050264908800520FBF77BFA67
:1058A0000120FEF782FFFEF791FFBDEC068BBDE8FD
:1058B000F08170B504460D460120FEF753FF01202C
:1058C000FEF773FFFEF7D1FF0020FEF777FF0A20F7
:1058D000FBF761FA84F3080415B915490C8012E04E
:1058E00013490C800A20FBF756FA0120FEF766FFE9
:1058F0000A20FBF750FA0020FEF760FFA0B240F448
:1059000000500B4908800A20FBF745FA0120FEF7FA
:1059100055FF0A20FBF73FFAFEF758FF70BD000065
:10592000000000000000B0410000000060E34641BC
:105930000C3C004070B504460025062C7ED2DFE802
:1059400004F0031E446181B1FE48006840F48040C9
:10595000FC4908600846006820F400400860FA48E6
:10596000008820F00100F84908801020F7490860FD
:10597000C003F74988610020FBF73BFAC0E0F1481B
:10598000006840F48040EF4908600846006820F451
:1059900000400860EC48008820F01100EA490880C7
:1059A000E9482038008820F00100E74920390880C4
:1059B0001020E6490860C003E54988610003E34917
:1059C00008600420E24988619AE0DE48006840F4FB
:1059D0008040DC4908600846006820F40040086008
:1059E0000820DB4988614004D849086040110860FC
:1059F0000420D7498861D448008840F00100D2498A
:105A000008807DE0CF48006840F48040CD490860C0
:105A10000846006820F400400860CB48008820F069
:105A20000100C94908801020C8490860C003C8495E
:105A300088610011C5490860042000E05EE0C449A7
:105A400088615DE04FF48030C0490860BF48183875
:105A5000006840F00100BD49183908600846006838
:105A600020F002000860B748006820F48040B54983
:105A700008600846006840F4004008604FF4801059
:105A8000B24908600820B24988610003AF49086044
:105A90000420AF498861AC48008840F01100AA4951
:105AA00008802DE0A748006840F48040A5490860C0
:105AB0000846006820F400400860A44818380068D0
:105AC00020F0C000A1491839086001209F490860F2
:105AD0009E481838006840F001009C491839086059
