:020000040800F2
:10000000B004012019030008370300083903000871
:100010003B0300083D0300083F0300080000000008
:100020000000000000000000000000004103000884
:1000300043030008000000004503000847030008D0
:100040004903000849030008490300084903000860
:100050004903000849030008490300084903000850
:100060004903000849030008490300084903000840
:100070004903000849030008490300084903000830
:100080004903000849030008474E000849030008D7
:100090004903000849030008490300084903000810
:1000A0004903000849030008490300084903000800
:1000B000F72F000849030008490300084903000816
:1000C00049030008490300084903000849030008E0
:1000D00049030008490300084903000849030008D0
:1000E00049030008490300084903000849030008C0
:1000F00049030008490300084903000849030008B0
:10010000490300084903000849030008490300089F
:100110004903000849030008253000084903000886
:10012000490300084903000849030008490300087F
:10013000490300084903000849030008490300086F
:10014000490300084903000849030008490300085F
:10015000490300084903000849030008490300084F
:10016000490300084903000849030008490300083F
:10017000490300084903000849030008490300082F
:10018000490300084903000800F002F800F0B2F843
:100190000AA090E8000C82448344AAF10107DA45E2
:1001A00001D100F0A7F8AFF2090EBAE80F0013F082
:1001B000010F18BFFB1A43F001031847A07101009B
:1001C000C07101000A444FF0000C10F8013B13F01D
:1001D000070408BF10F8014B1D1108BF10F8015BA0
:1001E000641E05D010F8016B641E01F8016BF9D193
:1001F00013F0080F1EBF10F8014BAD1C0C1B09D1EA
:100200006D1E58BF01F801CBFAD505E014F8016B5B
:1002100001F8016B6D1EF9D59142D6D370470000ED
:100220000023002400250026103A28BF78C1FBD8FF
:10023000520728BF30C148BF0B6070476E2911F0CC
:10024000D381702911F02382662914F0E78665298D
:1002500014F0E486672914F0E1866129AFF3008089
:1002600003681B0A28BF41F08001692911F08081D1
:10027000642911F07D81752911F07A816F2912F0BE
:100280004C80782911F0EF81E92911F0E787E42902
:1002900011F0E487F52911F0E187EF2912F0498088
:1002A000F82911F0EE810368DB0928BF41F08001D5
:1002B000632911F06887732911F06D87E32912F023
:1002C000A383F32912F0A883002070471FB514F010
:1002D0001EFE12F0F9FA04000020002114F024FAA6
:1002E000401C60600020002114F008FAE0601FBD8F
:1002F00010B510BD12F0E4FD1146FFF7E7FF00F066
:100300009BFD13F035F803B4FFF7F2FF03BC13F0C5
:100310004BF8000040BA70470F481049026800606F
:100320008A4203D00E4880470E4800470E48D0F856
:1003300000D040680047FEE7FEE7FEE7FEE7FEE785
:10034000FEE7FEE7FEE7FEE7FEE700000748084994
:10035000084A094B70470000F01F0020EFBEADDED9
:10036000651B0008890100080000FF1FB0FE002087
:10037000B0040120B0000120B000012030B502F42B
:100380008053FBB903684D000324AC40A3430360D2
:10039000C3684D000324AC40A343C36002F00103D3
:1003A00033B1C3684D000124AC402343C36036E041
:1003B00002F002039BB3C3684D000224AC40234308
:1003C000C3602CE002F4007313B101238B4002E000
:1003D0004FF480338B40836102F4807323B1436810
:1003E00001248C402343436083684D000324AC40C8
:1003F000A343836002F480632BB183684D00032420
:10040000AC402343836003684D000224AC40A34307
:10041000036003684D000124AC402343036030BDFA
:1004200070B500290CDB07290ADC046A8E000F2551
:10043000B540AC438D0002FA05F52C43046213E08D
:10044000082910DB0F290EDC446AA1F10805AE0073
:100450000F25B540AC43A1F10805AD0002FA05F542
:100460002C43446200E070BDC4684E000325B540D3
:10047000AC43C46003F0010434B1C4684E000125EC
:10048000B5402C43C46008E003F002042CB1C468FA
:100490004E000225B5402C43C46003F4807424B19F
:1004A000446801258D402C43446084684E00032538
:1004B000B540AC43846003F480642CB184684E0082
:1004C0000325B5402C43846004684E000125B540E7
:1004D000AC43046004684E000225B5402C43046020
:1004E00000BFC0E710B5B048006840F00100AE4959
:1004F000086000220121AD48FFF740FF4FF4805211
:100500000221AA48FFF73AFF4FF480520321A7487F
:10051000FFF734FF00220621A448FFF72FFF012236
:100520000721A248FFF72AFF012208219F48FFF771
:1005300025FF9D48006840F002009B4908608A142E
:1005400001219B48FFF71AFF4FF49052022198486F
:10055000FFF714FF002204219548FFF70FFF4FF427
:10056000805205219248FFF709FF01220A21904895
:10057000FFF704FF4FF480520C218D48FFF7FEFE79
:100580004FF490520D218A48FFF7F8FE01220E2108
:100590008748FFF7F3FE01220F218548FFF7EEFEA3
:1005A0008148006840F004007F490860012203216F
:1005B0008048FFF7E3FE4FF480520B217D48FFF7A0
:1005C000DDFE4FF480520D217A48FFF7D7FE01225D
:1005D0000F217848FFF7D2FE7348006840F008000A
:1005E000714908608A1403217348FFF7C7FE01228E
:1005F00004217148FFF7C2FE012205216E48FFF772
:10060000BDFE002206216C48FFF7B8FE002207213C
:100610006948FFF7B3FE00220A216748FFF7AEFEE4
:1006200001220B216448FFF7A9FE01220C21624838
:10063000FFF7A4FE01220D215F48FFF79FFE012274
:100640000E215D48FFF79AFE4FF480520F215A4861
:10065000FFF794FE5448006840F0100052490860CB
:10066000002211465548FFF789FE00220121534818
:10067000FFF784FE4FF4905202215048FFF77EFEB0
:100680004FF4905203214D48FFF778FE4FF480520B
:1006900004214A48FFF772FE4FF480520521474873
:1006A000FFF76CFE002206214448FFF767FE43482F
:1006B0000069C0F380144FF4805206213F48FFF7D1
:1006C0005DFE012207213D48FFF758FE0122082167
:1006D0003A48FFF753FE012209213848FFF74EFE42
:1006E00001220A213548FFF749FE01220B21334838
:1006F000FFF744FE01220C213048FFF73FFE0122A4
:100700000D212E48FFF73AFE4FF480520E212B4860
:10071000FFF734FE00220F212848FFF72FFE224862
:100720001430006840F480401F49143108602448A8
:10073000C06840F440512248C160C06840F4407134
:100740001F48C1601F48006840F040001D49086014
:100750000846006840F0800008601A480C300068C5
:1007600020F0400017490C3108600846006820F06E
:1007700080000860081F006820F04000091F086022
:100780000846006820F0800008600E4814300068B9
:1007900040F040000B49143108600846006840F002
:1007A00080000860204610BD303802400000024042
:1007B0000004024000080240000C02400010024009
:1007C00000380140003C0140FE48006840F4003021
:1007D000FC4908605320FC49088040F2E730091DBD
:1007E00008604010F8490C310860F7480838008864
:1007F00040F00100F44908390880F34810380088B7
:1008000040F06000F04910390880081F008840F06F
:100810000100091F0880EC482838008840F00100DA
:10082000E94928390880E748006840F48030E54904
:1008300008602020E54908810846008940F007004B
:100840000881002008854FF6FF70C86208460088BE
:1008500040F0010008807047DC48406A80B2704771
:100860000246501A80B2704710B5D648001F006883
:1008700040F08000D349091F08605320D449088004
:100880000020091F0860CF481438006840F00100BC
:10089000CC4914390860002309220621CD48FFF70E
:1008A000BFFD9FEDCD0ACD4880ED000A90ED000A16
:1008B000BCEEC00A10EE100A80B2401EC449091DE9
:1008C00008600020C2490C3108606020C04910391E
:1008D0000880BF480838008840F00100BC4908394A
:1008E0000880BB481438008840F00100B84914392A
:1008F0000880B7482838008840F00100B4492839FA
:10090000088010BD10B52DED028BB0EE408AB348C3
:1009100090ED000A28EE000A10EE101A084614F0B6
:10092000A9FAAB490C310860BDEC028B10BDA5489B
:10093000006840F48020A34908605320A84908803B
:100940004FF6FF70091F0860A549091D0860A448FB
:100950002838008840F00800A14928390880084656
:10096000008840F001000880704740429C49091F00
:1009700008609B482838018841F001010180018806
:10098000C907FCD1704710B58E48001F006840F0C1
:1009900008008C49091F08608A482438006840F024
:1009A000080088492439086000E000BF85482438E1
:1009B000006800F008000028F7D08248243800685A
:1009C00020F008007F49243908600020854908800C
:1009D000091F08607B481438006840F0010079491D
:1009E000143908600023022219467A48FFF718FDDF
:1009F0004FF0FF307B49091D0860572079492039A5
:100A0000088078481038008840F001007549103996
:100A10000880081F008840F00100091F0880714805
:100A20002838008840F001006E4928390880654860
:100A3000001F006840F002006249091F08600020A2
:100A400069490880091F08605E481438006840F052
:100A500002005C49143908600023022219466348E9
:100A6000FFF7DEFC41F267005F49091D0860401096
:100A70005D491431086008460068091F08604FF49A
:100A8000E0405949103908807020091D0880081D70
:100A9000008840F48070091D08805348143800888D
:100AA00040F0010050491439088010BD20B10128E0
:100AB00013D003282DD11EE04B490839098821F4B1
:100AC0008871494A083A118047492839098821F034
:100AD0000101454A283A11801BE043490839098839
:100AE00041F48071404A083A11801146098841F466
:100AF000807111800DE03C490839098841F4887102
:100B0000394A083A11801146098841F480711180F0
:100B100000BF00BF704730B50346FFF79DFE044697
:100B200000E000BFFFF798FE05462146FFF798FE5C
:100B30009842F6DB30BD02462D4850434FF47A739D
:100B4000B0FBF3F1B1F1807F01D3012070474FF08A
:100B5000E020006940F001004FF0E02318611846E2
:100B600041610020F2E74FF0E020006900F480309E
:100B700070470CB558B91F49096801911D492839BA
:100B800009681D4A11601B492439096800910D4903
:100B9000091F096841F080510A4A121F1160174964
:100BA000096841F48071154A116006492C310968C1
:100BB00041F48031034A2C3211601146096821F456
:100BC00080311DE04438024028440140004001408B
:100BD000281C00400000024000007A440000002071
:100BE00028480140280C004028040040000402402E
:100BF000A037A0002828004004000020007000401A
:100C000011601146096841F440711160114609688C
:100C100041F400411160CA21804A116053211160E2
:100C20007E491839096841F080017C4A183A116000
:100C300000E000BF79491839096801F04001002936
:100C4000F7D07649143909686FF30E0142F20F723A
:100C50001144724A143A11601146096821F4FE01E8
:100C600041F4C60111606E4909686C4A243A11606A
:100C70006C49121D116069491839096821F0800119
:100C8000664A183A116000E000BF644918390968E3
:100C900001F080010029F7D1FF21604A11605F490E
:100CA0001839096821F020015C4A183A11600CBD1E
:100CB0005D49096841F080515B4A11605B490968F0
:100CC00041F48071594A116057493031096841F443
:100CD0008031554A303211601146096821F4803163
:100CE00011601146096840F2051211434E4A303234
:100CF00011601146096841F40041116028B14C4966
:100D0000098841F001014A4A1180CA21434A116011
:100D10005321116041491839096841F080013F4A67
:100D2000183A116000E000BF3C491839096801F029
:100D300040010029F7D03949143909686FF30E01D1
:100D400042F20F721144354A143A11601146096893
:100D500021F4FE0141F480311160314909682F4AC4
:100D6000243A11602F49121D11602C491839096865
:100D700021F08001294A183A116000E000BF27499C
:100D80001839096801F080010029F7D1FF21234AB1
:100D9000116022491839096821F020011F4A183AC8
:100DA00011607047234901401D4A11607047CA21F4
:100DB0001A4A11605321116018491839096841F025
:100DC0008001164A183A116000E000BF1349183933
:100DD000096801F040010029F7D0164901400F4A87
:100DE000243A11600D491839096821F080010B4A35
:100DF000183A1160FF21094A116070470EB5074883
:100E0000001D0068009005482438006802900348DF
:100E100020380068019002980EBD00002428004090
:100E200004000020024413004038024000700040DB
:100E3000000400407F7F3F00002714F068F800F0B6
:100E400042FD03F03FFA002003F0C6FA03F069FA0E
:100E500008F0D8FBFFF746FB0AF0B8FAFFF7B4FC3E
:100E60006420FFF768FE0BF095FF04F039F90A20C3
:100E700006F0C4FBFFF75BFDFFF785FD02F002F80B
:100E80000020FFF78FFF0120FFF773FE08F0C4FA80
:100E90000CF0D0F80AF098F96420FFF73CFE082027
:100EA000F2490860C003F249086003F04DFE9FED6F
:100EB000F10A04F07BF8F04803F0B5FF04F0AEF857
:100EC00001F0F0FB4FF48020EC498861400088611C
:100ED000EB48C168012088476420FFF71CFEE9A0A9
:100EE0000EF004FDF0A00EF001FDE6A00EF0FEFCF9
:100EF000F648837BC089C0F30722F448D0F80E007F
:100F0000C0F30741F2A00EF0F1FC9FEDF80B53EC9B
:100F1000102BF8A00EF0EAFCD4480838006800F462
:100F2000806008B1FAA000E0FCA00146FEA00EF02F
:100F3000DDFC0EF079FD6420FFF7EDFD00230C22AF
:100F40004FF48051FB4801F06EFAFA480068FA4904
:100F500090FBF1F01C2803D1F6480068F7490860BF
:100F6000F6480168F6A00EF0C1FCF248806841F234
:100F70009A11884203D1EF488068F0498860EF48B1
:100F8000806841F29A11884202D16FF0010000E0BE
:100F90000120EF49C860E948806841F29A12904206
:100FA00001D1ECA000E0EFA00146F3A00EF09EFC02
:100FB000E0484068002807DBDE484068632803DC1F
:100FC000DC484068DD494860DC484168EEA00EF02E
:100FD0008DFC01200CF00FF8022009F033FF0FF018
:100FE00081FA00200FF0F5FA0FF098F9EA480EF0B8
:100FF00031FD4FF420700FF0B3FAD04A5068A04A88
:10100000916888479E4841683C208847AF48D0F89F
:101010000E20E2A14FF4FA600BF086FC00F088FE8F
:101020000446002C3BD1CA48406F20F4807000F584
:101030008070C7494867E0A00EF058FCE24800689D
:101040000078262801D1E1A000E0E2A00146E3A05B
:101050000EF04CFCDC4801683031E4A00EF046FC98
:10106000D94800684168E6A00EF040FCD648026806
:101070003032E7A14FF4FA600BF056FCD24800681A
:1010800003F0AAF90021D048006808F018FBE648F0
:101090008368C2684168E5480EF028FC08E02146F4
:1010A000E3A00EF023FCEAA14FF4FA600BF03CFC45
:1010B00000234FF4BA721946EA4801F0B4F9044625
:1010C000C1480068D0F804805CBBE648D0F87001E5
:1010D000E549884225D1E3480068404521D19C4834
:1010E000406F20F4007000F5007099494867DFA058
:1010F0000EF0FCFB8422DB497C31CB4810F021FD53
:101100007022E349E34810F01CFD7422D5490831F0
:10111000E14810F016FDE04A1068594A51688847C6
:1011200002E0DEA00EF0E2FB06F03BFA05E006F07E
:1011300037F80BF088FE0EF07EFA06F037FA012839
:10114000F5D1DE48D0F89000012807D0DCA14FF49B
:10115000FA600BF0E9FBE1A00EF0E0FA7C48B0F891
:101160007400C0F3002000284CD0E5A10A200BF049
:10117000DBFBEA49C8688047AB48007D00F001000E
:1011800040B105F0FFFF01E004F05DFA05F0FEFF5D
:101190000128F9D10EF048FCC848C06F022804D1DC
:1011A000A148007D00F0020050B105F0EBFF03E024
:1011B00005F024FA0EF038FC05F0E8FF0128F7D11D
:1011C000BE48C06F02280AD1D5A00EF08FFBDDA16A
:1011D0004FF4FA600BF0A8FB02F0C8FA10E0CF4918
:1011E00088688047B548DDA1D0F880204FF4FA60C8
:1011F0000BF09AFBB148D0F88010DEA00EF076FB21
:101200000EF012FC002002F008FBA34814300FC8B7
:1012100001F019FDE3A00EF069FB29E308F020FBC3
:10122000E748406BC0F3005040B1BC498868804734
:10123000E4A248F6BA01812006F030FBE048406B9A
:10124000C0F3005028B9DE4890F83400C0F3C01055
:1012500010B1022008F0CDFFD94890F83400C0F357
:10126000400008B13A48B5E1EDE10000180C024039
:10127000180402402EBA683F89400008001002405E
:10128000A80400200D0A2D2D2D2D2D2D2D2D2D2DB9
:101290002D2D2D2D2D2D2D2D2D2D2D2D2D2D2D2D7E
:1012A0002D2D2D2D2D2D2D000D0A4B424431303189
:1012B0002042525553484C455353204D4F544F52A2
:1012C00020434F4E54524F4C4C4552001C51010884
:1012D0000D0A0A4669726D77617265207265763A09
:1012E0000925582E25582E25580000000000000022
:1012F000000055400D0A53797374656D20636C6F5F
:10130000636B3A09252E3266204D487A00000000B2
:101310006F6E207468652068756200007374616E7A
:1013200064616C6F6E6500000D0A4D6F64653A096B
:1013300009257300B007002040420F00300600204E
:101340000D0A556E697420532F4E3A09256400002A
:10135000B805002048616D616D6174737520533468
:1013600035303600486F6E657977656C6C20484380
:101370004C323730310000000D0A4A6F79737469BE
:10138000636B3A09257300000D0A436F6E74726136
:1013900073743A09256400001C67010854686F7271
:1013A0006C616273204B42443130310A537752658D
:1013B00076202530365800000D0A0A4F6E655769B1
:1013C00072653A094F4B2E00080000204453323812
:1013D0004530370044533234423333000D0A4465FC
:1013E000766963653A090925730000000D0A537494
:1013F00061676520747970653A09252E387300009D
:101400000D0A537461676520532F4E3A0925640015
:10141000537461676520636F6E6E65637465643ACB
:101420000A252E38730000005C0A0020986B010822
:101430000D0A0A4F6E6557697265204572726F72A8
:101440002C20537461747573203D202564000000C6
:101450004572726F720A556E6B6E6F776E20737481
:10146000616765003C060020232012040D0A466FC8
:10147000756E642076616C696420453250524F4D20
:1014800020706172616D65746572732E0D0A0000C3
:101490003C070020A4960020440500200D0A496E58
:1014A00076616C696420453250524F4D20706172F4
:1014B000616D65746572732E0D0A0000700900205D
:1014C00050686173652063757272656E740A63613A
:1014D0006C6962206572726F7200000050686173FF
:1014E000652063757272656E742063616C696272E7
:1014F0006174696F6E206572726F722E0000000059
:10150000506861736520696E69740A506C65617317
:101510006520776169742E2E2E000000E00A0020FD
:101520000D0A506861736520696E697469616C6940
:101530007A6174696F6E20636F6D706C6574656439
:101540002E000000506861736520696E69740A633B
:101550006F6D706C657465642E0000005068617377
:101560006520696E69740A6661696C656420282566
:1015700064292E000D0A506861736520696E6974D4
:1015800069616C697A6174696F6E206661696C6506
:10159000642C206572726F7220636F6465203D2039
:1015A00025642E000D0A507265737320456E7465B4
:1015B0007220666F72206D656E750D0A0000000066
:1015C0004C960020427573206F7665726375727257
:1015D000656E7400406F20F02000A6494867A64859
:1015E000406B20F00800A44948630020C862A1486D
:1015F00090F87400C0F3400078B19E4890F87400F1
:1016000000F0010018B140F2644006F047F9994833
:10161000406F20F0020097494867964890F87400A0
:10162000C0F3800078B1934890F8740000F0010096
:1016300018B140F2664006F031F98E48406F20F054
:1016400004008C4948678C4890F83400C0F380004F
:1016500088B1884890F87400C0F3400058B18548BC
:10166000406F20F00200834948670846406F20F031
:101670000400001D4867814807F048FE0546902D8C
:1016800003D17FA00EF04AF81BE07C48D0F800019F
:10169000012816D1012179480DF0ECFF7F4A002185
:1016A000764806F0A0F90646012E06D17B4807F0E1
:1016B00074FE002179480DF0DDFF02206F49C1F86A
:1016C000000107F082FEFFF7C7F880463946FFF7B2
:1016D000C7F8642877DDFFF7BFF80746654890F83C
:1016E0007400C0F3001018B140F2914006F0D6F833
:1016F00008F0D5FB6048C069072810D15D4890F814
:101700007400C0F3C00098B140F2444006F0C6F83F
:101710005848406F20F008005649486708E056488E
:10172000C069082804D15EA20021812006F0B6F825
:1017300009F01EFE4F4908610846806A012819D148
:101740005B4AD16C4B4A106908F041FE4949496F28
:1017500060F38A2147484167B0F87400C0F38020E5
:1017600040B14448406F20F00200424948670220DF
:101770004149C8624F48006900F0010080F0010053
:101780003C490862086A09F0CAFE3A4948620846BC
:10179000406A28B33848808EC0F3403010B93648CC
:1017A000C069E8B1032008F071FB08F01EFD314864
:1017B000406F20F002002F4948672F48C06A012877
:1017C00002D1012101E038E000212A48406F61F395
:1017D0008200284948670020486237A00EF086F84A
:1017E000244B9A691969586A2C3309F03BFF214947
:1017F0008862886A0AF09FFB2E480069012121EA6D
:1018000050001C49486148690BF0DAF819498861B1
:101810000A46D16A906A0BF054F9164908630846E3
:10182000006B012801D10020C8621248806901289C
:1018300003D11049886D06F096F82148C2694169C4
:10184000012001F016FA0B4988661D48026A816979
:10185000022001F00EFA0749C866886E08F0ACFF56
:101860000449C86E08F0A8FF0BF0EDFA0DF0E3FE96
:10187000D4E40000B80500204C960020440100206C
:10188000496E76616C696420415054206D657373B4
:1018900061676520666F726D61742E00348C002064
:1018A000486F6D696E67206661696C656400000051
:1018B000A4960020001002400D0A53746F7021009E
:1018C0004405002070474349434A11603921516063
:1018D0004FF0FF319160AFF21301404A5160002197
:1018E0009160D16151620121D1600021116191614A
:1018F0009162D162012111630021D1651146496FC6
:1019000021F0400151671146496F21F08001516774
:101910000021116711664FF4004151661146496F6D
:1019200021F0020151671146496F21F0040151670E
:101930001146496F21F0100151671146496F21F09E
:101940000101491C516700215163D163D1641165C4
:10195000234991651146496F21F400715167114681
:10196000496F21F4807151671146496F21F48061FC
:1019700051673C211B4A116041F270715160022194
:101980009160002005E0002216490C3141F820202A
:10199000401C0228F7DB0121124A51610122114942
:1019A000CA610A228A6101220A6200210D4A51623B
:1019B00000220C498A62CA620A634A638A630A4A3D
:1019C000CA6300220A6401228A640121074AD165A0
:1019D00070470000003FAB0130060020B805002032
:1019E0002320120444050020A0860100A4960020B4
:1019F00010B5002000210522704B1B6843F4A02382
:101A00006E4C236000BF00BF6C4B1B6803F40031B9
:101A1000401C11B9B0F5705FF6D161BB674B1B6814
:101A200023F48033654C236000E000BF634B1B68E8
:101A300003F48033002BF8D1604B1B6823F4802320
:101A40005E4C236000E000BF5C4B1B6803F4802306
:101A5000002BF8D1594B1B6843F48033574C23605B
:101A6000002000BF554B1B6803F40031401C11B926
:101A7000B0F5705FF6D1514B1B68C3F340410029AC
:101A80006FD04E4B40331B6843F080534B4C403477
:101A900023604B4B1B6843F40043494C23600222F4
:101AA00042F4E063474C236000E000BF454B1B68F5
:101AB00003F007039342F8D1404B08331B683F4CB7
:101AC0000834236023461B68236023461B6843F4C5
:101AD0008053236023461B6823F4F81343F4202328
:101AE000236023461B6823F07C53236023461B6836
:101AF00043F08063236023461B6843F060532360F8
:101B000023461B6823F04043236023461B6843F0B1
:101B1000804323602C4B241F2360231F1B6843F04A
:101B20008073241F236000E000BF244B1B6803F078
:101B30000073002BF8D0214B08331B6823F00303FC
:101B40001E4C0834236023461B6843F002032360C5
:101B500000E000BF194B08331B6803F00C03082B8F
:101B6000F7D110BD10B51948006840F4700017494E
:101B700008601248006840F0010010490860002029
:101B80000E49083108600D480068114908400B49AA
:101B900008601048091D0860081F006820F48020B4
:101BA000091F0860002005490C310860FFF720FF7D
:101BB0004FF0006005498039086010BD00380240D0
:101BC00000700040003C0240052A410788ED00E01B
:101BD000FFFFF6FE1030002410B54FF4804053494B
:101BE00088614FF4F070FEF7C0FE4FF080404F491F
:101BF00088614620FEF7B9FE4C480069012121EAC0
:101C0000D03080F001044FF4CD70FEF7AEFE2046D8
:101C100010BD10B5044674B14FF48040434988614B
:101C20000620FEF7A2FE4FF0804040498861402028
:101C3000FEF79BFE0DE04FF480403C4988613C205C
:101C4000FEF793FE4FF08040384988610A20FEF786
:101C50008CFE10BD10B54FF48040344988610620D9
:101C6000FEF783FE4FF08040304988610920FEF77F
:101C70007CFE2E480069012121EAD0343720FEF78E
:101C800074FE204610BD70B50446002506E004F041
:101C90000100FFF7BEFF6410681CC5B2082DF6DB1B
:101CA00070BD70B50024002507E06410FFF7D2FF77
:101CB00008B144F08004681CC5B2082DF5DB20464D
:101CC00070BD2DE9F04105460F4672B64FF08040D9
:101CD00016498861002404E04FF47A70FEF745FE4F
:101CE000641C642CF8DBFFF777FFB0B10126CC2031
:101CF000FFF7C9FFF020FFF7C6FF0020FFF7C3FF83
:101D00000020FFF7C0FF002404E0FFF7CAFF05F83A
:101D1000010B641CBC42F8DB00E000264FF480405D
:101D20000249886162B63046BDE8F0810010024089
:101D30002DE9F05F4FF0000ABAF1000F02D0012048
:101D4000BDE8F09FB221F948FFF7BBFF8246BAF128
:101D5000000F01D10220F3E7F44890F80090B9F1A8
:101D6000250F04D0B9F1260F01D00320E8E7B9F11F
:101D7000250F7DD1DFF8B4B39BF80100C0F1000856
:101D8000002503E0E948405D80446D1CB22DF9DB7D
:101D900008F0FF019BF80100814201D00420CFE749
:101DA000E34C9BF8000020709BF801006070BBF8CA
:101DB0000200FEF7AFFA6080DBF80400FEF7AAFA33
:101DC0006060DBF80800FEF7A5FAA060DBF80C0005
:101DD000FEF7A0FAE060DBF81000FEF79BFA206146
:101DE000DBF81400FEF796FA6061DBF81800FEF7E6
:101DF00091FAA061DBF81C00FEF78CFAE061DBF8D9
:101E00002000FEF787FA2062DBF82400FEF782FA52
:101E10006062DBF82800FEF77DFAA062DBF82C0098
:101E2000FEF778FAE062002506E00BF13000415D34
:101E300004F1300041556D1C102DF6DBDBF8440039
:101E4000FEF768FA6064DBF84800FEF763FAA06406
:101E5000DBF84C00FEF75EFAE064DBF85000FEF7BA
:101E600059FA2065DBF85400FEF754FA606500E08B
:101E700052E1BBF85800FEF74DFA81B204F144007C
:101E8000A4F85810BBF85A00FEF744FA81B204F1E6
:101E90004400A4F85A10BBF85C00FEF73BFA81B28C
:101EA00004F14400A4F85C10DBF85E00FEF732FA9F
:101EB000C4F85E00BBF86200FEF72CFA81B204F1B0
:101EC0004400A4F86210BBF86400FEF723FA81B264
:101ED00004F14400A4F86410BBF96600FEF71AFA96
:101EE00001B204F14400A4F86610BBF96800FEF7E3
:101EF00011FA01B204F14400A4F86810BBF96A00B9
:101F0000FEF708FA01B204F14400A4F86A10BBF825
:101F10006C00FEF7FFF981B204F14400A4F86C10E4
:101F2000BBF96E00FEF7F6F901B204F14400A4F823
:101F30006E10BBF97000FEF7EDF901B204F1440038
:101F4000A4F87010BBF87200FEF7E4F981B204F156
:101F50004400A4F87210BBF97400FEF7DBF901B27B
:101F600004F14400A4F87410DBF87600FEF7D2F90F
:101F7000C4F87600BBF97A00FEF7CCF901B204F19F
:101F80004400A4F87A1000250EE00BF17C0101EB6F
:101F90004501B1F90000FEF7BDF901B204F17C0082
:101FA00000EB450001806D1C0D2DEEDB00250EE0E1
:101FB0000BF1960101EB4501B1F90000FEF7AAF91A
:101FC00001B204F1960000EB450001806D1C022D6A
:101FD000EEDB00250EE00BF19A0101EB4501B1F9B2
:101FE0000000FEF797F901B204F19A0000EB4500FA
:101FF00001806D1C022DEEDBBBF99E00FEF78AF915
:1020000001B204F14400A4F89E10BBF9A000FEF751
:1020100081F901B204F14400A4F8A010BBF9A200B8
:10202000FEF778F901B204F14400A4F8A2100025EB
:102030000EE00BF1A40101EB4501B1F90000FEF740
:1020400069F901B204F1A40000EB450001806D1CA8
:10205000042DEEDB354890F8AC7090F8AD6094F844
:10206000AD0067F3000084F8AD00790894F8AD0086
:1020700061F3420084F8AD00F90894F8AD0061F313
:10208000C40084F8AD00790994F8AD0061F34510FF
:1020900084F8AD00B90994F8AD0061F3871084F8B5
:1020A000AD0094F8AC0066F3000084F8AC00710851
:1020B00094F8AC0061F3420084F8AC00F10894F8A5
:1020C000AC0061F3C30084F8AC00310994F8AC00B3
:1020D00061F3051084F8AC00B10994F8AC0061F329
:1020E000861084F8AC00F10994F8AC0061F3C710D5
:1020F00084F8AC009BF8AE1084F8AE109BF8AF10DB
:1021000084F8AF10BBF8B000FEF704F981B204F117
:102110004400A4F8B0105AE1B9F1260F7DD103496B
:102120004878C0F10008002508E000006E08002093
:10213000BC070020A748405D80446D1C802DF9DB62
:1021400008F0FF024878824201D00420F8E5A24C52
:10215000891C11F8020C207011F8010C60700878CD
:102160006080D1F8010020F07F4262604A68A2607E
:102170008A68E260CA6822610A6962610022A2611B
:102180004A69E2618A692262CA696262CA69A262B4
:102190000A6A891EE262002506E001F12600425D1E
:1021A00004F1300042556D1C102DF6DB3E3151F824
:1021B000080C606451F8042CA26451F8042CE26409
:1021C0000A6822654A6862650A8904F14400A4F835
:1021D00058204A89A4F85A204FF4FA62A4F85C20E7
:1021E0000022C4F85E200122A4F86220A4F8642032
:1021F0008A89A4F86620CA89A4F868200A8AA4F803
:102200006A204A8AA4F86C208A8AA4F86E20CA8AB6
:10221000A4F8702047F6FF7200E0D6E0A4F8722020
:102220000A8BA4F87420D1F81A20C4F87620CA8B3F
:10223000A4F87A200A8CA4F87C204A8CA4F87E208A
:102240008A8CA4F880200A8CA4F882204A8CA4F8F6
:1022500084208A8CA4F88620CA8CA4F888200A8D51
:10226000A4F88A204A8DA4F88C200A8EA4F88E2027
:10227000CA8DA4F890200A8EA4F892200022A4F817
:10228000942047F6FF72A4F89620A4F89820488E70
:1022900002B204F14400A4F89A20888E02B2A4F895
:1022A0009C20C88E02B204F14400A4F89E204A8FFC
:1022B000A4F8A0208A8FA4F8A2204A8FA4F8A42012
:1022C000CA8FA4F8A620CA8FA4F8A820B1F840208D
:1022D000A4F8AA2094F8AD0020F0010284F8AD2003
:1022E00094F8AD0020F00600001D84F8AD0094F8CD
:1022F000AD0020F0180284F8AD2094F8AD0020F075
:102300002000203084F8AD0094F8AD0020F0C0002B
:10231000803084F8AD0094F8AC0020F0010284F81D
:10232000AC2094F8AC0020F00600001D84F8AC004E
:1023300094F8AC0020F0080284F8AC2091F8380042
:102340003E39401C012807D040280CD0802812D0EC
:10235000B0F5807F1FD116E094F8AC0020F0300279
:1023600084F8AC2017E094F8AC0020F03000103076
:1023700084F8AC000FE094F8AC0020F0300020307E
:1023800084F8AC0007E094F8AC0020F03000303066
:1023900084F8AC0000BF00BF94F8AC0020F040020D
:1023A00084F8AC2094F8AC0020F08000803084F8F1
:1023B000AC00082284F8AF2084F8AE2042F21072FC
:1023C00004F14400A4F8B02001E00120B8E40020AA
:1023D000B6E400006E080020BC0700202DE9FC4197
:1023E00005460C460026FEF737FA064600BFFEF704
:1023F00033FA07463146FEF733FAA04201DD0120E9
:1024000000E000200190284600F0A0F9009001981B
:1024100010B900980028EAD0019810B10120BDE859
:10242000FC810220FBE72DE9F05F83460E4617464C
:1024300098464FF0010A5C46F019B0F5005F02D3F0
:102440000120BDE8F09F0FB90020FAE7012000F05D
:10245000A6F900F08EF903219048FFF7BFFF02288C
:1024600001D00220EDE7A02000F095F903218C486F
:10247000FFF7B4FF022801D00220E2E7C6F30720ED
:1024800000F0A1F903218648801CFFF7A7FF02286E
:1024900001D00220D5E7F0B200F095F90321804881
:1024A000801CFFF79BFF022801D00220C9E7012012
:1024B00000F075F900F05DF903217848FFF78EFF11
:1024C000022801D00220BCE7A12000F064F903211A
:1024D0007248401CFFF782FF022801D00220B0E7BB
:1024E0004FF000091EE003216C483F30FFF776FFF4
:1024F000022801D00220A4E700F069F90546B8F1EE
:10250000000F02D104F8015B0AE0BAF1000F05D018
:1025100014F8011BA94201D1012000E000208246ED
:1025200009F10109781E4845DDD8002000F037F98F
:1025300003215A483F30FFF751FF022801D0022003
:102540007FE700F01FF900F042F90546B8F1000FEF
:1025500002D104F8015B0AE0BAF1000F05D014F8CB
:10256000011BA94201D1012000E000208246BAF1FE
:10257000010F01D0012064E7002062E72DE9F84F48
:1025800081460D461646A819B0F5005F02D3022019
:10259000BDE8F88F0EB90120FAE7C8462C4674E072
:1025A00004F01F07AC4200D087BB012000F0F7F811
:1025B00000F0DFF803213948FFF710FF022801D0AF
:1025C0001E20E5E7A02000F0E6F803213448FFF7DD
:1025D00005FF022801D01F20DAE7C4F3072000F02E
:1025E000F2F803212E48801CFFF7F8FE022801D0E4
:1025F0002020CDE7E0B200F0E6F803212848801C57
:10260000FFF7ECFE022802D02120C1E7FFE718F80F
:10261000010B00F0D8F803212148801CFFF7DEFEF3
:10262000022801D02220B3E71F2F03D0A819401E93
:10263000A04229D100F0A6F8FEF70EF9824600BFAD
:1026400000F097F803211548FFF7C8FE022801D0D3
:1026500023209DE7A02000F09EF802211048FFF7FC
:10266000BDFE022800D10EE0FEF7F6F88346514683
:10267000FEF7F6F8142801DD012000E000200090AC
:1026800000980028DCD000BF641CA819A04287D89D
:10269000009808B901207BE7242079E701000300B6
:1026A0008200070010B54C48006840F002004A491B
:1026B000086049481030006840F400104649103165
:1026C000086045481038006840F40010424910394D
:1026D00008600846006820F4001008608B1504228A
:1026E00008213E48FDF79CFE4FF480730422092127
:1026F0003A48FDF795FE3A48008820F03F0040F048
:102700002A0037490880081F008820F00100091FAF
:1027100008804FF48C703249183108802B20091D35
:1027200008802F48001F008840F480602C49091F52
:102730000880EE202A49091D08802948001F0088CA
:1027400040F001002649091F088010BD10B5014660
:10275000234810300388001D048843EA044020F019
:102760007F4202EA0100884201D1012010BD002011
:10277000FCE71B48001F008840F480701849091FBF
:10278000088070471648001F008840F40070144904
:10279000091F0880704712490C31088070470128D2
:1027A00008D10F49091F098841F480610C4A121FA2
:1027B000118007E00A49091F098821F48061084A4D
:1027C000121F1180704706490C3108807047044879
:1027D0000C300088C0B2704730380240000402401C
:1027E000045400404FF40040FE49086070474FF029
:1027F0000040FC4908607047FA4808380068012129
:1028000021EAD0107047F74808380068012121EA12
:1028100090107047F449096821F08001F24A116074
:10282000111F096821F08001121F1160EE49083163
:10283000096841F08001EC4A08321160012808D192
:10284000E949091F096841F08001E74A121F116038
:1028500007E0022805D1E449096841F08001E24A15
:1028600011607047E04808300068C0F3C01070473E
:10287000DD480830006840F08000DB49083108601E
:102880007047D949096821F04001D74A1160111FEA
:10289000096821F04001121F1160D349083109680D
:1028A00041F04001D04A08321160012808D1CE49D8
:1028B000091F096841F04001CB4A121F116007E06F
:1028C000022805D1C849096841F04001C64A116093
:1028D0007047C54808300068C0F380107047C24890
:1028E0000830006840F04000BF4908310860704778
:1028F00078B1012807D0022811D10105BB4A9161A6
:10290000410491610CE00421B84A91612021916158
:1029100006E00421B54A9161C904916100E000BF5D
:1029200000BF704778B1012807D0022811D1C10437
:10293000AE4A9161810491610CE00821AB4A91613A
:102940001021916106E00821A84A91614904916132
:1029500000E000BF00BF704708B1202101E04FF444
:102960000011A34A1160704708B1022101E04FF441
:1029700000319F4A116070479D4808380068012166
:1029800021EA101070479B480069012121EA50009C
:10299000704700210160984941600022C260002117
:1029A000816070472DE9F0478CB080460F46914614
:1029B0004FF0000AB8F1010F03D0B8F1020F11D1A6
:1029C00007E08E488E490860AFF2DB05AFF277046E
:1029D0000CE08A4810308A490860AFF2B705AFF2C0
:1029E000770403E000200CB0BDE8F08700BFB9F128
:1029F000010F01D1012000E000200646132F7DD2F7
:102A0000DFE807F00A11121314157C7C7C7C1C296A
:102A10002D67A2DA2A2B2C0079480068FFF7B9FF4E
:102A20000220A8470CE100BF00BF00BF00BF7448F0
:102A30000068FFF7AEFF0020A84701E1704800687A
:102A4000FFF7A7FF0EB9012100E000210846A047CB
:102A50000120A847F4E000BF00BF00BF00BFA7F1FE
:102A60000B0008281ED2DFE800F004091D1D1D0E12
:102A70001318022062490968086013E001206049C8
:102A8000096808600EE003205D490968086009E0F4
:102A900004205B490968086004E00520584909687A
:102AA000086000BF00BF5648006844600EB90120AE
:102AB00000E0002052490968886051480068C660FB
:102AC0000120A8470EB9012100E000210846A047D7
:102AD000B6E04B480068FFF75CFF4A48406A019047
:102AE00049480199006A081A01904648806A029094
:102AF0004448C06A03900494424800E09FE0426A60
:102B0000C06A401E3F49896A00FB012005903E488B
:102B10000599006A081A05903A48806A4142069170
:102B20003848C16A079134490891C06B099035480B
:102B3000006C40000B900A960120A84701A800F005
:102B40001CFA4FF0010A7BE02D480068FFF721FFD7
:102B50002C48006B01902C480199006A081A0190DA
:102B60002848406B404202902648806B03900494B2
:102B70002448026B806B401E2249496B00FB1120E8
:102B8000059021480599006A081A05901D48416B77
:102B90000691816B079118490891C06B09901948FB
:102BA000006C40000B900A960120A84701A800F095
:102BB000E4F94FF0010A43E011480068FFF7E9FE2D
:102BC0001048416A1048006A081A01900D48806A4E
:102BD00002900C48C06A039004940A48016B0A48AA
:102BE000006A13E0180C02400C3C01400010024047
:102BF0001804024000000240C51800088496002016
:102C00000C0000204405002070090020081A0590DF
:102C10008D48406B414206918B48816B0791089427
:102C2000C06B09908848006C40000B900A96012008
:102C3000A84701A800F0A1F94FF0010A00E000BF89
:102C400000BF5046CFE67FB500F075F90120029A2B
:102C50000099FFF7A7FE04460220039A0199FFF7A7
:102C6000A1FE0546012C01D0012D01D100F05BF938
:102C70007FBD2DE9F84F83460E4690460020009018
:102C8000BBF1010F03D0BBF1020F0FD105E0AFF292
:102C9000173A6E4C6E4D6F4F0BE0AFF2153A6B4C1E
:102CA000241D6B4D2D1D6B4F3F1D02E00020BDE824
:102CB000F88F00BF3868B04203D06FF00100286081
:102CC00020603E60022E08D0032E04D0042E03D0D4
:102CD000052E19D102E000BF00BF00BF20682860A8
:102CE000D047206020682968A0EB0109B8F1010FE6
:102CF00002D1B9F1010F05D0B8F1020F03D109F1EA
:102D0000010000B9009604E06FF001002860206027
:102D100000BF00BF0098CAE770B504460025062C26
:102D200077D2DFE804F003172E455C774FF480522A
:102D300005214948FDF722FB0020FDF7B7FE4FF4BF
:102D40000050454918310860C00308600020FDF7B5
:102D500010FF75E04FF4805205213F48FDF70EFB50
:102D60000020FDF7A3FE4FF400503B4918310860E6
:102D7000C0030860801239498861401138490860F1
:102D80005EE04FF4805205213348FDF7F7FA4FF427
:102D900080503149183108604004086004202F49F0
:102DA0008861C0022E4908600120FDF77FFE47E0E0
:102DB0004FF4805205212848FDF7E0FA0020FDF786
:102DC00075FE4FF40050244918310860C0030860B4
:102DD000042022498861C0022149086030E00120B6
:102DE000FFF786FD0023022205211B48FDF718FB93
:102DF0004FF0005018491831086040140860042052
:102E000016498861C002164908600320FDF74EFE8E
:102E100016E013E04FF4805205210F48FDF7AEFA9B
:102E20000020FFF77FFD4FF400500B491831086078
:102E3000C003086040000A49086001E0012500BFA6
:102E400000BF284670BD000044050020100000208F
:102E50001800002020000020000402400000024072
:102E60001808024010B5002807DA0A07140EA04A15
:102E700000F00F031B1FD45403E00A07130E9D4AF2
:102E8000135410BD10B59C489C49C86001469B482E
:102E9000C1619B49086000208860C860994800684B
:102EA00040F01000974908609748008840F00800FB
:102EB000954908800846808A40F0010088820846CB
:102EC000008A20F001000882362000F01F02012154
:102ED00091408E4A430942F8231000BF0321FFF7B7
:102EE000C1FF03211C20FFF7BDFF10BDB0F57A7FA5
:102EF00002D34FF4FA6200E0854A1146854AB2FBDC
:102F0000F1F2521E804B1A85814AB2FBF1F2B0FBFE
:102F1000F2F2521EDA6200225A621A46928A42F095
:102F200001029A82704710B51C2000F0CCF83620C0
:102F300000F0C9F810BD10B51C2000F0CFF8362005
:102F400000F0CCF86D4A526A0AB9012200E0002272
:102F500010466B4A1268D168884710BD4FF0804117
:102F6000C863098A21F008014FF08042118211469E
:102F7000898941F008019181704710B504461C20F1
:102F800000F0ACF8362000F0A9F814B32C2221464A
:102F90005A480EF0D6FD5948594908600246526A0F
:102FA0000AB9012200E000221046554A1268D16891
:102FB000884753480068006851494860002088608D
:102FC000C8604E49086AFFF791FF4D494868FFF70E
:102FD000C5FF10BD4C48008A20F001004A49088214
:102FE0000846808940F0010088810846008840F04A
:102FF00001000880704710B5404A506A404A126884
:10300000D16888474FF08040808920F008004FF059
:10301000804188810846008A20F008000882FFF776
:10302000D9FF10BD10B5354A526A0AB9012200E035
:1030300000221046324A1268D16888473248808997
:1030400020F00100304988810846008A20F0010004
:1030500008822B488068401C294988600968896873
:1030600088420BD2264840682549096849680844C7
:10307000234948604868FFF771FF23E02048C06893
:10308000401C1F49C8601D49896A884214D21C48E7
:1030900000681A49884202D101F1100000E0174887
:1030A000174908600846006800684860002088608A
:1030B0004868FFF753FF05E01C2000F00FF83620AA
:1030C00000F00CF810BD00F01F02012191404209F0
:1030D000920002F1E022C2F80011704700F01F02D6
:1030E000012191400C4A430942F823107047000027
:1030F00018ED00E000E400E0C518000820090020F9
:103100004C090020403802400010004080E200E0FE
:1031100040420F0000BD010580E100E070B50546AA
:10312000052600240CE0094800EBC400416828464D
:103130000EF0B0FC18B1054850F8346002E0641C91
:10314000052CF0DB00BF304670BD00008052010846
:1031500070B504460D465148006840F003004F49E1
:103160000860002301220F214D48FDF759F9002383
:10317000012203214B48FDF753F9002301220B21C3
:103180004848FDF74DF945481030006840F001000F
:103190004249103108604FF0FF300906C862084606
:1031A000008B40F20111084389070883032008813E
:1031B0002CB90846008C20F00200088407E04FF08C
:1031C0008040008C40F002004FF0804108840020D5
:1031D0004FF08041C8630846808B20F070008883E0
:1031E0000846808B40F0100088830846008C20F44D
:1031F000805008840846808B40F48070888308469D
:10320000808B20F4007088830846008C20F40050E6
:1032100008842DB90846008C20F40040088407E09B
:103220004FF08040008C40F400404FF08041088413
:103230004FF08040808B20F470404FF080418883B5
:103240000846808B20F4406088830846008C40F458
:10325000805008840846008840F00100088070BD56
:103260004FF08040406A70474FF08041098821F05C
:1032700001014FF08042118011464862098841F0F7
:103280000101118070474FF08040008AC0F30010A8
:1032900070474FF08040006C7047000030380240AB
:1032A00000000240000402402DE9F0470746FE48B6
:1032B0008169D0E90E564068012804D002287DD0EB
:1032C00003287CD1D6E0F8480068012866D1F74889
:1032D0000068DFF8D4C3CCF81400F4488068CCF858
:1032E0002000F248C068CCF81C00F0484068DFF8C5
:1032F000BCC3DCF800C0A0EB0C00DFF8ACC3CCF81A
:10330000100060460069002811DD604600694FEA40
:10331000E07C4FEA4C4C4CEAD03C4004DFF8888318
:10332000C8E90C0C0020C446CCF8080017E0DE48C1
:1033300000694FF00009C846D0EB090968EBE0705E
:103340004FEA404040EAD9304FEA494CDFF8588311
:10335000C8E90CC04FF00100C446CCF808004FF09B
:103360000000DFF844C3CCF818008446DFF8388347
:10337000C8F828C0C8F82CC0C8F83800C8F83C0005
:10338000C446CCF80C004046006908B1022000E0B9
:103390000120DFF814C3CCF8000064E0C3484068A3
:1033A000DFF804C3DCF814C0A0EB0C00DFF8F8C2AF
:1033B000CCF8100060468068012801E054E05FE02E
:1033C0000FD1604600694FF00009C846D0EB0909EB
:1033D00068EBE0704FEA404040EAD9334FEA494297
:1033E00008E0B14800694FEAE07C4FEA4C4C4CEAF7
:1033F000D0334204AC48D0E90E80DFF8ACC2DCF830
:1034000018C04FEAEC7918EB0C0C40EB0900DFF820
:103410009892D9E90A89B2EB080A63EB0908BCEB78
:103420000A0C70EB080016DA9F48C0E90C239F488D
:10343000C068DFF874C2CCF81C0060468069DCF814
:103440001CC0604501DA022000E04020DFF858C2CD
:10345000CCF8000007E00120DFF84CC2CCF80C00EB
:103460001020CCF800000BE01020DFF83CC2CCF8B4
:10347000000005E02020DFF830C2CCF8000000BFDB
:1034800000BF8948006810287ED006DC022809D0D9
:1034900004283CD0082839D13AE0202875D04028AB
:1034A000F9D15FE080488069DFF8FCC1DCF820C01A
:1034B0006044DFF8F4C1CCF8180060468069DCF89D
:1034C0001CC0604510DD002902DD7748816105E000
:1034D0007548C069DFF8D0C1CCF818000420DFF8C7
:1034E000C8C1CCF8000011E06F48D0E90E90DFF8B9
:1034F000B8C1DCF818C08C444FEAEC7819EB0C0C1E
:1035000040EB0800DFF8A081C8E90EC088E087E042
:1035100065488069DFF890C1DCF820C0A0EB0C00A2
:10352000DFF884C1CCF8180060468069002806DA0C
:103530000020CCF818000120CCF8000011E05A4817
:10354000D0E90E90DFF860C1DCF818C08C444FEA77
:10355000EC78B9EB0C0C60EB0800DFF84C81C8E9A3
:103560000EC05DE050488069DFF83CC1DCF820C047
:10357000A0EB0C00DFF830C1CCF818006046806981
:10358000DCF81CC0604501E019E032E007DA46488B
:1035900081610420DFF810C1CCF800000EE0424841
:1035A000D0E90E9C806908444FEAE078B9EB00004E
:1035B0006CEB080CDFF8F080C8E90E0C30E03A48FC
:1035C000D0E90A90DFF8E0C0DCF818C04FEAEC78E8
:1035D00019EB0C0C40EB0800DFF8CC90D9E90E8910
:1035E0001CEB080C40EB0900DFF8BC80C8E90CC0FC
:1035F00016E00020DFF8B0C0CCF8180000216046CB
:10360000D0E90AC0DFF8A080C8E90CC08C46C8F831
:1036100038C0C8F83CC00120C446CCF8000000BF48
:1036200000BF2148D0E90A90DFF87CC0DCF818C060
:103630008C444FEAEC7819EB0C0C40EB0800DFF8F7
:103640006880C8E90AC01948006910B1404640685E
:1036500048B31548D0E90C90DFF84CC0DCE90A8C7F
:10366000B9EB080860EB0C00DFF83CC0DCE90E9C0D
:10367000B8EB090870EB0C001CDA0B480068012855
:1036800018D009488161D0E90CC0BCEB050C60EB97
:103690000600DFF81480C8E90AC04046C0E90E56AB
:1036A0000820C44604E005E0280000205C09002052
:1036B000CCF800002B48D0E90AC04FEAC03848EAED
:1036C0005C4428488068012807D126484069001BCF
:1036D000DFF890C0CCF8400006E022484069204462
:1036E000DFF880C0CCF840001E48006C3860002035
:1036F000DFF870C0CCF8040060460068DCF80CC04D
:10370000BCF1010F02D14FF0800C01E04FF0000C32
:1037100040EA0C00BDE8F08770B5049C124D2860AB
:103720006960AA60EB602C6101250E4E756000E0B7
:1037300000BF0C4D6D68012DFAD070BD012803D17A
:103740000221084A516002E00321064A516000E06C
:1037500000BF044949680229FAD00249496803298F
:10376000F6D07047280000205C09002010B500202A
:10377000FE490860122000F04BFD10BD10B512206C
:1037800000F051FD10BDFA49086170470021016049
:1037900041608160C16041618161C161704770B504
:1037A000044620686060F349086880472060D4E9D7
:1037B0000001451AA0682844A060EF4A9168626938
:1037C000501901F08CF96061EB48D0ED040A94EDDA
:1037D000050AB8EE400A20EE800A10EE101A0846DC
:1037E00011F048FBC0F30B00A061208BA18B0844B3
:1037F000C0F30B00A061284670BD10B50024DD4960
:10380000486A804708B144F01004DA49086B8047E1
:1038100008B144F02004204610BD10B50446122023
:1038200000F001FDD54800682040D449086012200E
:1038300000F0EEFC10BD2DE9F041CD4845688068F0
:1038400020F02407CA48C468CC48006805404FF0FF
:10385000FF30CA490860C648816BC0690E1AC44867
:103860004662C548806FB04204DBC348806F404267
:10387000B04203DD45F0100547F02007BE48B0F91F
:103880008000B04207DDBC48B0F980004042B04241
:1038900001DA47F00407B648C06B20F08000012829
:1038A00026D1B548B0F97E00B04215DDB248B0F976
:1038B0007E004042B0420FDAAF48B0F97C00B04918
:1038C0000968884205D9AE480068401CAC490860C8
:1038D0000EE047F080070BE00020A9490860A648E9
:1038E000B0F87C0010B127F0800701E047F08007B6
:1038F000A049C86B80479E4880ED170A9D49086C17
:1039000080479B4880ED180A40F201108443984894
:1039100090ED190A9B48D0ED040AB4EEE00AF1EEEE
:1039200010FA28DD44F48074914890ED190A954806
:10393000D0ED040A30EE600A8D48D0ED1B0A30EE5F
:10394000200A80ED1B0A90ED1B0A8E48D0ED050A77
:10395000B4EEE00AF1EE10FA7EDD44F4007445F4B2
:103960008055834890ED1C0ADFED870A20EE200A7F
:1039700080ED1C0A70E07E4890ED190A7E48D0ED7B
:103980001B0AB4EEE00AF1EE10FA28DD44F001045F
:10399000774890ED190A7848D0ED1B0A30EE600A9E
:1039A0007348D0ED1A0A30EE200A80ED1A0A90ED25
:1039B0001A0A7148D0ED1C0AB4EEE00AF1EE10FAD2
:1039C0004ADD44F0020445F48055694890ED1C0A34
:1039D000DFED6D0A20EE200A80ED1C0A3CE066480F
:1039E00090ED1A0A6248D0ED1C0A70EE600A90ED64
:1039F0001C0A9FED661A01EE200A80ED1C0A90ED6C
:103A00001B0A6048D0ED070A20EE200A584880EDD6
:103A10001B0A90ED1B0A5B48D0ED060AB4EEE00AE3
:103A2000F1EE10FA01D224F40074514890ED1A0A14
:103A30005448D0ED080A20EE200A4D4880ED1A0ABD
:103A400090ED1A0A4C48D0ED1D0AB4EEE00AF1EEF2
:103A500010FA01D224F002044649886A804720B156
:103A600045F020054349C86A80474249486B804772
:103A700020B145F040053F49886B80473D49C86CFF
:103A8000804750B145F008053A49086D80473849EC
:103A9000096A08443649C1F8E40035484560876042
:103AA000C460BDE8F0813249C9690A183049CA6169
:103AB000096A0A182E490A62704770B50246344CEA
:103AC0002468641A04F30F0400EE904A304C21601D
:103AD000541A04F30F00284CD4ED0E3A03EE100AEA
:103AE000B8EEC33A23EE833AB0EE432A1F4C246863
:103AF00004441E4D2C60204C646D2D68AC4204DAE9
:103B00001D4C646D194D2C600BE01B4C646D6442C0
:103B1000164D2D68AC4204DD174C646D6442134DA4
:103B20002C60124C246804F31704104D2C60124CC6
:103B3000D4ED103A2C46246803EE104AB8EEC33A8E
:103B400023EE831A134C25682468641C114E3460DC
:103B5000094CB4F95040A54224DB002435462C60C2
:103B60000D4C2468031B03F30F0417E070000020C2
:103B700070090020E00A00205C0A00207400002088
:103B800078000020340B00203BDF7F3F0014033A15
:103B9000880000207C00002084000020FB4D2C6069
:103BA000FB4C2060F94C2468012C03D0F74C2468AE
:103BB000641C14B99FEDF73A09E0F74CD4ED0F3AC5
:103BC000F24C94ED003AB8EEC33A23EE833AF0EEAD
:103BD000432AF14C94ED123AF8EEE03A63EE231AE0
:103BE00032EE013A33EE223A33EE213AD4ED113A75
:103BF00023EE230AB7EE003AB4EEC30AF1EE10FA50
:103C000004DDB7EE003AB0EE430A0AE0BFEE003A38
:103C1000B4EEC30AF1EE10FA03D2BFEE003AB0EEF2
:103C2000430A70BD2DE9F0412DED0E8B8CB080461E
:103C30000D461446F0EE40AA1F46D84800EB85001A
:103C400090ED000AF0EE409AD54800EB850090ED2B
:103C5000000AB0EE40BA94ED000AB0EE40AA94ED2E
:103C6000000AD4ED010AB0EE001A01EE200ADFEDE1
:103C7000CD0A20EE200AF0EE408A2AEE0A0A08EE6B
:103C8000A80A8DED080A9DED080AB0EEC00ADFED26
:103C9000C60AB4EEE00AF1EE10FA01DD012000E000
:103CA000002006460B962AEE0B0AB0EE40DA08EE2C
:103CB000A9DA28EE8B0AF0EE40CA4AEE69CA7AEE1B
:103CC000ECDA4EB9B448D0ED170AB84890ED000AC6
:103CD0000DEEA00A80ED000AAF4890ED180AB34837
:103CE000D0ED000AB4EEE00AF1EE10FA06D2AA48CE
:103CF00090ED180AAD4880ED000A14E0A64890ED5A
:103D0000180AB1EE400AA948D0ED000AB4EEE00A64
:103D1000F1EE10FA07DDA04890ED180AB1EE400A66
:103D2000A24880ED000A9C48D0ED160A9F4890ED0D
:103D3000000A0DEEA00A9848D0ED190A00EEAA0A72
:103D4000B0EE409A9FED930A70EE4DBA46B9D0EDB1
:103D5000170A974890ED000A0BEEA00A80ED000AC2
:103D60008D4890ED180A9248D0ED000AB4EEE00AB2
:103D7000F1EE10FA06D2884890ED180A8C4880EDD2
:103D8000000A14E0844890ED180AB1EE400A884811
:103D9000D0ED000AB4EEE00AF1EE10FA07DD7E483D
:103DA00090ED180AB1EE400A814880ED000A7A4889
:103DB000D0ED160A7E4890ED000AB0EE408A0BEE78
:103DC000A08A012F0ED0B0EE6A9A9FED720AB0EE73
:103DD000408A9FED700A80ED000A9FED6E0A7348DD
:103DE00080ED000A29EE090A08EE080AB1EEC0CA01
:103DF000704890ED1C0AB4EECC0AF1EE10FA04D231
:103E0000D0ED1C0A80EE8C0A01E0B7EE000AB0EE9D
:103E100040EA28EE0E0AB0EE408A29EE0E0AB0EE15
:103E2000409ACDED0A9A8DED01DACDED02CA8DED05
:103E3000038A8DED049A29EE090A08EE080A8DED31
:103E4000090A28EE0B0A09EE690AB0EE40AA28EE2C
:103E5000290A09EE0B0AF0EE408ACDED058ABEEE86
:103E6000000A28EE800ADFED540A00EE8A0A8DED82
:103E7000060ABEEE000A28EE800ADFED4F0A00EEC9
:103E8000CA0A8DED070A2C2201A940460DF059FE01
:103E90000CB0BDEC0E8BBDE8F0810022D0ED001A15
:103EA000F5EEC01AF1EE10FA00DB0122D0ED011A96
:103EB000F5EEC01AF1EE10FA00DB921CD0ED021AFA
:103EC000F5EEC01AF1EE10FA00DB121D072A5CD2E3
:103ED000DFE802F0CB04213E7491AE00D0ED021A6F
:103EE000B7EE002A71EE821A90ED012A71EE821A65
:103EF000B6EE002A61EE820AD0ED021A30EEE10A37
:103F0000D0ED011A30EE611A81ED000A81ED011A3F
:103F1000C1ED020AB6E0D0ED001AB7EE002A71EE4C
:103F2000821A90ED022A71EE821AB6EE002A61EE34
:103F3000820AD0ED001A30EEE10AD0ED021A30EE1E
:103F4000611A81ED001AC1ED010A81ED020A99E0C2
:103F5000D0ED001AB7EE002A72EE611A90ED012A38
:103F600071EEC21AB6EE002A61EE820AD0ED001A96
:103F700031EEA00AD0ED011A31EE801A81ED001A5F
:103F800081ED010AC1ED020A7CE06EE080000020B4
:103F900084000020000000005C0A0020640B002068
:103FA000644B00203BCD133F6666663F8C000020CB
:103FB0009000002070090020D7B35D3FD0ED011ABA
:103FC000B7EE002A71EE821A90ED002A71EE821A85
:103FD000B6EE002A61EE820AD0ED011A30EEE10A57
:103FE000D0ED001A30EE611AC1ED000A81ED010A30
:103FF00081ED021A46E0D0ED021AB7EE002A72EE09
:10400000611A90ED002A71EEC21AB6EE002A61EE36
:10401000820AD0ED021A31EEA00AD0ED001A31EE7C
:10402000801AC1ED000A81ED011A81ED020A29E032
:10403000D0ED011AB7EE002A72EE611A90ED022A55
:1040400071EEC21AB6EE002A61EE820AD0ED011AB4
:1040500031EEA00AD0ED021A31EE801A81ED000A8D
:10406000C1ED010A81ED021A0CE0F6EE001AC1ED75
:10407000001AF6EE001AC1ED011AF6EE001AC1EDB3
:10408000021A00BF00BF704700B58BB06A48C16913
:104090006A488847FFF7B1FB6949096848406749A2
:1040A0004439086001F11400FFF779FB6349443992
:1040B00048630846D0F8E80000F0010010B1FFF7AF
:1040C000BAFB0FE05D480C38FFF7EEF85B49443966
:1040D000C8630A46916BD069FFF7EFFC5748443834
:1040E00080ED250A554844380069082851D2DFE898
:1040F00000F05104502A5017503D50484438D0ED3C
:10410000100AB0EE600A00234C4AC16A6846FFF705
:1041100089FD2C226946494854300DF012FD4DE0CE
:1041200046484438D0ED100AB0EE600A0123434AF5
:10413000C16A6846FFF776FD2C2269463F48543035
:104140000DF0FFFC3AE03D484438D0ED250AB0EED2
:10415000600A0023394AC16A6846FFF763FD2C22D2
:104160006946364854300DF0ECFC27E033484438BB
:10417000D0ED250AB0EE600A0123304AC16A6846D4
:10418000FFF750FD2C2269462C4854300DF0D9FC25
:1041900014E000BF2948443800231FED820A274A53
:1041A000C16A6846FFF73EFD2C2269462348543019
:1041B0000DF0C7FC00202349086000BF00BF1F4965
:1041C0000C3101F15800FFF768FE1B4801691B48DC
:1041D0000C30884719484438D0F8E800401C17498B
:1041E0004439C1F8E800084690ED2D0AD0ED190ACF
:1041F00070EE600A90ED190A9FED131A01EE200A85
:1042000080ED190AD431C43000F03BFF0BB000BD83
:1042100000F01F02012191404209920002F1E022C8
:10422000C2F80011704700F01F0201219140074AB7
:10423000430942F823107047E00A0020B409002027
:104240005C0A0020700000200AD7233C80E100E0D7
:1042500010B52DED028B00242EE000EE104AB8EED2
:10426000C00ADFEDFE0A20EE200ADFEDFD0A80EE37
:10427000201AB0EE418AB0EE480A10F015F8F9485D
:1042800000EB840080ED000A00EE104AB8EEC00A90
:10429000DFEDF20A20EE200ADFEDF10A80EE201AAF
:1042A000B0EE418AB0EE480A0FF08AFEEE4800EB0D
:1042B000840080ED000A641CB4F5805FCDDBBDECAA
:1042C000028B10BD10B5FFF7C3FFE848E84908604E
:1042D000E8484860E848C864E8480865E8488860F5
:1042E000E848C860E8480861E8484861E8488861EB
:1042F000E848C861E8480862E8484862E8488862D7
:10430000E848C862E8480863E8484863E8488863C2
:10431000E848C863E8480864E8484864E8488864AE
:1043200010BD0020E749C1F8E80048610021E548D8
:10433000C161016281618162C16201630020E14962
:104340000861086048608860C8609FEDDF0A084621
:1043500080ED100A9FEDDC0A80ED1A0A9FEDDA0A63
:1043600080ED1B0AD94890ED0B0A084680ED1C0A27
:104370000020886348670021D2488167C0F8801018
:10438000C1670020CF49C1F888000021CD48C0F89E
:104390008C10C0F890104430CA49C1F8C400CC4910
:1043A0004438C0F8C8109FEDCB0A80ED330A9FED6A
:1043B000C60A80ED340A4830C249C1F8D400C44965
:1043C0004838C0F8D8109FEDC30A80ED370A9FED3A
:1043D000BE0A80ED380A70472DE9F0412DED0C8BB7
:1043E000054605F14404AF1C4FF001089FEDBA0AE1
:1043F000B64880ED000AB7EE000A80ED010A9FED95
:10440000B70A80ED040A9FEDB60A80ED090A90ED27
:10441000040AF6EE080A20EE200AD0ED090A20EE82
:10442000200A80ED050A90ED050ADFEDAE0A20EEC8
:10443000200A80ED060A9FEDAC0A80ED070A9FED89
:10444000AB0A80ED080A90ED000A20EE000AD0EDDC
:10445000090A80EE201A80ED0A1A9FEDA50A80ED68
:104460000B0A9FEDA40A80ED020AB3EE0E0A80ED5E
:10447000030A90ED040AA04880ED1B0A934890EDD2
:10448000050ADFED9E0A20EE200A9B4880ED1C0AFB
:10449000002D7DD0B4F9360080F0310096490860D7
:1044A0000846008800F4805028B9012000F0D6FCAE
:1044B000012000F04DFF904A127802F004018E4A6C
:1044C000127802F00100FEF743FE94F86A0028B962
:1044D0008948006840F400508749086094F86B00F0
:1044E00028B98548006840F48040834908608249C3
:1044F000097801F0100109B1012100E0022108460C
:10450000FEF788F97C49097801F0200109B1012101
:1045100000E002210846FEF7B4F994F86800C0F301
:10452000011030B1012807D0022808D003280CD18F
:1045300008E04FF0010808E04FF0400805E04FF0B8
:10454000800802E04FF4807800BF00BFB4F95A0041
:1045500000FB08F06849C86094F8680000F00100AA
:10456000D0B1D7F81E106448816090ED020AF8EED1
:10457000400A90ED030AB8EE400A80EE801AB6EECB
:10458000000A31EE000ABDEEC00A80ED010A00E02B
:1045900038E20021C16017E0D7F81E105648C06805
:1045A000B1FBF0F050B1D7F81E105348816081681C
:1045B000C068B1FBF0F05049486005E04E48C16862
:1045C000816001204C4948604B49886810F09CFA92
:1045D00041EC1C0B9FED4A0B53EC102B10F0E4FA4E
:1045E00041EC1A0B4449486810F08EFA41EC1D0B5F
:1045F0009FED430B53EC102B10F0D6FA41EC1C0B43
:104600009FED410B53EC102B10F0CEFA41EC1B0B3D
:1046100053EC1A2B10F0E4F841EC190B10F09AF857
:1046200035490861B4F9220000EE100AB8EEC00A5C
:10463000DFED370A80EE201A084680ED0E1AB4F935
:10464000240000EE100AB8EEC00ADFED310A80EE59
:10465000201A084680ED0F1A5CE00000DB0FC9400D
:1046600000008045640B0020644B0020613200088C
:10467000E00A0020693200088732000893320008FF
:10468000EF270008E52700086F5300080D530008C6
:10469000455300087B4E0008D14E0008F92700085A
:1046A000652800087128000807280008D32800089A
:1046B000DF280008814F0008974F0008E14F0008ED
:1046C000EB4F00087009002000000000340B0020B0
:1046D0006950000800F0FF441E798440A1F6F03EC6
:1046E000009618466666663F72F97F3F58FF7F3F27
:1046F000CDCC6C3FCDCC8C405C0A00200000C84281
:10470000000000000000F03F000000000000B0408A
:1047100000000047B4F9260000EE100AB8EEC00A07
:10472000DFEDF30A80EE201A084680ED101A208D86
:1047300000EE100AB8EE400ADFEDEE0A80EE201A15
:10474000084680ED111AD4F832104165218EA0F888
:104750005010B4F92C0000EE100AB8EEC00ADFEDDC
:10476000E60A80EE201AE54880ED121AB4F92A0014
:1047700000EE100AB8EEC00ADFEDE10A80EE201A62
:10478000DE4880ED131A21698167B4F9560000EE06
:10479000100AB8EEC00ADFEDDB0A20EE200AB0EE08
:1047A000408A28EE080AD848D0ED040A20EE200AF4
:1047B000D24880ED1B0AB4F9580000EE100AB8EE9A
:1047C000C00ADFEDD20A20EE200AB0EE408ACB48C4
:1047D00090ED1B0A20EE080ACB48D0ED090A20EE26
:1047E000200AC64880ED1C0A90ED1C0ADFEDC80ABD
:1047F00020EE200A80ED1D0AC34890ED0B0ABF4849
:1048000080ED1A0A208FB0BB608FA0BBB4F94400C2
:1048100000EE100AB8EEC00ADFEDBE0A80EE201AE4
:10482000B64880ED161AB4F9460000EE100AB8EE4C
:10483000C00ADFEDB90A80EE201AB04880ED171AE1
:10484000B4F9480000EE100AB8EEC00ADFEDB30A72
:1048500080EE201AA94880ED181AB4F94C0000EE39
:10486000100AB8EEC00A5FED560A80EE201AA3487F
:1048700080ED191A34E0FFE7B4F9380000EE100AB1
:10488000B8EEC00ADFEDA30A80EE201A9B4880ED47
:10489000161AB4F93A0000EE100AB8EEC00ADFEDBD
:1048A0009E0A80EE201A954880ED171AB4F93C0054
:1048B00000EE100AB8EEC00ADFED980A80EE201A6A
:1048C0008E4880ED181AB4F94C0000EE100AB8EECC
:1048D000C00A5FED710A80EE201A884880ED191A2F
:1048E000A08A00B28549A1F87C00E08A01B2834821
:1048F000A0F87E10616801632168416394F8680044
:10490000C0F3410008B9022100E001217B48416168
:10491000B4F95E0000EE100AB8EEC00ADFED750AC9
:1049200080EE201A754880ED061AB4F95C0080F319
:10493000500172488183B4F9660000EE100AB8EEA7
:10494000C00ADFED6C0A80EE201A6C4880ED081A70
:10495000B4F9620080F35001684881849FED700AC9
:1049600080ED0A0A05F13000FEF7D8FB0646052E59
:1049700047D2DFE806F003042B2C2D0000BF5F4870
:1049800090ED060ADFED670AB4EEE00AF1EE10FAE8
:1049900003DD9FED640A80ED060A5B4890ED040A92
:1049A000DFED610A20EE200A544880ED1B0A90EDED
:1049B0001B0ADFED5E0A20EE200A5348D0ED090AFB
:1049C00020EE200A4D4880ED1C0A1AE000BF00BF0F
:1049D0004D4890ED040ADFED560A20EE200A4748C4
:1049E00080ED1B0A90ED1B0ADFED500A20EE200A35
:1049F0004548D0ED090A20EE200A404880ED1C0A07
:104A000000BF68E002213D4841619FED410A80ED11
:104A1000060A4FF4FA618183006820F001003749EB
:104A20000860012048604FF47A6134488160006872
:104A300020F00100314908600846006840F030006D
:104A40000860072048604FF4FA612C4881600246F4
:104A5000127802F004010246127802F00100FEF71B
:104A600077FB2648806825494968B0FBF1F1234867
:104A7000C160806821494968B0FBF1F201FB120076
:104A800010B100211D48C1609FED2A0A1B4880ED2E
:104A90000E0A1FEDF30A80ED0F0A9FED270A80ED45
:104AA000100A264941653221A0F8501064210163A3
:104AB00049F640414163B6EE000A80ED160A9FEDCB
:104AC000200A80ED170AB7EE000A80ED180A9FED64
:104AD0001D0A80ED190ABDEC0C8BBDE8F081024681
:104AE00092FBF1F301FB1323181E00DA0844704710
:104AF0000000004B00008047000000485C0A0020D6
:104B00000000804800010038340B00209001483B31
:104B1000CDCCCC3DE9260943E926094400579B4703
:104B2000A38B2E3F9A99193E47E1FA3E000070424E
:104B300017B7D13C0000C83A0000003820A1070098
:104B400017B7D1380000000010B5FB480068FB49DA
:104B50000843F9490860FA48006840F63F71084385
:104B6000F7490860F6480C30006840F63F7188430A
:104B7000F3490C310860F0481430006840F4E060FC
:104B8000ED4914310860EF48006840F48030EE4988
:104B9000C1F804030846D0F8040320F40030C1F83B
:104BA00004030846D0F8040340F01100C1F80403E0
:104BB0000846806820F4401088600846806840F409
:104BC000801088600846806820F47020886008465D
:104BD000806840F4602088600846806840F20131B7
:104BE0000843D94988600020C86008610846C06A47
:104BF00020F47000C8620846C06A40F48010C862A1
:104C00004FF4F7704863D148006820F00100CF49A5
:104C1000086000E000BFCD48006800F001000028F7
:104C2000F8D1CA48006820F06060C84908600846AA
:104C3000006840F450600860C3484C30C3490831F4
:104C40000860C348091D08600220C049091D0860AA
:104C5000081F006840F00100091F0860BA4880681A
:104C600020F04050B84988600846806840F0805085
:104C700088600846806820F0706088600846806818
:104C800040F0606088600020886240F6FF704862F3
:104C90000846406840F00F00486008464068AD494B
:104CA0000843A94948600846006820F001000860F0
:104CB0000846806B20F4700088630846806B886328
:104CC0000846806B40F4A02088630846406840F4A2
:104CD000807048600846406820F040704860C81402
:104CE00048619D48006820F44010C1F8080108465A
:104CF000D0F8080120F47020C1F808010846D0F867
:104D0000080140F00100944908600020091D086076
:104D10008D49C1F810010846D0F82C0120F470002C
:104D2000C1F82C010846D0F8380120F47000C1F811
:104D30003801894830300068C1F838010846D0F899
:104D4000380140F4B020844930310860C8147E49ED
:104D5000C1F814010846D0F8040120F04070C1F8F1
:104D600004010846D0F8080220F44010C1F80802F7
:104D70000846D0F8080220F47020C1F8080208465E
:104D8000D0F8080240F001006E49FC3908600020AC
:104D9000091D08606C49C1F810020846D0F82C02C1
:104DA00020F47000C1F82C020846D0F8380220F434
:104DB0007000C1F838026348CC380068C1F8380286
:104DC0000846D0F8380240F4C0205E49CC3908606B
:104DD000C8145D49C1F814020846D0F8040220F056
:104DE0004070C1F804020846006820F00400086022
:104DF0000846406840F080004860122001210028E9
:104E000007DA0A07140E554A00F00F031B1FD4548B
:104E100003E00A07130E524A135400BF122000F099
:104E2000EBF810BD704710B50446122001218140F7
:104E30004C4A430942F8231000BF4B48046012203B
:104E400000F0DAF810BD10B53F48006820F004000B
:104E50003D49086044480068804710BD10B50446CD
:104E60002CB11822414942480CF06BFE04E0182294
:104E700040493F480CF065FE10BD3D49096809688E
:104E800009B200EE101AB8EEC00ADFED3B0A20EEC0
:104E9000200A80ED000A36494968096809B200EE27
:104EA000101AB8EEC00ADFED340A20EE200A80EDB9
:104EB000010A2F498968096809B200EE101AB8EE94
:104EC000C00ADFED2D0A20EE200A80ED020A7047AD
:104ED00010B52DED040B9DED000ADFED280A20EE44
:104EE000200A10EE101A08460FF0BDFF80F30C00E8
:104EF0001F49C96808609DED010ADFED200A20EE18
:104F0000200A10EE101A08460FF0ADFF80F30C01D6
:104F10001748006901609DED020ADFED180A20EED6
:104F2000200A10EE101A08460FF09DFF80F30C01C6
:104F30000F48406901601FBD303802400400400046
:104F40000008024004230140002001407064024038
:104F500094000020000280000821014018ED00E0CC
:104F600000E400E080E100E098000020C852010861
:104F70009C000020B05201080000003A00F07F457C
:104F80002348008800EE100AB8EE400ADFED210A3F
:104F900020EE200A70471E48408800EE100AB8EE46
:104FA000400ADFED1C0A20EE200A704710B52DEDF7
:104FB000028BB0EE408A1FED0F0A28EE000A10EEB9
:104FC000101A08460FF04FFF80F30C001249486298
:104FD0000846006820F001000860BDEC028B10BD9F
:104FE0000D48006800F0010070470B48006820F091
:104FF000010009490860704700F01F02012191403B
:105000004209920002F1E022C2F80011704700004C
:105010009400002000008039002001402D480068E5
:1050200040F001002B4908602A481030006840F029
:1050300000502849103108602748006840F470602B
:10504000254908600846C06820F47060C86023489D
:10505000006840F0011021490860704740EA0142B1
:105060001E4B20331A60704790ED000A7047D0ED58
:10507000000AB1EEE00A704790ED000AB8EEC00AEF
:1050800070472DE9F04104460D46D4E900018847F8
:10509000D4ED020A94ED031A41EE000ABDEEE00AD7
:1050A00010EE100A80F30C06D5E900018847D5ED13
:1050B000020A95ED031A41EE000ABDEEE00A10EE79
:1050C000100A80F30C0746EA0740044920310860C3
:1050D000BDE8F0813038024000000240007400401A
:1050E00010B5DD48006840F00400DB49086000238B
:1050F00003220621D948FBF793F900230322072155
:10510000D648FBF78DF9002303220821D348FBF78B
:1051100087F9002303220921D048FBF781F9CE4803
:105120001430006840F00200CB4914310860CC48CC
:10513000008840F00200CA4908800020C849283190
:10514000088040F66600C74908800846008800EEDF
:10515000100AB8EE400AC44880ED000A40F6650027
:10516000BF492C310860BF49088800EBD071491055
:10517000BB4A34321160BB49088800EBD07149103A
:10518000121D1160B749088800EBD0714910121D3B
:105190001160B3481830008840F06000B049183101
:1051A00008800846008840F008000880AC4820309D
:1051B000008840F00500AA4920310880A84818302E
:1051C000008840F4C040A64918310880084600888D
:1051D00040F400600880A2482030008840F0500071
:1051E0009F4920310880081F008840F06000091F97
:1051F00008800846008840F008000880081D0088E4
:1052000040F4A060091D0880081F008840F4C040D9
:10521000091F0880081D008840F48050091D08807F
:10522000904800881438111D0860081D008840F45B
:105230000040091D088000208949303108808848D5
:10524000001D008820F0700040F020008449091DF6
:105250000880081F008840F06000091F088080480F
:105260001430008840F001007D49143108807C48EA
:10527000008840F001007A4908800846008820F044
:105280000200088000E000BF7548008800F01000B0
:105290000028F8D0012072493031088070480C3065
:1052A000008840F480706E490C31088000206C4901
:1052B000483108806848006840F48000664908600A
:1052C0006A48006820F001006849086000E000BFFB
:1052D0006648006800F001000028F8D163480068C3
:1052E00040F06060614908600846006820F4D860BA
:1052F00008605B4824305D49083108605C48091D3E
:10530000086000205949091D086010BD5749096807
:1053100021F00101554A116000E000BF53490968BE
:1053200001F001010029F8D15049091D0860C91494
:105330004E4A203A11604D49096841F001014B4A3B
:105340001160704749482838006800F400607047D1
:1053500030B143493831474A1160091F516005E0B7
:105360003F493431434A1160091D5160704710B5FF
:10537000044694ED000A3C48D0ED000A20EE200AD5
:1053800010EE101A08460FF075FD3A4909680860DA
:1053900094ED010A3448D0ED000A20EE200A10EE08
:1053A000101A08460FF066FD32494968086094ED0E
:1053B000020A2D48D0ED000A20EE200A10EE101A45
:1053C00008460FF057FD2B498968086010BD10B5DD
:1053D0002DED028BB0EE408AB5EEC08AF1EE10FAE8
:1053E0001BD21F482030008840F400501C49203157
:1053F00008801C48008800EE100AB8EE400A28EE2B
:10540000000A10EE101A08460FF02DFD1549098804
:1054100008441349403108601AE0114820300088E0
:1054200020F400500E49203108800E48008800EE1C
:10543000100AB8EE400A28EE000A10EE101A0846CC
:105440000FF011FD07490988081A05494031086025
:10545000BDEC028B10BD0000303802400008024055
:1054600000040140B4000020B8000020286402407D
:10547000C8000020BC00002010B52DED068BB0EE5A
:10548000408AF0EE608A9FEDFC0A28EE000ADFED0C
:10549000FB0A80EE201AB0EE419A9FEDF70A28EE43
:1054A000800ADFEDF60A80EE201AF0EE419A79EEDE
:1054B000690AB0EE600A0EF083FDB0EE40AA79EE04
:1054C000690AB0EE600A0EF0EFFEF0EE40AAF0EED0
:1054D0004A0A0EF04DFCDFEDE90A60EE200A9FED6E
:1054E000E61A80EE810ABDEC068B10BD70B505464C
:1054F0000C461646E2480068072852D2DFE800F062
:10550000040C141C2C344A002DB90120DC4908601D
:105510000020DC49086044E0A0B2DB4A51698847BA
:105520000220D74908603CE0D7498869804710B11C
:105530000320D349086034E0A0B2D34A51698847B8
:10554000D248FEF72CF9D1481438C069D049086018
:105550000420CB49086024E0CB498869804710B11A
:105560000520C74908601CE0C848FEF718F9C7497C
:105570001439C969C64A1268501A002801DB01466D
:1055800000E04142B14201D2062100E00321BC4AC1
:10559000116006E00120BB4908600020B84908609E
:1055A00000BF00BFB748006870BD0EB5F0EE401AEE
:1055B000062840D2DFE800F0030C17202B349FEDC3
:1055C000B50A8DED000ACDED011ACDED021A32E0DB
:1055D0009FEDB00A8DED000A9FEDAE0A8DED010A38
:1055E000CDED021A27E0CDED001A9FEDAA0A8DED50
:1055F000010ACDED021A1EE0CDED001A9FEDA50ABD
:105600008DED010A9FEDA30A8DED020A13E0CDEDA9
:10561000001ACDED011A9FED9F0A8DED020A0AE0F6
:105620009FED9C0A8DED000ACDED011A9FED990AC0
:105630008DED020A00BF00BF9DED000ADDED010AFD
:105640009DED021A0EBD00B52DED028B9FB08E4868
:10565000406C0990804788B18B48806809908047EA
:1056600000218A4814388167012141671E21C167E2
:105670000121C0F8801088A00AF038F98348143856
:10568000406FCB287CD007DC68B1012879D0C928CD
:105690005DD0CA285AD177E0CC2873D0CD2872D0FB
:1056A000CE28F7D1A6E279481438806F01284DD171
:1056B0000021764814388167C0F88010FEF75EF844
:1056C0007C487D4B0ECB0EC06F480069099079482D
:1056D000099988477948C06840F6B831B0FBF1F0C5
:1056E000401C77490860754890ED080A754880EDC0
:1056F000000A7248808C74490880724800680FF074
:1057000087FBCDE908017048008800909DED080BEB
:1057100053EC102B6D480AF0E9F86DA00AF0E6F89A
:10572000644874490860001D73490860001D73498E
:1057300008606248808B09906148026800200999DE
:10574000FFF7D4FEC920514914394867FEE35B488E
:10575000808B09905A48026801200999FFF7C6FE1C
:1057600001280CD15548808B09905548026864A0E7
:1057700009990AF0BBF8CA20444914394867E5E79B
:1057800024E1FDE3DBE1FCE300204049143908613A
:105790003D48406A0990804708B9012000E0002098
:1057A00046490968012222EA111148400C90364806
:1057B000006B0990804708B9012000E000203F49B4
:1057C0000968012222EA511148400B900C9898B1C7
:1057D0003A48008800F4005070B958A00AF086F8E2
:1057E0001E212A481438C1670221C0F88010012008
:1057F0002649143948673EE00B9898B12F48008835
:1058000000F4804070B95DA00AF070F81E211F48B6
:105810001438C1670221C0F8801001201B491439D7
:10582000486728E01848C06A099080471648806B8E
:10583000099080471548FDF7A9FF13484068099073
:1058400000200999884700205C4908605C4908608D
:105850000E48FDF7A4FF0D481438C0695949086087
:105860000A481438C06A4860012157480160CB20BB
:1058700006491439486769E7DA0FC9400000B443A4
:10588000D0000020CC000020E00A00208409002085
:10589000D4000020000000000D0A4572726F723AB9
:1058A00020627573206F76657263757272656E74AF
:1058B00000000000648B0020E05201085C0A002018
:1058C000D8000020F00000200C010020A86C010886
:1058D0000D0A57616974696E6720666F7220737470
:1058E0006174696F6E617279206D6F746F722E2EA4
:1058F0002E000000EC000020E4000020E800002062
:105900000D0A4D6F746F722073746174696F6E61EC
:1059100072793A20666F72202564206379636C6522
:10592000732045636E44656C746120776173206CED
:10593000657373207468616E202564000D0A466FDC
:105940007277617264206C696D6974207377697411
:105950006368206163746976652C2070756C73656B
:1059600020706861736520696E69742063616E6E72
:105970006F7420626520757365642E000D0A526590
:105980007665727365206C696D69742073776974CC
:105990006368206163746976652C2070756C73652B
:1059A00020706861736520696E69742063616E6E32
:1059B0006F7420626520757365642E00DC00002022
:1059C000E0000020708B002008010020FE4890EDD0
:1059D000000AF6EE000A30EEC00AFC48006880EDCE
:1059E000000AB6EE000AFA48006880ED000AB6EE3A
:1059F000000AF848006880ED000AF748006909903D
:105A0000F64809998847F44840690990F4480088A5
:105A10000999884700E000BFEF48806909908047F6
:105A200028B9ED48406C099080470028F3D0ED4834
:105A3000FDF7B5FEEB481438C069EB49096801EB86
:105A40004101EA4A42F82100E6481438C06AE649B2
:105A5000096801EB4102E54901EB82014860E24837
:105A60000068401CE0490860D74890ED000AF6EE57
:105A7000000A30EE200AD548006880ED000AD648BA
:105A800000690990D54809998847D3484069099029
:105A9000D34800880999884700E000BFCE48806954
:105AA0000990804728B9CC48406C0990804700286D
:105AB000F3D0CC48FDF773FECA481438C069CA4910
:105AC000096801EB4101C94A42F82100C548143870
:105AD000C06AC549096801EB410102EB81014860D8
