:020000040800F2
:10000000F00704245903000839A6000849870008AE
:1000100079A000085916000831C10008000000004E
:1000200000000000000000000000000049AA0008D5
:10003000092600080000000041A60008C1AC000825
:1000400073030008730300087303000873030008B8
:1000500073030008730300087303000873030008A8
:100060007303000873030008730300087303000898
:10007000C921000873030008730300087303000814
:100080007303000873030008730300087303000878
:100090007303000873030008730300087303000868
:1000A0007303000873030008730300087303000858
:1000B0007303000873030008730300087303000848
:1000C0007303000873030008730300087303000838
:1000D0007303000873030008730300087303000828
:1000E000730300087303000800000000B9AE0008A5
:1000F0007303000873030008730300087303000808
:1001000073030008730300087303000873030008F7
:1001100073030008730300087303000873030008E7
:10012000D921000873030008730300087303000853
:1001300073030008730300087303000873030008C7
:1001400000000000000000000000000000000000AF
:1001500073030008730300087303000873030008A7
:100160007303000873030008730300087303000897
:100170007303000873030008730300080000000005
:100180007303000873030008730300087303000877
:100190007303000873030008730300087303000867
:1001A0007303000873030008730300087303000857
:1001B0007303000873030008730300087303000847
:1001C0007303000873030008730300087303000837
:1001D0007303000873030008730300087303000827
:1001E0007303000873030008730300087303000817
:1001F0007303000873030008730300087303000807
:1002000073030008730300087303000873030008F6
:100210007303000889AE000899AE00087303000854
:100220007303000873030008730300080000000054
:100230007303000873030008000000007303000844
:1002400073030008730300087303000873030008B6
:1002500073030008730300087303000873030008A6
:100260007303000873030008730300087303000896
:100270007303000873030008730300080000000004
:1002800073030008730300087303000800000000F4
:10029000000000007303000800F002F800F04CF8C2
:1002A0000AA090E8000C82448344AAF10107DA45D1
:1002B00001D100F041F8AFF2090EBAE80F0013F0D7
:1002C000010F18BFFB1A43F00103184790D3000039
:1002D000B0D30000103A24BF78C878C1FAD85207CA
:1002E00024BF30C830C144BF04680C6070470000B0
:1002F0000023002400250026103A28BF78C1FBD82F
:10030000520728BF30C148BF0B607047642900F016
:100310002B81782900F06481002070471FB50DF013
:1003200014F89DE8030000F0BDFA00F0B9FC1FBD11
:1003300010B500F01EFD10BD00F056FD1146FFF790
:10034000EDFF0BF05DFF00F0ADFE03B4FFF7F0FF33
:1003500003BC00F0E5FE000009488047094800475B
:10036000FEE7FEE7FEE7FEE7FEE7FEE7FEE7FEE765
:10037000FEE7FEE704480549054A064B70470000C2
:10038000B9AD000899020008F0070024F007042422
:10039000F0070224F007022470B5064600F066FA62
:1003A000056806F10B0020F00704B4429CBF002052
:1003B00070BD2B466A68BAB11068A04210D304F130
:1003C000080188423CBF5068586007D35168101933
:1003D00041601168091B016058601460101D70BDF8
:1003E00013465268002AE7D12146284600F046FA13
:1003F0000028DED170BD53EA020C00F069802DE9BF
:10040000F04B4FF00006002B1FBFB3FA83F503FA41
:1004100005F424FA05F65E4012BF1643B2FA82F5DF
:1004200002FA05F4C5F120051EBF22FA05FC44EAD4
:100430000C04203556EA044C4FEA144418BF641CDF
:100440004FF000084FF00009904271EB030C39D3D4
:10045000002919BFB1FA81F701FA07F6B0FA80F75F
:1004600000FA07F6C7F120071EBF20FA07FC46EA8C
:100470000C062037B6FBF4FCA7EB0507103F07F08E
:100480001F0BCBF120062CFA06F60CFA0BFB44BF2F
:10049000B3460026202FA4BF5E464FF0000B5BEA58
:1004A000060C08BF4FF0010B19EB0B0948EB0608CF
:1004B000ABFB027C06FB02CC0BFB03CCC01B71EB3D
:1004C0000C01C1E70B46024641464846BDE8F08BA9
:1004D00013B5084318BF4FF0FF300146AFF300805B
:1004E000BDE81C40704700000FB4044910B503AAD2
:1004F000029800F099FA10BC5DF814FB7400002417
:100500002DE9F0410E460446002020622046E168B5
:10051000884730B3252805D0D4E901219047206AC7
:10052000401CF2E7E168204600278847050018D004
:10053000A5F14100192802D820354FF40067324652
:10054000294620462760FFF7E1FE40B1012804D08C
:10055000F61D26F007060836D8E7361DD6E72846EA
:10056000DAE7206ABDE8F0812DE9F0410646002473
:1005700010687529314616A510D0AFF30080002809
:1005800002DA404213A507E031688A0701D512A5B7
:1005900002E0490704D511A5012401E0AFF3008072
:1005A00000210A2206F1240709E0B0FBF2FCB0FBAF
:1005B000F2F302FB1C00303078541846491C002826
:1005C000F3D123462A463046BDE8F04100F0D2B9C7
:1005D000000000002D0000002B00000020000000A3
:1005E00070B504460D4621461068AFF3008021889F
:1005F000090502D50F4A7A4402E00E4A7A440E32C7
:10060000002104F1240305E000F00F060009965DC7
:100610005E54491C0028F7D120780023000704D538
:10062000702D02D009B1022311322046BDE870407E
:1006300000F0A0B96ACD000010B5044603E00CF04C
:1006400077FE401C09D014F8010B05490028F6D1AB
:10065000BDE810400A200CF06BBE4FF0FF3010BD1B
:1006600074000024032A40F2308010F0030C00F0E4
:10067000158011F8013BBCF1020F624498BF11F8DC
:1006800001CB00F8013B38BF11F8013BA2F1040295
:1006900098BF00F801CB38BF00F8013B11F003030D
:1006A00000F02580083AC0F0088051F8043B083A71
:1006B00051F804CBA0E80810F5E7121D5CBF51F813
:1006C000043B40F8043BAFF30080D20724BF11F88D
:1006D000013B11F801CB48BF11F8012B24BF00F8F2
:1006E000013B00F801CB48BF00F8012B704710B563
:1006F000203AC0F00B80B1E81850A0E81850B1E8DB
:100700001850A0E81850203ABFF4F5AF5FEA027C19
:1007100024BFB1E81850A0E8185044BF18C918C049
:10072000BDE810405FEA827C24BF51F8043B40F8EA
:10073000043B08BF7047D20728BF31F8023B48BFCF
:1007400011F8012B28BF20F8023B48BF00F8012B0D
:1007500070474FF000020429C0F0128010F0030C23
:1007600000F01B80CCF1040CBCF1020F18BF00F8A4
:10077000012BA8BF20F8022BA1EB0C0100F00DB853
:100780005FEAC17C24BF00F8012B00F8012B48BFB1
:1007900000F8012B70474FF0000200B51346944655
:1007A0009646203922BFA0E80C50A0E80C50B1F1C9
:1007B0002001BFF4F7AF090728BFA0E80C5048BFDD
:1007C0000CC05DF804EB890028BF40F8042B08BF7B
:1007D000704748BF20F8022B11F0804F18BF00F877
:1007E000012B70470000000030B44FF0013C50F87E
:1007F000042BCCFA52F451F8043BD51A20D1FCB9A1
:1008000050F8042BCCFA52F451F8043BD51A17D106
:10081000B4B950F8042BCCFA52F451F8043BD51A71
:100820000ED16CB950F8042BCCFA52F451F8043BB9
:10083000D51A05D1002CDAD030BC4FF0000070473B
:1008400029BAB1FA81F111F01801D1F120008440E8
:10085000F2D1CA40CB4012F0FF0213F0FF0330BCCC
:10086000D01A7047704770477047000000487047C3
:1008700024010024704770477047704738B504461C
:100880000A4600206946AFF30080002808BF38BD43
:1008900002460099204600F0E1F8012038BD012011
:1008A00000F09ABAF8B5AFF30080054600200C4678
:1008B000102000BF0646A819A0420DD9324669464D
:1008C0000020AFF30080070008BF00F085FA009811
:1008D000A04218BF0546C419FFF7C8FF05600746C8
:1008E000F01D20F007004619284600F00AF8B4422F
:1008F00008BFF8BDA21B31463868BDE8F84000F0DB
:10090000ADB800210160C0E90110704710207047A8
:1009100070B50446051FFFF7A9FF0068002C14BF3F
:10092000446870BD002C18BFAC423CBF20466468D0
:10093000F8D301680A18AA4218BF456003D12A6893
:1009400005461144016028684119A1421CBF6C6032
:1009500070BD6168696021680844286070BD10B589
:1009600000F078F8006810BD10B5044600F072F889
:10097000046010BD2DE9F0470D46994692460446A5
:1009800000F124080168880604D5E06921F010010F
:10099000216000E00120A84201DD471B00E00027A4
:1009A000A1697A1902EB0900081AA0612078C00633
:1009B00002D42046AFF30080002608E0D4E90121EC
:1009C0001AF806009047206A401C761C20624E45AB
:1009D000F4DB2078C0060AD52046AFF3008006E09D
:1009E000D4E9012130209047206A401C2062381E43
:1009F000A7F10107F4DC07E0D4E9012118F80500AC
:100A00009047206A401C2062281EA5F10105F3DCF6
:100A10002046AFF300802078000602D50220BDE812
:100A2000F0870120FBE70000074B70B50D467B44C3
:100A300000F033F80446284600F042F810B14FF0B9
:100A4000FF3070BD204670BDFFC8000000487047F1
:100A50001C010024004870471C0100240346406824
:100A60008C46002818BF88423CBF03464068F8D334
:100A700018681844884207D00CF1030020F00700E2
:100A8000001D411A521A0146081D0A60FFF740BFB7
:100A900001694A1C02610878704700B58FB0CDE942
:100AA00001310021059105497944CDE90310114632
:100AB0006846FFF725FD0FB000BD0000E5FFFFFF12
:100AC000007B00F0800070472DE9F04705460C469A
:100AD000C86820F4201040F48000C860800602D569
:100AE000084600F020FAE06841F282014FF0FF3939
:100AF0000140022903D0204600F0BEF9B5E000F421
:100B00002041B1F5004F0FD1C00306D56168E06AFE
:100B1000884200D80846606006E02069E0626060B4
:100B200060690BF015FBA061A0680022EEB20028FE
:100B30000DDAE1688B050AD4C043A06041F490301F
:100B40002260E0606068411C61600670A5E0E068BA
:100B50009046226040F40050E060206968BB606904
:100B60000BF0FAFA012704F12405A0B1A08910F4D2
:100B7000407F08D0E069FFF70FFC206118B1E06802
:100B800040F4006016E0E7612561E06820F4407001
:100B900040F480600EE0E069FFF7FEFB0028206172
:100BA000F1D0E06840F4006010F4407FE06002D1D2
:100BB00040F48070E06020696060E06825696FF053
:100BC000010AC1051FD56168E06A884200D808465D
:100BD000411B04D02246284600F058F9F0BBE068DB
:100BE000010203D5E562C4E9015854E0691CE162E1
:100BF0006160E16940F48030491EC4E9021030466A
:100C00002E70BDE8F087010202D500F480320AE0C0
:100C10006068411C61600670E0680A2E40F4803014
:100C2000E06006D00022E16A6068814203D90B4689
:100C300002E00122F7E70346A7895B1B7F0503D487
:100C4000E7699F4200DDE2B1814200D80146E562DA
:100C50000F1AC4E90158002B09DD00E005E0224627
:100C60001946284600F012F908B14846C9E747B1CD
:100C7000A069E5626560C01BA061E06840F01000FB
:100C8000E060E068000208D56168A069E562491B80
:100C900008446560A0615046B3E73046B1E7000004
:100CA00010B542485421FFF776FD41485421FFF723
:100CB00072FD40485421FFF76EFD3F493B483C4AD6
:100CC0003F4B08603D490A603A491960531C03656F
:100CD000481C1065012008653B48344A39A1784416
:100CE00000F042F920B9384878440A3800F0E8F9B1
:100CF00037482F4A35A1784400F036F920B93448F6
:100D000078440A3800F0DCF932482A4A2FA17844A6
:100D100000F02AF920B92F4878440A3800F0D0F9B9
:100D200040232248DC000021224600F082F820B156
:100D300025487844543800F0C3F91D482246402322
:100D4000002100F076F820B121487844543800F0B2
:100D5000B7F9184822461023002100F06AF800284D
:100D600006D01C487844BDE81040563800F0A8B9B9
:100D700010BD104870B5006D20F001040B4800F064
:100D80006BF90B4800F068F90A4800F065F909E0D2
:100D9000206D20F00105204600F05EF92046FFF7A7
:100DA000B7FD2C46002CF3D170BD000020000024BC
:100DB00074000024C8000024000000240400002463
:100DC000080000247200000046C9000077000000FF
:100DD00035C900000EC9000010B500F079F9BDE872
:100DE000104000F068B970477546FFF72FFEAE4619
:100DF00005006946534620F00700854618B020B527
:100E0000FFF7B8FABDE820404FF000064FF00007AA
:100E10004FF000084FF0000BAC46ACE8C009ACE85E
:100E2000C009ACE8C009ACE8C00921F007018D4653
:100E3000704770B5C468A50713D0650211D4B2F528
:100E4000807F09D0B2F5007F06D0B2F5806F08D15F
:100E5000012300F1240106E05D1E6FF07F46B542DC
:100E600001D3012070BD0161C361416024F4706150
:100E70001143C160002070BDC16821F4001141F030
:100E80008001C16000218160016070472DE9F04759
:100E9000814614460E464FF0FF383248D5685769F0
:100EA000054209D03846A1690BF08EF9002811DB04
:100EB0002C48C0430540E5602B463246494638463B
:100EC0000BF086F9A16920F00042B21A1144002803
:100ED000A16103D02046FFF7CFFF4046BDE8F08771
:100EE00070B504460569C06A6168884200D8084642
:100EF000E16821F42011E160C90312D5A84208D0AD
:100F00002246411B2846FFF7C1FF10B14FF0FF30CA
:100F100070BD0020E562C4E90150E06820F4803033
:100F2000E060002070BD10B50446C06820F02000CD
:100F3000E060A16AA06988420DD02046FFF7D0FF8B
:100F4000E06820F4405040F01000E060A06AA0612A
:100F50002069E062606044F24001E0688843E0603C
:100F600010BD0000100002002DE9F0410C461646AD
:100F7000070047D0104600F06FF82078611C612808
:100F80000AD0722802D077283CD102E00125002443
:100F900005E00225042402E0082448F2020511F8C5
:100FA000010B2B2806D0622809D011F8010C7428F7
:100FB0000AD00BE045F0030544F00204EFE745F0EA
:100FC000040544F00104EAE744F0100438462146E1
:100FD0000BF0CAF8411C15D00021316171604FF44B
:100FE0000071F560F1617061200704D5304602227E
:100FF000002100F09BF8306D40F001003065304674
:10100000BDE8F0810020FBE72DE9F0410D460646E2
:10101000104C206DC10704D0410804D020F0010419
:10102000F7E722460EE05420FFF7B6F907000ED08E
:10103000206D47F001010843542120653846FFF731
:10104000AAFB3A4629463046BDE8F0418CE700202D
:10105000D6E70000200000242DE9F04704464FF0B9
:1010600000094FF0FF37C568D4E90486A80707D008
:101070002046FFF735FF30460BF05EF8002802DA15
:101080003846BDE8F087280502D54046FFF740FC0A
:101090004C212046FFF77FFB206D20F001002065EA
:1010A0004846EEE710B50446AFF300802046BDE8A1
:1010B0001040FFF74AB9002801D000F031B870475E
:1010C00010B500F0C9F8BDE81040FFF7F4BF00000C
:1010D00010B5012805D0002103A000F0A3F80120DD
:1010E00010BD09A1F8E7000053494752544D454D42
:1010F0003A204F7574206F662068656170206D65B9
:101100006D6F7279000000003A2048656170206DB3
:10111000656D6F727920636F7272757074656400AB
:1011200001491820ABBEFEE7260002002DE9F04180
:10113000044616460D464769007B80072ED0384688
:101140000BF00AF850BB3EB3012E02D0022E25D17F
:1011500004E0204600F0A1F805441DE038460AF0FE
:10116000F7FFE168002841F01001E16005DA204650
:10117000FFF782FE0120BDE8F081C9030BD562684C
:10118000E16A914200D81146A26911442269891A84
:10119000814200DD08460544002D01DA0220EAE71D
:1011A000E16A6068E268814206D29103E06203D599
:1011B00022F4003141F01002A6690027AE4213DC90
:1011C000E16A814201D90B4600E0034603EB060CBD
:1011D0002369ACEB030CAC4506DD814201D98C469A
:1011E00000E084469C4505D1A760276042F02000BE
:1011F000A5620DE0AD1BE669AE1B8142A66000D979
:101200000846C01A281A20605819606022F0200091
:1012100003490840E060002084F84870ABE7000014
:10122000BFCFD7FF70B505460C460A2000E06D1C05
:1012300000F02CF835B128780028F8D102E0641CC1
:1012400000F024F814B120780028F8D1BDE87040EF
:101250000A2000F01BB8000010B5014602A0FFF7FD
:10126000E1FF012010BD000053494752545245444C
:101270003A2052656469726563743A2063616E272F
:1012800074206F70656E3A200000000008B5694652
:101290008DF800000320ABBE08BD10B50146C26842
:1012A000900703D0900607D5886A0AE0FFF7D2FBC3
:1012B00001210160881E10BD8B69486818440B69C4
:1012C000C01A91F848301BB191F84910401A10BD6E
:1012D0001103FCD50028FADD401E10BD00000000FF
:1012E000B0B50446006842F2001140F48070C4F2C8
:1012F0000201884218D142F20830C4F202000068AC
:1013000010F4403F18D005F037FB61680546B1F591
:10131000803F05D0B1F5403F29D0B1F5003F27D13E
:10132000080CB5FBF0F523E046F20830C5F60200E4
:10133000006810F4403FE6D14FF4002004F098F923
:1013400061680546A1F580224FEAB2420A2A0FD809
:10135000DFE802F00606060606064C4E5052540020
:101360006FF0010000EA5140B5FBF0F500E0AD0878
:1013700003F02EFA41F2030188420DD8206842F6AC
:101380000151C0F231118D4281682CBF41F480714E
:1013900021F480718160B0BD4BF62140C0F2BE00E7
:1013A000854205D82068816821F440718160B0BD14
:1013B00047F64100C0F27D10854206D82068012220
:1013C000816862F309218160B0BD20684FF281011C
:1013D000C0F2FA218D42816804D8022262F3092109
:1013E0008160B0BD41F440718160B0BD2D09BFE79F
:1013F0006D09BDE7AD09BBE7ED09B9E72D0AB7E710
:1014000000F1080342600022C0F8082480F8762426
:10141000C0F87824C0F87C24C0F8802440F6B832A4
:10142000C0F884244FF4806201600846194607F032
:101430000FB800000000000010B5044690F87604D4
:1014400058B104F20C43D4F8782408461946FFF743
:1014500009F9002084F8760410BD012010BD0000B9
:1014600080B591F90420B2F1FF3F01DD062201E0D1
:101470008A7806320068FF2307F0F6F8002080BD66
:1014800070B5044690F8760408B1002070BD60681D
:1014900000684068C0F58065D4F808042E1A48BF7B
:1014A00006F58066D4F87C04002E00F0AE8040B9CA
:1014B0000620C4F8780403F093F9C4F88004D4F843
:1014C0007C04D4F878140A1AB242C8BF3246012A02
:1014D000C0F29180511E04F20C4E0329D4F8081476
:1014E00002F0030C4AD3A2EB0C0304F1080200BF84
:1014F000515C043B0EF80010D4F80814D4F87C04B6
:1015000001F1010100F101006FF39F21C4F87C0497
:10151000C4F80814515C0EF80010D4F80814D4F87C
:101520007C0401F1010100F101006FF39F21C4F877
:101530007C04C4F80814515C0EF80010D4F80814A8
:10154000D4F87C0401F1010100F101006FF39F2147
:10155000C4F87C04C4F80814515C0EF80010D4F8E8
:101560000814D4F87C0401F1010100F101006FF3CB
:101570009F21C4F87C04C4F80814B9D1BCF1000F51
:1015800039D02144BCF1010F097A0EF80010D4F8CB
:101590000814D4F87C0401F1010100F101006FF39B
:1015A0009F21C4F87C04C4F8081424D02144BCF161
:1015B000020F097A0EF80010D4F80814D4F87C044D
:1015C00001F1010100F101006FF39F21C4F87C04D7
:1015D000C4F808140FD02144097A0EF80010D4F88A
:1015E0000814D4F87C0401310130C4F87C046FF392
:1015F0009F21C4F808140628FFF647AF94F9101489
:10160000002916D4D4F8781418E000283FF43DAF30
:1016100003F0E6F8D4F88014D4F88424401A9042F9
:101620004FF0000014D9C4F87C040220C4F8085418
:1016300070BD94F80E140631C4F8781488424FF047
:10164000000018BF70BD012184F87614C4F87C0432
:1016500070BD000000000000FEE700000000000078
:1016600070B506461C461546016040F20110B08078
:1016700003F0B6F8C6E90205346170BD0000000051
:10168000B0B50446006801F01BF980F0010503F0D5
:10169000A7F86179A94208D1D4E90212401A904210
:1016A00098BF2579012D07D104E065712579A060E7
:1016B000012D01D1207910B100202571B0BD01208C
:1016C0002571B0BD00000000C06808B101F0F8B895
:1016D0000020704700000000806808B101F0F0B8F9
:1016E0000020704700000000006A09F035BA0000D1
:1016F000B0B50446002190ED0C0B90ED101B0025B9
:10170000A4F8B15220EE010BC4F8785290ED061BFC
:10171000012084F8B30294F8B002C4F87C5280EE41
:10172000010B84F884520438B0FA80F0400980003C
:1017300084F8B002206A09F04FFA206A84F8B352A4
:10174000BDE8B04009F014BA10B50446006A09F0CB
:101750001FFA012084F8B20210BD00000000000052
:101760002DE9F04F89B004460DF1480B90ED0C0BBC
:1017700090ED101B00211D4620EE010B164690ED4A
:10178000061B012084F8B30294F8B002189F80EE83
:10179000010B4FF00008043884F8B182B0FA80F0F1
:1017A000C4F878824009C4F87C82800084F8B002D2
:1017B000206A84F884829BE8000E09F00DFA04F593
:1017C0002470A4F8B382C4E9A26580E8000E1598DD
:1017D000C4F89C021698C4F8A0021798C4F8A40292
:1017E00019984FF0FF35C4E9AA70F8B2002806BF77
:1017F0000125A068E06868B101F062F850B194ED8D
:10180000A40B9FED151B6D42022620EE010B5CEC34
:1018100010EB02E0D4E9A4EC012600EE105AB8EE79
:10182000C00BD4E9A675D4E9A80153EC102B84F8B9
:10183000B062012684F8B162CDE900ECCDE9027511
:10184000CDE904010020CDE90600204600F0ACF807
:1018500009B0BDE8F08F00BF9A9999999999B93F5D
:10186000B0B50446012580F8B352016000218180A3
:1018700040F20110C4E90223208204980022206271
:1018800084ED060BC4E90A11C4E90C11C4E90E1178
:10189000C3F6F072C4E91012C4E91212C4E99E1131
:1018A000C4F8801284F884124FF44071A4F8B01286
:1018B00009F06EF9A4F8B25284F8B452B0BD000039
:1018C00090F8B2027047000090F8B0020438B0FA05
:1018D00080F040097047000090F8B00210F0FB0063
:1018E00018BF01207047000090F884020138B0FA58
:1018F00080F040097047000090F88412012903D15C
:10190000D0F88002C00F7047002070470000000030
:10191000014690F8840201284FF0000018BF70477C
:10192000D1F880120029C8BF0120704700000000D4
:1019300010B52DED028B044690ED9E8BA03008F083
:101940002BFEB4EE408BF1EE10FA03DA0020BDEC72
:10195000028B10BD94F87000002818BF0120BDEC68
:10196000028B10BD000000002DE9F04389B0169EE7
:101970000DF1400EF7B2012197F0020F159F08BF3D
:1019800003219EE80051DDE91395179C80F8B11200
:101990008DE80051CDE90395CDE90576079400F077
:1019A00003F809B0BDE8F0832DE9F04F81B02DEDCB
:1019B000048B82B0044690F8B202002800F0028145
:1019C000012084F8B302206A98469246169F09F0D7
:1019D000C3F8B0EE408BFFB2022F11D0012F00D020
:1019E000FFB948EC10ABB5EE400BF1EE10FA11DC8C
:1019F000B5EE400BF1EE10FA13DA4FF0FF3111E0C3
:101A0000206A09F0A9F848EC11ABB4EE410BF1EEF5
:101A100010FA01DA012105E0B4EE410BF1EE10FA03
:101A2000EBDC002194F8B402119BDDF840B0DDE955
:101A30001225DDE9146C00B394F8B10201281FD01F
:101A4000032846D1481C18D104F1880097F0020FF2
:101A5000C4E91EA8C4E920B380E86410169884F88D
:101A600098004FF0020084F8B10206D148EC10ABA8
:101A700094ED0A1B30EE419B2BE0012084F8B1026B
:101A80004FF0000084F8B10247B1012F1DD0B0EE35
:101A9000489B022F1DD148EC19AB1AE048EC10AB63
:101AA000BAEE041BB2EE042BB5EE400B43EC10BBB8
:101AB000F1EE10FA32FE011B20EE000B20EE010BBE
:101AC00045EC112B80EE010B01E048EC10AB38EE39
:101AD000009B94F88402C1460191012810D194ED35
:101AE0009E0B04F1A000B0462E461D46174608F096
:101AF0003BFDB0EE402B3A462B463546464601E0CC
:101B00009FED332B43EC14BB45EC152BB0EE480B8B
:101B100004F1A000B0EE491B98469FED2D3B5F46B7
:101B2000934608F0F9FC94F87002A0B104F1580053
:101B30001599C4E914A980E88009C4E919561798D1
:101B4000E1661699C4E91C100020C4E99E0001203A
:101B500084F884022FE094ED0C0B94ED101B01200F
:101B600084F8B30220EE010B94F8B00294ED061B4A
:101B70000438002180EE010B0025B0FA80F084F8D3
:101B8000B1524009C4F87852800084F8B002206A4B
:101B9000C4F87C5284F8845209F01EF8206A84F854
:101BA000B35290ED060AB8EEC00B28EE000BBDEE66
:101BB000C00B80ED050A019FC4F88072002060719F
:101BC00084F8B30202B0BDEC048B01B0BDE8F08F25
:101BD00000000000000000002DE9F04F87B090EDFC
:101BE0000C0B90ED101B0446012220EE010B002689
:101BF00090ED061B11980190109800901398039097
:101C00001298059018980290DDE91A78DDE91C0910
:101C1000049094F8B00280EE010BDDF87CB004383B
:101C2000DDF878A0B0FA80F0DDE91651400984F8BB
:101C3000B322800084F8B002280AA4F8B16240EA16
:101C400001600690206A0021C4F87862C4F87C62C2
:101C500084F8846208F0C0FF206A84F8B36208F058
:101C600087FFE8B202280ED001281AD04146B846B4
:101C7000059ADDE903EC5646029DDDE90037F8B927
:101C8000002020741CE0A0684146B846059A5646DC
:101C9000DDE903EC029DDDE9003788B18A460121C8
:101CA0000CE0A0684146B846059A5646DDE903ECCB
:101CB000029DDDE9003718B18A4600218171514645
:101CC0000698C0B2022805D001280AD078B90020B1
:101CD00060740CE0E06850B18A4601218171514680
:101CE00005E0E06818B18A4600218171514601EE95
:101CF000105A47EC103B4EEC122BB8EEC11B206A79
:101D000049EC13CB4BEC146B21EE000B41EC158B23
:101D100080EE020B23EE042B85EE011B84ED0A0BF3
:101D200084ED0C2B84ED0E1B08F032FF94ED0C0BB0
:101D300094ED101B206A002120EE010B012294ED8E
:101D4000061B84F8B22280EE010B07B0BDE8F04F0D
:101D500008F042BF00000000B0B50446002190ED3D
:101D60000C0B90ED101B002584F8B15220EE010BF6
:101D7000C4F8785290ED061B012084F8B30294F861
:101D8000B002C4F87C5280EE010B84F8845204380F
:101D9000B0FA80F04009800084F8B002206A08F0B0
:101DA0001BFF84F8B352B0BD2DE9F04381B02DED97
:101DB000048B88B0044690F8B20200285FD094F8F3
:101DC000B30200285BD104F1A00594ED9E9B284648
:101DD000B0EE408B08F0E0FBB4EE409BF1EE10FA61
:101DE0001BDB94F87000C0B194F8B102022814D142
:101DF00004F1800E012084F8B1029EE80350D4E97A
:101E00001E23D4E92467D4E926898DE8035004A869
:101E100080E8C0032046FFF7C7FD94F8840201283C
:101E20002DD194ED9E9B284608F0B6FBB4EE409B66
:101E3000F1EE10FA30DB94F8700068B394F8B00259
:101E4000032822D1206800F01BFD206A0021002514
:101E500008F026FF94ED0C0B94ED101B042084F881
:101E6000B00220EE010B84F8845294ED061B206A28
:101E7000002180EE010B012284F8B42290E008B02A
:101E8000BDEC048B01B0BDE8F0832079002878D048
:101E9000607908B9012060716079012824D1284651
:101EA00008F07AFB284608F047FB2068B0EE408B2C
:101EB00000F0D6FC38EE400B206A9FEDBB2BB0EE55
:101EC000C01BB4EE421BF1EE10FA4BDAB0EE480B39
:101ED00008F0EAFE0020607184F8840208B0BDECCE
:101EE000048B01B0BDE8F083A06830B100F0E8FCDD
:101EF00018B194F8A80200285AD0E06840B100F068
:101F0000DFFC28B194F8A802012801D1012050E09B
:101F100094F8B00202287ED194EDA20B94EDA41B9C
:101F20009FEDA13B94F8A802B1EE402B21EE031BDC
:101F3000002840F20310A4F8B00202FE000B51EC9E
:101F4000110BD4E9A67653EC102BD4E9A85C8DE8EC
:101F50008300CDE90365CDF814C001200690002070
:101F600007904FE0B5EE400B4FF0FF3194ED060BBC
:101F700094ED0C1BF1EE10FA81EE000BC8BF0121AD
:101F80000EE094ED0C0B94ED101B206A002120EE66
:101F9000010B002294ED061B84F8842280EE010BD5
:101FA00008B0BDEC048B01B0BDE8F04308F014BEEE
:101FB000002094F8B01201292DD194EDA40B9FEDCF
:101FC0007A1B4FF48172002820EE010BA4F8B02296
:101FD00040F200034FF0000CC3F6F07384F884C2A3
:101FE00052EC100B04BF0023CBF6F073D4E9A676B5
:101FF000D4E9A8518DE885000022CDE90365CDE93B
:1020000006CC05912046FFF7CFFC08B0BDEC048B51
:1020100001B0BDE8F08394ED9E0B94F8700030EEB3
:10202000080B84ED9E0B50B1284608F085FA206A13
:10203000B0EE409B08F090FD39EE409B45E028460D
:1020400008F0C2FA94ED9E1BB4EE401BF1EE10FABC
:1020500007DAB0EE410B284608F086FA20EE089B1E
:1020600033E0284684ED9E0B08F07EFA20EE089BB4
:10207000B5EE409BF1EE10FA0DDB206AB7EE002BB7
:1020800090ED060AB8EEC00B29EE001BB4EE421B21
:10209000F1EE10FA15DDB5EE409BF1EE10FA14DA10
:1020A000206ABFEE002B90ED060AB8EEC00B29EEB9
:1020B000001BB4EE421BF1EE10FA06DB9FED3E1B57
:1020C00001E09FED3B1B81EE009BB5EE409BF1EEE6
:1020D00010FA0CDDA06850B100F0F2FB38B194F8B2
:1020E000B00210F0FB0F02D1217C012911D0B5EE16
:1020F000409BF1EE10FA35DAE06898B300F0E0FBAF
:1021000080B394F8B00210F0FB0F2BD1617C012951
:1021100028D194ED0C0B94ED101B0438012120EE16
:10212000010B84F8B31294ED061BB0FA80F0002185
:1021300080EE010B4009800084F8B002206A00257F
:1021400084F8B152C4F87852C4F87C5284F88452AE
:1021500008F042FD84F8B35208B0BDEC048B01B026
:10216000BDE8F08389EE080B206A94ED121B9FED09
:10217000142BB0EEC00B21EE021B94ED0C3B94ED42
:102180000E2B21EE031BA2EE001B94ED060B81EE3D
:10219000001BB0EE490B08B0BDEC048B01B0BDE8EC
:1021A000F04308F06DBD00BF9A9999999999B93F8C
:1021B000295C8FC2F528F03F295C8FC2F528F0BF5B
:1021C00039B4C876BE9FF63F40F2A820C2F2004064
:1021D00001F002B90000000040F22030C2F20040DD
:1021E00001F0FAB80000000040F20F42D0F800C041
:1021F000C4F20202944510DC6F22C4F2020294453C
:1022000020DC3F22C4F20202944536DC1022C4F2E4
:102210000202944554D028224EE040F26F42C4F2AC
:10222000020294451ADC40F23F42C4F20202944595
:102230002ADC40F21042C4F20202944540D040F23F
:10224000284239E09F22C4F20202944525DC702224
:10225000C4F20202944533D088222DE040F29F421E
:10226000C4F2020294451FDC40F27042C4F2020242
:10227000944525D040F288421EE04022C4F202027A
:1022800094451DD0582217E040F24042C4F20202A9
:10229000944515D040F258420EE0A022C4F202024A
:1022A00094450DD0B82207E040F2B842C4F20202D1
:1022B000944505D040F2A042C4F20202944518D1E0
:1022C0006FF00F024AF6AB2352FA8CF2CAF6AA2339
:1022D000A2FB033109A35F2AC1F302115B5C40F248
:1022E000FF312CEA0101C36588BF043181650846CE
:1022F00070472CF0FF0181650846704700061016F4
:10230000000610160000000070B540F26F44D0F8CF
:1023100000C0C4F20204D0F858E0A44519DC9F259F
:10232000C4F20205AC4531DC5725C4F20205AC45C8
:1023300056DC1025C4F20205AC4500F09280282539
:10234000C4F20205AC4500F08C804025C4F20205C1
:1023500084E045F22F45C5F60205AC452BDC40F282
:10236000B745C4F20205AC4548DC40F27045C4F202
:102370000205AC4575D040F28845C4F20205AC4573
:102380006FD040F2A045C4F2020567E040F2274555
:10239000C4F20205AC4540DCA025C4F20205AC4500
:1023A0005FD0B825C4F20205AC455AD040F21045C2
:1023B000C4F2020552E045F26B45C5F60205AC4594
:1023C0003CDC45F23045C5F60205AC4549D045F246
:1023D0004445C5F60205AC4543D045F258453BE0BF
:1023E0005825C4F20205AC453BD07025C4F2020565
:1023F000AC4536D08825C4F202052FE040F2B8453E
:10240000C4F20205AC452CD045F20845C5F60205DC
:10241000AC4526D045F21C451EE040F22845C4F2EA
:102420000205AC451DD040F24045C4F20205AC4562
:1024300017D040F25845C4F202050FE045F26C4552
:10244000C5F60205AC450CD045F29445C5F602052B
:10245000AC4506D045F28045C5F60205AC4540F0D6
:10246000D180456EC66E002E866E6E601CBFD0E9B0
:102470001C566E60A44515DC9F24C4F20204A445DA
:102480002BDC5724C4F20204A4454EDC1024C4F211
:102490000204A44576D02824C4F20204A44571D0D5
:1024A00040246BE045F22F44C5F60204A44527DC26
:1024B00040F2B744C4F20204A44542DC40F2704446
:1024C000C4F20204A4455DD040F28844C4F2020480
:1024D000A44557D040F2A04450E040F22744C4F253
:1024E0000204A4453CDCA024C4F20204A44549D063
:1024F000B824C4F20204A44544D040F210443DE0A4
:1025000045F26B44C5F60204A44553DC45F2304461
:10251000C5F60204A4455FD045F24444C5F6020462
:10252000A44559D045F2584452E05824C4F202045C
:10253000A44527D07024C4F20204A44522D08824E4
:102540001CE040F2B844C4F20204A4451AD045F29B
:102550000844C5F60204A4453ED045F21C4437E0C9
:1025600040F22844C4F20204A4450BD040F2404497
:10257000C4F20204A44505D040F25844C4F2020457
:10258000A4453FD18468C06D00F01F003F2505FAC7
:1025900000F0CEF80800DCF80000402C20F4802089
:1025A000CCF80000CCF8043023D0CCF80810CCF8DC
:1025B0000C2070BD45F26C44C5F60204A4450BD056
:1025C00045F28044C5F60204A44505D045F2944482
:1025D000C5F60204A44515D1C46D806804F01F043B
:1025E0000125402805FA04F4CEF80440CCF8043064
:1025F00004D1CCF80820CCF80C1070BDCCF8081031
:10260000CCF80C2070BD00007047000000000000F6
:1026100070B596B045F200401E46C4F2000003902B
:1026200042F231301546CAF2410004900120069072
:1026300000200590CDE90700CDE909000B9003A823
:102640000C4602F021F910B114A0FDF74DFF03A8CC
:10265000002102F0CDF810B113A0FDF745FF03A84B
:10266000002102F0EDF810B112A0FDF73DFFA8B275
:102670000190A2B203A8A12102230096FF26029690
:1026800002F052F901460EA0FDF72EFF03980168F3
:1026900021F00101016016B070BD00BF0D0A524962
:1026A00032435F496E6974000D0A524932435F41FB
:1026B000434647000D0A524932435F4443464700B0
:1026C0000D0A45457220256400000000000000004E
:1026D0002DE9F04F97B045F200400127C4F2000009
:1026E000049042F231309846CAF241000590002031
:1026F0000690CDE90770CDE909000B9015460C90C6
:1027000004A8894602F0C0F810B132A0FDF7ECFE33
:1027100004A8002102F06CF810B131A0FDF7E4FE2E
:1027200004A8002102F08CF810B130A0FDF7DCFE07
:102730004FEAE97009EBD06020F01F00B9EB000010
:1027400019D0C0F12006A021B0B20190FF20029064
:102750001FFA89F204A80223CDF8008002F054FA8F
:102760000446052001F01CFF23A02146FDF7BCFE16
:10277000AE4226D002E00026AE4222D04FF0FF0A41
:102780000DF1100B1FA400BFAF1B06EB0900202F9B
:1027900008EB0601A8BF202700910223B9B20191DE
:1027A00082B2A0215846CDF808A002F02DFA0146C9
:1027B0002046FDF799FE05203E4401F0F1FEAE42B1
:1027C000E2D10498016821F00101016017B0BDE871
:1027D000F08F00BF0D0A574932435F496E6974009C
:1027E0000D0A574932435F41434647000D0A574996
:1027F00032435F44434647000D0A45457731202563
:10280000640000000D0A454577652025640000003E
:10281000B0B5002A027118BFB0BD054604200C46B1
:10282000FDF7BAFD28600460B0BD000000000000A4
:1028300090F804C0BCF1000F18BF70470068FFF7A4
:10284000E7BE00000000000090F804C0BCF1000FDB
:1028500018BF70470068FFF73BBF00000000000092
:1028600090ED020AB8EEC00B90ED041B21EE000BB8
:102870007047000000000000816070470000000009
:102880000168002209684A62C0E90122704700001D
:10289000EFF3108072B600BFFEE7000000000000FA
:1028A00081888279006801F08BBF00000000000081
:1028B00081794A1E818818BF0122006801F080BF1B
:1028C00010B581880446006801F072FFA179401AB2
:1028D000B0FA80F0400910BD012988BF7047838895
:1028E000D0F800C0CAB26046194601F069BF0000C6
:1028F000B0B582B090F85020012A03D102210846D9
:1029000002B0B0BD012280F8502042F2083200230C
:102910000193C4F202020093A2F542740368A34239
:1029200027D14FF6006C4FF60055CFF6FF7CCFF65F
:10293000FF7552F80C40535923435B0719D4D1F863
:1029400000E01368BEF1000F23F440441CD04B6834
:1029500023431360535952F80C502B43DB0721D10A
:10296000136840F61F758968AB4341EA0E011943AD
:1029700015E0416D41F0200141650121002280F800
:102980005020084602B0B0BD1460515952F80C30C6
:102990001943C90708D1116840F61F7399431160A4
:1029A0000021EBE70021E9E70021E7E70000000054
:1029B0002DE9F04181B00022009290F85020012AC8
:1029C00004D10221084601B0BDE8F0810768012367
:1029D00080F85030BC68640700F17B810C684FF0D0
:1029E0001F0C250394FAA4F2B2FA82F208BFA20ED9
:1029F0004D6802F01F0203FA02F2FB691A43FA6102
:102A0000C5F3012205F01F030CFA03F607EB82025F
:102A1000156BC4F3846425EA060604FA03F3334312
:102A20001363BA68BB68DB0843EA9202D2077CD121
:102A30000A6807248B68C2F3406607EB860675694F
:102A4000C2F304529440A54303FA02F22A4372618E
:102A500041F20002C5F60042126802F07042B2F183
:102A6000805F09D1D1F814C0FA680E2303EA52043A
:102A70000B69042B0DD13CE0FA68D1F814C0FB6857
:102A8000D2064FEA53032FD403F00E040B69042B34
:102A90002FD007F160020D680CFA04F605F0F84536
:102AA00052F823402E4304F00044264342F82360AA
:102AB0000B694E7E52F82350012E25F0004508BFC9
:102AC00005F1004542F823500A7E0B693E69013A40
:102AD00003F01F03B2FA82F226F4F0465209D20242
:102AE0009A4032433A6120E003F008040B69042B5A
:102AF000CFD13A6E0B6802F0F842B2EB836F4FEA27
:102B0000836344D07A6E02F0F8429A4248D0BA6E9B
:102B100002F0F8429A424CD0FA6E02F0F8429A4221
:102B200003D1FA6E22F00042FA66BA68D2072CD1BD
:102B30004FF6FF72CE68C0F20F02D1F8008006F0A7
:102B4000180308EA0204DA400023D7F8C050C4F2A0
:102B5000FF73A54322409E4242EA0502C7F8C02007
:102B60005ED198FAA8F2002CB2FA82FC4FEA986380
:102B7000624608BF4FEA9862013202F01E02092A3B
:102B800021D824B30CF1010222E00021A6E03A6E24
:102B900022F000423A667A6E02F0F8429A42B6D1CA
:102BA0007A6E22F000427A66BA6E02F0F8429A42D9
:102BB000B2D1BA6E22F00042BA66FA6E02F0F84262
:102BC0009A42AED0B1E764B10CF101020AE05A1C9E
:102BD00002F01F0301229A4003EB430642EA065328
:102BE0000EE05A1C02F01F0301229A4003EB430639
:102BF0000023CFF6206303EB06531A4342F0007321
:102C00008A680724C3F3406607EB86067569C3F339
:102C100004539C40A5439A402A437261D1F8008036
:102C2000B8F1FF3F01DD002158E042F2000146F219
:102C3000083CC4F20201C5F6020C01F5807201F5F0
:102C4000407397421A4618BFACF108028F4242F215
:102C5000001608BF1A4647F48073C4F20206B34256
:102C6000D2F808E02DD18A68D1F808111143C907BC
:102C70002FD100210EF0E074CCF68431884508BFD6
:102C80001EF4000131D00021CCF25271884508BFFA
:102C90001EF080712FD0ACF542718F424FF00001D1
:102CA0001CD10022CCF6B872904508BF1EF48002F9
:102CB00014D1DCF8001021F0E071214341F48001CF
:102CC0005AE04FF60051CFF6FF715CF80110C907CA
:102CD000CFD0416D41F0200141650121002280F8F3
:102CE0005020084601B0BDE8F081ACF542718F423A
:102CF00007D00021F2E7ACF542718F4235D00021B8
:102D0000ECE7DCF8001042F6635221F0E071C0F20B
:102D10003E52214341F40001CCF8001040F214016E
:102D2000C2F2004109688909A1FB0212910902223D
:102D300002EB41010091009911B300990139009112
:102D40000099F9B10099013900910099E1B1009918
:102D5000013900910099C9B1009901390091009998
:102D600000294FF00001E8D1B8E7DCF8001021F0AD
:102D7000E071214341F08071CCF800100021ADE7F3
:102D80000021ABE70021A9E70021A7E70021A5E783
:102D9000B0B582B0044600284FF00000019009D081
:102DA000606D58B120688168890012D48168C900BB
:102DB00019D54DE00125284602B0B0BD204600F0EF
:102DC00023F90020A06584F85000206881688900FC
:102DD000ECD54FF6C0728168C5F6FF721140816074
:102DE0008168C90034D44FF6C0718268C5F6FF719E
:102DF00001F18051114042F6635201F1805181602E
:102E000040F21401C0F23E52C2F200410968890941
:102E1000A1FB0212012101EB921101910199B9B1BB
:102E2000019901390191019900291FBF01990139C7
:102E30000191019918BF00290AD001990139019126
:102E4000019929B101990139019101990029E7D12D
:102E50008168C90009D4616D012541F010016165E7
:102E6000A16D41F00101A16500E000258168C1F379
:102E70008001626D02F010028918616D06D041F088
:102E8000100001256065284602B0B0BD21F48171B3
:102E9000023161658168C90728D142F2001240F40D
:102EA0008071C4F20202914242F20001C4F20201B6
:102EB00040F09E808A68D1F808311A43D20715D1B4
:102EC00001F5807201F5407346F2080C9042C5F698
:102ED000020C1A4618BF0CF53E72884208BF1A460B
:102EE0006068916821F47C110843906001F070FCE7
:102EF000617D41F20402A36890424FEA4131226BA6
:102F00000AD3102B08D1207F114341EA004141F040
:102F10001C01012807D00DE0207F1143194341EA2D
:102F20000041012806D1206A0022CFF6FE7202EB92
:102F300040400143606A28B100F47870A26A0843F7
:102F400040EA020120684CF20303CFF6F073C26836
:102F50001A401143C16081688268D20842EA910137
:102F6000C90733D1217D44F2030CE26AC36842EA07
:102F7000813123EA0C021143C16094F83810012911
:102F8000016916D14FF61E02CFF6004201EA020C8B
:102F90000021D4E90F23CFF6FF7101EB02414CEA87
:102FA0000302636C1143A26C1943114341F0010108
:102FB00001E021F0010101610169626B21F07041C2
:102FC000114301612046FEF78BF92068E168026B2E
:102FD000012922F00F0102D1A269013A11430163D4
:102FE0000121606D61F301006065284602B0B0BD4B
:102FF00046F20802C5F602021268D2073FF460AF3B
:1030000074E7000000000000F0B587B0002142F234
:103010000012CDE9051104460068C4F202020491D1
:103020009042CDE9021159D042F20001C4F20201EE
:10303000884240F0968040F2DC1144F2E040C2F257
:103040000041C5F602000A68002A02F101020A6086
:103050000BD150F8081C41F0200140F8081C50F832
:10306000081C01F02001019101990168002641F03E
:1030700004010160006802A900F0040001900198B9
:103080000320CDE9020040F600000496C5F60200D8
:1030900001F09AFA40F2A8252820C2F20045C4F2B5
:1030A000020028600920C5E90106EE604FF4806047
:1030B00028614FF4805068614FF48040A8614FF45C
:1030C0008070C5E9070628466E6200F081FD08B1F0
:1030D000FFF7DEFBE564AC6307B0F0BD40F2DC1146
:1030E00044F2E040C2F20041C5F602000A68002A3C
:1030F00002F101020A600BD150F8081C41F02001D6
:1031000040F8081C50F8081C01F0200101910199B9
:10311000016840F6000441F0010101600168C5F654
:10312000020401F0010101910199016841F00401DB
:103130000160006802AD00F0040001900198802059
:103140000290A4F500602946032603960027049701
:1031500001F03AFA02A93020C1C12046294601F007
:1031600033FA07B0F0BD00002DE9F0410446407984
:1031700001284FF0020008BFBDE8F0810D46012193
:103180006171904620712868042849D101F028FB1C
:10319000B8F1000F07460AD02068406BB0F1FF3F3E
:1031A0001BDC01F01DFBC01B0228F5D30DE048F22B
:1031B0000006C2F2000600BF2068406B304213D008
:1031C00001F00EFBC01B0228F6D3206940F0080076
:1031D000206103202071BDE8F081012001F0E0F9B9
:1031E0002068A969416405E0012001F0D9F920684F
:1031F000A969016408F0100240F2FF33816C93402A
:10320000EF69994307FA02F32F6A19438164FF219A
:10321000C36C914023EA010107FA02F21143C16431
:103220002869216801280BD108F010021F23886B40
:1032300093406F69984307FA02F31843886301E0EB
:1032400008F010020723C86BEF689340012F20EAB3
:10325000030C4FF0000003D0022F03D1012705E03B
:10326000002703E0AF68B7FA87F77F092E68AB68DD
:1032700037433B436F68934043EA0C03CB634FF4FF
:1032800080430E68934026EA03030B6040F6FE730A
:103290000E68934026EA030397403B430B60C0232C
:1032A00003FA02F20B6823EA02020A60012121718B
:1032B0006071BDE8F081000078B110B50446007976
:1032C00020B900206071204600F00AF80220207129
:1032D000002020610121217110BD012070470000F4
:1032E00080B586B000210591CDE9031147F2004277
:1032F0000068C4F2000202919042019101D006B030
:1033000080BD44F2E040C5F60200826842F00052FF
:103310008260826802F000520092009A026842F0D5
:1033200001020260006800F0010000900098102087
:1033300001900320CDE90201002001A9C5F6020099
:1033400001F042F906B080BD81B04FF0000CCDF81D
:1033500000C00068009021B1009810441430009023
:1033600003E00098104408300090009900200B60A2
:1033700001B070470000000080B54279012A4FF08B
:10338000020227D04FF0010C80F805C0027101F055
:10339000100E02680CFA0EFC0029136843EA0C03B5
:1033A000136011680AD0022301F4781103FA0EF3B6
:1033B00099420BD1516841F0020106E001F03E0153
:1033C000022903D1516841F001015160002201211D
:1033D00001714271104680BD2DE9F04782B0002195
:1033E000019140F214010446C2F2004148F2B512C4
:1033F000C1F64E32A56D096840F26F490068C4F20B
:103400000209A1FB021848452E68296815DC9F2196
:10341000C4F2020188422BDC5721C4F20201884227
:103420004EDC1021C4F20201884276D02821C4F279
:103430000201884271D040216BE045F22F42C5F66F
:103440000202904227DC40F2B742C4F202029042EC
:1034500042DC40F27041C4F2020188425DD040F289
:103460008841C4F20201884257D040F2A04150E0A6
:1034700040F22741C4F2020188423CDCA021C4F2A0
:103480000201884249D0B821C4F20201884244D0E6
:1034900040F210413DE045F26B42C5F60202904217
:1034A00071DC45F23042C5F6020290427DD045F211
:1034B0004442C5F60202904277D045F2584270E08D
:1034C0005821C4F20201884227D07021C4F20201BF
:1034D000884222D088211CE040F2B842C4F20202A5
:1034E00090421AD045F20842C5F6020290425CD0E2
:1034F00045F21C4255E040F22841C4F202018842E4
:103500000BD040F24041C4F20201884205D040F2A3
:103510005841C4F2020188425FD1E16D082201F0F6
:103520001F0140F20F4A8A40C4F2020A324200F000
:10353000E28050454FF0040312DC6F27C4F202070B
:10354000B84269DC3F27C4F20207B84200F3A38007
:103550001027C4F20207B84200F0C1802827B9E062
:10356000484565DC40F23F47C4F20207B84200F329
:10357000998040F21047C4F20207B84200F0AF80D1
:1035800040F22847A6E045F26C42C5F6020290429E
:103590000BD045F28042C5F60202904205D045F2BA
:1035A0009442C5F60202904217D10268E36D5707B4
:1035B00003F01F0314D504279F4017EA01060FD01C
:1035C00011046F6043D4910603D4016821F0040113
:1035D0000160216C002940F0DC8202B0BDE8F08778
:1035E00097073CD502279F4017EA010637D0110400
:1035F0006F6000F1D382910609D4016821F00A01BD
:103600000160012084F83500002084F83400E16B6B
:10361000002940F0BE82E0E79F27C4F20207B842CB
:1036200049DC7027C4F20207B84258D0882751E01D
:1036300040F29F47C4F20207B84243DC40F27047B1
:10364000C4F20207B8424AD040F2884742E0D003B1
:1036500000F1AA82A16C002940F09B82BDE712070D
:10366000BBD508229A401140B7D0016821F00E0165
:103670000160012000FA03F16960606584F835009B
:103680000020E16C84F834000029A6D02046884749
:1036900002B0BDE8F0874027C4F20207B8421ED04E
:1036A000582717E040F24047C4F20207B84216D04C
:1036B00040F258470EE0A027C4F20207B8420ED0ED
:1036C000B82707E040F2A047C4F20207B84206D08C
:1036D00040F2B847C4F20207B84218BF082307688F
:1036E0001F4208D0036823F004030360AA60626DE0
:1036F00042F00102626501228A4032426AD050459E
:1037000010DC6F23C4F2020398421CDC3F23C4F296
:103710000203984232DC1023C4F20203984251D0D3
:1037200028234AE048451ADC40F23F43C4F2020332
:1037300098422ADC40F21043C4F20203984241D07E
:1037400040F2284339E09F23C4F20203984225DC6B
:103750007023C4F20203984234D088232DE040F253
:103760009F43C4F2020398421FDC40F27043C4F24C
:103770000203984226D040F288431EE04023C4F260
:10378000020398421ED0582317E040F24043C4F28F
:103790000203984216D040F258430EE0A023C4F230
:1037A000020398420ED0B82307E040F2A043C4F2CF
:1037B0000203984206D040F2B843C4F20203984292
:1037C00040F0FA8143691B0604D5AA60626D42F09D
:1037D0000202626504228A4032426AD0504510DCFF
:1037E0006F23C4F2020398421CDC3F23C4F202039D
:1037F000984232DC1023C4F20203984251D02823AD
:103800004AE048451ADC40F23F43C4F202039842C2
:103810002ADC40F21043C4F20203984241D040F245
:10382000284339E09F23C4F20203984225DC702329
:10383000C4F20203984234D088232DE040F29F4323
:10384000C4F2020398421FDC40F27043C4F2020348
:10385000984226D040F288431EE04023C4F202037F
:1038600098421ED0582317E040F24043C4F20203AE
:10387000984216D040F258430EE0A023C4F202034F
:1038800098420ED0B82307E040F2A043C4F20203EE
:10389000984206D040F2B843C4F20203984240F086
:1038A000928103689B0704D5AA60626D42F004020E
:1038B0006265102202FA01F131427BD050454FF08F
:1038C000080210DC6F23C4F2020398421CDC3F2381
:1038D000C4F20203984232DC1023C4F2020398427D
:1038E00051D028234AE048451ADC40F23F43C4F255
:1038F000020398422ADC40F21043C4F202039842C9
:1039000041D040F2284339E09F23C4F20203984299
:1039100025DC7023C4F20203984234D088232DE0C2
:1039200040F29F43C4F2020398421FDC40F270430E
:10393000C4F20203984226D040F288431EE040239E
:10394000C4F2020398421ED0582317E040F24043CD
:10395000C4F20203984216D040F258430EE0A0236E
:10396000C4F2020398420ED0B82307E040F2A0430D
:10397000C4F20203984206D040F2B843C4F20203F4
:10398000984218BF04220368134213D0A96001684B
:103990004903016808D4C90508D4016821F0080169
:1039A0000160216C21B905E008034DD4216C09B1F7
:1039B00020468847E06D00F01F01202000FA01F248
:1039C000324200F0A68020681023504510DC6F279B
:1039D000C4F20207B8421CDC3F27C4F20207B84217
:1039E00036DC1027C4F20207B84255D028274EE033
:1039F00048451ADC40F23F47C4F20207B8422EDCC9
:103A000040F21047C4F20207B84245D040F22847BE
:103A10003DE09F27C4F20207B84229DC7027C4F2B8
:103A20000207B84238D0882731E040F29F47C4F2FD
:103A30000207B84223DC40F27047C4F20207B842E2
:103A40002AD040F2884722E0A16C0029B0D1B1E72A
:103A50004027C4F20207B8421ED0582717E040F2B0
:103A60004047C4F20207B84216D040F258470EE071
:103A7000A027C4F20207B8420ED0B82707E040F2F0
:103A8000A047C4F20207B84206D040F2B847C4F2D9
:103A90000207B84218BF022307681F4239D0AA6044
:103AA00094F83520042A02681BD122F01602026025
:103AB000426922F080024261226C0AB9A26C1AB1FA
:103AC000026822F0080202603F208840A8600120BE
:103AD00084F83500216D0020002984F8340058D185
:103AE0007BE5510301680CD4C9050ED4016821F0AF
:103AF00010010160012084F83500002084F83400B2
:103B000003E0080301D4616C00E0E16B09B12046D9
:103B10008847606D00283FF460AD606DC00734D009
:103B2000042084F8350020684FEA9821026822F0CA
:103B300001020260019A013201928A421AD8026897
:103B4000D20717D0019A013201928A4212D8026834
:103B5000D2070FD0019A013201928A420AD8026834
:103B6000D20707D0019A013201928A4202D8026834
:103B7000D207DFD10068C0074FF0030008BF012063
:103B800084F83500002084F83400E16C00293FF40B
:103B900024AD2046884702B0BDE8F087D00307D4A3
:103BA000616C0029F5D118E5216C0029F1D114E5EB
:103BB000E16B0029EDD110E5026804228A4032420F
:103BC0007FF40CAE75E6026873E6000000000000AA
:103BD000F0B581B0044600F003FE002C00F0128125
:103BE00040F26F4705462068C4F20207B84215DC70
:103BF0009F21C4F2020188422BDC5721C4F202014A
:103C0000884251DC1021C4F2020188427BD0282175
:103C1000C4F20201884276D040216FE045F22F4184
:103C2000C5F60201884227DC40F2B741C4F2020126
:103C3000884245DC40F27041C4F20201884262D001
:103C400040F28841C4F2020188425CD040F2A041B7
:103C500054E040F22741C4F20201884240DCA02136
:103C6000C4F2020188424ED0B821C4F20201884257
:103C700049D040F2104141E045F26B41C5F60201E6
:103C8000884200F3C28045F23041C5F60201884205
:103C900000F0CE8045F24441C5F60201884200F0B2
:103CA000C78045F25841BEE05821C4F20201884263
:103CB00029D07021C4F20201884224D088211DE05D
:103CC00040F2B841C4F2020188421CD045F20841DA
:103CD000C5F60201884200F0AB8045F21C41A2E02B
:103CE00040F22841C4F2020188420CD040F2404127
:103CF000C4F20201884206D040F25841C4F20201E7
:103D0000884240F07382022184F83510002184F843
:103D10003410016821F0010101600168C90709D070
:103D200000F05EFD401B052800F2678020680168F6
:103D3000C907F5D148F23F0204F108060168CFF641
:103D4000106211406CCE1143A2691943E369294303
:103D5000256A0E43616A1643042943EA060343EACF
:103D6000050303D1D4E90B6533432B4341F200062D
:103D7000C5F600463668B6F1005F1DD36668A6F149
:103D80002905292D18D8DFE805F015151515151585
:103D900017171717171717171717171717171717B3
:103DA00015151515171717171515171717171717AF
:103DB0001515151543F4801303600429436923F096
:103DC000070341EA030140F0E780D4E90A53002BDE
:103DD00041EA050100F0E080B2F5005F00F0C38029
:103DE000002A40F0CC80022D00F0CC80012D00F0A4
:103DF000C080002D00F0C680CEE02020606503204A
:103E000084F83500012001B0F0BD45F26C41C5F6E3
:103E1000020188420CD045F28041C5F60201884279
:103E200006D045F29441C5F60201884240F0DE8199
:103E3000022184F83510002184F834100168A2684A
:103E4000A2F18003E668B3FA83F3402A4FEA5313E2
:103E50004FEA83336FF3101108BF1023226941EA40
:103E6000D60166691943A36941EAD201E26941EAD0
:103E7000D601266A41EAD30141EAD20141EA16118C
:103E800040F808194CF6CD41C0B2CCF6CC41A0FBAD
:103E900001016FF0030000EA9100E0652046FEF7A3
:103EA000A3F9E16D012201F01F0102FA01F1416065
:103EB0002068B84240F37F8045F22F41C5F60201E9
:103EC000884216DC40F2B741C4F20201884227DC86
:103ED00040F27041C4F20201884200F0B48040F226
:103EE0008841C4F20201884200F0AD8040F2A04156
:103EF000A4E045F26B41C5F60201884221DC45F29F
:103F00003041C5F60201884200F09D8045F24441EF
:103F1000C5F60201884200F0968045F258411FE044
:103F200040F2B841C4F20201884200F08C8045F2B0
:103F30000841C5F60201884200F0858045F21C4127
:103F40000EE045F26C41C5F60201884200F07B802C
:103F500045F29441C5F60201884274D045F2804191
:103F6000C5F602016CE0032D16D8DFE805F00E0B54
:103F70000E02A3F1C072B2FA82F2520904E0032DDC
:103F800003D309D1C3F3006232B140206065012040
:103F900084F8350001B0F0BD41612046FEF724F9F8
:103FA000E16D3F2201F01F0102FA01F181602068FA
:103FB000B8423FF781AF9F21C4F20201884210DC72
:103FC0005721C4F2020188421EDC1021C4F2020112
:103FD000884238D02821C4F20201884233D04021DF
:103FE0002CE040F22741C4F20201884218DCA021F3
:103FF000C4F20201884226D0B821C4F202018842EC
:1040000021D040F2104119E05821C4F20201884247
:1040100019D07021C4F20201884214D088210DE029
:1040200040F22841C4F2020188420CD040F24041E3
:10403000C4F20201884206D040F25841C4F20201A3
:10404000884240F0CC8045F2434C45F2944EC5F690
:10405000020CC5F6020E604512DD45F26B41C5F655
:10406000020188421FDC45F24441C5F60201884244
:1040700025D045F25841C5F6020188421FD061E0C3
:1040800045F20841C5F60201884218D045F21C41AC
:10409000C5F60201884212D045F23041C5F6020150
:1040A00088420CD04EE045F28041C5F602018842BC
:1040B00005D045F26C41C5F60201884242D1C3B237
:1040C0004CF6CD42A3F10801CCF6CC420EF55B765E
:1040D000A1FB02120EF57B731509A26805F01F0102
:1040E000802A4FF0010206EB8506266602FA01F5EA
:1040F0006366A56602D10022626000E06268D1B208
:10410000013A072A31605D6013D84B1E082B15D287
:1041100060453ADD45F26B41C5F60201884243DC59
:1041200045F24441C5F60201884249D045F2584162
:1041300042E00020C4E91B00606750E004F16C021B
:1041400007CA49E07045C3B2BAD04AF6AB22A3F120
:104150001001CAF6AA2240F20F43A1FB0212C4F2D8
:104160000203082698424FEA121103F1AA030D46F2
:1041700088BF06EB121540F600069842C4F202060C
:1041800006F1800328BF0D46A7E745F20841C5F6B2
:104190000201884214D045F21C41C5F60201884252
:1041A0000ED045F2304107E045F28041C5F60201EC
:1041B000884205D045F26C41C5F60201884217D10C
:1041C000980045F60011C5F602010844403101226D
:1041D000E0669A4021676267002303604A6000201E
:1041E0006065012184F8351001B0F0BD402005E67E
:1041F00070454FEA8300E4D040F60001C4F20201AA
:10420000084401F5A07100F58070E0E700000000AF
:10421000B0B5D0B3054690F83400012801D1022092
:10422000B0BD012085F8340095F83500012826D16D
:10423000022085F83500002068652868046824F0AD
:10424000010404602846FEF75FF8B7212868C4F22D
:10425000020188421BDD40F25741C4F2020188424C
:1042600026DC40F22741C4F2020188423BDCB8213F
:10427000C4F20201884253D040F210414BE04FF4A7
:1042800000606865002085F834000120B0BD57212A
:10429000C4F2020188421ADD8721C4F20201884279
:1042A0002ADC5821C4F20201884239D0702132E060
:1042B00040F28741C4F20201884224DC40F25841B6
:1042C000C4F2020188422BD040F2704123E0102159
:1042D000C4F20201884223D02821C4F2020188429C
:1042E0001ED0402117E040F22841C4F2020188426A
:1042F00016D040F240410EE08821C4F2020188420B
:104300000ED0A02107E040F2A041C4F20201884291
:1043100006D040F28841C4F20201884240F02B816D
:1043200001680B2262F344010160296C19B1016834
:1043300041F00801016040F26F41C4F2020188427D
:1043400019DC9F22C4F20202904231DC5722C4F2EF
:104350000202904256DC1022C4F20202904200F0A7
:1043600091802822C4F20202904200F08B80402209
:10437000C4F2020284E045F22F42C5F602029042E6
:104380002BDC40F2B742C4F20202904248DC40F219
:104390007042C4F20202904274D040F28842C4F2E9
:1043A000020290426ED040F2A042C4F2020267E0E4
:1043B00040F22742C4F20202904240DCA022C4F242
:1043C000020290425ED0B822C4F20202904259D05A
:1043D00040F21042C4F2020252E045F26B42C5F6CE
:1043E000020290423CDC45F23042C5F602029042A5
:1043F00048D045F24442C5F60202904242D045F20E
:1044000058423BE05822C4F2020290423AD0702255
:10441000C4F20202904235D08822C4F202022FE098
:1044200040F2B842C4F2020290422BD045F2084258
:10443000C5F60202904225D045F21C421EE040F231
:104440002842C4F2020290421CD040F24042C4F220
:104450000202904216D040F25842C4F202020FE02B
:1044600045F26C42C5F6020290420BD045F29442EE
:10447000C5F60202904205D045F28042C5F602021E
:10448000904272D12A6E1368DB0303D5136843F49C
:1044900080731360EA6E1AB1136843F4807313607B
:1044A00040F20F42C4F20202904210DC6F21C4F2CB
:1044B000020188421CDC3F21C4F20201884232DC46
:1044C0001021C4F2020188424FD028214AE08842DC
:1044D0001ADC40F23F41C4F2020188422ADC40F279
:1044E0001041C4F2020188423FD040F2284139E035
:1044F0009F21C4F20201884225DC7021C4F202012E
:10450000884232D088212DE040F29F41C4F202015E
:1045100088421FDC40F27041C4F20201884224D07C
:1045200040F288411EE04021C4F2020188421CD0C2
:10453000582117E040F24041C4F20201884214D0F1
:1045400040F258410EE0A021C4F2020188420CD092
:10455000B82107E040F2B841C4F20201884204D019
:1045600040F2A041C4F202018842016841F0010119
:1045700001600020B0BD40F2B841C4F2020188429F
:1045800001683FF4CEAE052262F343010160296C5D
:1045900000293FF4D0AE016841F00401CAE60000F2
:1045A000B0B5044600F01CF940F20C010546C2F219
:1045B0000041621C097818BF0C4400BF00F010F9DC
:1045C000401BA042FAD3B0BD2DE9F04F85B00D6875
:1045D0000290002D00F0E68002988E4600F12642FF
:1045E0000A2102F1FF7342F20042C5F602020024E2
:1045F00090424FEAB32208BF0921092A4FF0010770
:1046000038BF4FEAB32100264FF000080091CDF8E3
:104610000CE00DE0DEF8005008F1010835FA07F073
:1046200006F1020607F1010704F1040400F0BA8064
:10463000A7F1010A012000FA0AF315EA0309E9D0FB
:10464000DEF804B00BF003056A1E012A22D8029896
:104650004FEA4801D0F808C00191032101FA06F29F
:1046600003992CEA020CD1F80CE00EFA06F1DDF801
:104670000CE041EA0C01816041686FEA020CCBF367
:10468000001299430346019802FA0AF21143596055
:104690000CE000BF0320032D00FA06F0029B6FEA36
:1046A000000C304602D13046032526E0D968DEF8FA
:1046B000082001EA0C018240022D41EA0201D96082
:1046C0001BD102466FF0030000EA5A010F20194483
:1046D00004F01C0300FA03F51046D1F820E0039A19
:1046E0002EEA0505DDF80CE012699A40029B2A4388
:1046F0000A62DEF804B00BF00305196805FA00F051
:1047000001EA0C011BF4403F40EA010018603FF44D
:1047100081AF44F2F44140F20845C5F60201C5F606
:1047200000050F23086840F002000860086800F0E8
:10473000020004902AF00300049904F00C0142598D
:104740008B409A43009B03FA01F1114341514FF012
:10475000B0452868DEF8041040EA0902CB0258BFD1
:1047600020EA09028B022A6040F20405C5F6000522
:10477000286840EA090258BF20EA09028B032A6030
:10478000D5F8800040EA090258BF20EA0902C903AF
:10479000C5F88020E86F40EA090258BF20EA090204
:1047A000EA6737E705B0BDE8F08F000000000000C1
:1047B0000069084018BF0120704700000000000099
:1047C000002A08BF09048161704700000000000052
:1047D00041F20000C5F600400068000C7047000080
:1047E00040F2EC70C2F20040006870470000000028
:1047F00090F84120202A03D190F84020012A01D1CD
:1048000002207047242280F841200268136823F0B8
:1048100001031360136823F4805313601368194372
:104820001160116841F001011160202180F84110F0
:10483000002180F84010084670470000000000008A
:1048400090F84120202A03D190F84020012A01D17C
:1048500002207047242280F841200268136823F068
:1048600001031360136823F4706343EA01211160AC
:10487000116841F001011160202180F841100021F0
:1048800080F840100846704708B310B5044690F809
:10489000410028B9002084F84000204600F010FBB9
:1048A000242084F8410094E80910E2680168012A94
:1048B00021F00101016023F070610161816821F440
:1048C0000041816005D14CF40041816009E0012084
:1048D0007047022A4CF40441816002D14FF4006118
:1048E0004160416804F1100C41F0007141F4004155
:1048F0004160C16821F40041C1609CE80E10114381
:1049000041EA0321C160216A41EA0C0101600168AA
:1049100041F00101016000206064202184F8411011
:10492000206384F8420010BD2DE9F04F83B00446A7
:1049300090F8410020280DD1DDF83080B8F1000F4B
:104940000CD0DDF834A0BAF1000F07D094F8400085
:1049500001280AD1022003B0BDE8F08F4FF40070A7
:104960006064012003B0BDE8F08F1E4615460F4677
:10497000012084F84000FFF733FF216881468969F0
:1049800009040AD5FFF72CFFA0EB0900192800F253
:104990001881206880690004F4D4222084F8410042
:1049A000402084F84200204639462A4633464FF0DC
:1049B000000BC4F844B0C4F82480DDF83880A4F8B3
:1049C0002AA0C4F834B0CDE9008903F08DFF28B1E6
:1049D00084F840B0012003B0BDE8F08F608D49F647
:1049E000004BCFF6004BB0F5807F40F20000C0F2E4
:1049F000FF100CD32168ABF580636FF39F2700F5A0
:104A000010564A681A4042EA0703FF220DE0628D01
:104A1000ABF580652168D3B26FF39F274E682E40B7
:104A200047EA0343334300F5923633434B60228514
:104A300018F1010207F1007647EA000756D04FF05F
:104A4000FF0A886940070ED4B8F1000F00F0B78064
:104A5000FFF7C6FEA0EB0900404500F2B2802168D6
:104A600088694007F4D5486A616A0870218D606AD8
:104A70000130606201392185608D0904A0F10100D7
:104A80006085608D2AD148B32068816909060ED4FB
:104A9000B8F1000F00F09380FFF7A2FEA0EB090031
:104AA000404500F28E80206881690906F4D5618D49
:104AB000B1F5807F07D3A4F828A050F8041F01EABD
:104AC0000B01394309E0618D2185C9B250F8042FEB
:104AD00002EA0B0246EA014111430160608D0028A1
:104AE0004BD0216888694007AED5BCE7FF2002E0C3
:104AF0008A69520709D48A6952075FBF8A695FEAE7
:104B000042728A695FEA4272F2D5496A626A11703A
:104B1000228D616A01316162013A2285618D120440
:104B2000A1F101016185618D23D111B321688A69E9
:104B300012065FBF8A695FEA02628A695FEA0262FF
:104B400002D48A691206F2D5628DFF2A06D9208521
:104B500051F8042F02EA0B023A4309E0628D2285E4
:104B6000D2B251F8043F03EA0B0346EA02421A4369
:104B70000A60618D09B12168BDE7B8F1000F12D05C
:104B80002068816989062CD4204641464A4603F0B4
:104B9000FFFD00287FF4E5AEFFF722FEA0EB090041
:104BA0004045EDD90DE020688169890619D40021BE
:104BB00020464A4603F0ECFD00287FF4D2AEFFF712
:104BC0000FFE606C40F020006064202084F84100FB
:104BD000002084F8420084F84000012003B0BDE8C2
:104BE000F08F2021C1614EF600034268CFF60063CA
:104BF0001A40426084F84110002084F8420084F892
:104C0000400003B0BDE8F08F2DE9F04F83B00446BB
:104C100090F8410020280DD1DDF83080B8F1000F68
:104C20000CD0DDF834A0BAF1000F07D094F84000A2
:104C300001280AD1022003B0BDE8F08F4FF40070C4
:104C40006064012003B0BDE8F08F1E4615460F4694
:104C5000012084F84000FFF7C3FD2168814689697F
:104C600009040AD5FFF7BCFDA0EB0900192800F2E2
:104C70000381206880690004F4D4212084F8410075
:104C8000402084F84200204639462A4633464FF0F9
:104C9000000BC4F844B0C4F82480DDF83880A4F8D0
:104CA0002AA0C4F834B0CDE9008903F08DFE28B104
:104CB00084F840B0012003B0BDE8F08F608D49F664
:104CC000004B0025CFF6004BB0F5807FC0F2FF15FA
:104CD0000BD32168FF226FF39F2751F8040F00EADE
:104CE0000B0040EA070328460DE0628D2168D0B230
:104CF0006FF39F2751F8043F03EA0B0347EA004094
:104D000003434FF000701843086018F1010007F1E9
:104D1000007647EA05074FF0FF0A228550D10BE0E5
:104D20000146A4F828A051F8042F02EA0B023A43E6
:104D30000A60618D00297AD04FF0FF3120464A4643
:104D400003F0AEFE00287FF47CAF616A206811F8A2
:104D5000012B82626162618D01396185218D4A1E5C
:104D60002285618D1204E4D10029E2D0816909060F
:104D70005FBF81695FEA016181695FEA016102D415
:104D800081690906F2D5618DFF29C9D8618D218518
:104D9000CAB2014651F8043F46EA024203EA0B0355
:104DA0001A43C5E7618D2185CAB2014651F8043F17
:104DB00046EA024203EA0B031A430A60618DB1B36B
:104DC000204641464A4603F06BFE00287FF439AF87
:104DD000616A206811F8012B82626162618D01397C
:104DE0006185218D4A1E2285618D1204E6D100293C
:104DF000E4D0816909060DD4B8F1000F3AD000BFA4
:104E0000FFF7EEFCA0EB0900404535D8206881692A
:104E10000906F5D5618DB1F5807FC3D30146A4F8AD
:104E200028A051F8042F02EA0B023A43C5E7816932
:104E3000B8F1000F01F0200113D069BB20464146B4
:104E40004A4603F0A5FC00287FF4FBAEFFF7C8FC40
:104E5000A0EB090040450FD8206881698906EDD58F
:104E60001AE0C9B9002120464A4603F091FC002807
:104E70007FF4E7AEFFF7B4FC606C40F020006064A4
:104E8000202084F84100002084F8420084F840008B
:104E9000012003B0BDE8F08F2021C1614EF6000370
:104EA0004268CFF600631A40426084F84110002047
:104EB00084F8420084F8400003B0BDE8F08F0000A1
:104EC000B0B5B6B0044602A8BC210025CDE93455E2
:104ED000CDE932553195FBF75EFC45F20041206883
:104EE000C4F20001884201D036B0B0BD0820029063
:104EF00002A8229500F0BCFD08B1FDF7C9FC44F200
:104F0000E04431A9C5F60204206840F002002060A8
:104F1000206800F00200019001984FF44070319039
:104F2000122032900020CDE933000420359040F269
:104F30000040C5F60200FFF747FBA06840F40010F0
:104F4000A060A06800F400100190019836B0B0BDD8
:104F500040F20C0040F2EC71C2F20040C2F200419B
:104F600000780A68104408607047000000000000E4
:104F700080B5032000F0D0F801F086FD44F218411E
:104F80004DF2B053C5F60201C0F600030A68C2F341
:104F90000322096801F00F019A5C595C02F01F02BC
:104FA000D04040F21802C2F2004201F01F0120FA84
:104FB00001F1116040F21401C2F2004108600F20BB
:104FC00000F00AF800281CBF012080BD00F054F852
:104FD000002080BD00000000B0B58AB00F283ED888
:104FE0000446752000222146002500F065F8752052
:104FF00000F052F840F21000C2F20040046044F2A7
:10500000F040C5F60200016841F40031016000681B
:1050100001A900F400300290029802A801F080FC7F
:1050200001F002FD4DF683614000C4F21B3144F2F1
:105030000042A0FB010140F2B840C2F200404FF034
:10504000FF33C4F20102026003EB9141C0E9011594
:1050500040F2E731C0E9031502F032FA10B1012045
:105060000AB0B0BD40F2B840C2F2004002F0A4FA6B
:105070000AB0B0BD0000000081B044F2F440C5F6B3
:105080000200016841F002010160006800F00200C6
:105090000090009801B07047002848BF704700F0AA
:1050A0001F01012202FA01F14EF200124009CEF274
:1050B000000242F82010704770B54EF60C5C4FF0BD
:1050C000FF36CEF2000C00F16045DCF80030C3F38F
:1050D000022E8EF00703042B28BF0423BEF1030425
:1050E00006FA03F321EA030100F00F0338BF00249E
:1050F000043BB0F1FF3F634406FA04F003F10C03F4
:1051000001FA04F1C8BF05F5644322EA0000084330
:105110000001187070BD00004EF60C514FF6FF03F1
:10512000CEF200010A681A4060F30A2242F0806061
:1051300040F0FD7008607047B0B544F60C05C5F648
:10514000020529684907296805D401F00701081AF2
:1051500018BF0120B0BD21F0070108432860FFF708
:105160003FFB044655F8080C800407D4FFF738FBD2
:10517000001BB0F57A7FF5D90120B0BD0020B0BD8D
:1051800080B501F0F9FB44F220414DF2B052C5F672
:105190000201C0F600020968C1F30211515C01F07E
:1051A0001F01C84080BD000080B544F2304CC5F6F8
:1051B000020C5CF8083C5CF8082CC2F3051E5CF895
:1051C000041CDCF8042001F00101BEF1000FC2F361
:1051D000CC0202FB01F100EE101AB8EE400A1DD01D
:1051E00003F00303022B1ED0012B2FD01BB95CF858
:1051F000301C890674D401EE10EA9FED4D3AB8EEEA
:10520000411ADCF800106FF35F2102EE101AB8EEBD
:10521000422AA0EE032A9FED490A29E00021C0E9B5
:105220000011816080BD01EE10EA9FED413AB8EEB9
:10523000411ADCF800106FF35F2102EE101AB8EE8D
:10524000422AA0EE032A9FED3B0A11E001EE10EA8C
:105250009FED373AB8EE411ADCF800106FF35F218A
:1052600002EE101AB8EE422AA0EE032A9FED320A8F
:10527000A2EE000A80EE010ADCF80010B7EE002A68
:10528000C1F3462101EE101AB8EE411A31EE021AAE
:1052900080EE011ABCEEC11A80ED001ADCF8001095
:1052A000C1F3064101EE101AB8EE411A31EE021AAE
:1052B00080EE011ABCEEC11A80ED011ADCF8001074
:1052C000C1F3066101EE101AB8EE411A31EE021A6E
:1052D00080EE010ABCEEC00A10EE101A816080BD9B
:1052E0005CF8301C49F20002C0F2D03202EE10EA43
:1052F000C1F3C1019FED0E3A22FA01F1B7EE004A67
:1053000001EE101AA0EE034AB8EE411AB8EE422A96
:10531000DCF800106FF35F2100EE101AB8EE400ABF
:1053200034EE000A20EE010A80EE020AA4E700BF74
:105330000000003920BCBE4B0024744A0024744C89
:1053400080B544F2384CC5F6020C5CF8103C5CF8B1
:10535000102CC2F3053E5CF80C1CBEF1000FC1F32B
:105360000011DCF80420C2F3CC0202FB01F100EED4
:10537000101AB8EE400A1DD003F00303022B31D0FF
:10538000012B1CD0DBB95CF8381C890674D401EE03
:1053900010EA9FED4D3AB8EE411ADCF800106FF3B9
:1053A0005F2102EE101AB8EE422AA0EE032A9FED0A
:1053B000490A29E00021C0E90011816080BD01EEA9
:1053C00010EA9FED413AB8EE411ADCF800106FF395
:1053D0005F2102EE101AB8EE422AA0EE032A9FEDDA
:1053E0003C0A11E001EE10EA9FED373AB8EE411A9F
:1053F000DCF800106FF35F2102EE101AB8EE422ABB
:10540000A0EE032A9FED310AA2EE000A80EE010A07
:10541000DCF80010B7EE002AC1F3462101EE101AA5
:10542000B8EE411A31EE021A80EE011ABCEEC11A32
:1054300080ED001ADCF80010C1F3064101EE101AED
:10544000B8EE411A31EE021A80EE011ABCEEC11A12
:1054500080ED011ADCF80010C1F3066101EE101AAC
:10546000B8EE411A31EE021A80EE010ABCEEC00A13
:1054700010EE101A816080BD5CF8381C49F2000201
:10548000C0F2D03202EE10EAC1F3C1019FED0E3A34
:1054900022FA01F1B7EE004A01EE101AA0EE034A1B
:1054A000B8EE411AB8EE422ADCF800106FF35F2123
:1054B00000EE101AB8EE400A34EE000A20EE010A9F
:1054C00080EE020AA4E700BF0000003920BCBE4BFA
:1054D0000024744A0024744C80B544F2404CC5F654
:1054E000020C5CF8183C5CF8182CC2F3055E5CF802
:1054F000141CBEF1000FC1F30021DCF80420C2F33C
:10550000CC0202FB01F100EE101AB8EE400A1DD0E9
:1055100003F00303022B31D0012B1CD0DBB95CF864
:10552000401C890674D401EE10EA9FED4D3AB8EEA6
:10553000411ADCF800106FF35F2102EE101AB8EE8A
:10554000422AA0EE032A9FED490A29E00021C0E982
:105550000011816080BD01EE10EA9FED413AB8EE86
:10556000411ADCF800106FF35F2102EE101AB8EE5A
:10557000422AA0EE032A9FED3C0A11E001EE10EA58
:105580009FED373AB8EE411ADCF800106FF35F2157
:1055900002EE101AB8EE422AA0EE032A9FED310A5D
:1055A000A2EE000A80EE010ADCF80010B7EE002A35
:1055B000C1F3462101EE101AB8EE411A31EE021A7B
:1055C00080EE011ABCEEC11A80ED001ADCF8001062
:1055D000C1F3064101EE101AB8EE411A31EE021A7B
:1055E00080EE011ABCEEC11A80ED011ADCF8001041
:1055F000C1F3066101EE101AB8EE411A31EE021A3B
:1056000080EE010ABCEEC00A10EE101A816080BD67
:105610005CF8401C49F20002C0F2D03202EE10EAFF
:10562000C1F3C1019FED0E3A22FA01F1B7EE004A33
:1056300001EE101AA0EE034AB8EE411AB8EE422A63
:10564000DCF800106FF35F2100EE101AB8EE400A8C
:1056500034EE000A20EE010A80EE020AA4E700BF41
:105660000000003920BCBE4B0024744A0024744C56
:1056700010B584B00146B0F5805F4FF0000023DB29
:10568000B1F5004F65DB00F08D80B1F5803F00F093
:10569000C880B1F5002F40F0FC8044F20040C5F610
:1056A0000200816D01F44031B1F5003F00F0FC8053
:1056B000B1F5803F00F0DD80002940F0D780006820
:1056C000000100F15881D1E0B1F5806F21DAB1F528
:1056D000807F00F07A80B1F5007F40F0DA8044F2FC
:1056E0000041C5F60201086DC0F38212042A00F2DF
:1056F000BD8048F20000C0F2BB00DFE812F0B40049
:105700000500E300CA00E7000868000140F1AE8030
:1057100031E100F07080B1F5006F40F0BA8044F2E2
:105720000041C5F60201886DC0F30262042A00F24E
:105730009D8048F20000C0F2BB00DFE812F0940048
:105740000500D900AA00DD000868000140F18E8044
:1057500011E1B1F5805F00F07480B1F5804F40F049
:10576000988044F20044C5F60204A06DC0F30270B4
:10577000052800F27B80DFE810F006002B013501E0
:105780003F014E01550101F0F7F8216A4DF2B05288
:10579000C0F60002C1F30211515C01F01F01C840C4
:1057A00004B010BD44F20040C5F60200016D01F0E6
:1057B0004051B1F1005F00F06580B1F1805F00F011
:1057C0006A80002952D100682DE144F20041C5F6FB
:1057D0000201086D00F00702042A47D848F20000D1
:1057E000C0F2BB00DFE802F03F0399559D00086856
:1057F00000013BD5BFE044F20041C5F60201886DCF
:10580000C0F34252042A31D848F20000C0F2BB0073
:10581000DFE802F02903983F9D000868000125D5C4
:10582000A9E044F20040C5F60200C16C0068C9035B
:105830001AD500011AD501A8FFF782FD039804B01C
:1058400010BD44F20041C5F60201086DC0F30232FA
:10585000042A0BD848F20000C0F2BB00DFE802F0D7
:10586000038791199B000868800117D4002004B0B9
:1058700010BD00688000F9D501A8FFF72DFE039840
:1058800004B010BD00680001F0D501A8FFF758FD75
:10589000029804B010BD00688001E7D501A8FFF7A9
:1058A00083FC029804B010BDC16C036811F0405134
:1058B000026840F0C18013F0040300F0BD80C2F321
:1058C000C100A0E008688000D0D55EE0C86C0B681D
:1058D00010F04052086803D113F0040340F09180A7
:1058E000B2F1805F66D110F4807040F0AB8061E06F
:1058F00008688000BAD548E0C86C0B6810F04052C8
:10590000086802D113F004037BD1B2F1805F51D15A
:1059100010F4807040F096804CE008688000A5D5B7
:1059200033E0C86C0B6810F04052086802D113F0E5
:10593000040366D1B2F1805F3CD110F4807040F076
:10594000818037E0086880007FF590AF1DE0C86C6B
:105950000B6810F04052086802D113F0040350D1D4
:10596000B2F1805F26D110F480706BD122E008681C
:1059700000017FF57BAF01A8FFF7E2FC019804B0BE
:1059800010BD086880007FF571AF01A8FFF7A4FD86
:10599000019804B010BDC86C0B6810F04052086844
:1059A00002D113F004032CD1B2F1805F02D110F4C4
:1059B000807047D1086810F400301CBF47F64000E3
:1059C000C0F27D10B2F1005F18BF002004B010BD1E
:1059D000206800017FF54AAF01A8FFF7B1FC0298EB
:1059E00004B010BD206880007FF540AF01A8FFF72C
:1059F00073FD029804B010BD206840077FF536AFF4
:105A00002068C0F3C10049F20001C0F2D03121FA90
:105A100000F004B010BD206840F60011C005C0F2CF
:105A20003D0105E0206847F640018003C0F27D118A
:105A300001EAE07004B010BDB1F1805F08D112F44A
:105A4000807205D040F60010C0F23D0004B010BDD9
:105A5000006810F400301CBF47F64000C0F27D1013
:105A6000B1F1005F18BF002004B010BD00000000BD
:105A70002DE9F0470446C07844F22C480007C5F6EB
:105A8000020841D5606E4FEA305103290AD8DFE899
:105A900001F0020E2B34D8F8001041F40031C8F8A0
:105AA00000102AE001266078C00709D030E0201DF0
:105AB000022104F0A9FE0646F0B16078C00727D1A4
:105AC00035463746607880073AD43E4660784007CE
:105AD0004ED4B1466078000700F164804F46E0780C
