:020000040800F2
:1000000008FD0024410400086304000891760008FC
:10001000357F0008DD390008CDCC00080000000065
:100020000000000000000000000000006D04000857
:100030006F04000800000000710400087304000849
:1000400075040008750400087504000875040008AC
:10005000750400087504000875040008750400089C
:10006000750400087504000875040008914700082D
:10007000750400087504000875040008750400087C
:10008000750400087504000875040008750400086C
:10009000750400087504000875040008750400085C
:1000A000750400087504000875040008750400084C
:1000B000750400087504000875040008750400083C
:1000C000750400087504000875040008750400082C
:1000D000750400087504000875040008750400081C
:1000E000750400087504000800000000750400088D
:1000F0005DBB00087504000875040008750400085D
:100100007504000875040008E1B9000875040008CA
:1001100075040008750400087504000875040008DB
:1001200075040008750400087504000875040008CB
:1001300075040008750400087504000875040008BB
:1001400000000000000000000000000000000000AF
:10015000750400087504000875040008750400089B
:10016000750400087504000875040008750400088B
:1001700075040008750400087504000800000000FC
:10018000750400087504000875040008750400086B
:10019000750400087504000875040008750400085B
:1001A000750400087504000875040008750400084B
:1001B000750400087504000875040008750400083B
:1001C000750400087504000875040008750400082B
:1001D000750400087504000875040008750400081B
:1001E000750400087504000875040008750400080B
:1001F00075040008750400087504000875040008FB
:1002000075040008750400087504000875040008EA
:1002100075040008750400087504000875040008DA
:10022000750400087504000875040008000000004B
:10023000750400087504000800000000750400083B
:1002400075040008750400087504000875040008AA
:10025000750400087504000875040008750400089A
:10026000750400087504000875040008750400088A
:1002700075040008750400087504000800000000FB
:10028000750400080000000075040008000000006C
:10029000000000007504000800F002F800F0C0F84B
:1002A0000AA090E8000C82448344AAF10107DA45D1
:1002B00001D100F0B5F8AFF2090EBAE80F0013F063
:1002C000010F18BFFB1A43F001031847781E010005
:1002D000B81E01000A444FF0000C10F8013B13F067
:1002E000070408BF10F8014B1D1108BF10F8015B8F
:1002F000641E05D010F8016B641E01F8016BF9D182
:1003000013F0080F1EBF10F8014BAD1C0C1B09D1D8
:100310006D1E58BF01F801CBFAD505E014F8016B4A
:1003200001F8016B6D1EF9D59142D6D370470000DC
:10033000103A24BF78C878C1FAD8520724BF30C811
:1003400030C144BF04680C607047000000230024E3
:1003500000250026103A28BF78C1FBD8520728BFD5
:1003600030C148BF0B6070476E2900F09181702941
:1003700000F0E18166290FF0A88765290FF0A587B5
:1003800067290FF0A28761290FF0A18703681B0A74
:1003900028BF41F08001692900F03E81642900F006
:1003A0003B81752900F038816F2901F06C80782934
:1003B00000F0AD81E92901F00780E42901F0048013
:1003C000F52901F00180EF2901F06980F82900F09A
:1003D000AC810368DB0928BF41F08001632900F08C
:1003E0008887732900F08D87E32901F04185F3297F
:1003F00001F04685002070471FB50FF05EFF01F049
:1004000019FB0400002000210FF032FF401C606047
:10041000002000210FF016FFE0601FBD10B510BDD9
:1004200001F082FF1146FFF7E7FF0FF0B9F902F084
:10043000D3F903B4FFF7F2FF03BC02F0E9F90000BF
:10044000104811490268914207D100600F491048D5
:100450008860D0F800D0406800470E4880470E48BA
:100460000047FEE7FEE7FEE7FEE7FEE7FEE7FEE702
:10047000FEE7FEE7FEE7000008480949094A0A4B83
:1004800070470000F0FF0120EFBEADDE00ED00E0A0
:100490000098F01F29B700089902000808F300240B
:1004A00008FD002408F5002408F5002410B54C10C0
:1004B00084EA530404D54042C1F1000138BF491E0B
:1004C0001B4204D55242C3F1000338BF5B1E00F04B
:1004D000E4FB14F0804F04D04042C1F1000138BF6A
:1004E000491E14F0004F04D05242C3F1000338BF3C
:1004F0005B1E10BD1CB50C46064B7B446946009044
:10050000204600F0CCFE04460020694600F0DAFEEA
:1005100020461CBDC70D00007CB51D4616460C00CC
:10052000009001D02044401E074B7B442A46694678
:100530000190304600F0B3FE05461CB1002069462C
:1005400000F0C0FE28467CBDA10D00000FB41CB514
:10055000084B06AA7B4469460090059800F09FFE70
:1005600004460020694600F0ADFE20461CBC5DF844
:1005700014FB00006D0D000070B50446856900682D
:10058000C10601D5302600E02026C00707D070BD87
:10059000D4E9012130469047206A401C20626D1E3C
:1005A000F6D570BD70B5044685690078C00707D1DF
:1005B00070BDD4E9012120209047206A401C2062B0
:1005C0006D1EF6D570BD70B50C460546012A05D0E6
:1005D0002878800600D5EA69002302E0012305E0BF
:1005E0005B1C934202D2E05C0028F9D1A869E618AE
:1005F000C01AA861286A184428622846FFF7BCFF81
:1006000004E0D5E9012114F8010B9047B442F8D376
:100610002846FFF7C7FF70BD2DE9F04106460024CC
:1006200010687529314616A510D000F0B8FB0028D7
:1006300002DA404213A507E031688A0701D512A506
:1006400002E0490704D511A5012401E000F0B0FB48
:1006500000210A2206F1240709E0B0FBF2FCB0FBFE
:10066000F2F302FB1C00303078541846491C002875
:10067000F3D123462A463046BDE8F04100F0A1BB45
:10068000000000002D0000002B00000020000000F2
:1006900011680268006A530501D508700AE0D305A5
:1006A00001D5088006E0130603D5C217C1E9000290
:1006B00000E0086001207047F0B40D46018809058C
:1006C00002D5214C7C4402E01F4C7C440E340021B6
:1006D00000F1240608E002F00F071209E75D42EA84
:1006E00003721B097754491C52EA0307F3D10278BD
:1006F0000023120704D5702D06D009B1022311344E
:100700002246F0BC00F05DBB01231034F8E770B561
:1007100004460D462146106800F04AFB0246294671
:100720002046BDE870400023C6E7D21D22F0070333
:10073000D3E90023C0E70368126843F02003036095
:100740000823C3610023B7E7481401002DE9F05FD7
:10075000894604464FF0000ADFF874B1FB44C0F844
:1007600020A02046E1688847002874D0252806D0BC
:10077000D4E901219047206A401C2062F1E700265D
:100780005F462046E16888472028054607DB312D73
:1007900005D2781910F8200C08B10643F1E7B0072C
:1007A00001D526F00406C4F81CA00027C4F818A040
:1007B0002A2D09D028460CF0F7FC38B304EB870843
:1007C000303DC8F8185019E059F8041B204604EBD6
:1007D00087029161E1688847012F054618D1E069D9
:1007E000002820DA26F020061DE0D8F8180000EBDB
:1007F000800005EB40003038C8F818002046E1685A
:10080000884705460CF0D0FC0028EED1012F0AD015
:100810002E2D08D12046E16888477F1C0546022F0F
:1008200046F02006C4DBA069002803DA404246F007
:100830000106A061F00701D026F010066C2D0BD048
:10084000682D09D04C2D39D06A2D35D0742D35D076
:100850007A2D33D016E038E0E1682F4620468847ED
:10086000B842054609D16C2F26D04FF48060E1686C
:10087000064320468847054604E06C2F1AD04FF403
:10088000807006430DB3A5F14100192802D8203528
:1008900046F400664A462946204626604E46FFF743
:1008A00063FD80B101280BD0F61D26F0070000F192
:1008B000080956E74020E4E78020D8E70020D6E783
:1008C00006F104094DE7284652E7206ABDE8F09F8B
:1008D000D81301000FB400B58DB010A90990009194
:1008E0000B904FF0FF300A9000200C90064878449F
:1008F0000690064878446A4607900F9909A801F0C7
:1009000069F80DB05DF814FB031100001B11000025
:100910002DE9FF5F1D464FF0FF3B91464FF0000869
:100920005F46D5E90146A96901987F1C8847296A75
:10093000824688470028F6D1BAF1FF3F0CD0002E3E
:1009400024F4C06419DD600614D5BAF12B0F09D068
:10095000BAF12D0F0ED103E0584604B0BDE8F09F68
:1009600044F48064A96901987F1C8847761E8246FA
:10097000002E02DDBAF1300F03D0B9F1000F26D0FE
:1009800032E0A969761E01987F1C44F40074884700
:10099000002E824605DDBAF1780F06D0BAF1580F65
:1009A00003D0B9F1000F10D01EE0B9F1000F02D052
:1009B000B9F1100F18D1A969761E01987F1C24F493
:1009C000007488478246102002E0082000E00A20D8
:1009D000814609E0A96908FB0908761E01987F1C79
:1009E00044F4007488478246002E05DD494650468F
:1009F00000F060FD0028EDDAE96901988847A0055C
:100A000002D46FF00100A8E7E00725D1600613D5F6
:100A1000600502D5C8F1000000E0404629680A1DC3
:100A20002A600968220501D5087015E0220701D562
:100A3000088011E008600FE02868011D2960006847
:100A4000210502D580F8008006E0210702D5A0F834
:100A5000008001E0C0F8008038467EE72DE9FF5FA6
:100A60004FF000089946144646469169D2E901A71D
:100A7000DDF838B001988847054659EA0B0005D0E3
:100A800009E0A1690198761C88470546216A284635
:100A900088470028F5D1681C03D05FEACA7005D0EA
:100AA00015E04FF0FF3004B0BDE8F09F2068011D55
:100AB0002160D0F800800AE05FEACA7001D108F82E
:100AC000015BA169761C01987F1E88470546002FAF
:100AD0001ADD681C18D0B9F1000F0DD0E81705EB2E
:100AE000D060421120F01F0059F822102A1A01206C
:100AF00090400142E0D107E0BBF1000FDCD1284675
:100B0000216A88470028D7D0E16901988847BBF15E
:100B1000000F07D1002E05DD5FEACA7002D1002167
:100B200088F80010A068B84203DDBBF1000F03D0C5
:100B300017B16FF00100B6E73046B4E7032A40F280
:100B4000308010F0030C00F0158011F8013BBCF16F
:100B5000020F624498BF11F801CB00F8013B38BF87
:100B600011F8013BA2F1040298BF00F801CB38BF95
:100B700000F8013B11F0030300F02580083AC0F0B3
:100B8000088051F8043B083A51F804CBA0E808105B
:100B9000F5E7121D5CBF51F8043B40F8043BAFF38E
:100BA0000080D20724BF11F8013B11F801CB48BFE8
:100BB00011F8012B24BF00F8013B00F801CB48BF1E
:100BC00000F8012B704710B5203AC0F00B80B1E857
:100BD0001850203AA0E81850B1E81850A0E8185072
:100BE000BFF4F5AF5FEA027C24BFB1E81850A0E87B
:100BF000185044BF18C918C0BDE810405FEA827C95
:100C000024BF51F8043B40F8043B08BF7047D207AB
:100C100028BF31F8023B48BF11F8012B28BF20F84C
:100C2000023B48BF00F8012B704700004FF0013C29
:100C300050F8042B51F8043B9A4215D1A2EB0C0357
:100C4000934313EACC130BD150F8042B51F8043B17
:100C50009A4209D1A2EB0C03934313EACC13E7D0D9
:100C60004FF00000704700BFD01A01BAB1FA81F10D
:100C700001F0180122FA01F0CB40C1F12001DBB2F2
:100C8000C0B2C01A2CFA01F3D11A914311EAC31170
:100C9000E6D1704770477047704753EA020C00F086
:100CA00069802DE9F04B4FF00006002B1FBFB3FA0F
:100CB00083F503FA05F424FA05F65E4012BF1643E5
:100CC000B2FA82F502FA05F4C5F120051EBF22FA38
:100CD00005FC44EA0C04203556EA044C4FEA14445F
:100CE00018BF641C4FF000084FF00009904271EBF0
:100CF000030C39D3002919BFB1FA81F701FA07F6BD
:100D0000B0FA80F700FA07F6C7F120071EBF20FAF5
:100D100007FC46EA0C062037B6FBF4FCA7EB0507F8
:100D2000103F07F01F0BCBF120060CFA0BFB2CFA3F
:100D300006F644BFB3460026202FA4BF5E464FF000
:100D4000000B5BEA060C08BF4FF0010B19EB0B0917
:100D5000ABFB027C48EB0608C01B06FB02CC0BFB7E
:100D600003CC71EB0C01C1E70B46024641464846F5
:100D7000BDE8F08B13B54FF000004FF00001AFF36A
:100D80000080BDE81C40704710B500F057FE0068B9
:100D900010BD10B5044600F051FE046010BD096896
:100DA0004A0501D540B27047C905FCD500B270476D
:100DB00009684A0501D5C0B27047C905FCD580B2A3
:100DC00070472DE9F0470D4699469246044600F1DA
:100DD00024080168880604D5E06921F0100121602B
:100DE00000E00120A84201DD471B00E00027A169C7
:100DF0007A1902EB0900081AA0612078C00602D413
:100E00002046FFF7B9FB002608E0D4E901211AF8D3
:100E100006009047206A401C761C20624E45F4DB99
:100E20002078C0060AD52046FFF7A6FB06E0D4E9E5
:100E3000012130209047206A401C2062381EA7F113
:100E40000107F4DC07E0D4E9012118F80500904718
:100E5000206A401C2062281EA5F10105F3DC204613
:100E6000FFF7A0FB2078000602D50220BDE8F0873E
:100E70000120FBE770472DE9FF4F0C461E464FF05F
:100E8000FF378BB0D2E90001DDF860800A908A4616
:100E9000C1F30A5505B93D46002108464FF0000050
:100EA000BAF1000F00F4400005DA00EB80004FF4C7
:100EB000400101EA50004FEA9059B9F1010F00DDFD
:100EC000B9460A9850EA4A000ED044F61050A5F2EE
:100ED000FF3545432F14B8F1000F1ED07542291E6F
:100EE0001EDDC9F100021CE0B8F1010F4FF0000057
:100EF00001D0302103E0F24305E02154401CB04210
:100F0000FBDB30460022002121540B99C1F80880F8
:100F1000C1E900200FB0BDE8F08FBD1B6D1CDEE7FE
:100F20004A4600DA694206A801F068F906AB93E880
:100F3000070003AB83E8070050460A9901F06FFCF5
:100F40008DE80700A0F500501F3800900398002D91
:100F50000ADD42F21F014A460844002303A9039018
:100F6000684601F01BFF09E0A0F500504A461F3813
:100F7000002303A90390684601F03AFF8DE80700BB
:100F80000004000C03D04FF0FF30410800E0104691
:100F9000B8F1000F03D00022009215461EE0751E26
:100FA00005D400F04FFD303262556D1EF9D5B346C1
:100FB0000122084302D000227F1C04E02078302860
:100FC00001D100227F1E002A099784D01DE0112D37
:100FD00007DA00F037FD303262556D1C50EA01022D
:100FE000F5D1084302D00098C8B10EE00021681E78
:100FF00005E0235C625C63542254401E491C81421C
:10100000F7DBAB46A81B401E0990002004F80B003C
:101010000B98099AC0F80880C0E9002B7AE71126DE
:101020004FF0000857E72DE9F04F88460446D21DDF
:1010300022F0070191B0D1E90001CDE90A010BF0DE
:1010400089FE02460B98C00F01D02D2007E02068D2
:10105000810701D52B2002E0202101EAC000032AEC
:10106000099001D0072A05DB03464146204600F0DF
:10107000B5FE0BE12078800601D5E06900E006208E
:10108000B8F1650F814606D0B8F1660F18D0B8F1F7
:10109000670F70D131E00020B9F1110F009001DB32
:1010A000112301E009F101030AAA01A90CA8FFF725
:1010B000E2FEDDE90C70002609F10105834647E0F8
:1010C00001204B4600904FF000470AAA01A90CA846
:1010D000FFF7D1FEDDE90DB00C995D46002610B991
:1010E00009F101000D18B9EB050003D4C0F1FF367A
:1010F00009F10105A5EB09002BE0B9F1010F01DAB7
:101100004FF001090020B9F1110F0090484601DDB0
:10111000112300E003460AAA01A90CA8FFF7ABFEC1
:10112000DDE90C704D4600268346207800070AD47E
:10113000AB4500DA5D4601A8012D04DD411911F827
:10114000011C302907D04F4502DA17F1040F04DAE9
:10115000012082460FE06D1EEEE7002F02DCED1B42
:101160003E4403E0781CA84200DD7D1CB81B00F162
:10117000010A4FF000472078000703D4AA4501DB9D
:101180004FF0FF3A0021B7F1004F0DF143088DF801
:10119000431024D002202B23002F01DA7F422D237D
:1011A0000A21021EA0F1010000DC5FB197FBF1FCF7
:1011B00097FBF1F201FB1C7C17460CF1300C08F890
:1011C00001CDEEE7A8F1010003702188090501D5E2
:1011D000452100E06521A0F1010800F8011C0998F3
:1011E0000FA9A1EB0807FF1D00B10120411901EB78
:1011F000EA70A1693844081A401EA0612078C00630
:1012000002D42046FFF7B8F9099828B1D4E90121A2
:101210009047206A401C20622078C00622D52046D4
:10122000FFF7AAF91EE0002E04DBB34502DD01A89A
:10123000805D00E03020D4E901219047206A401C05
:101240002062761CAAF101005FEA000A0AD100F0D0
:10125000F1FBC0680168405CD4E901219047206A35
:10126000401C2062281EA5F10105DCDC07E0D4E962
:10127000012118F8010B9047206A401C2062381E9B
:10128000A7F10107F3DC2046FFF78CF9032011B02A
:1012900041E6000001694A1C02610878704700B508
:1012A0008FB0CDE901310021059105497944CDE99F
:1012B000031011466846FFF749FA0FB000BD000061
:1012C000E5FFFFFF0A6802F8010B0A607047D1E9E9
:1012D00000239A4202D2531C0B601070704710B565
:1012E000436913B1AFF3008001E0FFF76CF901200F
:1012F00010BD127800F124010A7000224A70012208
:10130000EDE711684FF0FF32E9E700002DE9FF5FDC
:1013100015468A460446DFF8AC80F8440027D8E931
:1013200000103E46CDE9001010E03AF816106A466B
:1013300002A800F0D5FF411C07D02178890603D50B
:10134000E269391891420DD80744761C207880064E
:1013500002D5E069B84205DDAE42E6DB3AF8160098
:101360000028E2D1A069C01BA0612046FFF704F964
:10137000D8E90010CDE90010002017E03AF8181065
:101380006A4602A800F0ACFFB0F1FF3F81460BD0E7
:1013900000250DF1080B05E0D4E901211BF805003B
:1013A00090476D1C4D45F7D308F10100B0428046CF
:1013B000E4DB206A384420622046FFF7F3F8BDE8FA
:1013C000FF9F00005E0801002DE9F0418046D21D1C
:1013D00022F007020025D2E90002F52915A614D053
:1013E000011E72F1000106DA0023D0EB030063EB6B
:1013F000020211A608E0D8F800108B0701D50FA64D
:1014000002E0490701D50EA601251146002408F186
:10141000240704E000F016FB30323A55641C50EA11
:101420000102F7D12B46324621464046BDE8F04145
:10143000FFF7C7BC000000002D0000002B000000DB
:101440002000000030B4002100F1240408E002F084
:101450000705D208303542EA4372DB086554491C5F
:1014600052EA0305F3D10468002310A2250707D52B
:10147000A40600D421B1C46901230DA2641EC46175
:1014800030BCFFF79EBC10B5044621461068FFF73C
:101490008FFC02462046BDE810400023D2E7D21D53
:1014A00022F00701D1E90023CCE700000000000092
:1014B000300000003A2800D2303820F02002412AC3
:1014C00001D3A2F13700884201D34FF0FF307047BB
:1014D0002DE9FF4F06468BB00878FF2806D0491C3F
:1014E0002D2805D000244FF0000908E000200CE072
:1014F0000124F8E709EB8903491C00EB430908784C
:10150000FF28F7D114B1C9F10000814610780025F9
:101510002C46AA4629462D2801D02B2804D1521C3E
:101520002D2813D0002082468B461078FF280FD03C
:101530004FF0000C0A21521CA5FB017804FB01812D
:1015400005FB0C11C5194BEB0104EEE70120EAE79E
:10155000002108464FF00000BAF1000F02D000EB66
:1015600080004008C0F38157012F01DD4FF0FF37A5
:101570000E9955EA040009EB01080BD04FF002095F
:1015800018F5FA7F16DA4FEACA70002F706008DD8E
:10159000012007E04FEACA70C6E900B00FB0BDE80D
:1015A000F08F0020306000F049FAC0F80090182158
:1015B000084616E0B8F5FA7F18DD002F02DAF74882
:1015C000784401E0F6487844D0E90010C6E90010FC
:1015D00040EACA70706000F031FAC0F8009014213F
:1015E00008460FB0BDE8F04F0EF06CBE0021084673
:1015F0004FF00000B8F10001099002DAC7F10002D3
:1016000000E03A4601DAC8F1000106A800F0F6FD54
:1016100006AB93E8070003AB83E8070044F23E0003
:101620005BEA04010090584604D144F21E012C46A6
:101630005D460091210C0904014306D10099240460
:1016400044EA15442D041039009104F07F41014310
:1016500006D10099240244EA15642D02083900914C
:1016600004F07041014306D10099240144EA157445
:101670002D01091F009104F04041014306D100995A
:10168000A40044EA9574AD00891E009104F0004165
:10169000084304D100986D196441401E00904FF03A
:1016A00001033A466846B8F1000FCDE9014503A9A8
:1016B00002DD01F0B2FB01E001F085FBBAF1000FA1
:1016C00004460D4601D084F00044002108464FF046
:1016D0000000099940F2FF77484010F00C0F07D145
:1016E00024F00040284303D0C4F30A50B84212D17A
:1016F00000F0A4F9C0F80090C4F30A50B8420AD12F
:10170000A8487844D0E90010C6E9001004F0004170
:101710000843706042E7C6E900543FE72DE9FF4FF8
:101720001F464FF0000A4FF0FF38454691B0D7E909
:101730000146CDF83CA000F07DF9C0680168405C2E
:101740001090B96912986D1C8847396A814688479C
:101750000028F6D1B9F1FF3F0AD0002E24F4D0645E
:1017600011DDB9F12B0F08D0B9F12D0F0BD102E02B
:10177000404615B013E744F48064B96912986D1CB3
:101780008847761E8146600504A901D52D2000E01A
:101790002B20002E01F1010B0DF130088DF8100007
:1017A0003FDDB9F1690F08D0B9F1490F05D0B9F1A2
:1017B0006E0F02D0B9F14E0F1CD13B4601A8009527
:1017C00080E85002DDE912126FF002000EF0E5FD34
:1017D000C11CCED10EE0B96912986D1C88478146B4
:1017E0001398761E44F4007405600F98401C002E78
:1017F0000F9016DDB9F1300FEDD0B9F1780F02D0AE
:10180000B9F1580F0DD10F9801280AD13B46CDE907
:101810000054DDE91212001F02960EF0BCFDC11C3F
:10182000A7D1109989453ED144F0800406E0139970
:10183000681CAAF1010A44F400740860B9696D1CBF
:101840001298761E884730288146F0D02BE01099F8
:10185000894505D1200603D4761E44F0800418E0A3
:1018600048460BF0A1FC08B3761E0DF123018B4511
:1018700044F4007408D2A9F130000BF8010B2006E3
:1018800007D5AAF1010003E0200602D40AF1010005
:101890008246A00502D51399681C0860B9691298A0
:1018A0006D1C88478146002ED1DC53E0002E51DDAF
:1018B000B9F1650F02D0B9F1450F4BD1A00549D55B
:1018C000B9696D1C1298761E24F440748847002E66
:1018D00081460CDD2B2804D0B9F12D0F07D144F43B
:1018E0008074B96912986D1C8847761E8146E005A0
:1018F00001D52D2100E02B2108F8011BCDF8008037
:1019000021E0761E0DF13901884544F400740CD2B3
:10191000A9F1300010F0FF0088F8000002D1009912
:10192000884509D908F1010806E0E00501D51E48FF
:1019300001E042F20F708246B96912986D1C884727
:10194000814613980560002E04DD48460BF02CFC00
:101950000028D6D1F96912988847FF2053468BF8A2
:10196000000088F8000000200A900B9004AA0CA93F
:101970000AA8FFF7ADFDA00502D46FF00100F8E65C
:1019800014F0240F12D0E0071CD13868DDE90A12E8
:10199000031D3B600068C0E9001213E0C80B0100A2
:1019A000BA0B01007E0A0100F1D8FFFF0AA96846C0
:1019B0000BF092FBE00705D13868009A011D3960F1
:1019C000006802602846D4E602681144137801607A
:1019D00018467047D16005497944516104497944FA
:1019E000116200211161114600F04EBAEDFFFFFFB8
:1019F000ED000000426842B1016811F8013B23B1DB
:101A0000521EC0E90012184670470121C160881EAD
:101A1000704742685AB1C368016843B983688B4212
:101A200005D0491E521CC0E90012002070474FF03B
:101A3000FF30704700487047C4F2002400487047E8
:101A4000A4F2002430B5B0F10A024FEA900E71F111
:101A500000034EEA817EB0EB0E0061EB91014FEA8C
:101A6000101E4EEA017E10EB0E0041EB11114FEA01
:101A7000102E4EEA016E10EB0E0041EB11214FEAE1
:101A8000104E4EEA014E10EB0E0041EB1141401892
:101A900041F100014FEAD00040EA41704FEAD10124
:101AA00010EB80054FEA810444EA907444EB010492
:101AB0006D1944EB0404521BA3414FF0000348BFCF
:101AC0000A3200D530BD401C41F1000130BD10B5D7
:101AD000044600F04FFC0068005D00F0010010BDFE
:101AE0002DE9F04F04460D46D21D22F0070089B0C3
:101AF000D0E90097484639460BF02CF90246F80F1A
:101B000001D02D2307E02068810701D52B2302E0B7
:101B1000202101EAC0038DF820300BB1012000E044
:101B20000020032A824601D0072A04DB29462046EA
:101B300000F054F93FE12078800601D40D2500E043
:101B4000E569C7F30A560D2D49DA00214FEA175B04
:101B500008464FF00000002F00F4400007DA00EBC9
:101B600080004FF4400100EBD07001EA6000811565
:101B7000012901DD4FF0FF3100224FEA850CBCF155
:101B8000180F06D31346ACF118004FF08052C24034
:101B900003E04FF4801323FA0CF30CF10C0CBCF1AE
:101BA000200F04D3ACF1200C09FA0CF001E007FA85
:101BB0000CF000294FF0004801DD18B90FE00ED1FC
:101BC00040450CD319EB02095F4121B9404502D1D0
:101BD0009F4329EA0209BBEB175F00D0761C2088DF
:101BE000000502D57B48784402E07A4878441938E9
:101BF00008AA302302F80A30037C0AF10101002E02
:101C00000AF1020A53546A4602DC4FF0300101E047
:101C10004FF031014FF001088DF8001002D0A6F20C
:101C2000FF3603E059EA470100D06B4E002D02DC7D
:101C30002178090704D54FF002082E218DF80110F4
:101C4000C44600210BE0C7F303433F01C35C491CBA
:101C50006D1E02F80830052908F1010801DA002D8F
:101C6000F1DC00210CE000EB1973491C1B786D1EA0
:101C7000082902F808304FEA091908F1010801DAC9
:101C8000002DF0DC21688B0602D516E0A8F10108D2
:101C9000E04505DD02EB080313F8013C302BF5D0DD
:101CA000B8F1000F09DD02EB080313F8013C2E2BFD
:101CB00003D1090701D4A8F10108002D05DD3E215B
:101CC00002F808106D1E08F10108407C002E02F891
:101CD000080008F1010804DA2D20764202F8080015
:101CE00002E02B2002F808000A214FF47A708642A5
:101CF00008F101080BDB96FBF0F3303302F80830F3
:101D000096FBF0F308F1010800FB136601E0642E76
:101D10000CDB642096FBF0F3303302F8083096FBBE
:101D2000F0F308F1010800FB136601E00A2E06DB60
:101D300096FBF1F0303002F8080008F1010896FB3C
:101D4000F1F001FB1060303002F80800A16908F1E1
:101D5000010808EB050202EB0A00081AA0612078CE
:101D6000C00602D42046FEF707FC216A08AE01EB4C
:101D70000A00206204E0D4E9012116F8010B904723
:101D8000BAF1010AF7D22078C00602D52046FEF744
:101D9000F3FB6E4609E016F8010B3E280FD0D4E99C
:101DA00001219047206A401C2062B8F10108F2D25C
:101DB0002046FEF7F7FB09B00320BDE8F08F206A4C
:101DC0002844206203E0D4E90121302090476D1EB1
:101DD000EBD3F8E7ADFF000002FCFFFF2DE9F04177
:101DE0001F46044603260168072A01F4006004DB4D
:101DF00008B116A505E016A503E008B115A500E099
:101E000015A521F010002060A069C01EA0610FB1CF
:101E1000401EA0612046FEF7AFFB4FB1D4E901217F
:101E200038469047206A401C2062C01C206206E0B1
:101E3000206AFAE7D4E9012115F8010B9047761ED4
:101E4000F8D22046FEF7AEFBBDE8F0814E414E00D1
:101E50006E616E00494E4600696E660010B54369BA
:101E600013B1AFF3008001E0FFF750FA012010BD7D
:101E7000128800F1240182840022C2840122EDE74D
:101E800011684FF0FF32E9E72DE9F34F4FF0000AF8
:101E90000C4656468DB001200C9001F10C000B90C1
:101EA00062690B9801219047051E2DD0252D2CD05D
:101EB000216A8847C0B162690B9801219047216A65
:101EC00088470028F7D16269411E0B98904700E0CF
:101ED000761CA1690D988847216A88470028F7D1A8
:101EE000E1690D988847DBE7A1690D988847A8420A
:101EF000074601D1761CD3E7E1690D9888477F1C1E
:101F000002D1BAF1000F6FD06BE162690B98002724
:101F10003D46394690472A2804D162690B98012131
:101F200090470125DFF8D08262690B980121904724
:101F3000A0F130010A290AD24745E5DC07EB870109
:101F400000EB4107303FDFD445F01005ECE7E90630
:101F500001D46FF000476C280AD04C2814D06828B0
:101F600015D06A280DD074281CD07A281AD01DE00C
:101F700062690B98012190476C2802D045F0040556
:101F800014E045F002050DE045F020050AE0626925
:101F90000B9801219047682802D045F0080505E01C
:101FA00045F4006562690B9801219047C4E9015727
:101FB00065283DD019DC58287AD00CDC452837D06C
:101FC00004DC252826D041289ED131E046282FD098
:101FD000472899D12CE05B2877D0612828D0632846
:101FE0007CD0642823D15AE0F6E06F2848D008DC82
:101FF00066281DD067281BD0692821D06E2816D1ED
:1020000027E0702845D0732868D0752847D07828F5
:102010000DD14DE0A1690D988847252805463FF46C
:1020200069AFE1690D9888476D1C3FF46AAFD8E04D
:102030000D9923466A466FF001000EF0AAF9C5E03B
:1020400045F0400023464FF000026060A80736D4F8
:102050003EE0E8077FF447AF2068011D216000687B
:10206000290501D506701BE7290701D5068017E76A
:10207000A90703D5F117C0E9006111E706600FE772
:1020800045F0400023464FF008026060A80716D4D0
:102090001EE040F60E0125EA0100606016E045F002
:1020A000400023464FF00A026060A80707D40FE003
:1020B00045F040006060A80708D5234610220D991E
:1020C0006FF00100AFF3008080E007E010222346AC
:1020D0000D996FF00100FEF71BFC77E04FF000094F
:1020E00063284F46C8464B46CB4602D05B2806D0F5
:1020F00038E0E80601D40120A060012732E06269DF
:10210000D4F80CB00B98012190475E2807D14FF00E
:10211000010949466269D4F80CB00B9890472169CF
:1021200039B900210A4603AB43F82120491C08298C
:10213000FADBD8B3216949B308F1010862690B9849
:10214000012190475D28F4D1B9F1000F09D000209A
:1021500003A951F82020D24341F82020401C082830
:10216000F7DB03AB2069002820794FEA40701ED0CE
:102170005B462246CDF80080CDE901970D990028F5
:102180006FF0010020DAAFF300801FE0C11703AA4F
:1021900000EBD1614B1121F01F0102EB8302411AC8
:1021A00013680120884003431360C7E719E00D99C5
:1021B000224600286FF00100009702DAAFF300809A
:1021C00004E0FEF74BFC01E0AFF3008000280ADAE0
:1021D000401C06D10C9820B14FF0FF300FB0BDE885
:1021E000F08F5046FAE7E90701D10AF1010A0644E7
:1021F00000200C9054E60000CCCCCC0C2DE9F0472C
:10220000814616468AB0354878440DC88DE80D00E1
:1022100032487844801C03AC0DC884E80D0041F6B8
:102220009B300844372190FBF1F290FBF1F5A5F1CA
:10223000800501FB12041B3C02D56442012000E032
:102240000020DFF898A080460027FA44AAF1BE0AD1
:102250000EE0E0070AD03246684607EB470101234B
:102260000AEB810100F0C4FD8DE8070064107F1CBB
:10227000002CEED1194F7F44AE3F19E0E80715D08E
:1022800007EB04100DF1180A90E80E008AE80E0022
:10229000C068F04201D1981908903246012306A97E
:1022A00003A800F0A5FD03AB83E807006D10641CD4
:1022B000002DE3D14FF0010332466946B8F1000F1B
:1022C00003A802D000F06AFD01E000F091FDC9E929
:1022D0000001C9F808200AB0BDE8F0871CFA000028
:1022E00070B516460C46054600F044F8036893F8AE
:1022F0000101012806D0FF2C0FD8185D68B101201C
:102300002C7070BDD3F807013246214603F2071343
:1023100003442846BDE8704018474FF0FF3070BDB9
:1023200000487047A4F200247546FFF7F9FFAE4657
:1023300005006946534620F00700854618B020B5D1
:10234000FEF79AF8BDE820404FF000064FF0000776
:102350004FF000084FF0000B21F00701AC46ACE84D
:10236000C009ACE8C009ACE8C009ACE8C0098D46BA
:102370007047000010B5FFF75DFB001D10BD00BFEA
:10238000F1DE00002DE9FF4F1F464FF03C0987B0FA
:102390004FF00042DDE9141001F10108DDF858A00A
:1023A00002EA40500390002005908346054604460B
:1023B0000490B969461E08988847AAF1010A02905C
:1023C000BAF1000F3BDD02982E2815D01021FFF73F
:1023D00071F800282EDB4FF0010B0599014317D04F
:1023E000B9F1000F0BDB4A46C11700F0FEF90543B7
:1023F0000C43A9F1040905E0012004900BE008B1A9
:1024000045F0010501200590049820B9361D02E031
:10241000049800B1361FB969089808F10108884787
:10242000BBF1000FAAF1010A0290C9D00999C1F8C5
:102430000080C5E70298702808D0502806D0F969B6
:1024400008988847BBF1000F14D04FE0002002909D
:102450000120BBF1000F049009D0B969089808F178
:1024600001088847AAF10109B9F1000F07DCF969F1
:10247000089888476FF001000BB0BDE8F08F2B285B
:1024800004D02D280CD14FF0FF300490B969089882
:1024900008F101088847A9F10109B9F1000FE6DD4B
:1024A000411CE4D00A21FFF705F80028DFDB029980
:1024B00008F1010801EB810100EB41000290B969CC
:1024C000089888470A21FEF7F5FF099AA9F1010942
:1024D000B9F1000FC2F8008001DD0028E7DAF969E0
:1024E000089888470499029800FB016655EA0400A1
:1024F00004D004F04041090002D006E0039898E0BF
:10250000A40044EA9574AD00B61E04F00041080032
:1025100002D16D196441761E159810F0240F03D076
:102520004FF00B095C4803E04FF028096FF07D0085
:102530008246564507DAAAEB06018944B9F1410FF4
:1025400001DD4FF0410901200021A9F1010200F055
:102550004CF9024628400B462140084301D0012196
:1025600000E00021501E029143F1FF31284021403C
:10257000084301D0012000E000200299834651EA7F
:102580000B014FD0002108464FF00000039900F4E2
:10259000400039B100EB80004FF4400100EBD070F7
:1025A00001EA60008015012802DD4FF0FF3000E0F5
:1025B00013D0401C36D0029860B3BBF1000F0CD191
:1025C0004A460120002100F010F92840214008432C
:1025D00001D0012000E00020E0B101204A460021A6
:1025E00000F003F9034640190A4661412D1A8C4157
:1025F00011D3B9F1400F09DD159810F0240F02D066
:10260000AAF1340603E0AAF1170600E0761C0025C3
:102610004FF0004406E05B1E42F1FF3220EA030562
:1026200021EA0204CAF10100B04206DA1B4903980C
:1026300008430190002000900EE0039AC4F3D321D8
:10264000E80A0A43164940EA44500A433146CDE9B4
:10265000000268460AF04CFD159810F0240F0BD0CC
:102660001598C00715D13868DDE90012031D3B60DD
:102670000068C0E900120CE002A869460AF02CFDCF
:102680001598C00705D13868029A011D39600068A5
:1026900002604046F0E6000002FCFFFF0000F07F11
:1026A0000000F03F2DE9FF4F92461D4685B04FF0E8
:1026B0000041DDE9124BDDE914727F1E01EA4B5047
:1026C000414940F0FF4940EA0108002122F0200082
:1026D0004928049102D04E2828D04CE03BA0012686
:1026E00007C88DE80700A9690698641C88477F1E03
:1026F000014606D41DF8060018B121F020018142E0
:102700000BD0E96906988847032E34D0082E32D0C2
:102710006FF0010009B0BDE8F08F761C032E01D0E8
:10272000082EE0D1601CCAF80000DCE7A969069811
:10273000641C88477F1E2AD420F02000412826D11F
:10274000A9690698641C88477F1E20D420F02000C9
:102750004E281CD1A9690698641C88477F1E48F43E
:10276000002849F48009CAF8004001D4282806D07E
:10277000E969069888475FEACB7012D022E0A96920
:102780000698641C88477F1E01D4002803DAE96993
:1027900006988847BCE72928F1D1641CCAF8004094
:1027A000E9E71BF0240F07D028680499031D2B606C
:1027B0000068C0E9001805E02868021D2A6000686A
:1027C000C0F800902046A5E70000F07F494E46493A
:1027D0004E4954590000000010B50446AFF3008084
:1027E0002046BDE81040FDF724BEB2F120030AD513
:1027F000C2F1200301FA02F120FA03F300FA02F019
:1028000041EA0301704700FA03F14FF000007047FE
:1028100001491820ABBEFEE72600020070475FEAC0
:10282000400C08BF91F0000F4FEA8C234FEAC12201
:1028300043EA51514FEA1C5018BF00F5F0404FEAEF
:10284000300018BF41F000415FEA6C5C00F0298065
:10285000BCF1FF3F08BF40F080407047130C06BF3B
:1028600012044FF0100C4FF0000C130E04BF1202B4
:102870000CF1080C130F04BF12010CF1040C930FA0
:1028800004BF92000CF1020CD30F04BF52000CF1F4
:10289000010C11464FF00002A0F11F00A0EB0C004C
:1028A000704711F0004F08BF704731F000413FF40E
:1028B000D5AF0B0C06BF09044FF0100C4FF0000C05
:1028C0000B0E04BF09020CF1080C0B0F04BF090129
:1028D0000CF1040C8B0F04BF89000CF1020CCB0F20
:1028E00004BF49000CF1010CCCF12003A0EB0C005B
:1028F00022FA03F302FA0CF241EA030100F10100AB
:10290000704720F07F4C80EA030023F07F47ACEB58
:10291000070303F57C5300F0004003F1FF032DE9AA
:1029200080494FEA154B09B44FEA144325EA0B4E90
:1029300024EA03480FF2042606EB132749083E78E1
:102940005FEA320203FB0667C7F5000707FB06F6DE
:102950004FEA54374FEAD64606F1020607FB066CEB
:10296000CCF1005C4FEA1C472CEA074C07FB06F44D
:102970000CFB06F504EB15464FEA961634BF002013
:102980004FF000404FEAD13706FB07FC4FEA1C4CE2
:102990000CFB0BF7D21B03FB0CF761EB07010CFBE5
:1029A0000EF7B0EB074072EB17420CFB08F734BF91
:1029B000A2EB0742B2EB074261EB17414FEA0C442E
:1029C0004FEA910706FB07FC4FEA1C4C0CFB0BF788
:1029D000B0EBC74072EB573203FB0CF734BFA2EBEE
:1029E000C742B2EBC74261EB57310CFB0EF7B0EBBD
:1029F000C70072EB57720CFB08F734BFA2EBC7029B
:102A0000B2EBC70261EB5771039F4FEA816141EA64
:102A1000921104EBCC044FEAD1374FEA826206FBF5
:102A200007FC42EA90124FEA80604FEA1C4C0CFB14
:102A30000BF7D21B03FB0CF761EB07010CFB0EF746
:102A4000B0EB074072EB17420CFB08F734BFA2EB68
:102A50000742B2EB074261EB17414FEA8C554FEA50
:102A6000910704EB9C2406FB07FC4FEA1C4C0CFB73
:102A70000BF7B0EBC74072EB573203FB0CF734BFD8
:102A8000A2EBC742B2EBC74261EB57310CFB0EF72A
:102A9000B0EBC70072EB57720CFB08F734BFA2EB28
:102AA000C702B2EBC70261EB577115EB4C254FEA39
:102AB000816141EA92114FEA82624FEAD13742EADC
:102AC000901206FB07FC44F100044FEA80604FEAD5
:102AD0001C4C0CFB0BF7D21B03FB0CF761EB070143
:102AE0000CFB0EF7B0EB074072EB17420CFB08F73C
:102AF00034BFA2EB0742B2EB074261EB174115EB83
:102B00001C154FEA813141EA92414FEA823242EA92
:102B100090424FEA80304FEA0C7644F1000448EAD4
:102B200003434EEA0B484FF0000EB2EB080C71EB7A
:102B3000030724BF624639464EEB0E0E4FF0000BE2
:102B40000018524149414BEB0B0BB2EB080C71EBF7
:102B500003077BF1000B24BF624639464EEB0E0E95
:102B60004FF0000B0018524149414BEB0B0BB2EBFD
:102B7000080C71EB03077BF1000B24BF624639465A
:102B80004EEB0E0E51EA020718BF46F0010616EB97
:102B90000E7655F1000254F1000103D5BDE889011C
:102BA000BDE80088BDE88901BDE80048B61952417A
:102BB00041EB0101A3F10103704780807F7E7D7CA2
:102BC0007B7A7978777676757473727171706F6EBF
:102BD0006E6D6C6C6B6A6A6968686766666564646A
:102BE000636362616160605F5F5E5E5D5D5C5C5BF4
:102BF0005B5A5A5959585857575656555555545463
:102C0000535352525251515050504F4F4F4E4E4DC0
:102C10004D4D4C4C4C4B4B4B4A4A4A49494948480C
:102C2000484747474746464645454544444444434C
:102C300043434342424242414141000046EA064684
:102C4000A3F570534FEA164646EA42564FEAD2229F
:102C500042EA415210B54FEAD121A3F1010300F03D
:102C60002FF820F0004000F1020C00F0004701EBCB
:102C700000501146BCF5006F40EA070000D210BDBD
:102C8000BAF1000F0AD01CB503B44FF004004FF0A6
:102C900004014FF000000FBCBDE810404FF00001F0
:102CA000BBF1010FB9BF04484FF0FF3103480021C9
:102CB00040EA070010BD00BFFFFFEF7F0000F07F7C
:102CC000002B9C4630D477002BD01CB54FEA370739
:102CD00003B44FF010004FF01001BAF1000F06D00E
:102CE000BCF1000FDCBF40F0080040F008014FF0DD
:102CF00000000FBCBDE810400BF1010BBBF1010F50
:102D000008BF5FEA170722BF12F1010211F10101AA
:102D10004FF0004143F1000300F0004043EA00009F
:102D20007047F9D35708D0E746EA064613F1400F3B
:102D30004FEA16461FDD13F1200FDFBF16430A4688
:102D4000002120335B42BED0C3F1200746EA06468D
:102D500002FA07F74FEA164646EA0706C3F12007CC
:102D600022FA03F201FA07F721FA03F14FF0000308
:102D700042EA0702A7E746EA020646EA06464FEAA3
:102D8000164646EA0106BCBF46EA0646360C4FF038
:102D900000034FF000024FF0000194E72DE9804C52
:102DA0009A46934670B491E8380007C831EA400C5F
:102DB00048BF34EA430C03D5FFF7A3FDFFF780FFBC
:102DC000F0BCBDE8008C2DE9804C9A46934670B467
:102DD00091E8380007C831EA400C48BF34EA430C98
:102DE00003D5FFF78EFDFFF729FFF0BCBDE8008C8F
:102DF0002DE9804C9A46934670B491E8380007C894
:102E000010F0804F08BF13F0804F03D100F01AF884
:102E1000FFF756FFF0BCBDE8008C2DE9804C9A46C8
:102E2000934670B491E8380007C810F0804F08BF8F
:102E300013F0804F03D100F005F8FFF7FFFEF0BC60
:102E4000BDE8008C20F07F4780EA030023F07F4C30
:102E500007EB0C03A3F57C5300F00040A3F1FE0345
:102E600092F0000F00F0B38095F0000F00F0778033
:102E70002DE901494FEA11404FEA144621EA004882
:102E800000FB06FC24EA064708FB06F607FB08F8E9
:102E900000FB07F718EB06484CEB164C4FEA124BB9
:102EA00018EB07484FEA15464CEB174022EA0B4E49
:102EB0000BFB06FC25EA06470EFB06F607FB0EFE9B
:102EC0000BFB07F71EEB064E4CEB164C4FF00006C3
:102ED0001EEB074E4CEB174B18EB0B0840F10000B4
:102EE00018EB0E0B58EB000840F100008F1A4FF062
:102EF00000013CBFC943661B14BFB5EB040C0021A5
:102F00003CBFC943F61B4FEA17444EEA8E0E27EA30
:102F100004454FEA1C4704FB07622CEA074C05FBFB
:102F200007F70CFB05F604FB0CFC16EB074642EB1F
:102F3000174216EB0C4642EB1C421BEB060658EB05
:102F40000202414146EA9E0601D5BDE80189B61953
:102F5000524141EB0101A3F10103BDE801894FEAB0
:102F600014454FEA114724EA054621EA074C05FBC0
:102F700007F406FB07F70CFB06F105FB0CFC11EB55
:102F8000074144EB17444FEA124711EB0C4144EB65
:102F90001C4422EA074C05FB07F206FB07F70CFB73
:102FA00006F605FB0CFC16EB074642EB174216EB48
:102FB0000C4642EB1C456A1854F1000148BF7047AB
:102FC000B619524141EB0101A3F10103704795F09D
:102FD000000F37D04FEA11424FEA144721EA024668
:102FE00024EA074C02FB07F106FB07F70CFB06F48B
:102FF00002FB0CFC14EB074441EB17414FEA154769
:1030000014EB0C4441EB1C4125EA074C02FB07F58D
:1030100006FB07F70CFB06F602FB0CFC16EB07465B
:1030200045EB174516EB0C4645EB1C42121951F1C6
:10303000000148BF7047B619524141EB0101A3F1AD
:10304000010370474FEA14454FEA114724EA054649
:1030500021EA074C05FB07F106FB07F70CFB06F21C
:103060004FF0000605FB0CFC12EB074241EB174149
:1030700012EB0C4251EB1C4148BF7047921841EBD8
:103080000101A3F10103704740F21D3CC0F2000CA6
:10309000604740F2E90CC0F2000C604740F2AD1C02
:1030A000C0F2000C604740F2352CC0F2000C6047C3
:1030B00040F22D1CC0F2000C604740F2B12CC0F26F
:1030C000000C604740F2F92CC0F2000C604740F25F
:1030D000D52CC0F2000C604740F25D2CC0F2000C11
:1030E000604740F20D1CC0F2000C604740F2353CD6
:1030F000C0F2000C604740F2712CC0F2000C604737
:1031000040F2911CC0F2000C604740F2791CC0F202
:10311000000C604740F2D10CC0F2000C604740F256
:10312000490CC0F2000C604740F24D3CC0F2000C6C
:10313000604740F2DD5CC0F2000C604740F2E92CD1
:10314000C0F2000C604740F2F11CC0F2000C604776
:1031500040F2210CC0F2000C604740F2910CC0F22A
:10316000000C604710B54FF220400B49088008461C
:10317000008805F0A3FF022001F000FC002005F00C
:103180009DFF022001F0FAFB002005F097FF0220CE
:1031900001F0F4FB10BD0000E007002410B5044668
:1031A0004FF2200141EA442188B205F087FF10BDAB
:1031B00010B50446054850F824404FF2200141EA7A
:1031C000442188B205F07AFF10BD0000FC1A010806
:1031D0002DE9F04100231A4608210F4800F008FAB3
:1031E0004FF4045005F0B4FE4FF48014C4F30D0600
:1031F000A70B002546F4804005F0AAFE47F4804066
:1032000005F0A6FE45F4404005F0A2FE42F228007B
:1032100005F09EFEBDE8F0810000025810B504469E
:10322000241144F4404005F093FE10BD2DE9F84F01
:1032300000240026C448B0F90090C3482030B0F9FB
:1032400000A0AAEB0900C31707463A460020502108
:10325000FDF72CF9BD4908640846C0F84490BC4805
:10326000006840F00500BA49086000E000BFB848B7
:10327000006800F001000028F8D000E000BFB4486A
:10328000006800F004000428F8D10021B14800F0E3
:1032900097FB0121AF4800F093FB0221AD4800F0FD
:1032A0008FFB0321AB4800F08BFB0721AA4800F0FD
:1032B00087FBA7480838006840F02000A449083977
:1032C000086000E000BFA2480838006800F0200055
:1032D0002028F7D19E48006840F080709C49086023
:1032E00000E000BF9A48006800F08070B0F1807F75
:1032F000F7D19A48006820F440309949C1F8080392
:103300009848D0F8080320F440309649C1F80803E3
:103310009348806840F48070914988600846D0F8EE
:10332000080140F48070C1F808018E48806840F4BC
:1033300080708C4988608A48806820F000508849F5
:1033400088600846D0F8080120F00050C1F8080154
:103350008448806820F000508249886080488068F6
:1033600040F080507E4988600846D0F8080140F05F
:103370008050C1F808017B48806840F0805079494E
:1033800088600020009003E000BF0098401C00907F
:1033900042F6E06100988842F6DB7148806820F0D0
:1033A00001006F4988607048006820F00100C1F892
:1033B00008016C48806820F001006A49886068480C
:1033C000806820F08040664988600846806840F444
:1033D000803088600846806840F00040886000E0E7
:1033E00000BF5F48806800F000400028F8D10090DE
:1033F00003E000BF0098401C009042F6E061009896
:103400008842F6DB5648806840F0010054498860E5
:1034100000E000BF5248006800F001000028F8D02A
:1034200080204F49C861514848618861002400BF2D
:1034300000BF44F4E07408460463C06840F44050A0
:10344000C8600846C06820F01C00C8600846C06814
:1034500040F00800C8600846056945F0030545F4DA
:10346000702545F040450561806840F004008860A3
:103470003C48806820F080403A498860084680686F
:1034800040F4803088600846806840F000408860E2
:1034900000E000BF3348806800F000400028F8D109
:1034A000009003E000BF0098401C009042F6E061ED
:1034B00000988842F6DB2B48806840F001002949DB
:1034C000886000E000BF2748006800F00100002885
:1034D000F8D027482349C8612448486188612548B5
:1034E000006840F40000C1F80803002400BF00BFDA
:1034F00044F4906408460463C06840F44050C860D7
:103500000846056945F0030545F4702545F040453A
:10351000056146F00306184806430846C06820F0D7
:103520001C00C8600846C06840F00800C860084633
:10353000C664C06840F00070C8600846806840F00B
:1035400004008860BDE8F88F20E8F11F8C0000249B
:10355000E0440258000802580000025808230240C4
:10356000002002400060025808210240B66DDB36A0
:10357000030C0400086302580016205010B500EB3D
:103580004000054901EB800420680068616805F08F
:103590008DF8A168084410BD8C00002400EB4000A9
:1035A000034951F8200000684CF64C6105F07EB8E4
:1035B0008C00002470B5054C206800680513A268D3
:1035C000A91A606805F072F81E3070BDC8000024AA
:1035D000012803D1034A04490A6102E0034A02496F
:1035E0000A617047683132008C000024353E1C00AF
:1035F00070B500290CDB07290ADC046A8E000F2550
:10360000B540AC438D0002FA05F52C43046213E08B
:10361000082910DB0F290EDC446AA1F10805AE0071
:103620000F25B540AC43A1F10805AD0002FA05F540
:103630002C43446200E070BDC4684E000325B540D1
:10364000AC43C46003F0010434B1C4684E000125EA
:10365000B5402C43C46008E003F002042CB1C468F8
:103660004E000225B5402C43C46003F4807424B19D
:10367000446801258D402C43446084684E00032536
:10368000B540AC43846003F480642CB184684E0080
:103690000325B5402C43846004684E000125B540E5
:1036A000AC43046004684E000225B5402C4304601E
:1036B00000BFC0E70149086070470000B40500245E
:1036C0000FB470B586B00BA80590BDF82800029025
:1036D000002003901DA00490BDF8280081281AD175
:1036E000059810C80590059820C805900020029004
:1036F0001748D0F84C02A0420DD0B4F5004F07D0C7
:103700008120029003940495294612A000F052FFF4
:103710000F48C0F84C42002005900D48D0F82C020C
:1037200001280ED1124A01A9002001F09FFC064693
:10373000012E06D10E4800F023F802210C4801F0BA
:1037400095F806B070BC5DF814FB000000000000A6
:10375000080A00240D0A415054206E6F746966698E
:10376000636174696F6E3A2025732E0D0A000000A4
:1037700010B100240148406F70470000080A00247F
:1037800030B5D0F800340246094C2468094D2D6844
:103790006119084C24681C44064D2C6003E012F8A3
:1037A000014B01F8014B1C1EA3F10103F7D130BD01
:1037B000B8050024BC05002470B54FF000542C4817
:1037C000D0F86001012801D144F00044284890F865
:1037D0008C0100F0100008B1264804432448806A98
:1037E00008B144F001042248C06A022801D144F41F
:1037F00080641F48D0F82C01022802D144F0100444
:1038000015E01B48D0F82C01012810D144F0200409
:103810001748D0F830010A2190FBF1F201FB1200A9
:10382000052801DA012000E0002044EA00141048D5
:1038300090F88C0100F00E0008B944F080540C4858
:10384000D0F88C0140F63E51084008B144F0804465
:1038500008F0AAF9054605F0010008B144F4801407
:1038600005F0020008B144F40014204670BD0000C9
:10387000080A00240008004070B504460D46012CDB
:1038800000D101E04FF0FF300646012C04D11C4866
:10389000406FB0F5004F05DB022C30D11848406F67
:1038A00000282CDD1648D0F8F00005FB060014496E
:1038B000C1F8F0000846D0F8F000896A884205DDBA
:1038C0000F48806A0E49C1F8F00008E00C48D0F8B3
:1038D000F000002803DA00200949C1F8F000084987
:1038E000D1F8F000FFF7D0FB0549C1F80C010846FC
:1038F000D0F80C21D0F8F01002A000F05BFE70BDF3
:10390000080A00244A6F79737469636B20506F73DF
:103910002064656D616E64203D202564206E6D2CF1
:10392000207365727665722064656D616E64203DFA
:103930002025640D0A00000070B505460C46012DD7
:1039400002D0022D36D11AE01C48D0F8A8001B493D
:10395000C968884212DA1948D0F8D40020441749BF
:10396000C1F8D400D1F8A410144AD2F8D4201144DC
:10397000124AD2F84C21881801F0F0FA1BE00F48E7
:10398000D0F8A8000D498968884212DD0B48D0F8AC
:10399000D400001B0949C1F8D400D1F8A410074A8B
:1039A000D2F8D4201144054AD2F84C21881801F0ED
:1039B000D5FA00E000BF00BF70BD0000080A002477
:1039C00010B502684C000323A3401A430260C2688A
:1039D0004C000323A3409A43C26010BD0348006813
:1039E00040F004000149086000BFFEE70400002425
:1039F0002DE9F04707460C4601F098FAF148406877
:103A0000012803D1F04DDFF8C48305E0EE4D183DE9
:103A1000DFF8B883A8F10808781C88B90020EC49C1
:103A2000C1F89000E8492039C1F88C0094224FF485
:103A30008051E74801F000F9E6A000F0BBFD4FE33C
:103A40000B2F7DD2DFE807F07C0688FD7CFC7CFB39
:103A5000FAF9F8000020DB49C1F8D400E44981F804
:103A60003E00D8482246D0F8A810E2A000F0A2FDFF
:103A7000D448D0F8A800201A00EE100AB8EEC00A08
:103A8000DFEDE90A20EE201A98ED000AB8EEC00A30
:103A9000C1EE000A95ED000AB8EEC00A30EE600AE9
:103AA000BDEEC00A10EE106A3246E0A0296800F0B0
:103AB00081FD00F071FD2E60AE60002001F04EFA35
:103AC00040F6B83000F05AFFBE49486EFFF7E1FA01
:103AD0000446BC482246D0F8A810DFA000F06AFDDA
:103AE000B848D0F8A800201A00EE100AB8EEC00AB4
:103AF000DFEDCD0A20EE201A98ED010AB8EEC00ADB
:103B0000C1EE000A95ED040AB8EEC00A30EE600A74
:103B1000BDEEC00A10EE106A3246D9A0296900F045
:103B200049FD2E61A748406858B9A7482038D0F809
:103B30008C0040F00400A4492039C1F88C000AE050
:103B4000BEE2A1482038D0F88C0040F020009E4909
:103B50002039C1F88C00B4E200209A49C1F8D400A1
:103B6000A34981F83E0097482246D0F8A810A1A0AA
:103B700000F020FD00F010FD924890ED2A0AF8EECA
:103B8000C00A00EE104AB8EEC00A80EE201A95ED89
:103B9000030AB8EEC00A21EE000A10EE109A484659
:103BA0000CF084FBE860874890ED2A0AF8EEC00A22
:103BB00000EE104AB8EEC00A80EE801A95ED010AB8
:103BC000B8EEC00A21EE000A10EE109A48460CF03A
:103BD0006DFB68607B49D1F8A80001F0BFF940F6A1
:103BE000B83000F0CBFE7749486EFFF752FA044632
:103BF00074482246D0F8A81097A000F0DBFC71486A
:103C000090ED2A0AB8EEC01A00EE104AB8EEC00ACB
:103C1000C1EE000A95ED050AB8EEC00A20EE800A52
:103C200010EE109A48460CF041FB064632469EA024
:103C3000696900F0BFFC05E079E02BE20EE20AE2E0
:103C40004FE019E06E615F48406850B95E48203827
:103C5000D0F88C0040F008005B492039C1F88C0096
:103C600009E059482038D0F88C0040F0400056490F
:103C70002039C1F88C0024E29548534920398864E2
:103C8000002001F017F893A000F094FC00F084FCF1
:103C900040F6B83000F072FE4A48D0F88040214625
:103CA00092A000F087FC48482038816CA4F50040C1
:103CB0000E1A454820383246816C96A000F07AFCF6
:103CC000414820388664D0F88C0040F480703E492A
:103CD0002039C1F88C00464991F8440000F0EAFF11
:103CE000EFE1214696A000F065FC0020FFF7D6F931
:103CF00081462046FFF7D2F9A9EB0006324820386A
:103D0000406D821930482038416D9AA000F052FC75
:103D10002D482038406D30442B49203948650846ED
:103D2000D0F88C0040F48060C1F88C00C9E1002C10
:103D300046D024482146426C98A000F03BFC214824
:103D400090ED110AB8EEC01A00EE104AB8EEC00AA3
:103D5000C1EE000A1C48203890ED0E0AB8EEC00AE9
:103D600020EE800A10EE109A48460CF09FFA0646A4
:103D7000154820383246816B94A000F01BFC124895
:103D8000203886630F4890ED110AF8EEC00A00EE65
:103D9000104AB8EEC00A80EE201A0B48203890ED89
:103DA000100AB8EEC00A21EE000A10EE109A48463A
:103DB0000CF07CFA0646044820383246016C1FE1BC
:103DC00039E10000080A002400090024700C0024D6
:103DD000740900240D0A4572617365642063616C87
:103DE0006962726174696F6E20646174610D0A00AA
:103DF000200800240D0A4856206F75742073686FE0
:103E0000756C64206265202564206D56206275748F
:103E1000206D756C74696D6574657220726561647E
:103E200073202564206D5600000080470D0A485617
:103E3000206F757420444143206F6666736574205B
:103E400061646A75737465642066726F6D202564A1
:103E500020746F20256400000D0A48562073686F97
:103E6000756C642072656164202564206D56206243
:103E70007574207265616473202564206D5600009E
:103E80000D0A48562072656164206F66667365741A
:103E90002061646A75737465642066726F6D202595
:103EA0006420746F202564000D0A485620726561F5
:103EB00064207363616C652061646A757374656402
:103EC0002066726F6D20256420746F2025640000C9
:103ED0000080FFFF0D0A43616C6962726174696E54
:103EE0006720457874496E2E2E2E00000D0A457805
:103EF0007420696E2073686F756C642072656164EC
:103F000020333237363820627574207265616473ED
:103F1000202564000D0A457874496E20726561643D
:103F2000206F66667365742061646A757374656476
:103F30002066726F6D20256420746F202564000058
:103F40000D0A4D6F6E69746F72206F757420696E03
:103F50002073686F756C64206F7574707574203091
:103F60002056206275742072656164732025642078
:103F70006D5600000D0A4D4F4E206F7574206F6610
:103F8000667365742061646A757374656420667213
:103F90006F6D20256420746F202564000D0A506F1A
:103FA000736974696F6E2073686F756C64207265D5
:103FB0006164202564206E6D2062757420726561D5
:103FC0006473202564206E6D000000000D0A506FA0
:103FD000736974696F6E20736574706F696E742095
:103FE0007363616C652061646A75737465642066CF
:103FF000726F6D20256420746F202564000000001E
:1040000038A000F0D7FA43480664434844640146A8
:10401000486CFFF739F840490864086CFFF743F82B
:104020003D49C8633B48D0F88C0040F48050394982
:10403000C1F88C000EE039A000F0BCFA3E483549CA
:1040400008643E4888630846D0F88C0020F480500D
:10405000C1F88C0035E000F0F9FE32E0384894FBFE
:10406000F0F071280ED12B48C0F89040D0F88C00A9
:1040700040F001002749C1F88C00214631A000F032
:1040800099FA06E036483749C1F8900036A000F0AA
:1040900091FA16E0212C0FDB632C0DDC1D484460E7
:1040A000D0F88C0040F002001A49C1F88C0021467B
:1040B00031A000F07FFA02E02BA000F07BFA00E0D4
:1040C00000BF00BF942213492648FCF77CFD9422D0
:1040D0004FF48051234800F0AFFD2EA000F06AFAA3
:1040E000BDE8F0870D0A506F736974696F6E2072B6
:1040F000656164207363616C652061646A757374C3
:1041000065642066726F6D20256420746F202564BD
:1041100000000000E0080024080A00240D0A52658F
:1041200073746F72696E672064656661756C742064
:1041300076616C7565732E00979696003333B301E4
:1041400040420F000D0A53657269616C206E756DF7
:104150006265722073657420746F2025640000000E
:10416000403EBC06740900240D0A496E76616C69F4
:10417000642076616C7565000D0A4C434420636FC2
:104180006E74726173742073657420746F2025647B
:10419000000000000D0A43616C6962726174696F0E
:1041A0006E20706172616D657465727320736176E3
:1041B00065642E0D0A00000010B50446012C04D0E1
:1041C000022C16D0032C46D127E02448806900EB4E
:1041D0008000400021498861084680692049D1F863
:1041E000FC10884204DD1E48D0F8FC001B498861A1
:1041F00031E01A4880690A2190FBF1F01749886183
:10420000084680691649D1F8F410884204DA144847
:10421000D0F8F400114988611DE010488069114907
:1042200088630E4890ED061AB8EEC11ADFED0E1A3B
:1042300021EE211AB7EEC11AB0EE410B53EC102B50
:104240000AA000F0B7F940F6F200FFF739FA14A01F
:1042500000F0B0F900BF00BF10BD000098070024B7
:10426000080A0024200800246F12833A0D0A5365BF
:104270006C6563746564206E6577206A6F7973740A
:1042800069636B2061646A75737420737465702050
:1042900073697A653A20252E326620756D0000001C
:1042A0000D0A506F737465642073657276657220B1
:1042B0006E6F74696669636174696F6E00000000F7
:1042C00010B50446012C04D0022C16D0032C39D191
:1042D00027E01D48006900EB800040001A49086192
:1042E000084600691949D1F8E010884204DD1748F2
:1042F000D0F8E0001449086124E0134800690A215D
:1043000090FBF1F010490861084600690F49D1F8A7
:10431000D810884204DA0D48D0F8D8000A4908615C
:1043200010E0094800690A4948630748016909A083
:1043300000F040F940F6F200FFF7C2F911A000F0DA
:1043400039F900BF00BF10BD98070024080A0024F7
:10435000200800240D0A53656C6563746564206E43
:104360006577206A6F79737469636B2061646A751D
:10437000737420737465702073697A653A202564BC
:10438000206D56000D0A506F73746564207365725A
:10439000766572206E6F74696669636174696F6EA9
:1043A0000000000010B50446012C04D0022C16D0E9
:1043B000032C46D127E02448C06900EB8000400070
:1043C0002149C8610846C0692049D1F808118842CE
:1043D00004DD1E48D0F808011B49C86131E01A48C5
:1043E000C0690A2190FBF1F01749C8610846C0690D
:1043F0001649D1F80011884204DA1448D0F80001B7
:104400001149C8611DE01048C069114908620E4891
:1044100090ED071AB8EEC11ADFED0E1A21EE211A3F
:10442000B7EEC11AB0EE410B53EC102B0AA000F00E
:10443000C1F840F6F200FFF743F913A000F0BAF814
:1044400000BF00BF10BD000098070024080A002428
:10445000200800246F12833A0D0A53656C6563745B
:104460006564206E6577206A6F79737469636B2069
:104470004A4F4720737465702073697A653A202526
:104480002E326620756D00000D0A506F73746564DE
:1044900020736572766572206E6F746966696361F8
:1044A00074696F6E0000000010B50446012C04D042
:1044B000022C16D0032C39D127E01D48406900EBAF
:1044C000800040001A494861084640691949D1F8FE
:1044D000EC10884204DD1748D0F8EC00144948611C
:1044E00024E0134840690A2190FBF1F0104948612B
:1044F000084640690F49D1F8E410884204DA0D48B3
:10450000D0F8E4000A49486110E0094840690A49C6
:1045100048610748416909A000F04CF840F6F200F4
:10452000FFF7CEF811A000F045F800BF00BF10BDA6
:1045300098070024080A0024200800240D0A536567
:104540006C6563746564206E6577206A6F79737437
:1045500069636B206A6F6720737465702073697A72
:10456000653A202564206D56000000000D0A506F4A
:104570007374656420736572766572206E6F7469FA
:104580006669636174696F6E00000000014908602C
:10459000704700008801002410B500E000BF044906
:1045A0000968886880470028F8D000F093F810BDAB
:1045B000880100240FB438B505A800900F480068A2
:1045C00040F6FF71884213D20C4A1268C2F580523D
:1045D000511E0B4A1268094B1B68D018009B049AA5
:1045E000FBF79AFF04460548006820440349086029
:1045F00000200090204638BC5DF814FB9001002498
:104600008C0100242DE9F04105460E4600272B4879
:10461000006808B92A48056037E0082C04D00A2C45
:1046200014D00D2C17D110E02448006860B125A0EB
:10463000FFF7C0FF21480068401E2049086020485D
:104640000068401E1E4908601EE000BF01270020D0
:104650001A49086018E019480068B04213D21A4994
:104660000C700846017819A0FFF7A4FF14490968E7
:104670000C7013480068401C114908600F4800681E
:10468000401C0E49086000BF00BF11490968086856
:1046900080470446B0F5807FBFD16FB10020084944
:1046A0000968087006480068401C0549086008460B
:1046B0000068401BBDE8F0810020FBE79401002466
:1046C00098010024082008009C01002425630000B4
:1046D0008801002410B50F480068D0B10E49096860
:1046E00088688047A8B10C4800684268094801689A
:1046F0000A4800689047094800680949884202D181
:1047000001F5805000E00648044908600020014996
:10471000086010BD90010024880100248C01002451
:10472000A08C00241748006840F00100154908607B
:1047300000E000BF1348006800F001000028F8D036
:1047400010480830006840F000500E4908310860F9
:104750000D48006840F440600B4908600846C06896
:1047600020F44060C8600948006820F4E020074950
:10477000086006483C38006840F4803003493C3902
:1047800008607047E0440258000002583C74004042
:104790002020154988601448BC30006818B31348BD
:1047A000006840F48060114908600846006820F401
:1047B0007F000860084600680B49BC31096840EA80
:1047C00001400A49086048060749C8600846D0F811
:1047D000B80040F00100C1F8B8000448006840F497
:1047E0000050024908607047000002400454004035
:1047F0002DE9F04105460F4672B6012003F038FC62
:10480000002404E04FF47A700BF0EAFC641C642C82
:10481000F8DB03F0E1FBB0B10126CC2003F012FC81
:10482000F02003F00FFC002003F00CFC002003F04C
:1048300009FC002404E003F0BFFB05F8010B641C35
:10484000BC42F8DB00E00026002003F011FC62B659
:104850003046BDE8F081000008B1402101E04FF48E
:104860008001014A11607047180802582DE9F0478D
:1048700004468A46002620881FFA80F8BAF1010F04
:1048800003D0BAF1020F31D119E00FF2B409304868
:104890008069022801D1012000E0002006432C4855
:1048A0008069012808D140F26260804504D0B8F5E3
:1048B000CC6F01D0012000E00020064316E00FF28B
:1048C00094092348C069022801D1012000E000209A
:1048D00006431F48C069012805D140F26160804548
:1048E00001D0012000E00020064300BF00BF012EE0
:1048F00024D14846FFF75EFE207900F0800028B101
:10490000A078E178320212FB010000E00020871D50
:10491000002504E0615D13A0FFF74CFE6D1CBD4255
:1049200001DA402DF6DB402F02DB10A0FFF742FE3C
:104930000FA0FFF73FFE0FA0FFF73CFEBDE8F0879A
:104940001B5B33346D5553422052783A20000000EF
:10495000A0AC00241B5B33326D5553422054783A8F
:104960002000000025303258200000002E2E2E009E
:104970000D0A00001B5B33306D00000030B50346AC
:1049800006F042FF044600E000BF06F03DFF05468A
:10499000214606F017FF9842F6DB30BD10B5022025
:1049A00009F098F90AF0D2FA00200AF04BFB08F05F
:1049B00049FC06480AF0DAFA4FF420700AF06AF966
:1049C0000349486804F0BAFD10BD0000EC1A010864
:1049D000E00800240FB470B5BEB0044644A83D9072
:1049E00015A83D9A4399FBF785FD15AA21A115A8A5
:1049F000FBF7ACFD29AB33AA1FA115A8FBF76AFF93
:104A000033AA214801680BA8FBF7A0FD29AA1E487C
:104A1000016801A8FBF79AFD00203D90002108469F
:104A20000AF026FB0BA80AF09AFA022100200AF0ED
:104A30001FFB01A80AF093FA012009F083F9002076
:104A400009F080F900F058F906F0DEFE054600E0B6
:104A500000BF06F0D9FE0646294606F0B3FEA04286
:104A6000F6DB00200949C1F81C013EB070BC5DF8BE
:104A700014FB000025730A00255B5E0A5D0A255BB6
:104A80005E0A5D0A0000000024060024080A0024D3
:104A900070B50446C4EB0420642190FBF1F080F370
:104AA0000805284606F0F0FB70BD70472DE9F84F69
:104AB00082460C4615466019B0F5005F02D302200D
:104AC000BDE8F88F0DB90120FAE761096019401EB1
:104AD000B1EB501F01D00320F2E75746A0201D493B
:104AE00008700020C86008741B484860200A1A49F2
:104AF00008704C7001F102084FF0000905E017F84A
:104B0000010B08F8010B09F10109A945F7D3A81C0D
:104B10001049087208460AF07BFC00E000BF0AF06A
:104B200033FC0028FAD006F06FFE834600BFA020B9
:104B30000AF03EFC06463EB906F066FE5946009075
:104B400006F040FE0628F2DB012E01D10120B7E776
:104B50001E20B5E76CF1002458EF00242DE9FF4F2B
:104B600081B08946144601200090DDF8048009EBED
:104B70000400B0F5005F03D3012005B0BDE8F08F5D
:104B80000CB90020F9E74E46A3464FF0000A3FE07B
:104B9000A02026490870264848600220087225484F
:104BA000C860BBF1FF0F01DA584600E0FF2007465E
:104BB0001E490F74300A1E4908704E701B480AF0D7
:104BC00027FC00E000BF0AF0DFFB0028FAD0002538
:104BD00013E0049820B91748405D08F8010B0BE07A
:104BE000009838B118F8011B1248405D814201D18C
:104BF000012000E0002000906D1CBD42E9DB009820
:104C0000012800D009E0ABEB070B3E440AF1010A92
:104C1000FF20B4FBF0F05045BAD200BF0098012845
:104C200001D00120A9E70020A7E7000058F10024E7
:104C300058EF002458F000242DE9F84F80460D4627
:104C4000914601200090C34605EB090A2F462C46E9
:104C500027E0AC4206D0E11704EBD1614911A4EB87
:104C6000411101B9124E1BF8010B06F8010BAAF114
:104C70000101A14207D0E11704EBD1614911A4EB76
:104C800041111F290CD10A48321A3946FFF70EFF8D
:104C900000900748301A07440098012800D002E02D
:104CA000641C5445D5DB00BF0098BDE8F88F0000B8
:104CB00080F1002430B1012809D002280CD003284B
:104CC00012D10DE04FF04061084A11600CE04FF442
:104CD0004061064A116007E00549044A116003E09B
:104CE0000449024A116000BF00BF7047180C025807
:104CF000000400080008000410B500BF05F066FEBF
:104D00000128FBD010BD30B502F48053FBB9036815
:104D10004D000324AC40A3430360C3684D0003244B
:104D2000AC40A343C36002F0010333B1C3684D003C
:104D30000124AC402343C36036E002F002039BB37E
:104D4000C3684D000224AC402343C3602CE002F44E
:104D5000007313B101238B4002E04FF480338B408A
:104D6000836102F4807323B1436801248C402343A0
:104D7000436083684D000324AC40A343836002F486
:104D800080632BB183684D000324AC4023438360D0
:104D900003684D000224AC40A343036003684D0048
:104DA0000124AC402343036030BD00000146B1FA4A
:104DB00081F0C0F120020E2A04D2034800EBC200A9
:104DC0004068704701A0FCE7DC030108556E64658C
:104DD00066696E6564206572726F72000220134905
:104DE000C96A89B91249496B104AD2F8D820914250
:104DF00001D1032019E00E49496B0C4AD2F8E0209A
:104E0000914212D1012010E00949896B074AD2F87A
:104E1000F420914201D1032007E00549896B034A40
:104E2000D2F8FC20914200D101207047080A0024EA
:104E300020080024012801D1022101E04FF40031B3
:104E4000014A11607047000018040258012001490E
:104E500008607047F400002410B5002012E0002123
:104E60000DE000EBC003094A02EB4302535600EB8E
:104E7000C004074A02EBC40242F82130491C12293F
:104E8000EFDB401C0228EADB10BD000040090024D3
:104E90009C0B00242DE9F04302464FF0000C214802
:104EA000406800EB8000204F07EB800108689042CB
:104EB00003DB0869D0F800C028E04868904209DCAC
:104EC000D1E90070C01B8F6890FBF7F00F6957F8AD
:104ED00020C01BE00868101A8F6890FBF7F3086881
:104EE000101A8F6890FBF7F807FB1805086950F84F
:104EF0002340581C0F6957F82000061B06FB05F0DD
:104F0000CF6850FB17F800BF08EB040C0548D0F839
:104F10002402012800D100E0002000FB0CF0BDE8D5
:104F2000F0830000080A0024F80000244FF6FF7008
:104F30000349C1F8B4000020C1F8B0007047000078
:104F4000080A0024012801D1012101E04FF4803139
:104F5000014A9161704700000010025810B50446E4
:104F60001348C068A04202DA1148C46805E010483E
:104F70008068A04201DD0E4884682046FEF798F85C
:104F80000B49C1F898002046FFF784FF0849C1F893
:104F900090010846D0F89800D1F89011084480F3A9
:104FA00010000349C1F89C000846C0F8A84010BD95
:104FB000080A002410B504460020FFF7CFFF3CB1DB
:104FC0000120FFF7BFFF01200549C1F8600106E09D
:104FD0000020FFF7B7FF00200149C1F8600110BDB4
:104FE000080A0024012801D1C10701E04FF4004163
:104FF000014A1160704700001808025810B50446B5
:105000000CB1012C10D1094844600CB9084800E0EB
:1050100008480649C8602046FFF70CFF2046FEF707
:105020004CF82046FEF7D4FA10BD0000080A002410
:10503000F8240100F049020070B504462046FEF74E
:1050400037F805462046FFF725FF284480F3100077
:105050000449C1F8B4000448FEF72AF80149C1F830
:10506000B00070BD080A002420D1FFFF2DE9F74FE2
:1050700086B0824617460020C7F80004BAF1000F38
:1050800006D0BAF8000080B205900AF106060BE0DF
:10509000079828B10798808880B20590002603E021
:1050A000002009B0BDE8F08F3D46BC1D0020E8702F
:1050B000012028715020687140F254620599881AC5
:1050C000914201F04F8154DC40F25122A1EB0200E9
:1050D000914274D026DC502972D011DC122970D094
:1050E00007DC02296ED005296DD0112941F0ED832E
:1050F000FDE0142901F0F7811529F7D101F0D4BBA7
:1051000040F21122881A914274D006DC812901F004
:10511000D081B1F5047FE9D141E112286BD03F285D
:10512000E4D1FDE340F2F532811A90427DD011DCEA
:10513000B0F57C7F7AD006DC012878D0A0F2EF3081
:105140000028D3D17FE1A0F2F230002870D00128EE
:10515000CCD1F0E10A296CD004DC01296AD00929FC
:10516000C4D139E10C2901F0D2800D29BED101F062
:10517000FAB8B22801F0918126DC0D2874D00EDC3B
:10518000052872D006DC012870D002286FD00428D0
:10519000ACD185E107286BD00C28A7D1C9E0AC2899
:1051A00001F0088104DC0E287BD032289ED10DE36B
:1051B000AF2801F00C81B02898D101F033B9EDE3AC
:1051C00072E09FE0A6E023E0B0F5277F6AD013DC11
:1051D000B0F5D47F67D006DCB32801F06481B0F568
:1051E000BE7F8AD1C8E2A0F2A910002873D001289E
:1051F00091D1F7E3DFE076E0A0F29D20052881F071
:105200006483DFE810F05E075D070403F103F00339
:105210000121FC48C0F82C12891EC0F84412062057
:1052200028805420A870287905E097E128E1F4E36C
:105230004CE1EDE0C0E140F080002871F148406AA7
:1052400001280AD0022814D1EE48C069031D0922A2
:10525000EDA1EF48FBF77AF912E0EEA30922EAA1EB
:10526000EB48FBF773F90BE062E01EE1FCE3FCE3C3
:10527000B5E1EAA30922E4A1E548FBF767F900BF1D
:1052800000BFE848008800B2E1494239A1F84E0069
:1052900054222046FBF752FC5A20C7F8000401F0C4
:1052A00014BB77E0F4E3F4E3B6F90000D549C1F8A4
:1052B00028020846D0F82802022813D1DAA0FFF706
:1052C00079F9D048406838B90020FDF7FBFE00208E
:1052D000FDF7FDFE06E0FDE30120FDF7F3FE0120F2
:1052E000FDF7F5FEDBE74020C649C865D7E7D5A046
:1052F000FFF760F90121C348C0F830120021C0F85F
:105300003812CCE7D9A0FFF755F90021BD48C0F805
:105310003012C4E70021BB48C0F82C120120B94963
:10532000C1F82802FDF7CEFED9A0FFF743F9B6E792
:1053300000BF40F2616028800A20A870287940F000
:10534000800028711020C7F800040120208004F09C
:10535000C3F900B26080FEF70DFA00B2A080FEF73C
:105360002BFAC4F80600A748D0F83802401CA5491B
:10537000C1F838020846D0F83402012809D108469D
:10538000D0F83812D0F83C02814202DD0020C7F884
:10539000000484E700219B48C0F838127FE703F03F
:1053A0001FFD9AF80310012900D100E000210846F2
:1053B000FFF700FE73E740F2122028800120A8705A
:1053C0009048D0F86001012800D100E00220E87088
:1053D0000620C7F8000462E7708880B26421484361
:1053E000B0494860486805F08DFF864890ED0A1A7C
:1053F000B8EEC11ADFEDAC1A21EE211AB7EEC11AD0
:10540000B0EE410B53EC102BA8A0FFF7D3F846E702
:1054100040F2516028800420A870287940F0800074
:105420002871012020807748806A642190FBF1F088
:1054300000B260800A20C7F80004B4F90210A2A0EC
:10544000FFF7B8F82BE797488068002800DD26E7CB
:105450009AF80300012803D09AF80300032803D127
:10546000002002F0C9FC0AE09AF80300022803D0E9
:105470009AF80300042802D1022002F0BDFC0EE7D6
:1054800040F2426028800120A8705E48C06A02286D
:1054900000D100E00120E8700620C7F80004FEE615
:1054A00003F09EFC06F036F9F9E640F25A602880D7
:1054B0000420A870287940F0800028710120208005
:1054C000002060800A20C7F80004E8E64D48D0F8C4
:1054D000600101282BD1B6F902004A49C1F89400B5
:1054E000D1F89400FDF7F8FD4649C1F8A40000206A
:1054F000C1F8D400C1F84C01D1F8A400FFF72EFD8B
:105500004049D1F89800FDF7ECFD02903D48D0F8F5
:1055100090010299CDE900103A48D0F89C30D0F8BB
:105520009420D0F8A8106FA0FFF744F802E07DA007
:10553000FFF740F8B3E640F2456028800420A870E9
:10554000287940F0800028710120208004F0C4F800
:1055500000B260800A20C7F80004A0E6B6F9020095
:1055600028490864086CFDF7C1FD264948640020FD
:10557000C1F85001C1F85401C1F8F000C1F80C01A4
:10558000086CFDF790FD1F49C8630846C06B00908A
:10559000084690ED111AB8EEC11ADFED431A21EE5C
:1055A000211AB7EEC11AB0EE410B53EC102B016C6F
:1055B00061A0FEF7FFFF72E64FF4C9602880042067
:1055C000A870287940F08000287101202080FEF723
:1055D000D1F800B260800A20C7F800045FE640F20C
:1055E0005C6028800620A870287940F0800028712F
:1055F00001202080FEF7E0F8C4F802000C20C7F874
:1056000000044CE6080A0024252E2A73000000003E
:105610004A0000244C65676163790000556E6B6E2B
:105620006F776E00E00800240D0A4B696E657369A0
:1056300073207365727665722072756E6E696E671F
:105640002E0D0A000D0A53746172742041505420CB
:1056500073746174757320757064617465206D6511
:105660007373616765730D0A000000000D0A5374BF
:105670006F7020415054207374617475732075707D
:1056800064617465206D657373616765730D0A00ED
:105690000D0A5365727665722073746F707065645D
:1056A0000D0A0000200800246F12833A4D61782013
:1056B00074726176656C2073657420746F20252E7A
:1056C000336620756D0D0A005265706F7274696ED5
:1056D00067206D61782074726176656C203D2025AD
:1056E000640D0A0048562064656D616E64203D209B
:1056F0002564206D5620282564292C204441432010
:1057000073657474696E67203D202564203D2025F3
:1057100064206D562C20436F7272203D2025640D4D
:105720000A0000004F7574707574206469736162BB
:105730006C65640D0A000000506F736974696F6EC8
:105740002064656D616E6420736574706F696E743A
:10575000203D2025642028252E3366206E6D2920CB
:105760002D2D3E20256420414443207265616469EB
:105770006E670D0A00000000F749F84802F082FC4D
:10578000B0F1000900D18AE54946F5A0FEF712FF05
:105790006022F149F148FBF716FAFA48EF49C8656B
:1057A00060220021ED48FFF747FA01236022002123
:1057B000EA48FFF7D3F98146B9F1000F01D1F2A110
:1057C00000E0F5A10846FEF7F5FE68E502F054FD9D
:1057D0006022E149E148FBF7F6F9EA48C043DF49B6
:1057E000C86560220021DD48FFF726FA0123602208
:1057F0000021DA48FFF7B2F98146B9F1000F01D173
:10580000EAA100E0EDA10846FEF7D4FE47E5F04826
:1058100040680490B6F908004B280CDC0020FFF724
:10582000EDFB0020FDF74EFC0020FDF764FC00209E
:10583000FDF74DFC0BE00120FFF7E0FB0120FDF739
:1058400041FC0120FDF757FC0120FDF740FC70886A
:105850004FF47A7110FB01F0BF490860DC48D0F8C2
:10586000A8000968884204DDBB480068D849C1F82F
:10587000A800D74841680498814211D0D449D1F892
:10588000A800FFF76BFBD248C0684FF47A7190FB19
:10589000F1F0D0A30246D1A10290D2A0FEF78AFE79
:1058A000B6F90400A0B1012808D002280BD00328C3
:1058B00013D10120A84981F844000EE00220A64936
:1058C00081F8440009E00320A34981F8440004E082
:1058D0000020A14981F8440000BF00BF9E4890F815
:1058E0004410C8A0FEF766FEF0889B49A1F8460068
:1058F0000846B0F94610022002F0B0F9964908684F
:10590000FFF79AFB944991F84400FFF7D3F97089A7
:1059100080B200EB800040008F498860307B00E05F
:10592000F9E200F0010020B9084680684042886032
:1059300020E089488168BAA0FEF73CFE002002F012
:105940005BFA00E000BFA248C06A0028FAD1A04973
:10595000C1F89400D1F89400FDF7BEFB9C49C1F852
:10596000A4000020C1F8D400C1F84C01D1F8A40073
:10597000FFF7F4FA96484068012801D1962000E02C
:105980004B200146ABA0FEF715FE734800684FF4AC
:105990007A7190FBF1F00146029000E0D2E2AAA0F9
:1059A000FEF708FE8A48D0F8A410B0A0FEF702FE69
:1059B0006948B0F94610B2A0FEF7FCFD8448406883
:1059C00001280ED1049860B9B9A0FEF7F3FDFFF7E6
:1059D00093F903F08BFD4FF47A70FEF7CFFFFEF7DB
:1059E000DDFF5CE4DDE100BF40F6F50028800E201D
:1059F000A870287940F08000287101202080564846
:105A000000684FF47A7190FBF1F000B2608070484A
:105A10004068012802D1962001E092E24B202081CB
:105A20004D4890F8440001280AD0022802D00328EB
:105A300009D102E00120A08008E00220A08005E05A
:105A40000320A08002E00020A08000BF00BF4248E9
:105A5000B0F84600E080404989680A2291FBF2F0E4
:105A6000002803DB014602E0F8E123E2414209B2EB
:105A7000618139488068002801DD012000E00020B4
:105A8000A0811420C7F80004334890F8441001E0C6
:105A90006BE203E08BA0FEF78DFD23E4B0782E4986
:105AA00081F84800307981F84A00B1792A4880F8B5
:105AB0004910317A80F84B10708900B22649A1F85C
:105AC0004E00F08900B2A1F84C00708AA1F8500095
:105AD000308B00E066E1A1F84200B1F94200FDF729
