:020000040800F2
:100000000000012099210008F91E0008FF1E0008C9
:10001000051F00080B1F0008111F0008000000004A
:1000200000000000000000000000000081C900087E
:10003000171F000800000000D1CB000839CC0008D1
:10004000E9210008E9210008E9210008E921000868
:10005000E9210008E9210008E9210008E921000858
:10006000E9210008E9210008E9210008E921000848
:10007000E9210008E9210008E9210008E921000838
:10008000251F0008391F00084D1F00080000000050
:10009000000000000000000000000000E92100084E
:1000A000611F0008E9210008E9210008E921000892
:1000B000E9210008751F0008E9210008E92100086E
:1000C000E9210008E9210008E9210008E9210008E8
:1000D000E9210008E9210008891F0008000000004C
:1000E000E9210008E9210008E921000800000000DA
:1000F000000000000000000000000000E9210008EE
:1001000000000000E92100089D1F0008E921000807
:1001100000000000000000000000000000000000DF
:10012000C11F0008E9210008E9210008E9210008B1
:10013000E9210008000000000000000000000000AD
:10014000000000000000000000000000D51F0008B3
:10015000E9210008E9210008E9210008E921000857
:10016000E9210008E921000800000000000000006B
:10017000000000000000000000000000000000007F
:1001800000000000E921000800000000000000005D
:04019000E921000859
:1001A00010B5054C237833B9044B13B10448AFF3B1
:1001B00000800123237010BDF40200200000000025
:1001C0003C20010808B5034B1BB103490348AFF3BA
:1001D000008008BD00000000F80200203C2001085B
:1001E00001F0FF01102A2BDB10F0070F08D010F8E8
:1001F000013B013A8B422DD010F0070F42B3F6D1EC
:10020000F0B441EA012141EA014122F007047FF004
:1002100000070023F0E80256083C85EA010586EA5B
:10022000010685FA47F5A3FA87F586FA47F6A5FA97
:1002300087F68EB9EED1F0BC01F0FF0102F00702A3
:1002400032B110F8013B013A83EA010313B1F8D14E
:100250000020704701387047002D06BF354603382F
:10026000073815F0010F07D1013015F4807F02BF68
:10027000013015F4C03F0130F0BC0138704700BFB9
:10028000034613F8012B002AFBD1181A01387047D6
:1002900081F0004102E000BF83F0004330B54FEA37
:1002A00041044FEA430594EA050F08BF90EA020FA4
:1002B0001FBF54EA000C55EA020C7FEA645C7FEA37
:1002C000655C00F0E2804FEA5454D4EB5555B8BF5A
:1002D0006D420CDD2C4480EA020281EA030382EACB
:1002E000000083EA010180EA020281EA0303362D5D
:1002F00088BF30BD11F0004F4FEA01314FF4801C30
:100300004CEA113102D0404261EB410113F0004F41
:100310004FEA03334CEA133302D0524263EB4303F8
:1003200094EA050F00F0A780A4F10104D5F1200E96
:100330000DDB02FA0EFC22FA05F2801841F10001F1
:1003400003FA0EF2801843FA05F359410EE0A5F1C5
:1003500020050EF1200E012A03FA0EFC28BF4CF0F6
:10036000020C43FA05F3C01851EBE37101F00045AC
:1003700007D54FF0000EDCF1000C7EEB00006EEBB9
:100380000101B1F5801F1BD3B1F5001F0CD3490843
:100390005FEA30004FEA3C0C04F101044FEA44529A
:1003A00012F5800F80F09A80BCF1004F08BF5FEA21
:1003B000500C50F1000041EB045141EA050130BD01
:1003C0005FEA4C0C404141EB0101013C28BFB1F513
:1003D000801FE9D291F0000F04BF01460020B1FA5E
:1003E00081F308BF2033A3F10B03B3F120020CDA31
:1003F0000C3208DD02F1140CC2F10C0201FA0CF00F
:1004000021FA02F10CE002F11402D8BFC2F1200C73
:1004100001FA02F120FA0CFCDCBF41EA0C01904029
:10042000E41AA2BF01EB0451294330BD6FEA040472
:100430001F3C1CDA0C340EDC04F11404C4F120025D
:1004400020FA04F001FA02F340EA030021FA04F36F
:1004500045EA030130BDC4F10C04C4F1200220FAC6
:1004600002F001FA04F340EA0300294630BD21FA04
:1004700004F0294630BD94F0000F83F4801306BFCA
:1004800081F480110134013D4EE77FEA645C18BFBE
:100490007FEA655C29D094EA050F08BF90EA020F55
:1004A00005D054EA000C04BF1946104630BD91EA4D
:1004B000030F1EBF0021002030BD5FEA545C05D150
:1004C0004000494128BF41F0004130BD14F580048F
:1004D0003CBF01F5801130BD01F0004545F0FE4103
:1004E00041F470014FF0000030BD7FEA645C1ABF38
:1004F000194610467FEA655C1CBF0B46024650EA6F
:10050000013406BF52EA033591EA030F41F400219A
:1005100030BD00BF90F0000F04BF0021704730B520
:100520004FF4806404F132044FF000054FF00001F5
:1005300050E700BF90F0000F04BF0021704730B5B6
:100540004FF4806404F1320410F0004548BF40428B
:100550004FF000013EE700BF42004FEAE2014FEAE0
:1005600031014FEA02701FBF12F07F4393F07F4FBB
:1005700081F06051704732F07F4208BF704793F0BE
:100580007F4F04BF41F40021704730B54FF46074D1
:1005900001F0004521F000411CE700BF50EA0102D4
:1005A00008BF704730B54FF000050AE050EA01027D
:1005B00008BF704730B511F0004502D5404261EBED
:1005C00041014FF4806404F132045FEA915C3FF42E
:1005D000D8AE4FF003025FEADC0C18BF03325FEACB
:1005E000DC0C18BF033202EBDC02C2F1200300FA7C
:1005F00003FC20FA02F001FA03FE40EA0E0021FAA1
:1006000002F11444BDE600BF70B54FF0FF0C4CF48E
:10061000E06C1CEA11541DBF1CEA135594EA0C0F40
:1006200095EA0C0F00F0DEF82C4481EA030621EA7B
:100630004C5123EA4C5350EA013518BF52EA0335B6
:1006400041F4801143F4801338D0A0FB02CE4FF068
:100650000005E1FB02E506F00042E0FB03E54FF098
:100660000006E1FB03569CF0000F18BF4EF0010E90
:10067000A4F1FF04B6F5007F64F5407404D25FEA8C
:100680004E0E6D4146EB060642EAC62141EA55513F
:100690004FEAC52040EA5E504FEACE2EB4F1FD0C81
:1006A00088BFBCF5E06F1ED8BEF1004F08BF5FEAFF
:1006B000500E50F1000041EB045170BD06F00046B1
:1006C00046EA010140EA020081EA0301B4EB5C045E
:1006D000C2BFD4EB0C0541EA045170BD41F4801156
:1006E0004FF0000E013C00F3AB8014F1360FDEBF7B
:1006F000002001F0004170BDC4F10004203C35DA57
:100700000C341BDC04F11404C4F1200500FA05F3D9
:1007100020FA04F001FA05F240EA020001F000427A
:1007200021F0004110EBD37021FA04F642EB0601F0
:100730005EEA430E08BF20EAD37070BDC4F10C041A
:10074000C4F1200500FA04F320FA05F001FA04F2DE
:1007500040EA020001F0004110EBD37041F10001CA
:100760005EEA430E08BF20EAD37070BDC4F12005D5
:1007700000FA05F24EEA020E20FA04F301FA05F23D
:1007800043EA020321FA04F001F0004121FA04F2E5
:1007900020EA020000EBD3705EEA430E08BF20EAB5
:1007A000D37070BD94F0000F0FD101F000464000EF
:1007B00041EB010111F4801F08BF013CF7D041EA71
:1007C000060195F0000F18BF704703F00046520075
:1007D00043EB030313F4801F08BF013DF7D043EA46
:1007E0000603704794EA0C0F0CEA135518BF95EAFC
:1007F0000C0F0CD050EA410618BF52EA4306D1D183
:1008000081EA030101F000414FF0000070BD50EAA1
:10081000410606BF1046194652EA430619D094EA2B
:100820000C0F02D150EA013613D195EA0C0F05D115
:1008300052EA03361CBF104619460AD181EA030169
:1008400001F0004141F0FE4141F470014FF0000021
:1008500070BD41F0FE4141F4780170BD70B54FF0BC
:10086000FF0C4CF4E06C1CEA11541DBF1CEA13553C
:1008700094EA0C0F95EA0C0F00F0A7F8A4EB05041E
:1008800081EA030E52EA03354FEA013100F0888015
:100890004FEA03334FF0805545EA131343EA1263DE
:1008A0004FEA022245EA111545EA10654FEA002693
:1008B0000EF000419D4208BF964244F1FD0404F54C
:1008C000407402D25B084FEA3202B61A65EB0305A8
:1008D0005B084FEA32024FF480104FF4002CB6EB65
:1008E000020E75EB030E22BFB61A754640EA0C00E5
:1008F0005B084FEA3202B6EB020E75EB030E22BF25
:10090000B61A754640EA5C005B084FEA3202B6EB65
:10091000020E75EB030E22BFB61A754640EA9C0024
:100920005B084FEA3202B6EB020E75EB030E22BFF4
:10093000B61A754640EADC0055EA060E18D04FEAB2
:10094000051545EA16754FEA06164FEAC30343EA52
:1009500052734FEAC2025FEA1C1CC0D111F4801F1F
:100960000BD141EA00014FF000004FF0004CB6E718
:1009700011F4801F04BF01430020B4F1FD0C88BFB7
:10098000BCF5E06F3FF6AFAEB5EB030C04BFB6EBC2
:10099000020C5FEA500C50F1000041EB045170BDB5
:1009A0000EF0004E4EEA113114EB5C04C2BFD4EBE2
:1009B0000C0541EA045170BD41F480114FF0000E66
:1009C000013C90E645EA060E8DE60CEA135594EAE2
:1009D0000C0F08BF95EA0C0F3FF43BAF94EA0C0FE5
:1009E0000AD150EA01347FF434AF95EA0C0F7FF45A
:1009F00025AF104619462CE795EA0C0F06D152EAAE
:100A000003353FF4FDAE1046194622E750EA410691
:100A100018BF52EA43067FF4C5AE50EA41047FF4A2
:100A20000DAF52EA43057FF4EBAE12E74FF0FF3C07
:100A300006E000BF4FF0010C02E000BF4FF0010CD8
:100A40004DF804CD4FEA410C7FEA6C5C4FEA430C51
:100A500018BF7FEA6C5C1BD001B050EA410C0CBFA0
:100A600052EA430C91EA030F02BF90EA020F002002
:100A7000704710F1000F91EA030F58BF994208BF69
:100A800090422CBFD8176FEAE37040F00100704726
:100A90004FEA410C7FEA6C5C02D150EA013C07D17D
:100AA0004FEA430C7FEA6C5CD6D152EA033CD3D0C8
:100AB0005DF8040B704700BF8446104662468C46C2
:100AC0001946634600E000BF01B5FFF7B7FF0028F5
:100AD00048BF10F1000F01BD4DF808EDFFF7F4FF1E
:100AE0000CBF012000205DF808FB00BF4DF808EDA9
:100AF000FFF7EAFF34BF012000205DF808FB00BFCC
:100B00004DF808EDFFF7E0FF94BF012000205DF8ED
:100B100008FB00BF4DF808EDFFF7CEFF94BF0120A2
:100B200000205DF808FB00BF4DF808EDFFF7C4FF9B
:100B300034BF012000205DF808FB00BF4FEA410CE4
:100B40007FEA6C5C02D150EA013C0AD14FEA430CC7
:100B50007FEA6C5C02D152EA033C02D14FF0000004
:100B600070474FF0010070474FEA410212F5001242
:100B700015D211D56FF47873B3EB625212D94FEAE4
:100B8000C12343F0004343EA505311F0004F23FACE
:100B900002F018BF404270474FF00000704750EA23
:100BA000013005D111F0004008BF6FF000407047E0
:100BB0004FF00000704700BF53B94AB9002908BF81
:100BC00000281CBF4FF0FF314FF0FF3000F070B92C
:100BD000ADF1080C6DE904CE00F006F8DDF804E094
:100BE000DDE9022304B070472DE9F047089E0D4669
:100BF00004460F46002B4AD18A42944665D9B2FA80
:100C000082F343B102FA03FCC3F120029F4020FAB1
:100C100002F217439C404FEA1C4E1FFA8CF5B7FBBB
:100C2000FEF1220C0EFB117742EA074201FB05F0B0
:100C300090420AD91CEB020201F1FF3780F01C81BF
:100C4000904240F2198102396244121AA4B2B2FBF6
:100C5000FEF00EFB102244EA024400FB05F5A5421B
:100C60000AD91CEB040400F1FF3280F00781A54291
:100C700040F204816444023840EA0140641B0021D0
:100C80001EB1DC400023C6E90043BDE8F0878B427B
:100C900008D9002E00F0ED800021C6E900050846C5
:100CA000BDE8F087B3FA83F1002949D1AB4202D302
:100CB000824200F2F880841A65EB03020120174695
:100CC000002EE2D0C6E90047DFE702B9FFDEB2FA44
:100CD00082F3002B40F090808A1A4FEA1C471FFADB
:100CE0008CFE0121B2FBF7F507FB1520220C42EA2E
:100CF00000420EFB05F0904208D91CEB020205F100
:100D0000FF3802D2904200F2CB804546121AA4B2BC
:100D1000B2FBF7F007FB102244EA02440EFB00FE90
:100D2000A64508D91CEB040400F1FF3202D2A64507
:100D300000F2BB801046A4EB0E0440EA05409FE79A
:100D4000C1F120078B4022FA07FC4CEA030C05FA9C
:100D500001F420FA07F3FD404FEA1C492343B5FB99
:100D6000F9F81FFA8CFE09FB18551C0C44EA0544DF
:100D700008FB0EF5A54202FA01F200FA01F00BD9C8
:100D80001CEB040408F1FF3A80F08880A54240F291
:100D90008580A8F102086444641B9DB2B4FBF9F39A
:100DA00009FB134445EA044403FB0EFEA64508D99B
:100DB0001CEB040403F1FF356CD2A6456AD9023B53
:100DC000644443EA0843A3FB0295A4EB0E04AC423F
:100DD000C846AE4656D353D056B1B0EB080264EBCA
:100DE0000E0404FA07F7CA40CC401743C6E9007462
:100DF00018460021BDE8F087C3F1200102FA03FC88
:100E000020FA01F225FA01F19D402A434FEA1C47DE
:100E10001FFA8CFEB1FBF7F007FB1015110C41EA2D
:100E2000054100FB0EF58D4204FA03F408D91CEBD2
:100E3000010100F1FF382FD28D422DD902386144D3
:100E4000491B92B2B1FBF7F507FB151142EA0142CB
:100E500005FB0EF1914208D91CEB020205F1FF38A7
:100E600016D2914214D9023D6244521A45EA004119
:100E700038E73146304608E73946E6E61046FBE6F5
:100E80004845A9D2B9EB020865EB0C0E013BA3E77C
:100E90004546EAE72B4694E74046D1E7D0467BE754
:100EA000023D624432E708460AE76444023842E7FA
:100EB000704700BF80B485B000AFF860B9607A6059
:100EC000FB68074A1A60BB68064A1A607B68802282
:100ED0001A6000BF1437BD465DF8047B704700BF41
:100EE00010030020B0030020B0B5A0B002AF0DF099
:100EF00099FB012300932023484A494901200DF022
:100F000047FB00200DF094FB464900200DF052FFF6
:100F1000454A464900200DF04DFF454B454A46499C
:100F200000200DF047FF01F061F900F099F800F0A2
:100F30005DFB00F031FB00F097FB00F0D1F900F011
:100F4000F9F800F077F900F02FFA00F081FA00F0DC
:100F5000D7FA0CF0ABF84FF4FA7001F089F90CF005
:100F6000BBF90CF01BFA00233B6700237B6707F1FA
:100F70007003012118460AF0B7F903462F4A13609F
:100F80002F4B07F154041D460FCD0FC495E8070001
:100F900084E8070007F15403002118460AF044F9D9
:100FA0000346284A1360284B07F138041D460FCD2D
:100FB0000FC495E8070084E8070007F13803002113
:100FC00018460AF031F90346204A1360204B07F116
:100FD0001C041D460FCD0FC495E8070084E80700E8
:100FE00007F11C03002118460AF01EF90346194AAE
:100FF0001360194B3C461D460FCD0FC495E8070002
:1010000084E807003B46002118460AF00DF9034624
:10101000124A13600AF001F9FEE700BFCC09002074
:10102000582001085C200108702001088020010878
:101030008C20010898200108A4200108D408002071
:10104000C8200108C4080020F4200108C8080020B6
:1010500020210108CC08002048210108D0080020E8
:1010600080B594B000AF07F120033022002118466C
:101070000FF03FF807F10C0300221A605A609A60E3
:10108000DA601A610023BB60284B1B6C274A43F0CF
:1010900080531364254B1B6C03F08053BB60BB680B
:1010A00000237B60224B1B6823F44043204A43F417
:1010B000004313601E4B1B6803F440437B607B6856
:1010C00001233B624FF480337B620223BB634FF406
:1010D0008003FB6308233B6460237B640423BB64BD
:1010E0000423FB6407F12003184603F0EFFE0346D8
:1010F000002B01D000F000FC0F23FB6002233B61BA
:1011000000237B614FF48053BB610023FB6107F137
:101110000C030121184604F051F90346002B01D0BD
:1011200000F0EAFB00BF5037BD4680BD00380240EA
:101130000070004080B584B000AF3B4600221A60CA
:101140005A609A60DA60394B394A1A60374B4FF46B
:1011500080325A60354B00229A60344B01221A616A
:10116000324B00221A76314B012283F820202F4B7C
:1011700001225A622D4B4FF08052DA622B4B4FF016
:10118000C0629A62294B0022DA60284B0422DA619D
:10119000264B012283F83020244B00225A61234839
:1011A00001F08AF80346002B01D000F0A5FB0823CC
:1011B0003B6001237B600023BB603B4619461B4814
:1011C00001F0DCFA0346002B01D000F095FB092367
:1011D0003B6002237B603B461946144801F0CEFA7F
:1011E0000346002B01D000F087FB04233B60032360
:1011F0007B603B4619460D4801F0C0FA0346002BC0
:1012000001D000F079FB05233B6004237B603B4663
:101210001946064801F0B2FA0346002B01D000F04F
:101220006BFB00BF1037BD4680BD00BFB00500207E
:101230000020014080B58AB000AF07F120030022F2
:101240001A605A603B1D00221A605A609A60DA6088
:101250001A615A619A61214B4FF080421A601F4B0C
:101260004FF496525A601D4B00229A601B4B4FF46C
:10127000FA72DA60194B00221A61184B80229A61C7
:10128000164804F0CCFB0346002B01D000F034FBE1
:1012900020233B6200237B6207F1200319460F489D
:1012A00005F024FB0346002B01D000F025FB0023B2
:1012B0007B600023BB600023FB6000237B613B1D40
:1012C00000221946054804F099FF0346002B01D07F
:1012D00000F012FB00BF2837BD4680BD5806002035
:1012E00080B58AB000AF07F1200300221A605A606F
:1012F0003B1D00221A605A609A60DA601A615A61D6
:101300009A61274B274A1A60254B00225A60244BCA
:1013100000229A60224B4FF6FF72DA60204B0022C7
:101320001A611F4B00229A611D4804F0C7FB034657
:10133000002B01D000F0E0FA00233B6200237B6227
:1013400007F120031946164805F0D0FA0346002B92
:1013500001D000F0D1FA60237B600023BB60002342
:10136000FB6000237B613B1D002219460C4804F002
:10137000A1FF0346002B01D000F0BEFA3B1D042262
:101380001946074804F096FF0346002B01D000F0F1
:10139000B3FA034800F04CFC00BF2837BD4680BDBF
:1013A000A00600200004004080B58CB000AF07F11B
:1013B0000C032422002118460EF09BFE3B1D002248
:1013C0001A605A60204B214A1A601F4B00225A6053
:1013D0001D4B00229A601C4B4FF6FF72DA601A4BCD
:1013E00000221A61184B80229A610323FB600023BC
:1013F0003B6101237B610023BB610A23FB61002366
:101400003B6201237B620023BB620023FB6207F186
:101410000C0319460C4804F0B5FC0346002B01D020
:1014200000F06AFA00237B600023BB603B1D194675
:10143000054805F05BFA0346002B01D000F05CFA8A
:1014400000BF3037BD4680BDE806002000080040E0
:1014500080B58AB000AF07F1200300221A605A60FD
:101460003B1D00221A605A609A60DA601A615A6164
:101470009A61214B214A1A601F4B42F2D0025A60F6
:101480001D4B00229A601C4B40F6C412DA601A4BC6
:1014900000221A61184B80229A61174804F0BFFAA3
:1014A0000346002B01D000F027FA00233B62002303
:1014B0007B6207F1200319460F4805F017FA03462F
:1014C000002B01D000F018FA00237B600023BB60E2
:1014D0000023FB6000237B613B1D00221946064868
:1014E00004F08CFE0346002B01D000F005FA00BF8B
:1014F0002837BD4680BD00BF30070020000C0040EB
:1015000080B588B000AF3B1D00221A605A609A6017
:10151000DA601A615A619A611D4B1E4A1A601C4BAF
:101520004AF210425A601A4B00229A60184B4FF64A
:10153000FF72DA60164B4FF480721A61144B00226E
:101540009A61134804F08AF90346002B01D000F099
:10155000D3F90F4804F063FA0346002B01D000F0E2
:10156000CBF900237B600023BB600023FB600023DA
:101570007B613B1D00221946054804F03FFE0346EF
:10158000002B01D000F0B8F900BF2037BD4680BD68
:10159000780700200044014080B500AF114B124A8B
:1015A0001A60104B4FF4E1325A600E4B00229A60E1
:1015B0000C4B0022DA600B4B00221A61094B0C2203
:1015C0005A61084B00229A61064B0022DA610548F5
:1015D00005F00EFA0346002B01D000F08DF900BF94
:1015E00080BD00BFC00700200044004080B582B02D
:1015F00000AF00237B601B4B1B6B1A4A43F4800334
:101600001363184B1B6B03F480037B607B68002320
:101610003B60144B1B6B134A43F400131363114BD1
:101620001B6B03F400133B603B6800220521102074
:1016300001F006FC102001F01FFC00220521112002
:1016400001F0FEFB112001F017FC002205213820DB
:1016500001F0F6FB382001F00FFC00BF0837BD4653
:1016600080BD00BF0038024080B588B000AF07F1F0
:101670000C0300221A605A609A60DA601A61002333
:10168000BB60364B1B6B354A43F080031363334B0F
:101690001B6B03F08003BB60BB6800237B602F4B98
:1016A0001B6B2E4A43F0010313632C4B1B6B03F09F
:1016B00001037B607B6800233B60284B1B6B274A40
:1016C00043F002031363254B1B6B03F002033B60E3
:1016D0003B6800224FF40041214802F079F90022D2
:1016E0002021204802F074F94FF48063FB6000234E
:1016F0003B6100237B6107F10C031946194801F097
:10170000CBFF4FF40043FB6011233B6101237B615E
:101710000023BB6107F10C031946114801F0BCFF1F
:101720001823FB6000233B6101237B6107F10C035D
:1017300019460C4801F0B0FF2023FB6001233B61F8
:1017400000237B610023BB6107F10C0319460548A8
:1017500001F0A2FF00BF2037BD4680BD0038024027
:10176000000002400004024080B483B000AF786003
:10177000064B40F6FF725A63044B40F6FF729A63C1
:1017800000BF0C37BD465DF8047B70470004004085
:1017900080B584B000AF78600DF024FB0123FB73AB
:1017A0000123FB720023BB810CF0FCFA0346002BE3
:1017B00007D10F200CF03CFF314900200DF0FAFA60
:1017C00006E00F200CF034FF2E4900200DF0F2FA55
:1017D00041F2883009F074FD0CF0E4FA0346FB7224
:1017E000FB7A002B24D1FB7B012BF1D10F200CF0D5
:1017F0001FFFBB895A1CBA811A46234900200DF0ED
:10180000D9FA0023FB73214805F001FA1F4B4FF46E
:1018100040729A611D4805F0EBF80346002B01D099
:1018200000F06AF880221A49184805F0C0F9CFE79D
:10183000FB7A012BCCD1FB7B002BC9D10F200CF004
:10184000F7FEBB895A1CBA811A46124900200DF0D6
:10185000B1FA0123FB730D4805F0D9F90B4B0022B7
:101860009A610A4805F0C4F80346002B01D000F045
:1018700043F880220649054805F099F9A8E700BF1A
:10188000642101087C21010894210108C00700207F
:1018900044090020B021010880B582B000AF786013
:1018A0000CF02CFC00BF0837BD4680BD80B582B06F
:1018B00000AF78600CF066F900BF0837BD4680BD08
:1018C00080B582B000AF78600CF0FCF900BF08373B
:1018D000BD4680BD80B582B000AF78607B681B6874
:1018E000044A934201D100F0A3FC00BF0837BD4673
:1018F00080BD00BF0040014080B400AF72B600BFA1
:10190000FEE7000080B582B000AF00237B60124B81
:101910005B6C114A43F4804353640F4B5B6C03F4DC
:1019200080437B607B6800233B600B4B1B6C0A4A47
:1019300043F080531364084B1B6C03F080533B60EF
:101940003B6800220F216FF0010001F079FA00BF1F
:101950000837BD4680BD00BF0038024080B58AB060
:1019600000AF786007F1140300221A605A609A6091
:10197000DA601A617B681B68404A934279D1002380
:101980003B613F4B5B6C3E4A43F4807353643C4B7A
:101990005B6C03F480733B613B690023FB60384B55
:1019A0001B6B374A43F001031363354B1B6B03F08A
:1019B0000103FB60FB680023BB60314B1B6B304AAB
:1019C00043F0020313632E4B1B6B03F00203BB6057
:1019D000BB6830237B610323BB610023FB6107F1FC
:1019E00014031946274801F057FE03237B610323A4
:1019F000BB610023FB6107F114031946224801F083
:101A00004BFE224B224A1A60204B00225A601F4B89
:101A100000229A601D4B0022DA601C4B4FF480625A
:101A20001A611A4B4FF400625A61184B4FF400527E
:101A30009A61164B4FF48072DA61144B00221A62DD
:101A4000124B00225A62114801F024FA0346002B7F
:101A500001D0FFF751FF7B680C4A9A630B4A7B6801
:101A6000936300220521122001F0EAF9122001F00F
:101A700003FA00BF2837BD4680BD00BF00200140EB
:101A8000003802400000024000040240F805002037
:101A90001064024080B584B000AF78607B681B683A
:101AA000B3F1804F0ED10023FB60164B1B6C154A1F
:101AB00043F001031364134B1B6C03F00103FB6041
:101AC000FB681AE07B681B680F4A934215D100231C
:101AD000BB600C4B1B6C0B4A43F008031364094BAF
:101AE0001B6C03F00803BB60BB6800220521322099
:101AF00001F0A6F9322001F0BFF900BF1037BD4652
:101B000080BD00BF00380240000C004080B584B0AA
:101B100000AF78607B681B680E4A934215D10023A2
:101B2000FB600D4B1B6C0C4A43F0020313640A4B21
:101B30001B6C03F00203FB60FB68002205211D20E3
:101B400001F07EF91D2001F097F900BF1037BD4666
:101B500080BD00BF000400400038024080B58AB05C
:101B600000AF786007F1140300221A605A609A608F
:101B7000DA601A617B681B68194A93422BD10023F3
:101B80003B61184B1B6C174A43F004031364154B5D
:101B90001B6C03F004033B613B690023FB60114BAA
:101BA0001B6B104A43F0020313630E4B1B6B03F0D5
:101BB0000203FB60FB68C0237B610223BB6100233F
:101BC000FB6100233B6202237B6207F11403194689
:101BD000054801F061FD00BF2837BD4680BD00BF4C
:101BE00000080040003802400004024080B485B084
:101BF00000AF78607B681B680B4A93420DD10023CD
:101C0000FB600A4B5B6C094A43F400335364074B97
:101C10005B6C03F40033FB60FB6800BF1437BD4608
:101C20005DF8047B704700BF00440140003802406B
:101C300080B588B000AF786007F10C0300221A600D
:101C40005A609A60DA601A617B681B68124A934294
:101C50001DD10023BB60114B1B6B104A43F00103E5
:101C600013630E4B1B6B03F00103BB60BB68C02307
:101C7000FB6002233B6100237B610023BB610223E5
:101C8000FB6107F10C031946054801F005FD00BF93
:101C90002037BD4680BD00BF000400400038024030
:101CA0000000024080B58AB000AF786007F11403ED
:101CB00000221A605A609A60DA601A617B681B68B9
:101CC0004D4A934240F0938000233B614B4B1B6C89
:101CD0004A4A43F400331364484B1B6C03F400334B
:101CE0003B613B690023FB60444B1B6B434A43F061
:101CF00001031363414B1B6B03F00103FB60FB68A3
:101D00000F237B610223BB610023FB6103233B6242
:101D100007237B6207F114031946394801F0BCFC24
:101D2000384B394A1A60374B4FF000625A60354BD6
:101D300000229A60334B0022DA60324B4FF480620B
:101D40001A61304B00225A612E4B00229A612D4BB2
:101D50004FF48072DA612B4B4FF400321A62294B38
:101D600000225A62274801F095F80346002B01D063
:101D7000FFF7C2FD7B68234A9A63224A7B6893631C
:101D8000224B234A1A60214B4FF000625A601F4BCE
:101D900040229A601D4B0022DA601C4B4FF4806297
:101DA0001A611A4B00225A61184B00229A61174B94
:101DB0000022DA61154B4FF400321A62134B0022F5
:101DC0005A62124801F066F80346002B01D0FFF773
:101DD00093FD7B680D4A5A630C4A7B68936300222B
:101DE0000521262001F02CF8262001F045F800BF3F
:101DF0002837BD4680BD00BF004400400038024087
:101E000000000240040800208860024064080020AE
:101E1000A060024080B58CB000AF78600023BB6248
:101E200000237B620023BB602E4B5B6C2D4A43F486
:101E3000803353642B4B5B6C03F48033BB60BB6813
:101E400007F10C0207F110031146184603F0D4FC09
:101E500003F0BEFCB862BB6A234AA2FB03239B0CBF
:101E6000013B7B62214B224A1A60204B40F2E73251
:101E7000DA601E4A7B6A53601C4B00221A611B4BBE
:101E800000229A60194B00229A61184803F0E6FC80
:101E9000034687F82F3097F82F30002B1BD11348BB
:101EA00003F02CFD034687F82F3097F82F30002BD6
:101EB00011D1182000F0E0FF7B680F2B08D800221A
:101EC0007968182000F0BCFF0A4A7B68136002E0C2
:101ED000012387F82F3097F82F3018463037BD464A
:101EE00080BD00BF0038024083DE1B43EC090020A8
:101EF000004001400400002080B400AFFEE780B441
:101F000000AFFEE780B400AFFEE780B400AFFEE7AD
:101F100080B400AFFEE780B400AF00BFBD465DF8FF
:101F2000047B704780B500AF024801F04BF900BF59
:101F300080BD00BF0408002080B500AF024801F05A
:101F400041F900BF80BD00BF6408002080B500AF2C
:101F5000024800F0F4F900BF80BD00BFB0050020CA
:101F600080B500AF024804F041F800BF80BD00BF5B
:101F7000EC09002080B500AF024804F037F800BF3C
:101F800080BD00BFA006002080B500AF024804F06D
:101F9000BDFE00BF80BD00BFC007002080B500AF00
:101FA000054804F023F8054B1B7883F00103DAB2EF
:101FB000024B1A7000BF80BD30070020C609002008
:101FC00080B500AF024801F0FDF800BF80BD00BF42
:101FD000F805002080B500AF024801F062FE00BFA6
:101FE00080BD00BF4051002080B400AF01231846DF
:101FF000BD465DF8047B704780B582B000AF786065
:1020000039600EF01FF9034616221A604FF0FF33B5
:1020100018460837BD4680BD80B582B000AF7860F5
:102020004FF0FF317868FFF7E7FFFEE780B586B035
:1020300000AFF860B9607A6000237B610AE0AFF31B
:1020400000800146BB685A1CBA60CAB21A707B692C
:1020500001337B617A697B689A42F0DB7B681846C2
:102060001837BD4680BD80B586B000AFF860B96056
:102070007A6000237B6109E0BB685A1CBA601B7858
:102080001846AFF300807B6901337B617A697B6816
:102090009A42F1DB7B6818461837BD4680BD80B494
:1020A00083B000AF78604FF0FF3318460C37BD4661
:1020B0005DF8047B704780B483B000AF786039600E
:1020C0003B684FF400525A60002318460C37BD4657
:1020D0005DF8047B704780B483B000AF7860012363
:1020E00018460C37BD465DF8047B704780B485B058
:1020F00000AFF860B9607A60002318461437BD4617
:102100005DF8047B7047000080B586B000AF786052
:10211000144A154BD31A7B617B693B61134B1B68D7
:10212000002B02D1114B124A1A60104B1A687B68BF
:1021300013443A699A4207D20EF084F803460C22FF
:102140001A604FF0FF3309E0084B1B68FB60074B38
:102150001A687B681344054A1360FB6818461837F1
:10216000BD4680BD0000012000040000340A0020AC
:10217000B057002080B400AF064BD3F88830054A32
:1021800043F47003C2F8883000BFBD465DF8047B9D
:10219000704700BF00ED00E0DFF834D00D480E4975
:1021A0000E4A002302E0D458C4500433C4188C42B1
:1021B000F9D30B4A0B4C002301E013600432A24216
:1021C000FBD3FFF7D7FF0EF043F8FEF78DFE704705
:1021D0000000012000000020F40200209C290108DA
:1021E000F4020020AC570020FEE7000080B500AFED
:1021F0000E4B1B680D4A43F4007313600B4B1B68B6
:102200000A4A43F480631360084B1B68074A43F48F
:1022100080731360032000F008FE0F20FFF7FAFD23
:10222000FFF770FB0023184680BD00BF003C024052
:1022300080B400AF064B1B781A46064B1B6813444C
:10224000044A136000BFBD465DF8047B704700BFC1
:1022500008000020380A002080B400AF034B1B6840
:102260001846BD465DF8047B704700BF380A002061
:1022700080B584B000AF7860FFF7EEFFB8607B6890
:10228000FB60FB68B3F1FF3F05D00A4B1B781A4691
:10229000FB681344FB6000BFFFF7DEFF0246BB682C
:1022A000D31AFA689A42F7D800BF00BF1037BD466C
:1022B00080BD00BF0800002080B584B000AF78600A
:1022C0000023FB737B68002B01D1012333E07B6883
:1022D0001B6C002B09D17868FFF740FB7B6800225C
:1022E0005A647B68002283F83C207B681B6C03F0F7
:1022F0001003002B18D17B681B6C23F4885323F048
:10230000020343F002027B681A64786800F058FB0D
:102310007B6800225A647B681B6C23F0030343F044
:1023200001027B681A6401E00123FB737B680022D1
:1023300083F83C20FB7B18461037BD4680BD80B536
:1023400086B000AF786000237B6100233B617B682F
:102350001B681B68FB607B681B685B68BB60FB6875
:1023600003F002037B61BB6803F020033B617B69E0
:10237000002B49D03B69002B46D07B681B6C03F0D7
:102380001003002B05D17B681B6C43F400727B6843
:102390001A647B681B689B6803F04053002B2BD1A9
:1023A0007B681B7E002B27D17B681B68DB6A03F4EC
:1023B0007003002B06D07B681B689B6803F4806366
:1023C000002B19D17B681B685A687B681B6822F058
:1023D00020025A607B681B6C23F480727B681A644D
:1023E0007B681B6C03F48053002B05D17B681B6C4E
:1023F00043F001027B681A647868FFF7B5F97B68DF
:102400001B686FF012021A60FB6803F004037B6123
:10241000BB6803F080033B617B69002B57D03B69AD
:10242000002B54D07B681B6C03F01003002B05D1EC
:102430007B681B6C43F400527B681A647B681B68E2
:102440009B6803F44013002B39D17B681B689B6B9E
:1024500003F44013002B06D07B681B689B6803F4D1
:102460008063002B2BD17B681B685B6803F480635F
:10247000002B24D17B681B689B6803F04053002B22
:102480001DD17B681B7E002B19D17B681B685A68A5
:102490007B681B6822F080025A607B681B6C23F407
:1024A00080527B681A647B681B6C03F48073002B7A
:1024B00005D17B681B6C43F001027B681A64786865
:1024C00000F0FCFB7B681B686FF00C021A60FB6875
:1024D00003F001037B61BB6803F040033B617B6950
:1024E000002B17D03B69002B14D07B681B681B683E
:1024F00003F00103012B0DD17B681B6C43F4803288
:102500007B681A64786800F025F97B681B686FF0B7
:1025100001021A60FB6803F020037B61BB6803F0D3
:1025200080633B617B69002B15D03B69002B12D087
:102530007B685B6C43F002027B685A647B681B68B3
:102540006FF020021A60786800F00EF97B681B6853
:102550006FF020021A6000BF1837BD4680BD000032
:1025600080B586B000AFF860B9607A6000233B6147
:10257000FB6893F83C30012B01D10223CEE0FB68CD
:10258000012283F83C20FB681B689B6803F0010371
:10259000012B18D0FB681B689A68FB681B6842F027
:1025A00001029A605F4B1B685F4AA2FB03239A0CEF
:1025B00013465B0013443B6102E03B69013B3B6116
:1025C0003B69002BF9D1FB681B689B6803F480739F
:1025D000B3F5807F07D1FB681B689A68FB681B68AE
:1025E00022F480729A60FB681B689B6803F0010309
:1025F000012B40F08680FB681B6C23F4E06323F022
:10260000010343F48072FB681A64FB681B685B6813
:1026100003F48063002B07D0FB681B6C23F440534A
:1026200043F48052FB681A64FB681B6C03F480530C
:10263000B3F5805F06D1FB685B6C23F00602FB6894
:102640005A6402E0FB6800225A64FB68002283F8A7
:102650003C20364B7B61FB689B6B354ADA63FB6839
:102660009B6B344A1A64FB689B6B334ADA64FB68E1
:102670001B686FF022021A60FB681B685A68FB68CF
:102680001B6842F080625A60FB681B689A68FB68AE
:102690001B6842F480729A60FB68986BFB681B6849
:1026A0004C331946BA687B6800F0A2FC7B695B6812
:1026B00003F01F03002B0FD1FB681B689B6803F01E
:1026C0004053002B29D1FB681B689A68FB681B6884
:1026D00042F080429A6020E0FB681B68174A9342F0
:1026E0001BD1FB681B689B6803F04053002B14D17F
:1026F000FB681B689A68FB681B6842F080429A601E
:102700000BE0FB681B6C43F01002FB681A64FB686B
:102710005B6C43F00102FB685A64002318461837CB
:10272000BD4680BD0000002083DE1B430023014026
:10273000B92B0008732C00088F2C000800200140E2
:1027400080B483B000AF786000BF0C37BD465DF841
:10275000047B704780B483B000AF786000BF0C3753
:10276000BD465DF8047B704780B483B000AF7860ED
:1027700000BF0C37BD465DF8047B704780B485B060
:1027800000AF786039600023BB607B6893F83C3011
:10279000012B01D1022305E17B68012283F83C2053
:1027A0003B681B68092B25D97B681B68D9683B6887
:1027B0001B689BB21A4613465B0013441E3B07225C
:1027C00002FA03F3DA437B681B680A40DA607B682D
:1027D0001B68D9683B689A683B681B689BB21846BF
:1027E00003465B0003441E3B9A407B681B680A4318
:1027F000DA6022E07B681B6819693B681B689BB242
:102800001A4613465B001344072202FA03F3DA4325
:102810007B681B680A401A617B681B6819693B6802
:102820009A683B681B689BB2184603465B000344EA
:102830009A407B681B680A431A613B685B68062BF9
:1028400024D87B681B68596B3B685A6813469B0009
:102850001344053B1F2202FA03F3DA437B681B682B
:102860000A405A637B681B68596B3B681B689BB2C4
:1028700018463B685A6813469B001344053B00FA10
:1028800003F27B681B680A435A634CE03B685B6851
:102890000C2B24D87B681B68196B3B685A6813465D
:1028A0009B001344233B1F2202FA03F3DA437B68A5
:1028B0001B680A401A637B681B68196B3B681B68BE
:1028C0009BB218463B685A6813469B001344233B4F
:1028D00000FA03F27B681B680A431A6323E07B68F3
:1028E0001B68D96A3B685A6813469B001344413BF6
:1028F0001F2202FA03F3DA437B681B680A40DA629C
:102900007B681B68D96A3B681B689BB218463B68AA
:102910005A6813469B001344413B00FA03F27B685C
:102920001B680A43DA62224BFB607B681B68214A02
:10293000934209D13B681B68122B05D1FB685B6889
:1029400043F48002FB685A607B681B68194A934213
:1029500023D13B681B68102B03D03B681B68112BED
:102960001BD1FB685B6843F40002FB685A603B685C
:102970001B68102B11D1104B1B68104AA2FB0323BC
:102980009A0C13469B0013445B00BB6002E0BB68DB
:10299000013BBB60BB68002BF9D17B68002283F848
:1029A0003C20002318461437BD465DF8047B704771
:1029B00000230140002001400000002083DE1B4373
:1029C00080B485B000AF7860794BFB60FB685B68D2
:1029D00023F44032FB685A60FB685A687B685B6886
:1029E0001A43FB685A607B681B685A687B681B68DF
:1029F00022F480725A607B681B6859687B681B6987
:102A00001A027B681B680A435A607B681B685A6815
:102A10007B681B6822F040725A607B681B685968AB
:102A20007B689A687B681B680A435A607B681B68EE
:102A30009A687B681B6822F400629A607B681B6856
:102A400099687B68DA687B681B680A439A607B68D0
:102A50009B6A584A934222D07B681B689A687B68BD
:102A60001B6822F070629A607B681B6899687B68BB
:102A70009A6A7B681B680A439A607B681B689A683D
:102A80007B681B6822F040529A607B681B689968DB
:102A90007B68DA6A7B681B680A439A600FE07B6890
:102AA0001B689A687B681B6822F070629A607B687A
:102AB0001B689A687B681B6822F040529A607B68AA
:102AC0001B689A687B681B6822F002029A607B6828
:102AD0001B6899687B681B7E5A007B681B680A43E9
:102AE0009A607B6893F82030002B1BD07B681B68B2
:102AF0005A687B681B6842F400625A607B681B68F6
:102B00005A687B681B6822F460425A607B681B68C5
:102B100059687B685B6A013B5A037B681B680A4300
:102B20005A6007E07B681B685A687B681B6822F460
:102B300000625A607B681B68DA6A7B681B6822F453
:102B40007002DA627B681B68D96A7B68DB69013BCB
:102B50001A057B681B680A43DA627B681B689A68FF
:102B60007B681B6822F400729A607B681B68996816
:102B70007B6893F830305A027B681B680A439A607E
:102B80007B681B689A687B681B6822F480629A6085
:102B90007B681B6899687B685B699A027B681B6825
:102BA0000A439A6000BF1437BD465DF8047B704746
:102BB000002301400100000F80B584B000AF7860B1
:102BC0007B689B6BFB60FB681B6C03F05003002B66
:102BD0003CD1FB681B6C43F40072FB681A64FB6811
:102BE0001B689B6803F04053002B2BD1FB681B7EB6
:102BF000002B27D1FB681B68DB6A03F47003002BF2
:102C000006D0FB681B689B6803F48063002B19D116
:102C1000FB681B685A68FB681B6822F020025A6038
:102C2000FB681B6C23F48072FB681A64FB681B6CE6
:102C300003F48053002B05D1FB681B6C43F00102A9
:102C4000FB681A64F868FEF78FFD0EE0FB681B6CEA
:102C500003F01003002B03D0F868FFF785FD04E0B4
:102C6000FB689B6BDB6C7868984700BF1037BD46EC
:102C700080BD80B584B000AF78607B689B6BFB60E3
:102C8000F868FFF75DFD00BF1037BD4680BD80B519
:102C900084B000AF78607B689B6BFB60FB68402270
:102CA0001A64FB685B6C43F00402FB685A64F868C2
:102CB000FFF75AFD00BF1037BD4680BD80B483B01A
:102CC00000AF786000BF0C37BD465DF8047B7047ED
:102CD00080B485B000AF78607B6803F00703FB60C9
:102CE0000C4BDB68BB60BA684FF6FF031340BB6058
:102CF000FB681A02BB68134343F0BF6343F400331D
:102D0000BB60044ABB68D36000BF1437BD465DF8A2
:102D1000047B704700ED00E080B400AF044BDB683B
:102D20001B0A03F007031846BD465DF8047B704795
:102D300000ED00E080B483B000AF0346FB7197F96B
:102D40000730002B0BDBFB7903F01F02074997F9D3
:102D500007305B09012000FA02F241F8232000BF8E
:102D60000C37BD465DF8047B704700BF00E100E012
:102D700080B483B000AF03463960FB7197F9073028
:102D8000002B0ADB3B68DAB20C4997F907301201D5
:102D9000D2B20B4483F800230AE03B68DAB2084958
:102DA000FB7903F00F03043B1201D2B20B441A76F5
:102DB00000BF0C37BD465DF8047B704700E100E0C2
:102DC00000ED00E080B489B000AFF860B9607A60CF
:102DD000FB6803F00703FB61FB69C3F10703042BE6
:102DE00028BF0423BB61FB690433062B02D9FB69AE
:102DF000033B00E000237B614FF0FF32BB6902FA26
:102E000003F3DA43BB681A407B699A404FF0FF3105
:102E10007B6901FA03F3D9437B680B4013431846DF
:102E20002437BD465DF8047B704780B582B000AFA3
:102E300078607868FFF74CFF00BF0837BD4680BD5B
:102E400080B586B000AF0346B9607A60FB7300239B
:102E50007B61FFF761FF78617A68B9687869FFF78D
:102E6000B1FF024697F90F3011461846FFF780FF71
:102E700000BF1837BD4680BD80B582B000AF0346A5
:102E8000FB7197F907301846FFF754FF00BF08376A
:102E9000BD4680BD80B586B000AF786000237B6101
:102EA000FFF7DAF938617B68002B01D1012399E043
:102EB0007B68022283F835207B68002283F8342067
:102EC0007B681B681A687B681B6822F001021A6025
:102ED0000FE0FFF7C1F902463B69D31A052B08D969
:102EE0007B6820225A657B68032283F83520032300
:102EF00078E07B681B681B6803F00103002BE8D1B6
:102F00007B681B681B687B617A69384B13407B6167
:102F10007B685A687B689B681A437B68DB681A4346
:102F20007B681B691A437B685B691A437B689B69F2
:102F30001A437B68DB691A437B681B6A13437A690F
:102F400013437B617B685B6A042B07D17B68DA6A79
:102F50007B681B6B13437A6913437B617B681B6837
:102F60007A691A607B681B685B697B617B6923F007
:102F700007037B617B685B6A7A6913437B617B68CB
:102F80005B6A042B17D17B689B6A7A6913437B6168
:102F90007B68DB6A002B0ED0786800F001FB0346EB
:102FA000002B08D07B6840225A657B68012283F899
:102FB0003520012316E07B681B687A695A617868BE
:102FC00000F0B8FA0346FB607B68DB6D3F229A4055
:102FD000FB689A607B6800225A657B68012283F84F
:102FE0003520002318461837BD4680BD3F8010F0BD
:102FF00080B586B000AFF860B9607A603B600023AE
:10300000FB75FB689B6D3B61FB6893F83430012BCB
:1030100001D1022340E0FB68012283F83420FB68E1
:1030200093F83530DBB2012B2FD1FB68022283F8F5
:103030003520FB6800225A653B687A68B968F868F1
:1030400000F04AFAFB68DB6D3F229A403B699A60C8
:10305000FB681B681A68FB681B6842F016021A605E
:10306000FB681B6C002B07D0FB681B681A68FB68A9
:103070001B6842F008021A60FB681B681A68FB684C
:103080001B6842F001021A6005E0FB68002283F829
:1030900034200223FB75FB7D18461837BD4680BDE2
:1030A00080B584B000AF78607B689B6DFB60FFF7F4
:1030B000D3F8B8607B6893F83530DBB2022B08D0C8
:1030C0007B6880225A657B68002283F834200123C4
:1030D00052E07B681B681A687B681B6822F0160246
:1030E0001A607B681B685A697B681B6822F0800243
:1030F0005A617B681B6C002B03D17B689B6C002B97
:1031000007D07B681B681A687B681B6822F008027E
:103110001A607B681B681A687B681B6822F00102D2
:103120001A6013E0FFF798F80246BB68D31A052B24
:103130000CD97B6820225A657B68032283F83520EE
:103140007B68002283F83420032315E07B681B682A
:103150001B6803F00103002BE4D17B68DB6D3F2289
:103160009A40FB689A607B68012283F835207B686F
:10317000002283F83420002318461037BD4680BD56
:1031800080B483B000AF78607B6893F83530DBB2F1
:10319000022B04D07B6880225A6501230CE07B68F7
:1031A000052283F835207B681B681A687B681B68DA
:1031B00022F001021A60002318460C37BD465DF864
:1031C000047B704780B586B000AF78600023BB6099
:1031D0008E4B1B688E4AA2FB03239B0A7B617B6894
:1031E0009B6D3B613B691B68FB607B68DB6D082264
:1031F0009A40FB681340002B1AD07B681B681B6841
:1032000003F00403002B13D07B681B681A687B68EB
:103210001B6822F004021A607B68DB6D08229A406A
:103220003B699A607B685B6D43F001027B685A657D
:103230007B68DB6D01229A40FB681340002B12D0A3
:103240007B681B685B6903F08003002B0BD07B68F5
:10325000DB6D01229A403B699A607B685B6D43F0AD
:1032600002027B685A657B68DB6D04229A40FB682A
:103270001340002B12D07B681B681B6803F002030D
:10328000002B0BD07B68DB6D04229A403B699A606F
:103290007B685B6D43F004027B685A657B68DB6D7D
:1032A00010229A40FB681340002B43D07B681B68B8
:1032B0001B6803F00803002B3CD07B68DB6D1022F9
:1032C0009A403B699A607B681B681B6803F4802303
:1032D000002B18D07B681B681B6803F40023002BAD
:1032E00008D17B681B6C002B24D07B681B6C786832
:1032F00098471FE07B689B6C002B1BD07B689B6C06
:103300007868984716E07B681B681B6803F4807335
:10331000002B07D17B681B681A687B681B6822F04A
:1033200008021A607B681B6C002B03D07B681B6C47
:10333000786898477B68DB6D20229A40FB681340D1
:10334000002B00F08F807B681B681B6803F0100364
:10335000002B00F087807B68DB6D20229A403B6960
:103360009A607B6893F83530DBB2052B36D17B68E9
:103370001B681A687B681B6822F016021A607B685B
:103380001B685A697B681B6822F080025A617B685F
:103390001B6C002B03D17B689B6C002B07D07B68D8
:1033A0001B681A687B681B6822F008021A607B6839
:1033B000DB6D3F229A403B699A607B68012283F86B
:1033C00035207B68002283F834207B681B6D002B3E
:1033D0007ED07B681B6D7868984779E07B681B68B6
:1033E0001B6803F48023002B1DD07B681B681B68BF
:1033F00003F40023002B0DD17B685B6C002B31D0D4
:103400007B685B6C786898472CE000BF0000002068
:10341000B5814E1B7B68DB6B002B23D07B68DB6B9D
:10342000786898471EE07B681B681B6803F480730C
:10343000002B0FD17B681B681A687B681B6822F021
:1034400010021A607B68012283F835207B68002215
:1034500083F834207B68DB6B002B03D07B68DB6B4D
:10346000786898477B685B6D002B32D07B685B6D1A
:1034700003F00103002B22D07B68052283F835205E
:103480007B681B681A687B681B6822F001021A605F
:10349000BB680133BB607A699A4207D37B681B68BB
:1034A0001B6803F00103002BF2D100E000BF7B6832
:1034B000012283F835207B68002283F834207B6862
:1034C000DB6C002B05D07B68DB6C7868984700E0EC
:1034D00000BF1837BD4680BD80B485B000AFF8602E
:1034E000B9607A603B60FB681B681A68FB681B6800
:1034F00022F480221A60FB681B683A685A60FB68F5
:103500009B68402B08D1FB681B687A689A60FB684F
:103510001B68BA68DA6007E0FB681B68BA689A60E3
:10352000FB681B687A68DA6000BF1437BD465DF837
:10353000047B704780B485B000AF78607B681B68FF
:10354000DBB2103B144AA2FB03231B09FB60134AA6
:10355000FB6813441B781A467B68DA65FB68032B0B
:1035600009D97B681B6823F47F7323F003031A1DBA
:103570007B689A6507E07B681B6823F47F7323F000
:1035800003037A6893657B689B6D18461437BD46C4
:103590005DF8047B704700BFABAAAAAAEC2501081E
:1035A00080B485B000AF78600023FB737B689B6AB2
:1035B000BB607B689B69002B1FD1BB68032B56D86F
:1035C00001A252F823F000BFD9350008EB350008FE
:1035D000D93500086F3600087B68DB6A03F080731A
:1035E000002B46D00123FB7343E07B68DB6AB3F119
:1035F000C07F40D10123FB733DE07B689B69B3F53D
:10360000005F21D1BB68032B37D801A252F823F009
:103610002136000827360008213600083936000810
:103620000123FB7330E07B68DB6A03F08073002BBF
:1036300025D00123FB7322E07B68DB6AB3F1C07FF6
:103640001FD10123FB731CE0BB68022B03D9BB68AD
:10365000032B03D018E00123FB7315E07B68DB6AC2
:1036600003F08073002B0ED00123FB730BE000BF2F
:103670000AE000BF08E000BF06E000BF04E000BFB2
:1036800002E000BF00E000BFFB7B18461437BD46D8
:103690005DF8047B704700BF80B489B000AF7860EC
:1036A000396000237B6100233B610023BB61002361
:1036B000FB6159E10122FB6902FA03F37B613B687C
:1036C0001B687A6913403B613A697B699A4240F012
:1036D00048813B685B6803F00303012B05D03B681E
:1036E0005B6803F00303022B30D17B689B68BB61EE
:1036F000FB695B00032202FA03F3DB43BA69134060
:10370000BB613B68DA68FB695B0002FA03F3BA69E4
:103710001343BB617B68BA699A607B685B68BB6175
:103720000122FB6902FA03F3DB43BA691340BB6170
:103730003B685B681B0903F00102FB6902FA03F3B3
:10374000BA691343BB617B68BA695A603B685B68BE
:1037500003F00303032B17D07B68DB68BB61FB69B5
:103760005B00032202FA03F3DB43BA691340BB6137
:103770003B689A68FB695B0002FA03F3BA6913437A
:10378000BB617B68BA69DA603B685B6803F003037E
:10379000022B23D1FB69DA087B68083253F8223008
:1037A000BB61FB6903F007039B000F2202FA03F3DE
:1037B000DB43BA691340BB613B681A69FB6903F0DC
:1037C00007039B0002FA03F3BA691343BB61FB6969
:1037D000DA087B680832B96943F822107B681B68F5
:1037E000BB61FB695B00032202FA03F3DB43BA69A6
:1037F0001340BB613B685B6803F00302FB695B003D
:1038000002FA03F3BA691343BB617B68BA691A60B1
:103810003B685B6803F44033002B00F0A280002378
:10382000FB60574B5B6C564A43F480435364544BE4
:103830005B6C03F48043FB60FB68524AFB699B08A6
:10384000023352F82330BB61FB6903F003039B0092
:103850000F2202FA03F3DB43BA691340BB617B68B2
:10386000494A934219D07B68484A934213D07B68F7
:10387000474A93420DD07B68464A934207D07B6803
:10388000454A934201D1042308E0072306E00323BD
:1038900004E0022302E0012300E00023FA6902F0C1
:1038A000030292009340BA691343BB613549FB6937
:1038B0009B080233BA6941F82320384B9B68BB61EF
:1038C0003B69DB43BA691340BB613B685B6803F447
:1038D0008013002B03D0BA693B691343BB612F4AA5
:1038E000BB6993602D4BDB68BB613B69DB43BA6905
:1038F0001340BB613B685B6803F40013002B03D0EB
:10390000BA693B691343BB61244ABB69D360234B4B
:103910005B68BB613B69DB43BA691340BB613B68D1
:103920005B6803F40033002B03D0BA693B6913438F
:10393000BB611A4ABB695360184B1B68BB613B698A
:10394000DB43BA691340BB613B685B6803F48033B7
:10395000002B03D0BA693B691343BB610F4ABB69B3
:103960001360FB690133FB61FB690F2B7FF6A2AE8D
:1039700000BF00BF2437BD465DF8047B704700BF21
:1039800000380240003801400000024000040240BC
:1039900000080240000C024000100240003C0140C0
:1039A00080B485B000AF78600B467B807B681A6975
:1039B0007B881340002B02D00123FB7301E000231E
:1039C000FB73FB7B18461437BD465DF8047B7047DC
:1039D00080B483B000AF78600B467B8013467B7069
:1039E0007B78002B03D07A887B689A6103E07B8820
:1039F0001A047B689A6100BF0C37BD465DF8047BF2
:103A00007047F0B58FB00AAF78607B68002B01D1AA
:103A100001230FE17B681B68BB607B6893F8BD34B2
:103A2000DBB2002B06D17B68002283F8BC247868C7
:103A30000BF00EFB7B68032283F8BD24BB68DB6BB5
:103A400003F48073002B02D17B6800221A617B682B
:103A50001B68184604F061FB7B681B683B607E684E
:103A60006D4606F110040FCC0FC50FCC0FC594E8BE
:103A7000030085E80300331D0ECB386804F038FAE4
:103A80000346002B05D07B68022283F8BD24012366
:103A9000D0E07B681B680021184604F04FFB002330
:103AA000FB734AE0FA7B79681346DB0013449B0002
:103AB0000B443D3301221A70FA7B79681346DB0010
:103AC00013449B000B443C33FA7B1A70FA7BFB7B5C
:103AD00098B279681346DB0013449B000B444433CF
:103AE00002461A80FA7B79681346DB0013449B0078
:103AF0000B44403300221A70FA7B79681346DB00CE
:103B000013449B000B44483300221A60FA7B796807
:103B10001346DB0013449B000B444C3300221A6015
:103B2000FA7B79681346DB0013449B000B44543343
:103B300000221A60FB7B0133FB73FA7B7B685B68B6
:103B40009A42AFD30023FB7344E0FA7B79681346B3
:103B5000DB0013449B000B4403F27D2300221A7008
:103B6000FA7B79681346DB0013449B000B4403F592
:103B70001F73FA7B1A70FA7B79681346DB001344D3
:103B80009B000B4403F5207300221A70FA7B7968BE
:103B90001346DB0013449B000B4403F52273002201
:103BA0001A60FA7B79681346DB0013449B000B44D0
:103BB00003F5237300221A60FA7B79681346DB0051
:103BC00013449B000B4403F5257300221A60FB7B12
:103BD0000133FB73FA7B7B685B689A42B5D37B68E1
:103BE0001B683B607E686D4606F110040FCC0FC564
:103BF0000FCC0FC594E8030085E80300331D0ECBFE
:103C0000386804F0E7FA0346002B05D07B680222EF
:103C100083F8BD2401230DE07B68002283F838205F
:103C20007B68012283F8BD247B681B68184605F079
:103C300036FC002318461437BD46F0BD80B584B06D
:103C400000AF78607B681B68FB607B6893F8BC34CE
:103C5000012B01D1022320E07B68012283F8BC24E0
:103C60007B689B6A012B09D17B689B69012B05D07E
:103C7000FB689B6B43F48032FB689A637B681B682C
:103C8000184604F039FA7B681B68184605F0E6FB15
:103C90007B68002283F8BC24002318461037BD46F9
:103CA00080BD90B58DB000AF78607B681B683B62CB
:103CB0003B6AFB617B681B68184605F0A4FC034661
:103CC000002B40F08A847B681B68184605F008FCCE
:103CD0000346002B00F08084FB6903F500639B68BA
:103CE0001B0AC3F30D027B68C3F8FC247B681B68C6
:103CF000184605F0F5FB034603F00203022B07D13B
:103D00007B681B685A697B681B6802F002025A6173
:103D10007B681B68184605F0E3FB034603F01003BD
:103D2000102B61D17B681B689A697B681B6822F045
:103D300010029A613B6A1B6ABB61BB6903F00F0208
:103D40001346DB0013449B0003F51E737A6813448B
:103D500004337B61BB695B0C03F00F03022B24D19E
:103D6000BA6947F6F0731340002B35D07B691969A7
:103D7000BB691B099BB2C3F30A039BB21A46386A9C
:103D800005F01AFA7B691A69BB691B09C3F30A03B8
:103D90001A447B691A617B691A6ABB691B09C3F300
:103DA0000A031A447B691A6216E0BB695B0C03F0D4
:103DB0000F03062B10D17B6803F2C4430822194677
:103DC000386A05F0F9F97B691A6ABB691B09C3F304
:103DD0000A031A447B691A627B681B689A697B68CC
:103DE0001B6842F010029A617B681B68184605F058
:103DF00077FB034603F40023B3F5002F40F0A780C0
:103E000000237B627B681B68184605F07CFBB86268
:103E100099E0BB6A03F00103002B00F08E807B6801
:103E20001B687A6AD2B21146184605F0A0FB3861C9
:103E30003B6903F00103002B0CD07B6A5A01FB693C
:103E4000134403F530631A4601239360796A786856
:103E500000F0AAFE3B6903F00803002B0CD07B6A3C
:103E60005A01FB69134403F530631A460823936033
:103E7000796A786800F080FF3B6903F01003002B3B
:103E800008D07B6A5A01FB69134403F530631A4674
:103E9000102393603B6903F00203002B30D03B6A90
:103EA0005B6903F08003802B09D1FB6903F5006394
:103EB0005B68FA6902F5006243F4806353607A6AD2
:103EC0001346DB0013449B0003F51E737A6813440A
:103ED00004337B617B69DB78012B08D17B6900228D
:103EE000DA707B6ADBB2194678680BF0ADF97B6A51
:103EF0005A01FB69134403F530631A4602239360A9
:103F00003B6903F02003002B08D07B6A5A01FB6950
:103F1000134403F530631A46202393603B6903F48E
:103F20000053002B09D07B6A5A01FB69134403F547
:103F300030631A464FF4005393607B6A01337B620F
:103F4000BB6A5B08BB62BB6A002B7FF462AF7B6815
:103F50001B68184605F0C4FA034603F48023B3F542
:103F6000802F40F0DB807B681B68184605F0E5FA7F
:103F7000B86200237B62CDE0BB6A03F00103002B33
:103F800000F0C2807B681B687A6AD2B2114618467C
:103F900005F00BFB38613B6903F00103002B57D0A0
:103FA0007B6A03F00F03012202FA03F3FB60FB6953
:103FB00003F500635A6BFB68DB43F96901F50061A7
:103FC00013404B637B6A5A01FB69134403F510638A
:103FD0001A46012393607B681B69012B32D17968F3
:103FE0007A6A1346DB0013449B000B444C33196878
:103FF00078687A6A1346DB0013449B000344483315
:104000001B68194478687A6A1346DB0013449B00E6
:1040100003444C3319607B6A002B13D179687A6AA8
:104020001346DB0013449B000B4454331B68002BE6
:1040300008D17B6818687B6803F2C4431A460121E3
:1040400005F012FB7B6ADBB2194678680BF081F849
:104050003B6903F00803002B08D07B6A5A01FB6917
:10406000134403F510631A46082393603B6903F079
:104070001003002B08D07B6A5A01FB69134403F537
:1040800010631A46102393603B6903F04003002B32
:1040900008D07B6A5A01FB69134403F510631A4682
:1040A000402393603B6903F00203002B23D0796A1D
:1040B000386A04F0F3F97A6A1346DB0013449B0074
:1040C00038337A68134404337B617B69DB78012BD6
:1040D00008D17B690022DA707B6ADBB21946786806
:1040E0000BF0C4F87B6A5A01FB69134403F51063B3
:1040F0001A46022393603B6903F08003002B03D030
:10410000796A786800F0C3FC7B6A01337B62BB6A22
:104110005B08BB62BB6A002B7FF42EAF7B681B6819
:10412000184605F0DDF9034603F00043B3F1004FF4
:1041300022D1FB6903F500635B68FA6902F500624E
:1041400023F0010353607B6893F8F434012B08D10A
:104150007B68002283F8F4240021786800F0AAFE2E
:1041600002E078680BF062F87B681B685A697B682C
:104170001B6802F000425A617B681B68184605F014
:10418000AFF9034603F40063B3F5006F12D1FB6986
:1041900003F500639B6803F00103012B02D17868EB
:1041A0000BF01EF87B681B685A697B681B6802F479
:1041B00000625A617B681B68184605F091F9034656
:1041C00003F48053B3F5805F40F0B780FB6903F5DB
:1041D00000635B68FA6902F5006223F00103536033
:1041E0007B681B681021184604F058F90023FB6215
:1041F00046E0FB6A5A01FB69134403F510631A4653
:104200004FF67F339360FB6A5A01FB69134403F551
:1042100010631B68FA6A5101FA690A4402F51062D8
:1042200023F400131360FB6A5A01FB69134403F57E
:1042300030631A464FF67F339360FB6A5A01FB697D
:10424000134403F530631B68FA6A5101FA690A44A2
:1042500002F5306223F400131360FB6A5A01FB6914
:10426000134403F530631B68FA6A5101FA690A4482
:1042700002F5306243F000631360FB6A0133FB62B6
:104280007B685B68FA6A9A42B3D3FB6903F5006303
:10429000DB69FA6902F5006243F00113D3617B68C0
:1042A0001B6B002B16D0FB6903F50063D3F8843039
:1042B000FA6902F5006243F00B03C2F88430FB692F
:1042C00003F500635B6CFA6902F5006243F00B03CF
:1042D000536415E0FB6903F500635B69FA6902F555
:1042E000006243F4005343F02B035361FB6903F571
:1042F00000631B69FA6902F5006243F00B03136166
:10430000FB6903F500631B68FA6902F5006223F498
:10431000FE6313607B6818687B681B69D9B27B6891
:1043200003F2C4431A4605F09FF97B681B685A697B
:104330007B681B6802F480525A617B681B681846D0
:1043400005F0CEF8034603F40053B3F5005F24D123
:104350007B681B68184605F064F97B681B68184683
:1043600004F019F903461A467B68DA607B681C681A
:1043700001F00EFA01467B68DB68DBB21A46204684
:1043800003F018FE78680AF00CFF7B681B685A6916
:104390007B681B6802F400525A617B681B681846F0
:1043A00005F09EF8034603F00803082B0AD178684D
:1043B0000AF0E9FE7B681B685A697B681B6802F09B
:1043C00008025A617B681B68184605F089F80346A5
:1043D00003F08003802B22D13B6A9B6923F080028B
:1043E0003B6A9A6101237B6214E079687A6A13461A
:1043F000DB0013449B000B4403F27F231B78012B4B
:1044000005D17B6ADBB21946786800F00FFB7B6A46
:1044100001337B627B685B687A6A9A42E5D37B688A
:104420001B68184605F05CF8034603F48013B3F5E7
:10443000801F3BD101237B622BE07B6A5A01FB6921
:10444000134403F510631B68BB6179687A6A1346ED
:10445000DB0013449B000B4440331B78012B15D128
:10446000BB69002B12DA79687A6A1346DB001344C1
:104470009B000B443F3301221A707B6ADBB263F06E
:104480007F03DBB21946786800F0D0FA7B6A01330B
:104490007B627B685B687A6A9A42CED37B681B68D2
:1044A0005A697B681B6802F480125A617B681B683A
:1044B000184605F015F8034603F40013B3F5001F82
:1044C00055D101237B6245E07B6A5A01FB691344A5
:1044D00003F530631B68BB6179687A6A1346DB00B9
:1044E00013449B000B4403F520731B78012B2ED142
:1044F000BB69002B2BDABB6903F480327B68D3F8ED
:10450000FC3403F001039A4221D179687A6A134698
:10451000DB0013449B000B4403F27F2301221A703B
:104520003B6A9B6943F080023B6A9A613B6A5B6924
:1045300003F08003002B0AD1FB6903F500635B687D
:10454000FA6902F5006243F40073536007E07B6A86
:1045500001337B627B685B687A6A9A42B4D37B687A
:104560001B685A697B681B6802F400125A617B68F9
:104570001B68184604F0B4FF034603F08043B3F110
:10458000804F0AD178680AF083FE7B681B685A69FD
:104590007B681B6802F080425A617B681B68184682
:1045A00004F09EFF034603F00403042B15D17B683F
:1045B0001B685B68BB61BB6903F00403002B02D07E
:1045C00078680AF073FE7B681B6859687B681B6813
:1045D000BA690A435A6000E000BF3437BD4690BD57
:1045E00080B582B000AF78600B46FB707B6893F8B3
:1045F000BC34012B01D1022313E07B68012283F834
:10460000BC247B68FA7883F838207B681B68FA78CA
:104610001146184604F0FCFE7B68002283F8BC2497
:10462000002318460837BD4680BD80B584B000AF72
:104630007860084611461A460346FB700B463B80DD
:104640001346BB700023FB7297F90330002B0FDA7F
:10465000FB7803F00F021346DB0013449B00383352
:104660007A6813440433FB60FB6801225A700FE040
:10467000FB7803F00F021346DB0013449B0003F5A5
:104680001E737A6813440433FB60FB6800225A707F
:10469000FB7803F00F03DAB2FB681A703A88FB6804
:1046A000DA60FB68BA781A71FB685B78002B04D07B
:1046B000FB681B789AB2FB681A81BB78022B02D187
:1046C000FB6800225A717B6893F8BC34012B01D13E
:1046D00002230EE07B68012283F8BC247B681B6800
:1046E000F968184603F07CFF7B68002283F8BC243D
:1046F000FB7A18461037BD4680BD80B584B000AF48
:1047000078600B46FB7097F90330002B0FDAFB78CB
:1047100003F00F021346DB0013449B0038337A6822
:1047200013440433FB60FB6801225A700FE0FB78EE
:1047300003F00F021346DB0013449B0003F51E73C6
:104740007A6813440433FB60FB6800225A70FB78DC
:1047500003F00F03DAB2FB681A707B6893F8BC347D
:10476000012B01D102230EE07B68012283F8BC24D7
:104770007B681B68F968184603F0BAFF7B68002263
:1047800083F8BC24002318461037BD4680BD80B591
:1047900086B000AFF8607A603B600B46FB72FB7A34
:1047A00003F00F021346DB0013449B0003F51E7356
:1047B000FA68134404337B617B697A681A617B6908
:1047C0003A689A617B6900221A627B6900225A70FA
:1047D000FB7A03F00F03DAB27B691A70FB681B697E
:1047E000012B02D17A687B695A61FB7A03F00F03CF
:1047F000002B09D1FB681868FB681B69DBB21A46FD
:10480000796904F099FA08E0FB681868FB681B698D
:10481000DBB21A46796904F047F8002318461837C6
:10482000BD4680BD80B586B000AFF8607A603B6061
:104830000B46FB72FB7A03F00F021346DB001344B6
:104840009B003833FA68134404337B617B697A68D0
:104850001A617B693A689A617B6900221A627B69F6
:1048600001225A70FB7A03F00F03DAB27B691A70E7
:10487000FB681B69012B02D17A687B695A61FB7A5C
:1048800003F00F03002B09D1FB681868FB681B6954
:10489000DBB21A46796904F04FFA08E0FB68186841
:1048A000FB681B69DBB21A46796903F0FDFF002340
:1048B00018461837BD4680BD80B584B000AF78601B
:1048C0000B46FB70FB7803F00F027B685B689A4233
:1048D00001D9012350E097F90330002B0FDAFB7860
:1048E00003F00F021346DB0013449B0038337A6851
:1048F00013440433FB60FB6801225A700DE0FA7820
:104900001346DB0013449B0003F51E737A681344BF
:104910000433FB60FB6800225A70FB6801229A7026
:10492000FB7803F00F03DAB2FB681A707B6893F828
:10493000BC34012B01D102231EE07B68012283F8E5
:10494000BC247B681B68F968184604F08DFCFB7872
:1049500003F00F03002B0AD17B6818687B681B6982
:10496000D9B27B6803F2C4431A4604F07DFE7B682B
:10497000002283F8BC24002318461037BD4680BDB2
:1049800080B584B000AF78600B46FB70FB7803F015
:104990000F027B685B689A4201D9012342E097F9D4
:1049A0000330002B0FDAFB7803F00F021346DB0015
:1049B00013449B0038337A6813440433FB60FB686C
:1049C00001225A700FE0FB7803F00F021346DB0060
:1049D00013449B0003F51E737A6813440433FB6091
:1049E000FB6800225A70FB6800229A70FB7803F083
:1049F0000F03DAB2FB681A707B6893F8BC34012BA2
:104A000001D102230EE07B68012283F8BC247B687D
:104A10001B68F968184604F095FC7B68002283F84F
:104A2000BC24002318461037BD4680BD80B584B035
:104A300000AF78600B46FB7097F90330002B0CDA5F
:104A4000FB7803F00F021346DB0013449B0038335E
:104A50007A6813440433FB600CE0FB7803F00F0228
:104A60001346DB0013449B0003F51E737A6813445E
:104A70000433FB607B681B68F968184604F0B4FADD
:104A80000346FB72FB7A18461037BD4680BD80B5E1
:104A90008AB002AF786039607B681B687B617B6994
:104AA0003B613A681346DB0013449B0038337A6855
:104AB00013440433FB60FB681A6AFB689B699A42E3
:104AC00001D901236CE0FB689A69FB681B6AD31A61
:104AD000FB61FB68DB68FA699A4202D9FB68DB6814
:104AE000FB61FB6903339B08BB612BE0FB689A69A0
:104AF000FB681B6AD31AFB61FB68DB68FA699A42A0
:104B000002D9FB68DB68FB61FB6903339B08BB616F
:104B1000FB6819693B68DAB2FB6998B27B681B696C
:104B2000DBB200930346786904F008FBFB681A695E
:104B3000FB691A44FB681A61FB681A6AFB691A442C
:104B4000FB681A623B685A013B69134403F5106322
:104B50009B699BB2BA699A4209D8FB681A6AFB68DA
:104B60009B699A4203D2FB689B69002BBED1FB680C
:104B70009A69FB681B6A9A4211D83B6803F00F03DD
:104B8000012202FA03F3BB603B6903F500635A6B31
:104B9000BB68DB43396901F5006113404B630023B7
:104BA00018462037BD4680BD80B588B000AF78601C
:104BB00039607B681B68FB61FB69BB61FB693C3347
:104BC00004331B687B613B685A01BB69134403F5DE
:104BD00030639B683B617B681B69012B7BD13B6920
:104BE00003F00803002B15D07B69614A934240F221
:104BF000B9803B6903F40043002B00F0B3803B68AD
:104C00005A01BB69134403F530631A464FF400435D
:104C10009360A7E03B6903F02003002B09D03B68B9
:104C20005A01BB69134403F530631A46202393608D
:104C300098E03B6903F02803002B40F093807B69E8
:104C40004B4A93420FD93B6903F40043002B0AD02F
:104C50003B685A01BB69134403F530631A464FF4AD
:104C6000004393607EE03A681346DB0013449B00E8
:104C700003F51E737A6813440433FB60FB68DA693A
:104C80003B685901BB690B4403F530631B69C3F3EF
:104C90001203D21AFB681A623B68002B14D1FB681E
:104CA0009B69002B09D17B6818687B6803F2C443B9
:104CB0001A46012104F0D8FC06E0FB681A69FB687B
:104CC0001B6A1A44FB681A613B68DBB219467868B4
:104CD0000AF024FA46E07B69264A934224D13B69D4
:104CE00003F40043002B0AD03B685A01BB6913440C
:104CF00003F530631A464FF40043936032E03B699A
:104D000003F02003002B08D03B685A01BB69134411
:104D100003F530631A46202393603B68DBB21946E3
:104D200078680AF0FBF91DE03B68002B14D1796824
:104D30003A681346DB0013449B000B4403F52573CC
:104D40001B68002B08D17B6818687B6803F2C4439A
:104D50001A46002104F088FC3B68DBB219467868EB
:104D60000AF0DCF9002318462037BD4680BD00BF9D
:104D70000A30544F0A31544F80B586B000AF786086
:104D800039607B681B687B617B693B617B693C3375
:104D900004331B68FB603B685A013B69134403F50D
:104DA00030639B68BB60FB68154A93420ED9BB68B1
:104DB00003F40043002B09D03B685A013B691344BC
:104DC00003F530631A464FF40043936078680AF0A5
:104DD00093F9FB680A4A93420CD97B681B69012B43
:104DE00008D17B6818687B6803F2C4431A46012126
:104DF00004F03AFC002318461837BD4680BD00BFBA
:104E00000A30544F80B485B000AF78600B46FB7019
:104E100013463B807B681B685B6ABB60FB78002B9A
:104E200007D13B8819047B681B68BA680A439A62F9
:104E300028E07B681B689B6A1B0CBA681344BB6044
:104E40000023FB730DE07B681A68FB7B40339B00FB
:104E500013445B681B0CBA681344BB60FB7B0133D3
:104E6000FB73FA7BFB78013B9A42ECD33B88180436
:104E70007B681968FB78013BBA68024340339B00AA
:104E80000B445A60002318461437BD465DF8047B76
:104E9000704780B483B000AF78600B467B807B683E
:104EA0001B687A885A62002318460C37BD465DF8A5
:104EB000047B704780B483B000AF78600B46FB7012
:104EC00000BF0C37BD465DF8047B704780B586B0E7
:104ED00000AF78607B68002B01D1012367E27B681B
:104EE0001B6803F00103002B75D0884B9B6803F00F
:104EF0000C03042B0CD0854B9B6803F00C03082B90
:104F000012D1824B5B6803F48003B3F5800F0BD1A1
:104F10007E4B1B6803F40033002B5BD07B685B681F
:104F2000002B57D1012342E27B685B68B3F5803FD9
:104F300006D1764B1B68754A43F4803313601DE03D
:104F40007B685B68B3F5A02F0CD1704B1B686F4A70
:104F500043F4802313606D4B1B686C4A43F4803329
:104F600013600BE0694B1B68684A23F480331360BD
:104F7000664B1B68654A23F4802313607B685B687B
:104F8000002B13D0FDF768F9386108E0FDF764F9EC
:104F900002463B69D31A642B01D9032307E25B4B1A
:104FA0001B6803F40033002BF0D014E0FDF754F934
:104FB000386108E0FDF750F902463B69D31A642BCB
:104FC00001D90323F3E1514B1B6803F40033002B99
:104FD000F0D100E000BF7B681B6803F00203002BE8
:104FE00063D04A4B9B6803F00C03002B0BD0474B5C
:104FF0009B6803F00C03082B1CD1444B5B6803F443
:105000008003002B16D1414B1B6803F00203002BD9
:1050100005D07B68DB68012B01D00123C7E13B4B46
:105020001B6823F0F8027B681B69DB0037491343D8
:105030000B603AE07B68DB68002B20D0344B012208
:105040001A60FDF709F9386108E0FDF705F9024635
:105050003B69D31A022B01D90323A8E12B4B1B6810
:1050600003F00203002BF0D0284B1B6823F0F8025A
:105070007B681B69DB00254913430B6015E0244B5B
:1050800000221A60FDF7E8F8386108E0FDF7E4F85F
:1050900002463B69D31A022B01D9032387E11B4B3C
:1050A0001B6803F00203002BF0D17B681B6803F040
:1050B0000803002B36D07B685B69002B16D0154B9C
:1050C00001221A60FDF7C8F8386108E0FDF7C4F85E
:1050D00002463B69D31A022B01D9032367E10B4B2C
:1050E0005B6F03F00203002BF0D01BE0094B0022A2
:1050F0001A60FDF7B1F838610EE0FDF7ADF8024631
:105100003B69D31A022B07D9032350E10038024030
:1051100000004742800E4742884B5B6F03F002035A
:10512000002BEAD17B681B6803F00403002B00F01E
:1051300097800023FB75814B1B6C03F08053002B81
:105140000FD10023BB607D4B1B6C7C4A43F0805326
:1051500013647A4B1B6C03F08053BB60BB68012364
:10516000FB75774B1B6803F48073002B18D1744BCD
:105170001B68734A43F480731360FDF76DF8386160
:1051800008E0FDF769F802463B69D31A022B01D902
:1051900003230CE16A4B1B6803F48073002BF0D0EF
:1051A0007B689B68012B06D1644B1B6F634A43F0FD
:1051B000010313671CE07B689B68052B0CD15F4BD8
:1051C0001B6F5E4A43F0040313675C4B1B6F5B4A23
:1051D00043F0010313670BE0584B1B6F574A23F052
:1051E00001031367554B1B6F544A23F004031367E5
:1051F0007B689B68002B15D0FDF72EF838610AE01C
:10520000FDF72AF802463B69D31A41F288329342ED
:1052100001D90323CBE0494B1B6F03F00203002BA2
:10522000EED014E0FDF718F838610AE0FDF714F845
:1052300002463B69D31A41F28832934201D90323D3
:10524000B5E03E4B1B6F03F00203002BEED1FB7D5C
:10525000012B05D1394B1B6C384A23F08053136462
:105260007B689B69002B00F0A180344B9B6803F0A6
:105270000C03082B5CD07B689B69022B41D1314B1E
:1052800000221A60FCF7E8FF386108E0FCF7E4FF51
:1052900002463B69D31A022B01D9032387E0274B2F
:1052A0001B6803F00073002BF0D17B68DA697B6820
:1052B0001B6A1A437B685B6A9B011A437B689B6A83
:1052C0005B08013B1B041A437B68DB6A1B061B4916
:1052D00013434B601B4B01221A60FCF7BDFF386182
:1052E00008E0FCF7B9FF02463B69D31A022B01D94B
:1052F00003235CE0114B1B6803F00073002BF0D01C
:1053000054E0104B00221A60FCF7A6FF386108E059
:10531000FCF7A2FF02463B69D31A022B01D90323F3
:1053200045E0064B1B6803F00073002BF0D13DE015
:105330007B689B69012B07D1012338E000380240CC
:1053400000700040600047421B4B5B68FB607B685D
:105350009B69012B28D0FB6803F480027B68DB6922
:105360009A4221D1FB6803F03F027B681B6A9A4294
:105370001AD1FA6847F6C07313407A68526A9201EC
:10538000934211D1FB6803F440327B689B6A5B084F
:10539000013B1B049A4207D1FB6803F070627B68F3
:1053A000DB6A1B069A4201D0012300E00023184665
:1053B0001837BD4680BD00BF0038024080B584B0BC
:1053C00000AF786039607B68002B01D10123CCE00D
:1053D000684B1B6803F007033A689A420CD9654B87
:1053E0003A68D2B21A70634B1B6803F007033A683D
:1053F0009A4201D00123B8E07B681B6803F00203E6
:10540000002B20D07B681B6803F00403002B05D021
:10541000594B9B68584A43F4E05393607B681B6880
:1054200003F00803002B05D0534B9B68524A43F40A
:1054300060439360504B9B6823F0F0027B689B684D
:105440004D4913438B607B681B6803F00103002BFD
:1054500044D07B685B68012B07D1474B1B6803F482
:105460000033002B19D101237FE07B685B68022B9E
:1054700003D07B685B68032B07D13F4B1B6803F0AD
:105480000073002B09D101236FE03B4B1B6803F035
:105490000203002B01D1012367E0374B9B6823F007
:1054A00003027B685B68344913438B60FCF7D4FECE
:1054B000F8600AE0FCF7D0FE0246FB68D31A41F21E
:1054C0008832934201D903234FE02B4B9B6803F0B2
:1054D0000C027B685B689B009A42EBD1254B1B68F2
:1054E00003F007033A689A420CD2224B3A68D2B2D0
:1054F0001A70204B1B6803F007033A689A4201D0E8
:10550000012332E07B681B6803F00403002B08D002
:10551000194B9B6823F4E0527B68DB681649134300
:105520008B607B681B6803F00803002B09D0124BCB
:105530009B6823F460427B681B69DB000E491343C0
:105540008B6000F021F802460B4B9B681B0903F0AF
:105550000F030A49CB5C22FA03F3094A1360094B93
:105560001B681846FCF756FC002318461037BD464A
:1055700080BD00BF003C024000380240D425010835
:1055800000000020040000202DE9B04F94B000AFCF
:1055900000237B640023FB6400233B640023BB6483
:1055A000794B9B6803F00C03082B0DD0082B00F2FD
:1055B000E180002B02D0042B03D0DBE0734BBB64F3
:1055C000DBE0724BBB64D8E06F4B5B6803F03F03DA
:1055D0007B646D4B5B6803F48003002B63D06A4BE4
:1055E0005B689B090022BB63FA63BB6BC3F30803D0
:1055F0003B6300237B63D7E90C4522462B464FF0E3
:1056000000004FF00001590141EAD2615001024609
:105610000B462146511A3961294663EB01037B6130
:105620004FF000024FF00003D7E904AB59468B015D
:10563000514643EA916351468A015146B2EB010853
:10564000594663EB01094FF000024FF000034FEAA7
:10565000C90343EA58734FEAC80290469946234665
:1056600018EB0303BB602B4649EB0303FB604FF0D1
:1056700000024FF00003D7E9024529468B0221467C
:1056800043EA915321468A02104619467B6C002258
:10569000BB62FA62D7E90A23FBF78EFA02460B4691
:1056A0001346FB6458E0384B5B689B0900221846A0
:1056B0001146C0F308033B6200237B62D7E90889E7
:1056C00042464B464FF000004FF00001590141EABD
:1056D000D261500102460B464146B2EB010A4946EF
:1056E00063EB010B4FF000024FF000034FEA8B1306
:1056F00043EA9A634FEA8A12B2EB0A0463EB0B05A2
:105700004FF000024FF00003EB0043EA5473E20055
:1057100014461D464346E3183B604B4645EB0303E6
:105720007B604FF000024FF00003D7E900452946A7
:105730008B02214643EA915321468A0210461946BC
:105740007B6C0022BB61FA61D7E90623FBF734FAD0
:1057500002460B461346FB640B4B5B681B0C03F0C5
:10576000030301335B003B64FA6C3B6CB2FBF3F365
:10577000BB6402E0054BBB6400BFBB6C18465037EE
:10578000BD46BDE8B08F00BF003802400024F400E1
:1057900080B400AF034B1B681846BD465DF8047B20
:1057A000704700BF0000002080B500AFFFF7F0FF9A
:1057B0000246054B9B689B0A03F007030349CB5C39
:1057C00022FA03F3184680BD00380240E4250108A0
:1057D00080B500AFFFF7DCFF0246054B9B685B0B13
:1057E00003F007030349CB5C22FA03F3184680BD9C
:1057F00000380240E425010880B483B000AF78602F
:1058000039607B680F221A60124B9B6803F0030219
:105810007B685A600F4B9B6803F0F0027B689A60CC
:105820000C4B9B6803F4E0527B68DA60094B9B6881
:10583000DB0803F4E0527B681A61074B1B6803F036
:1058400007023B681A6000BF0C37BD465DF8047B59
:10585000704700BF00380240003C024080B582B073
:1058600000AF78607B68002B01D1012341E07B68A9
:1058700093F83D30DBB2002B06D17B68002283F821
:105880003C207868FCF7B2F97B68022283F83D205F
:105890007B681A687B6804331946104600F0F4FDF3
:1058A0007B68012283F846207B68012283F83E2032
:1058B0007B68012283F83F207B68012283F8402027
:1058C0007B68012283F841207B68012283F8422013
:1058D0007B68012283F843207B68012283F84420FF
:1058E0007B68012283F845207B68012283F83D20F4
:1058F000002318460837BD4680BD000080B485B03F
:1059000000AF78607B6893F83D30DBB2012B01D0AB
:10591000012344E07B68022283F83D207B681B68FA
:10592000DA687B681B6842F00102DA607B681B68FA
:105930001E4A934218D07B681B68B3F1804F13D086
:105940007B681B681A4A93420ED07B681B68194A11
:10595000934209D07B681B68174A934204D07B6846
:105960001B68164A934211D17B681B689B6803F041
:105970000703FB60FB68062B10D07B681B681A6866
:105980007B681B6842F001021A6007E07B681B68B5
:105990001A687B681B6842F001021A6000231846EF
:1059A0001437BD465DF8047B704700BF000001401E
:1059B0000004004000080040000C0040004001408E
:1059C00080B483B000AF78607B681B68DA687B685E
:1059D0001B6822F00102DA607B681B681A6A41F2D8
:1059E00011131340002B0FD17B681B681A6A40F219
:1059F00044431340002B07D17B681B681A687B68FF
:105A00001B6822F001021A607B68012283F83D20A6
:105A1000002318460C37BD465DF8047B704780B5FF
:105A200082B000AF78607B68002B01D1012341E098
:105A30007B6893F83D30DBB2002B06D17B680022F7
:105A400083F83C207868FCF725F87B68022283F80D
:105A50003D207B681A687B6804331946104600F0C5
:105A600013FD7B68012283F846207B68012283F8BE
:105A70003E207B68012283F83F207B68012283F867
:105A800040207B68012283F841207B68012283F853
:105A900042207B68012283F843207B68012283F83F
:105AA00044207B68012283F845207B68012283F82B
:105AB0003D20002318460837BD4680BD80B582B022
:105AC00000AF78607B68002B01D1012341E07B6847
:105AD00093F83D30DBB2002B06D17B68002283F8BF
