:020000040800F2
:10000000F0170020D5000008DD00000821200008BE
:1000100000000000000000000000000000000000E0
:10002000000000000000000000000000E1000008E7
:100030000000000000000000E3000008E5000008E8
:10004000E7000008E7000008E7000008E7000008F4
:10005000E7000008E7000008E7000008E7000008E4
:1000600000000000E7000008E7000008E7000008C3
:10007000FD100008E7000008E7000008E70000089E
:10008000E7000008E7000008E7000008E7000008B4
:1000900000000000E7000008E7000008E700000893
:1000A000E7000008E7000008E7000008E700000894
:1000B000C12B0008E700000800000000000000005D
:1000C0000348854600F0F0FC00480047552C000826
:1000D000F01700200448804704480047FEE7FEE789
:1000E000FEE7FEE7FEE7FEE745280008C10000083E
:1000F00003460B439B0703D009E008C9121F08C041
:10010000042AFAD203E00B780370401C491C521EEB
:10011000F9D27047D2B201E00270401C491EFBD2F6
:1001200070470022F6E710B513460A460446194602
:10013000FFF7F0FF204610BD10B5002200E0521C72
:10014000835C8C5CA34201D1002BF8D1D8B2E1B220
:10015000401A10BD0FB400B58DB009900B9010A9D6
:1001600000200091C0430A9000200C9006480690A1
:10017000064807906A4609A80F9900F05BFA0DB08F
:1001800008BC04B0184700005506000875060008B2
:10019000FFB50027FF4383B000205C6801909E6894
:1001A0001D46A9697F1C049888470090296A8847E2
:1001B0000028F6D10098401C0CD003204002844354
:1001C000002E19DD600614D500982B2809D02D28A3
:1001D0000FD103E00020C04307B0F0BD0120800232
:1001E0000443A9697F1C04988847761E0090002E5E
:1001F00002DD0098302803D00598002825D035E08E
:10020000012040020443A969761E7F1C0498884798
:100210000090002E03DD782805D0582803D00598DB
:10022000002810D022E00598002801D010281DD108
:10023000012040028443A969761E7F1C04988847E8
:100240000090102002E0082000E00A2005900DE058
:10025000012149020C43059A0199761E5143081861
:100260000190A9697F1C049888470090002E05DD45
:100270000599009800F0C8F90028E9DAE9690498BE
:100280008847A00502D40120C043A5E7E00722D19A
:10029000600611D56005019800D5404229680A1D05
:1002A0002A600968220501D5087014E0220701D5EB
:1002B000088010E008600EE02868011D29600068D1
:1002C000210502D50199017005E02107019901D5A9
:1002D000018000E0016038467EE7FFB5002083B072
:1002E0000090506801909169144600269768049820
:1002F000884705460C990698084305D009E0A1698E
:10030000761C049888470546216A284688470028B5
:10031000F5D1681C03D00198C00704D017E0002075
:10032000C04307B0F0BD2068011D21600068009047
:100330000DE00198C00704D1009805700098401C9A
:100340000090A169761C7F1E049888470546002FFF
:100350001CDD681C1AD0069800280FD0E817C00EC4
:10036000401941118A0006994009511840012A1A82
:100370000968012090400142DBD107E00C98002879
:10038000D7D1216A284688470028D2D0E16904984D
:1003900088470C98002807D1002E05DD0198C0077A
:1003A00002D1009800210170A068B84204DD0C98C9
:1003B000002804D0002F02D00120C043B1E730460E
:1003C000AFE7024670B54A40D30FDB0740002DD09F
:1003D0004A002AD0010E140E000212020919400A26
:1003E000520A8418E50104465443000A120A2E04F6
:1003F0005043A4194219200CC543AA18120C012518
:10040000AD03521C521912047F39240400D0521C2F
:10041000104301D44000491EC2B20C06C009201886
:10042000401C4008802A02D003E0002070BD400834
:100430004000002900DA0020184370BD70B5024664
:100440004A40D50F40004A00ED07400852080028F6
:1004500014D0002A12D0C40DD30D41020120C005D2
:100460005202490A520AE41A091812187D349142BC
:1004700001D3641C00E04900002C01DA002070BDAB
:100480000023914201D3891A034340084900002800
:10049000F7D100290AD0914202D10121C90705E014
:1004A000914201D2012101E00121C943E005C018B8
:1004B000401900F0F1F870BDC217C10F504010B5DF
:1004C0004018CA079623002100F0EEF810BD10B5C1
:1004D0004100C40F0A0E40020121400AC905E40789
:1004E00040187F2A07DA7D2A00DA7D22763A90408A
:1004F0000146002008E0962A09DC1346763B0146B7
:10050000994096239A1AD04000F0C6F801E0963A36
:100510009040002C00D0404210BD70B50446002928
:1005200003D000202022012310E0002801D0002069
:10053000C043C046C0460DE02546D5408D4205D398
:100540000D469540641B1D46954040191546521EA8
:10055000002DF1DC214670BD70B5002504462E4605
:10056000002911D0002C01DA01254442002901DACA
:10057000012649422046FFF7D0FFB54200D0404255
:10058000002D00D0494270BD002C02DA0121C907BC
:1005900002E0002C00DD03490846C046C046214663
:1005A00070BD0000FFFFFF7FF0B51FB406460020BE
:1005B00082B005464024019100901BE0019922463B
:1005C0000F46304600F092FA049A059B801A994132
:1005D00010D310461946224600F078FA361A8F4199
:1005E0000197224601200021009F00F06FFA381881
:1005F0004D4100902046641E0028DFDC019B0098DE
:100600002946324607B0F0BD3A2800D230382023C0
:1006100002469A43412A01D310463738884201D313
:100620000020C04370470000026813785118016031
:100630001846704710B5D1600449516104491162F0
:1006400000211161114600F07DFA10BD2906000855
:10065000350B00084268002A08D001680B78491C55
:10066000002B03D0521E06C0184670470121C160FE
:10067000881E70474268002A0BD0C3680168002BAF
:1006800007D183688B4204D0491E521C06C000204B
:1006900070470020C0437047002904DA401C49001D
:1006A00001D140084000704770B40024050C05D10A
:1006B0001024000402D1002921D01124050E01D1FB
:1006C00000020834050F01D10001241D850F01D15E
:1006D0008000A41C002801DB4000641C002908D015
:1006E00020252E1B0D46F540A14000D001212943B5
:1006F000084301061B1B000ADB1D02D5002070BC4D
:100700007047DB05181880180029F8DA401C4900EA
:10071000F5D170BC4008400070470000F0B50746B6
:100720000846584087B0C00F049048000E46590054
:1007300040084908BC1A884105D2384631461E4651
:1007400017460B4602465800400810434CD0300D67
:10075000039040055900400D490D0590401A029044
:10076000402872DA18030121000B090508430190A3
:1007700004980092002805D0019952420020884137
:1007800000920190029840210A1A0199009800F005
:100790009DF905460C466B4607CB00F0B8F9C01929
:1007A0007141039A0E0D0023D71756401A467A401E
:1007B000164344D0049A002A2DD0029A012A039AA3
:1007C00015DC1205C01A914101263605001C714145
:1007D000D20F059ED2070093019202962A46234625
:1007E00000F059FB07B0F0BD38463146FAE7160570
:1007F000224A0F46B218C01AB74101210905001C50
:100800004F4100187F41114618187941E20F1043FB
:100810006D19644113E0E2076D0815436408C207CF
:100820001443039A01261205C01A91413605001C93
:100830007141CE07400830434908C01851412A464B
:10084000234600F01BFBCDE7FFE7049801224000A0
:10085000C117121A00238B4104983146C417381A65
:10086000A141EEE730B40124E407634030BC55E712
:1008700030B40124E407614030BC4FE70000E0FFE2
:10088000F0B51FB488B00B99099800244840099925
:10089000C00F490049080991C0070B990090490011
:1008A00049080B9109990898A64608431CD00B9952
:1008B0000A98084318D0099801244000420D4800C6
:1008C000410D099824050003000B204309900B9863
:1008D0000003000B20430B9050181C4940180022C5
:1008E00001901446104605E0002001460DB0F0BD11
:1008F000032801DA034600E003239C46C11A0AAE2E
:100900000AE05F0008ADED5B4F00F75B7D43002719
:10091000AA187C41491C5B1E6145F2DD410004AB15
:100920005A522104120C0A43240C401C0828DFDB15
:10093000019802900099704601910090059B049ADD
:100940000799069800F0A7FAD0E700000DFCFFFF1A
:10095000F0B50C465C4085B0E40FE40703944C000E
:10096000002664085900944649080246029622432C
:1009700021D062460A431ED06200570D4A000E0382
:100980002303550D012402462C492405781B1B0B1B
:10099000360B401823432643614600901C46501AEC
:1009A000B44103D30098401C009002E092180098D4
:1009B0005B41002803DA0020014605B0F0BD0020AD
:1009C000012109050746864611E064461D46141BB1
:1009D000B54106D36546521BB341744607430C43E9
:1009E000A646CD0740084908284392185B410546B2
:1009F0000D43EAD11046184313D0604619465040C3
:100A00007140084306D06046101AB34106D2012255
:100A1000002306E000220123DB0702E00122D2438B
:100A20005310009874460105381C6141029C039DD7
:100A30000019694100F022FABFE70000FD03000041
:100A40004A0009030123090B1B0519430A4B10B582
:100A5000520D9A4202DA0020014610BD064B343393
:100A60009A4203DC9A1A00F041F810BD034BD218E9
:100A700000F02CF810BD0000FF030000CDFBFFFFCD
:100A800010B5002904DB0124E40740428C412146D3
:100A9000002B04DB1C460123DB075242A341994291
:100AA00000D1904210BD0000064C0125064E05E025
:100AB000E36807CC2B430C3C98471034B442F7D37F
:100AC000FFF702FB703E0008903E000810B5202A98
:100AD00004DB0146203A9140002010BD91402023C4
:100AE0009C1A0346E3401943904010BD10B5202ADC
:100AF00004DB0846203AD040002110BD0B46D3400D
:100B0000D0402024A21A91400843194610BD10B5C8
:100B1000202A06DBCB170846203A1041C1170B43A9
:100B200006E00B461341D0402024A21A914008430E
:100B3000194610BD10B50F21C0B2490200F0FEF9F0
:100B400010BD0000F3B58DB000200A9001200B907D
:100B5000002608460C300C4609906269012109986C
:100B60009047051E2ED0252D2DD0216A88470028BC
:100B700018D06269012109989047216A88470028A6
:100B8000F7D1411E62690998904700E0761CA1697F
:100B90000D988847216A88470028F7D1E1690D98A8
:100BA0008847DAE7A1690D9888470746A84201D12E
:100BB000761CD2E7E1690D9888477F1C02D10A981C
:100BC000002877D049E1002762693D4639460998F7
:100BD00090472A280CD16269012109989047012584
:100BE00006E00A214F433F18303FEBD41020054365
:100BF0006269012109989047014630390A2903D2D8
:100C00009B498F42DEDCECE7E90600D4994F6C2863
:100C10000AD04C2810D0682824D06A282ED07428F6
:100C20000CD07A280AD00DE062690121099890471A
:100C30006C2823D004211CE0202005436269012197
:100C400009989047A760656065284FD026DC582832
:100C500039D01ADC452849D012DC252834D0412867
:100C6000B0D143E06269012109989047682802D019
:100C700008210D43E6E70120C002DEE70220DCE7A1
:100C8000462833D047282CD130E05B2870D061282B
:100C90002CD063286CD0642823D161E06F284FD01A
:100CA00009DC662822D0672820D0692826D06E2843
:100CB00017D12EE0CDE070284DD073286FD0752865
:100CC0004ED078280DD154E0A1690D98884705468B
:100CD000252800D16CE7E1690D9888476D1C00D18B
:100CE0006DE7BAE00A224CE00A2252E001202346D6
:100CF0006A46C0430D99C046C046A3E0284640213D
:100D000008436060A807234601D5002239E000228D
:100D10003FE0E80700D020E72068011D216000685F
:100D2000290501D5067018E7290701D5068014E7C3
:100D3000A90703D5F117066041600EE706600CE7CE
:100D40002846402108436060A807234601D50822B1
:100D500017E008221DE0484928460840606016E078
:100D60002846402108436060A8072346BCD5B9E760
:100D700015E02846402108436060A80707D52346B0
:100D800010220120C0430D99C046C0465AE02346B8
:100D900010220120C0430D99FFF7FAF952E000211B
:100DA0000C910B460091632802D05B2807D043E0EA
:100DB000E80601D40120A060012000903CE06269B7
:100DC0000121099890475E2805D101200C90014629
:100DD0006269099890472169002906D10B4601AA4A
:100DE0008F00491CD3510829FADB002835D021692E
:100DF00000290ED1C117C90E09184A11930001AA82
:100E00009A1849094901411A01201368884003438F
:100E1000136062690121099890475D28E5D10C981B
:100E2000002808D0002001AB81005A58401CD24352
:100E30005A500828F8DB01AB01202246C0430D9927
:100E4000FFF74BFA00280ADA401C06D10B9800285D
:100E500003D00020C0430FB0F0BD0A98FBE7E907BC
:100E600002D10A99491C0A91361800200B9074E6A9
:100E7000CCCCCC0CFFFFFF7FF1F7FFFF10B5002BB0
:100E800008DA0024401C614192185B411A4301D1E9
:100E90004008400010BDF0B51FB482B005460C00FC
:100EA00003D0084602F01EF802E002F01BF82030E2
:100EB0000246009021462846FFF708FE049B059A4B
:100EC00004460F4618431143084314D018461043F4
:100ED0001BD0009840210A1A18460599FFF706FE14
:100EE00005460E46009A05990498FFF7EFFD084362
:100EF00005D0012004E02046394607B0F0BD0020AF
:100F0000C11705430E432C43374300990E986305E0
:100F1000401A7905E40A00220C43FD0A0A3002D582
:100F200000200146E9E70105101969410C9C0D9D5F
:100F300000196941FFF7A2FFDFE700007F2801D910
:100F4000002207E0054B42089A5CC00700D1120955
:100F50001207120F0120904008407047FC3700082C
:100F600030B58C180278401C13071B0F01D1037891
:100F7000401C120906D10278401C03E005780D7070
:100F8000401C491C5B1EF9D101E00B70491C521E2C
:100F9000FBD1A142E6D3002030BD0000F0B581B006
:100FA0004B48018809B26C4A11802222805E494A6E
:100FB0001080401AFFF780FA01464748FFF73EFAD3
:100FC000464908608F21C905FFF7FBF9FFF77FFA53
:100FD00062490860424E306801252843306030681D
:100FE000C007FCD0052000070024214600F062F96C
:100FF0002805F1680143F160F1680142FCD0306AD4
:10100000384908404018401C3062374882680A401E
:101010008260290702680A43026000943349009AFB
:101020008A4203DA009A521C0092F8E70268AA4347
:101030000260EA0703681343036003681343036015
:101040000268002AFCD40094009A8A4203DA009ACB
:10105000521C0092F8E702682A4302600246083AEE
:101060001368DB07FAD0C36807261E43C660C3684F
:101070001F4E1E40C660FF231E3386681E438660D7
:10108000EB051C4E37681F4337600094009B8B4272
:1010900003DA009B5B1C0093F8E7690543688B4308
:1010A00043601549016211688904FCD5290442682E
:1010B0000A4342600168042211430160001F016875
:1010C0001143016001F0A4FD01F094FD01B0F0BDF9
:1010D000A875FF1FDC0B00200000C842E40B0020B5
:1010E00034100240FFFFFF3F082401408813000036
:1010F000FF0000F8082701400110000070B50A4801
:10110000026804210A430260036C084A1468A500BF
:10111000224E7351631C1360022B01D10023136014
:1011200082680A43826070BD00240140C001002033
:101130001A4840680749414308140749098809B219
:10114000401A0649096841430120C00308180014E9
:101150001E3070479A190100DA0B0020E00B0020C6
:10116000B0B50E48026800240D490B461D68AA421E
:1011700006DA1B1D641C312CF8D1C431312400E087
:1011800019460A684968891A0068801A0525684363
:10119000FFF7E2F96C430019B0BDC046C40100205E
:1011A0004838000870B5072903D88D00044620345C
:1011B00008E007240D46A543082D35D10446243404
:1011C0008D00203DAA400F26AE402568B54315434B
:1011D00025604A0003249440C568A543C560DD0727
:1011E00003D19D0706D5022500E001259540C6687C
:1011F0002E43C660E543DE0504D501268E404168D6
:1012000031434160816829408160590502D5816878
:10121000214381600121914003688B4303600221D7
:10122000914002680A43026070BD000010B50121C0
:1012300009024158074B1A6854181C60002908D04D
:10124000054B1B689A1803781370521C401C491EEA
:10125000F9D110BDDC040020B4010020F0B587B046
:1012600005AEB07050217170CF213170010E7171D7
:10127000010C3171000AF0700620049003900027E1
:101280000297019601AD284601F010F800F0B7FF73
:10129000044688207070D92030700220049003909A
:1012A00002970196284601F001F800F0A8FF2043BC
:1012B00007B0F0BD490003228A4001681143016074
:1012C000C1689143C16070471248826B01218A4313
:1012D00082630A0203681343036082680E4B134063
:1012E000836002680D4B134003608A0403689343D4
:1012F0000360FD22120483689343836000228261AD
:10130000EFF3108072B6080405490A6802430A60C8
:1013100001F092FC001002400C40FF88F6FFF6FE40
:1013200000200240524908607047C04610B5504C3A
:101330002068806880470028FAD000F07BF810BD54
:1013400083B0B0B581B0044605A80EC005A80090D2
:10135000464D2A6809498A420AD2891A45480068D6
:101360008018009B224601F0A5FD29680918296014
:1013700001B0B0BC02BC03B00847C046FF0100008A
:10138000F0B583B00291264E3168002901D125497C
:101390000860009000200190234D224F03E00020C0
:1013A00030600120019028680068804704460928C1
:1013B0000EDC082C14D130680028F4D01BA0FFF7F5
:1013C000BFFF3068401E30603868401E3860EAE772
:1013D0000A2CE4D00D2CE2D00120000284420FD070
:1013E000306802998842DED2E1B211A0FFF7A8FF6F
:1013F0003868411C396004703068401C3060D2E7A6
:101400000198002808D03868411C39600022027019
:101410000098081A03B0F0BD002003B0F0BDC0462C
:10142000D4040020D8040020AC01002008200800CB
:101430002563000070B50D4C2068002815D00C4EB7
:1014400030688068804700280FD02168094D2868DF
:10145000326852689047002020600748296881421E
:1014600002D1012149024018286070BDD00400203B
:10147000AC010020B0010020EC0F0020002801D0BA
:10148000022001E001204004014908607047C04685
:1014900018000050F0B581B00446022909D0012996
:1014A0001CD121480169481E814124A0002913D084
:1014B00017E0552000012188081A411E88411A4969
:1014C00049694A1E534253410340881E41424141EB
:1014D000194316A0002904D101B0F0BD0021002954
:1014E000FAD0FFF72DFF04202056002801D406264D
:1014F00004E0A078E17809020818861D0027134D42
:10150000E15D2846FFF71CFF781CB04202DA3F2F4E
:101510000746F5D3402E02DB0DA0FFF711FF0D4863
:10152000FFF70EFF01B0F0BD040100201B5B33325A
:101530006D0D0A5553422054783A20001B5B33341A
:101540006D0D0A5553422052783A2000D13B0008D5
:101550002E2E2E00493D0008F0B581B0002815D090
:1015600004460B48C068012810D1666809A0FFF73F
:10157000E7FEE068012809DB00270A4DF15D2846F7
:10158000FFF7DEFE7F1CE0688742F7DB01B0F0BDAD
:10159000040100200D0A49432D5032303520527885
:1015A0003A200000D13B0008B0B5044601F08CF9A8
:1015B000054601F089F9294601F068F9A042F8D3FF
:1015C000B0BDF0B595B00E4600210891402A02D971
:1015D000012004905FE004910192002A5BD01C4638
:1015E00007A9887040204870CF20087003270C9707
:1015F0000B97099109A800F059FE08A800F0E4FD36
:1016000000250295039406A84570972101700221D8
:101610000C9104910B910DA90A91099009A800F071
:1016200045FE08A800F0D0FD029C3846FFF7BCFF3D
:1016300005A8AD2101700C970B970DA90A9109908F
:1016400009A800F033FE08A800F0BEFD0898406825
:101650004078002803D0641C052CE6D10524042C16
:10166000039C18D8089840688078002C06D0317800
:10167000411A48424841002804D109E03070012055
:10168000002805D06D1C761C01988542BBD1012035
:10169000414241410491049815B0F0BDF0B593B0BA
:1016A00000270697402A01D902274BE0002A49D09B
:1016B0000D46019205A9887040204870CF2008701F
:1016C00003260A960996079107A800F0EFFD06A8E1
:1016D00000F07AFD0024029404A84470D221017025
:1016E000297881700A9609960BA90891079007A896
:1016F00000F0DCFD06A800F067FD6D1C029F30467F
:10170000FFF752FF03A8AD2101700A9609960BA9B5
:101710000891079007A800F0C9FD06A800F054FD45
:10172000069840684078002803D07F1C052FE6D13A
:101730000527142F05D2641C01988442CCD10027C0
:1017400000E01E37384613B0F0BD000002480068C4
:10175000C10901208843704710040050014603A0CE
:10176000FFF7EEFDFFF766FEFCE7C0460D0A457881
:1017700069742077697468206572726F723A2025E7
:1017800073000000B0B5D3040FD4490003238B408D
:1017900004689C430460C4689C43C4600C30D30755
:1017A0000AD1920726D5022320E001231C468C4053
:1017B000950503D5254603E0012317E01D048D4060
:1017C0008561D50502D54568254345604900032458
:1017D0008C408568A5438560520502D58268224306
:1017E000826002228A400468944304608B4001684E
:1017F00019430160B0BD0000F0B581B01446024647
:1018000001231D0200206051002A04D00093911D85
:101810005679128806E0002900D1C3E000934A6897
:10182000002150266319302565712671E07092B24F
:10183000971E132F34D8A51DBA0002A7BA581F4609
:101840009746C046951800089F1900089F19000880
:101850002F1900089F1900089F1900089F190008F8
:101860009F1900089F1900089F1900089F19000878
:101870009F1900089F1900089F1900089F19000868
:101880009F1900089F1900089F190008FD180008FB
:1018900085190008714908629148FFF751FD7EE003
:1018A000552109018A421F4679D1E0700E21A170AD
:1018B00080210E432671E0710098A0718948208034
:1018C000664DA8682072010EE172010CA172000A37
:1018D0006072FFF72DFC2073000A6073FFF740FC75
:1018E000A07314213960000AE073E8682074010EC7
:1018F000E174010CA174000A607450E008784A7821
:10190000120210188A78CB781B029A181204101849
:10191000052849DC012858D0022840D1484C28210C
:101920002046FEF7FEFB57484068206137E04B49F0
:10193000009808620A465426A67020798021014347
:101940002171062020804F484068674C2070010EAE
:10195000E170010CA170000A6070526820464230AC
:10196000624901F093FA3D4800684E2160542146D7
:101970004E31000A4870284621463246FEF7B8FB31
:101980005A200BE02822A2701620208080200643D7
:1019900026712B492846FEF7ABFB2E2038603868AD
:1019A000411E884101B0F0BD062836D01921090139
:1019B0008842F4D123A0FFF7C3FCFFF7B7FC0A204D
:1019C000FFF7F2FDFFF780FCE9E708794A79120298
:1019D00010188A79C9790902891809040918294C4B
:1019E000616029A0FFF7ACFC252008222146FFF703
:1019F00055FE002802D02BA0FFF7A2FC252021498C
:101A000008220123FFF7DDFD002802D02AA0FFF7FE
:101A100097FC2EA0FFF794FCC1E708794A791202DF
:101A200010188A79C97909028918090408180B4C19
:101A30006062FFF713FC616A09A0FFF781FCAEE763
:101A4000E00400200D0A426F6F746C6F6164657270
:101A50002063616C6C2E2E2E000000001407002005
:101A60000D0A536574207265666572656E63652044
:101A7000706F736974696F6E20746F2025640D0A2E
:101A800000000000500700200D0A536574207365A4
:101A90007269616C206E756D62657220746F2025AD
:101AA000640D0A000D0A4545577269746520666128
:101AB000696C7572650000000D0A454556657269CE
:101AC0006679206661696C75726500000D0A536164
:101AD00076656420454550524F4D0D0A00000000C8
:101AE000553E00085105000054010020683E0008E2
:101AF000F0B5A3B0044620A80026067221962096D1
:101B0000481C41D010295FD84900C04679448988D3
:101B100049008F441000850045018D006501840156
:101B20008A019401DA019D00AF01B200C800C90129
:101B3000F20022013101EB4DA868C117890E461849
:101B4000E949FEF709FD0446B011E849FEF704FD36
:101B50000A46E7482146FFF7F3FB287E800702D5B7
:101B6000E4A0FFF7EDFB287EC00702D0E2A0FFF75C
:101B7000E7FB287FC00703D0E048E149FFF7E0FB1F
:101B8000E048FFF7DDFBF2E0E3A120AA2046FEF7E4
:101B9000E1FAE24D1227696820A8FEF7CDFA002885
:101BA0000CD07F1E1035002FF5D11121012908D04E
:101BB000DB48002206C01029A6D905E029680129C2
:101BC000F6D1012110299FD9D54800218160C1603B
:101BD00001614161CC48FFF7B3FBD04F0C370120C6
:101BE000C04311248600C94D0FE002A8C84901F086
:101BF0004DF93A6802A92846FFF7A2FBFFF796FBCA
:101C0000641E1037002C00D15CE1BA59B819436842
:101C100018780028E9D102A8BEA101F037F9E8E759
:101C2000C0A0FFF78DFBBE480121816023B0F0BD4D
:101C3000DE491FAA2046FEF78DFA1F98411E024674
:101C40008A41B749CA60002800D140E1F1493FE12B
:101C5000252002A9102200242346FFF7B2FC0146EA
:101C6000E148FFF76DFBDB4D02A8015D2846FFF759
:101C700067FB641C102CF7D18DE0DC491FAA2046BD
:101C8000FEF768FA17A840214170CF2101701F9913
:101C9000817003211E911D911B901BA800F006FB73
:101CA0001F99D34815E1C1491FAA2046FEF752FAF1
:101CB000B14C1F98606025270826384621463246D9
:101CC000FFF7ECFC0146BA4DBA4800292A4600D07D
:101CD0000246B948FFF734FB012338462146324615
:101CE000FFF76FFC0146002800D0B24DB3482A46EA
:101CF000FFF726FB6168B248EBE03746B1A0FFF77B
:101D00001FFB16A89C2101700A211E91012101913F
:101D10001D9102A91C911B901BA800F0C7FAAD4CA5
:101D200001E0002D34D01FA800F0E4FA05461F980A
:101D30000028F6D0406800789C28F2D11E9801282F
:101D4000EFDB3E461F984068815D2046FFF7F8FABA
:101D5000761C1E988642F5DBE3E7FFF7E9F90446B7
:101D6000FFF7FEF9024673A02146FFF7E9FA6C4837
:101D70000121416023B0F0BD79A0FFF7E1FAFFF740
:101D8000D5FA0A20FFF710FCFFF79EFA23B0F0BD4A
:101D90006348019941609048FFF7D2FA23B0F0BD43
:101DA00082491FAA2046FEF7D5F91F9C0A25204626
:101DB0002946FEF7D1FB5A494543621B08614A6137
:101DC000022804D880008F490858FFF7B9FA1F98F5
:101DD0000A21FEF7C1FB481E02287ED28A48DBE7B3
:101DE00072491FAA2046FEF7B5F91F9802A91022D2
:101DF00000F04AF91F998248FFF7A2FA0025754CB6
:101E000002A8415D2046FFF79BFA6D1C102DF7D10B
:101E10007148FFF795FAFFF789FA23B0F0BD7748CC
:101E2000FFF78EFA1AA8B02104E07348FFF788FA8A
:101E300019A8B1214170D9210170022110E06B492C
:101E40001FAA2046FEF786F91F996A48FFF778FA1D
:101E500018A800214170D92101701F9981700321B8
:101E60001E911D9102A91C911B901BA800F01EFA47
:101E700023B0F0BD59491FAD20462A46FEF76AF946
:101E800025260424304629462246FFF707FC014652
:101E90005348FFF755FA0123304629462246FFF7FB
:101EA00090FB01464F4814E02520334C08220023C4
:101EB0002146FFF786FB014630A0FFF741FA616833
:101EC00033A006E055A0FFF73BFA23B0F0BD504920
:101ED0005148FFF735FA23B0F0BD0029F5D14B4842
:101EE0005AE7C0461407002000C40900102700006C
:101EF000D73B000846000000520000004F3D00089C
:101F0000493D00086B3A0008A13B0008F53D000878
:101F1000EB3B000825733A0025397300343900087B
:101F2000040100200D0A55706461746573206F6EA2
:101F3000000000000D0A53544D33322074656D705B
:101F4000203D20256420B0432C204E54432074654E
:101F50006D70203D20256420B0430D0A0000000074
:101F60000D0A426F6F746C6F616465722063616CFF
:101F70006C2E2E2E00000000500700200D0A526526
:101F8000616420737461747573203D2025640000C2
:101F90000D0A53657269616C206E756D6265722001
:101FA000726561643A2025640D0A00003B3C00081C
:101FB000F23B0008EF3D0008003E0008183E000814
:101FC0000C3B00080D0A446961676E6F73746963A6
:101FD000733A2000D13B00086B3A0008F53B00083B
:101FE000273C0008F53A0008B63B00084F3E0008C1
:101FF000D73A0008BF3A0008713B0008583B000878
:10200000AA3B00083C3800083F3B0008283B00087A
:10201000AB3C0008893D0008893B00080D0A3E00E2
:1020200000F00AFE0121012801D0C80300E0C80722
:10203000014908607047C0461808005010B582B0CA
:10204000104800F033F903E0FFF7F4F9002C0DD04D
:1020500001A800F04FF9044601980028F4D000F0E0
:10206000E5F8F1E7FFF7E6F9002C09D001A800F048
:1020700041F9044601980028F4D000F0D7F8F1E7C0
:1020800002B010BD20010020F0B587B014460D4607
:102090006946887040204870CF2008700327069753
:1020A0000597039103A800F001F902A800F022F9B6
:1020B0000028FAD101A8002686704670812101709F
:1020C00005970390E01C069003A800F0EFF801E0EC
:1020D000002812D002A800F00DF902990029F7D0CB
:1020E000012CF5DB3146029A52685218D2786A54B4
:1020F000491C8C42F7D16D18EAE707B0F0BD00002B
:10210000F0B581B01B4C206801210143216020689B
:10211000C007FCD00520000711210A02012100910F
:10212000FFF730FB2068022101432160206880070F
:10213000FCD5114E00250227304629463A46FFF7C6
:1021400021FB032130463A46FFF71CFB07213046AE
:102150002A46FFF717FB206804210143216020680D
:102160004007FCD50098020304480F21FFF70AFB43
:1021700001B0F0BD341002400004005000080050CF
:102180000448016801220A400068800802210140D9
:1021900088187047100400500120000270477047F3
:1021A0004148002101604160044A054B5360054AE3
:1021B000C1610162416282627047C04650070020DF
:1021C0000005EA06C9280008F0B581B0044600F011
:1021D0007BFB054600F078FB294600F057FB0646DE
:1021E000204600F087F807462068002801D0FFF756
:1021F000B3F90A2E01D8002FECD101B0F0BD70B5B3
:1022000000F062FB044600F05FFB214600F03EFB5D
:1022100006460025284600F06DF80A2E01D8002851
:10222000F1D10B2E00D20125284670BDC1680129CD
:1022300024DB41680A78881C812A21D09C2A10D08E
:10224000A62A1BD108794A79120210188A79C9790D
:10225000090289180904081800BA13498860002087
:10226000704701784278120251188278C0780002D3
:1022700080180004401800BA0B49C860002070475D
:102280004A78482AFAD1C979074A11604178837897
:102290001B025918C37800790002C01800044018C6
:1022A000506000207047C0461407002070B50146FA
:1022B0004120C200454B98581F2819DC01204402D8
:1022C0001D596E1C1E512D010E685E515D19CE68A0
:1022D000EE608E68AE60496869601959202903D1A3
:1022E0000121490200245C509958491C995070BD45
:1022F000002070BDF0B581B00446324E3068002732
:1023000047602760304D286802281FD0012839D047
:10231000002851D14120C0002C4C205800284BD01F
:10232000002000F03BF98120800020580001221895
:1023300032609168D268914200DB11468AB220581F
:10234000234900F0EFF80120286035E000F042F862
:10235000002831D0012000F021F94120C1001B48A4
:102360004258521E42503168194A4A602160812108
:1023700089004258521C202A3B4600D01346435045
:102380002F6019E000F026F8002815D03068826828
:10239000C3689A4205DD0068C018D11A8AB20021CC
:1023A00006E0934206DD0A488118981A82B200209E
:1023B00000F0B8F8022028604120C0000349085806
:1023C00001B0F0BD440700204007002008050020B0
:1023D0005807002001204103014800680840704769
:1023E00000000240F0B583B0012426034948C168CB
:1023F0003143C160C1683142FCD0016821430160B2
:102400000168C907FCD04168214341604168C907A0
:10241000FCD005210F07002538462A462B46FEF73B
:10242000C1FE062138462A462346FEF7BBFE072199
:10243000009138462A462B46FEF7B4FE0920420298
:1024400004213846FFF79EF940200190C043324FE7
:102450003968014039603A1F116801401160C72096
:10246000800011680143116000980002396801433F
:102470003960386830433860386803210143396077
:10248000444B1868A04318601868C007FCD11E466A
:10249000403E6003306038460830986002A9D96039
:1024A00019681E4F394019601F68802100910F4341
:1024B0001F6019681027B94319605D6019682143CE
:1024C00019605969A14359615969C907FCD161046F
:1024D0003160D86102A818625869104908405861F3
:1024E00058690099084358615869384358619D619B
:1024F0000B48016839430160416811230B43436075
:10250000106801990843106003488068029003B086
:10251000F0BDC0463410024004300140FFF0FFFF20
:102520000C08024070B50123DD431A4C66692E4049
:10253000666126682E4026606569ED07FCD1256836
:10254000ED07F9D1002904D0E160256880212943F5
:1025500004E01149E16021688025A9432160002839
:1025600004D0206261698020084304E00A482062A8
:1025700060698021884360616260A26120464038C2
:1025800011214903016020681843206060691843E5
:10259000606170BD44000240780B0020002801D02B
:1025A000102001E001200005014908607047C04685
:1025B00018000050F0B581B00446012001026258B5
:1025C000022A05D165182968012904D101B0F0BD9E
:1025D000022001B0F0BD0126194F009603E02868E3
:1025E00001283046F2D027480068006880470099EB
:1025F0000902884221D03A68511C3960A05406294A
:1026000011D104202056002801D4002200E0A27835
:10261000901D0C4B186063799020502B01D0012B3A
:10262000D4D17A2AD2D8074800688142D7D1012074
:102630002860002038600326D1E7304601B0F0BDA5
:10264000800B00207C0B002070B50D4C206800280A
:1026500015D00C4E30688068804700280FD0216864
:10266000094D28683268526890470020206007486A
:102670002968814202D1012109024018286070BDF9
:10268000DC040020A8010020B4010020D0020020BA
:1026900010B50B4C4F212046FEF772FE00280CD0DF
:1026A0004F2805DC22185021091A1046FDF739FD84
:1026B0000020C1430248FFF71BFAFEF7BBFE10BD26
:1026C000840B002080B5FFF7E3FF00F001F880BD28
:1026D00010B500F0F9F8104C218800F0D7F8FF2170
:1026E000F631884217D300F0EFF820800B490A68D2
:1026F000504250410860FEF7C1FE094CA068012815
:1027000009D16068012806D106A0FEF719FE2168EC
:102710000648FFF7EDF910BDD80B0020D40B0020C0
:10272000040100201B5B314100000000543E000802
:10273000F0B582B001210A073D48036B13430363E0
:10274000036B1342FCD0032301935B02394D2C68C9
:102750009C432C608B022C681C432C606C691C42CF
:10276000FCD1354C2568354E2E40FF3B334323606A
:1027700005252C0403460C3B1E6826431E60304C86
:102780004F041E683E40671EA74202D2002E3C4600
:10279000F6D0002E4AD00E061C680096B4431C608A
:1027A0004E061C683442FCD1002404600468019F7A
:1027B0003C4304600468102727430760AC020568A7
:1027C00025430560132464040568254305600468F7
:1027D000344304604C070568254305601C68009D70
:1027E0002C431C601C683442FCD003681343036014
:1027F000090402680A43026007210903001F0268F6
:102800000A43026002688A4302600F2109020268DB
:102810000A43026002688A430260016802220A4396
:102820000260016838220A40102AFAD102B0F0BDD5
:102830000C1002400070004000200240F8FCFFFF36
:10284000FF3B000080B501210A020D4803681343D5
:10285000036082680B4B1340836002680A4B13408D
:102860000360890402688A430260FD2109048268CA
:102870008A43826000218161FFF75AFF80BDC04614
:10288000001002400C40FF88F6FFF6FE401A80B2AE
:10289000704700000120C1035A4A13680B431360BC
:1028A0000649074A8A62074ACA620A68052313432F
:1028B0000B604A6902434A617047C04600200040ED
:1028C0004FC30000FFFF00000148006880B270475E
:1028D00024200040012070476948016840200840DA
:1028E0007047C046F0B581B0009001218A03454889
:1028F00003681343036003681342FCD002460C3A9A
:1029000013680B4313601368DB07FCD00246083AD8
:1029100013680B4313601368DB07FCD002680A439B
:1029200002600168C907FCD03748016818220A43D1
:10293000026005252F07092101240026384622467A
:102940003346FEF72FFC0A21384622463346FEF76F
:1029500029FCD92041002D48C1604660866000995D
:10296000022904D0012906D10B21490200E0A90265
:1029700002680A430260610702680A430260016854
:10298000214301608168C0220A43826020490A46CF
:10299000143A1368A34313601368DB07FCD1136870
:1029A00090251D4315600A460C3A034628331360F0
:1029B0000A46103A16600A68A2430A600A68D207FB
:1029C000FCD10A68A02313430B60024624328A60BC
:1029D0001D4ACA60A2024A60C26940239A43C2618A
:1029E00002680C23134303600A480268332313432D
:1029F0000360426832231343436008682043086041
:102A000001B0F0BD4010024000000140003801401C
:102A1000300002400408024010B509480068012255
:102A200093021C1A07490868844201D1100210BDA4
:102A3000421C9A4200D100220A600349085C10BD82
:102A400034000240E80B0020EC0B002010B50B4ACC
:102A5000146801239C4314601468E407FCD1D0601F
:102A60005160074801684024A143016010461838AE
:102A70002021016010681843106010BD1C00024046
:102A80001C38014058480168402008407047C04643
:102A900070B5012461042A4882680A438260826812
:102AA0000A42FCD00168214301600168C907FCD0DB
:102AB0004168214341604168C907FCD005200607F1
:102AC00002210025304622462B46FEF76BFB0321F0
:102AD000304622462B46FEF765FBD92040002A4EA1
:102AE000F0607560B560306820433060B068C02128
:102AF0000143B16031480168A14301600168C90721
:102B0000FCD1016890220A4302603146283181607D
:102B100045603068202101433160F06940218843DD
:102B2000F06100F07FF800F06BF830680C21014391
:102B300031600448016835220A43026070BDC04616
:102B4000341002400008024070B501240D490868A5
:102B5000264A1268824212D0451C0D600A4A166845
:102B600020239E431660A602214CA619B54200D030
:102B70002C4600780C6011681943116070BD20026A
:102B800070BDC046BC0100200044004010B50B4A97
:102B9000146801239C4314601468E407FCD1D060DE
:102BA0005160114801684024A1430160101F0221B7
:102BB000016010681843106010BDC0460800024054
:102BC0000949086880060BD508480268531C036051
:102BD0008968117001218A0205498A18934200D040
:102BE000704701607047C0461C440040B801002097
:102BF0007807002001200003044908607047C046A0
:102C000001200007014908607047C04600E100E06C
:102C10000348016880220A437F218A43026070478B
:102C20000CE400E00348016880220A437F218A43C4
:102C3000026070471CE400E0BFF34F8F0348044973
:102C40000160BFF34F8F00BFFDE7C0460CED00E011
:102C50000400FA0584B000260396FFF751FAFFF747
:102C60009FFA01242046FEF709FCFFF713FE3225E8
:102C70002846FEF799FCFFF7B5FB02200190FFF70D
:102C800031FEFFF705FFFEF789F95148FEF74AFBD1
:102C9000504F3846FEF754FB4FA0FEF751FB384625
:102CA000FEF74EFB55A02946FEF74AFB029420464C
:102CB000FFF7B8F905252846FEF776FC3046FFF702
:102CC000B1F92846FEF770FCFFF7B8F96420FEF76B
:102CD0006BFC504C226861684FA0FEF731FBFEF799
:102CE00025FB2520564D082229463346FEF769FC70
:102CF000696854480818544A904206D85B48FEF761
:102D00001FFB03CD5A4A03C202E050A0FEF718FB96
:102D10005848FEF715FBFEF709FB574F0EE0FFF78B
:102D2000D1FCFFF72DFAA061FEF710FD401E4142D5
:102D30004141E069029A90434018E0613846FFF74C
:102D400039FC902803D14E48FEF708FD1AE002989E
:102D500000023858012815D1012538462946FEF7CA
:102D600099FB00213846454AFEF746FD012806D169
:102D70004248FEF75BFA02214048FEF78BFB28022F
:102D800001993950FFF760FCFFF79EFD0546B1B28F
:102D9000FFF77CFDFF21F63188420CD33948FFF75D
:102DA00085FA3948FFF782FAFEF7C2F92061FEF78B
:102DB000D7F960612E4603A8FFF79CFA0398002814
:102DC000ADD0FEF7C9FB0398FFF730FAA7E7C0467E
:102DD000283900086E3A00080D0A566F69636520AD
:102DE000436F696C205265616420486561642044CA
:102DF0006576656C6F706D656E7400000D0A5379B1
:102E00007374656D20636C6F636B3A092564204DA4
:102E1000487A0000140700200D0A4465766963654E
:102E20002049443A093078253038582C20526576AC
:102E30006973696F6E3A203078253032580000008F
:102E40004807002000FB15F93F420F000D0A5072A1
:102E50006F647563743A09506172616D657465726F
:102E60007320696E76616C6964000000AD3A0008F9
:102E700050070020543A000800000020CC01002038
:102E8000913A000840010020300100200FB410B535
:102E900004A9074B02AA039800F004F9044602A90A
:102EA000002000F0A6FC204610BC08BC04B0184767
:102EB000F33700087CB51D4616460C0001D0611E94
:102EC00000E0002101910090054B6A4629463046FA
:102ED00000F0E8F8002C02D0009A002111707CBDAF
:102EE000DD3700082021020C01D010211046020A13
:102EF00001D010460839020901D01046091F820886
:102F000001D01046891E420801D0881E7047081A59
:102F1000704702E008C8121F08C1002AFAD17047A2
:102F20007047002001E001C1121F002AFBD1704749
:102F3000F0B51FB486B00998089A030D002102432A
:102F400014D05148514A18185043051411980128BB
:102F500010981AD0281A401C00264D4F4D49009653
:102F600001910490002812DA444211E011980124E2
:102F700049A3012801D11098C1430698119A846091
:102F80000360C26041600BB0F0BD4042E4E704461C
:102F9000210500203F4A001C51410391029012E09C
:102FA000E00707D032463B4601990098FDF768FCE0
:102FB0000191009032463B4610461946FDF760FCF1
:102FC00006460F466410002CEAD10498039B0028A3
:102FD000029A0999089806DAFDF752FC019B009ABB
:102FE000FDF74EFC05E0FDF7B3FC019B009AFDF7F1
:102FF000AFFC04460E460022284BFDF741FD03D8E6
:103000000020C043014607E00022254B2046314600
:10301000FDF784FBFDF714FD102409E0002C0ADB0A
:103020000A220023FDF7C0FA079B30321A55641EAE
:1030300002460A43F2D11122641C079B121B1C1981
:10304000119B012B03D0012308430ED10AE0084352
:1030500004D0112010900020119077E71098151AD5
:103060006D1E0BE01098824202DD00236D1C03E010
:10307000824201DA00236D1E002BEED006981199D2
:103080008260C16030C07EE701FCFFFF104D000090
:10309000000014400000F03F300000000000F0434A
:1030A0000000E03FFFB597B00646002518E225284E
:1030B00077D100242746FD49049400E00443761CA0
:1030C00032780120203A90400842F7D130782A28FF
:1030D0000ED00222307801463039092916D80499D9
:1030E0000A235943303940181443761C0490F1E701
:1030F000189802C804911890002904DA01204003AE
:1031000004434842049002200443761C30782E2861
:1031100014D1042004437078761C2A2809D1189809
:10312000761C80C8189009E00A214F43303FC71928
:10313000761C3078014630390929F5D930786C2869
:1031400010D006DC4C281AD068280ED06A2817D177
:1031500004E0742813D07A2812D110E00120400531
:1031600004430CE00121090501E0032109050C439A
:103170007178814203D1012000052418761C761C49
:103180003078119066280BD013DC58287DD009DCEC
:1031900000287BD04528F6D04628F4D047281AD1FD
:1031A000A5E118E0632835D0642870D0652812D1D5
:1031B0009DE170286CD008DC6728F1D069287BD0AD
:1031C0006E280DD06F2806D1BAE073282ED075284E
:1031D00071D0782859D01A9A199990476D1C7EE1C0
:1031E0006002400F022809D003280DD00428189847
:1031F00001680DD00D60001D189070E11898EA1755
:1032000001680D604A60F6E7189801680D80F2E7E2
:103210000D70F0E718986A4601781172001D189039
:103220000020507202A80090012005E0189802C802
:10323000189000200091C04361070DD5002101E0E6
:103240000199491C0191B94212DA8142F8DB009AD6
:10325000515C0029F4D10BE0002101E00199491CE7
:1032600001918142FADB019A0099895C0029F5D12C
:10327000019904981A9B471A21463846199A00F07A
:1032800097FA0199401945180BE04FE02CE113E043
:103290004EE0009800990078491C00911A9A1999FB
:1032A00090470198401E0190401CF2D121463846BB
:1032B0001A9B199A10E137E00A2000210090019131
:1032C0006002410F022907D0189A01CA1892C2174A
:1032D0009446032908D00AE01898C01DC108C90007
:1032E00005C91891944607E000B2C2179446042914
:1032F00002D140B2C1178C4600226146944506DADD
:103300000A460021404291418C462D2102E02105D0
:1033100004D52B216A461173012103E0E10701D096
:103320002021F7E7029155E00A200AE0102008E08A
:10333000102000900021042004430191082703E09D
:1033400008200021019100906002410F022907D05E
:10335000189A01CA189200229446032908D008E05E
:103360001898C01DC108C90005C91891944603E00A
:1033700080B2042900D1C0B200210291210729D5D1
:103380001199702906D0009A1021019B4A401A43D6
:1033900005D00EE040216A461173012108E0614624
:1033A000014306D030216A461173119951730221ED
:1033B0000291009A0821019B4A401A430AD16146B2
:1033C000014301D1610705D530216A4611730121FE
:1033D0007F1E02911199582904D035A10E910DA993
:1033E0000D910DE037A1F9E76146019B009AFDF7C9
:1033F000DBF80E9B8C469B5C0D9A521E0D9213704F
:1034000061460143F0D10D9805A9081A20300190BA
:10341000600703D501200004844300E001270198E0
:10342000874201DD381A00E0002001990090411820
:10343000029809180498401A0490E00306D4214623
:103440001A9B199A049800F0B3F94519002706E071
:1034500003A81A9AC05D199990476D1C7F1C0298A9
:103460008742F5DBE0030CD521461A9B199A049894
:1034700000F09EF9451904E01A9A302019999047F6
:103480006D1C0099481E00900029F5DC08E00D989D
:103490000D990078491C0D911A9A199990476D1C45
:1034A0000199481E01900029F1DC63E1092801001F
:1034B00030313233343536373839616263646566AA
:1034C000000000003031323334353637383941426C
:1034D000434445460000000000F05AF94519761CA7
:1034E0003078002800D0E2E528461BB0F0BD600728
:1034F00000D406271898C01DC108C90048680A688A
:103500000831C30FDB071891190001D09CA108E016
:10351000210501D59BA104E0E10701D09AA100E0BB
:103520009AA1430011985B08109165280CD006DC25
:10353000452809D046281DD0472841D141E06628BA
:1035400018D067283CD13CE00021112F01DB11206D
:1035500000E0781C0191009008A911A8FFF7E8FC91
:10356000139905910021119A15927F1C12980197C9
:10357000009150E00120C00703900120019008A9AC
:10358000009711A8FFF7D4FC139A14990592002212
:10359000119B009212981593059A0192002901D06F
:1035A000104602E0791C40180190381A01D50198A4
:1035B00004E04042401E0090781C0190C01B029025
:1035C00043E0012F00DA01270021112F01DD112036
:1035D00000E038460191009008A911A8FFF7A8FC67
:1035E00013990591119A0021129815920091019753
:1035F00021070CD40599B94201DB019900E0019142
:10360000012904DD159A491E515C302906D0B842C3
:1036100001DA011D05DA0121029115E00199491E27
:10362000EDE7002805DC0099411800910199091A7D
:1036300003E0019A411C914200DD01910099401A7A
:10364000401C02900120C0070390200706D4029975
:103650000198814202DB0020C043029000206946AD
:10366000C87707AF012103980337C907884224D0E0
:10367000022011902B201290039800280CDA40426F
:1036800003902D20129007E00A210398FCF745FFD4
:1036900030317F1E039039701199481E1190002916
:1036A000F2DC03980028EFD1791E12980870307868
:1036B000202108404530BF1E387006A8C01BC01D21
:1036C000039010980078002800D00120019941183B
:1036D0000298C0170918039809180498401A401E48
:1036E0000490E00306D421461A9B199A049800F02E
:1036F0005FF8451910980078002803D01A9A199994
:1037000090476D1CE00324D521461A9B199A049812
:1037100000F04EF845191CE00098002807DB0099DE
:103720000598884203DD1598405C199901E01999C4
:1037300030201A9A904700986D1C401C0090029807
:10374000401E0290002804D11A9A2E201999904701
:103750006D1C0199481E01900029DDDC05E03878D8
:103760001A9A7F1C199990476D1C0399481E039063
:103770000029F4DC21461A9B199A0498ACE6000053
:103780002D0000002B0000002000000000000000C1
:10379000F8B5044600251E461746880404D405E003
:1037A00039462020B0476D1C641EF9D52846F8BD67
:1037B000FFB50446002581B01E46C80301D5302759
:1037C00000E02027880404D505E038460399B04777
:1037D0006D1C641EF9D5284605B0F0BD4A68002A64
:1037E00006D00A68531C0B6010704868401E486081
:1037F00070470A68531C0B6010707047DDDDDDDD1B
:10380000DCBBBBDDDDDDDDDDDDDDDDDD9888888871
:103810008888888877777777778888888555555618
:10382000666666666666666666688888833333326F
:1038300022222222222222222228888D9A3C00083B
:103840005A3D00085A3D0008780F0000570F00004D
:103850002F0F0000000F0000CA0E00008B0E0000AA
:10386000430E0000F10D0000960D0000320D000027
:10387000C50C00004E0C0000D10B00004C0B0000EA
:10388000C30A0000350A0000A6090000150900005F
:1038900086080000F90700006F070000EA06000034
:1038A0006B060000F10500007F0500001205000016
:1038B000AD0400004F040000F8030000A70300005F
:1038C0005D03000018030000D90200009F02000001
:1038D0006B0200003A0200000E020000E501000049
:1038E000C00100009F010000800100006301000092
:1038F0004A010000320100001C0100000801000024
:10390000F6000000E5000000D6000000C80000003E
:10391000992100089F210008D5280008192A0008CD
:103920004D2A0008D9280008492B00088D2B0008D3
:10393000852A000800000000433E0008543E0008AD
:10394000713D000801000000633C0008543E00087F
:10395000313E0008020000007F3D00083E3C0008A8
:10396000DA3C000803000000863D00083E3C0008E9
:10397000B73C000804000000273D00083E3C00085A
:10398000033D000805000000FB3B0008543E000812
:10399000803C000806000000FB3C0008543E000884
:1039A000373D000807000000483C0008F83B0008CD
:1039B0004C3C000808000000933C0008543E0008FE
:1039C0001B3C000809000000413C0008543E000870
:1039D000023C00080A000000783C0008543E000841
:1039E0000E3C00080B0000002F3D0008F83B0008CB
:1039F000173D00080C000000923D00083E3C000806
:103A0000B33D00080D0000008C3D0008543E000846
:103A1000A03D00080E000000AF3C0008543E000826
:103A2000D53D00080F000000983D0008543E0008F6
:103A3000673C0008100000004A3E0008543E0008A1
:103A4000C53D000811000000543E0008543E000827
:103A5000543E00080D0A0A507265737320456E7457
:103A6000657220666F72206D656E750D0A000D0A15
:103A70002D2D2D2D2D2D2D2D2D2D2D2D2D2D2D2D76
:103A80002D2D2D2D2D2D2D2D2D2D2D2D2D2D2D2D66
:103A900000496E76616C696420415054206D6573F5
:103AA0007361676520666F726D61742E000D0A5038
:103AB000726F6475637420532F4E3A092564000DAC
:103AC0000A53656E7420636F6D6D616E642030788B
:103AD000253032580D0A000D0A5365742061637455
:103AE0006976652062616E6B20746F2030782530B6
:103AF00032580D0A000D0A56657269667920737492
:103B000061747573203D2025640D0A000D0A53650C
:103B1000742073657269616C206E756D62657220C8
:103B2000746F2025640D0A000D0A4150542054780A
:103B3000206D6F6E69746F72206F66660D0A000DDE
:103B40000A415054205478206D6F6E69746F722052
:103B50006973206F6E0D0A000D0A416E616C6F670C
:103B600075652063616C6962726174696F6E0D0ABC
:103B7000000D0A4469676974616C2063616C696255
:103B8000726174696F6E0D0A000D0A505A32303539
:103B9000207278206D6F6E69746F722025730D0A24
:103BA000000D0A4D656E753A0A000D0A42616E6B92
:103BB0002025643A20000D0A537461747573203D0A
:103BC0002025642C204461746120726561643A2070
:103BD000002530325820000D0A506F73203D2025FB
:103BE000642E25303464206D6D20002573202573EC
:103BF0003A004F4B00252A7325580063616C616EB3
:103C000061005265616420454564617461005772CA
:103C1000697465204545646174610053617665206F
:103C2000454564617461000D0A57726974652073BB
:103C30007461747573203D20256400252A73256402
:103C40000065657265616400636D640053656E6450
:103C50002073706563696669656420636F6D6D616B
:103C60006E640075706400526561642074656D70E7
:103C70006572617475726500656577726974650057
:103C800043616C69627261746520616E616C6F671B
:103C9000756500656573617665000D0A41505420B5
:103CA0005278206D6F6E69746F72206F6666006760
:103CB000657464696167005475726E206F6E2F6F52
:103CC00066662069432D505A323035205278206D77
:103CD0006F6E69746F72696E67005475726E206FD3
:103CE0006E2F6F6666204150542052782F547820F2
:103CF0006D6F6E69746F72696E670063616C646981
:103D000067690052656164207370656369666965FF
:103D1000642062616E6B0053657420616374697620
:103D2000652062616E6B0067657462616E6B007323
:103D3000657462616E6B0043616C69627261746587
:103D4000206469676974616C001B5B33306D00250A
:103D5000734525731B5B33316D000D0A41505420B0
:103D60005278206D6F6E69746F72206973206F6E68
:103D7000005265616420706F736974696F6E0061D1
:103D800070746D6F6E00707A6D6F6E00676574731E
:103D90006E00736574736E0067657474656D700092
:103DA000526561642073657269616C206E756D6225
:103DB0006572005365742073657269616C206E755D
:103DC0006D6265720043616C6C20626F6F746C6F22
:103DD00061646572005265616420646961676E6F39
:103DE00073746963732072656769737465720065C3
:103DF00072726F72000D0A252D3130730925730020
:103E00000D0A5772697465207374617475733A0989
:103E10002564203D202573000D0A56657269667978
:103E2000207374617475733A092564203D202573ED
:103E300000537769746368206F6E207570646174D5
:103E4000657300676574706F7300626F6F7400252F
:103E50002A732578000D0A53657276657220737493
:103E60006F707065640D0A0025303858000000003E
:103E7000903E000800000020C0010000600F000814
:103E8000F83E0008C001002030160000222F000874
:103E900001FF3142020515FFFFFFFF338148551C2A
:103EA0000100204203420855500100204202420A0C
:103EB00055520100204202420A349C00A64905EAFC
:103EC0000643545631322610000100010F3343548B
:103ED000563132204163747561746F722D01001C7C
:103EE00039000810390008EC0F1E20D0020020789D
:083EF000070020780700200004
:04000005080000C12E
:00000001FF
