:020000040800F2
:1000000000000824D52C000801290008092900084F
:100010001129000819290008212900080000000002
:100020000000000000000000000000002929000876
:10003000372900080000000045290008532900085E
:10004000252D0008252D0008252D0008252D000848
:10005000252D00085F290008252D0008252D000802
:10006000252D0008252D0008252D00086D290008E4
:100070008129000895290008252D0008252D000854
:10008000252D0008252D0008A9290008252D000888
:10009000252D0008252D0008252D0008252D0008F8
:1000A000252D0008252D0008252D0008252D0008E8
:1000B000BD290008252D0008252D0008252D000844
:1000C000252D0008252D0008252D0008252D0008C8
:1000D000252D0008252D0008252D0008252D0008B8
:1000E000252D0008252D000800000000252D000802
:1000F000D1290008252D0008252D0008252D0008F0
:10010000252D0008252D0008252D0008252D000887
:10011000252D0008252D0008252D0008E5290008BB
:10012000252D0008252D0008252D0008252D000867
:10013000252D0008252D0008252D0008252D000857
:1001400000000000000000000000000000000000AF
:10015000252D0008252D0008252D0008252D000837
:10016000252D0008252D0008252D0008252D000827
:10017000252D0008252D0008252D00080000000071
:10018000252D0008252D0008252D0008252D000807
:10019000252D0008252D0008252D0008252D0008F7
:1001A000252D0008252D0008252D0008252D0008E7
:1001B000252D0008252D0008252D0008252D0008D7
:1001C000252D0008252D0008252D0008252D0008C7
:1001D000252D0008252D0008252D0008252D0008B7
:1001E000252D0008252D0008252D0008252D0008A7
:1001F000252D0008252D0008252D0008252D000897
:10020000252D0008252D0008252D0008252D000886
:10021000252D0008092A00081D2A0008252D0008A0
:10022000252D0008252D0008252D000800000000C0
:10023000252D0008252D000800000000252D0008B0
:10024000252D0008252D0008252D0008252D000846
:10025000252D0008252D0008252D0008252D000836
:10026000252D0008252D0008252D0008252D000826
:10027000252D0008252D0008252D00080000000070
:10028000252D0008252D0008252D00080000000060
:0802900000000000252D00080C
:1002A00010B5054C237833B9044B13B10448AFF3B0
:1002B00000800123237010BDF8010024000000001D
:1002C00090C2010808B5034B1BB103490348AFF3C3
:1002D000008008BD00000000FC01002490C201085D
:1002E00001F0FF01102A2BDB10F0070F08D010F8E7
:1002F000013B013A8B422DD010F0070F42B3F6D1EB
:10030000F0B441EA012141EA014122F007047FF003
:1003100000070023F0E80256083C85EA010586EA5A
:10032000010685FA47F5A3FA87F586FA47F6A5FA96
:1003300087F68EB9EED1F0BC01F0FF0102F00702A2
:1003400032B110F8013B013A83EA010313B1F8D14D
:100350000020704701387047002D06BF354603382E
:10036000073815F0010F07D1013015F4807F02BF67
:10037000013015F4C03F0130F0BC0138704700BFB8
:10038000034613F8012B002AFBD1181A01387047D5
:1003900053B94AB9002908BF00281CBF4FF0FF31EC
:1003A0004FF0FF3000F06AB9ADF1080C6DE904CEF2
:1003B00000F006F8DDF804E0DDE9022304B0704740
:1003C0002DE9F047089D0C46002B4ED194468C45F4
:1003D0008646B2FA82F262D94AB1C2F12003914054
:1003E00020FA03F30CFA02FC194300FA02FE4FEA6A
:1003F0001C471FFA8CF6B1FBF7F44FEA1E4307FBCC
:10040000141143EA014304FB06F199420AD91CEB9B
:10041000030304F1FF3080F01281994240F20F8112
:10042000023C6344591A1FFA8EF3B1FBF7F007FB45
:10043000101143EA014300FB06F69E420AD91CEB69
:10044000030300F1FF3180F0FC809E4240F2F9800E
:10045000634402389B1B40EA044000211DB1D34095
:100460000022C5E90032BDE8F0878B4205D90DB105
:10047000C5E9000100210846F5E7B3FA83F1002938
:1004800046D1A34202D39042C0F0F080861A64EBBA
:1004900003030120002DE6D0C5E90063E3E7002A4D
:1004A00040F09080A1EB0C044FEA1C481FFA8CF737
:1004B0000121B4FBF8F64FEA1E4308FB164443EA59
:1004C000044307FB06F0984208D91CEB030306F12E
:1004D000FF3402D2984200F2CD8026461C1A1FFA41
:1004E0008EF3B4FBF8F008FB104443EA044300FB2E
:1004F00007F79F4208D91CEB030300F1FF3402D237
:100500009F4200F2B0802046DB1B40EA0640A5E790
:10051000C1F120068B4022FA06F71F4320FA06FCA1
:1005200004FA01F343EA0C03F44000FA01F8380C32
:100530004FEA1349B4FBF0FE1FFA87FC00FB1E4490
:1005400049EA04440EFB0CF9A14502FA01F20AD96A
:100550003C190EF1FF3A80F08480A14540F2818081
:10056000AEF1020E3C44A4EB09041FFA83F9B4FB7C
:10057000F0F300FB134449EA044403FB0CFCA445DC
:1005800007D93C1903F1FF3067D2A44565D9023B76
:100590003C4443EA0E40A0FB0293A4EB0C049C42B3
:1005A000CE469C4651D34ED055B1B8EB0E0364EB0A
:1005B0000C0404FA06F6CB401E43CC40C5E90064A7
:1005C000002150E7C2F1200320FA03F10CFA02FCEB
:1005D00024FA03F394400C434FEA1C4800FA02FE4D
:1005E0001FFA8CF7B3FBF8F008FB1031230C43EA39
:1005F000014300FB07F1994208D91CEB030300F10A
:10060000FF362CD299422AD9023863445B1AA4B22D
:10061000B3FBF8F108FB113344EA034401FB07F391
:10062000A34208D91CEB040401F1FF3613D2A34204
:1006300011D902396444E41A41EA004139E7044619
:10064000F0E6084606E7C845AED2B9EB020E63EB0A
:10065000070C0138A8E73146EDE7034699E7304635
:10066000D4E7D6467FE7634402384DE70646234683
:1006700008460FE7023E634430E700BF704700BF03
:10068000F0B5ADF5875D85B02AAF17F063FE0123A5
:1006900000932023D44AD549012017F011FE02F01F
:1006A00043FB00F07DFE01F011FC01F0DFFB00F0E8
:1006B0002DFF01F009F801F0B3F801F029F901F07C
:1006C00043FA01F05FFB01F083FB01F033FB01F023
:1006D00077F901F0F9F901F0E3FA00F0B5FF3C23F6
:1006E00041F243023A441370192341F242023A4460
:1006F000137041F243033B441A7813461B049B1AC0
:10070000BB4A82FB03125211DB17D21AB94BDA63D0
:1007100041F242033B441A7813461B049B1AB44A25
:1007200082FB03125211DB17D21AB24B1A64B24A7F
:1007300007F57F6392E8030083E80300AF4A07F6FA
:10074000E87392E8030083E80300AD4A07F57E638F
:1007500092E8030083E80300AA4A07F6D87392E8F8
:10076000030083E80300A84A07F6B87392E8030081
:1007700083E80300A54A07F57B6392E8030083E85A
:100780000300A34A07F6A87392E8030083E8030076
:10079000A04A07F57A6392E8030083E803009E4AC3
:1007A00007F6987392E8030083E803009B4A07F575
:1007B000796392E8030083E8030041F238033B4485
:1007C0000122974918460FF057FD07F581539FED19
:1007D0007A0B944918460FF0CDFE41F20C003844D4
:1007E00007F6E873019307F57F6300930C23042257
:1007F0008D4911F04BF807F6F87007F6D87301939E
:1008000007F57E6300930C230422884911F03EF81B
:1008100041F20C023A4407F6F87107F57C604FF498
:10082000006311F0ADF907F57A6107F67C703223A9
:10083000192211F042FB07F6987107F6687032230F
:10084000192211F03AFB07F5796107F6547032234B
:10085000192211F032FB764C07F64C75754A16AB2F
:1008600011464C22184619F00AF8684604F10C03A8
:100870005822194619F003F894E80E0028460FF0A4
:10088000DFFC07F6A87207F574631146184616F0E8
:100890003BFE07F54D73684A684918460FF07CFB2C
:1008A00041F23800384407F1500207F54D7107F660
:1008B0004C73049307F57463039307F65473029320
:1008C00007F66873019307F67C73009303465C4850
:1008D00011F06AFB5A4815F079FB594815F0C2FB34
:1008E000574BB3F89F309BB207EE903AB8EE676B68
:1008F000534B5B689FED325B86EE057B83ED1E7B81
:100900004F4BB3F8A1309BB207EE903AB8EE676B4D
:100910004B4B5B689FED2A5B86EE057B83ED207B6E
:10092000474B93F86130022B40F04A81444B002240
:1009300083F81C21424B03F5B06319464FF00002C7
:10094000404BC1E900233E4B03F5AE6319461EA39D
:10095000D3E90023C1E90023394B03F5B0631946FD
:100960001BA3D3E9002341E90223354B03F5B2630E
:10097000194619A3D3E9002341E90223304B03F5BB
:10098000B26319464FF000022F4BC1E900232C4BF4
:1009900003F5B06393ED007B9FED116B86EE075B73
:1009A000274B03F5AE6393ED006B85EE067B41F2BA
:1009B00030034BE0AFF300800000000000000000B7
:1009C00000000000000059407E8AE3C06918C14061
:1009D0007429AEAAAAAAF0409A9999999999D93FEF
:1009E0000000000000006940400D0024A8C201087A
:1009F0001F85EB510008004010C3010818C301080F
:100A000020C3010828C3010830C3010838C3010806
:100A100040C3010848C3010850C3010858C3010876
:100A2000F002002490030024C004002444030024A6
:100A300014020024DC03002484060024F0050024B2
:100A4000A00700240000184000003E403B4483ED16
:100A5000007B07F6B87407F57B6207F5815107F153
:100A6000500007F57C630093B2EE0E0B23460FF0A7
:100A70002EFEC94E07F1500CC84B08AC1D460FCDD9
:100A80000FC495E80F0084E80F006D4606F10804D6
:100A90000FCC0FC594E80F0085E80F0096E80C0016
:100AA000604610F023FB07F57F6318460FF0D8FD72
:100AB00007F6E87318460FF0D3FD07F57E63184676
:100AC0000FF0CEFD07F6D87318460FF0C9FDB449F4
:100AD000D1F81920D1F81D30B24911440B431ED072
:100AE000AF4B2033073B002242F047021A7000222E
:100AF00042F04E025A70002242F04D029A700022DB
:100B000042F03102DA7000221A7100225A7100227A
:100B10009A710022DA71A24B012283F83C2507F179
:100B20004803A14AA3F10C0415460FCD0FC42B684E
:100B30002370002341F247023A4413702AE041F245
:100B400047033B441B78102B12D841F247033B4428
:100B50001A7841F247033B441B7807F148010A44E5
:100B600012F80C1C8E4A13440A4683F8272008E02A
:100B700041F247033B441B78894A1344002283F81F
:100B8000272041F247033B441B78013341F24702DF
:100B90003A44137041F247033B441B782F2BCED9C4
:100BA0007F4B022283F861207D4B002283F8622074
:100BB000022017F0D5FB7D49002017F093FF2BE3AF
:100BC000774B93F86130032B40F02481744B012262
:100BD00083F81C21724B03F5B063194664A3D3E973
:100BE0000023C1E900236E4B03F5AE63194662A3EF
:100BF000D3E90023C1E90023694B03F5B06319462B
:100C00005FA3D3E9002341E90223654B03F5B263F7
:100C100019465DA3D3E9002341E90223604B03F5A4
:100C2000B26319464FF00002614BC1E900235C4BEF
:100C300003F5B06393ED007B9FED556B86EE075B8C
:100C4000574B03F5AE6393ED006B85EE067B41F2E7
:100C500030033B4483ED007B07F6B87407F57B62F5
:100C600007F5815107F1500007F57C630093B3EE5F
:100C7000080B23460FF02BFD4E4E07F1500C4E4B48
:100C800008AC1D460FCD0FC495E80F0084E80F0097
:100C90006D4606F108040FCC0FC594E80F0085E8F7
:100CA0000F0096E80C00604610F020FA07F57F630D
:100CB00018460FF0C4FC07F6E87318460FF0BFFCA7
:100CC00007F57E6318460FF0BAFC07F6D87318468E
:100CD0000FF0B5FC3249D1F81920D1F81D30374951
:100CE00011440B431AD02E4B2033073B002242F015
:100CF00047021A70002242F04E025A70002242F05F
:100D00004D029A70002242F03202DA7000221A710B
:100D100000225A7100229A710022DA7107F1480309
:100D2000274AA3F1200415460FCD0FC42B6823805A
:100D3000002341F246023A44137055E041F2460363
:100D40003B441B78112B3DD841F246033B441A78B3
:100D500041F246033B441B7807F148010A4412F86C
:100D6000201C0F4A13440A4683F8272033E000BFB3
:100D7000D49E92736227164047C9AB732269D14053
:100D800005A8A9E5380EF2409A9999999999C93F11
:100D90000000000000006940C0CD010838CE010805
:100DA000A0070024B9B1B2CE60C30108ACC20108EB
:100DB00000004940E8CD010858CE0108B9B1B2CDD4
:100DC00074C3010841F246033B441B789C4A134418
:100DD000002283F8272041F246033B441B7801336D
:100DE00041F246023A44137041F246033B441B78F9
:100DF0002F2BA3D9924B032283F86120904B002222
:100E000083F86220022017F0ABFA8E49002017F019
:100E100069FE01E28A4B93F86130042B40F0208197
:100E2000874B022283F81C21854B03F5B0631946DA
:100E300079A3D3E90023C1E90023814B03F5AE6315
:100E4000194677A3D3E90023C1E900237C4B03F5BE
:100E5000B063194674A3D3E9002341E90223784B18
:100E600003F5B263194672A3D3E9002341E90223D3
:100E7000734B03F5B26319464FF00002724BC1E9A0
:100E800000236F4B03F5B06393ED007B9FED6A6B1E
:100E900086EE075B6A4B03F5AE6393ED006B85EE60
:100EA000067B41F230033B4483ED007B07F6B874C8
:100EB00007F57B6207F5815107F1500007F57C6368
:100EC0000093B3EE080B23460FF001FC5F4E07F1D1
:100ED000500C5F4B08AC1D460FCD0FC495E80F00BA
:100EE00084E80F006D4606F108040FCC0FC594E8A6
:100EF0000F0085E80F0096E80C00604610F0F6F849
:100F000007F57F6318460FF09AFB07F6E87318465B
:100F10000FF095FB07F57E6318460FF090FB07F680
:100F2000D87318460FF08BFB4549D1F81920D1F83A
:100F30001D30484911440B431AD0414B2033073B25
:100F4000002242F047021A70002242F04E025A700C
:100F5000002242F04D029A70002242F03302DA7011
:100F600000221A7100225A7100229A710022DA714D
:100F700007F14803384AA3F1340415460FCD0FC4D6
:100F80002B682370002341F245023A4413702AE093
:100F900041F245033B441B78102B12D841F2450324
:100FA0003B441A7841F245033B441B7807F1480162
:100FB0000A4412F8341C224A13440A4683F82720B4
:100FC00008E041F245033B441B781D4A13440022CC
:100FD00083F8272041F245033B441B78013341F25B
:100FE00045023A44137041F245033B441B782F2BD2
:100FF000CED9134B042283F86120114B002283F8D1
:101000006220022017F0ACF91449002017F06AFDA5
:1010100002E100BFAFF30080997E2EBF782B0B401A
:1010200019C5724B25B3DA40EC51B81EC771FD40AB
:101030009A9999999999C93F000000000000694068
:10104000A0070024C0C201080000494010CE0108DA
:1010500078CE0108B9B1B2CC88C30108D4C2010866
:10106000022017F07DF9BA49002017F03BFDB94B7B
:10107000022283F81C21B74B03F5B06319464FF0E9
:101080000002B54BC1E90023B24B03F5AE6319462C
:10109000A7A3D3E90023C1E90023AE4B03F5B06356
:1010A0001946A5A3D3E9002341E90223A94B03F57F
:1010B000B2631946A2A3D3E9002341E90223A54B59
:1010C00003F5B26319464FF00002A44BC1E90023B7
:1010D000A04B03F5B06393ED007B9FED9B6B86EE19
:1010E000075B9C4B03F5AE6393ED006B85EE067BCF
:1010F00041F230033B4483ED007B9649D1F819203F
:10110000D1F81D30964911440B431ED0914B20332A
:10111000073B002242F047021A70002242F04E02C2
:101120005A70002242F04D029A70002242F03002C2
:10113000DA7000221A7100225A7100229A7100227C
:10114000DA71844B012283F83C2507F14803854A74
:10115000A3F1480415460FCD0FC42B681A46228010
:1011600002341B0C2370002341F244023A441370F2
:101170002AE041F244033B441B78122B12D841F27F
:1011800044033B441A7841F244033B441B7807F183
:1011900048010A4412F8481C6E4A13440A4683F870
:1011A000272008E041F244033B441B78694A13447A
:1011B000002283F8272041F244033B441B7801338B
:1011C00041F244023A44137041F244033B441B7819
:1011D0002F2BCED95F4B002283F861205D4B00227C
:1011E00083F862205B4B002283F82021594B0222B6
:1011F00083F82121574B052283F82221554B59684A
:101200004FF00002584BC1E92023022017F0A8F844
:101210005649002017F066FC4E4BD3F82330544A51
:10122000934214D04B4B002242F0030283F8232058
:10123000002283F82420002242F0010283F82520B6
:10124000002283F82620434B012283F83C25414BA2
:10125000B3F863309BB2032B0CD03E4B002242F01C
:10126000030283F86320002283F86420394B0122B3
:1012700083F83C25374BB3F821309BB2102B0CD0B0
:10128000344B002242F0100283F82120002283F820
:101290002220304B012283F83C252E4BB3F86730D7
:1012A0009BB2012B0CD02B4B002242F0010283F8A1
:1012B0006720002283F86820264B012283F83C2512
:1012C000244B93F86130022B09D0224B93F8613004
:1012D000032B04D01F4B93F86130042B12D107F578
:1012E0007C63184610F06EFC22480AF0BBFB41F20A
:1012F00048033B44A3F6F8731B681B681B68002275
:101300005A6203E0134810F0F3FEFBE707F15003C5
:1013100018460FF0D4FD00BF0421174805F0F8FE71
:101320000346012BF8D00B4816F057FA29E000BF0E
:101330007E8AE3C06918C1407429AEAAAAAAF04007
:101340009A9999999999D93F000000000000694045
:10135000E8C20108A00700240000184000003E4039
:10136000B9B1B2CF9CC301080000E03FFCC2010844
:1013700003000100A405002400080258064810F0EC
:10138000B7FE0421054805F0C3FE0346002BF5D047
:10139000014816F037FAB9E7A00700240008025800
:1013A00080B59EB000AF07F12C034C2200211846F7
:1013B00018F0D5F907F10C0320220021184618F087
:1013C000CEF9022006F0FEFC0023BB604C4BDB6A2A
:1013D0004B4A23F00103D362494BDB6A03F001035C
:1013E000BB60484B9B69474A43F440439361454B7C
:1013F0009B6903F44043BB60BB6800BF414B9B69E2
:1014000003F40053B3F5005FF8D13F4BD3F8F43049
:101410003D4A43F00203C2F8F4303B4BD3F8F430BA
:1014200003F002037B607B6800233B60354B9B69C4
:10143000344A43F440439361324B9B6903F4404385
:101440003B602F4BDB6A2E4A43F00103D3622C4BE7
:10145000DB6A03F001033B603B6800BF294B9B69DB
:1014600003F40053B3F5005FF8D10123FB624FF49E
:1014700080333B6302233B6502237B650123BB650D
:101480001923FB6502233B6602237B660223BB66AE
:101490000C23FB6600233B6700237B6707F12C03CB
:1014A000184606F0C9FC0346002B01D000F028FEC8
:1014B0003F23FB6003233B6100237B610023BB616F
:1014C0004023FB6140233B624FF480637B624023F7
:1014D000BB6207F10C030221184607F007F9034627
:1014E000002B01D000F00CFE4FF480224FF440019D
:1014F000002007F0B1FA00BF7837BD4680BD00BFBD
:1015000000040058004802580044025880B58AB0D0
:1015100000AF07F11C0300221A605A609A603B4634
:1015200000221A605A609A60DA601A615A619A6100
:10153000404B414A1A603F4B4FF400325A603D4BDA
:1015400000229A603B4B0122DA603A4B08221A6172
:10155000384B00221A75374B00225A75354B03223F
:101560009A61344B01221A77324B01221A62314BB5
:101570004FF490625A622F4B4FF480629A622D4B67
:101580000322DA622B4B00221A632A4B00225A6391
:10159000284B002283F83820264801F08FFE0346AE
:1015A000002B01D000F0ACFD0023FB6107F11C0310
:1015B0001946204803F01CF90346002B01D000F027
:1015C0009FFD1E4B3B6006237B600223BB6040F205
:1015D000FF73FB6004233B6100237B6100237B7668
:1015E0003B461946134802F031FB0346002B01D05D
:1015F00000F086FD124B3B600C237B603B46194696
:101600000C4802F023FB0346002B01D000F078FDCC
:101610000C4B3B6012237B603B461946054802F0A9
:1016200015FB0346002B01D000F06AFD00BF2837F0
:10163000BD4680BD14020024002002400004002AA0
:101640000008302E1000C01080B500AF1B4B1C4AA4
:101650001A601A4B1B4A5A60184B00229A60174BAB
:101660000122DA60154B00221A61144B00225A61E4
:10167000124B00229A61114B0022DA610F4B0022BB
:101680001A620E4805F090FD0346002B01D000F0D1
:1016900037FD0021094806F0FDFA0346002B01D072
:1016A00000F02EFD0021054806F03FFB0346002B0D
:1016B00001D000F025FD00BF80BD00BFF002002476
:1016C000001C0058FFECC01080B596B000AF07F1C9
:1016D0004C0300221A605A609A6007F1300300221E
:1016E0001A605A609A60DA601A615A619A613B1D09
:1016F0002C220021184618F032F8474B474A1A604E
:10170000454B00225A60444B00229A60424B4FF4F2
:10171000FA52DA60404B00221A613F4B00225A61B4
:101720003D4B00229A613C480AF09AFA0346002B8E
:1017300001D000F0E5FC0023FB6400233B6500239F
:101740007B6507F14C03194633480CF03DF803461E
:10175000002B01D000F0D4FC60233B6300237B63AB
:101760000023BB630023FB6304233B6400237B64EF
:101770000023BB6407F130030422194626480BF00E
:1017800091F80346002B01D000F0BAFC224B1B68F5
:101790009A69214B1B6822F400629A6107F13003B9
:1017A0000C2219461C480BF07DF80346002B01D093
:1017B00000F0A6FC184B1B68DA69174B1B6822F473
:1017C0000062DA6100237B600023BB600023FB60C2
:1017D00000233B6100237B614FF40053BB61002376
:1017E000FB6100233B624FF000737B620023BB620E
:1017F0000023FB623B1D194607480CF073F80346B3
:10180000002B01D000F07CFC034800F0F3FE00BF89
:101810005837BD4680BD00BF44030024000001408E
:1018200080B590B000AF07F11C03242200211846B8
:1018300017F095FF07F1100300221A605A609A60B2
:101840003B4600221A605A609A60DA602F4B4FF0D4
:1018500080421A602D4B00225A602C4B00229A6065
:101860002A4B4FF0FF32DA60284B00221A61274BD7
:1018700000229A6125480AF0EFFB0346002B01D0B5
:1018800000F03EFC0323FB6100233B6201237B62EB
:101890000023BB620023FB6200233B6301237B63C5
:1018A0000023BB630023FB6307F11C0319461748A1
:1018B0000AF084FC0346002B01D000F021FC002339
:1018C0003B610023BB6107F1100319460F480BF081
:1018D0007BFF0346002B01D000F012FC00233B608D
:1018E00001237B600023BB600023FB603B46082292
:1018F000194606480AF03AFF0346002B01D000F0D3
:10190000FFFB00BF4037BD4680BD00BF90030024F1
:1019100080B58AB000AF07F11C0300221A605A603C
:101920009A603B4600221A605A609A60DA601A6137
:101930005A619A61204B214A1A601F4B4FF496520C
:101940005A601D4B00229A601B4B4FF4FA72DA600A
:10195000194B00221A61184B80229A6116480AF02E
:1019600028F90346002B01D000F0CAFB2023FB61BD
:1019700000237B6207F11C0319460F480BF024FF7C
:101980000346002B01D000F0BBFB00233B6000238B
:101990007B600023BB6000233B613B46002219466D
:1019A00005480AF069FE0346002B01D000F0A8FBB1
:1019B00000BF2837BD4680BDDC0300240004004082
:1019C00080B58EB000AF07F1280300221A605A607C
:1019D0009A60DA6007F11C0300221A605A609A606C
:1019E0003B4600221A605A609A60DA601A615A61B6
:1019F0009A61334B334A1A60314B00225A60304BA4
:101A000000229A602E4B4FF6FF72DA602C4B0022B8
:101A10001A612B4B00229A61294809F05BFF0346AB
:101A2000002B01D000F06CFB4FF48053BB6207F138
:101A30002803194622480BF049F80346002B01D031
:101A400000F05EFB1E480AF00BF90346002B01D0A4
:101A500000F056FB0023FB6100237B6207F11C03AF
:101A6000194617480BF0B0FE0346002B01D000F0DA
:101A700047FB60233B604FF4FA737B600023BB603D
:101A800000233B613B46082219460D480AF00AFF35
:101A90000346002B01D000F033FB3B460C221946D5
:101AA00007480AF0FFFE0346002B01D000F028FB98
:101AB000034800F09FFD00BF3837BD4680BD00BF22
:101AC000280400240008004080B584B000AF3B1D0E
:101AD00000221A605A609A60194B1A4A1A60184B11
:101AE00064225A60164B00229A60154B4FF6FF7223
:101AF000DA60134B00229A61114809F0EBFE0346AD
:101B0000002B01D000F0FCFA08210D480AF0FBFA86
:101B10000346002B01D000F0F3FA00237B60002382
:101B2000FB603B1D194606480BF04EFE0346002B9A
:101B300001D000F0E5FA00BF1037BD4680BD00BF00
:101B4000740400240014004080B596B000AF07F183
:101B50004C0300221A605A609A6007F13003002299
:101B60001A605A609A60DA601A615A619A613B1D84
:101B70002C220021184617F0F2FD474B474A1A6005
:101B8000454B00225A60444B00229A60424B4FF46E
:101B9000FA52DA60404B00221A613F4B00225A6130
:101BA0003D4B00229A613C480AF05AF80346002B4C
:101BB00001D000F0A5FA0023FB6400233B6500235D
:101BC0007B6507F14C03194633480BF0FDFD0346D6
:101BD000002B01D000F094FA60233B6300237B6369
:101BE0000023BB630023FB6304233B6400237B646B
:101BF0000023BB6407F130030422194626480AF08B
:101C000051FE0346002B01D000F07AFA224B1B68EC
:101C10009A69214B1B6822F400629A6107F1300334
:101C20000C2219461C480AF03DFE0346002B01D049
:101C300000F066FA184B1B68DA69174B1B6822F430
:101C40000062DA6100237B600023BB600023FB603D
:101C500000233B6100237B614FF40053BB610023F1
:101C6000FB6100233B624FF000737B620023BB6289
:101C70000023FB623B1D194607480BF033FE034669
:101C8000002B01D000F03CFA034800F0B3FC00BF89
:101C90005837BD4680BD00BFC00400240004014089
:101CA00080B588B000AF3B1D00221A605A609A6070
:101CB000DA601A615A619A611C4B1D4A1A601B4B0B
:101CC00000225A60194B00229A60184B4FF6FF729F
:101CD000DA60164B00221A61144B00229A611348F5
:101CE00009F0F8FD0346002B01D000F009FA0F4877
:101CF00009F05FFF0346002B01D000F001FA00233A
:101D00007B600023BB600023FB6000237B613B1DE5
:101D10000022194605480AF0AFFC0346002B01D00B
:101D200000F0EEF900BF2037BD4680BD0C05002451
:101D30000020004080B500AF104B114A1A600F4BD5
:101D40004FF47A725A600D4B00229A600B4B44F6A6
:101D50002062DA60094B00221A61084B00225A61A6
:101D6000064B80229A61054809F0B4FD0346002B1A
:101D700001D000F0C5F900BF80BD00BF58050024A8
:101D80000044014080B500AF0F4B104A1A600E4B63
:101D900000225A600C4B00229A600B4B44F62062E2
:101DA000DA60094B00221A61074B00225A61064B88
:101DB00000229A61044809F08DFD0346002B01D0F2
:101DC00000F09EF900BF80BDA4050024004801403A
:101DD00080B500AF234B244A1A60224B4FF4E13206
:101DE0005A60204B00229A601E4B0022DA601D4B85
:101DF00000221A611B4B0C225A611A4B4FF440729D
:101E00009A61184B0022DA61164B00221A62154BB8
:101E100000225A62134B00229A6212480BF0FEFD18
:101E20000346002B01D000F06BF900210D480DF0A6
:101E3000DFF80346002B01D000F062F900210948C9
:101E40000DF014F90346002B01D000F059F90548B4
:101E50000DF095F80346002B01D000F051F900BFBA
:101E600080BD00BFF00500240044004080B582B072
:101E700000AF154BD3F8D830134A43F00103C2F832
:101E8000D830114BD3F8D83003F001037B607B6866
:101E9000002200210B2002F07AFE0B2002F091FEBE
:101EA000002200210C2002F072FE0C2002F089FEBC
:101EB000002200210D2002F06AFE0D2002F081FEBA
:101EC00000BF0837BD4680BD0044025880B58CB0C5
:101ED00000AF07F11C0300221A605A609A60DA60B2
:101EE0001A617C4BD3F8E0307A4A43F01003C2F811
:101EF000E030784BD3F8E03003F01003BB61BB69EE
:101F0000744BD3F8E030734A43F08003C2F8E030FA
:101F1000704BD3F8E03003F080037B617B696D4B3D
:101F2000D3F8E0306B4A43F00403C2F8E030694B69
:101F3000D3F8E03003F004033B613B69654BD3F811
:101F4000E030644A43F00103C2F8E030614BD3F85B
:101F5000E03003F00103FB60FB685E4BD3F8E03038
:101F60005C4A43F00203C2F8E0305A4BD3F8E03049
:101F700003F00203BB60BB68564BD3F8E030554A10
:101F800043F00803C2F8E030524BD3F8E03003F0DE
:101F900008037B607B68002242F298214E4805F0DE
:101FA000CFF801224FF480414C4805F0C9F80022D7
:101FB0004FF4A0714A4805F0C3F86423FB61002385
:101FC0003B6200237B6207F11C031946424804F080
:101FD000EFFE42F29823FB6101233B6200237B6208
:101FE0000023BB6207F11C0319463B4804F0E0FEE6
:101FF0000423FB6100233B6200237B6207F11C0387
:102000001946374804F0D4FE0123FB6100233B62EC
:1020100000237B6207F11C031946324804F0C8FE16
:102020004FF4C053FB6100233B6200237B6207F146
:102030001C031946294804F0BBFE4FF48043FB61A2
:1020400001233B6201237B620023BB6207F11C0377
:102050001946224804F0ACFE4FF4A073FB61012343
:102060003B6200237B620023BB6207F11C0319461D
:102070001B4804F09DFE4FF48073FB6102233B621A
:1020800000237B620023BB620023FB6207F11C0379
:102090001946144804F08CFE4FF44063FB610023A2
:1020A0003B6201237B6207F11C0319460C4804F0D4
:1020B0007FFE0723FB6100233B6201237B6207F164
:1020C0001C031946084804F073FE00BF3037BD46B4
:1020D00080BD00BF0044025800100258000402589E
:1020E0000008025800000258000C025880B483B067
:1020F00000AF786000BF0C37BD465DF8047B7047C9
:1021000080B400AF72B600BF00BFFDE780B582B0FB
:1021100000AF0D4BD3F8F4300B4A43F00203C2F882
:10212000F430094BD3F8F43003F002037B607B6892
:1021300000220021052002F02AFD052002F041FDC9
:1021400000BF0837BD4680BD0044025880B58AB044
:1021500000AF786007F1140300221A605A609A6099
:10216000DA601A617B681B68344A934261D1344B50
:10217000D3F8D830324A43F02003C2F8D830304B7D
:10218000D3F8D83003F020033B613B692C4BD3F8E4
:10219000E0302B4A43F00403C2F8E030284BD3F878
:1021A000E03003F00403FB60FB6813237B6103232F
:1021B000BB610023FB6107F114031946214804F0B9
:1021C000F7FD214B214A1A601F4B09225A601E4B12
:1021D00000229A601C4B0022DA601B4B4FF4806295
:1021E0001A61194B4FF400625A61174B4FF40052B9
:1021F0009A61154B4FF48072DA61134B00221A6218
:10220000114B00225A62104802F0FAFC0346002BE0
:1022100001D0FFF775FF7B680B4ADA640A4A7B68D6
:10222000936300220021122002F0B1FC122002F080
:10223000C8FC00BF2837BD4680BD00BF002002405B
:10224000004402580008025878020024100002409E
:1022500080B5BAB000AF786007F1D40300221A60ED
:102260005A609A60DA601A6107F11003C0220021F7
:10227000184617F074FA7B681B68274A934246D1C8
:102280004FF010024FF00003C7E904230023C7F802
:10229000A83007F11003184606F01EFE0346002B77
:1022A00001D0FFF72DFF1D4BD3F8E0301B4A43F060
:1022B0000803C2F8E030194BD3F8E03003F008030C
:1022C000FB60FB684FF44053C7F8D4301223C7F8C3
:1022D000D8300023C7F8DC300023C7F8E0300423EF
:1022E000C7F8E43007F1D40319460D4804F060FD47
:1022F0000A4BD3F8F430094A43F08003C2F8F430B3
:10230000064BD3F8F43003F08003BB60BB6800BF1A
:10231000E837BD4680BD00BF001C0058004402588D
:10232000000C025880B584B000AF78607B681B68F1
:10233000194A93420FD1194BD3F8F030174A43F0A2
:102340000103C2F8F030154BD3F8F03003F001036D
:10235000FB60FB681BE07B681B68114A934216D147
:102360000E4BD3F8F0300D4A43F00203C2F8F030C0
:102370000A4BD3F8F03003F00203BB60BB680022C5
:1023800000212C2002F003FC2C2002F01AFC00BFDC
:102390001037BD4680BD00BF000001400044025818
:1023A0000004014080B58AB000AF786007F11403E3
:1023B00000221A605A609A60DA601A617B681B68B2
:1023C000B3F1804F55D12D4BD3F8E8302B4A43F071
:1023D0000103C2F8E830294BD3F8E83003F00103D9
:1023E0003B613B69254BD3F8E030244A43F00103BD
:1023F000C2F8E030214BD3F8E03003F00103FB607A
:10240000FB681E4BD3F8E0301C4A43F00203C2F8CD
:10241000E0301A4BD3F8E03003F00203BB60BB6836
:1024200022237B610223BB610023FB6100233B620B
:1024300001237B6207F114031946114804F0B8FC2C
:102440004FF480637B610223BB610023FB610023A7
:102450003B6201237B6207F114031946094804F02B
:10246000A7FC002200211C2002F091FB1C2002F09E
:10247000A8FB00BF2837BD4680BD00BF00440258FE
:10248000000002580004025880B485B000AF7860A4
:102490007B681B680B4A93420ED10B4BD3F8E83094
:1024A000094A43F00203C2F8E830074BD3F8E8309A
:1024B00003F00203FB60FB6800BF1437BD465DF804
:1024C000047B7047000400400044025880B588B087
:1024D00000AF78607B681B68404A93420FD1404B45
:1024E000D3F8E8303E4A43F00403C2F8E8303C4BEE
:1024F000D3F8E83003F00403FB61FB696AE07B6812
:102500001B68384A934217D1354BD3F8E830344A28
:1025100043F02003C2F8E830314BD3F8E83003F041
:102520002003BB61BB6900220021372002F02FFB92
:10253000372002F046FB4DE07B681B682A4A934235
:102540000FD1274BD3F8E830254A43F48073C2F803
:10255000E830234BD3F8E83003F480737B617B6968
:1025600038E07B681B68214A934217D11C4BD3F893
:10257000F0301B4A43F40033C2F8F030184BD3F864
:10258000F03003F400333B613B69002200217520E9
:1025900002F0FDFA752002F014FB1BE07B681B685B
:1025A000134A934216D10E4BD3F8F0300C4A43F441
:1025B0008023C2F8F0300A4BD3F8F03003F48023C4
:1025C000FB60FB6800220021762002F0E0FA762012
:1025D00002F0F7FA00BF2037BD4680BD000800407A
:1025E0000044025800140040002000400044014014
:1025F0000048014080B58AB000AF786007F114034D
:1026000000221A605A609A60DA601A617B681B685F
:10261000394A934220D1394BD3F8E030374A43F05E
:102620001003C2F8E030354BD3F8E03003F010036C
:102630003B613B694FF490437B610223BB61002304
:10264000FB6100233B6201237B6207F114031946FF
:102650002B4804F0ADFB4AE07B681B68294A934293
:1026600020D1264BD3F8E030244A43F00203C2F8CD
:10267000E030224BD3F8E03003F00203FB60FB684C
:102680004FF440737B610223BB610023FB61002395
:102690003B6202237B6207F1140319461A4804F0D7
:1026A00087FB24E07B681B68184A93421FD1134BB9
:1026B000D3F8E030114A43F00403C2F8E0300F4B86
:1026C000D3F8E03003F00403BB60BB684FF4207321
:1026D0007B610223BB610023FB6100233B62032378
:1026E0007B6207F114031946094804F061FB00BF3F
:1026F0002837BD4680BD00BF00000140004402589D
:102700000010025800080040000402580004014074
:102710000008025880B5BCB000AF786007F1DC0358
:1027200000221A605A609A60DA601A6107F1180391
:10273000C0220021184617F012F87B681B68684A0F
:10274000934240F0C8804FF002024FF00003C7E907
:1027500006230023C7F8903007F11803184606F047
:10276000BBFB0346002B01D0FFF7CAFC5D4BD3F83F
:10277000E8305C4A43F40033C2F8E830594BD3F8F0
:10278000E83003F400337B617B69564BD3F8E030CB
:10279000544A43F00103C2F8E030524BD3F8E03022
:1027A00003F001033B613B694E4BD3F8E0304D4AE7
:1027B00043F00803C2F8E0304A4BD3F8E03003F0AE
:1027C0000803FB60FB680C23C7F8DC300223C7F862
:1027D000E0300023C7F8E4300023C7F8E8300723CF
:1027E000C7F8EC3007F1DC0319463F4804F0E0FA83
:1027F0001823C7F8DC300223C7F8E0300023C7F8FD
:10280000E4300023C7F8E8300723C7F8EC3007F1BD
:10281000DC031946354804F0CBFA354B354A1A60CB
:10282000334B2B225A60324B00229A60304B0022ED
:10283000DA602F4B4FF480621A612D4B00225A61EF
:102840002B4B00229A612A4B4FF48072DA61284B9D
:102850004FF400321A62264B00225A62244802F0DA
:10286000CFF90346002B01D0FFF74AFC7B68204AD2
:10287000C3F880201E4A7B6893631F4B1F4A1A606F
:102880001D4B2C225A601C4B40229A601A4B00228E
:10289000DA60194B4FF480621A61174B00225A61BB
:1028A000154B00229A61144B0022DA61124B4FF44F
:1028B00000321A62104B00225A620F4802F0A0F94F
:1028C0000346002B01D0FFF71BFC7B680A4ADA673E
:1028D000094A7B68936300BFF037BD4680BD00BFE7
:1028E000004400400044025800000258000C025806
:1028F0008406002440000240FC0600242800024018
:1029000080B400AF00BFFDE780B400AF00BFFDE7BB
:1029100080B400AF00BFFDE780B400AF00BFFDE7AB
:1029200080B400AF00BFFDE780B400AF00BFBD467C
:102930005DF8047B704780B400AF00BFBD465DF812
:10294000047B704780B400AF00BFBD465DF8047BD8
:10295000704780B500AF00F059FA00BF80BD80B469
:1029600000AF00BFBD465DF8047B704780B500AF87
:10297000024802F00BFF00BF80BD00BF78020024B8
:1029800080B500AF024802F001FF00BF80BD00BF6C
:10299000FC06002480B500AF024802F0F7FE00BF3D
:1029A00080BD00BF8406002480B500AF024800F05F
:1029B000EBFE00BF80BD00BF1402002480B500AF55
:1029C000024809F039FD00BF80BD00BF900300241C
:1029D00080B500AF024809F02FFD00BF80BD00BFE9
:1029E000C004002480B500AF054809F0B3F8082101
:1029F000044804F0BEFB024809F01EFD00BF80BD84
:102A0000740400240010025880B500AF024809F099
:102A100013FD00BF80BD00BF5805002480B500AF86
:102A200003480FF0B1FC034809F006FD00BF80BD6C
:102A3000A0070024A405002480B400AF0123184699
:102A4000BD465DF8047B704780B582B000AF78600A
:102A5000396016F0E7FE034616221A604FF0FF3386
:102A600018460837BD4680BD80B582B000AF78609B
:102A70004FF0FF317868FFF7E7FF00BFFDE780B553
:102A800086B000AFF860B9607A6000237B610AE02D
:102A9000AFF300800146BB685A1CBA60CAB21A7014
:102AA0007B6901337B617A697B689A42F0DB7B68E2
:102AB00018461837BD4680BD80B586B000AFF860B7
:102AC000B9607A6000237B6109E0BB685A1CBA6078
:102AD0001B781846AFF300807B6901337B617A690C
:102AE0007B689A42F1DB7B6818461837BD4680BD8B
:102AF00080B483B000AF78604FF0FF3318460C37D6
:102B0000BD465DF8047B704780B483B000AF786049
:102B100039603B684FF400525A60002318460C3766
:102B2000BD465DF8047B704780B483B000AF786029
:102B3000012318460C37BD465DF8047B704780B40E
:102B400085B000AFF860B9607A600023184614378A
:102B5000BD465DF8047B704780B586B000AF7860F5
:102B6000144A154BD31A7B617B693B61134B1B687D
:102B7000002B02D1114B124A1A60104B1A687B6865
:102B800013443A699A4207D216F04CFE03460C22CF
:102B90001A604FF0FF3309E0084B1B68FB60074BDE
:102BA0001A687B681344054A1360FB681846183797
:102BB000BD4680BD0000082400040000880E0024EB
:102BC000B814002480B400AF374BD3F88830364AAD
:102BD00043F47003C2F88830344B1B6803F00F03D2
:102BE000062B07D8314B1B6823F00F032F4A43F005
:102BF000070313602E4B1B682D4A43F0010313603B
:102C00002B4B00221A612A4B1A682949294B134081
:102C10000B60264B1B6803F00803002B07D0234BE7
:102C20001B6823F00F03214A43F007031360204B76
:102C300000229A611E4B0022DA611D4B00221A62AB
:102C40001B4B1D4A9A621A4B1C4ADA62184B1C4AEB
:102C50001A63174B00225A63154B194A9A63144B97
:102C60000022DA63124B164A1A64114B00225A648E
:102C70000F4B1B680E4A23F4802313600C4B002279
:102C80001A66104B1A68104B1340B3F1005F02D262
:102C90000E4B01221A600E4B43F2D2021A6000BFA3
:102CA000BD465DF8047B704700ED00E00020005257
:102CB000004402587FEDF6EA000202020000FF0124
:102CC000800201010010005C0000FFFF088100513C
:102CD00000400052DFF834D0FFF774FF0C480D4974
:102CE0000D4A002302E0D458C4500433C4188C4267
:102CF000F9D30A4A0A4C002301E013600432A242CD
:102D0000FBD316F095FDFDF7BBFC704700000824CF
:102D100000000024F801002418D40108F801002460
:102D2000B8140024FEE7000080B582B000AF032095
:102D300001F022FF05F0FAFE0246154B9B691B0AC3
:102D400003F00F031349CB5C03F01F0322FA03F3D4
:102D50007B600F4B9B6903F00F030E4AD35C03F0BB
:102D60001F037A6822FA03F30B4A13600B4A7B684D
:102D700013600F2000F014F80346002B01D001234C
:102D800002E0FFF7C3F9002318460837BD4680BDAF
:102D90000044025880CD01081400002410000024D3
:102DA00080B582B000AF7860154B1B78002B01D145
:102DB000012321E0134B1A68114B1B7819464FF47D
:102DC0007A73B3FBF1F3B2FBF3F3184601F00BFF98
:102DD0000346002B01D001230EE07B680F2B0AD89D
:102DE000002279684FF0FF3001F0D1FE064A7B687F
:102DF0001360002300E0012318460837BD4680BD5C
:102E00001C000024100000241800002480B400AF2F
:102E1000064B1B781A46064B1B681344044A136082
:102E200000BFBD465DF8047B704700BF1C00002456
:102E30008C0E002480B400AF034B1B681846BD46BF
:102E40005DF8047B704700BF8C0E002480B584B011
:102E500000AF7860FFF7EEFFB8607B68FB60FB684F
:102E6000B3F1FF3F05D00A4B1B781A46FB681344A9
:102E7000FB6000BFFFF7DEFF0246BB68D31AFA68AB
:102E80009A42F7D800BF00BF1037BD4680BD00BFD3
:102E90001C00002480B400AF034B1B681B0C1846B9
:102EA000BD465DF8047B70470010005C80B483B0C1
:102EB00000AF786039607B689B6823F47C123B68C4
:102EC0001A437B689A6000BF0C37BD465DF8047BEF
:102ED000704780B483B000AF786039607B689B68CE
:102EE00023F0E0723B681A437B689A6000BF0C379E
:102EF000BD465DF8047B704780B483B000AF786056
:102F00007B689B6803F0E07318460C37BD465DF89C
:102F1000047B704780B487B000AFF860B9607A6016
:102F20003B60FB6860331A46BB689B0013447B61BF
:102F30007B691B6803F000427B6803F0F8413B6843
:102F40000B431A437B691A6000BF1C37BD465DF80E
:102F5000047B704780B485B000AFF860B9607A60D8
:102F6000FB681B6923F4F042BB6803F01F03796818
:102F700001FA03F31A43FB681A6100BF1437BD4618
:102F80005DF8047B704780B487B000AFF860B9602B
:102F90007A60FB6860331A46BB689B0013447B6110
:102FA0007B691B6823F000427B681A437B691A60C7
:102FB00000BF1C37BD465DF8047B704780B483B00A
:102FC00000AF78607B68DB6803F44063002B01D1BD
:102FD000012300E0002318460C37BD465DF8047B52
:102FE000704780B487B000AFF860B9607A60FB6862
:102FF00030331A46BB681B0A9B0003F00C031344D2
:103000007B617B691A68BB6803F01F031F2101FA0B
:1030100003F3DB431A407B689B0E03F01F01BB6880
:1030200003F01F0301FA03F31A437B691A6000BF20
:103030001C37BD465DF8047B704780B483B000AF99
:10304000786039607B68DB6823F003023B681A43D1
:103050007B68DA6000BF0C37BD465DF8047B7047C3
:1030600080B483B000AF78607B68DB6C03F4C0731E
:10307000002B01D1012300E0002318460C37BD4688
:103080005DF8047B704780B487B000AFF860B9602A
:103090007A60FB6814331A46BB685B0E9B0003F032
:1030A000040313447B617B691A68BB681B0D03F042
:1030B0001F03072101FA03F3DB431A40BB681B0D12
:1030C00003F01F03796801FA03F31A437B691A605E
:1030D00000BF1C37BD465DF8047B704780B485B0E7
:1030E00000AFF860B9607A60FB68D3F8C020BB68B5
:1030F000C3F31303DB431A407B6803F0180308494A
:10310000D940BB680B40C3F313031A43FB68C3F8F1
:10311000C02000BF1437BD465DF8047B704700BF78
:10312000FFFF0F0080B483B000AF78607B689B68BE
:1031300003F01F0318460C37BD465DF8047B70474B
:1031400080B483B000AF78607B689B6803F4404331
:1031500018460C37BD465DF8047B704780B483B0D9
:1031600000AF78607B689A68044B13407A6893607C
:1031700000BF0C37BD465DF8047B7047C0FFFF5FA2
:1031800080B483B000AF78607B689B6803F0005325
:10319000B3F1005F01D1012300E0002318460C3792
:1031A000BD465DF8047B704780B483B000AF7860A3
:1031B0007B689A68054B134043F080527B689A60A5
:1031C00000BF0C37BD465DF8047B7047C0FFFF6F42
:1031D00080B483B000AF78607B689B6803F0805355
:1031E000B3F1805F01D1012300E0002318460C37C2
:1031F000BD465DF8047B704780B483B000AF786053
:103200007B689A68054B134043F001027B689A6023
:1032100000BF0C37BD465DF8047B7047C0FFFF7FE1
:1032200080B483B000AF78607B689B6803F00103D3
:10323000012B01D1012300E0002318460C37BD46C5
:103240005DF8047B7047000080B483B000AF786005
:103250007B689A68054B134043F004027B689A60D0
:1032600000BF0C37BD465DF8047B7047C0FFFF7F91
:1032700080B483B000AF78607B689B6803F0040380
:10328000042B01D1012300E0002318460C37BD4672
:103290005DF8047B704780B483B000AF78607B68D2
:1032A0009B6803F00803082B01D1012300E00023F1
:1032B00018460C37BD465DF8047B704790B589B061
:1032C00000AF78600023FB770023BB607B68002B96
:1032D00001D101238FE17B68DB68002B7B685B6D8C
:1032E000002B09D17868FEF731FF7B6800229A65D0
:1032F0007B68002283F850207B681B681846FFF724
:103300003FFF0346002B04D07B681B681846FFF77D
:1033100025FF7B681B681846FFF75AFF0346002B02
:1033200014D17B681B681846FFF73EFF874B1B686C
:103330009B09874AA2FB03239B090133BB6002E080
:10334000BB68013BBB60BB68002BF9D17B681B6885
:103350001846FFF73DFF0346002B0DD17B685B6DE0
:1033600043F010027B685A657B689B6D43F0010255
:103370007B689A650123FB777B681B681846FFF71B
:1033800077FF78617B685B6D03F01003002B40F0E2
:1033900029817B69002B40F025817B685B6D23F4DC
:1033A000817343F002027B685A657B681B6818468C
:1033B000FFF736FF0346002B36D17B681B68654A52
:1033C000934204D07B681B68634A93420ED16148E4
:1033D000FFF726FF04466048FFF722FF034623431A
:1033E000002B0CBF01230023DBB208E05B48FFF792
:1033F00017FF0346002B0CBF01230023DBB2002B79
:1034000012D07B681B68534A934204D07B681B68C8
:10341000514A934201D1524A00E0524A7B685B68AC
:1034200019461046FFF742FDFFF734FD034641F20F
:103430000302934214D97B689B68102B10D17B68E0
:103440005B7D5A037B681B6B1A437B689B681A433E
:103450007B681B7F1B04134343F00C03BB610DE02F
:103460007B685B7D5A037B681B6B1A437B689B6898
:103470001A437B681B7F1B041343BB617B681B7F64
:10348000012B06D17B681B6A013B5B04BA691343BD
:10349000BB617B685B6A002B09D07B685B6A03F4C5
:1034A00078727B689B6A1343BA691343BB617B687C
:1034B0001B68DA682C4B13407A681268B9690B43B1
:1034C000D3607B681B681846FFF7D2FE38617B68C3
:1034D0001B681846FFF7DFFEF8603B69002B5FD1E1
:1034E000FB68002B5CD17B681B7D9A037B68DB6AE1
:1034F0001343BB617B681B68DA681C4B13407A6816
:103500001268B9690B43D3607B6893F83830012B9C
:1035100030D17B685B6A002B7B681B681A69144B8F
:1035200013407A68D26B013A11047A68126C114325
:103530007A68526C11437A68926C0A431A437B682A
:103540001B6842F001021A611CE000BF1000002459
:10355000632D3E0500200240002102400060025819
:10356000002302400063025803C0F0FFFCBFFFFFCE
:103570001EF800FC7B681B681A697B681B6822F0D8
:1035800001021A617B681B681B6923F070417B682C
:103590005A6B7B681B680A431A61786800F0C4FFA5
:1035A0007B68DB68012B0CD17B681B681B6B23F0ED
:1035B0000F017B689B695A1E7B681B680A431A636C
:1035C00007E07B681B681A6B7B681B6822F00F02A0
:1035D0001A637B685B6D23F0030343F001027B6891
:1035E0005A6507E07B685B6D43F010027B685A65A3
:1035F0000123FB77FB7F18462437BD4690BD00BFF3
:1036000080B586B000AFF860B9607A60FB681B686F
:10361000554A934204D0FB681B68544A934201D137
:10362000534B00E0534B1846FFF77CFD3861FB68B5
:103630001B681846FFF71CFE0346002B40F08C80E9
:10364000FB6893F85030012B01D1022387E0FB681F
:10365000012283F850203B69002B05D03B69052BE4
:1036600002D03B69092B70D1F86800F03FFE034699
:10367000FB75FB7D002B63D1FB685A6D3E4B1340FD
:1036800043F48072FB685A65FB681B68374A9342B3
:1036900002D0FB681B6800E0334BFA681268934263
:1036A00002D03B69002B05D1FB685B6D23F48012CF
:1036B000FB685A65FB685B6D03F48053002B06D0F2
:1036C000FB689B6D23F00602FB689A6502E0FB68CD
:1036D00000229A65FB68DB6C284ADA63FB68DB6CC6
:1036E000274A1A64FB68DB6C264ADA64FB681B68AD
:1036F0001C221A60FB68002283F85020FB681B68BC
:103700005A68FB681B6842F010025A60FB681A682E
:10371000FB68DB6A19461046FFF78FFCFB68D86C24
:10372000FB681B6840331946BA687B6801F0C4FD2A
:103730000346FB75FB681B681846FFF785FD0DE027
:10374000FB68002283F8502008E00123FB75FB682A
:10375000002283F8502001E00223FB75FB7D184610
:103760001837BD4680BD00BF002002400021024046
:103770000023024000630258FEF0FFFF01440008EE
:10378000D9440008F544000880B58AB000AF7860DD
:1037900000237B627B681B681B68FB617B681B687E
:1037A0005B68BB617B681B68874A934204D07B6877
:1037B0001B68864A934201D1854B00E0854B184631
:1037C000FFF7B0FC7861FB6903F00203002B17D010
:1037D000BB6903F00203002B12D07B685B6D03F022
:1037E0001003002B05D17B685B6D43F400627B689E
:1037F0005A65786800F0F2FF7B681B6802221A6045
:10380000FB6903F00403002B04D0BB6903F004033D
:10381000002B0AD1FB6903F00803002B00F0838022
:10382000BB6903F00803002B7DD07B685B6D03F060
:103830001003002B05D17B685B6D43F400727B683D
:103840005A657B681B681846FFF7B8FB0346002BD8
:1038500062D07B681B685D4A934202D07B681B681C
:1038600000E0594B7A681268934208D07B69002BBC
:1038700005D07B69052B02D07B69092B04D17B68BD
:103880001B68DB683B620CE07B681B684F4A934215
:1038900002D07B681B6800E04B4B3B613B69DB68F7
:1038A0003B623B6A03F40053002B35D17B681B68F5
:1038B0001B6803F00803082B2ED17B681B68184691
:1038C000FFF7D6FC0346002B1AD17B681B685A68A9
:1038D0007B681B6822F00C025A607B685B6D23F4E6
:1038E00080727B685A657B685B6D03F48053002BA4
:1038F00012D17B685B6D43F001027B685A650BE077
:103900007B685B6D43F010027B685A657B689B6D3A
:1039100043F001027B689A65786800F06FF97B6874
:103920001B680C221A60FB6903F02003002B04D0F3
:10393000BB6903F02003002B0BD1FB6903F04003AC
:10394000002B00F0A080BB6903F04003002B00F0C7
:103950009A807B685B6D03F01003002B05D17B68B8
:103960005B6D43F400527B685A657B681B681846A0
:10397000FFF776FBF8607B681B681846FFF71EFBB5
:10398000B8607B681B68114A934202D07B681B6851
:1039900000E00D4B7A681268934208D07B69002BD7
:1039A00005D07B69062B02D07B69072B04D17B688D
:1039B0001B68DB683B6214E07B681B68034A934228
:1039C0000AD07B681B6808E000200240002102400A
:1039D0000023024000630258844B3B613B69DB6873
:1039E0003B62FB68002B47D03B6A03F00073002B5F
:1039F00007D0BB68002B3FD03B6A03F40053002B79
:103A00003AD17B681B681B6803F04003402B33D11D
:103A10003B6A03F40013002B2ED17B681B68184609
:103A2000FFF739FC0346002B1AD17B681B685A68E4
:103A30007B681B6822F060025A607B685B6D23F430
:103A400080527B685A657B685B6D03F48073002B42
:103A500012D17B685B6D43F001027B685A650BE015
:103A60007B685B6D43F010027B685A657B689B6DD9
:103A700043F001027B689A65786800F087FE7B68F6
:103A80001B6860221A60FB6903F08003002B11D0D1
:103A9000BB6903F08003002B0CD07B685B6D43F4A3
:103AA00080327B685A65786800F0BCF87B681B68D8
:103AB00080221A60FB6903F48073002B12D0BB696B
:103AC00003F48073002B0DD07B685B6D43F40032F0
:103AD0007B685A65786800F06DFE7B681B684FF460
:103AE00080721A60FB6903F40073002B12D0BB696B
:103AF00003F40073002B0DD07B685B6D43F48022D0
:103B00007B685A65786800F05FFE7B681B684FF43D
:103B100000721A60FB6903F01003002B43D0BB69ED
:103B200003F01003002B3ED07B681B6B002B02D1EF
:103B300001237B6221E07B69002B15D07B681B6829
:103B40002A4A934204D07B681B68294A934201D1D8
:103B5000284B00E0284B1846FFF7F2FA0346002BEB
:103B60000BD001237B6208E07B681B68DB6803F0F5
:103B70000303002B01D001237B627B6A012B0ED152
:103B80007B685B6D43F480627B685A657B689B6DE4
:103B900043F002027B689A65786800F04DF87B6814
:103BA0001B6810221A60FB6903F48063002B18D095
:103BB000BB6903F48063002B13D07B685B6D43F417
:103BC00080427B685A657B689B6D43F008027B6886
:103BD0009A657B681B684FF480621A60786800F011
:103BE000DFFD00BF2837BD4680BD00BF002002407A
:103BF00000210240002302400063025880B483B0D9
:103C000000AF786000BF0C37BD465DF8047B70479D
:103C100080B483B000AF786000BF0C37BD465DF85C
:103C2000047B704780B483B000AF786000BF0C376E
:103C3000BD465DF8047B704780B483B000AF786008
:103C400000BF0C37BD465DF8047B704790B5A1B04E
:103C500000AF78603960002387F87F300023BB60B5
:103C60003B68DB689D4A93427B6893F85030012B98
:103C700001D1022321E37B68012283F850207B6875
:103C80001B681846FFF7F4FA0346002B40F0068342
:103C90003B681B68C3F31303002B08D13B681B6808
:103CA0009B0E03F01F03012202FA03F316E03B68A8
:103CB0001B687B667B6E93FAA3F33B663B6EBB6629
:103CC000BB6E002B01D1202303E0BB6EB3FA83F35C
:103CD000DBB203F01F03012202FA03F37A681268D1
:103CE000D1697A6812680B43D3617B6818683B68B6
:103CF00059683B681B681A46FFF773F97B681B68B5
:103D00001846FFF7B5FAB8677B681B681846FFF7D7
:103D1000C2FA7867BB6F002B40F0B3807B6F002B3B
:103D200040F0AF807B6818683B6819683B689B6807
:103D30001A46FFF7A8F96A4B1B6803F07043B3F10A
:103D4000805F0BD13B685A697B681B68DB689B0806
:103D500003F007035B0002FA03F31DE07B681B68B6
:103D6000DB6803F01003002B0BD13B685A697B68BA
:103D70001B68DB689B0803F007035B0002FA03F390
:103D80000AE03B685A697B681B68DB689B0803F0A4
:103D900004035B0002FA03F33B673B681B69042BD7
:103DA00027D07B6818683B6819693B681A683B6FC5
:103DB000FFF7B0F87B6818683B6819693B685B7E61
:103DC000012B02D14FF0004300E000231A46FFF719
:103DD000DAF87B6818683B6819693B681B7E012B21
:103DE00002D14FF4006300E000231A46FFF7B2F857
:103DF00047E07B681B681B6E03F0F8423B681B685A
:103E00009B069A4207D17B681B681A6E7B681B6809
:103E100022F000421A667B681B685B6E03F0F84272
:103E20003B681B689B069A4207D17B681B685A6EE9
:103E30007B681B6822F000425A667B681B689B6E99
:103E400003F0F8423B681B689B069A4207D17B68E7
:103E50001B689A6E7B681B6822F000429A667B683A
:103E60001B68DB6E03F0F8423B681B689B069A42B6
:103E700007D17B681B68DA6E7B681B6822F0004202
:103E8000DA667B681B681846FFF7CAF90346002B01
:103E900040F00D827B6818683B6819683B68DB68F6
:103EA0001A46FFF71BF93B68DB680C4A934240F067
:103EB00033817B6818683B681B68C3F31303002BCE
:103EC00010D13B681B689B0E013303F01F03092BC5
:103ED00094BF01230023DBB21EE000BF0000FF47B8
:103EE0000010005C3B681B68BB65BB6D93FAA3F3D5
:103EF0007B657B6DFB65FB6D002B01D1202303E00F
:103F0000FB6DB3FA83F3DBB2013303F01F03092B1C
:103F100094BF01230023DBB2002B79D03B681B68E0
:103F2000C3F31303002B07D13B681B689B0E0133BF
:103F30009B0603F0F84215E03B681B68FB64FB6CD2
:103F400093FAA3F3BB64BB6C3B653B6D002B01D1C3
:103F5000202303E03B6DB3FA83F3DBB201339B060E
:103F600003F0F8423B681B68C3F31303002B09D12D
:103F70003B681B689B0E013303F01F03012101FA0C
:103F800003F317E03B681B683B643B6C93FAA3F3B5
:103F9000FB63FB6B7B647B6C002B01D1202303E074
:103FA0007B6CB3FA83F3DBB2013303F01F0301210F
:103FB00001FA03F342EA03013B681B68C3F31303EE
:103FC000002B0AD13B681B689B0E013303F01F02D4
:103FD00013465B0013441B0518E03B681B687B63BA
:103FE0007B6B93FAA3F33B633B6BBB63BB6B002B15
:103FF00001D1202303E0BB6BB3FA83F3DBB20133BF
:1040000003F01F0213465B0013441B050B437EE0C5
:104010003B681B68C3F31303002B07D13B681B6885
:104020009B0E01339B0603F0F84215E03B681B68CA
:10403000BB62BB6A93FAA3F37B627B6AFB62FB6A97
:10404000002B01D1202303E0FB6AB3FA83F3DBB238
:1040500001339B0603F0F8423B681B68C3F313036C
:10406000002B09D13B681B689B0E013303F01F0333
:10407000012101FA03F317E03B681B68FB61FB6950
:1040800093FAA3F3BB61BB693B623B6A002B01D18E
:10409000202303E03B6AB3FA83F3DBB2013303F07E
:1040A0001F03012101FA03F342EA03013B681B6885
:1040B000C3F31303002B0DD13B681B689B0E013328
:1040C00003F01F0213465B0013441E3B1B0543F025
:1040D00000731BE03B681B683B613B6993FAA3F3E9
:1040E000FB60FB687B617B69002B01D1202303E02F
:1040F0007B69B3FA83F3DBB2013303F01F0213468B
:104100005B0013441E3B1B0543F000730B433A68EE
:1041100092681946FEF7B7FF3B681B68002B80F2D8
:10412000C6807B681B68674A934204D07B681B6823
:10413000654A934201D1654B00E0654B1846FEF796
:10414000DBFEF8667B681B685E4A934204D07B689E
:104150001B685D4A93420ED15A48FFF761F8044646
:104160005948FFF75DF803462343002B0CBF01239A
:104170000023DBB208E05748FFF752F80346002B54
:104180000CBF01230023DBB2002B7DD03B681B68F2
:10419000514A934230D1FB6E03F40003002B2BD124
:1041A0007B681B684B4A934240F081807B681B68A8
:1041B000444A934204D07B681B68434A934201D12E
:1041C000424A00E0424AFB6E43F40003194610469F
:1041D000FEF77FFE414B1B689B09414AA2FB03236C
:1041E0009B0901335B00BB6002E0BB68013BBB6025
:1041F000BB68002BF9D15AE03B681B68394A9342EF
:104200001ED1FB6E03F08073002B19D17B681B68F5
:10421000304A93424BD17B681B682A4A934204D0B0
:104220007B681B68284A934201D1284A00E0284A4B
:10423000FB6E43F0807319461046FEF74AFE36E0E7
:104240003B681B68284A934231D1FB6E03F480031C
:10425000002B2CD17B681B681E4A934227D17B68B8
:104260001B68184A934204D07B681B68164A934225
:1042700001D1164A00E0164AFB6E43F4800319464A
:104280001046FEF726FE12E07B685B6D43F02002CD
:104290007B685A65012387F87F3008E07B685B6D97
:1042A00043F020027B685A65012387F87F307B68E2
:1042B000002283F8502097F87F3018468437BD4697
:1042C00090BD00BF002002400021024000230240B8
:1042D0000063025800600258000084CB10000024E4
:1042E000632D3E05000052C70000B8CF80B584B0F2
:1042F00000AF78607B681B681846FEF791FF0346A5
:10430000002B6ED17B681B689A68384B1340002BDA
:104310000DD07B685B6D43F010027B685A657B684B
:104320009B6D43F001027B689A6501235AE07B682C
:104330001B681846FEF760FFFEF77CFDF8607B689F
:104340001B682B4A934204D07B681B68294A93421E
:1043500001D1294B00E0294B1846FEF7E3FEB86077
:104360007B681B68234A934202D07B681B6800E08D
:104370001F4B7A68126893422CD0BB68002B30D157
:1043800028E07B681B681846FEF74AFF0346002BAF
:1043900004D17B681B681846FEF72EFFFEF74AFD26
:1043A0000246FB68D31A022B14D97B681B681B6872
:1043B00003F00103012B0DD07B685B6D43F010020D
:1043C0007B685A657B689B6D43F001027B689A6548
:1043D000012307E07B681B681B6803F00103012BC6
:1043E000CFD1002318461037BD4680BD3F00008066
:1043F00000200240002102400023024000630258D6
:1044000080B584B000AF78607B689B6BFB60FB6815
:104410005B6D03F05003002B4BD1FB685B6D43F4E5
:104420000072FB685A65FB681B681B6803F0080391
:10443000002B21D0FB681B681846FEF7BFFD034622
:10444000002B32D0FB681B68DB6803F40053002BA1
:104450002BD1FB685B6D23F48072FB685A65FB68A7
:104460005B6D03F48053002B1FD1FB685B6D43F041
:104470000102FB685A6518E0FB681B68DB6803F003
:104480000303002B11D1FB685B6D23F48072FB6882
:104490005A65FB685B6D03F48053002B05D1FB6804
:1044A0005B6D43F00102FB685A65F868FFF7A6FBF5
:1044B0000EE0FB685B6D03F01003002B03D0F8687F
:1044C000FFF7BAFB04E0FB68DB6CDB6C78689847AD
:1044D00000BF1037BD4680BD80B584B000AF7860A6
:1044E0007B689B6BFB60F868FFF792FB00BF10379F
:1044F000BD4680BD80B584B000AF78607B689B6BA3
:10450000FB60FB685B6D43F04002FB685A65FB682B
:104510009B6D43F00402FB689A65F868FFF78CFB1B
:1045200000BF1037BD4680BD80B584B000AF786055
:104530007B681B687A4A934204D07B681B68794A7F
:10454000934209D1784B9B6803F44033002B14BF8E
:1045500001230023DBB208E0744B9B6803F4403373
:10456000002B14BF01230023DBB2002B1CD004F06E
:1045700057FCF8607B685B68B3F5403F10D0B3F53B
:10458000403F73D8B3F5803F02D0B3F5003F6DD103
:104590007B685B681B0CFA68B2FBF3F3FB6068E0B6
:1045A000FB689B08FB6064E04FF400204FF00001C3
:1045B00005F09CFEF8607B685B68B3F5301F51D056
:1045C000B3F5301F54D8B3F5201F47D0B3F5201FE3
:1045D0004ED8B3F5101F3DD0B3F5101F48D8B3F532
:1045E000001F33D0B3F5001F42D8B3F5E01F29D028
:1045F000B3F5E01F3CD8B3F5C01F1AD0B3F5C01F08
:1046000036D8B3F5A01F14D0B3F5A01F30D8B3F53A
:10461000801F0ED0B3F5801F2AD8B3F5402F08D0E5
:10462000B3F5402F24D8B3F5802F02D0B3F5002F77
:104630001ED17B685B689B0C5B00FA68B2FBF3F3EE
:10464000FB6016E0FB681B09FB6012E0FB685B097E
:10465000FB600EE0FB689B09FB600AE0FB68DB097E
:10466000FB6006E0FB681B0AFB6002E000BF00E0A5
:1046700000BFFEF70FFC034641F20302934215D838
:10468000FB682B4A934208D97B681B689A687B6851
:104690001B6842F480729A603EE07B681B689A68EF
:1046A0007B681B6822F480729A6035E0FB685B08C7
:1046B000FB60FB681F4A934208D87B681B689A68B6
:1046C0007B681B6822F440729A6025E0FB681A4AF6
:1046D00093420AD87B681B689B6823F440727B680E
:1046E0001B6842F480729A6016E0FB68134A93429A
:1046F0000AD87B681B689B6823F440727B681B6840
:1047000042F400729A6007E07B681B689A687B68D5
:104710001B6842F440729A6000BF1037BD4680BDEE
:1047200000200240002102400023024000630258A2
:10473000002D3101105E5F0020BCBE0040787D017D
:1047400080B483B000AF78607B689B6803F001039E
:10475000012B01D1012300E0002318460C37BD4690
:104760005DF8047B704780B483B000AF78607B68ED
:104770009B6803F00403042B01D1012300E0002314
:1047800018460C37BD465DF8047B704780B483B093
:1047900000AF786000BF0C37BD465DF8047B704702
:1047A00080B483B000AF786000BF0C37BD465DF8C1
:1047B000047B704780B483B000AF786000BF0C37D3
:1047C000BD465DF8047B704780B483B000AF78606D
:1047D00000BF0C37BD465DF8047B704780B483B0E2
:1047E00000AF786000BF0C37BD465DF8047B7047B2
:1047F00090B59FB000AF78603960002387F87730BC
:104800007B6893F85030012B01D10223BEE07B6816
:10481000012283F850200023FB6500233B667B6860
:104820001B685C4A934202D15B4BBB6001E00023F2
:10483000BB60BB68002B0BD17B685B6D43F0200233
:104840007B685A657B68002283F8502001239DE035
:10485000BB681846FFF787FF38677B681B681846F8
:10486000FFF781FF0346002B7FD13B6F002B7CD1EC
:104870007B681B68474A934204D07B681B68464AA2
:10488000934201D1454B00E0454BFB663B681B68FA
:10489000002B39D0FB6E9B6823F440423B685B6879
:1048A0001A43FB6E9A607B681B683A4A934204D0B5
:1048B0007B681B68384A93420ED13648FFF740FFA9
:1048C00004463548FFF73CFF03462343002B0CBF4B
:1048D00001230023DBB208E03248FFF731FF034633
:1048E000002B0CBF01230023DBB2002B47D0FB6E53
:1048F0009A682D4B13403A6811683A6892680A43E7
:104900001A43FB6E9A603AE0FB6E9B6823F44042C8
:10491000FB6E9A607B681B681E4A934204D07B68DA
:104920001B681D4A93420ED11A48FFF709FF04463F
:104930001948FFF705FF03462343002B0CBF012353
:104940000023DBB208E01748FFF7FAFE0346002B0E
:104950000CBF01230023DBB2002B10D0FB6E9A6842
:10496000114B1340FA6E936009E07B685B6D43F076
:1049700020027B685A65012387F8773000E000BF8A
:104980007B68002283F8502097F8773018467C37F0
:10499000BD4690BD0020024000210240002302409D
:1049A0000063025800600258E0F0FFFF80B485B059
:1049B00000AF78607B6803F00703FB600B4BDB689C
:1049C000BB60BA684FF6FF031340BB60FB681A0276
:1049D000BB681A43064B1343BB60044ABB68D360F1
:1049E00000BF1437BD465DF8047B704700ED00E062
:1049F0000000FA0580B400AF044BDB681B0A03F02B
:104A000007031846BD465DF8047B704700ED00E0E3
:104A100080B483B000AF0346FB80B7F90630002BAB
:104A20000BDBFB8803F01F020749B7F906305B096F
:104A3000012000FA02F241F8232000BF0C37BD46E6
:104A40005DF8047B704700BF00E100E080B483B0F4
:104A500000AF03463960FB80B7F90630002B0ADB54
:104A60003B68DAB20C49B7F906301201D2B20B44F6
:104A700083F800230AE03B68DAB20849FB8803F0B8
:104A80000F03043B1201D2B20B441A7600BF0C375D
:104A9000BD465DF8047B704700E100E000ED00E0FA
:104AA00080B489B000AFF860B9607A60FB6803F049
:104AB0000703FB61FB69C3F10703042B28BF042331
:104AC000BB61FB690433062B02D9FB69033B00E0A1
:104AD00000237B614FF0FF32BB6902FA03F3DA4334
:104AE000BB681A407B699A404FF0FF317B6901FA3D
:104AF00003F3D9437B680B40134318462437BD4664
:104B00005DF8047B7047000080B400AFBFF34F8FA7
:104B100000BF064BDB6803F4E0620449044B134317
:104B2000CB60BFF34F8F00BF00BFFDE700ED00E09B
:104B30000400FA0580B582B000AF78607B68013B65
:104B4000B3F1807F01D301230FE00A4A7B68013B68
:104B500053600F214FF0FF30FFF778FF054B002225
:104B60009A60044B07221A60002318460837BD4696
:104B700080BD00BF10E000E080B582B000AF78607B
:104B80007868FFF713FF00BF0837BD4680BD80B5CA
:104B900086B000AF0346B9607A60FB81FFF72AFF59
:104BA00078617A68B9687869FFF77AFF0246B7F9E1
:104BB0000E3011461846FFF749FF00BF1837BD46B3
:104BC00080BD80B582B000AF0346FB80B7F90630E8
:104BD0001846FFF71DFF00BF0837BD4680BD80B5F2
:104BE00000AFFFF791FF80B582B000AF78607868C2
:104BF000FFF7A0FF034618460837BD4680BD0000FA
:104C000080B586B000AF7860FEF714F938617B6834
:104C1000002B01D1012316E37B681B68664A93428F
:104C20004AD07B681B68654A934245D07B681B6805
:104C3000634A934240D07B681B68624A93423BD0F0
:104C40007B681B68604A934236D07B681B685F4A6A
:104C5000934231D07B681B685D4A93422CD07B68BD
:104C60001B685C4A934227D07B681B685A4A934270
:104C700022D07B681B68594A93421DD07B681B6811
:104C8000574A934218D07B681B68564A934213D008
:104C90007B681B68544A93420ED07B681B68534A5A
:104CA000934209D07B681B68514A934204D07B68C9
:104CB0001B68504A934201D1012300E00023002BDE
:104CC00000F03B817B68022283F835207B6800225C
:104CD00083F834207B681B68374A93424AD07B684C
:104CE0001B68364A934245D07B681B68344A93421E
:104CF00040D07B681B68334A93423BD07B681B687B
:104D0000314A934236D07B681B68304A934231D097
:104D10007B681B682E4A93422CD07B681B682D4A07
:104D2000934227D07B681B682B4A934222D07B6832
:104D30001B682A4A93421DD07B681B68284A93420D
:104D400018D07B681B68274A934213D07B681B6886
:104D5000254A93420ED07B681B68244A934209D0AF
:104D60007B681B68224A934204D07B681B68214AF7
:104D7000934208D17B681B681A687B681B6822F025
:104D800001021A6007E07B681B681A687B681B6871
:104D900022F001021A602FE0FEF74CF802463B6950
:104DA000D31A052B28D97B6820225A657B680322F9
:104DB00083F83520012346E210000240280002401B
:104DC000400002405800024070000240880002404B
:104DD000A0000240B8000240100402402804024033
:104DE000400402405804024070040240880402401B
:104DF000A0040240B80402407B681B681B6803F0F3
:104E00000103002BC8D17B681B681B687B617A6932
:104E1000834B13407B617B689A687B68DB681A432D
:104E20007B681B691A437B685B691A437B689B69D3
:104E30001A437B68DB691A437B681B6A13437A69F0
:104E400013437B617B685B6A042B07D17B68DA6A5A
:104E50007B681B6B13437A6913437B61714B1A6840
:104E6000714B1340B3F1005F28D37B685B68282B3C
:104E700003D97B685B682E2B17D97B685B683E2B58
:104E800003D97B685B68422B0FD97B685B68462B34
:104E900003D97B685B68482B07D97B685B684E2B1E
:104EA00005D97B685B68522B01D8012300E0002301
:104EB000002B03D07B6943F480137B617B681B6804
:104EC0007A691A607B681B685B697B617B6923F088
:104ED00007037B617B685B6A7A6913437B617B684C
:104EE0005B6A042B17D17B689B6A7A6913437B61E9
:104EF0007B68DB6A002B0ED0786801F0CFFD03469B
:104F0000002B08D07B6840225A657B68012283F819
:104F10003520012397E17B681B687A695A617868BC
:104F200001F00AFD0346BB607B68DB6D03F01F03E5
:104F30003F229A40BB689A60CDE07B681B683B4A81
:104F4000934222D07B681B68394A93421DD07B680C
:104F50001B68384A934218D07B681B68364A9342D4
:104F600013D07B681B68354A93420ED07B681B6860
:104F7000334A934209D07B681B68324A934204D07B
:104F80007B681B68304A934201D1012300E0002373
:104F9000002B00F097807B681B68244A934221D045
:104FA0007B681B68224A93421CD07B681B68214A9D
:104FB000934217D07B681B681F4A934212D07B68CC
:104FC0001B681E4A93420DD07B681B681C4A9342A3
:104FD00008D07B681B681B4A934203D07B681B6820
:104FE000194A93427B68022283F835207B680022AD
:104FF00083F834207B681B681B687B617A69134BDC
:1050000013407B617B689B68402B21D07B689B6849
:10501000802B02D14FF480431BE0002319E000BF36
:105020003F8010FE0010005C0000FFFF0854025893
:105030001C540258305402584454025858540258D0
:105040006C54025880540258945402580F00FEFFCA
:1050500010237A68D268D2081A437B681B69DB0880
:105060001A437B685B69DB081A437B689B69DB0832
:105070001A437B68DB69DB081A437B681B6A1B09E0
:1050800013437A6913437B617B681B687A691A60F2
:105090007B681B681A466E4B13446E4AA2FB0323BF
:1050A0001B099A007B68DA65786801F045FC0346C5
:1050B000FB607B68DB6D03F01F0301229A40FB68F5
:1050C0005A6008E07B6840225A657B68032283F8B7
:1050D00035200123B7E07B681B685F4A934272D09A
:1050E0007B681B685D4A93426DD07B681B685C4A95
:1050F000934268D07B681B685A4A934263D07B68AE
:105100001B68594A93425ED07B681B68574A93429A
:1051100059D07B681B68564A934254D07B681B6801
:10512000544A93424FD07B681B68534A93424AD0FB
:105130007B681B68514A934245D07B681B68504A84
:10514000934240D07B681B684E4A93423BD07B68B9
:105150001B684D4A934236D07B681B684B4A93428A
:1051600031D07B681B684A4A93422CD07B681B680D
:10517000484A934227D07B681B68474A934222D013
:105180007B681B68454A93421DD07B681B68444A74
:10519000934218D07B681B68424A934213D07B68C5
:1051A0001B68414A93420ED07B681B683F4A93427A
:1051B00009D07B681B683E4A934204D07B681B6819
:1051C0003C4A934201D1012300E00023002B32D05E
:1051D000786801F0DFFC7B689B68802B02D17B68DC
:1051E00000225A607B685A687B681B6ED2B21A60D4
:1051F0007B685B6E7A68926E5A607B685B68002B96
:1052000010D07B685B68082B0CD8786801F05CFDD7
:105210007B68DB6E00221A607B681B6F7A68526FB6
:105220005A6008E07B680022DA667B6800221A6711
:105230007B6800225A677B6800225A657B680122DE
:1052400083F83520002318461837BD4680BD00BFBF
:10525000F8ABFDA7CDCCCCCC10000240280002401A
:1052600040000240580002407000024088000240A6
:10527000A0000240B800024010040240280402408E
:105280004004024058040240700402408804024076
:10529000A0040240B8040240085402581C540258AA
:1052A0003054025844540258585402586C5402580E
:1052B000805402589454025880B586B000AFF8600C
:1052C000B9607A603B600023FB75FB68002B01D15D
:1052D000012326E2FB6893F83430012B01D102232D
:1052E0001FE2FB68012283F83420FB6893F8353015
:1052F000DBB2012B40F00A82FB68022283F83520E2
:10530000FB6800225A65FB681B68684A93424AD0D2
:10531000FB681B68664A934245D0FB681B68654A78
:10532000934240D0FB681B68634A93423BD0FB68C2
:105330001B68624A934236D0FB681B68604A9342FE
:1053400031D0FB681B685F4A93422CD0FB681B6816
:105350005D4A934227D0FB681B685C4A934222D087
:10536000FB681B685A4A93421DD0FB681B68594A68
:10537000934218D0FB681B68574A934213D0FB68CE
:105380001B68564A93420ED0FB681B68544A9342EE
:1053900009D0FB681B68534A934204D0FB681B6822
:1053A000514A934208D1FB681B681A68FB681B6866
:1053B00022F001021A6007E0FB681B681A68FB68AC
:1053C0001B6822F001021A603B687A68B968F868C5
:1053D00001F006F9FB681B68344A93424AD0FB6827
:1053E0001B68334A934245D0FB681B68314A93429D
:1053F00040D0FB681B68304A93423BD0FB681B6877
:105400002E4A934236D0FB681B682D4A934231D016
:10541000FB681B682B4A93422CD0FB681B682A4A06
:10542000934227D0FB681B68284A934222D0FB682E
:105430001B68274A93421DD0FB681B68254A93428C
:1054400018D0FB681B68244A934213D0FB681B6882
:10545000224A93420ED0FB681B68214A934209D02E
:10546000FB681B681F4A934204D0FB681B681E4AF6
:10547000934201D1012300E00023002B36D0FB68CA
:105480001B681B6823F01E02FB681B6842F01602B3
:105490001A60FB681B6C002B3ED0FB681B681A6807
:1054A000FB681B6842F008021A6035E010000240F9
:1054B00028000240400002405800024070000240B4
:1054C00088000240A0000240B800024010040240E0
:1054D0002804024040040240580402407004024084
:1054E00088040240A0040240B8040240FB681B6824
:1054F0001B6823F00E02FB681B6842F00A021A6068
:10550000FB681B6C002B07D0FB681B681A68FB68E4
:105510001B6842F004021A60FB681B68834A9342CE
:1055200072D0FB681B68824A93426DD0FB681B688F
:10553000804A934268D0FB681B687F4A934263D0DD
:10554000FB681B687D4A93425ED0FB681B687C4AFF
:10555000934259D0FB681B687A4A934254D0FB6847
:105560001B68794A93424FD0FB681B68774A934285
:105570004AD0FB681B68764A934245D0FB681B689B
:10558000744A934240D0FB681B68734A93423BD0F5
:10559000FB681B68714A934236D0FB681B68704AEF
:1055A000934231D0FB681B686E4A93422CD0FB6853
:1055B0001B686D4A934227D0FB681B686B4A934275
:1055C00022D0FB681B686A4A93421DD0FB681B68A7
:1055D000684A934218D0FB681B68674A934213D00D
:1055E000FB681B68654A93420ED0FB681B68644ADF
:1055F000934209D0FB681B68624A934204D0FB685F
:105600001B68614A934201D1012300E00023002B73
:105610001AD0FB681B6E1B6803F48033002B07D085
:10562000FB681B6E1A68FB681B6E42F480721A607E
:10563000FB68DB6E002B07D0FB68DB6E1A68FB682B
:10564000DB6E42F480721A60FB681B68374A934233
:105650004AD0FB681B68364A934245D0FB681B68FA
:10566000344A934240D0FB681B68334A93423BD094
:10567000FB681B68314A934236D0FB681B68304A8E
:10568000934231D0FB681B682E4A93422CD0FB68B2
:105690001B682D4A934227D0FB681B682B4A934214
:1056A00022D0FB681B682A4A93421DD0FB681B6806
:1056B000284A934218D0FB681B68274A934213D0AC
:1056C000FB681B68254A93420ED0FB681B68244A7E
:1056D000934209D0FB681B68224A934204D0FB68BE
:1056E0001B68214A934208D1FB681B681A68FB6853
:1056F0001B6842F001021A6012E0FB681B681A681E
:10570000FB681B6842F001021A6009E0FB684FF475
:1057100000625A65FB68002283F834200123FB7580
:10572000FB7D18461837BD4680BD00BF1000024003
:105730002800024040000240580002407000024031
:1057400088000240A0000240B8000240100402405D
:105750002804024040040240580402407004024001
:1057600088040240A0040240B804024008540258D1
:105770001C54025830540258445402585854025889
:105780006C540258805402589454025880B58AB020
:1057900000AF78600023FB60674B1B68674AA2FB81
:1057A00003239B0A7B627B689B6D3B627B689B6DDE
:1057B000FB613B6A1B68BB61FB691B687B617B68A3
:1057C0001B685F4A93424AD07B681B685D4A9342DC
:1057D00045D07B681B685C4A934240D07B681B685D
:1057E0005A4A93423BD07B681B68594A934236D051
:1057F0007B681B68574A934231D07B681B68564AC6
:1058000093422CD07B681B68544A934227D07B6814
:105810001B68534A934222D07B681B68514A9342CB
:105820001DD07B681B68504A934218D07B681B6868
:105830004E4A934213D07B681B684D4A93420ED068
:105840007B681B684B4A934209D07B681B684A4AB5
:10585000934204D07B681B68484A934201D10123DC
:1058600000E00023002B00F02B847B68DB6D03F04D
:105870001F0308229A40BB691340002B00F0A2804E
:105880007B681B682E4A93424AD07B681B682D4A6E
:10589000934245D07B681B682B4A934240D07B687B
:1058A0001B682A4A93423BD07B681B68284A934274
:1058B00036D07B681B68274A934231D07B681B68CF
:1058C000254A93422CD07B681B68244A934227D0F8
:1058D0007B681B68224A934222D07B681B68214A5E
:1058E00093421DD07B681B681F4A934218D07B6887
:1058F0001B681E4A934213D07B681B681C4A934264
:105900000ED07B681B681B4A934209D07B681B68DA
:10591000194A934204D07B681B68184A93422FD1DE
:105920007B681B681B6803F00403002B14BF012372
:105930000023DBB22EE000BF10000024B5814E1B17
:10594000100002402800024040000240580002407F
:105950007000024088000240A0000240B8000240EF
:10596000100402402804024040040240580402404F
:105970007004024088040240A0040240B8040240BF
:105980007B681B681B6803F00803002B14BF01230E
:105990000023DBB2002B15D07B681B681A687B687C
:1059A0001B6822F004021A607B68DB6D03F01F03A2
:1059B00008229A403B6A9A607B685B6D43F0010263
:1059C0007B685A657B68DB6D03F01F03BA6922FAB6
:1059D00003F303F00103002B6ED07B681B68694A58
:1059E00093424AD07B681B68674A934245D07B68E4
:1059F0001B68664A934240D07B681B68644A9342A6
:105A00003BD07B681B68634A934236D07B681B6837
:105A1000614A934231D07B681B68604A93422CD024
:105A20007B681B685E4A934227D07B681B685D4A8F
:105A3000934222D07B681B685B4A93421DD07B68EF
:105A40001B685A4A934218D07B681B68584A934295
:105A500013D07B681B68574A93420ED07B681B6843
:105A6000554A934209D07B681B68544A934204D03C
:105A70007B681B68524A93420AD17B681B685B694A
:105A800003F08003002B14BF01230023DBB203E0EB
:105A90007B681B681B680023002B0DD07B68DB6DC7
:105AA00003F01F0301229A403B6A9A607B685B6D9A
:105AB00043F002027B685A657B68DB6D03F01F03CD
:105AC00004229A40BB691340002B00F08F807B6852
:105AD0001B682C4A93424AD07B681B682A4A93422F
